{
	"Auction.sol": {
		"Auction": {
			"abi": [
				{
					"inputs": [
						{
							"internalType": "uint256",
							"name": "_duration",
							"type": "uint256"
						},
						{
							"internalType": "uint256",
							"name": "_basePrice",
							"type": "uint256"
						},
						{
							"internalType": "uint256",
							"name": "_allowedIncrement",
							"type": "uint256"
						},
						{
							"internalType": "uint256",
							"name": "_extension",
							"type": "uint256"
						},
						{
							"internalType": "uint256",
							"name": "_gasFee",
							"type": "uint256"
						}
					],
					"stateMutability": "nonpayable",
					"type": "constructor"
				},
				{
					"anonymous": false,
					"inputs": [
						{
							"indexed": false,
							"internalType": "uint256",
							"name": "newEndTime",
							"type": "uint256"
						},
						{
							"indexed": true,
							"internalType": "address",
							"name": "lastBidder",
							"type": "address"
						},
						{
							"indexed": false,
							"internalType": "uint256",
							"name": "lastBidAmount",
							"type": "uint256"
						}
					],
					"name": "AuctionExtended",
					"type": "event"
				},
				{
					"anonymous": false,
					"inputs": [
						{
							"indexed": true,
							"internalType": "address",
							"name": "winnerBidder",
							"type": "address"
						},
						{
							"indexed": false,
							"internalType": "uint256",
							"name": "winnerBid",
							"type": "uint256"
						}
					],
					"name": "AuctionFinished",
					"type": "event"
				},
				{
					"anonymous": false,
					"inputs": [
						{
							"indexed": true,
							"internalType": "address",
							"name": "bidder",
							"type": "address"
						},
						{
							"indexed": false,
							"internalType": "uint256",
							"name": "amount",
							"type": "uint256"
						}
					],
					"name": "NewBid",
					"type": "event"
				},
				{
					"anonymous": false,
					"inputs": [
						{
							"indexed": true,
							"internalType": "address",
							"name": "bidder",
							"type": "address"
						},
						{
							"indexed": false,
							"internalType": "uint256",
							"name": "withdrawnAmount",
							"type": "uint256"
						}
					],
					"name": "PartialWithdraw",
					"type": "event"
				},
				{
					"anonymous": false,
					"inputs": [
						{
							"indexed": true,
							"internalType": "address",
							"name": "bidder",
							"type": "address"
						},
						{
							"indexed": false,
							"internalType": "uint256",
							"name": "refundAmount",
							"type": "uint256"
						}
					],
					"name": "Refund",
					"type": "event"
				},
				{
					"inputs": [],
					"name": "allowedIncrement",
					"outputs": [
						{
							"internalType": "uint256",
							"name": "",
							"type": "uint256"
						}
					],
					"stateMutability": "view",
					"type": "function"
				},
				{
					"inputs": [],
					"name": "bid",
					"outputs": [],
					"stateMutability": "payable",
					"type": "function"
				},
				{
					"inputs": [],
					"name": "duration",
					"outputs": [
						{
							"internalType": "uint256",
							"name": "",
							"type": "uint256"
						}
					],
					"stateMutability": "view",
					"type": "function"
				},
				{
					"inputs": [],
					"name": "endTime",
					"outputs": [
						{
							"internalType": "uint256",
							"name": "",
							"type": "uint256"
						}
					],
					"stateMutability": "view",
					"type": "function"
				},
				{
					"inputs": [],
					"name": "extension",
					"outputs": [
						{
							"internalType": "uint256",
							"name": "",
							"type": "uint256"
						}
					],
					"stateMutability": "view",
					"type": "function"
				},
				{
					"inputs": [],
					"name": "gasFee",
					"outputs": [
						{
							"internalType": "uint256",
							"name": "",
							"type": "uint256"
						}
					],
					"stateMutability": "view",
					"type": "function"
				},
				{
					"inputs": [],
					"name": "getBids",
					"outputs": [
						{
							"components": [
								{
									"components": [
										{
											"internalType": "address",
											"name": "bidder",
											"type": "address"
										},
										{
											"internalType": "uint256",
											"name": "amount",
											"type": "uint256"
										}
									],
									"internalType": "struct Auction.Bid",
									"name": "bid",
									"type": "tuple"
								},
								{
									"internalType": "uint256",
									"name": "pendingWithdraw",
									"type": "uint256"
								}
							],
							"internalType": "struct Auction.BidRecord[]",
							"name": "",
							"type": "tuple[]"
						}
					],
					"stateMutability": "view",
					"type": "function"
				},
				{
					"inputs": [],
					"name": "getTimeLeft",
					"outputs": [
						{
							"internalType": "uint256",
							"name": "",
							"type": "uint256"
						}
					],
					"stateMutability": "view",
					"type": "function"
				},
				{
					"inputs": [],
					"name": "getWinnerBid",
					"outputs": [
						{
							"components": [
								{
									"internalType": "address",
									"name": "bidder",
									"type": "address"
								},
								{
									"internalType": "uint256",
									"name": "amount",
									"type": "uint256"
								}
							],
							"internalType": "struct Auction.Bid",
							"name": "",
							"type": "tuple"
						}
					],
					"stateMutability": "view",
					"type": "function"
				},
				{
					"inputs": [],
					"name": "owner",
					"outputs": [
						{
							"internalType": "address",
							"name": "",
							"type": "address"
						}
					],
					"stateMutability": "view",
					"type": "function"
				},
				{
					"inputs": [],
					"name": "partialWithdraw",
					"outputs": [],
					"stateMutability": "nonpayable",
					"type": "function"
				},
				{
					"inputs": [],
					"name": "refundAll",
					"outputs": [],
					"stateMutability": "nonpayable",
					"type": "function"
				},
				{
					"inputs": [],
					"name": "startTime",
					"outputs": [
						{
							"internalType": "uint256",
							"name": "",
							"type": "uint256"
						}
					],
					"stateMutability": "view",
					"type": "function"
				},
				{
					"inputs": [],
					"name": "winnerBid",
					"outputs": [
						{
							"internalType": "address",
							"name": "bidder",
							"type": "address"
						},
						{
							"internalType": "uint256",
							"name": "amount",
							"type": "uint256"
						}
					],
					"stateMutability": "view",
					"type": "function"
				},
				{
					"inputs": [],
					"name": "withdrawBalance",
					"outputs": [],
					"stateMutability": "nonpayable",
					"type": "function"
				}
			],
			"devdoc": {
				"author": "Fernando Malaspina",
				"details": "Auction rules: - Bids must be at least 5% higher than the current highest bid. - The base price for the auction is 1 ether. - Auction duration is initially set to 7 days. - The auction is extended by 10 minutes with every valid new bid made in the last 10 minutes.   This allows other bidders enough time to respond.",
				"events": {
					"AuctionExtended(uint256,address,uint256)": {
						"params": {
							"lastBidAmount": "Amount of the triggering bid.",
							"lastBidder": "Address of the bidder who triggered the extension.",
							"newEndTime": "Updated auction end time."
						}
					},
					"AuctionFinished(address,uint256)": {
						"params": {
							"winnerBid": "Value of the winning bid in wei.",
							"winnerBidder": "Address of the auction winner."
						}
					},
					"NewBid(address,uint256)": {
						"params": {
							"amount": "Amount of the bid in wei.",
							"bidder": "Address of the wallet that placed the bid."
						}
					},
					"PartialWithdraw(address,uint256)": {
						"params": {
							"bidder": "Address of the bidder.",
							"withdrawnAmount": "Amount withdrawn in wei."
						}
					},
					"Refund(address,uint256)": {
						"params": {
							"bidder": "Address of the bidder.",
							"refundAmount": "Amount refunded in wei."
						}
					}
				},
				"kind": "dev",
				"methods": {
					"bid()": {
						"details": "Reverts if bid is not at least 5% higher or if sender is current highest bidder."
					},
					"constructor": {
						"params": {
							"_allowedIncrement": "Allowed percent increment over the las bid.",
							"_basePrice": "Auction base price.",
							"_duration": "Auction duration.",
							"_extension": "Auction extension when bid is placed within last 10 minutes.",
							"_gasFee": "Price of the gas."
						}
					},
					"getBids()": {
						"returns": {
							"_0": "A list of BidRecord structs containing each bidder's data."
						}
					},
					"getTimeLeft()": {
						"returns": {
							"_0": "Time left in seconds."
						}
					},
					"getWinnerBid()": {
						"returns": {
							"_0": "Bid containing the highest bidder and bid amount."
						}
					}
				},
				"stateVariables": {
					"bidders": {
						"details": "Helper array used to iterate over bidders for refund processing."
					},
					"isRefunded": {
						"details": "Is set to true when all balances had been refunded"
					}
				},
				"title": "Public auction for generic assets",
				"version": 1
			},
			"evm": {
				"assembly": "    /* \"Auction.sol\":575:10405  contract Auction is BaseContract {... */\n  mstore(0x40, 0x0140)\n    /* \"Auction.sol\":2190:2195  false */\n  0x00\n    /* \"Auction.sol\":2164:2195  bool private isRefunded = false */\n  0x06\n  exp(0x0100, 0x00)\n  dup2\n  sload\n  dup2\n  0xff\n  mul\n  not\n  and\n  swap1\n  dup4\n  iszero\n  iszero\n  mul\n  or\n  swap1\n  sstore\n  pop\n    /* \"Auction.sol\":2552:2924  constructor(uint256 _duration, uint256 _basePrice, uint256 _allowedIncrement, uint256 _extension, uint256 _gasFee) {... */\n  callvalue\n  dup1\n  iszero\n  tag_1\n  jumpi\n  revert(0x00, 0x00)\ntag_1:\n  pop\n  mload(0x40)\n  sub(codesize, bytecodeSize)\n  dup1\n  bytecodeSize\n  dup4\n  codecopy\n  dup2\n  dup2\n  add\n  0x40\n  mstore\n  dup2\n  add\n  swap1\n  tag_2\n  swap2\n  swap1\n  tag_3\n  jump\t// in\ntag_2:\n    /* \"BaseContract.sol\":285:286  1 */\n  0x01\n    /* \"BaseContract.sol\":663:670  _status */\n  0x00\n    /* \"BaseContract.sol\":663:685  _status = _NOT_ENTERED */\n  dup2\n  swap1\n  sstore\n  pop\n    /* \"BaseContract.sol\":703:713  msg.sender */\n  caller\n    /* \"BaseContract.sol\":695:713  owner = msg.sender */\n  0xffffffffffffffffffffffffffffffffffffffff\n  and\n  0x80\n  dup2\n  0xffffffffffffffffffffffffffffffffffffffff\n  and\n  dup2\n  mstore\n  pop\n  pop\n    /* \"Auction.sol\":2689:2704  block.timestamp */\n  timestamp\n    /* \"Auction.sol\":2677:2704  startTime = block.timestamp */\n  0xa0\n  dup2\n  dup2\n  mstore\n  pop\n  pop\n    /* \"Auction.sol\":2725:2734  _duration */\n  dup5\n    /* \"Auction.sol\":2714:2734  duration = _duration */\n  0xc0\n  dup2\n  dup2\n  mstore\n  pop\n  pop\n    /* \"Auction.sol\":2766:2774  duration */\n  mload(0xc0)\n    /* \"Auction.sol\":2754:2763  startTime */\n  mload(0xa0)\n    /* \"Auction.sol\":2754:2774  startTime + duration */\n  tag_8\n  swap2\n  swap1\n  tag_9\n  jump\t// in\ntag_8:\n    /* \"Auction.sol\":2744:2751  endTime */\n  0x01\n    /* \"Auction.sol\":2744:2774  endTime = startTime + duration */\n  dup2\n  swap1\n  sstore\n  pop\n    /* \"Auction.sol\":2803:2813  _basePrice */\n  dup4\n    /* \"Auction.sol\":2784:2793  winnerBid */\n  0x02\n    /* \"Auction.sol\":2784:2800  winnerBid.amount */\n  0x01\n  add\n    /* \"Auction.sol\":2784:2813  winnerBid.amount = _basePrice */\n  dup2\n  swap1\n  sstore\n  pop\n    /* \"Auction.sol\":2842:2859  _allowedIncrement */\n  dup3\n    /* \"Auction.sol\":2823:2859  allowedIncrement = _allowedIncrement */\n  0xe0\n  dup2\n  dup2\n  mstore\n  pop\n  pop\n    /* \"Auction.sol\":2881:2891  _extension */\n  dup2\n    /* \"Auction.sol\":2869:2891  extension = _extension */\n  0x0100\n  dup2\n  dup2\n  mstore\n  pop\n  pop\n    /* \"Auction.sol\":2910:2917  _gasFee */\n  dup1\n    /* \"Auction.sol\":2901:2917  gasFee = _gasFee */\n  0x0120\n  dup2\n  dup2\n  mstore\n  pop\n  pop\n    /* \"Auction.sol\":2552:2924  constructor(uint256 _duration, uint256 _basePrice, uint256 _allowedIncrement, uint256 _extension, uint256 _gasFee) {... */\n  pop\n  pop\n  pop\n  pop\n  pop\n    /* \"Auction.sol\":575:10405  contract Auction is BaseContract {... */\n  jump(tag_10)\n    /* \"#utility.yul\":88:205   */\ntag_12:\n    /* \"#utility.yul\":197:198   */\n  0x00\n    /* \"#utility.yul\":194:195   */\n  0x00\n    /* \"#utility.yul\":187:199   */\n  revert\n    /* \"#utility.yul\":334:411   */\ntag_14:\n    /* \"#utility.yul\":371:378   */\n  0x00\n    /* \"#utility.yul\":400:405   */\n  dup2\n    /* \"#utility.yul\":389:405   */\n  swap1\n  pop\n    /* \"#utility.yul\":334:411   */\n  swap2\n  swap1\n  pop\n  jump\t// out\n    /* \"#utility.yul\":417:539   */\ntag_15:\n    /* \"#utility.yul\":490:514   */\n  tag_24\n    /* \"#utility.yul\":508:513   */\n  dup2\n    /* \"#utility.yul\":490:514   */\n  tag_14\n  jump\t// in\ntag_24:\n    /* \"#utility.yul\":483:488   */\n  dup2\n    /* \"#utility.yul\":480:515   */\n  eq\n    /* \"#utility.yul\":470:533   */\n  tag_25\n  jumpi\n    /* \"#utility.yul\":529:530   */\n  0x00\n    /* \"#utility.yul\":526:527   */\n  0x00\n    /* \"#utility.yul\":519:531   */\n  revert\n    /* \"#utility.yul\":470:533   */\ntag_25:\n    /* \"#utility.yul\":417:539   */\n  pop\n  jump\t// out\n    /* \"#utility.yul\":545:688   */\ntag_16:\n    /* \"#utility.yul\":602:607   */\n  0x00\n    /* \"#utility.yul\":633:639   */\n  dup2\n    /* \"#utility.yul\":627:640   */\n  mload\n    /* \"#utility.yul\":618:640   */\n  swap1\n  pop\n    /* \"#utility.yul\":649:682   */\n  tag_27\n    /* \"#utility.yul\":676:681   */\n  dup2\n    /* \"#utility.yul\":649:682   */\n  tag_15\n  jump\t// in\ntag_27:\n    /* \"#utility.yul\":545:688   */\n  swap3\n  swap2\n  pop\n  pop\n  jump\t// out\n    /* \"#utility.yul\":694:1671   */\ntag_3:\n    /* \"#utility.yul\":800:806   */\n  0x00\n    /* \"#utility.yul\":808:814   */\n  0x00\n    /* \"#utility.yul\":816:822   */\n  0x00\n    /* \"#utility.yul\":824:830   */\n  0x00\n    /* \"#utility.yul\":832:838   */\n  0x00\n    /* \"#utility.yul\":881:884   */\n  0xa0\n    /* \"#utility.yul\":869:878   */\n  dup7\n    /* \"#utility.yul\":860:867   */\n  dup9\n    /* \"#utility.yul\":856:879   */\n  sub\n    /* \"#utility.yul\":852:885   */\n  slt\n    /* \"#utility.yul\":849:969   */\n  iszero\n  tag_29\n  jumpi\n    /* \"#utility.yul\":888:967   */\n  tag_30\n  tag_12\n  jump\t// in\ntag_30:\n    /* \"#utility.yul\":849:969   */\ntag_29:\n    /* \"#utility.yul\":1008:1009   */\n  0x00\n    /* \"#utility.yul\":1033:1097   */\n  tag_31\n    /* \"#utility.yul\":1089:1096   */\n  dup9\n    /* \"#utility.yul\":1080:1086   */\n  dup3\n    /* \"#utility.yul\":1069:1078   */\n  dup10\n    /* \"#utility.yul\":1065:1087   */\n  add\n    /* \"#utility.yul\":1033:1097   */\n  tag_16\n  jump\t// in\ntag_31:\n    /* \"#utility.yul\":1023:1097   */\n  swap6\n  pop\n    /* \"#utility.yul\":979:1107   */\n  pop\n    /* \"#utility.yul\":1146:1148   */\n  0x20\n    /* \"#utility.yul\":1172:1236   */\n  tag_32\n    /* \"#utility.yul\":1228:1235   */\n  dup9\n    /* \"#utility.yul\":1219:1225   */\n  dup3\n    /* \"#utility.yul\":1208:1217   */\n  dup10\n    /* \"#utility.yul\":1204:1226   */\n  add\n    /* \"#utility.yul\":1172:1236   */\n  tag_16\n  jump\t// in\ntag_32:\n    /* \"#utility.yul\":1162:1236   */\n  swap5\n  pop\n    /* \"#utility.yul\":1117:1246   */\n  pop\n    /* \"#utility.yul\":1285:1287   */\n  0x40\n    /* \"#utility.yul\":1311:1375   */\n  tag_33\n    /* \"#utility.yul\":1367:1374   */\n  dup9\n    /* \"#utility.yul\":1358:1364   */\n  dup3\n    /* \"#utility.yul\":1347:1356   */\n  dup10\n    /* \"#utility.yul\":1343:1365   */\n  add\n    /* \"#utility.yul\":1311:1375   */\n  tag_16\n  jump\t// in\ntag_33:\n    /* \"#utility.yul\":1301:1375   */\n  swap4\n  pop\n    /* \"#utility.yul\":1256:1385   */\n  pop\n    /* \"#utility.yul\":1424:1426   */\n  0x60\n    /* \"#utility.yul\":1450:1514   */\n  tag_34\n    /* \"#utility.yul\":1506:1513   */\n  dup9\n    /* \"#utility.yul\":1497:1503   */\n  dup3\n    /* \"#utility.yul\":1486:1495   */\n  dup10\n    /* \"#utility.yul\":1482:1504   */\n  add\n    /* \"#utility.yul\":1450:1514   */\n  tag_16\n  jump\t// in\ntag_34:\n    /* \"#utility.yul\":1440:1514   */\n  swap3\n  pop\n    /* \"#utility.yul\":1395:1524   */\n  pop\n    /* \"#utility.yul\":1563:1566   */\n  0x80\n    /* \"#utility.yul\":1590:1654   */\n  tag_35\n    /* \"#utility.yul\":1646:1653   */\n  dup9\n    /* \"#utility.yul\":1637:1643   */\n  dup3\n    /* \"#utility.yul\":1626:1635   */\n  dup10\n    /* \"#utility.yul\":1622:1644   */\n  add\n    /* \"#utility.yul\":1590:1654   */\n  tag_16\n  jump\t// in\ntag_35:\n    /* \"#utility.yul\":1580:1654   */\n  swap2\n  pop\n    /* \"#utility.yul\":1534:1664   */\n  pop\n    /* \"#utility.yul\":694:1671   */\n  swap3\n  swap6\n  pop\n  swap3\n  swap6\n  swap1\n  swap4\n  pop\n  jump\t// out\n    /* \"#utility.yul\":1677:1857   */\ntag_17:\n    /* \"#utility.yul\":1725:1802   */\n  0x4e487b7100000000000000000000000000000000000000000000000000000000\n    /* \"#utility.yul\":1722:1723   */\n  0x00\n    /* \"#utility.yul\":1715:1803   */\n  mstore\n    /* \"#utility.yul\":1822:1826   */\n  0x11\n    /* \"#utility.yul\":1819:1820   */\n  0x04\n    /* \"#utility.yul\":1812:1827   */\n  mstore\n    /* \"#utility.yul\":1846:1850   */\n  0x24\n    /* \"#utility.yul\":1843:1844   */\n  0x00\n    /* \"#utility.yul\":1836:1851   */\n  revert\n    /* \"#utility.yul\":1863:2054   */\ntag_9:\n    /* \"#utility.yul\":1903:1906   */\n  0x00\n    /* \"#utility.yul\":1922:1942   */\n  tag_38\n    /* \"#utility.yul\":1940:1941   */\n  dup3\n    /* \"#utility.yul\":1922:1942   */\n  tag_14\n  jump\t// in\ntag_38:\n    /* \"#utility.yul\":1917:1942   */\n  swap2\n  pop\n    /* \"#utility.yul\":1956:1976   */\n  tag_39\n    /* \"#utility.yul\":1974:1975   */\n  dup4\n    /* \"#utility.yul\":1956:1976   */\n  tag_14\n  jump\t// in\ntag_39:\n    /* \"#utility.yul\":1951:1976   */\n  swap3\n  pop\n    /* \"#utility.yul\":1999:2000   */\n  dup3\n    /* \"#utility.yul\":1996:1997   */\n  dup3\n    /* \"#utility.yul\":1992:2001   */\n  add\n    /* \"#utility.yul\":1985:2001   */\n  swap1\n  pop\n    /* \"#utility.yul\":2020:2023   */\n  dup1\n    /* \"#utility.yul\":2017:2018   */\n  dup3\n    /* \"#utility.yul\":2014:2024   */\n  gt\n    /* \"#utility.yul\":2011:2047   */\n  iszero\n  tag_40\n  jumpi\n    /* \"#utility.yul\":2027:2045   */\n  tag_41\n  tag_17\n  jump\t// in\ntag_41:\n    /* \"#utility.yul\":2011:2047   */\ntag_40:\n    /* \"#utility.yul\":1863:2054   */\n  swap3\n  swap2\n  pop\n  pop\n  jump\t// out\n    /* \"Auction.sol\":575:10405  contract Auction is BaseContract {... */\ntag_10:\n  mload(0x80)\n  mload(0xa0)\n  mload(0xc0)\n  mload(0xe0)\n  mload(0x0100)\n  mload(0x0120)\n  codecopy(0x00, dataOffset(sub_0), dataSize(sub_0))\n  0x00\n  assignImmutable(\"0x1572b593c53d839d80004aa4b8c51211864104f06ace9e22be9c4365b50655ea\")\n  0x00\n  assignImmutable(\"0x731dc163f73d31d8c68f9917ce4ff967753939f70432973c04fd2c2a48148607\")\n  0x00\n  assignImmutable(\"0x8e8fab5f003314da8d1873ea7720e8d9f47650136d916064d1edb8a11d682624\")\n  0x00\n  assignImmutable(\"0x5c4c6aa067b6f8e6cb38e6ab843832a94d1712d661a04d73c517d6a1931a9e5d\")\n  0x00\n  assignImmutable(\"0xe4b1702d9298fee62dfeccc57d322a463ad55ca201256d01f62b45b2e1c21c10\")\n  0x00\n  assignImmutable(\"0xc2c77dc624b4aac67a6e14132cf7e60e698350f9c72b88ffba77407546a8ee13\")\n  return(0x00, dataSize(sub_0))\nstop\n\nsub_0: assembly {\n        /* \"Auction.sol\":575:10405  contract Auction is BaseContract {... */\n      mstore(0x40, 0x80)\n      jumpi(tag_1, lt(calldatasize, 0x04))\n      shr(0xe0, calldataload(0x00))\n      dup1\n      0x5fd8c710\n      gt\n      tag_17\n      jumpi\n      dup1\n      0xb81c78ec\n      gt\n      tag_18\n      jumpi\n      dup1\n      0xb81c78ec\n      eq\n      tag_13\n      jumpi\n      dup1\n      0xc7e284b8\n      eq\n      tag_14\n      jumpi\n      dup1\n      0xceb98f6e\n      eq\n      tag_15\n      jumpi\n      dup1\n      0xf90ca117\n      eq\n      tag_16\n      jumpi\n      jump(tag_1)\n    tag_18:\n      dup1\n      0x5fd8c710\n      eq\n      tag_9\n      jumpi\n      dup1\n      0x658612e9\n      eq\n      tag_10\n      jumpi\n      dup1\n      0x78e97925\n      eq\n      tag_11\n      jumpi\n      dup1\n      0x8da5cb5b\n      eq\n      tag_12\n      jumpi\n      jump(tag_1)\n    tag_17:\n      dup1\n      0x2d5537b0\n      gt\n      tag_19\n      jumpi\n      dup1\n      0x2d5537b0\n      eq\n      tag_5\n      jumpi\n      dup1\n      0x3197cbb6\n      eq\n      tag_6\n      jumpi\n      dup1\n      0x38e771ab\n      eq\n      tag_7\n      jumpi\n      dup1\n      0x430efe6f\n      eq\n      tag_8\n      jumpi\n      jump(tag_1)\n    tag_19:\n      dup1\n      0x0fb5a6b4\n      eq\n      tag_2\n      jumpi\n      dup1\n      0x11631d06\n      eq\n      tag_3\n      jumpi\n      dup1\n      0x1998aeef\n      eq\n      tag_4\n      jumpi\n    tag_1:\n      revert(0x00, 0x00)\n        /* \"Auction.sol\":902:935  uint256 public immutable duration */\n    tag_2:\n      callvalue\n      dup1\n      iszero\n      tag_20\n      jumpi\n      revert(0x00, 0x00)\n    tag_20:\n      pop\n      tag_21\n      tag_22\n      jump\t// in\n    tag_21:\n      mload(0x40)\n      tag_23\n      swap2\n      swap1\n      tag_24\n      jump\t// in\n    tag_23:\n      mload(0x40)\n      dup1\n      swap2\n      sub\n      swap1\n      return\n        /* \"Auction.sol\":1611:1631  Bid public winnerBid */\n    tag_3:\n      callvalue\n      dup1\n      iszero\n      tag_25\n      jumpi\n      revert(0x00, 0x00)\n    tag_25:\n      pop\n      tag_26\n      tag_27\n      jump\t// in\n    tag_26:\n      mload(0x40)\n      tag_28\n      swap3\n      swap2\n      swap1\n      tag_29\n      jump\t// in\n    tag_28:\n      mload(0x40)\n      dup1\n      swap2\n      sub\n      swap1\n      return\n        /* \"Auction.sol\":6064:6957  function bid() external payable isActive onlyGreaterBid onlyOtherThanWinnerBidder {... */\n    tag_4:\n      tag_30\n      tag_31\n      jump\t// in\n    tag_30:\n      stop\n        /* \"Auction.sol\":1193:1227  uint256 public immutable extension */\n    tag_5:\n      callvalue\n      dup1\n      iszero\n      tag_32\n      jumpi\n      revert(0x00, 0x00)\n    tag_32:\n      pop\n      tag_33\n      tag_34\n      jump\t// in\n    tag_33:\n      mload(0x40)\n      tag_35\n      swap2\n      swap1\n      tag_24\n      jump\t// in\n    tag_35:\n      mload(0x40)\n      dup1\n      swap2\n      sub\n      swap1\n      return\n        /* \"Auction.sol\":811:833  uint256 public endTime */\n    tag_6:\n      callvalue\n      dup1\n      iszero\n      tag_36\n      jumpi\n      revert(0x00, 0x00)\n    tag_36:\n      pop\n      tag_37\n      tag_38\n      jump\t// in\n    tag_37:\n      mload(0x40)\n      tag_39\n      swap2\n      swap1\n      tag_24\n      jump\t// in\n    tag_39:\n      mload(0x40)\n      dup1\n      swap2\n      sub\n      swap1\n      return\n        /* \"Auction.sol\":8919:10053  function refundAll() external onlyOwner isFinished notRefunded hasBids nonReentrant {... */\n    tag_7:\n      callvalue\n      dup1\n      iszero\n      tag_40\n      jumpi\n      revert(0x00, 0x00)\n    tag_40:\n      pop\n      tag_41\n      tag_42\n      jump\t// in\n    tag_41:\n      stop\n        /* \"Auction.sol\":1044:1085  uint256 public immutable allowedIncrement */\n    tag_8:\n      callvalue\n      dup1\n      iszero\n      tag_43\n      jumpi\n      revert(0x00, 0x00)\n    tag_43:\n      pop\n      tag_44\n      tag_45\n      jump\t// in\n    tag_44:\n      mload(0x40)\n      tag_46\n      swap2\n      swap1\n      tag_24\n      jump\t// in\n    tag_46:\n      mload(0x40)\n      dup1\n      swap2\n      sub\n      swap1\n      return\n        /* \"Auction.sol\":10163:10401  function withdrawBalance() external isFinished onlyOwner nonReentrant {... */\n    tag_9:\n      callvalue\n      dup1\n      iszero\n      tag_47\n      jumpi\n      revert(0x00, 0x00)\n    tag_47:\n      pop\n      tag_48\n      tag_49\n      jump\t// in\n    tag_48:\n      stop\n        /* \"Auction.sol\":1343:1374  uint256 public immutable gasFee */\n    tag_10:\n      callvalue\n      dup1\n      iszero\n      tag_50\n      jumpi\n      revert(0x00, 0x00)\n    tag_50:\n      pop\n      tag_51\n      tag_52\n      jump\t// in\n    tag_51:\n      mload(0x40)\n      tag_53\n      swap2\n      swap1\n      tag_24\n      jump\t// in\n    tag_53:\n      mload(0x40)\n      dup1\n      swap2\n      sub\n      swap1\n      return\n        /* \"Auction.sol\":678:712  uint256 public immutable startTime */\n    tag_11:\n      callvalue\n      dup1\n      iszero\n      tag_54\n      jumpi\n      revert(0x00, 0x00)\n    tag_54:\n      pop\n      tag_55\n      tag_56\n      jump\t// in\n    tag_55:\n      mload(0x40)\n      tag_57\n      swap2\n      swap1\n      tag_24\n      jump\t// in\n    tag_57:\n      mload(0x40)\n      dup1\n      swap2\n      sub\n      swap1\n      return\n        /* \"BaseContract.sol\":598:628  address public immutable owner */\n    tag_12:\n      callvalue\n      dup1\n      iszero\n      tag_58\n      jumpi\n      revert(0x00, 0x00)\n    tag_58:\n      pop\n      tag_59\n      tag_60\n      jump\t// in\n    tag_59:\n      mload(0x40)\n      tag_61\n      swap2\n      swap1\n      tag_62\n      jump\t// in\n    tag_61:\n      mload(0x40)\n      dup1\n      swap2\n      sub\n      swap1\n      return\n        /* \"Auction.sol\":7107:7420  function getBids()  external view hasBids returns (BidRecord[] memory) {... */\n    tag_13:\n      callvalue\n      dup1\n      iszero\n      tag_63\n      jumpi\n      revert(0x00, 0x00)\n    tag_63:\n      pop\n      tag_64\n      tag_65\n      jump\t// in\n    tag_64:\n      mload(0x40)\n      tag_66\n      swap2\n      swap1\n      tag_67\n      jump\t// in\n    tag_66:\n      mload(0x40)\n      dup1\n      swap2\n      sub\n      swap1\n      return\n        /* \"Auction.sol\":7546:7723  function getTimeLeft() external view returns (uint256) {... */\n    tag_14:\n      callvalue\n      dup1\n      iszero\n      tag_68\n      jumpi\n      revert(0x00, 0x00)\n    tag_68:\n      pop\n      tag_69\n      tag_70\n      jump\t// in\n    tag_69:\n      mload(0x40)\n      tag_71\n      swap2\n      swap1\n      tag_24\n      jump\t// in\n    tag_71:\n      mload(0x40)\n      dup1\n      swap2\n      sub\n      swap1\n      return\n        /* \"Auction.sol\":7869:7981  function getWinnerBid()  external view hasBids isFinished returns (Bid memory) {... */\n    tag_15:\n      callvalue\n      dup1\n      iszero\n      tag_72\n      jumpi\n      revert(0x00, 0x00)\n    tag_72:\n      pop\n      tag_73\n      tag_74\n      jump\t// in\n    tag_73:\n      mload(0x40)\n      tag_75\n      swap2\n      swap1\n      tag_76\n      jump\t// in\n    tag_75:\n      mload(0x40)\n      dup1\n      swap2\n      sub\n      swap1\n      return\n        /* \"Auction.sol\":8167:8607  function partialWithdraw() external isActive hasBids nonReentrant {... */\n    tag_16:\n      callvalue\n      dup1\n      iszero\n      tag_77\n      jumpi\n      revert(0x00, 0x00)\n    tag_77:\n      pop\n      tag_78\n      tag_79\n      jump\t// in\n    tag_78:\n      stop\n        /* \"Auction.sol\":902:935  uint256 public immutable duration */\n    tag_22:\n      immutable(\"0x5c4c6aa067b6f8e6cb38e6ab843832a94d1712d661a04d73c517d6a1931a9e5d\")\n      dup2\n      jump\t// out\n        /* \"Auction.sol\":1611:1631  Bid public winnerBid */\n    tag_27:\n      0x02\n      dup1\n      0x00\n      add\n      0x00\n      swap1\n      sload\n      swap1\n      0x0100\n      exp\n      swap1\n      div\n      0xffffffffffffffffffffffffffffffffffffffff\n      and\n      swap1\n      dup1\n      0x01\n      add\n      sload\n      swap1\n      pop\n      dup3\n      jump\t// out\n        /* \"Auction.sol\":6064:6957  function bid() external payable isActive onlyGreaterBid onlyOtherThanWinnerBidder {... */\n    tag_31:\n        /* \"Auction.sol\":4818:4825  endTime */\n      sload(0x01)\n        /* \"Auction.sol\":4799:4814  block.timestamp */\n      timestamp\n        /* \"Auction.sol\":4799:4825  block.timestamp <= endTime */\n      gt\n      iszero\n        /* \"Auction.sol\":4791:4849  require(block.timestamp <= endTime, \"Auction has expired\") */\n      tag_81\n      jumpi\n      mload(0x40)\n      0x08c379a000000000000000000000000000000000000000000000000000000000\n      dup2\n      mstore\n      0x04\n      add\n      tag_82\n      swap1\n      tag_83\n      jump\t// in\n    tag_82:\n      mload(0x40)\n      dup1\n      swap2\n      sub\n      swap1\n      revert\n    tag_81:\n        /* \"Auction.sol\":5677:5680  100 */\n      0x64\n        /* \"Auction.sol\":5669:5672  100 */\n      dup1\n        /* \"Auction.sol\":5650:5666  allowedIncrement */\n      immutable(\"0x8e8fab5f003314da8d1873ea7720e8d9f47650136d916064d1edb8a11d682624\")\n        /* \"Auction.sol\":5650:5672  allowedIncrement + 100 */\n      tag_85\n      swap2\n      swap1\n      tag_86\n      jump\t// in\n    tag_85:\n        /* \"Auction.sol\":5630:5639  winnerBid */\n      0x02\n        /* \"Auction.sol\":5630:5646  winnerBid.amount */\n      0x01\n      add\n      sload\n        /* \"Auction.sol\":5630:5673  winnerBid.amount * (allowedIncrement + 100) */\n      tag_87\n      swap2\n      swap1\n      tag_88\n      jump\t// in\n    tag_87:\n        /* \"Auction.sol\":5629:5680  (winnerBid.amount * (allowedIncrement + 100)) / 100 */\n      tag_89\n      swap2\n      swap1\n      tag_90\n      jump\t// in\n    tag_89:\n        /* \"Auction.sol\":5616:5625  msg.value */\n      callvalue\n        /* \"Auction.sol\":5616:5680  msg.value >= (winnerBid.amount * (allowedIncrement + 100)) / 100 */\n      lt\n      iszero\n        /* \"Auction.sol\":5595:5762  require(... */\n      tag_91\n      jumpi\n      mload(0x40)\n      0x08c379a000000000000000000000000000000000000000000000000000000000\n      dup2\n      mstore\n      0x04\n      add\n      tag_92\n      swap1\n      tag_93\n      jump\t// in\n    tag_92:\n      mload(0x40)\n      dup1\n      swap2\n      sub\n      swap1\n      revert\n    tag_91:\n        /* \"Auction.sol\":5366:5375  winnerBid */\n      0x02\n        /* \"Auction.sol\":5366:5382  winnerBid.bidder */\n      0x00\n      add\n      0x00\n      swap1\n      sload\n      swap1\n      0x0100\n      exp\n      swap1\n      div\n      0xffffffffffffffffffffffffffffffffffffffff\n      and\n        /* \"Auction.sol\":5352:5382  msg.sender != winnerBid.bidder */\n      0xffffffffffffffffffffffffffffffffffffffff\n      and\n        /* \"Auction.sol\":5352:5362  msg.sender */\n      caller\n        /* \"Auction.sol\":5352:5382  msg.sender != winnerBid.bidder */\n      0xffffffffffffffffffffffffffffffffffffffff\n      and\n      sub\n        /* \"Auction.sol\":5344:5419  require(msg.sender != winnerBid.bidder, \"You already have the highest bid\") */\n      tag_95\n      jumpi\n      mload(0x40)\n      0x08c379a000000000000000000000000000000000000000000000000000000000\n      dup2\n      mstore\n      0x04\n      add\n      tag_96\n      swap1\n      tag_97\n      jump\t// in\n    tag_96:\n      mload(0x40)\n      dup1\n      swap2\n      sub\n      swap1\n      revert\n    tag_95:\n        /* \"Auction.sol\":6188:6189  0 */\n      0x00\n        /* \"Auction.sol\":6160:6190  winnerBid.bidder != address(0) */\n      0xffffffffffffffffffffffffffffffffffffffff\n      and\n        /* \"Auction.sol\":6160:6169  winnerBid */\n      0x02\n        /* \"Auction.sol\":6160:6176  winnerBid.bidder */\n      0x00\n      add\n      0x00\n      swap1\n      sload\n      swap1\n      0x0100\n      exp\n      swap1\n      div\n      0xffffffffffffffffffffffffffffffffffffffff\n      and\n        /* \"Auction.sol\":6160:6190  winnerBid.bidder != address(0) */\n      0xffffffffffffffffffffffffffffffffffffffff\n      and\n      eq\n        /* \"Auction.sol\":6156:6350  if (winnerBid.bidder != address(0)) {... */\n      tag_99\n      jumpi\n        /* \"Auction.sol\":6206:6228  BidRecord storage prev */\n      0x00\n        /* \"Auction.sol\":6231:6235  bids */\n      0x04\n        /* \"Auction.sol\":6231:6253  bids[winnerBid.bidder] */\n      0x00\n        /* \"Auction.sol\":6236:6245  winnerBid */\n      0x02\n        /* \"Auction.sol\":6236:6252  winnerBid.bidder */\n      0x00\n      add\n      0x00\n      swap1\n      sload\n      swap1\n      0x0100\n      exp\n      swap1\n      div\n      0xffffffffffffffffffffffffffffffffffffffff\n      and\n        /* \"Auction.sol\":6231:6253  bids[winnerBid.bidder] */\n      0xffffffffffffffffffffffffffffffffffffffff\n      and\n      0xffffffffffffffffffffffffffffffffffffffff\n      and\n      dup2\n      mstore\n      0x20\n      add\n      swap1\n      dup2\n      mstore\n      0x20\n      add\n      0x00\n      keccak256\n        /* \"Auction.sol\":6206:6253  BidRecord storage prev = bids[winnerBid.bidder] */\n      swap1\n      pop\n        /* \"Auction.sol\":6291:6295  prev */\n      dup1\n        /* \"Auction.sol\":6291:6299  prev.bid */\n      0x00\n      add\n        /* \"Auction.sol\":6291:6306  prev.bid.amount */\n      0x01\n      add\n      sload\n        /* \"Auction.sol\":6267:6271  prev */\n      dup2\n        /* \"Auction.sol\":6267:6287  prev.pendingWithdraw */\n      0x02\n      add\n      0x00\n        /* \"Auction.sol\":6267:6306  prev.pendingWithdraw += prev.bid.amount */\n      dup3\n      dup3\n      sload\n      tag_100\n      swap2\n      swap1\n      tag_86\n      jump\t// in\n    tag_100:\n      swap3\n      pop\n      pop\n      dup2\n      swap1\n      sstore\n      pop\n        /* \"Auction.sol\":6338:6339  0 */\n      0x00\n        /* \"Auction.sol\":6320:6324  prev */\n      dup2\n        /* \"Auction.sol\":6320:6328  prev.bid */\n      0x00\n      add\n        /* \"Auction.sol\":6320:6335  prev.bid.amount */\n      0x01\n      add\n        /* \"Auction.sol\":6320:6339  prev.bid.amount = 0 */\n      dup2\n      swap1\n      sstore\n      pop\n        /* \"Auction.sol\":6192:6350  {... */\n      pop\n        /* \"Auction.sol\":6156:6350  if (winnerBid.bidder != address(0)) {... */\n    tag_99:\n        /* \"Auction.sol\":6365:6386  BidRecord storage rec */\n      0x00\n        /* \"Auction.sol\":6389:6393  bids */\n      0x04\n        /* \"Auction.sol\":6389:6405  bids[msg.sender] */\n      0x00\n        /* \"Auction.sol\":6394:6404  msg.sender */\n      caller\n        /* \"Auction.sol\":6389:6405  bids[msg.sender] */\n      0xffffffffffffffffffffffffffffffffffffffff\n      and\n      0xffffffffffffffffffffffffffffffffffffffff\n      and\n      dup2\n      mstore\n      0x20\n      add\n      swap1\n      dup2\n      mstore\n      0x20\n      add\n      0x00\n      keccak256\n        /* \"Auction.sol\":6365:6405  BidRecord storage rec = bids[msg.sender] */\n      swap1\n      pop\n        /* \"Auction.sol\":6454:6455  0 */\n      0x00\n        /* \"Auction.sol\":6428:6456  rec.bid.bidder == address(0) */\n      0xffffffffffffffffffffffffffffffffffffffff\n      and\n        /* \"Auction.sol\":6428:6431  rec */\n      dup2\n        /* \"Auction.sol\":6428:6435  rec.bid */\n      0x00\n      add\n        /* \"Auction.sol\":6428:6442  rec.bid.bidder */\n      0x00\n      add\n      0x00\n      swap1\n      sload\n      swap1\n      0x0100\n      exp\n      swap1\n      div\n      0xffffffffffffffffffffffffffffffffffffffff\n      and\n        /* \"Auction.sol\":6428:6456  rec.bid.bidder == address(0) */\n      0xffffffffffffffffffffffffffffffffffffffff\n      and\n      sub\n        /* \"Auction.sol\":6424:6604  if (rec.bid.bidder == address(0)) {          ... */\n      tag_101\n      jumpi\n        /* \"Auction.sol\":6482:6489  bidders */\n      0x05\n        /* \"Auction.sol\":6495:6505  msg.sender */\n      caller\n        /* \"Auction.sol\":6482:6506  bidders.push(msg.sender) */\n      swap1\n      dup1\n      0x01\n      dup2\n      sload\n      add\n      dup1\n      dup3\n      sstore\n      dup1\n      swap2\n      pop\n      pop\n      0x01\n      swap1\n      sub\n      swap1\n      0x00\n      mstore\n      keccak256(0x00, 0x20)\n      add\n      0x00\n      swap1\n      swap2\n      swap1\n      swap2\n      swap1\n      swap2\n      0x0100\n      exp\n      dup2\n      sload\n      dup2\n      0xffffffffffffffffffffffffffffffffffffffff\n      mul\n      not\n      and\n      swap1\n      dup4\n      0xffffffffffffffffffffffffffffffffffffffff\n      and\n      mul\n      or\n      swap1\n      sstore\n      pop\n        /* \"Auction.sol\":6424:6604  if (rec.bid.bidder == address(0)) {          ... */\n      jump(tag_103)\n    tag_101:\n        /* \"Auction.sol\":6576:6579  rec */\n      dup1\n        /* \"Auction.sol\":6576:6583  rec.bid */\n      0x00\n      add\n        /* \"Auction.sol\":6576:6590  rec.bid.amount */\n      0x01\n      add\n      sload\n        /* \"Auction.sol\":6553:6556  rec */\n      dup2\n        /* \"Auction.sol\":6553:6572  rec.pendingWithdraw */\n      0x02\n      add\n      0x00\n        /* \"Auction.sol\":6553:6590  rec.pendingWithdraw += rec.bid.amount */\n      dup3\n      dup3\n      sload\n      tag_104\n      swap2\n      swap1\n      tag_86\n      jump\t// in\n    tag_104:\n      swap3\n      pop\n      pop\n      dup2\n      swap1\n      sstore\n      pop\n        /* \"Auction.sol\":6424:6604  if (rec.bid.bidder == address(0)) {          ... */\n    tag_103:\n        /* \"Auction.sol\":6624:6650  Bid(msg.sender, msg.value) */\n      mload(0x40)\n      dup1\n      0x40\n      add\n      0x40\n      mstore\n      dup1\n        /* \"Auction.sol\":6628:6638  msg.sender */\n      caller\n        /* \"Auction.sol\":6624:6650  Bid(msg.sender, msg.value) */\n      0xffffffffffffffffffffffffffffffffffffffff\n      and\n      dup2\n      mstore\n      0x20\n      add\n        /* \"Auction.sol\":6640:6649  msg.value */\n      callvalue\n        /* \"Auction.sol\":6624:6650  Bid(msg.sender, msg.value) */\n      dup2\n      mstore\n      pop\n        /* \"Auction.sol\":6614:6617  rec */\n      dup2\n        /* \"Auction.sol\":6614:6621  rec.bid */\n      0x00\n      add\n        /* \"Auction.sol\":6614:6650  rec.bid = Bid(msg.sender, msg.value) */\n      0x00\n      dup3\n      add\n      mload\n      dup2\n      0x00\n      add\n      exp(0x0100, 0x00)\n      dup2\n      sload\n      dup2\n      0xffffffffffffffffffffffffffffffffffffffff\n      mul\n      not\n      and\n      swap1\n      dup4\n      0xffffffffffffffffffffffffffffffffffffffff\n      and\n      mul\n      or\n      swap1\n      sstore\n      pop\n      0x20\n      dup3\n      add\n      mload\n      dup2\n      0x01\n      add\n      sstore\n      swap1\n      pop\n      pop\n        /* \"Auction.sol\":6702:6728  Bid(msg.sender, msg.value) */\n      mload(0x40)\n      dup1\n      0x40\n      add\n      0x40\n      mstore\n      dup1\n        /* \"Auction.sol\":6706:6716  msg.sender */\n      caller\n        /* \"Auction.sol\":6702:6728  Bid(msg.sender, msg.value) */\n      0xffffffffffffffffffffffffffffffffffffffff\n      and\n      dup2\n      mstore\n      0x20\n      add\n        /* \"Auction.sol\":6718:6727  msg.value */\n      callvalue\n        /* \"Auction.sol\":6702:6728  Bid(msg.sender, msg.value) */\n      dup2\n      mstore\n      pop\n        /* \"Auction.sol\":6690:6699  winnerBid */\n      0x02\n        /* \"Auction.sol\":6690:6728  winnerBid = Bid(msg.sender, msg.value) */\n      0x00\n      dup3\n      add\n      mload\n      dup2\n      0x00\n      add\n      exp(0x0100, 0x00)\n      dup2\n      sload\n      dup2\n      0xffffffffffffffffffffffffffffffffffffffff\n      mul\n      not\n      and\n      swap1\n      dup4\n      0xffffffffffffffffffffffffffffffffffffffff\n      and\n      mul\n      or\n      swap1\n      sstore\n      pop\n      0x20\n      dup3\n      add\n      mload\n      dup2\n      0x01\n      add\n      sstore\n      swap1\n      pop\n      pop\n        /* \"Auction.sol\":6750:6760  msg.sender */\n      caller\n        /* \"Auction.sol\":6743:6772  NewBid(msg.sender, msg.value) */\n      0xffffffffffffffffffffffffffffffffffffffff\n      and\n      0xdd0b6c6a77960e2066c96171b4d7ac9e8b4c184011f38544afa36a5bb63ec59f\n        /* \"Auction.sol\":6762:6771  msg.value */\n      callvalue\n        /* \"Auction.sol\":6743:6772  NewBid(msg.sender, msg.value) */\n      mload(0x40)\n      tag_105\n      swap2\n      swap1\n      tag_24\n      jump\t// in\n    tag_105:\n      mload(0x40)\n      dup1\n      swap2\n      sub\n      swap1\n      log2\n        /* \"Auction.sol\":6820:6829  extension */\n      immutable(\"0x731dc163f73d31d8c68f9917ce4ff967753939f70432973c04fd2c2a48148607\")\n        /* \"Auction.sol\":6810:6817  endTime */\n      sload(0x01)\n        /* \"Auction.sol\":6810:6829  endTime - extension */\n      tag_106\n      swap2\n      swap1\n      tag_107\n      jump\t// in\n    tag_106:\n        /* \"Auction.sol\":6792:6807  block.timestamp */\n      timestamp\n        /* \"Auction.sol\":6792:6829  block.timestamp > endTime - extension */\n      gt\n        /* \"Auction.sol\":6788:6951  if (block.timestamp > endTime - extension) {... */\n      iszero\n      tag_108\n      jumpi\n        /* \"Auction.sol\":6865:6874  extension */\n      immutable(\"0x731dc163f73d31d8c68f9917ce4ff967753939f70432973c04fd2c2a48148607\")\n        /* \"Auction.sol\":6855:6862  endTime */\n      sload(0x01)\n        /* \"Auction.sol\":6855:6874  endTime + extension */\n      tag_109\n      swap2\n      swap1\n      tag_86\n      jump\t// in\n    tag_109:\n        /* \"Auction.sol\":6845:6852  endTime */\n      0x01\n        /* \"Auction.sol\":6845:6874  endTime = endTime + extension */\n      dup2\n      swap1\n      sstore\n      pop\n        /* \"Auction.sol\":6918:6928  msg.sender */\n      caller\n        /* \"Auction.sol\":6893:6940  AuctionExtended(endTime, msg.sender, msg.value) */\n      0xffffffffffffffffffffffffffffffffffffffff\n      and\n      0xbf5210f11796c8ce8b1d67add316e5a734c26896acce48ba93993f580af205ff\n        /* \"Auction.sol\":6909:6916  endTime */\n      sload(0x01)\n        /* \"Auction.sol\":6930:6939  msg.value */\n      callvalue\n        /* \"Auction.sol\":6893:6940  AuctionExtended(endTime, msg.sender, msg.value) */\n      mload(0x40)\n      tag_110\n      swap3\n      swap2\n      swap1\n      tag_111\n      jump\t// in\n    tag_110:\n      mload(0x40)\n      dup1\n      swap2\n      sub\n      swap1\n      log2\n        /* \"Auction.sol\":6788:6951  if (block.timestamp > endTime - extension) {... */\n    tag_108:\n        /* \"Auction.sol\":6146:6957  {... */\n      pop\n        /* \"Auction.sol\":6064:6957  function bid() external payable isActive onlyGreaterBid onlyOtherThanWinnerBidder {... */\n      jump\t// out\n        /* \"Auction.sol\":1193:1227  uint256 public immutable extension */\n    tag_34:\n      immutable(\"0x731dc163f73d31d8c68f9917ce4ff967753939f70432973c04fd2c2a48148607\")\n      dup2\n      jump\t// out\n        /* \"Auction.sol\":811:833  uint256 public endTime */\n    tag_38:\n      sload(0x01)\n      dup2\n      jump\t// out\n        /* \"Auction.sol\":8919:10053  function refundAll() external onlyOwner isFinished notRefunded hasBids nonReentrant {... */\n    tag_42:\n        /* \"BaseContract.sol\":843:848  owner */\n      immutable(\"0xc2c77dc624b4aac67a6e14132cf7e60e698350f9c72b88ffba77407546a8ee13\")\n        /* \"BaseContract.sol\":829:848  msg.sender == owner */\n      0xffffffffffffffffffffffffffffffffffffffff\n      and\n        /* \"BaseContract.sol\":829:839  msg.sender */\n      caller\n        /* \"BaseContract.sol\":829:848  msg.sender == owner */\n      0xffffffffffffffffffffffffffffffffffffffff\n      and\n      eq\n        /* \"BaseContract.sol\":821:887  require(msg.sender == owner, \"Only owner can perform this action\") */\n      tag_113\n      jumpi\n      mload(0x40)\n      0x08c379a000000000000000000000000000000000000000000000000000000000\n      dup2\n      mstore\n      0x04\n      add\n      tag_114\n      swap1\n      tag_115\n      jump\t// in\n    tag_114:\n      mload(0x40)\n      dup1\n      swap2\n      sub\n      swap1\n      revert\n    tag_113:\n        /* \"Auction.sol\":5000:5007  endTime */\n      sload(0x01)\n        /* \"Auction.sol\":4982:4997  block.timestamp */\n      timestamp\n        /* \"Auction.sol\":4982:5007  block.timestamp > endTime */\n      gt\n        /* \"Auction.sol\":4974:5035  require(block.timestamp > endTime, \"Auction is not finished\") */\n      tag_117\n      jumpi\n      mload(0x40)\n      0x08c379a000000000000000000000000000000000000000000000000000000000\n      dup2\n      mstore\n      0x04\n      add\n      tag_118\n      swap1\n      tag_119\n      jump\t// in\n    tag_118:\n      mload(0x40)\n      dup1\n      swap2\n      sub\n      swap1\n      revert\n    tag_117:\n        /* \"Auction.sol\":4630:4640  isRefunded */\n      0x06\n      0x00\n      swap1\n      sload\n      swap1\n      0x0100\n      exp\n      swap1\n      div\n      0xff\n      and\n        /* \"Auction.sol\":4629:4640  !isRefunded */\n      iszero\n        /* \"Auction.sol\":4621:4679  require(!isRefunded, \"Bidders have already been refunded\") */\n      tag_121\n      jumpi\n      mload(0x40)\n      0x08c379a000000000000000000000000000000000000000000000000000000000\n      dup2\n      mstore\n      0x04\n      add\n      tag_122\n      swap1\n      tag_123\n      jump\t// in\n    tag_122:\n      mload(0x40)\n      dup1\n      swap2\n      sub\n      swap1\n      revert\n    tag_121:\n        /* \"Auction.sol\":5176:5177  0 */\n      0x00\n        /* \"Auction.sol\":5158:5165  bidders */\n      0x05\n        /* \"Auction.sol\":5158:5172  bidders.length */\n      dup1\n      sload\n      swap1\n      pop\n        /* \"Auction.sol\":5158:5177  bidders.length != 0 */\n      sub\n        /* \"Auction.sol\":5150:5203  require(bidders.length != 0, \"There are no bids yet\") */\n      tag_125\n      jumpi\n      mload(0x40)\n      0x08c379a000000000000000000000000000000000000000000000000000000000\n      dup2\n      mstore\n      0x04\n      add\n      tag_126\n      swap1\n      tag_127\n      jump\t// in\n    tag_126:\n      mload(0x40)\n      dup1\n      swap2\n      sub\n      swap1\n      revert\n    tag_125:\n        /* \"BaseContract.sol\":424:425  2 */\n      0x02\n        /* \"BaseContract.sol\":1018:1025  _status */\n      sload(0x00)\n        /* \"BaseContract.sol\":1018:1037  _status != _ENTERED */\n      sub\n        /* \"BaseContract.sol\":1010:1073  require(_status != _ENTERED, \"ReentrancyGuard: reentrant call\") */\n      tag_129\n      jumpi\n      mload(0x40)\n      0x08c379a000000000000000000000000000000000000000000000000000000000\n      dup2\n      mstore\n      0x04\n      add\n      tag_130\n      swap1\n      tag_131\n      jump\t// in\n    tag_130:\n      mload(0x40)\n      dup1\n      swap2\n      sub\n      swap1\n      revert\n    tag_129:\n        /* \"BaseContract.sol\":424:425  2 */\n      0x02\n        /* \"BaseContract.sol\":1084:1091  _status */\n      0x00\n        /* \"BaseContract.sol\":1084:1102  _status = _ENTERED */\n      dup2\n      swap1\n      sstore\n      pop\n        /* \"Auction.sol\":9018:9029  uint256 len */\n      0x00\n        /* \"Auction.sol\":9032:9039  bidders */\n      0x05\n        /* \"Auction.sol\":9032:9046  bidders.length */\n      dup1\n      sload\n      swap1\n      pop\n        /* \"Auction.sol\":9018:9046  uint256 len = bidders.length */\n      swap1\n      pop\n        /* \"Auction.sol\":9075:9084  uint256 i */\n      0x00\n        /* \"Auction.sol\":9070:9937  for (uint256 i; i < len; ) {           ... */\n    tag_133:\n        /* \"Auction.sol\":9090:9093  len */\n      dup2\n        /* \"Auction.sol\":9086:9087  i */\n      dup2\n        /* \"Auction.sol\":9086:9093  i < len */\n      lt\n        /* \"Auction.sol\":9070:9937  for (uint256 i; i < len; ) {           ... */\n      iszero\n      tag_134\n      jumpi\n        /* \"Auction.sol\":9126:9140  address bidder */\n      0x00\n        /* \"Auction.sol\":9143:9150  bidders */\n      0x05\n        /* \"Auction.sol\":9151:9152  i */\n      dup3\n        /* \"Auction.sol\":9143:9153  bidders[i] */\n      dup2\n      sload\n      dup2\n      lt\n      tag_136\n      jumpi\n      tag_137\n      tag_138\n      jump\t// in\n    tag_137:\n    tag_136:\n      swap1\n      0x00\n      mstore\n      keccak256(0x00, 0x20)\n      add\n      0x00\n      swap1\n      sload\n      swap1\n      0x0100\n      exp\n      swap1\n      div\n      0xffffffffffffffffffffffffffffffffffffffff\n      and\n        /* \"Auction.sol\":9126:9153  address bidder = bidders[i] */\n      swap1\n      pop\n        /* \"Auction.sol\":9178:9199  BidRecord storage rec */\n      0x00\n        /* \"Auction.sol\":9202:9206  bids */\n      0x04\n        /* \"Auction.sol\":9202:9214  bids[bidder] */\n      0x00\n        /* \"Auction.sol\":9207:9213  bidder */\n      dup4\n        /* \"Auction.sol\":9202:9214  bids[bidder] */\n      0xffffffffffffffffffffffffffffffffffffffff\n      and\n      0xffffffffffffffffffffffffffffffffffffffff\n      and\n      dup2\n      mstore\n      0x20\n      add\n      swap1\n      dup2\n      mstore\n      0x20\n      add\n      0x00\n      keccak256\n        /* \"Auction.sol\":9178:9214  BidRecord storage rec = bids[bidder] */\n      swap1\n      pop\n        /* \"Auction.sol\":9232:9246  uint256 refund */\n      0x00\n        /* \"Auction.sol\":9249:9250  0 */\n      0x00\n        /* \"Auction.sol\":9232:9250  uint256 refund = 0 */\n      swap1\n      pop\n        /* \"Auction.sol\":9294:9295  0 */\n      0x00\n        /* \"Auction.sol\":9272:9275  rec */\n      dup3\n        /* \"Auction.sol\":9272:9291  rec.pendingWithdraw */\n      0x02\n      add\n      sload\n        /* \"Auction.sol\":9272:9295  rec.pendingWithdraw > 0 */\n      gt\n        /* \"Auction.sol\":9268:9437  if (rec.pendingWithdraw > 0) {... */\n      iszero\n      tag_140\n      jumpi\n        /* \"Auction.sol\":9370:9373  100 */\n      0x64\n        /* \"Auction.sol\":9359:9365  gasFee */\n      immutable(\"0x1572b593c53d839d80004aa4b8c51211864104f06ace9e22be9c4365b50655ea\")\n        /* \"Auction.sol\":9353:9356  100 */\n      0x64\n        /* \"Auction.sol\":9353:9365  100 - gasFee */\n      tag_141\n      swap2\n      swap1\n      tag_107\n      jump\t// in\n    tag_141:\n        /* \"Auction.sol\":9330:9333  rec */\n      dup4\n        /* \"Auction.sol\":9330:9349  rec.pendingWithdraw */\n      0x02\n      add\n      sload\n        /* \"Auction.sol\":9330:9366  rec.pendingWithdraw * (100 - gasFee) */\n      tag_142\n      swap2\n      swap1\n      tag_88\n      jump\t// in\n    tag_142:\n        /* \"Auction.sol\":9329:9373  (rec.pendingWithdraw * (100 - gasFee)) / 100 */\n      tag_143\n      swap2\n      swap1\n      tag_90\n      jump\t// in\n    tag_143:\n        /* \"Auction.sol\":9319:9373  refund += (rec.pendingWithdraw * (100 - gasFee)) / 100 */\n      dup2\n      tag_144\n      swap2\n      swap1\n      tag_86\n      jump\t// in\n    tag_144:\n      swap1\n      pop\n        /* \"Auction.sol\":9417:9418  0 */\n      0x00\n        /* \"Auction.sol\":9395:9398  rec */\n      dup3\n        /* \"Auction.sol\":9395:9414  rec.pendingWithdraw */\n      0x02\n      add\n        /* \"Auction.sol\":9395:9418  rec.pendingWithdraw = 0 */\n      dup2\n      swap1\n      sstore\n      pop\n        /* \"Auction.sol\":9268:9437  if (rec.pendingWithdraw > 0) {... */\n    tag_140:\n        /* \"Auction.sol\":9468:9477  winnerBid */\n      0x02\n        /* \"Auction.sol\":9468:9484  winnerBid.bidder */\n      0x00\n      add\n      0x00\n      swap1\n      sload\n      swap1\n      0x0100\n      exp\n      swap1\n      div\n      0xffffffffffffffffffffffffffffffffffffffff\n      and\n        /* \"Auction.sol\":9458:9484  bidder != winnerBid.bidder */\n      0xffffffffffffffffffffffffffffffffffffffff\n      and\n        /* \"Auction.sol\":9458:9464  bidder */\n      dup4\n        /* \"Auction.sol\":9458:9484  bidder != winnerBid.bidder */\n      0xffffffffffffffffffffffffffffffffffffffff\n      and\n      eq\n      iszero\n        /* \"Auction.sol\":9458:9506  bidder != winnerBid.bidder && rec.bid.amount > 0 */\n      dup1\n      iszero\n      tag_145\n      jumpi\n      pop\n        /* \"Auction.sol\":9505:9506  0 */\n      0x00\n        /* \"Auction.sol\":9488:9491  rec */\n      dup3\n        /* \"Auction.sol\":9488:9495  rec.bid */\n      0x00\n      add\n        /* \"Auction.sol\":9488:9502  rec.bid.amount */\n      0x01\n      add\n      sload\n        /* \"Auction.sol\":9488:9506  rec.bid.amount > 0 */\n      gt\n        /* \"Auction.sol\":9458:9506  bidder != winnerBid.bidder && rec.bid.amount > 0 */\n    tag_145:\n        /* \"Auction.sol\":9454:9638  if (bidder != winnerBid.bidder && rec.bid.amount > 0) {... */\n      iszero\n      tag_146\n      jumpi\n        /* \"Auction.sol\":9576:9579  100 */\n      0x64\n        /* \"Auction.sol\":9565:9571  gasFee */\n      immutable(\"0x1572b593c53d839d80004aa4b8c51211864104f06ace9e22be9c4365b50655ea\")\n        /* \"Auction.sol\":9559:9562  100 */\n      0x64\n        /* \"Auction.sol\":9559:9571  100 - gasFee */\n      tag_147\n      swap2\n      swap1\n      tag_107\n      jump\t// in\n    tag_147:\n        /* \"Auction.sol\":9541:9544  rec */\n      dup4\n        /* \"Auction.sol\":9541:9548  rec.bid */\n      0x00\n      add\n        /* \"Auction.sol\":9541:9555  rec.bid.amount */\n      0x01\n      add\n      sload\n        /* \"Auction.sol\":9541:9572  rec.bid.amount * (100 - gasFee) */\n      tag_148\n      swap2\n      swap1\n      tag_88\n      jump\t// in\n    tag_148:\n        /* \"Auction.sol\":9540:9579  (rec.bid.amount * (100 - gasFee)) / 100 */\n      tag_149\n      swap2\n      swap1\n      tag_90\n      jump\t// in\n    tag_149:\n        /* \"Auction.sol\":9530:9579  refund += (rec.bid.amount * (100 - gasFee)) / 100 */\n      dup2\n      tag_150\n      swap2\n      swap1\n      tag_86\n      jump\t// in\n    tag_150:\n      swap1\n      pop\n        /* \"Auction.sol\":9618:9619  0 */\n      0x00\n        /* \"Auction.sol\":9601:9604  rec */\n      dup3\n        /* \"Auction.sol\":9601:9608  rec.bid */\n      0x00\n      add\n        /* \"Auction.sol\":9601:9615  rec.bid.amount */\n      0x01\n      add\n        /* \"Auction.sol\":9601:9619  rec.bid.amount = 0 */\n      dup2\n      swap1\n      sstore\n      pop\n        /* \"Auction.sol\":9454:9638  if (bidder != winnerBid.bidder && rec.bid.amount > 0) {... */\n    tag_146:\n        /* \"Auction.sol\":9686:9687  0 */\n      0x00\n        /* \"Auction.sol\":9677:9683  refund */\n      dup2\n        /* \"Auction.sol\":9677:9687  refund > 0 */\n      gt\n        /* \"Auction.sol\":9673:9880  if (refund > 0) {... */\n      iszero\n      tag_151\n      jumpi\n        /* \"Auction.sol\":9712:9719  bool ok */\n      0x00\n        /* \"Auction.sol\":9733:9739  bidder */\n      dup4\n        /* \"Auction.sol\":9725:9745  payable(bidder).call */\n      0xffffffffffffffffffffffffffffffffffffffff\n      and\n        /* \"Auction.sol\":9753:9759  refund */\n      dup3\n        /* \"Auction.sol\":9725:9764  payable(bidder).call{value: refund}(\"\") */\n      mload(0x40)\n      tag_152\n      swap1\n      tag_153\n      jump\t// in\n    tag_152:\n      0x00\n      mload(0x40)\n      dup1\n      dup4\n      sub\n      dup2\n      dup6\n      dup8\n      gas\n      call\n      swap3\n      pop\n      pop\n      pop\n      returndatasize\n      dup1\n      0x00\n      dup2\n      eq\n      tag_156\n      jumpi\n      mload(0x40)\n      swap2\n      pop\n      and(add(returndatasize, 0x3f), not(0x1f))\n      dup3\n      add\n      0x40\n      mstore\n      returndatasize\n      dup3\n      mstore\n      returndatasize\n      0x00\n      0x20\n      dup5\n      add\n      returndatacopy\n      jump(tag_155)\n    tag_156:\n      0x60\n      swap2\n      pop\n    tag_155:\n      pop\n        /* \"Auction.sol\":9711:9764  (bool ok, ) = payable(bidder).call{value: refund}(\"\") */\n      pop\n      swap1\n      pop\n        /* \"Auction.sol\":9794:9796  ok */\n      dup1\n        /* \"Auction.sol\":9786:9812  require(ok, \"refund fail\") */\n      tag_157\n      jumpi\n      mload(0x40)\n      0x08c379a000000000000000000000000000000000000000000000000000000000\n      dup2\n      mstore\n      0x04\n      add\n      tag_158\n      swap1\n      tag_159\n      jump\t// in\n    tag_158:\n      mload(0x40)\n      dup1\n      swap2\n      sub\n      swap1\n      revert\n    tag_157:\n        /* \"Auction.sol\":9846:9852  bidder */\n      dup4\n        /* \"Auction.sol\":9839:9861  Refund(bidder, refund) */\n      0xffffffffffffffffffffffffffffffffffffffff\n      and\n      0xbb28353e4598c3b9199101a66e0989549b659a59a54d2c27fbb183f1932c8e6d\n        /* \"Auction.sol\":9854:9860  refund */\n      dup4\n        /* \"Auction.sol\":9839:9861  Refund(bidder, refund) */\n      mload(0x40)\n      tag_160\n      swap2\n      swap1\n      tag_24\n      jump\t// in\n    tag_160:\n      mload(0x40)\n      dup1\n      swap2\n      sub\n      swap1\n      log2\n        /* \"Auction.sol\":9689:9880  {... */\n      pop\n        /* \"Auction.sol\":9673:9880  if (refund > 0) {... */\n    tag_151:\n        /* \"Auction.sol\":9910:9913  ++i */\n      dup4\n      0x01\n      add\n      swap4\n      pop\n        /* \"Auction.sol\":9097:9937  {           ... */\n      pop\n      pop\n      pop\n        /* \"Auction.sol\":9070:9937  for (uint256 i; i < len; ) {           ... */\n      jump(tag_133)\n    tag_134:\n      pop\n        /* \"Auction.sol\":9963:9967  true */\n      0x01\n        /* \"Auction.sol\":9950:9960  isRefunded */\n      0x06\n      0x00\n        /* \"Auction.sol\":9950:9967  isRefunded = true */\n      0x0100\n      exp\n      dup2\n      sload\n      dup2\n      0xff\n      mul\n      not\n      and\n      swap1\n      dup4\n      iszero\n      iszero\n      mul\n      or\n      swap1\n      sstore\n      pop\n        /* \"Auction.sol\":10002:10011  winnerBid */\n      0x02\n        /* \"Auction.sol\":10002:10018  winnerBid.bidder */\n      0x00\n      add\n      0x00\n      swap1\n      sload\n      swap1\n      0x0100\n      exp\n      swap1\n      div\n      0xffffffffffffffffffffffffffffffffffffffff\n      and\n        /* \"Auction.sol\":9986:10037  AuctionFinished(winnerBid.bidder, winnerBid.amount) */\n      0xffffffffffffffffffffffffffffffffffffffff\n      and\n      0x8b1ad6c69d3d79a05f5b1ec0de825e9bf67c6c70b8c25babd159976cf9990dff\n        /* \"Auction.sol\":10020:10029  winnerBid */\n      0x02\n        /* \"Auction.sol\":10020:10036  winnerBid.amount */\n      0x01\n      add\n      sload\n        /* \"Auction.sol\":9986:10037  AuctionFinished(winnerBid.bidder, winnerBid.amount) */\n      mload(0x40)\n      tag_161\n      swap2\n      swap1\n      tag_24\n      jump\t// in\n    tag_161:\n      mload(0x40)\n      dup1\n      swap2\n      sub\n      swap1\n      log2\n        /* \"Auction.sol\":9003:10053  {... */\n      pop\n        /* \"BaseContract.sol\":285:286  1 */\n      0x01\n        /* \"BaseContract.sol\":1123:1130  _status */\n      0x00\n        /* \"BaseContract.sol\":1123:1145  _status = _NOT_ENTERED */\n      dup2\n      swap1\n      sstore\n      pop\n        /* \"Auction.sol\":8919:10053  function refundAll() external onlyOwner isFinished notRefunded hasBids nonReentrant {... */\n      jump\t// out\n        /* \"Auction.sol\":1044:1085  uint256 public immutable allowedIncrement */\n    tag_45:\n      immutable(\"0x8e8fab5f003314da8d1873ea7720e8d9f47650136d916064d1edb8a11d682624\")\n      dup2\n      jump\t// out\n        /* \"Auction.sol\":10163:10401  function withdrawBalance() external isFinished onlyOwner nonReentrant {... */\n    tag_49:\n        /* \"Auction.sol\":5000:5007  endTime */\n      sload(0x01)\n        /* \"Auction.sol\":4982:4997  block.timestamp */\n      timestamp\n        /* \"Auction.sol\":4982:5007  block.timestamp > endTime */\n      gt\n        /* \"Auction.sol\":4974:5035  require(block.timestamp > endTime, \"Auction is not finished\") */\n      tag_163\n      jumpi\n      mload(0x40)\n      0x08c379a000000000000000000000000000000000000000000000000000000000\n      dup2\n      mstore\n      0x04\n      add\n      tag_164\n      swap1\n      tag_119\n      jump\t// in\n    tag_164:\n      mload(0x40)\n      dup1\n      swap2\n      sub\n      swap1\n      revert\n    tag_163:\n        /* \"BaseContract.sol\":843:848  owner */\n      immutable(\"0xc2c77dc624b4aac67a6e14132cf7e60e698350f9c72b88ffba77407546a8ee13\")\n        /* \"BaseContract.sol\":829:848  msg.sender == owner */\n      0xffffffffffffffffffffffffffffffffffffffff\n      and\n        /* \"BaseContract.sol\":829:839  msg.sender */\n      caller\n        /* \"BaseContract.sol\":829:848  msg.sender == owner */\n      0xffffffffffffffffffffffffffffffffffffffff\n      and\n      eq\n        /* \"BaseContract.sol\":821:887  require(msg.sender == owner, \"Only owner can perform this action\") */\n      tag_166\n      jumpi\n      mload(0x40)\n      0x08c379a000000000000000000000000000000000000000000000000000000000\n      dup2\n      mstore\n      0x04\n      add\n      tag_167\n      swap1\n      tag_115\n      jump\t// in\n    tag_167:\n      mload(0x40)\n      dup1\n      swap2\n      sub\n      swap1\n      revert\n    tag_166:\n        /* \"BaseContract.sol\":424:425  2 */\n      0x02\n        /* \"BaseContract.sol\":1018:1025  _status */\n      sload(0x00)\n        /* \"BaseContract.sol\":1018:1037  _status != _ENTERED */\n      sub\n        /* \"BaseContract.sol\":1010:1073  require(_status != _ENTERED, \"ReentrancyGuard: reentrant call\") */\n      tag_169\n      jumpi\n      mload(0x40)\n      0x08c379a000000000000000000000000000000000000000000000000000000000\n      dup2\n      mstore\n      0x04\n      add\n      tag_170\n      swap1\n      tag_131\n      jump\t// in\n    tag_170:\n      mload(0x40)\n      dup1\n      swap2\n      sub\n      swap1\n      revert\n    tag_169:\n        /* \"BaseContract.sol\":424:425  2 */\n      0x02\n        /* \"BaseContract.sol\":1084:1091  _status */\n      0x00\n        /* \"BaseContract.sol\":1084:1102  _status = _ENTERED */\n      dup2\n      swap1\n      sstore\n      pop\n        /* \"Auction.sol\":10251:10261  isRefunded */\n      0x06\n      0x00\n      swap1\n      sload\n      swap1\n      0x0100\n      exp\n      swap1\n      div\n      0xff\n      and\n        /* \"Auction.sol\":10243:10278  require(isRefunded, \"Refund first\") */\n      tag_172\n      jumpi\n      mload(0x40)\n      0x08c379a000000000000000000000000000000000000000000000000000000000\n      dup2\n      mstore\n      0x04\n      add\n      tag_173\n      swap1\n      tag_174\n      jump\t// in\n    tag_173:\n      mload(0x40)\n      dup1\n      swap2\n      sub\n      swap1\n      revert\n    tag_172:\n        /* \"Auction.sol\":10289:10296  bool ok */\n      0x00\n        /* \"Auction.sol\":10310:10315  owner */\n      immutable(\"0xc2c77dc624b4aac67a6e14132cf7e60e698350f9c72b88ffba77407546a8ee13\")\n        /* \"Auction.sol\":10302:10321  payable(owner).call */\n      0xffffffffffffffffffffffffffffffffffffffff\n      and\n        /* \"Auction.sol\":10329:10350  address(this).balance */\n      selfbalance\n        /* \"Auction.sol\":10302:10355  payable(owner).call{value: address(this).balance}(\"\") */\n      mload(0x40)\n      tag_175\n      swap1\n      tag_153\n      jump\t// in\n    tag_175:\n      0x00\n      mload(0x40)\n      dup1\n      dup4\n      sub\n      dup2\n      dup6\n      dup8\n      gas\n      call\n      swap3\n      pop\n      pop\n      pop\n      returndatasize\n      dup1\n      0x00\n      dup2\n      eq\n      tag_178\n      jumpi\n      mload(0x40)\n      swap2\n      pop\n      and(add(returndatasize, 0x3f), not(0x1f))\n      dup3\n      add\n      0x40\n      mstore\n      returndatasize\n      dup3\n      mstore\n      returndatasize\n      0x00\n      0x20\n      dup5\n      add\n      returndatacopy\n      jump(tag_177)\n    tag_178:\n      0x60\n      swap2\n      pop\n    tag_177:\n      pop\n        /* \"Auction.sol\":10288:10355  (bool ok, ) = payable(owner).call{value: address(this).balance}(\"\") */\n      pop\n      swap1\n      pop\n        /* \"Auction.sol\":10373:10375  ok */\n      dup1\n        /* \"Auction.sol\":10365:10393  require(ok, \"Withdraw fail\") */\n      tag_179\n      jumpi\n      mload(0x40)\n      0x08c379a000000000000000000000000000000000000000000000000000000000\n      dup2\n      mstore\n      0x04\n      add\n      tag_180\n      swap1\n      tag_181\n      jump\t// in\n    tag_180:\n      mload(0x40)\n      dup1\n      swap2\n      sub\n      swap1\n      revert\n    tag_179:\n        /* \"Auction.sol\":10233:10401  {... */\n      pop\n        /* \"BaseContract.sol\":285:286  1 */\n      0x01\n        /* \"BaseContract.sol\":1123:1130  _status */\n      0x00\n        /* \"BaseContract.sol\":1123:1145  _status = _NOT_ENTERED */\n      dup2\n      swap1\n      sstore\n      pop\n        /* \"Auction.sol\":10163:10401  function withdrawBalance() external isFinished onlyOwner nonReentrant {... */\n      jump\t// out\n        /* \"Auction.sol\":1343:1374  uint256 public immutable gasFee */\n    tag_52:\n      immutable(\"0x1572b593c53d839d80004aa4b8c51211864104f06ace9e22be9c4365b50655ea\")\n      dup2\n      jump\t// out\n        /* \"Auction.sol\":678:712  uint256 public immutable startTime */\n    tag_56:\n      immutable(\"0xe4b1702d9298fee62dfeccc57d322a463ad55ca201256d01f62b45b2e1c21c10\")\n      dup2\n      jump\t// out\n        /* \"BaseContract.sol\":598:628  address public immutable owner */\n    tag_60:\n      immutable(\"0xc2c77dc624b4aac67a6e14132cf7e60e698350f9c72b88ffba77407546a8ee13\")\n      dup2\n      jump\t// out\n        /* \"Auction.sol\":7107:7420  function getBids()  external view hasBids returns (BidRecord[] memory) {... */\n    tag_65:\n        /* \"Auction.sol\":7158:7176  BidRecord[] memory */\n      0x60\n        /* \"Auction.sol\":5176:5177  0 */\n      0x00\n        /* \"Auction.sol\":5158:5165  bidders */\n      0x05\n        /* \"Auction.sol\":5158:5172  bidders.length */\n      dup1\n      sload\n      swap1\n      pop\n        /* \"Auction.sol\":5158:5177  bidders.length != 0 */\n      sub\n        /* \"Auction.sol\":5150:5203  require(bidders.length != 0, \"There are no bids yet\") */\n      tag_183\n      jumpi\n      mload(0x40)\n      0x08c379a000000000000000000000000000000000000000000000000000000000\n      dup2\n      mstore\n      0x04\n      add\n      tag_184\n      swap1\n      tag_127\n      jump\t// in\n    tag_184:\n      mload(0x40)\n      dup1\n      swap2\n      sub\n      swap1\n      revert\n    tag_183:\n        /* \"Auction.sol\":7188:7199  uint256 len */\n      0x00\n        /* \"Auction.sol\":7202:7209  bidders */\n      0x05\n        /* \"Auction.sol\":7202:7216  bidders.length */\n      dup1\n      sload\n      swap1\n      pop\n        /* \"Auction.sol\":7188:7216  uint256 len = bidders.length */\n      swap1\n      pop\n        /* \"Auction.sol\":7226:7249  BidRecord[] memory _all */\n      0x00\n        /* \"Auction.sol\":7268:7271  len */\n      dup2\n        /* \"Auction.sol\":7252:7272  new BidRecord[](len) */\n      0xffffffffffffffff\n      dup2\n      gt\n      iszero\n      tag_186\n      jumpi\n      tag_187\n      tag_188\n      jump\t// in\n    tag_187:\n    tag_186:\n      mload(0x40)\n      swap1\n      dup1\n      dup3\n      mstore\n      dup1\n      0x20\n      mul\n      0x20\n      add\n      dup3\n      add\n      0x40\n      mstore\n      dup1\n      iszero\n      tag_189\n      jumpi\n      dup2\n      0x20\n      add\n    tag_190:\n      tag_191\n      tag_192\n      jump\t// in\n    tag_191:\n      dup2\n      mstore\n      0x20\n      add\n      swap1\n      0x01\n      swap1\n      sub\n      swap1\n      dup2\n      tag_190\n      jumpi\n      swap1\n      pop\n    tag_189:\n      pop\n        /* \"Auction.sol\":7226:7272  BidRecord[] memory _all = new BidRecord[](len) */\n      swap1\n      pop\n        /* \"Auction.sol\":7288:7297  uint256 i */\n      0x00\n        /* \"Auction.sol\":7300:7301  0 */\n      0x00\n        /* \"Auction.sol\":7288:7301  uint256 i = 0 */\n      swap1\n      pop\n        /* \"Auction.sol\":7283:7393  for (uint256 i = 0; i < len; ) {... */\n    tag_193:\n        /* \"Auction.sol\":7307:7310  len */\n      dup3\n        /* \"Auction.sol\":7303:7304  i */\n      dup2\n        /* \"Auction.sol\":7303:7310  i < len */\n      lt\n        /* \"Auction.sol\":7283:7393  for (uint256 i = 0; i < len; ) {... */\n      iszero\n      tag_194\n      jumpi\n        /* \"Auction.sol\":7338:7342  bids */\n      0x04\n        /* \"Auction.sol\":7338:7354  bids[bidders[i]] */\n      0x00\n        /* \"Auction.sol\":7343:7350  bidders */\n      0x05\n        /* \"Auction.sol\":7351:7352  i */\n      dup4\n        /* \"Auction.sol\":7343:7353  bidders[i] */\n      dup2\n      sload\n      dup2\n      lt\n      tag_196\n      jumpi\n      tag_197\n      tag_138\n      jump\t// in\n    tag_197:\n    tag_196:\n      swap1\n      0x00\n      mstore\n      keccak256(0x00, 0x20)\n      add\n      0x00\n      swap1\n      sload\n      swap1\n      0x0100\n      exp\n      swap1\n      div\n      0xffffffffffffffffffffffffffffffffffffffff\n      and\n        /* \"Auction.sol\":7338:7354  bids[bidders[i]] */\n      0xffffffffffffffffffffffffffffffffffffffff\n      and\n      0xffffffffffffffffffffffffffffffffffffffff\n      and\n      dup2\n      mstore\n      0x20\n      add\n      swap1\n      dup2\n      mstore\n      0x20\n      add\n      0x00\n      keccak256\n        /* \"Auction.sol\":7328:7354  _all[i] = bids[bidders[i]] */\n      mload(0x40)\n      dup1\n      0x40\n      add\n      0x40\n      mstore\n      swap1\n      dup2\n      0x00\n      dup3\n      add\n      mload(0x40)\n      dup1\n      0x40\n      add\n      0x40\n      mstore\n      swap1\n      dup2\n      0x00\n      dup3\n      add\n      0x00\n      swap1\n      sload\n      swap1\n      0x0100\n      exp\n      swap1\n      div\n      0xffffffffffffffffffffffffffffffffffffffff\n      and\n      0xffffffffffffffffffffffffffffffffffffffff\n      and\n      0xffffffffffffffffffffffffffffffffffffffff\n      and\n      dup2\n      mstore\n      0x20\n      add\n      0x01\n      dup3\n      add\n      sload\n      dup2\n      mstore\n      pop\n      pop\n      dup2\n      mstore\n      0x20\n      add\n      0x02\n      dup3\n      add\n      sload\n      dup2\n      mstore\n      pop\n      pop\n        /* \"Auction.sol\":7328:7332  _all */\n      dup3\n        /* \"Auction.sol\":7333:7334  i */\n      dup3\n        /* \"Auction.sol\":7328:7335  _all[i] */\n      dup2\n      mload\n      dup2\n      lt\n      tag_199\n      jumpi\n      tag_200\n      tag_138\n      jump\t// in\n    tag_200:\n    tag_199:\n      0x20\n      mul\n      0x20\n      add\n      add\n        /* \"Auction.sol\":7328:7354  _all[i] = bids[bidders[i]] */\n      dup2\n      swap1\n      mstore\n      pop\n        /* \"Auction.sol\":7378:7381  i++ */\n      dup1\n      dup1\n      0x01\n      add\n      swap2\n      pop\n      pop\n        /* \"Auction.sol\":7283:7393  for (uint256 i = 0; i < len; ) {... */\n      jump(tag_193)\n    tag_194:\n      pop\n        /* \"Auction.sol\":7409:7413  _all */\n      dup1\n        /* \"Auction.sol\":7402:7413  return _all */\n      swap3\n      pop\n      pop\n      pop\n        /* \"Auction.sol\":7107:7420  function getBids()  external view hasBids returns (BidRecord[] memory) {... */\n      swap1\n      jump\t// out\n        /* \"Auction.sol\":7546:7723  function getTimeLeft() external view returns (uint256) {... */\n    tag_70:\n        /* \"Auction.sol\":7592:7599  uint256 */\n      0x00\n        /* \"Auction.sol\":7633:7640  endTime */\n      sload(0x01)\n        /* \"Auction.sol\":7615:7630  block.timestamp */\n      timestamp\n        /* \"Auction.sol\":7615:7640  block.timestamp > endTime */\n      gt\n        /* \"Auction.sol\":7611:7675  if (block.timestamp > endTime) {... */\n      iszero\n      tag_202\n      jumpi\n        /* \"Auction.sol\":7663:7664  0 */\n      0x00\n        /* \"Auction.sol\":7656:7664  return 0 */\n      swap1\n      pop\n      jump(tag_201)\n        /* \"Auction.sol\":7611:7675  if (block.timestamp > endTime) {... */\n    tag_202:\n        /* \"Auction.sol\":7701:7716  block.timestamp */\n      timestamp\n        /* \"Auction.sol\":7691:7698  endTime */\n      sload(0x01)\n        /* \"Auction.sol\":7691:7716  endTime - block.timestamp */\n      tag_203\n      swap2\n      swap1\n      tag_107\n      jump\t// in\n    tag_203:\n        /* \"Auction.sol\":7684:7716  return endTime - block.timestamp */\n      swap1\n      pop\n        /* \"Auction.sol\":7546:7723  function getTimeLeft() external view returns (uint256) {... */\n    tag_201:\n      swap1\n      jump\t// out\n        /* \"Auction.sol\":7869:7981  function getWinnerBid()  external view hasBids isFinished returns (Bid memory) {... */\n    tag_74:\n        /* \"Auction.sol\":7936:7946  Bid memory */\n      tag_204\n      tag_205\n      jump\t// in\n    tag_204:\n        /* \"Auction.sol\":5176:5177  0 */\n      0x00\n        /* \"Auction.sol\":5158:5165  bidders */\n      0x05\n        /* \"Auction.sol\":5158:5172  bidders.length */\n      dup1\n      sload\n      swap1\n      pop\n        /* \"Auction.sol\":5158:5177  bidders.length != 0 */\n      sub\n        /* \"Auction.sol\":5150:5203  require(bidders.length != 0, \"There are no bids yet\") */\n      tag_207\n      jumpi\n      mload(0x40)\n      0x08c379a000000000000000000000000000000000000000000000000000000000\n      dup2\n      mstore\n      0x04\n      add\n      tag_208\n      swap1\n      tag_127\n      jump\t// in\n    tag_208:\n      mload(0x40)\n      dup1\n      swap2\n      sub\n      swap1\n      revert\n    tag_207:\n        /* \"Auction.sol\":5000:5007  endTime */\n      sload(0x01)\n        /* \"Auction.sol\":4982:4997  block.timestamp */\n      timestamp\n        /* \"Auction.sol\":4982:5007  block.timestamp > endTime */\n      gt\n        /* \"Auction.sol\":4974:5035  require(block.timestamp > endTime, \"Auction is not finished\") */\n      tag_210\n      jumpi\n      mload(0x40)\n      0x08c379a000000000000000000000000000000000000000000000000000000000\n      dup2\n      mstore\n      0x04\n      add\n      tag_211\n      swap1\n      tag_119\n      jump\t// in\n    tag_211:\n      mload(0x40)\n      dup1\n      swap2\n      sub\n      swap1\n      revert\n    tag_210:\n        /* \"Auction.sol\":7965:7974  winnerBid */\n      0x02\n        /* \"Auction.sol\":7958:7974  return winnerBid */\n      mload(0x40)\n      dup1\n      0x40\n      add\n      0x40\n      mstore\n      swap1\n      dup2\n      0x00\n      dup3\n      add\n      0x00\n      swap1\n      sload\n      swap1\n      0x0100\n      exp\n      swap1\n      div\n      0xffffffffffffffffffffffffffffffffffffffff\n      and\n      0xffffffffffffffffffffffffffffffffffffffff\n      and\n      0xffffffffffffffffffffffffffffffffffffffff\n      and\n      dup2\n      mstore\n      0x20\n      add\n      0x01\n      dup3\n      add\n      sload\n      dup2\n      mstore\n      pop\n      pop\n      swap1\n      pop\n        /* \"Auction.sol\":7869:7981  function getWinnerBid()  external view hasBids isFinished returns (Bid memory) {... */\n      swap1\n      jump\t// out\n        /* \"Auction.sol\":8167:8607  function partialWithdraw() external isActive hasBids nonReentrant {... */\n    tag_79:\n        /* \"Auction.sol\":4818:4825  endTime */\n      sload(0x01)\n        /* \"Auction.sol\":4799:4814  block.timestamp */\n      timestamp\n        /* \"Auction.sol\":4799:4825  block.timestamp <= endTime */\n      gt\n      iszero\n        /* \"Auction.sol\":4791:4849  require(block.timestamp <= endTime, \"Auction has expired\") */\n      tag_214\n      jumpi\n      mload(0x40)\n      0x08c379a000000000000000000000000000000000000000000000000000000000\n      dup2\n      mstore\n      0x04\n      add\n      tag_215\n      swap1\n      tag_83\n      jump\t// in\n    tag_215:\n      mload(0x40)\n      dup1\n      swap2\n      sub\n      swap1\n      revert\n    tag_214:\n        /* \"Auction.sol\":5176:5177  0 */\n      0x00\n        /* \"Auction.sol\":5158:5165  bidders */\n      0x05\n        /* \"Auction.sol\":5158:5172  bidders.length */\n      dup1\n      sload\n      swap1\n      pop\n        /* \"Auction.sol\":5158:5177  bidders.length != 0 */\n      sub\n        /* \"Auction.sol\":5150:5203  require(bidders.length != 0, \"There are no bids yet\") */\n      tag_217\n      jumpi\n      mload(0x40)\n      0x08c379a000000000000000000000000000000000000000000000000000000000\n      dup2\n      mstore\n      0x04\n      add\n      tag_218\n      swap1\n      tag_127\n      jump\t// in\n    tag_218:\n      mload(0x40)\n      dup1\n      swap2\n      sub\n      swap1\n      revert\n    tag_217:\n        /* \"BaseContract.sol\":424:425  2 */\n      0x02\n        /* \"BaseContract.sol\":1018:1025  _status */\n      sload(0x00)\n        /* \"BaseContract.sol\":1018:1037  _status != _ENTERED */\n      sub\n        /* \"BaseContract.sol\":1010:1073  require(_status != _ENTERED, \"ReentrancyGuard: reentrant call\") */\n      tag_220\n      jumpi\n      mload(0x40)\n      0x08c379a000000000000000000000000000000000000000000000000000000000\n      dup2\n      mstore\n      0x04\n      add\n      tag_221\n      swap1\n      tag_131\n      jump\t// in\n    tag_221:\n      mload(0x40)\n      dup1\n      swap2\n      sub\n      swap1\n      revert\n    tag_220:\n        /* \"BaseContract.sol\":424:425  2 */\n      0x02\n        /* \"BaseContract.sol\":1084:1091  _status */\n      0x00\n        /* \"BaseContract.sol\":1084:1102  _status = _ENTERED */\n      dup2\n      swap1\n      sstore\n      pop\n        /* \"Auction.sol\":8243:8266  uint256 pendingWithdraw */\n      0x00\n        /* \"Auction.sol\":8269:8273  bids */\n      0x04\n        /* \"Auction.sol\":8269:8285  bids[msg.sender] */\n      0x00\n        /* \"Auction.sol\":8274:8284  msg.sender */\n      caller\n        /* \"Auction.sol\":8269:8285  bids[msg.sender] */\n      0xffffffffffffffffffffffffffffffffffffffff\n      and\n      0xffffffffffffffffffffffffffffffffffffffff\n      and\n      dup2\n      mstore\n      0x20\n      add\n      swap1\n      dup2\n      mstore\n      0x20\n      add\n      0x00\n      keccak256\n        /* \"Auction.sol\":8269:8301  bids[msg.sender].pendingWithdraw */\n      0x02\n      add\n      sload\n        /* \"Auction.sol\":8243:8301  uint256 pendingWithdraw = bids[msg.sender].pendingWithdraw */\n      swap1\n      pop\n        /* \"Auction.sol\":8337:8338  0 */\n      0x00\n        /* \"Auction.sol\":8319:8334  pendingWithdraw */\n      dup2\n        /* \"Auction.sol\":8319:8338  pendingWithdraw > 0 */\n      gt\n        /* \"Auction.sol\":8311:8368  require(pendingWithdraw > 0, \"No pending withdraw found\") */\n      tag_223\n      jumpi\n      mload(0x40)\n      0x08c379a000000000000000000000000000000000000000000000000000000000\n      dup2\n      mstore\n      0x04\n      add\n      tag_224\n      swap1\n      tag_225\n      jump\t// in\n    tag_224:\n      mload(0x40)\n      dup1\n      swap2\n      sub\n      swap1\n      revert\n    tag_223:\n        /* \"Auction.sol\":8414:8415  0 */\n      0x00\n        /* \"Auction.sol\":8379:8383  bids */\n      0x04\n        /* \"Auction.sol\":8379:8395  bids[msg.sender] */\n      0x00\n        /* \"Auction.sol\":8384:8394  msg.sender */\n      caller\n        /* \"Auction.sol\":8379:8395  bids[msg.sender] */\n      0xffffffffffffffffffffffffffffffffffffffff\n      and\n      0xffffffffffffffffffffffffffffffffffffffff\n      and\n      dup2\n      mstore\n      0x20\n      add\n      swap1\n      dup2\n      mstore\n      0x20\n      add\n      0x00\n      keccak256\n        /* \"Auction.sol\":8379:8411  bids[msg.sender].pendingWithdraw */\n      0x02\n      add\n        /* \"Auction.sol\":8379:8415  bids[msg.sender].pendingWithdraw = 0 */\n      dup2\n      swap1\n      sstore\n      pop\n        /* \"Auction.sol\":8427:8439  bool success */\n      0x00\n        /* \"Auction.sol\":8453:8463  msg.sender */\n      caller\n        /* \"Auction.sol\":8445:8469  payable(msg.sender).call */\n      0xffffffffffffffffffffffffffffffffffffffff\n      and\n        /* \"Auction.sol\":8477:8492  pendingWithdraw */\n      dup3\n        /* \"Auction.sol\":8445:8497  payable(msg.sender).call{value: pendingWithdraw}(\"\") */\n      mload(0x40)\n      tag_226\n      swap1\n      tag_153\n      jump\t// in\n    tag_226:\n      0x00\n      mload(0x40)\n      dup1\n      dup4\n      sub\n      dup2\n      dup6\n      dup8\n      gas\n      call\n      swap3\n      pop\n      pop\n      pop\n      returndatasize\n      dup1\n      0x00\n      dup2\n      eq\n      tag_229\n      jumpi\n      mload(0x40)\n      swap2\n      pop\n      and(add(returndatasize, 0x3f), not(0x1f))\n      dup3\n      add\n      0x40\n      mstore\n      returndatasize\n      dup3\n      mstore\n      returndatasize\n      0x00\n      0x20\n      dup5\n      add\n      returndatacopy\n      jump(tag_228)\n    tag_229:\n      0x60\n      swap2\n      pop\n    tag_228:\n      pop\n        /* \"Auction.sol\":8426:8497  (bool success, ) = payable(msg.sender).call{value: pendingWithdraw}(\"\") */\n      pop\n      swap1\n      pop\n        /* \"Auction.sol\":8515:8522  success */\n      dup1\n        /* \"Auction.sol\":8507:8540  require(success, \"Refund failed\") */\n      tag_230\n      jumpi\n      mload(0x40)\n      0x08c379a000000000000000000000000000000000000000000000000000000000\n      dup2\n      mstore\n      0x04\n      add\n      tag_231\n      swap1\n      tag_232\n      jump\t// in\n    tag_231:\n      mload(0x40)\n      dup1\n      swap2\n      sub\n      swap1\n      revert\n    tag_230:\n        /* \"Auction.sol\":8572:8582  msg.sender */\n      caller\n        /* \"Auction.sol\":8556:8600  PartialWithdraw(msg.sender, pendingWithdraw) */\n      0xffffffffffffffffffffffffffffffffffffffff\n      and\n      0xd84fcbac5440aedda6d2b5f149aa3182c87252eef5bab6f061cfe022a3e166ef\n        /* \"Auction.sol\":8584:8599  pendingWithdraw */\n      dup4\n        /* \"Auction.sol\":8556:8600  PartialWithdraw(msg.sender, pendingWithdraw) */\n      mload(0x40)\n      tag_233\n      swap2\n      swap1\n      tag_24\n      jump\t// in\n    tag_233:\n      mload(0x40)\n      dup1\n      swap2\n      sub\n      swap1\n      log2\n        /* \"Auction.sol\":8233:8607  {... */\n      pop\n      pop\n        /* \"BaseContract.sol\":285:286  1 */\n      0x01\n        /* \"BaseContract.sol\":1123:1130  _status */\n      0x00\n        /* \"BaseContract.sol\":1123:1145  _status = _NOT_ENTERED */\n      dup2\n      swap1\n      sstore\n      pop\n        /* \"Auction.sol\":8167:8607  function partialWithdraw() external isActive hasBids nonReentrant {... */\n      jump\t// out\n    tag_192:\n      mload(0x40)\n      dup1\n      0x40\n      add\n      0x40\n      mstore\n      dup1\n      tag_234\n      tag_205\n      jump\t// in\n    tag_234:\n      dup2\n      mstore\n      0x20\n      add\n      0x00\n      dup2\n      mstore\n      pop\n      swap1\n      jump\t// out\n    tag_205:\n      mload(0x40)\n      dup1\n      0x40\n      add\n      0x40\n      mstore\n      dup1\n      and(0xffffffffffffffffffffffffffffffffffffffff, 0x00)\n      dup2\n      mstore\n      0x20\n      add\n      0x00\n      dup2\n      mstore\n      pop\n      swap1\n      jump\t// out\n        /* \"#utility.yul\":7:84   */\n    tag_235:\n        /* \"#utility.yul\":44:51   */\n      0x00\n        /* \"#utility.yul\":73:78   */\n      dup2\n        /* \"#utility.yul\":62:78   */\n      swap1\n      pop\n        /* \"#utility.yul\":7:84   */\n      swap2\n      swap1\n      pop\n      jump\t// out\n        /* \"#utility.yul\":90:208   */\n    tag_236:\n        /* \"#utility.yul\":177:201   */\n      tag_286\n        /* \"#utility.yul\":195:200   */\n      dup2\n        /* \"#utility.yul\":177:201   */\n      tag_235\n      jump\t// in\n    tag_286:\n        /* \"#utility.yul\":172:175   */\n      dup3\n        /* \"#utility.yul\":165:202   */\n      mstore\n        /* \"#utility.yul\":90:208   */\n      pop\n      pop\n      jump\t// out\n        /* \"#utility.yul\":214:436   */\n    tag_24:\n        /* \"#utility.yul\":307:311   */\n      0x00\n        /* \"#utility.yul\":345:347   */\n      0x20\n        /* \"#utility.yul\":334:343   */\n      dup3\n        /* \"#utility.yul\":330:348   */\n      add\n        /* \"#utility.yul\":322:348   */\n      swap1\n      pop\n        /* \"#utility.yul\":358:429   */\n      tag_288\n        /* \"#utility.yul\":426:427   */\n      0x00\n        /* \"#utility.yul\":415:424   */\n      dup4\n        /* \"#utility.yul\":411:428   */\n      add\n        /* \"#utility.yul\":402:408   */\n      dup5\n        /* \"#utility.yul\":358:429   */\n      tag_236\n      jump\t// in\n    tag_288:\n        /* \"#utility.yul\":214:436   */\n      swap3\n      swap2\n      pop\n      pop\n      jump\t// out\n        /* \"#utility.yul\":442:568   */\n    tag_237:\n        /* \"#utility.yul\":479:486   */\n      0x00\n        /* \"#utility.yul\":519:561   */\n      0xffffffffffffffffffffffffffffffffffffffff\n        /* \"#utility.yul\":512:517   */\n      dup3\n        /* \"#utility.yul\":508:562   */\n      and\n        /* \"#utility.yul\":497:562   */\n      swap1\n      pop\n        /* \"#utility.yul\":442:568   */\n      swap2\n      swap1\n      pop\n      jump\t// out\n        /* \"#utility.yul\":574:670   */\n    tag_238:\n        /* \"#utility.yul\":611:618   */\n      0x00\n        /* \"#utility.yul\":640:664   */\n      tag_291\n        /* \"#utility.yul\":658:663   */\n      dup3\n        /* \"#utility.yul\":640:664   */\n      tag_237\n      jump\t// in\n    tag_291:\n        /* \"#utility.yul\":629:664   */\n      swap1\n      pop\n        /* \"#utility.yul\":574:670   */\n      swap2\n      swap1\n      pop\n      jump\t// out\n        /* \"#utility.yul\":676:794   */\n    tag_239:\n        /* \"#utility.yul\":763:787   */\n      tag_293\n        /* \"#utility.yul\":781:786   */\n      dup2\n        /* \"#utility.yul\":763:787   */\n      tag_238\n      jump\t// in\n    tag_293:\n        /* \"#utility.yul\":758:761   */\n      dup3\n        /* \"#utility.yul\":751:788   */\n      mstore\n        /* \"#utility.yul\":676:794   */\n      pop\n      pop\n      jump\t// out\n        /* \"#utility.yul\":800:1132   */\n    tag_29:\n        /* \"#utility.yul\":921:925   */\n      0x00\n        /* \"#utility.yul\":959:961   */\n      0x40\n        /* \"#utility.yul\":948:957   */\n      dup3\n        /* \"#utility.yul\":944:962   */\n      add\n        /* \"#utility.yul\":936:962   */\n      swap1\n      pop\n        /* \"#utility.yul\":972:1043   */\n      tag_295\n        /* \"#utility.yul\":1040:1041   */\n      0x00\n        /* \"#utility.yul\":1029:1038   */\n      dup4\n        /* \"#utility.yul\":1025:1042   */\n      add\n        /* \"#utility.yul\":1016:1022   */\n      dup6\n        /* \"#utility.yul\":972:1043   */\n      tag_239\n      jump\t// in\n    tag_295:\n        /* \"#utility.yul\":1053:1125   */\n      tag_296\n        /* \"#utility.yul\":1121:1123   */\n      0x20\n        /* \"#utility.yul\":1110:1119   */\n      dup4\n        /* \"#utility.yul\":1106:1124   */\n      add\n        /* \"#utility.yul\":1097:1103   */\n      dup5\n        /* \"#utility.yul\":1053:1125   */\n      tag_236\n      jump\t// in\n    tag_296:\n        /* \"#utility.yul\":800:1132   */\n      swap4\n      swap3\n      pop\n      pop\n      pop\n      jump\t// out\n        /* \"#utility.yul\":1138:1360   */\n    tag_62:\n        /* \"#utility.yul\":1231:1235   */\n      0x00\n        /* \"#utility.yul\":1269:1271   */\n      0x20\n        /* \"#utility.yul\":1258:1267   */\n      dup3\n        /* \"#utility.yul\":1254:1272   */\n      add\n        /* \"#utility.yul\":1246:1272   */\n      swap1\n      pop\n        /* \"#utility.yul\":1282:1353   */\n      tag_298\n        /* \"#utility.yul\":1350:1351   */\n      0x00\n        /* \"#utility.yul\":1339:1348   */\n      dup4\n        /* \"#utility.yul\":1335:1352   */\n      add\n        /* \"#utility.yul\":1326:1332   */\n      dup5\n        /* \"#utility.yul\":1282:1353   */\n      tag_239\n      jump\t// in\n    tag_298:\n        /* \"#utility.yul\":1138:1360   */\n      swap3\n      swap2\n      pop\n      pop\n      jump\t// out\n        /* \"#utility.yul\":1366:1505   */\n    tag_240:\n        /* \"#utility.yul\":1458:1464   */\n      0x00\n        /* \"#utility.yul\":1492:1497   */\n      dup2\n        /* \"#utility.yul\":1486:1498   */\n      mload\n        /* \"#utility.yul\":1476:1498   */\n      swap1\n      pop\n        /* \"#utility.yul\":1366:1505   */\n      swap2\n      swap1\n      pop\n      jump\t// out\n        /* \"#utility.yul\":1511:1720   */\n    tag_241:\n        /* \"#utility.yul\":1635:1646   */\n      0x00\n        /* \"#utility.yul\":1669:1675   */\n      dup3\n        /* \"#utility.yul\":1664:1667   */\n      dup3\n        /* \"#utility.yul\":1657:1676   */\n      mstore\n        /* \"#utility.yul\":1709:1713   */\n      0x20\n        /* \"#utility.yul\":1704:1707   */\n      dup3\n        /* \"#utility.yul\":1700:1714   */\n      add\n        /* \"#utility.yul\":1685:1714   */\n      swap1\n      pop\n        /* \"#utility.yul\":1511:1720   */\n      swap3\n      swap2\n      pop\n      pop\n      jump\t// out\n        /* \"#utility.yul\":1726:1883   */\n    tag_242:\n        /* \"#utility.yul\":1818:1822   */\n      0x00\n        /* \"#utility.yul\":1841:1844   */\n      dup2\n        /* \"#utility.yul\":1833:1844   */\n      swap1\n      pop\n        /* \"#utility.yul\":1871:1875   */\n      0x20\n        /* \"#utility.yul\":1866:1869   */\n      dup3\n        /* \"#utility.yul\":1862:1876   */\n      add\n        /* \"#utility.yul\":1854:1876   */\n      swap1\n      pop\n        /* \"#utility.yul\":1726:1883   */\n      swap2\n      swap1\n      pop\n      jump\t// out\n        /* \"#utility.yul\":1889:1997   */\n    tag_243:\n        /* \"#utility.yul\":1966:1990   */\n      tag_303\n        /* \"#utility.yul\":1984:1989   */\n      dup2\n        /* \"#utility.yul\":1966:1990   */\n      tag_238\n      jump\t// in\n    tag_303:\n        /* \"#utility.yul\":1961:1964   */\n      dup3\n        /* \"#utility.yul\":1954:1991   */\n      mstore\n        /* \"#utility.yul\":1889:1997   */\n      pop\n      pop\n      jump\t// out\n        /* \"#utility.yul\":2003:2111   */\n    tag_244:\n        /* \"#utility.yul\":2080:2104   */\n      tag_305\n        /* \"#utility.yul\":2098:2103   */\n      dup2\n        /* \"#utility.yul\":2080:2104   */\n      tag_235\n      jump\t// in\n    tag_305:\n        /* \"#utility.yul\":2075:2078   */\n      dup3\n        /* \"#utility.yul\":2068:2105   */\n      mstore\n        /* \"#utility.yul\":2003:2111   */\n      pop\n      pop\n      jump\t// out\n        /* \"#utility.yul\":2165:2654   */\n    tag_245:\n        /* \"#utility.yul\":2290:2294   */\n      0x40\n        /* \"#utility.yul\":2285:2288   */\n      dup3\n        /* \"#utility.yul\":2281:2295   */\n      add\n        /* \"#utility.yul\":2379:2383   */\n      0x00\n        /* \"#utility.yul\":2372:2377   */\n      dup3\n        /* \"#utility.yul\":2368:2384   */\n      add\n        /* \"#utility.yul\":2362:2385   */\n      mload\n        /* \"#utility.yul\":2398:2461   */\n      tag_307\n        /* \"#utility.yul\":2455:2459   */\n      0x00\n        /* \"#utility.yul\":2450:2453   */\n      dup6\n        /* \"#utility.yul\":2446:2460   */\n      add\n        /* \"#utility.yul\":2432:2444   */\n      dup3\n        /* \"#utility.yul\":2398:2461   */\n      tag_243\n      jump\t// in\n    tag_307:\n        /* \"#utility.yul\":2305:2471   */\n      pop\n        /* \"#utility.yul\":2555:2559   */\n      0x20\n        /* \"#utility.yul\":2548:2553   */\n      dup3\n        /* \"#utility.yul\":2544:2560   */\n      add\n        /* \"#utility.yul\":2538:2561   */\n      mload\n        /* \"#utility.yul\":2574:2637   */\n      tag_308\n        /* \"#utility.yul\":2631:2635   */\n      0x20\n        /* \"#utility.yul\":2626:2629   */\n      dup6\n        /* \"#utility.yul\":2622:2636   */\n      add\n        /* \"#utility.yul\":2608:2620   */\n      dup3\n        /* \"#utility.yul\":2574:2637   */\n      tag_244\n      jump\t// in\n    tag_308:\n        /* \"#utility.yul\":2481:2647   */\n      pop\n        /* \"#utility.yul\":2259:2654   */\n      pop\n        /* \"#utility.yul\":2165:2654   */\n      pop\n      pop\n      jump\t// out\n        /* \"#utility.yul\":2720:3265   */\n    tag_246:\n        /* \"#utility.yul\":2857:2861   */\n      0x60\n        /* \"#utility.yul\":2852:2855   */\n      dup3\n        /* \"#utility.yul\":2848:2862   */\n      add\n        /* \"#utility.yul\":2943:2947   */\n      0x00\n        /* \"#utility.yul\":2936:2941   */\n      dup3\n        /* \"#utility.yul\":2932:2948   */\n      add\n        /* \"#utility.yul\":2926:2949   */\n      mload\n        /* \"#utility.yul\":2962:3063   */\n      tag_310\n        /* \"#utility.yul\":3057:3061   */\n      0x00\n        /* \"#utility.yul\":3052:3055   */\n      dup6\n        /* \"#utility.yul\":3048:3062   */\n      add\n        /* \"#utility.yul\":3034:3046   */\n      dup3\n        /* \"#utility.yul\":2962:3063   */\n      tag_245\n      jump\t// in\n    tag_310:\n        /* \"#utility.yul\":2872:3073   */\n      pop\n        /* \"#utility.yul\":3166:3170   */\n      0x20\n        /* \"#utility.yul\":3159:3164   */\n      dup3\n        /* \"#utility.yul\":3155:3171   */\n      add\n        /* \"#utility.yul\":3149:3172   */\n      mload\n        /* \"#utility.yul\":3185:3248   */\n      tag_311\n        /* \"#utility.yul\":3242:3246   */\n      0x40\n        /* \"#utility.yul\":3237:3240   */\n      dup6\n        /* \"#utility.yul\":3233:3247   */\n      add\n        /* \"#utility.yul\":3219:3231   */\n      dup3\n        /* \"#utility.yul\":3185:3248   */\n      tag_244\n      jump\t// in\n    tag_311:\n        /* \"#utility.yul\":3083:3258   */\n      pop\n        /* \"#utility.yul\":2826:3265   */\n      pop\n        /* \"#utility.yul\":2720:3265   */\n      pop\n      pop\n      jump\t// out\n        /* \"#utility.yul\":3271:3550   */\n    tag_247:\n        /* \"#utility.yul\":3390:3400   */\n      0x00\n        /* \"#utility.yul\":3411:3507   */\n      tag_313\n        /* \"#utility.yul\":3503:3506   */\n      dup4\n        /* \"#utility.yul\":3495:3501   */\n      dup4\n        /* \"#utility.yul\":3411:3507   */\n      tag_246\n      jump\t// in\n    tag_313:\n        /* \"#utility.yul\":3539:3543   */\n      0x60\n        /* \"#utility.yul\":3534:3537   */\n      dup4\n        /* \"#utility.yul\":3530:3544   */\n      add\n        /* \"#utility.yul\":3516:3544   */\n      swap1\n      pop\n        /* \"#utility.yul\":3271:3550   */\n      swap3\n      swap2\n      pop\n      pop\n      jump\t// out\n        /* \"#utility.yul\":3556:3694   */\n    tag_248:\n        /* \"#utility.yul\":3651:3655   */\n      0x00\n        /* \"#utility.yul\":3683:3687   */\n      0x20\n        /* \"#utility.yul\":3678:3681   */\n      dup3\n        /* \"#utility.yul\":3674:3688   */\n      add\n        /* \"#utility.yul\":3666:3688   */\n      swap1\n      pop\n        /* \"#utility.yul\":3556:3694   */\n      swap2\n      swap1\n      pop\n      jump\t// out\n        /* \"#utility.yul\":3764:4696   */\n    tag_249:\n        /* \"#utility.yul\":3933:3936   */\n      0x00\n        /* \"#utility.yul\":3962:4041   */\n      tag_316\n        /* \"#utility.yul\":4035:4040   */\n      dup3\n        /* \"#utility.yul\":3962:4041   */\n      tag_240\n      jump\t// in\n    tag_316:\n        /* \"#utility.yul\":4057:4168   */\n      tag_317\n        /* \"#utility.yul\":4161:4167   */\n      dup2\n        /* \"#utility.yul\":4156:4159   */\n      dup6\n        /* \"#utility.yul\":4057:4168   */\n      tag_241\n      jump\t// in\n    tag_317:\n        /* \"#utility.yul\":4050:4168   */\n      swap4\n      pop\n        /* \"#utility.yul\":4192:4273   */\n      tag_318\n        /* \"#utility.yul\":4267:4272   */\n      dup4\n        /* \"#utility.yul\":4192:4273   */\n      tag_242\n      jump\t// in\n    tag_318:\n        /* \"#utility.yul\":4296:4303   */\n      dup1\n        /* \"#utility.yul\":4327:4328   */\n      0x00\n        /* \"#utility.yul\":4312:4671   */\n    tag_319:\n        /* \"#utility.yul\":4337:4343   */\n      dup4\n        /* \"#utility.yul\":4334:4335   */\n      dup2\n        /* \"#utility.yul\":4331:4344   */\n      lt\n        /* \"#utility.yul\":4312:4671   */\n      iszero\n      tag_321\n      jumpi\n        /* \"#utility.yul\":4413:4419   */\n      dup2\n        /* \"#utility.yul\":4407:4420   */\n      mload\n        /* \"#utility.yul\":4440:4553   */\n      tag_322\n        /* \"#utility.yul\":4549:4552   */\n      dup9\n        /* \"#utility.yul\":4534:4547   */\n      dup3\n        /* \"#utility.yul\":4440:4553   */\n      tag_247\n      jump\t// in\n    tag_322:\n        /* \"#utility.yul\":4433:4553   */\n      swap8\n      pop\n        /* \"#utility.yul\":4576:4661   */\n      tag_323\n        /* \"#utility.yul\":4654:4660   */\n      dup4\n        /* \"#utility.yul\":4576:4661   */\n      tag_248\n      jump\t// in\n    tag_323:\n        /* \"#utility.yul\":4566:4661   */\n      swap3\n      pop\n        /* \"#utility.yul\":4372:4671   */\n      pop\n        /* \"#utility.yul\":4359:4360   */\n      0x01\n        /* \"#utility.yul\":4356:4357   */\n      dup2\n        /* \"#utility.yul\":4352:4361   */\n      add\n        /* \"#utility.yul\":4347:4361   */\n      swap1\n      pop\n        /* \"#utility.yul\":4312:4671   */\n      jump(tag_319)\n    tag_321:\n        /* \"#utility.yul\":4316:4330   */\n      pop\n        /* \"#utility.yul\":4687:4690   */\n      dup6\n        /* \"#utility.yul\":4680:4690   */\n      swap4\n      pop\n        /* \"#utility.yul\":3938:4696   */\n      pop\n      pop\n      pop\n        /* \"#utility.yul\":3764:4696   */\n      swap3\n      swap2\n      pop\n      pop\n      jump\t// out\n        /* \"#utility.yul\":4702:5175   */\n    tag_67:\n        /* \"#utility.yul\":4895:4899   */\n      0x00\n        /* \"#utility.yul\":4933:4935   */\n      0x20\n        /* \"#utility.yul\":4922:4931   */\n      dup3\n        /* \"#utility.yul\":4918:4936   */\n      add\n        /* \"#utility.yul\":4910:4936   */\n      swap1\n      pop\n        /* \"#utility.yul\":4982:4991   */\n      dup2\n        /* \"#utility.yul\":4976:4980   */\n      dup2\n        /* \"#utility.yul\":4972:4992   */\n      sub\n        /* \"#utility.yul\":4968:4969   */\n      0x00\n        /* \"#utility.yul\":4957:4966   */\n      dup4\n        /* \"#utility.yul\":4953:4970   */\n      add\n        /* \"#utility.yul\":4946:4993   */\n      mstore\n        /* \"#utility.yul\":5010:5168   */\n      tag_325\n        /* \"#utility.yul\":5163:5167   */\n      dup2\n        /* \"#utility.yul\":5154:5160   */\n      dup5\n        /* \"#utility.yul\":5010:5168   */\n      tag_249\n      jump\t// in\n    tag_325:\n        /* \"#utility.yul\":5002:5168   */\n      swap1\n      pop\n        /* \"#utility.yul\":4702:5175   */\n      swap3\n      swap2\n      pop\n      pop\n      jump\t// out\n        /* \"#utility.yul\":5229:5728   */\n    tag_250:\n        /* \"#utility.yul\":5364:5368   */\n      0x40\n        /* \"#utility.yul\":5359:5362   */\n      dup3\n        /* \"#utility.yul\":5355:5369   */\n      add\n        /* \"#utility.yul\":5453:5457   */\n      0x00\n        /* \"#utility.yul\":5446:5451   */\n      dup3\n        /* \"#utility.yul\":5442:5458   */\n      add\n        /* \"#utility.yul\":5436:5459   */\n      mload\n        /* \"#utility.yul\":5472:5535   */\n      tag_327\n        /* \"#utility.yul\":5529:5533   */\n      0x00\n        /* \"#utility.yul\":5524:5527   */\n      dup6\n        /* \"#utility.yul\":5520:5534   */\n      add\n        /* \"#utility.yul\":5506:5518   */\n      dup3\n        /* \"#utility.yul\":5472:5535   */\n      tag_243\n      jump\t// in\n    tag_327:\n        /* \"#utility.yul\":5379:5545   */\n      pop\n        /* \"#utility.yul\":5629:5633   */\n      0x20\n        /* \"#utility.yul\":5622:5627   */\n      dup3\n        /* \"#utility.yul\":5618:5634   */\n      add\n        /* \"#utility.yul\":5612:5635   */\n      mload\n        /* \"#utility.yul\":5648:5711   */\n      tag_328\n        /* \"#utility.yul\":5705:5709   */\n      0x20\n        /* \"#utility.yul\":5700:5703   */\n      dup6\n        /* \"#utility.yul\":5696:5710   */\n      add\n        /* \"#utility.yul\":5682:5694   */\n      dup3\n        /* \"#utility.yul\":5648:5711   */\n      tag_244\n      jump\t// in\n    tag_328:\n        /* \"#utility.yul\":5555:5721   */\n      pop\n        /* \"#utility.yul\":5333:5728   */\n      pop\n        /* \"#utility.yul\":5229:5728   */\n      pop\n      pop\n      jump\t// out\n        /* \"#utility.yul\":5734:6032   */\n    tag_76:\n        /* \"#utility.yul\":5865:5869   */\n      0x00\n        /* \"#utility.yul\":5903:5905   */\n      0x40\n        /* \"#utility.yul\":5892:5901   */\n      dup3\n        /* \"#utility.yul\":5888:5906   */\n      add\n        /* \"#utility.yul\":5880:5906   */\n      swap1\n      pop\n        /* \"#utility.yul\":5916:6025   */\n      tag_330\n        /* \"#utility.yul\":6022:6023   */\n      0x00\n        /* \"#utility.yul\":6011:6020   */\n      dup4\n        /* \"#utility.yul\":6007:6024   */\n      add\n        /* \"#utility.yul\":5998:6004   */\n      dup5\n        /* \"#utility.yul\":5916:6025   */\n      tag_250\n      jump\t// in\n    tag_330:\n        /* \"#utility.yul\":5734:6032   */\n      swap3\n      swap2\n      pop\n      pop\n      jump\t// out\n        /* \"#utility.yul\":6038:6207   */\n    tag_251:\n        /* \"#utility.yul\":6122:6133   */\n      0x00\n        /* \"#utility.yul\":6156:6162   */\n      dup3\n        /* \"#utility.yul\":6151:6154   */\n      dup3\n        /* \"#utility.yul\":6144:6163   */\n      mstore\n        /* \"#utility.yul\":6196:6200   */\n      0x20\n        /* \"#utility.yul\":6191:6194   */\n      dup3\n        /* \"#utility.yul\":6187:6201   */\n      add\n        /* \"#utility.yul\":6172:6201   */\n      swap1\n      pop\n        /* \"#utility.yul\":6038:6207   */\n      swap3\n      swap2\n      pop\n      pop\n      jump\t// out\n        /* \"#utility.yul\":6213:6382   */\n    tag_252:\n        /* \"#utility.yul\":6353:6374   */\n      0x41756374696f6e20686173206578706972656400000000000000000000000000\n        /* \"#utility.yul\":6349:6350   */\n      0x00\n        /* \"#utility.yul\":6341:6347   */\n      dup3\n        /* \"#utility.yul\":6337:6351   */\n      add\n        /* \"#utility.yul\":6330:6375   */\n      mstore\n        /* \"#utility.yul\":6213:6382   */\n      pop\n      jump\t// out\n        /* \"#utility.yul\":6388:6754   */\n    tag_253:\n        /* \"#utility.yul\":6530:6533   */\n      0x00\n        /* \"#utility.yul\":6551:6618   */\n      tag_334\n        /* \"#utility.yul\":6615:6617   */\n      0x13\n        /* \"#utility.yul\":6610:6613   */\n      dup4\n        /* \"#utility.yul\":6551:6618   */\n      tag_251\n      jump\t// in\n    tag_334:\n        /* \"#utility.yul\":6544:6618   */\n      swap2\n      pop\n        /* \"#utility.yul\":6627:6720   */\n      tag_335\n        /* \"#utility.yul\":6716:6719   */\n      dup3\n        /* \"#utility.yul\":6627:6720   */\n      tag_252\n      jump\t// in\n    tag_335:\n        /* \"#utility.yul\":6745:6747   */\n      0x20\n        /* \"#utility.yul\":6740:6743   */\n      dup3\n        /* \"#utility.yul\":6736:6748   */\n      add\n        /* \"#utility.yul\":6729:6748   */\n      swap1\n      pop\n        /* \"#utility.yul\":6388:6754   */\n      swap2\n      swap1\n      pop\n      jump\t// out\n        /* \"#utility.yul\":6760:7179   */\n    tag_83:\n        /* \"#utility.yul\":6926:6930   */\n      0x00\n        /* \"#utility.yul\":6964:6966   */\n      0x20\n        /* \"#utility.yul\":6953:6962   */\n      dup3\n        /* \"#utility.yul\":6949:6967   */\n      add\n        /* \"#utility.yul\":6941:6967   */\n      swap1\n      pop\n        /* \"#utility.yul\":7013:7022   */\n      dup2\n        /* \"#utility.yul\":7007:7011   */\n      dup2\n        /* \"#utility.yul\":7003:7023   */\n      sub\n        /* \"#utility.yul\":6999:7000   */\n      0x00\n        /* \"#utility.yul\":6988:6997   */\n      dup4\n        /* \"#utility.yul\":6984:7001   */\n      add\n        /* \"#utility.yul\":6977:7024   */\n      mstore\n        /* \"#utility.yul\":7041:7172   */\n      tag_337\n        /* \"#utility.yul\":7167:7171   */\n      dup2\n        /* \"#utility.yul\":7041:7172   */\n      tag_253\n      jump\t// in\n    tag_337:\n        /* \"#utility.yul\":7033:7172   */\n      swap1\n      pop\n        /* \"#utility.yul\":6760:7179   */\n      swap2\n      swap1\n      pop\n      jump\t// out\n        /* \"#utility.yul\":7185:7365   */\n    tag_254:\n        /* \"#utility.yul\":7233:7310   */\n      0x4e487b7100000000000000000000000000000000000000000000000000000000\n        /* \"#utility.yul\":7230:7231   */\n      0x00\n        /* \"#utility.yul\":7223:7311   */\n      mstore\n        /* \"#utility.yul\":7330:7334   */\n      0x11\n        /* \"#utility.yul\":7327:7328   */\n      0x04\n        /* \"#utility.yul\":7320:7335   */\n      mstore\n        /* \"#utility.yul\":7354:7358   */\n      0x24\n        /* \"#utility.yul\":7351:7352   */\n      0x00\n        /* \"#utility.yul\":7344:7359   */\n      revert\n        /* \"#utility.yul\":7371:7562   */\n    tag_86:\n        /* \"#utility.yul\":7411:7414   */\n      0x00\n        /* \"#utility.yul\":7430:7450   */\n      tag_340\n        /* \"#utility.yul\":7448:7449   */\n      dup3\n        /* \"#utility.yul\":7430:7450   */\n      tag_235\n      jump\t// in\n    tag_340:\n        /* \"#utility.yul\":7425:7450   */\n      swap2\n      pop\n        /* \"#utility.yul\":7464:7484   */\n      tag_341\n        /* \"#utility.yul\":7482:7483   */\n      dup4\n        /* \"#utility.yul\":7464:7484   */\n      tag_235\n      jump\t// in\n    tag_341:\n        /* \"#utility.yul\":7459:7484   */\n      swap3\n      pop\n        /* \"#utility.yul\":7507:7508   */\n      dup3\n        /* \"#utility.yul\":7504:7505   */\n      dup3\n        /* \"#utility.yul\":7500:7509   */\n      add\n        /* \"#utility.yul\":7493:7509   */\n      swap1\n      pop\n        /* \"#utility.yul\":7528:7531   */\n      dup1\n        /* \"#utility.yul\":7525:7526   */\n      dup3\n        /* \"#utility.yul\":7522:7532   */\n      gt\n        /* \"#utility.yul\":7519:7555   */\n      iszero\n      tag_342\n      jumpi\n        /* \"#utility.yul\":7535:7553   */\n      tag_343\n      tag_254\n      jump\t// in\n    tag_343:\n        /* \"#utility.yul\":7519:7555   */\n    tag_342:\n        /* \"#utility.yul\":7371:7562   */\n      swap3\n      swap2\n      pop\n      pop\n      jump\t// out\n        /* \"#utility.yul\":7568:7978   */\n    tag_88:\n        /* \"#utility.yul\":7608:7615   */\n      0x00\n        /* \"#utility.yul\":7631:7651   */\n      tag_345\n        /* \"#utility.yul\":7649:7650   */\n      dup3\n        /* \"#utility.yul\":7631:7651   */\n      tag_235\n      jump\t// in\n    tag_345:\n        /* \"#utility.yul\":7626:7651   */\n      swap2\n      pop\n        /* \"#utility.yul\":7665:7685   */\n      tag_346\n        /* \"#utility.yul\":7683:7684   */\n      dup4\n        /* \"#utility.yul\":7665:7685   */\n      tag_235\n      jump\t// in\n    tag_346:\n        /* \"#utility.yul\":7660:7685   */\n      swap3\n      pop\n        /* \"#utility.yul\":7720:7721   */\n      dup3\n        /* \"#utility.yul\":7717:7718   */\n      dup3\n        /* \"#utility.yul\":7713:7722   */\n      mul\n        /* \"#utility.yul\":7742:7772   */\n      tag_347\n        /* \"#utility.yul\":7760:7771   */\n      dup2\n        /* \"#utility.yul\":7742:7772   */\n      tag_235\n      jump\t// in\n    tag_347:\n        /* \"#utility.yul\":7731:7772   */\n      swap2\n      pop\n        /* \"#utility.yul\":7921:7922   */\n      dup3\n        /* \"#utility.yul\":7912:7919   */\n      dup3\n        /* \"#utility.yul\":7908:7923   */\n      div\n        /* \"#utility.yul\":7905:7906   */\n      dup5\n        /* \"#utility.yul\":7902:7924   */\n      eq\n        /* \"#utility.yul\":7882:7883   */\n      dup4\n        /* \"#utility.yul\":7875:7884   */\n      iszero\n        /* \"#utility.yul\":7855:7938   */\n      or\n        /* \"#utility.yul\":7832:7971   */\n      tag_348\n      jumpi\n        /* \"#utility.yul\":7951:7969   */\n      tag_349\n      tag_254\n      jump\t// in\n    tag_349:\n        /* \"#utility.yul\":7832:7971   */\n    tag_348:\n        /* \"#utility.yul\":7616:7978   */\n      pop\n        /* \"#utility.yul\":7568:7978   */\n      swap3\n      swap2\n      pop\n      pop\n      jump\t// out\n        /* \"#utility.yul\":7984:8164   */\n    tag_255:\n        /* \"#utility.yul\":8032:8109   */\n      0x4e487b7100000000000000000000000000000000000000000000000000000000\n        /* \"#utility.yul\":8029:8030   */\n      0x00\n        /* \"#utility.yul\":8022:8110   */\n      mstore\n        /* \"#utility.yul\":8129:8133   */\n      0x12\n        /* \"#utility.yul\":8126:8127   */\n      0x04\n        /* \"#utility.yul\":8119:8134   */\n      mstore\n        /* \"#utility.yul\":8153:8157   */\n      0x24\n        /* \"#utility.yul\":8150:8151   */\n      0x00\n        /* \"#utility.yul\":8143:8158   */\n      revert\n        /* \"#utility.yul\":8170:8355   */\n    tag_90:\n        /* \"#utility.yul\":8210:8211   */\n      0x00\n        /* \"#utility.yul\":8227:8247   */\n      tag_352\n        /* \"#utility.yul\":8245:8246   */\n      dup3\n        /* \"#utility.yul\":8227:8247   */\n      tag_235\n      jump\t// in\n    tag_352:\n        /* \"#utility.yul\":8222:8247   */\n      swap2\n      pop\n        /* \"#utility.yul\":8261:8281   */\n      tag_353\n        /* \"#utility.yul\":8279:8280   */\n      dup4\n        /* \"#utility.yul\":8261:8281   */\n      tag_235\n      jump\t// in\n    tag_353:\n        /* \"#utility.yul\":8256:8281   */\n      swap3\n      pop\n        /* \"#utility.yul\":8300:8301   */\n      dup3\n        /* \"#utility.yul\":8290:8325   */\n      tag_354\n      jumpi\n        /* \"#utility.yul\":8305:8323   */\n      tag_355\n      tag_255\n      jump\t// in\n    tag_355:\n        /* \"#utility.yul\":8290:8325   */\n    tag_354:\n        /* \"#utility.yul\":8347:8348   */\n      dup3\n        /* \"#utility.yul\":8344:8345   */\n      dup3\n        /* \"#utility.yul\":8340:8349   */\n      div\n        /* \"#utility.yul\":8335:8349   */\n      swap1\n      pop\n        /* \"#utility.yul\":8170:8355   */\n      swap3\n      swap2\n      pop\n      pop\n      jump\t// out\n        /* \"#utility.yul\":8361:8604   */\n    tag_256:\n        /* \"#utility.yul\":8501:8535   */\n      0x426964206d757374206265206174206c65617374203525206772656174657220\n        /* \"#utility.yul\":8497:8498   */\n      0x00\n        /* \"#utility.yul\":8489:8495   */\n      dup3\n        /* \"#utility.yul\":8485:8499   */\n      add\n        /* \"#utility.yul\":8478:8536   */\n      mstore\n        /* \"#utility.yul\":8570:8596   */\n      0x7468616e2063757272656e742068696768657374206269640000000000000000\n        /* \"#utility.yul\":8565:8567   */\n      0x20\n        /* \"#utility.yul\":8557:8563   */\n      dup3\n        /* \"#utility.yul\":8553:8568   */\n      add\n        /* \"#utility.yul\":8546:8597   */\n      mstore\n        /* \"#utility.yul\":8361:8604   */\n      pop\n      jump\t// out\n        /* \"#utility.yul\":8610:8976   */\n    tag_257:\n        /* \"#utility.yul\":8752:8755   */\n      0x00\n        /* \"#utility.yul\":8773:8840   */\n      tag_358\n        /* \"#utility.yul\":8837:8839   */\n      0x38\n        /* \"#utility.yul\":8832:8835   */\n      dup4\n        /* \"#utility.yul\":8773:8840   */\n      tag_251\n      jump\t// in\n    tag_358:\n        /* \"#utility.yul\":8766:8840   */\n      swap2\n      pop\n        /* \"#utility.yul\":8849:8942   */\n      tag_359\n        /* \"#utility.yul\":8938:8941   */\n      dup3\n        /* \"#utility.yul\":8849:8942   */\n      tag_256\n      jump\t// in\n    tag_359:\n        /* \"#utility.yul\":8967:8969   */\n      0x40\n        /* \"#utility.yul\":8962:8965   */\n      dup3\n        /* \"#utility.yul\":8958:8970   */\n      add\n        /* \"#utility.yul\":8951:8970   */\n      swap1\n      pop\n        /* \"#utility.yul\":8610:8976   */\n      swap2\n      swap1\n      pop\n      jump\t// out\n        /* \"#utility.yul\":8982:9401   */\n    tag_93:\n        /* \"#utility.yul\":9148:9152   */\n      0x00\n        /* \"#utility.yul\":9186:9188   */\n      0x20\n        /* \"#utility.yul\":9175:9184   */\n      dup3\n        /* \"#utility.yul\":9171:9189   */\n      add\n        /* \"#utility.yul\":9163:9189   */\n      swap1\n      pop\n        /* \"#utility.yul\":9235:9244   */\n      dup2\n        /* \"#utility.yul\":9229:9233   */\n      dup2\n        /* \"#utility.yul\":9225:9245   */\n      sub\n        /* \"#utility.yul\":9221:9222   */\n      0x00\n        /* \"#utility.yul\":9210:9219   */\n      dup4\n        /* \"#utility.yul\":9206:9223   */\n      add\n        /* \"#utility.yul\":9199:9246   */\n      mstore\n        /* \"#utility.yul\":9263:9394   */\n      tag_361\n        /* \"#utility.yul\":9389:9393   */\n      dup2\n        /* \"#utility.yul\":9263:9394   */\n      tag_257\n      jump\t// in\n    tag_361:\n        /* \"#utility.yul\":9255:9394   */\n      swap1\n      pop\n        /* \"#utility.yul\":8982:9401   */\n      swap2\n      swap1\n      pop\n      jump\t// out\n        /* \"#utility.yul\":9407:9589   */\n    tag_258:\n        /* \"#utility.yul\":9547:9581   */\n      0x596f7520616c7265616479206861766520746865206869676865737420626964\n        /* \"#utility.yul\":9543:9544   */\n      0x00\n        /* \"#utility.yul\":9535:9541   */\n      dup3\n        /* \"#utility.yul\":9531:9545   */\n      add\n        /* \"#utility.yul\":9524:9582   */\n      mstore\n        /* \"#utility.yul\":9407:9589   */\n      pop\n      jump\t// out\n        /* \"#utility.yul\":9595:9961   */\n    tag_259:\n        /* \"#utility.yul\":9737:9740   */\n      0x00\n        /* \"#utility.yul\":9758:9825   */\n      tag_364\n        /* \"#utility.yul\":9822:9824   */\n      0x20\n        /* \"#utility.yul\":9817:9820   */\n      dup4\n        /* \"#utility.yul\":9758:9825   */\n      tag_251\n      jump\t// in\n    tag_364:\n        /* \"#utility.yul\":9751:9825   */\n      swap2\n      pop\n        /* \"#utility.yul\":9834:9927   */\n      tag_365\n        /* \"#utility.yul\":9923:9926   */\n      dup3\n        /* \"#utility.yul\":9834:9927   */\n      tag_258\n      jump\t// in\n    tag_365:\n        /* \"#utility.yul\":9952:9954   */\n      0x20\n        /* \"#utility.yul\":9947:9950   */\n      dup3\n        /* \"#utility.yul\":9943:9955   */\n      add\n        /* \"#utility.yul\":9936:9955   */\n      swap1\n      pop\n        /* \"#utility.yul\":9595:9961   */\n      swap2\n      swap1\n      pop\n      jump\t// out\n        /* \"#utility.yul\":9967:10386   */\n    tag_97:\n        /* \"#utility.yul\":10133:10137   */\n      0x00\n        /* \"#utility.yul\":10171:10173   */\n      0x20\n        /* \"#utility.yul\":10160:10169   */\n      dup3\n        /* \"#utility.yul\":10156:10174   */\n      add\n        /* \"#utility.yul\":10148:10174   */\n      swap1\n      pop\n        /* \"#utility.yul\":10220:10229   */\n      dup2\n        /* \"#utility.yul\":10214:10218   */\n      dup2\n        /* \"#utility.yul\":10210:10230   */\n      sub\n        /* \"#utility.yul\":10206:10207   */\n      0x00\n        /* \"#utility.yul\":10195:10204   */\n      dup4\n        /* \"#utility.yul\":10191:10208   */\n      add\n        /* \"#utility.yul\":10184:10231   */\n      mstore\n        /* \"#utility.yul\":10248:10379   */\n      tag_367\n        /* \"#utility.yul\":10374:10378   */\n      dup2\n        /* \"#utility.yul\":10248:10379   */\n      tag_259\n      jump\t// in\n    tag_367:\n        /* \"#utility.yul\":10240:10379   */\n      swap1\n      pop\n        /* \"#utility.yul\":9967:10386   */\n      swap2\n      swap1\n      pop\n      jump\t// out\n        /* \"#utility.yul\":10392:10586   */\n    tag_107:\n        /* \"#utility.yul\":10432:10436   */\n      0x00\n        /* \"#utility.yul\":10452:10472   */\n      tag_369\n        /* \"#utility.yul\":10470:10471   */\n      dup3\n        /* \"#utility.yul\":10452:10472   */\n      tag_235\n      jump\t// in\n    tag_369:\n        /* \"#utility.yul\":10447:10472   */\n      swap2\n      pop\n        /* \"#utility.yul\":10486:10506   */\n      tag_370\n        /* \"#utility.yul\":10504:10505   */\n      dup4\n        /* \"#utility.yul\":10486:10506   */\n      tag_235\n      jump\t// in\n    tag_370:\n        /* \"#utility.yul\":10481:10506   */\n      swap3\n      pop\n        /* \"#utility.yul\":10530:10531   */\n      dup3\n        /* \"#utility.yul\":10527:10528   */\n      dup3\n        /* \"#utility.yul\":10523:10532   */\n      sub\n        /* \"#utility.yul\":10515:10532   */\n      swap1\n      pop\n        /* \"#utility.yul\":10554:10555   */\n      dup2\n        /* \"#utility.yul\":10548:10552   */\n      dup2\n        /* \"#utility.yul\":10545:10556   */\n      gt\n        /* \"#utility.yul\":10542:10579   */\n      iszero\n      tag_371\n      jumpi\n        /* \"#utility.yul\":10559:10577   */\n      tag_372\n      tag_254\n      jump\t// in\n    tag_372:\n        /* \"#utility.yul\":10542:10579   */\n    tag_371:\n        /* \"#utility.yul\":10392:10586   */\n      swap3\n      swap2\n      pop\n      pop\n      jump\t// out\n        /* \"#utility.yul\":10592:10924   */\n    tag_111:\n        /* \"#utility.yul\":10713:10717   */\n      0x00\n        /* \"#utility.yul\":10751:10753   */\n      0x40\n        /* \"#utility.yul\":10740:10749   */\n      dup3\n        /* \"#utility.yul\":10736:10754   */\n      add\n        /* \"#utility.yul\":10728:10754   */\n      swap1\n      pop\n        /* \"#utility.yul\":10764:10835   */\n      tag_374\n        /* \"#utility.yul\":10832:10833   */\n      0x00\n        /* \"#utility.yul\":10821:10830   */\n      dup4\n        /* \"#utility.yul\":10817:10834   */\n      add\n        /* \"#utility.yul\":10808:10814   */\n      dup6\n        /* \"#utility.yul\":10764:10835   */\n      tag_236\n      jump\t// in\n    tag_374:\n        /* \"#utility.yul\":10845:10917   */\n      tag_375\n        /* \"#utility.yul\":10913:10915   */\n      0x20\n        /* \"#utility.yul\":10902:10911   */\n      dup4\n        /* \"#utility.yul\":10898:10916   */\n      add\n        /* \"#utility.yul\":10889:10895   */\n      dup5\n        /* \"#utility.yul\":10845:10917   */\n      tag_236\n      jump\t// in\n    tag_375:\n        /* \"#utility.yul\":10592:10924   */\n      swap4\n      swap3\n      pop\n      pop\n      pop\n      jump\t// out\n        /* \"#utility.yul\":10930:11151   */\n    tag_260:\n        /* \"#utility.yul\":11070:11104   */\n      0x4f6e6c79206f776e65722063616e20706572666f726d20746869732061637469\n        /* \"#utility.yul\":11066:11067   */\n      0x00\n        /* \"#utility.yul\":11058:11064   */\n      dup3\n        /* \"#utility.yul\":11054:11068   */\n      add\n        /* \"#utility.yul\":11047:11105   */\n      mstore\n        /* \"#utility.yul\":11139:11143   */\n      0x6f6e000000000000000000000000000000000000000000000000000000000000\n        /* \"#utility.yul\":11134:11136   */\n      0x20\n        /* \"#utility.yul\":11126:11132   */\n      dup3\n        /* \"#utility.yul\":11122:11137   */\n      add\n        /* \"#utility.yul\":11115:11144   */\n      mstore\n        /* \"#utility.yul\":10930:11151   */\n      pop\n      jump\t// out\n        /* \"#utility.yul\":11157:11523   */\n    tag_261:\n        /* \"#utility.yul\":11299:11302   */\n      0x00\n        /* \"#utility.yul\":11320:11387   */\n      tag_378\n        /* \"#utility.yul\":11384:11386   */\n      0x22\n        /* \"#utility.yul\":11379:11382   */\n      dup4\n        /* \"#utility.yul\":11320:11387   */\n      tag_251\n      jump\t// in\n    tag_378:\n        /* \"#utility.yul\":11313:11387   */\n      swap2\n      pop\n        /* \"#utility.yul\":11396:11489   */\n      tag_379\n        /* \"#utility.yul\":11485:11488   */\n      dup3\n        /* \"#utility.yul\":11396:11489   */\n      tag_260\n      jump\t// in\n    tag_379:\n        /* \"#utility.yul\":11514:11516   */\n      0x40\n        /* \"#utility.yul\":11509:11512   */\n      dup3\n        /* \"#utility.yul\":11505:11517   */\n      add\n        /* \"#utility.yul\":11498:11517   */\n      swap1\n      pop\n        /* \"#utility.yul\":11157:11523   */\n      swap2\n      swap1\n      pop\n      jump\t// out\n        /* \"#utility.yul\":11529:11948   */\n    tag_115:\n        /* \"#utility.yul\":11695:11699   */\n      0x00\n        /* \"#utility.yul\":11733:11735   */\n      0x20\n        /* \"#utility.yul\":11722:11731   */\n      dup3\n        /* \"#utility.yul\":11718:11736   */\n      add\n        /* \"#utility.yul\":11710:11736   */\n      swap1\n      pop\n        /* \"#utility.yul\":11782:11791   */\n      dup2\n        /* \"#utility.yul\":11776:11780   */\n      dup2\n        /* \"#utility.yul\":11772:11792   */\n      sub\n        /* \"#utility.yul\":11768:11769   */\n      0x00\n        /* \"#utility.yul\":11757:11766   */\n      dup4\n        /* \"#utility.yul\":11753:11770   */\n      add\n        /* \"#utility.yul\":11746:11793   */\n      mstore\n        /* \"#utility.yul\":11810:11941   */\n      tag_381\n        /* \"#utility.yul\":11936:11940   */\n      dup2\n        /* \"#utility.yul\":11810:11941   */\n      tag_261\n      jump\t// in\n    tag_381:\n        /* \"#utility.yul\":11802:11941   */\n      swap1\n      pop\n        /* \"#utility.yul\":11529:11948   */\n      swap2\n      swap1\n      pop\n      jump\t// out\n        /* \"#utility.yul\":11954:12127   */\n    tag_262:\n        /* \"#utility.yul\":12094:12119   */\n      0x41756374696f6e206973206e6f742066696e6973686564000000000000000000\n        /* \"#utility.yul\":12090:12091   */\n      0x00\n        /* \"#utility.yul\":12082:12088   */\n      dup3\n        /* \"#utility.yul\":12078:12092   */\n      add\n        /* \"#utility.yul\":12071:12120   */\n      mstore\n        /* \"#utility.yul\":11954:12127   */\n      pop\n      jump\t// out\n        /* \"#utility.yul\":12133:12499   */\n    tag_263:\n        /* \"#utility.yul\":12275:12278   */\n      0x00\n        /* \"#utility.yul\":12296:12363   */\n      tag_384\n        /* \"#utility.yul\":12360:12362   */\n      0x17\n        /* \"#utility.yul\":12355:12358   */\n      dup4\n        /* \"#utility.yul\":12296:12363   */\n      tag_251\n      jump\t// in\n    tag_384:\n        /* \"#utility.yul\":12289:12363   */\n      swap2\n      pop\n        /* \"#utility.yul\":12372:12465   */\n      tag_385\n        /* \"#utility.yul\":12461:12464   */\n      dup3\n        /* \"#utility.yul\":12372:12465   */\n      tag_262\n      jump\t// in\n    tag_385:\n        /* \"#utility.yul\":12490:12492   */\n      0x20\n        /* \"#utility.yul\":12485:12488   */\n      dup3\n        /* \"#utility.yul\":12481:12493   */\n      add\n        /* \"#utility.yul\":12474:12493   */\n      swap1\n      pop\n        /* \"#utility.yul\":12133:12499   */\n      swap2\n      swap1\n      pop\n      jump\t// out\n        /* \"#utility.yul\":12505:12924   */\n    tag_119:\n        /* \"#utility.yul\":12671:12675   */\n      0x00\n        /* \"#utility.yul\":12709:12711   */\n      0x20\n        /* \"#utility.yul\":12698:12707   */\n      dup3\n        /* \"#utility.yul\":12694:12712   */\n      add\n        /* \"#utility.yul\":12686:12712   */\n      swap1\n      pop\n        /* \"#utility.yul\":12758:12767   */\n      dup2\n        /* \"#utility.yul\":12752:12756   */\n      dup2\n        /* \"#utility.yul\":12748:12768   */\n      sub\n        /* \"#utility.yul\":12744:12745   */\n      0x00\n        /* \"#utility.yul\":12733:12742   */\n      dup4\n        /* \"#utility.yul\":12729:12746   */\n      add\n        /* \"#utility.yul\":12722:12769   */\n      mstore\n        /* \"#utility.yul\":12786:12917   */\n      tag_387\n        /* \"#utility.yul\":12912:12916   */\n      dup2\n        /* \"#utility.yul\":12786:12917   */\n      tag_263\n      jump\t// in\n    tag_387:\n        /* \"#utility.yul\":12778:12917   */\n      swap1\n      pop\n        /* \"#utility.yul\":12505:12924   */\n      swap2\n      swap1\n      pop\n      jump\t// out\n        /* \"#utility.yul\":12930:13151   */\n    tag_264:\n        /* \"#utility.yul\":13070:13104   */\n      0x42696464657273206861766520616c7265616479206265656e20726566756e64\n        /* \"#utility.yul\":13066:13067   */\n      0x00\n        /* \"#utility.yul\":13058:13064   */\n      dup3\n        /* \"#utility.yul\":13054:13068   */\n      add\n        /* \"#utility.yul\":13047:13105   */\n      mstore\n        /* \"#utility.yul\":13139:13143   */\n      0x6564000000000000000000000000000000000000000000000000000000000000\n        /* \"#utility.yul\":13134:13136   */\n      0x20\n        /* \"#utility.yul\":13126:13132   */\n      dup3\n        /* \"#utility.yul\":13122:13137   */\n      add\n        /* \"#utility.yul\":13115:13144   */\n      mstore\n        /* \"#utility.yul\":12930:13151   */\n      pop\n      jump\t// out\n        /* \"#utility.yul\":13157:13523   */\n    tag_265:\n        /* \"#utility.yul\":13299:13302   */\n      0x00\n        /* \"#utility.yul\":13320:13387   */\n      tag_390\n        /* \"#utility.yul\":13384:13386   */\n      0x22\n        /* \"#utility.yul\":13379:13382   */\n      dup4\n        /* \"#utility.yul\":13320:13387   */\n      tag_251\n      jump\t// in\n    tag_390:\n        /* \"#utility.yul\":13313:13387   */\n      swap2\n      pop\n        /* \"#utility.yul\":13396:13489   */\n      tag_391\n        /* \"#utility.yul\":13485:13488   */\n      dup3\n        /* \"#utility.yul\":13396:13489   */\n      tag_264\n      jump\t// in\n    tag_391:\n        /* \"#utility.yul\":13514:13516   */\n      0x40\n        /* \"#utility.yul\":13509:13512   */\n      dup3\n        /* \"#utility.yul\":13505:13517   */\n      add\n        /* \"#utility.yul\":13498:13517   */\n      swap1\n      pop\n        /* \"#utility.yul\":13157:13523   */\n      swap2\n      swap1\n      pop\n      jump\t// out\n        /* \"#utility.yul\":13529:13948   */\n    tag_123:\n        /* \"#utility.yul\":13695:13699   */\n      0x00\n        /* \"#utility.yul\":13733:13735   */\n      0x20\n        /* \"#utility.yul\":13722:13731   */\n      dup3\n        /* \"#utility.yul\":13718:13736   */\n      add\n        /* \"#utility.yul\":13710:13736   */\n      swap1\n      pop\n        /* \"#utility.yul\":13782:13791   */\n      dup2\n        /* \"#utility.yul\":13776:13780   */\n      dup2\n        /* \"#utility.yul\":13772:13792   */\n      sub\n        /* \"#utility.yul\":13768:13769   */\n      0x00\n        /* \"#utility.yul\":13757:13766   */\n      dup4\n        /* \"#utility.yul\":13753:13770   */\n      add\n        /* \"#utility.yul\":13746:13793   */\n      mstore\n        /* \"#utility.yul\":13810:13941   */\n      tag_393\n        /* \"#utility.yul\":13936:13940   */\n      dup2\n        /* \"#utility.yul\":13810:13941   */\n      tag_265\n      jump\t// in\n    tag_393:\n        /* \"#utility.yul\":13802:13941   */\n      swap1\n      pop\n        /* \"#utility.yul\":13529:13948   */\n      swap2\n      swap1\n      pop\n      jump\t// out\n        /* \"#utility.yul\":13954:14125   */\n    tag_266:\n        /* \"#utility.yul\":14094:14117   */\n      0x546865726520617265206e6f2062696473207965740000000000000000000000\n        /* \"#utility.yul\":14090:14091   */\n      0x00\n        /* \"#utility.yul\":14082:14088   */\n      dup3\n        /* \"#utility.yul\":14078:14092   */\n      add\n        /* \"#utility.yul\":14071:14118   */\n      mstore\n        /* \"#utility.yul\":13954:14125   */\n      pop\n      jump\t// out\n        /* \"#utility.yul\":14131:14497   */\n    tag_267:\n        /* \"#utility.yul\":14273:14276   */\n      0x00\n        /* \"#utility.yul\":14294:14361   */\n      tag_396\n        /* \"#utility.yul\":14358:14360   */\n      0x15\n        /* \"#utility.yul\":14353:14356   */\n      dup4\n        /* \"#utility.yul\":14294:14361   */\n      tag_251\n      jump\t// in\n    tag_396:\n        /* \"#utility.yul\":14287:14361   */\n      swap2\n      pop\n        /* \"#utility.yul\":14370:14463   */\n      tag_397\n        /* \"#utility.yul\":14459:14462   */\n      dup3\n        /* \"#utility.yul\":14370:14463   */\n      tag_266\n      jump\t// in\n    tag_397:\n        /* \"#utility.yul\":14488:14490   */\n      0x20\n        /* \"#utility.yul\":14483:14486   */\n      dup3\n        /* \"#utility.yul\":14479:14491   */\n      add\n        /* \"#utility.yul\":14472:14491   */\n      swap1\n      pop\n        /* \"#utility.yul\":14131:14497   */\n      swap2\n      swap1\n      pop\n      jump\t// out\n        /* \"#utility.yul\":14503:14922   */\n    tag_127:\n        /* \"#utility.yul\":14669:14673   */\n      0x00\n        /* \"#utility.yul\":14707:14709   */\n      0x20\n        /* \"#utility.yul\":14696:14705   */\n      dup3\n        /* \"#utility.yul\":14692:14710   */\n      add\n        /* \"#utility.yul\":14684:14710   */\n      swap1\n      pop\n        /* \"#utility.yul\":14756:14765   */\n      dup2\n        /* \"#utility.yul\":14750:14754   */\n      dup2\n        /* \"#utility.yul\":14746:14766   */\n      sub\n        /* \"#utility.yul\":14742:14743   */\n      0x00\n        /* \"#utility.yul\":14731:14740   */\n      dup4\n        /* \"#utility.yul\":14727:14744   */\n      add\n        /* \"#utility.yul\":14720:14767   */\n      mstore\n        /* \"#utility.yul\":14784:14915   */\n      tag_399\n        /* \"#utility.yul\":14910:14914   */\n      dup2\n        /* \"#utility.yul\":14784:14915   */\n      tag_267\n      jump\t// in\n    tag_399:\n        /* \"#utility.yul\":14776:14915   */\n      swap1\n      pop\n        /* \"#utility.yul\":14503:14922   */\n      swap2\n      swap1\n      pop\n      jump\t// out\n        /* \"#utility.yul\":14928:15109   */\n    tag_268:\n        /* \"#utility.yul\":15068:15101   */\n      0x5265656e7472616e637947756172643a207265656e7472616e742063616c6c00\n        /* \"#utility.yul\":15064:15065   */\n      0x00\n        /* \"#utility.yul\":15056:15062   */\n      dup3\n        /* \"#utility.yul\":15052:15066   */\n      add\n        /* \"#utility.yul\":15045:15102   */\n      mstore\n        /* \"#utility.yul\":14928:15109   */\n      pop\n      jump\t// out\n        /* \"#utility.yul\":15115:15481   */\n    tag_269:\n        /* \"#utility.yul\":15257:15260   */\n      0x00\n        /* \"#utility.yul\":15278:15345   */\n      tag_402\n        /* \"#utility.yul\":15342:15344   */\n      0x1f\n        /* \"#utility.yul\":15337:15340   */\n      dup4\n        /* \"#utility.yul\":15278:15345   */\n      tag_251\n      jump\t// in\n    tag_402:\n        /* \"#utility.yul\":15271:15345   */\n      swap2\n      pop\n        /* \"#utility.yul\":15354:15447   */\n      tag_403\n        /* \"#utility.yul\":15443:15446   */\n      dup3\n        /* \"#utility.yul\":15354:15447   */\n      tag_268\n      jump\t// in\n    tag_403:\n        /* \"#utility.yul\":15472:15474   */\n      0x20\n        /* \"#utility.yul\":15467:15470   */\n      dup3\n        /* \"#utility.yul\":15463:15475   */\n      add\n        /* \"#utility.yul\":15456:15475   */\n      swap1\n      pop\n        /* \"#utility.yul\":15115:15481   */\n      swap2\n      swap1\n      pop\n      jump\t// out\n        /* \"#utility.yul\":15487:15906   */\n    tag_131:\n        /* \"#utility.yul\":15653:15657   */\n      0x00\n        /* \"#utility.yul\":15691:15693   */\n      0x20\n        /* \"#utility.yul\":15680:15689   */\n      dup3\n        /* \"#utility.yul\":15676:15694   */\n      add\n        /* \"#utility.yul\":15668:15694   */\n      swap1\n      pop\n        /* \"#utility.yul\":15740:15749   */\n      dup2\n        /* \"#utility.yul\":15734:15738   */\n      dup2\n        /* \"#utility.yul\":15730:15750   */\n      sub\n        /* \"#utility.yul\":15726:15727   */\n      0x00\n        /* \"#utility.yul\":15715:15724   */\n      dup4\n        /* \"#utility.yul\":15711:15728   */\n      add\n        /* \"#utility.yul\":15704:15751   */\n      mstore\n        /* \"#utility.yul\":15768:15899   */\n      tag_405\n        /* \"#utility.yul\":15894:15898   */\n      dup2\n        /* \"#utility.yul\":15768:15899   */\n      tag_269\n      jump\t// in\n    tag_405:\n        /* \"#utility.yul\":15760:15899   */\n      swap1\n      pop\n        /* \"#utility.yul\":15487:15906   */\n      swap2\n      swap1\n      pop\n      jump\t// out\n        /* \"#utility.yul\":15912:16092   */\n    tag_138:\n        /* \"#utility.yul\":15960:16037   */\n      0x4e487b7100000000000000000000000000000000000000000000000000000000\n        /* \"#utility.yul\":15957:15958   */\n      0x00\n        /* \"#utility.yul\":15950:16038   */\n      mstore\n        /* \"#utility.yul\":16057:16061   */\n      0x32\n        /* \"#utility.yul\":16054:16055   */\n      0x04\n        /* \"#utility.yul\":16047:16062   */\n      mstore\n        /* \"#utility.yul\":16081:16085   */\n      0x24\n        /* \"#utility.yul\":16078:16079   */\n      0x00\n        /* \"#utility.yul\":16071:16086   */\n      revert\n        /* \"#utility.yul\":16098:16245   */\n    tag_270:\n        /* \"#utility.yul\":16199:16210   */\n      0x00\n        /* \"#utility.yul\":16236:16239   */\n      dup2\n        /* \"#utility.yul\":16221:16239   */\n      swap1\n      pop\n        /* \"#utility.yul\":16098:16245   */\n      swap3\n      swap2\n      pop\n      pop\n      jump\t// out\n        /* \"#utility.yul\":16251:16365   */\n    tag_271:\n      pop\n      jump\t// out\n        /* \"#utility.yul\":16371:16769   */\n    tag_272:\n        /* \"#utility.yul\":16530:16533   */\n      0x00\n        /* \"#utility.yul\":16551:16634   */\n      tag_410\n        /* \"#utility.yul\":16632:16633   */\n      0x00\n        /* \"#utility.yul\":16627:16630   */\n      dup4\n        /* \"#utility.yul\":16551:16634   */\n      tag_270\n      jump\t// in\n    tag_410:\n        /* \"#utility.yul\":16544:16634   */\n      swap2\n      pop\n        /* \"#utility.yul\":16643:16736   */\n      tag_411\n        /* \"#utility.yul\":16732:16735   */\n      dup3\n        /* \"#utility.yul\":16643:16736   */\n      tag_271\n      jump\t// in\n    tag_411:\n        /* \"#utility.yul\":16761:16762   */\n      0x00\n        /* \"#utility.yul\":16756:16759   */\n      dup3\n        /* \"#utility.yul\":16752:16763   */\n      add\n        /* \"#utility.yul\":16745:16763   */\n      swap1\n      pop\n        /* \"#utility.yul\":16371:16769   */\n      swap2\n      swap1\n      pop\n      jump\t// out\n        /* \"#utility.yul\":16775:17154   */\n    tag_153:\n        /* \"#utility.yul\":16959:16962   */\n      0x00\n        /* \"#utility.yul\":16981:17128   */\n      tag_413\n        /* \"#utility.yul\":17124:17127   */\n      dup3\n        /* \"#utility.yul\":16981:17128   */\n      tag_272\n      jump\t// in\n    tag_413:\n        /* \"#utility.yul\":16974:17128   */\n      swap2\n      pop\n        /* \"#utility.yul\":17145:17148   */\n      dup2\n        /* \"#utility.yul\":17138:17148   */\n      swap1\n      pop\n        /* \"#utility.yul\":16775:17154   */\n      swap2\n      swap1\n      pop\n      jump\t// out\n        /* \"#utility.yul\":17160:17321   */\n    tag_273:\n        /* \"#utility.yul\":17300:17313   */\n      0x726566756e64206661696c000000000000000000000000000000000000000000\n        /* \"#utility.yul\":17296:17297   */\n      0x00\n        /* \"#utility.yul\":17288:17294   */\n      dup3\n        /* \"#utility.yul\":17284:17298   */\n      add\n        /* \"#utility.yul\":17277:17314   */\n      mstore\n        /* \"#utility.yul\":17160:17321   */\n      pop\n      jump\t// out\n        /* \"#utility.yul\":17327:17693   */\n    tag_274:\n        /* \"#utility.yul\":17469:17472   */\n      0x00\n        /* \"#utility.yul\":17490:17557   */\n      tag_416\n        /* \"#utility.yul\":17554:17556   */\n      0x0b\n        /* \"#utility.yul\":17549:17552   */\n      dup4\n        /* \"#utility.yul\":17490:17557   */\n      tag_251\n      jump\t// in\n    tag_416:\n        /* \"#utility.yul\":17483:17557   */\n      swap2\n      pop\n        /* \"#utility.yul\":17566:17659   */\n      tag_417\n        /* \"#utility.yul\":17655:17658   */\n      dup3\n        /* \"#utility.yul\":17566:17659   */\n      tag_273\n      jump\t// in\n    tag_417:\n        /* \"#utility.yul\":17684:17686   */\n      0x20\n        /* \"#utility.yul\":17679:17682   */\n      dup3\n        /* \"#utility.yul\":17675:17687   */\n      add\n        /* \"#utility.yul\":17668:17687   */\n      swap1\n      pop\n        /* \"#utility.yul\":17327:17693   */\n      swap2\n      swap1\n      pop\n      jump\t// out\n        /* \"#utility.yul\":17699:18118   */\n    tag_159:\n        /* \"#utility.yul\":17865:17869   */\n      0x00\n        /* \"#utility.yul\":17903:17905   */\n      0x20\n        /* \"#utility.yul\":17892:17901   */\n      dup3\n        /* \"#utility.yul\":17888:17906   */\n      add\n        /* \"#utility.yul\":17880:17906   */\n      swap1\n      pop\n        /* \"#utility.yul\":17952:17961   */\n      dup2\n        /* \"#utility.yul\":17946:17950   */\n      dup2\n        /* \"#utility.yul\":17942:17962   */\n      sub\n        /* \"#utility.yul\":17938:17939   */\n      0x00\n        /* \"#utility.yul\":17927:17936   */\n      dup4\n        /* \"#utility.yul\":17923:17940   */\n      add\n        /* \"#utility.yul\":17916:17963   */\n      mstore\n        /* \"#utility.yul\":17980:18111   */\n      tag_419\n        /* \"#utility.yul\":18106:18110   */\n      dup2\n        /* \"#utility.yul\":17980:18111   */\n      tag_274\n      jump\t// in\n    tag_419:\n        /* \"#utility.yul\":17972:18111   */\n      swap1\n      pop\n        /* \"#utility.yul\":17699:18118   */\n      swap2\n      swap1\n      pop\n      jump\t// out\n        /* \"#utility.yul\":18124:18286   */\n    tag_275:\n        /* \"#utility.yul\":18264:18278   */\n      0x526566756e642066697273740000000000000000000000000000000000000000\n        /* \"#utility.yul\":18260:18261   */\n      0x00\n        /* \"#utility.yul\":18252:18258   */\n      dup3\n        /* \"#utility.yul\":18248:18262   */\n      add\n        /* \"#utility.yul\":18241:18279   */\n      mstore\n        /* \"#utility.yul\":18124:18286   */\n      pop\n      jump\t// out\n        /* \"#utility.yul\":18292:18658   */\n    tag_276:\n        /* \"#utility.yul\":18434:18437   */\n      0x00\n        /* \"#utility.yul\":18455:18522   */\n      tag_422\n        /* \"#utility.yul\":18519:18521   */\n      0x0c\n        /* \"#utility.yul\":18514:18517   */\n      dup4\n        /* \"#utility.yul\":18455:18522   */\n      tag_251\n      jump\t// in\n    tag_422:\n        /* \"#utility.yul\":18448:18522   */\n      swap2\n      pop\n        /* \"#utility.yul\":18531:18624   */\n      tag_423\n        /* \"#utility.yul\":18620:18623   */\n      dup3\n        /* \"#utility.yul\":18531:18624   */\n      tag_275\n      jump\t// in\n    tag_423:\n        /* \"#utility.yul\":18649:18651   */\n      0x20\n        /* \"#utility.yul\":18644:18647   */\n      dup3\n        /* \"#utility.yul\":18640:18652   */\n      add\n        /* \"#utility.yul\":18633:18652   */\n      swap1\n      pop\n        /* \"#utility.yul\":18292:18658   */\n      swap2\n      swap1\n      pop\n      jump\t// out\n        /* \"#utility.yul\":18664:19083   */\n    tag_174:\n        /* \"#utility.yul\":18830:18834   */\n      0x00\n        /* \"#utility.yul\":18868:18870   */\n      0x20\n        /* \"#utility.yul\":18857:18866   */\n      dup3\n        /* \"#utility.yul\":18853:18871   */\n      add\n        /* \"#utility.yul\":18845:18871   */\n      swap1\n      pop\n        /* \"#utility.yul\":18917:18926   */\n      dup2\n        /* \"#utility.yul\":18911:18915   */\n      dup2\n        /* \"#utility.yul\":18907:18927   */\n      sub\n        /* \"#utility.yul\":18903:18904   */\n      0x00\n        /* \"#utility.yul\":18892:18901   */\n      dup4\n        /* \"#utility.yul\":18888:18905   */\n      add\n        /* \"#utility.yul\":18881:18928   */\n      mstore\n        /* \"#utility.yul\":18945:19076   */\n      tag_425\n        /* \"#utility.yul\":19071:19075   */\n      dup2\n        /* \"#utility.yul\":18945:19076   */\n      tag_276\n      jump\t// in\n    tag_425:\n        /* \"#utility.yul\":18937:19076   */\n      swap1\n      pop\n        /* \"#utility.yul\":18664:19083   */\n      swap2\n      swap1\n      pop\n      jump\t// out\n        /* \"#utility.yul\":19089:19252   */\n    tag_277:\n        /* \"#utility.yul\":19229:19244   */\n      0x5769746864726177206661696c00000000000000000000000000000000000000\n        /* \"#utility.yul\":19225:19226   */\n      0x00\n        /* \"#utility.yul\":19217:19223   */\n      dup3\n        /* \"#utility.yul\":19213:19227   */\n      add\n        /* \"#utility.yul\":19206:19245   */\n      mstore\n        /* \"#utility.yul\":19089:19252   */\n      pop\n      jump\t// out\n        /* \"#utility.yul\":19258:19624   */\n    tag_278:\n        /* \"#utility.yul\":19400:19403   */\n      0x00\n        /* \"#utility.yul\":19421:19488   */\n      tag_428\n        /* \"#utility.yul\":19485:19487   */\n      0x0d\n        /* \"#utility.yul\":19480:19483   */\n      dup4\n        /* \"#utility.yul\":19421:19488   */\n      tag_251\n      jump\t// in\n    tag_428:\n        /* \"#utility.yul\":19414:19488   */\n      swap2\n      pop\n        /* \"#utility.yul\":19497:19590   */\n      tag_429\n        /* \"#utility.yul\":19586:19589   */\n      dup3\n        /* \"#utility.yul\":19497:19590   */\n      tag_277\n      jump\t// in\n    tag_429:\n        /* \"#utility.yul\":19615:19617   */\n      0x20\n        /* \"#utility.yul\":19610:19613   */\n      dup3\n        /* \"#utility.yul\":19606:19618   */\n      add\n        /* \"#utility.yul\":19599:19618   */\n      swap1\n      pop\n        /* \"#utility.yul\":19258:19624   */\n      swap2\n      swap1\n      pop\n      jump\t// out\n        /* \"#utility.yul\":19630:20049   */\n    tag_181:\n        /* \"#utility.yul\":19796:19800   */\n      0x00\n        /* \"#utility.yul\":19834:19836   */\n      0x20\n        /* \"#utility.yul\":19823:19832   */\n      dup3\n        /* \"#utility.yul\":19819:19837   */\n      add\n        /* \"#utility.yul\":19811:19837   */\n      swap1\n      pop\n        /* \"#utility.yul\":19883:19892   */\n      dup2\n        /* \"#utility.yul\":19877:19881   */\n      dup2\n        /* \"#utility.yul\":19873:19893   */\n      sub\n        /* \"#utility.yul\":19869:19870   */\n      0x00\n        /* \"#utility.yul\":19858:19867   */\n      dup4\n        /* \"#utility.yul\":19854:19871   */\n      add\n        /* \"#utility.yul\":19847:19894   */\n      mstore\n        /* \"#utility.yul\":19911:20042   */\n      tag_431\n        /* \"#utility.yul\":20037:20041   */\n      dup2\n        /* \"#utility.yul\":19911:20042   */\n      tag_278\n      jump\t// in\n    tag_431:\n        /* \"#utility.yul\":19903:20042   */\n      swap1\n      pop\n        /* \"#utility.yul\":19630:20049   */\n      swap2\n      swap1\n      pop\n      jump\t// out\n        /* \"#utility.yul\":20055:20235   */\n    tag_188:\n        /* \"#utility.yul\":20103:20180   */\n      0x4e487b7100000000000000000000000000000000000000000000000000000000\n        /* \"#utility.yul\":20100:20101   */\n      0x00\n        /* \"#utility.yul\":20093:20181   */\n      mstore\n        /* \"#utility.yul\":20200:20204   */\n      0x41\n        /* \"#utility.yul\":20197:20198   */\n      0x04\n        /* \"#utility.yul\":20190:20205   */\n      mstore\n        /* \"#utility.yul\":20224:20228   */\n      0x24\n        /* \"#utility.yul\":20221:20222   */\n      0x00\n        /* \"#utility.yul\":20214:20229   */\n      revert\n        /* \"#utility.yul\":20241:20416   */\n    tag_279:\n        /* \"#utility.yul\":20381:20408   */\n      0x4e6f2070656e64696e6720776974686472617720666f756e6400000000000000\n        /* \"#utility.yul\":20377:20378   */\n      0x00\n        /* \"#utility.yul\":20369:20375   */\n      dup3\n        /* \"#utility.yul\":20365:20379   */\n      add\n        /* \"#utility.yul\":20358:20409   */\n      mstore\n        /* \"#utility.yul\":20241:20416   */\n      pop\n      jump\t// out\n        /* \"#utility.yul\":20422:20788   */\n    tag_280:\n        /* \"#utility.yul\":20564:20567   */\n      0x00\n        /* \"#utility.yul\":20585:20652   */\n      tag_435\n        /* \"#utility.yul\":20649:20651   */\n      0x19\n        /* \"#utility.yul\":20644:20647   */\n      dup4\n        /* \"#utility.yul\":20585:20652   */\n      tag_251\n      jump\t// in\n    tag_435:\n        /* \"#utility.yul\":20578:20652   */\n      swap2\n      pop\n        /* \"#utility.yul\":20661:20754   */\n      tag_436\n        /* \"#utility.yul\":20750:20753   */\n      dup3\n        /* \"#utility.yul\":20661:20754   */\n      tag_279\n      jump\t// in\n    tag_436:\n        /* \"#utility.yul\":20779:20781   */\n      0x20\n        /* \"#utility.yul\":20774:20777   */\n      dup3\n        /* \"#utility.yul\":20770:20782   */\n      add\n        /* \"#utility.yul\":20763:20782   */\n      swap1\n      pop\n        /* \"#utility.yul\":20422:20788   */\n      swap2\n      swap1\n      pop\n      jump\t// out\n        /* \"#utility.yul\":20794:21213   */\n    tag_225:\n        /* \"#utility.yul\":20960:20964   */\n      0x00\n        /* \"#utility.yul\":20998:21000   */\n      0x20\n        /* \"#utility.yul\":20987:20996   */\n      dup3\n        /* \"#utility.yul\":20983:21001   */\n      add\n        /* \"#utility.yul\":20975:21001   */\n      swap1\n      pop\n        /* \"#utility.yul\":21047:21056   */\n      dup2\n        /* \"#utility.yul\":21041:21045   */\n      dup2\n        /* \"#utility.yul\":21037:21057   */\n      sub\n        /* \"#utility.yul\":21033:21034   */\n      0x00\n        /* \"#utility.yul\":21022:21031   */\n      dup4\n        /* \"#utility.yul\":21018:21035   */\n      add\n        /* \"#utility.yul\":21011:21058   */\n      mstore\n        /* \"#utility.yul\":21075:21206   */\n      tag_438\n        /* \"#utility.yul\":21201:21205   */\n      dup2\n        /* \"#utility.yul\":21075:21206   */\n      tag_280\n      jump\t// in\n    tag_438:\n        /* \"#utility.yul\":21067:21206   */\n      swap1\n      pop\n        /* \"#utility.yul\":20794:21213   */\n      swap2\n      swap1\n      pop\n      jump\t// out\n        /* \"#utility.yul\":21219:21382   */\n    tag_281:\n        /* \"#utility.yul\":21359:21374   */\n      0x526566756e64206661696c656400000000000000000000000000000000000000\n        /* \"#utility.yul\":21355:21356   */\n      0x00\n        /* \"#utility.yul\":21347:21353   */\n      dup3\n        /* \"#utility.yul\":21343:21357   */\n      add\n        /* \"#utility.yul\":21336:21375   */\n      mstore\n        /* \"#utility.yul\":21219:21382   */\n      pop\n      jump\t// out\n        /* \"#utility.yul\":21388:21754   */\n    tag_282:\n        /* \"#utility.yul\":21530:21533   */\n      0x00\n        /* \"#utility.yul\":21551:21618   */\n      tag_441\n        /* \"#utility.yul\":21615:21617   */\n      0x0d\n        /* \"#utility.yul\":21610:21613   */\n      dup4\n        /* \"#utility.yul\":21551:21618   */\n      tag_251\n      jump\t// in\n    tag_441:\n        /* \"#utility.yul\":21544:21618   */\n      swap2\n      pop\n        /* \"#utility.yul\":21627:21720   */\n      tag_442\n        /* \"#utility.yul\":21716:21719   */\n      dup3\n        /* \"#utility.yul\":21627:21720   */\n      tag_281\n      jump\t// in\n    tag_442:\n        /* \"#utility.yul\":21745:21747   */\n      0x20\n        /* \"#utility.yul\":21740:21743   */\n      dup3\n        /* \"#utility.yul\":21736:21748   */\n      add\n        /* \"#utility.yul\":21729:21748   */\n      swap1\n      pop\n        /* \"#utility.yul\":21388:21754   */\n      swap2\n      swap1\n      pop\n      jump\t// out\n        /* \"#utility.yul\":21760:22179   */\n    tag_232:\n        /* \"#utility.yul\":21926:21930   */\n      0x00\n        /* \"#utility.yul\":21964:21966   */\n      0x20\n        /* \"#utility.yul\":21953:21962   */\n      dup3\n        /* \"#utility.yul\":21949:21967   */\n      add\n        /* \"#utility.yul\":21941:21967   */\n      swap1\n      pop\n        /* \"#utility.yul\":22013:22022   */\n      dup2\n        /* \"#utility.yul\":22007:22011   */\n      dup2\n        /* \"#utility.yul\":22003:22023   */\n      sub\n        /* \"#utility.yul\":21999:22000   */\n      0x00\n        /* \"#utility.yul\":21988:21997   */\n      dup4\n        /* \"#utility.yul\":21984:22001   */\n      add\n        /* \"#utility.yul\":21977:22024   */\n      mstore\n        /* \"#utility.yul\":22041:22172   */\n      tag_444\n        /* \"#utility.yul\":22167:22171   */\n      dup2\n        /* \"#utility.yul\":22041:22172   */\n      tag_282\n      jump\t// in\n    tag_444:\n        /* \"#utility.yul\":22033:22172   */\n      swap1\n      pop\n        /* \"#utility.yul\":21760:22179   */\n      swap2\n      swap1\n      pop\n      jump\t// out\n\n    auxdata: 0xa2646970667358221220de6d3f3005369da5a0c1145552d35591c48cee74338afe4d1f1ad374624a34d964736f6c634300081e0033\n}\n",
				"bytecode": {
					"linkReferences": {},
					"object": "6101406040525f60065f6101000a81548160ff021916908315150217905550348015610029575f5ffd5b50604051612379380380612379833981810160405281019061004b9190610111565b60015f819055503373ffffffffffffffffffffffffffffffffffffffff1660808173ffffffffffffffffffffffffffffffffffffffff16815250504260a081815250508460c0818152505060c05160a0516100a691906101b5565b600181905550836002600101819055508260e0818152505081610100818152505080610120818152505050505050506101e8565b5f5ffd5b5f819050919050565b6100f0816100de565b81146100fa575f5ffd5b50565b5f8151905061010b816100e7565b92915050565b5f5f5f5f5f60a0868803121561012a576101296100da565b5b5f610137888289016100fd565b9550506020610148888289016100fd565b9450506040610159888289016100fd565b935050606061016a888289016100fd565b925050608061017b888289016100fd565b9150509295509295909350565b7f4e487b71000000000000000000000000000000000000000000000000000000005f52601160045260245ffd5b5f6101bf826100de565b91506101ca836100de565b92508282019050808211156101e2576101e1610188565b5b92915050565b60805160a05160c05160e05161010051610120516121126102675f395f8181610b4a01528181610c12015261107d01525f818161080a0152818161083f01526108c901525f81816103a40152610e1c01525f61030801525f6110a101525f81816108f301528181610e8401528181610fac01526110c501526121125ff3fe6080604052600436106100e7575f3560e01c80635fd8c71011610089578063b81c78ec11610058578063b81c78ec14610272578063c7e284b81461029c578063ceb98f6e146102c6578063f90ca117146102f0576100e7565b80635fd8c710146101de578063658612e9146101f457806378e979251461021e5780638da5cb5b14610248576100e7565b80632d5537b0116100c55780632d5537b01461014a5780633197cbb61461017457806338e771ab1461019e578063430efe6f146101b4576100e7565b80630fb5a6b4146100eb57806311631d06146101155780631998aeef14610140575b5f5ffd5b3480156100f6575f5ffd5b506100ff610306565b60405161010c9190611701565b60405180910390f35b348015610120575f5ffd5b5061012961032a565b604051610137929190611759565b60405180910390f35b61014861035a565b005b348015610155575f5ffd5b5061015e6108c7565b60405161016b9190611701565b60405180910390f35b34801561017f575f5ffd5b506101886108eb565b6040516101959190611701565b60405180910390f35b3480156101a9575f5ffd5b506101b26108f1565b005b3480156101bf575f5ffd5b506101c8610e1a565b6040516101d59190611701565b60405180910390f35b3480156101e9575f5ffd5b506101f2610e3e565b005b3480156101ff575f5ffd5b5061020861107b565b6040516102159190611701565b60405180910390f35b348015610229575f5ffd5b5061023261109f565b60405161023f9190611701565b60405180910390f35b348015610253575f5ffd5b5061025c6110c3565b6040516102699190611780565b60405180910390f35b34801561027d575f5ffd5b506102866110e7565b60405161029391906118b9565b60405180910390f35b3480156102a7575f5ffd5b506102b06112cf565b6040516102bd9190611701565b60405180910390f35b3480156102d1575f5ffd5b506102da6112f6565b6040516102e79190611906565b60405180910390f35b3480156102fb575f5ffd5b506103046113f9565b005b7f000000000000000000000000000000000000000000000000000000000000000081565b6002805f015f9054906101000a900473ffffffffffffffffffffffffffffffffffffffff16908060010154905082565b60015442111561039f576040517f08c379a000000000000000000000000000000000000000000000000000000000815260040161039690611979565b60405180910390fd5b6064807f00000000000000000000000000000000000000000000000000000000000000006103cd91906119c4565b6002600101546103dd91906119f7565b6103e79190611a65565b341015610429576040517f08c379a000000000000000000000000000000000000000000000000000000000815260040161042090611b05565b60405180910390fd5b60025f015f9054906101000a900473ffffffffffffffffffffffffffffffffffffffff1673ffffffffffffffffffffffffffffffffffffffff163373ffffffffffffffffffffffffffffffffffffffff16036104ba576040517f08c379a00000000000000000000000000000000000000000000000000000000081526004016104b190611b6d565b60405180910390fd5b5f73ffffffffffffffffffffffffffffffffffffffff1660025f015f9054906101000a900473ffffffffffffffffffffffffffffffffffffffff1673ffffffffffffffffffffffffffffffffffffffff16146105a0575f60045f60025f015f9054906101000a900473ffffffffffffffffffffffffffffffffffffffff1673ffffffffffffffffffffffffffffffffffffffff1673ffffffffffffffffffffffffffffffffffffffff1681526020019081526020015f209050805f0160010154816002015f82825461058c91906119c4565b925050819055505f815f0160010181905550505b5f60045f3373ffffffffffffffffffffffffffffffffffffffff1673ffffffffffffffffffffffffffffffffffffffff1681526020019081526020015f2090505f73ffffffffffffffffffffffffffffffffffffffff16815f015f015f9054906101000a900473ffffffffffffffffffffffffffffffffffffffff1673ffffffffffffffffffffffffffffffffffffffff160361069c57600533908060018154018082558091505060019003905f5260205f20015f9091909190916101000a81548173ffffffffffffffffffffffffffffffffffffffff021916908373ffffffffffffffffffffffffffffffffffffffff1602179055506106bd565b805f0160010154816002015f8282546106b591906119c4565b925050819055505b60405180604001604052803373ffffffffffffffffffffffffffffffffffffffff16815260200134815250815f015f820151815f015f6101000a81548173ffffffffffffffffffffffffffffffffffffffff021916908373ffffffffffffffffffffffffffffffffffffffff1602179055506020820151816001015590505060405180604001604052803373ffffffffffffffffffffffffffffffffffffffff1681526020013481525060025f820151815f015f6101000a81548173ffffffffffffffffffffffffffffffffffffffff021916908373ffffffffffffffffffffffffffffffffffffffff160217905550602082015181600101559050503373ffffffffffffffffffffffffffffffffffffffff167fdd0b6c6a77960e2066c96171b4d7ac9e8b4c184011f38544afa36a5bb63ec59f346040516108009190611701565b60405180910390a27f00000000000000000000000000000000000000000000000000000000000000006001546108369190611b8b565b4211156108c4577f000000000000000000000000000000000000000000000000000000000000000060015461086b91906119c4565b6001819055503373ffffffffffffffffffffffffffffffffffffffff167fbf5210f11796c8ce8b1d67add316e5a734c26896acce48ba93993f580af205ff600154346040516108bb929190611bbe565b60405180910390a25b50565b7f000000000000000000000000000000000000000000000000000000000000000081565b60015481565b7f000000000000000000000000000000000000000000000000000000000000000073ffffffffffffffffffffffffffffffffffffffff163373ffffffffffffffffffffffffffffffffffffffff161461097f576040517f08c379a000000000000000000000000000000000000000000000000000000000815260040161097690611c55565b60405180910390fd5b60015442116109c3576040517f08c379a00000000000000000000000000000000000000000000000000000000081526004016109ba90611cbd565b60405180910390fd5b60065f9054906101000a900460ff1615610a12576040517f08c379a0000000000000000000000000000000000000000000000000000000008152600401610a0990611d4b565b60405180910390fd5b5f60058054905003610a59576040517f08c379a0000000000000000000000000000000000000000000000000000000008152600401610a5090611db3565b60405180910390fd5b60025f5403610a9d576040517f08c379a0000000000000000000000000000000000000000000000000000000008152600401610a9490611e1b565b60405180910390fd5b60025f819055505f60058054905090505f5b81811015610d7f575f60058281548110610acc57610acb611e39565b5b905f5260205f20015f9054906101000a900473ffffffffffffffffffffffffffffffffffffffff1690505f60045f8373ffffffffffffffffffffffffffffffffffffffff1673ffffffffffffffffffffffffffffffffffffffff1681526020019081526020015f2090505f5f90505f82600201541115610ba55760647f00000000000000000000000000000000000000000000000000000000000000006064610b759190611b8b565b8360020154610b8491906119f7565b610b8e9190611a65565b81610b9991906119c4565b90505f82600201819055505b60025f015f9054906101000a900473ffffffffffffffffffffffffffffffffffffffff1673ffffffffffffffffffffffffffffffffffffffff168373ffffffffffffffffffffffffffffffffffffffff1614158015610c0957505f825f0160010154115b15610c715760647f00000000000000000000000000000000000000000000000000000000000000006064610c3d9190611b8b565b835f0160010154610c4e91906119f7565b610c589190611a65565b81610c6391906119c4565b90505f825f01600101819055505b5f811115610d71575f8373ffffffffffffffffffffffffffffffffffffffff1682604051610c9e90611e93565b5f6040518083038185875af1925050503d805f8114610cd8576040519150601f19603f3d011682016040523d82523d5f602084013e610cdd565b606091505b5050905080610d21576040517f08c379a0000000000000000000000000000000000000000000000000000000008152600401610d1890611ef1565b60405180910390fd5b8373ffffffffffffffffffffffffffffffffffffffff167fbb28353e4598c3b9199101a66e0989549b659a59a54d2c27fbb183f1932c8e6d83604051610d679190611701565b60405180910390a2505b836001019350505050610aaf565b50600160065f6101000a81548160ff02191690831515021790555060025f015f9054906101000a900473ffffffffffffffffffffffffffffffffffffffff1673ffffffffffffffffffffffffffffffffffffffff167f8b1ad6c69d3d79a05f5b1ec0de825e9bf67c6c70b8c25babd159976cf9990dff600260010154604051610e089190611701565b60405180910390a25060015f81905550565b7f000000000000000000000000000000000000000000000000000000000000000081565b6001544211610e82576040517f08c379a0000000000000000000000000000000000000000000000000000000008152600401610e7990611cbd565b60405180910390fd5b7f000000000000000000000000000000000000000000000000000000000000000073ffffffffffffffffffffffffffffffffffffffff163373ffffffffffffffffffffffffffffffffffffffff1614610f10576040517f08c379a0000000000000000000000000000000000000000000000000000000008152600401610f0790611c55565b60405180910390fd5b60025f5403610f54576040517f08c379a0000000000000000000000000000000000000000000000000000000008152600401610f4b90611e1b565b60405180910390fd5b60025f8190555060065f9054906101000a900460ff16610fa9576040517f08c379a0000000000000000000000000000000000000000000000000000000008152600401610fa090611f59565b60405180910390fd5b5f7f000000000000000000000000000000000000000000000000000000000000000073ffffffffffffffffffffffffffffffffffffffff1647604051610fee90611e93565b5f6040518083038185875af1925050503d805f8114611028576040519150601f19603f3d011682016040523d82523d5f602084013e61102d565b606091505b5050905080611071576040517f08c379a000000000000000000000000000000000000000000000000000000000815260040161106890611fc1565b60405180910390fd5b5060015f81905550565b7f000000000000000000000000000000000000000000000000000000000000000081565b7f000000000000000000000000000000000000000000000000000000000000000081565b7f000000000000000000000000000000000000000000000000000000000000000081565b60605f60058054905003611130576040517f08c379a000000000000000000000000000000000000000000000000000000000815260040161112790611db3565b60405180910390fd5b5f60058054905090505f8167ffffffffffffffff81111561115457611153611fdf565b5b60405190808252806020026020018201604052801561118d57816020015b61117a61169c565b8152602001906001900390816111725790505b5090505f5f90505b828110156112c65760045f600583815481106111b4576111b3611e39565b5b905f5260205f20015f9054906101000a900473ffffffffffffffffffffffffffffffffffffffff1673ffffffffffffffffffffffffffffffffffffffff1673ffffffffffffffffffffffffffffffffffffffff1681526020019081526020015f206040518060400160405290815f82016040518060400160405290815f82015f9054906101000a900473ffffffffffffffffffffffffffffffffffffffff1673ffffffffffffffffffffffffffffffffffffffff1673ffffffffffffffffffffffffffffffffffffffff16815260200160018201548152505081526020016002820154815250508282815181106112ae576112ad611e39565b5b60200260200101819052508080600101915050611195565b50809250505090565b5f6001544211156112e2575f90506112f3565b426001546112f09190611b8b565b90505b90565b6112fe6116bb565b5f60058054905003611345576040517f08c379a000000000000000000000000000000000000000000000000000000000815260040161133c90611db3565b60405180910390fd5b6001544211611389576040517f08c379a000000000000000000000000000000000000000000000000000000000815260040161138090611cbd565b60405180910390fd5b60026040518060400160405290815f82015f9054906101000a900473ffffffffffffffffffffffffffffffffffffffff1673ffffffffffffffffffffffffffffffffffffffff1673ffffffffffffffffffffffffffffffffffffffff168152602001600182015481525050905090565b60015442111561143e576040517f08c379a000000000000000000000000000000000000000000000000000000000815260040161143590611979565b60405180910390fd5b5f60058054905003611485576040517f08c379a000000000000000000000000000000000000000000000000000000000815260040161147c90611db3565b60405180910390fd5b60025f54036114c9576040517f08c379a00000000000000000000000000000000000000000000000000000000081526004016114c090611e1b565b60405180910390fd5b60025f819055505f60045f3373ffffffffffffffffffffffffffffffffffffffff1673ffffffffffffffffffffffffffffffffffffffff1681526020019081526020015f206002015490505f8111611556576040517f08c379a000000000000000000000000000000000000000000000000000000000815260040161154d90612056565b60405180910390fd5b5f60045f3373ffffffffffffffffffffffffffffffffffffffff1673ffffffffffffffffffffffffffffffffffffffff1681526020019081526020015f20600201819055505f3373ffffffffffffffffffffffffffffffffffffffff16826040516115c090611e93565b5f6040518083038185875af1925050503d805f81146115fa576040519150601f19603f3d011682016040523d82523d5f602084013e6115ff565b606091505b5050905080611643576040517f08c379a000000000000000000000000000000000000000000000000000000000815260040161163a906120be565b60405180910390fd5b3373ffffffffffffffffffffffffffffffffffffffff167fd84fcbac5440aedda6d2b5f149aa3182c87252eef5bab6f061cfe022a3e166ef836040516116899190611701565b60405180910390a2505060015f81905550565b60405180604001604052806116af6116bb565b81526020015f81525090565b60405180604001604052805f73ffffffffffffffffffffffffffffffffffffffff1681526020015f81525090565b5f819050919050565b6116fb816116e9565b82525050565b5f6020820190506117145f8301846116f2565b92915050565b5f73ffffffffffffffffffffffffffffffffffffffff82169050919050565b5f6117438261171a565b9050919050565b61175381611739565b82525050565b5f60408201905061176c5f83018561174a565b61177960208301846116f2565b9392505050565b5f6020820190506117935f83018461174a565b92915050565b5f81519050919050565b5f82825260208201905092915050565b5f819050602082019050919050565b6117cb81611739565b82525050565b6117da816116e9565b82525050565b604082015f8201516117f45f8501826117c2565b50602082015161180760208501826117d1565b50505050565b606082015f8201516118215f8501826117e0565b50602082015161183460408501826117d1565b50505050565b5f611845838361180d565b60608301905092915050565b5f602082019050919050565b5f61186782611799565b61187181856117a3565b935061187c836117b3565b805f5b838110156118ac578151611893888261183a565b975061189e83611851565b92505060018101905061187f565b5085935050505092915050565b5f6020820190508181035f8301526118d1818461185d565b905092915050565b604082015f8201516118ed5f8501826117c2565b50602082015161190060208501826117d1565b50505050565b5f6040820190506119195f8301846118d9565b92915050565b5f82825260208201905092915050565b7f41756374696f6e206861732065787069726564000000000000000000000000005f82015250565b5f61196360138361191f565b915061196e8261192f565b602082019050919050565b5f6020820190508181035f83015261199081611957565b9050919050565b7f4e487b71000000000000000000000000000000000000000000000000000000005f52601160045260245ffd5b5f6119ce826116e9565b91506119d9836116e9565b92508282019050808211156119f1576119f0611997565b5b92915050565b5f611a01826116e9565b9150611a0c836116e9565b9250828202611a1a816116e9565b91508282048414831517611a3157611a30611997565b5b5092915050565b7f4e487b71000000000000000000000000000000000000000000000000000000005f52601260045260245ffd5b5f611a6f826116e9565b9150611a7a836116e9565b925082611a8a57611a89611a38565b5b828204905092915050565b7f426964206d757374206265206174206c656173742035252067726561746572205f8201527f7468616e2063757272656e742068696768657374206269640000000000000000602082015250565b5f611aef60388361191f565b9150611afa82611a95565b604082019050919050565b5f6020820190508181035f830152611b1c81611ae3565b9050919050565b7f596f7520616c72656164792068617665207468652068696768657374206269645f82015250565b5f611b5760208361191f565b9150611b6282611b23565b602082019050919050565b5f6020820190508181035f830152611b8481611b4b565b9050919050565b5f611b95826116e9565b9150611ba0836116e9565b9250828203905081811115611bb857611bb7611997565b5b92915050565b5f604082019050611bd15f8301856116f2565b611bde60208301846116f2565b9392505050565b7f4f6e6c79206f776e65722063616e20706572666f726d207468697320616374695f8201527f6f6e000000000000000000000000000000000000000000000000000000000000602082015250565b5f611c3f60228361191f565b9150611c4a82611be5565b604082019050919050565b5f6020820190508181035f830152611c6c81611c33565b9050919050565b7f41756374696f6e206973206e6f742066696e69736865640000000000000000005f82015250565b5f611ca760178361191f565b9150611cb282611c73565b602082019050919050565b5f6020820190508181035f830152611cd481611c9b565b9050919050565b7f42696464657273206861766520616c7265616479206265656e20726566756e645f8201527f6564000000000000000000000000000000000000000000000000000000000000602082015250565b5f611d3560228361191f565b9150611d4082611cdb565b604082019050919050565b5f6020820190508181035f830152611d6281611d29565b9050919050565b7f546865726520617265206e6f20626964732079657400000000000000000000005f82015250565b5f611d9d60158361191f565b9150611da882611d69565b602082019050919050565b5f6020820190508181035f830152611dca81611d91565b9050919050565b7f5265656e7472616e637947756172643a207265656e7472616e742063616c6c005f82015250565b5f611e05601f8361191f565b9150611e1082611dd1565b602082019050919050565b5f6020820190508181035f830152611e3281611df9565b9050919050565b7f4e487b71000000000000000000000000000000000000000000000000000000005f52603260045260245ffd5b5f81905092915050565b50565b5f611e7e5f83611e66565b9150611e8982611e70565b5f82019050919050565b5f611e9d82611e73565b9150819050919050565b7f726566756e64206661696c0000000000000000000000000000000000000000005f82015250565b5f611edb600b8361191f565b9150611ee682611ea7565b602082019050919050565b5f6020820190508181035f830152611f0881611ecf565b9050919050565b7f526566756e6420666972737400000000000000000000000000000000000000005f82015250565b5f611f43600c8361191f565b9150611f4e82611f0f565b602082019050919050565b5f6020820190508181035f830152611f7081611f37565b9050919050565b7f5769746864726177206661696c000000000000000000000000000000000000005f82015250565b5f611fab600d8361191f565b9150611fb682611f77565b602082019050919050565b5f6020820190508181035f830152611fd881611f9f565b9050919050565b7f4e487b71000000000000000000000000000000000000000000000000000000005f52604160045260245ffd5b7f4e6f2070656e64696e6720776974686472617720666f756e64000000000000005f82015250565b5f61204060198361191f565b915061204b8261200c565b602082019050919050565b5f6020820190508181035f83015261206d81612034565b9050919050565b7f526566756e64206661696c6564000000000000000000000000000000000000005f82015250565b5f6120a8600d8361191f565b91506120b382612074565b602082019050919050565b5f6020820190508181035f8301526120d58161209c565b905091905056fea2646970667358221220de6d3f3005369da5a0c1145552d35591c48cee74338afe4d1f1ad374624a34d964736f6c634300081e0033",
					"opcodes": "PUSH2 0x140 PUSH1 0x40 MSTORE PUSH0 PUSH1 0x6 PUSH0 PUSH2 0x100 EXP DUP2 SLOAD DUP2 PUSH1 0xFF MUL NOT AND SWAP1 DUP4 ISZERO ISZERO MUL OR SWAP1 SSTORE POP CALLVALUE DUP1 ISZERO PUSH2 0x29 JUMPI PUSH0 PUSH0 REVERT JUMPDEST POP PUSH1 0x40 MLOAD PUSH2 0x2379 CODESIZE SUB DUP1 PUSH2 0x2379 DUP4 CODECOPY DUP2 DUP2 ADD PUSH1 0x40 MSTORE DUP2 ADD SWAP1 PUSH2 0x4B SWAP2 SWAP1 PUSH2 0x111 JUMP JUMPDEST PUSH1 0x1 PUSH0 DUP2 SWAP1 SSTORE POP CALLER PUSH20 0xFFFFFFFFFFFFFFFFFFFFFFFFFFFFFFFFFFFFFFFF AND PUSH1 0x80 DUP2 PUSH20 0xFFFFFFFFFFFFFFFFFFFFFFFFFFFFFFFFFFFFFFFF AND DUP2 MSTORE POP POP TIMESTAMP PUSH1 0xA0 DUP2 DUP2 MSTORE POP POP DUP5 PUSH1 0xC0 DUP2 DUP2 MSTORE POP POP PUSH1 0xC0 MLOAD PUSH1 0xA0 MLOAD PUSH2 0xA6 SWAP2 SWAP1 PUSH2 0x1B5 JUMP JUMPDEST PUSH1 0x1 DUP2 SWAP1 SSTORE POP DUP4 PUSH1 0x2 PUSH1 0x1 ADD DUP2 SWAP1 SSTORE POP DUP3 PUSH1 0xE0 DUP2 DUP2 MSTORE POP POP DUP2 PUSH2 0x100 DUP2 DUP2 MSTORE POP POP DUP1 PUSH2 0x120 DUP2 DUP2 MSTORE POP POP POP POP POP POP POP PUSH2 0x1E8 JUMP JUMPDEST PUSH0 PUSH0 REVERT JUMPDEST PUSH0 DUP2 SWAP1 POP SWAP2 SWAP1 POP JUMP JUMPDEST PUSH2 0xF0 DUP2 PUSH2 0xDE JUMP JUMPDEST DUP2 EQ PUSH2 0xFA JUMPI PUSH0 PUSH0 REVERT JUMPDEST POP JUMP JUMPDEST PUSH0 DUP2 MLOAD SWAP1 POP PUSH2 0x10B DUP2 PUSH2 0xE7 JUMP JUMPDEST SWAP3 SWAP2 POP POP JUMP JUMPDEST PUSH0 PUSH0 PUSH0 PUSH0 PUSH0 PUSH1 0xA0 DUP7 DUP9 SUB SLT ISZERO PUSH2 0x12A JUMPI PUSH2 0x129 PUSH2 0xDA JUMP JUMPDEST JUMPDEST PUSH0 PUSH2 0x137 DUP9 DUP3 DUP10 ADD PUSH2 0xFD JUMP JUMPDEST SWAP6 POP POP PUSH1 0x20 PUSH2 0x148 DUP9 DUP3 DUP10 ADD PUSH2 0xFD JUMP JUMPDEST SWAP5 POP POP PUSH1 0x40 PUSH2 0x159 DUP9 DUP3 DUP10 ADD PUSH2 0xFD JUMP JUMPDEST SWAP4 POP POP PUSH1 0x60 PUSH2 0x16A DUP9 DUP3 DUP10 ADD PUSH2 0xFD JUMP JUMPDEST SWAP3 POP POP PUSH1 0x80 PUSH2 0x17B DUP9 DUP3 DUP10 ADD PUSH2 0xFD JUMP JUMPDEST SWAP2 POP POP SWAP3 SWAP6 POP SWAP3 SWAP6 SWAP1 SWAP4 POP JUMP JUMPDEST PUSH32 0x4E487B7100000000000000000000000000000000000000000000000000000000 PUSH0 MSTORE PUSH1 0x11 PUSH1 0x4 MSTORE PUSH1 0x24 PUSH0 REVERT JUMPDEST PUSH0 PUSH2 0x1BF DUP3 PUSH2 0xDE JUMP JUMPDEST SWAP2 POP PUSH2 0x1CA DUP4 PUSH2 0xDE JUMP JUMPDEST SWAP3 POP DUP3 DUP3 ADD SWAP1 POP DUP1 DUP3 GT ISZERO PUSH2 0x1E2 JUMPI PUSH2 0x1E1 PUSH2 0x188 JUMP JUMPDEST JUMPDEST SWAP3 SWAP2 POP POP JUMP JUMPDEST PUSH1 0x80 MLOAD PUSH1 0xA0 MLOAD PUSH1 0xC0 MLOAD PUSH1 0xE0 MLOAD PUSH2 0x100 MLOAD PUSH2 0x120 MLOAD PUSH2 0x2112 PUSH2 0x267 PUSH0 CODECOPY PUSH0 DUP2 DUP2 PUSH2 0xB4A ADD MSTORE DUP2 DUP2 PUSH2 0xC12 ADD MSTORE PUSH2 0x107D ADD MSTORE PUSH0 DUP2 DUP2 PUSH2 0x80A ADD MSTORE DUP2 DUP2 PUSH2 0x83F ADD MSTORE PUSH2 0x8C9 ADD MSTORE PUSH0 DUP2 DUP2 PUSH2 0x3A4 ADD MSTORE PUSH2 0xE1C ADD MSTORE PUSH0 PUSH2 0x308 ADD MSTORE PUSH0 PUSH2 0x10A1 ADD MSTORE PUSH0 DUP2 DUP2 PUSH2 0x8F3 ADD MSTORE DUP2 DUP2 PUSH2 0xE84 ADD MSTORE DUP2 DUP2 PUSH2 0xFAC ADD MSTORE PUSH2 0x10C5 ADD MSTORE PUSH2 0x2112 PUSH0 RETURN INVALID PUSH1 0x80 PUSH1 0x40 MSTORE PUSH1 0x4 CALLDATASIZE LT PUSH2 0xE7 JUMPI PUSH0 CALLDATALOAD PUSH1 0xE0 SHR DUP1 PUSH4 0x5FD8C710 GT PUSH2 0x89 JUMPI DUP1 PUSH4 0xB81C78EC GT PUSH2 0x58 JUMPI DUP1 PUSH4 0xB81C78EC EQ PUSH2 0x272 JUMPI DUP1 PUSH4 0xC7E284B8 EQ PUSH2 0x29C JUMPI DUP1 PUSH4 0xCEB98F6E EQ PUSH2 0x2C6 JUMPI DUP1 PUSH4 0xF90CA117 EQ PUSH2 0x2F0 JUMPI PUSH2 0xE7 JUMP JUMPDEST DUP1 PUSH4 0x5FD8C710 EQ PUSH2 0x1DE JUMPI DUP1 PUSH4 0x658612E9 EQ PUSH2 0x1F4 JUMPI DUP1 PUSH4 0x78E97925 EQ PUSH2 0x21E JUMPI DUP1 PUSH4 0x8DA5CB5B EQ PUSH2 0x248 JUMPI PUSH2 0xE7 JUMP JUMPDEST DUP1 PUSH4 0x2D5537B0 GT PUSH2 0xC5 JUMPI DUP1 PUSH4 0x2D5537B0 EQ PUSH2 0x14A JUMPI DUP1 PUSH4 0x3197CBB6 EQ PUSH2 0x174 JUMPI DUP1 PUSH4 0x38E771AB EQ PUSH2 0x19E JUMPI DUP1 PUSH4 0x430EFE6F EQ PUSH2 0x1B4 JUMPI PUSH2 0xE7 JUMP JUMPDEST DUP1 PUSH4 0xFB5A6B4 EQ PUSH2 0xEB JUMPI DUP1 PUSH4 0x11631D06 EQ PUSH2 0x115 JUMPI DUP1 PUSH4 0x1998AEEF EQ PUSH2 0x140 JUMPI JUMPDEST PUSH0 PUSH0 REVERT JUMPDEST CALLVALUE DUP1 ISZERO PUSH2 0xF6 JUMPI PUSH0 PUSH0 REVERT JUMPDEST POP PUSH2 0xFF PUSH2 0x306 JUMP JUMPDEST PUSH1 0x40 MLOAD PUSH2 0x10C SWAP2 SWAP1 PUSH2 0x1701 JUMP JUMPDEST PUSH1 0x40 MLOAD DUP1 SWAP2 SUB SWAP1 RETURN JUMPDEST CALLVALUE DUP1 ISZERO PUSH2 0x120 JUMPI PUSH0 PUSH0 REVERT JUMPDEST POP PUSH2 0x129 PUSH2 0x32A JUMP JUMPDEST PUSH1 0x40 MLOAD PUSH2 0x137 SWAP3 SWAP2 SWAP1 PUSH2 0x1759 JUMP JUMPDEST PUSH1 0x40 MLOAD DUP1 SWAP2 SUB SWAP1 RETURN JUMPDEST PUSH2 0x148 PUSH2 0x35A JUMP JUMPDEST STOP JUMPDEST CALLVALUE DUP1 ISZERO PUSH2 0x155 JUMPI PUSH0 PUSH0 REVERT JUMPDEST POP PUSH2 0x15E PUSH2 0x8C7 JUMP JUMPDEST PUSH1 0x40 MLOAD PUSH2 0x16B SWAP2 SWAP1 PUSH2 0x1701 JUMP JUMPDEST PUSH1 0x40 MLOAD DUP1 SWAP2 SUB SWAP1 RETURN JUMPDEST CALLVALUE DUP1 ISZERO PUSH2 0x17F JUMPI PUSH0 PUSH0 REVERT JUMPDEST POP PUSH2 0x188 PUSH2 0x8EB JUMP JUMPDEST PUSH1 0x40 MLOAD PUSH2 0x195 SWAP2 SWAP1 PUSH2 0x1701 JUMP JUMPDEST PUSH1 0x40 MLOAD DUP1 SWAP2 SUB SWAP1 RETURN JUMPDEST CALLVALUE DUP1 ISZERO PUSH2 0x1A9 JUMPI PUSH0 PUSH0 REVERT JUMPDEST POP PUSH2 0x1B2 PUSH2 0x8F1 JUMP JUMPDEST STOP JUMPDEST CALLVALUE DUP1 ISZERO PUSH2 0x1BF JUMPI PUSH0 PUSH0 REVERT JUMPDEST POP PUSH2 0x1C8 PUSH2 0xE1A JUMP JUMPDEST PUSH1 0x40 MLOAD PUSH2 0x1D5 SWAP2 SWAP1 PUSH2 0x1701 JUMP JUMPDEST PUSH1 0x40 MLOAD DUP1 SWAP2 SUB SWAP1 RETURN JUMPDEST CALLVALUE DUP1 ISZERO PUSH2 0x1E9 JUMPI PUSH0 PUSH0 REVERT JUMPDEST POP PUSH2 0x1F2 PUSH2 0xE3E JUMP JUMPDEST STOP JUMPDEST CALLVALUE DUP1 ISZERO PUSH2 0x1FF JUMPI PUSH0 PUSH0 REVERT JUMPDEST POP PUSH2 0x208 PUSH2 0x107B JUMP JUMPDEST PUSH1 0x40 MLOAD PUSH2 0x215 SWAP2 SWAP1 PUSH2 0x1701 JUMP JUMPDEST PUSH1 0x40 MLOAD DUP1 SWAP2 SUB SWAP1 RETURN JUMPDEST CALLVALUE DUP1 ISZERO PUSH2 0x229 JUMPI PUSH0 PUSH0 REVERT JUMPDEST POP PUSH2 0x232 PUSH2 0x109F JUMP JUMPDEST PUSH1 0x40 MLOAD PUSH2 0x23F SWAP2 SWAP1 PUSH2 0x1701 JUMP JUMPDEST PUSH1 0x40 MLOAD DUP1 SWAP2 SUB SWAP1 RETURN JUMPDEST CALLVALUE DUP1 ISZERO PUSH2 0x253 JUMPI PUSH0 PUSH0 REVERT JUMPDEST POP PUSH2 0x25C PUSH2 0x10C3 JUMP JUMPDEST PUSH1 0x40 MLOAD PUSH2 0x269 SWAP2 SWAP1 PUSH2 0x1780 JUMP JUMPDEST PUSH1 0x40 MLOAD DUP1 SWAP2 SUB SWAP1 RETURN JUMPDEST CALLVALUE DUP1 ISZERO PUSH2 0x27D JUMPI PUSH0 PUSH0 REVERT JUMPDEST POP PUSH2 0x286 PUSH2 0x10E7 JUMP JUMPDEST PUSH1 0x40 MLOAD PUSH2 0x293 SWAP2 SWAP1 PUSH2 0x18B9 JUMP JUMPDEST PUSH1 0x40 MLOAD DUP1 SWAP2 SUB SWAP1 RETURN JUMPDEST CALLVALUE DUP1 ISZERO PUSH2 0x2A7 JUMPI PUSH0 PUSH0 REVERT JUMPDEST POP PUSH2 0x2B0 PUSH2 0x12CF JUMP JUMPDEST PUSH1 0x40 MLOAD PUSH2 0x2BD SWAP2 SWAP1 PUSH2 0x1701 JUMP JUMPDEST PUSH1 0x40 MLOAD DUP1 SWAP2 SUB SWAP1 RETURN JUMPDEST CALLVALUE DUP1 ISZERO PUSH2 0x2D1 JUMPI PUSH0 PUSH0 REVERT JUMPDEST POP PUSH2 0x2DA PUSH2 0x12F6 JUMP JUMPDEST PUSH1 0x40 MLOAD PUSH2 0x2E7 SWAP2 SWAP1 PUSH2 0x1906 JUMP JUMPDEST PUSH1 0x40 MLOAD DUP1 SWAP2 SUB SWAP1 RETURN JUMPDEST CALLVALUE DUP1 ISZERO PUSH2 0x2FB JUMPI PUSH0 PUSH0 REVERT JUMPDEST POP PUSH2 0x304 PUSH2 0x13F9 JUMP JUMPDEST STOP JUMPDEST PUSH32 0x0 DUP2 JUMP JUMPDEST PUSH1 0x2 DUP1 PUSH0 ADD PUSH0 SWAP1 SLOAD SWAP1 PUSH2 0x100 EXP SWAP1 DIV PUSH20 0xFFFFFFFFFFFFFFFFFFFFFFFFFFFFFFFFFFFFFFFF AND SWAP1 DUP1 PUSH1 0x1 ADD SLOAD SWAP1 POP DUP3 JUMP JUMPDEST PUSH1 0x1 SLOAD TIMESTAMP GT ISZERO PUSH2 0x39F JUMPI PUSH1 0x40 MLOAD PUSH32 0x8C379A000000000000000000000000000000000000000000000000000000000 DUP2 MSTORE PUSH1 0x4 ADD PUSH2 0x396 SWAP1 PUSH2 0x1979 JUMP JUMPDEST PUSH1 0x40 MLOAD DUP1 SWAP2 SUB SWAP1 REVERT JUMPDEST PUSH1 0x64 DUP1 PUSH32 0x0 PUSH2 0x3CD SWAP2 SWAP1 PUSH2 0x19C4 JUMP JUMPDEST PUSH1 0x2 PUSH1 0x1 ADD SLOAD PUSH2 0x3DD SWAP2 SWAP1 PUSH2 0x19F7 JUMP JUMPDEST PUSH2 0x3E7 SWAP2 SWAP1 PUSH2 0x1A65 JUMP JUMPDEST CALLVALUE LT ISZERO PUSH2 0x429 JUMPI PUSH1 0x40 MLOAD PUSH32 0x8C379A000000000000000000000000000000000000000000000000000000000 DUP2 MSTORE PUSH1 0x4 ADD PUSH2 0x420 SWAP1 PUSH2 0x1B05 JUMP JUMPDEST PUSH1 0x40 MLOAD DUP1 SWAP2 SUB SWAP1 REVERT JUMPDEST PUSH1 0x2 PUSH0 ADD PUSH0 SWAP1 SLOAD SWAP1 PUSH2 0x100 EXP SWAP1 DIV PUSH20 0xFFFFFFFFFFFFFFFFFFFFFFFFFFFFFFFFFFFFFFFF AND PUSH20 0xFFFFFFFFFFFFFFFFFFFFFFFFFFFFFFFFFFFFFFFF AND CALLER PUSH20 0xFFFFFFFFFFFFFFFFFFFFFFFFFFFFFFFFFFFFFFFF AND SUB PUSH2 0x4BA JUMPI PUSH1 0x40 MLOAD PUSH32 0x8C379A000000000000000000000000000000000000000000000000000000000 DUP2 MSTORE PUSH1 0x4 ADD PUSH2 0x4B1 SWAP1 PUSH2 0x1B6D JUMP JUMPDEST PUSH1 0x40 MLOAD DUP1 SWAP2 SUB SWAP1 REVERT JUMPDEST PUSH0 PUSH20 0xFFFFFFFFFFFFFFFFFFFFFFFFFFFFFFFFFFFFFFFF AND PUSH1 0x2 PUSH0 ADD PUSH0 SWAP1 SLOAD SWAP1 PUSH2 0x100 EXP SWAP1 DIV PUSH20 0xFFFFFFFFFFFFFFFFFFFFFFFFFFFFFFFFFFFFFFFF AND PUSH20 0xFFFFFFFFFFFFFFFFFFFFFFFFFFFFFFFFFFFFFFFF AND EQ PUSH2 0x5A0 JUMPI PUSH0 PUSH1 0x4 PUSH0 PUSH1 0x2 PUSH0 ADD PUSH0 SWAP1 SLOAD SWAP1 PUSH2 0x100 EXP SWAP1 DIV PUSH20 0xFFFFFFFFFFFFFFFFFFFFFFFFFFFFFFFFFFFFFFFF AND PUSH20 0xFFFFFFFFFFFFFFFFFFFFFFFFFFFFFFFFFFFFFFFF AND PUSH20 0xFFFFFFFFFFFFFFFFFFFFFFFFFFFFFFFFFFFFFFFF AND DUP2 MSTORE PUSH1 0x20 ADD SWAP1 DUP2 MSTORE PUSH1 0x20 ADD PUSH0 KECCAK256 SWAP1 POP DUP1 PUSH0 ADD PUSH1 0x1 ADD SLOAD DUP2 PUSH1 0x2 ADD PUSH0 DUP3 DUP3 SLOAD PUSH2 0x58C SWAP2 SWAP1 PUSH2 0x19C4 JUMP JUMPDEST SWAP3 POP POP DUP2 SWAP1 SSTORE POP PUSH0 DUP2 PUSH0 ADD PUSH1 0x1 ADD DUP2 SWAP1 SSTORE POP POP JUMPDEST PUSH0 PUSH1 0x4 PUSH0 CALLER PUSH20 0xFFFFFFFFFFFFFFFFFFFFFFFFFFFFFFFFFFFFFFFF AND PUSH20 0xFFFFFFFFFFFFFFFFFFFFFFFFFFFFFFFFFFFFFFFF AND DUP2 MSTORE PUSH1 0x20 ADD SWAP1 DUP2 MSTORE PUSH1 0x20 ADD PUSH0 KECCAK256 SWAP1 POP PUSH0 PUSH20 0xFFFFFFFFFFFFFFFFFFFFFFFFFFFFFFFFFFFFFFFF AND DUP2 PUSH0 ADD PUSH0 ADD PUSH0 SWAP1 SLOAD SWAP1 PUSH2 0x100 EXP SWAP1 DIV PUSH20 0xFFFFFFFFFFFFFFFFFFFFFFFFFFFFFFFFFFFFFFFF AND PUSH20 0xFFFFFFFFFFFFFFFFFFFFFFFFFFFFFFFFFFFFFFFF AND SUB PUSH2 0x69C JUMPI PUSH1 0x5 CALLER SWAP1 DUP1 PUSH1 0x1 DUP2 SLOAD ADD DUP1 DUP3 SSTORE DUP1 SWAP2 POP POP PUSH1 0x1 SWAP1 SUB SWAP1 PUSH0 MSTORE PUSH1 0x20 PUSH0 KECCAK256 ADD PUSH0 SWAP1 SWAP2 SWAP1 SWAP2 SWAP1 SWAP2 PUSH2 0x100 EXP DUP2 SLOAD DUP2 PUSH20 0xFFFFFFFFFFFFFFFFFFFFFFFFFFFFFFFFFFFFFFFF MUL NOT AND SWAP1 DUP4 PUSH20 0xFFFFFFFFFFFFFFFFFFFFFFFFFFFFFFFFFFFFFFFF AND MUL OR SWAP1 SSTORE POP PUSH2 0x6BD JUMP JUMPDEST DUP1 PUSH0 ADD PUSH1 0x1 ADD SLOAD DUP2 PUSH1 0x2 ADD PUSH0 DUP3 DUP3 SLOAD PUSH2 0x6B5 SWAP2 SWAP1 PUSH2 0x19C4 JUMP JUMPDEST SWAP3 POP POP DUP2 SWAP1 SSTORE POP JUMPDEST PUSH1 0x40 MLOAD DUP1 PUSH1 0x40 ADD PUSH1 0x40 MSTORE DUP1 CALLER PUSH20 0xFFFFFFFFFFFFFFFFFFFFFFFFFFFFFFFFFFFFFFFF AND DUP2 MSTORE PUSH1 0x20 ADD CALLVALUE DUP2 MSTORE POP DUP2 PUSH0 ADD PUSH0 DUP3 ADD MLOAD DUP2 PUSH0 ADD PUSH0 PUSH2 0x100 EXP DUP2 SLOAD DUP2 PUSH20 0xFFFFFFFFFFFFFFFFFFFFFFFFFFFFFFFFFFFFFFFF MUL NOT AND SWAP1 DUP4 PUSH20 0xFFFFFFFFFFFFFFFFFFFFFFFFFFFFFFFFFFFFFFFF AND MUL OR SWAP1 SSTORE POP PUSH1 0x20 DUP3 ADD MLOAD DUP2 PUSH1 0x1 ADD SSTORE SWAP1 POP POP PUSH1 0x40 MLOAD DUP1 PUSH1 0x40 ADD PUSH1 0x40 MSTORE DUP1 CALLER PUSH20 0xFFFFFFFFFFFFFFFFFFFFFFFFFFFFFFFFFFFFFFFF AND DUP2 MSTORE PUSH1 0x20 ADD CALLVALUE DUP2 MSTORE POP PUSH1 0x2 PUSH0 DUP3 ADD MLOAD DUP2 PUSH0 ADD PUSH0 PUSH2 0x100 EXP DUP2 SLOAD DUP2 PUSH20 0xFFFFFFFFFFFFFFFFFFFFFFFFFFFFFFFFFFFFFFFF MUL NOT AND SWAP1 DUP4 PUSH20 0xFFFFFFFFFFFFFFFFFFFFFFFFFFFFFFFFFFFFFFFF AND MUL OR SWAP1 SSTORE POP PUSH1 0x20 DUP3 ADD MLOAD DUP2 PUSH1 0x1 ADD SSTORE SWAP1 POP POP CALLER PUSH20 0xFFFFFFFFFFFFFFFFFFFFFFFFFFFFFFFFFFFFFFFF AND PUSH32 0xDD0B6C6A77960E2066C96171B4D7AC9E8B4C184011F38544AFA36A5BB63EC59F CALLVALUE PUSH1 0x40 MLOAD PUSH2 0x800 SWAP2 SWAP1 PUSH2 0x1701 JUMP JUMPDEST PUSH1 0x40 MLOAD DUP1 SWAP2 SUB SWAP1 LOG2 PUSH32 0x0 PUSH1 0x1 SLOAD PUSH2 0x836 SWAP2 SWAP1 PUSH2 0x1B8B JUMP JUMPDEST TIMESTAMP GT ISZERO PUSH2 0x8C4 JUMPI PUSH32 0x0 PUSH1 0x1 SLOAD PUSH2 0x86B SWAP2 SWAP1 PUSH2 0x19C4 JUMP JUMPDEST PUSH1 0x1 DUP2 SWAP1 SSTORE POP CALLER PUSH20 0xFFFFFFFFFFFFFFFFFFFFFFFFFFFFFFFFFFFFFFFF AND PUSH32 0xBF5210F11796C8CE8B1D67ADD316E5A734C26896ACCE48BA93993F580AF205FF PUSH1 0x1 SLOAD CALLVALUE PUSH1 0x40 MLOAD PUSH2 0x8BB SWAP3 SWAP2 SWAP1 PUSH2 0x1BBE JUMP JUMPDEST PUSH1 0x40 MLOAD DUP1 SWAP2 SUB SWAP1 LOG2 JUMPDEST POP JUMP JUMPDEST PUSH32 0x0 DUP2 JUMP JUMPDEST PUSH1 0x1 SLOAD DUP2 JUMP JUMPDEST PUSH32 0x0 PUSH20 0xFFFFFFFFFFFFFFFFFFFFFFFFFFFFFFFFFFFFFFFF AND CALLER PUSH20 0xFFFFFFFFFFFFFFFFFFFFFFFFFFFFFFFFFFFFFFFF AND EQ PUSH2 0x97F JUMPI PUSH1 0x40 MLOAD PUSH32 0x8C379A000000000000000000000000000000000000000000000000000000000 DUP2 MSTORE PUSH1 0x4 ADD PUSH2 0x976 SWAP1 PUSH2 0x1C55 JUMP JUMPDEST PUSH1 0x40 MLOAD DUP1 SWAP2 SUB SWAP1 REVERT JUMPDEST PUSH1 0x1 SLOAD TIMESTAMP GT PUSH2 0x9C3 JUMPI PUSH1 0x40 MLOAD PUSH32 0x8C379A000000000000000000000000000000000000000000000000000000000 DUP2 MSTORE PUSH1 0x4 ADD PUSH2 0x9BA SWAP1 PUSH2 0x1CBD JUMP JUMPDEST PUSH1 0x40 MLOAD DUP1 SWAP2 SUB SWAP1 REVERT JUMPDEST PUSH1 0x6 PUSH0 SWAP1 SLOAD SWAP1 PUSH2 0x100 EXP SWAP1 DIV PUSH1 0xFF AND ISZERO PUSH2 0xA12 JUMPI PUSH1 0x40 MLOAD PUSH32 0x8C379A000000000000000000000000000000000000000000000000000000000 DUP2 MSTORE PUSH1 0x4 ADD PUSH2 0xA09 SWAP1 PUSH2 0x1D4B JUMP JUMPDEST PUSH1 0x40 MLOAD DUP1 SWAP2 SUB SWAP1 REVERT JUMPDEST PUSH0 PUSH1 0x5 DUP1 SLOAD SWAP1 POP SUB PUSH2 0xA59 JUMPI PUSH1 0x40 MLOAD PUSH32 0x8C379A000000000000000000000000000000000000000000000000000000000 DUP2 MSTORE PUSH1 0x4 ADD PUSH2 0xA50 SWAP1 PUSH2 0x1DB3 JUMP JUMPDEST PUSH1 0x40 MLOAD DUP1 SWAP2 SUB SWAP1 REVERT JUMPDEST PUSH1 0x2 PUSH0 SLOAD SUB PUSH2 0xA9D JUMPI PUSH1 0x40 MLOAD PUSH32 0x8C379A000000000000000000000000000000000000000000000000000000000 DUP2 MSTORE PUSH1 0x4 ADD PUSH2 0xA94 SWAP1 PUSH2 0x1E1B JUMP JUMPDEST PUSH1 0x40 MLOAD DUP1 SWAP2 SUB SWAP1 REVERT JUMPDEST PUSH1 0x2 PUSH0 DUP2 SWAP1 SSTORE POP PUSH0 PUSH1 0x5 DUP1 SLOAD SWAP1 POP SWAP1 POP PUSH0 JUMPDEST DUP2 DUP2 LT ISZERO PUSH2 0xD7F JUMPI PUSH0 PUSH1 0x5 DUP3 DUP2 SLOAD DUP2 LT PUSH2 0xACC JUMPI PUSH2 0xACB PUSH2 0x1E39 JUMP JUMPDEST JUMPDEST SWAP1 PUSH0 MSTORE PUSH1 0x20 PUSH0 KECCAK256 ADD PUSH0 SWAP1 SLOAD SWAP1 PUSH2 0x100 EXP SWAP1 DIV PUSH20 0xFFFFFFFFFFFFFFFFFFFFFFFFFFFFFFFFFFFFFFFF AND SWAP1 POP PUSH0 PUSH1 0x4 PUSH0 DUP4 PUSH20 0xFFFFFFFFFFFFFFFFFFFFFFFFFFFFFFFFFFFFFFFF AND PUSH20 0xFFFFFFFFFFFFFFFFFFFFFFFFFFFFFFFFFFFFFFFF AND DUP2 MSTORE PUSH1 0x20 ADD SWAP1 DUP2 MSTORE PUSH1 0x20 ADD PUSH0 KECCAK256 SWAP1 POP PUSH0 PUSH0 SWAP1 POP PUSH0 DUP3 PUSH1 0x2 ADD SLOAD GT ISZERO PUSH2 0xBA5 JUMPI PUSH1 0x64 PUSH32 0x0 PUSH1 0x64 PUSH2 0xB75 SWAP2 SWAP1 PUSH2 0x1B8B JUMP JUMPDEST DUP4 PUSH1 0x2 ADD SLOAD PUSH2 0xB84 SWAP2 SWAP1 PUSH2 0x19F7 JUMP JUMPDEST PUSH2 0xB8E SWAP2 SWAP1 PUSH2 0x1A65 JUMP JUMPDEST DUP2 PUSH2 0xB99 SWAP2 SWAP1 PUSH2 0x19C4 JUMP JUMPDEST SWAP1 POP PUSH0 DUP3 PUSH1 0x2 ADD DUP2 SWAP1 SSTORE POP JUMPDEST PUSH1 0x2 PUSH0 ADD PUSH0 SWAP1 SLOAD SWAP1 PUSH2 0x100 EXP SWAP1 DIV PUSH20 0xFFFFFFFFFFFFFFFFFFFFFFFFFFFFFFFFFFFFFFFF AND PUSH20 0xFFFFFFFFFFFFFFFFFFFFFFFFFFFFFFFFFFFFFFFF AND DUP4 PUSH20 0xFFFFFFFFFFFFFFFFFFFFFFFFFFFFFFFFFFFFFFFF AND EQ ISZERO DUP1 ISZERO PUSH2 0xC09 JUMPI POP PUSH0 DUP3 PUSH0 ADD PUSH1 0x1 ADD SLOAD GT JUMPDEST ISZERO PUSH2 0xC71 JUMPI PUSH1 0x64 PUSH32 0x0 PUSH1 0x64 PUSH2 0xC3D SWAP2 SWAP1 PUSH2 0x1B8B JUMP JUMPDEST DUP4 PUSH0 ADD PUSH1 0x1 ADD SLOAD PUSH2 0xC4E SWAP2 SWAP1 PUSH2 0x19F7 JUMP JUMPDEST PUSH2 0xC58 SWAP2 SWAP1 PUSH2 0x1A65 JUMP JUMPDEST DUP2 PUSH2 0xC63 SWAP2 SWAP1 PUSH2 0x19C4 JUMP JUMPDEST SWAP1 POP PUSH0 DUP3 PUSH0 ADD PUSH1 0x1 ADD DUP2 SWAP1 SSTORE POP JUMPDEST PUSH0 DUP2 GT ISZERO PUSH2 0xD71 JUMPI PUSH0 DUP4 PUSH20 0xFFFFFFFFFFFFFFFFFFFFFFFFFFFFFFFFFFFFFFFF AND DUP3 PUSH1 0x40 MLOAD PUSH2 0xC9E SWAP1 PUSH2 0x1E93 JUMP JUMPDEST PUSH0 PUSH1 0x40 MLOAD DUP1 DUP4 SUB DUP2 DUP6 DUP8 GAS CALL SWAP3 POP POP POP RETURNDATASIZE DUP1 PUSH0 DUP2 EQ PUSH2 0xCD8 JUMPI PUSH1 0x40 MLOAD SWAP2 POP PUSH1 0x1F NOT PUSH1 0x3F RETURNDATASIZE ADD AND DUP3 ADD PUSH1 0x40 MSTORE RETURNDATASIZE DUP3 MSTORE RETURNDATASIZE PUSH0 PUSH1 0x20 DUP5 ADD RETURNDATACOPY PUSH2 0xCDD JUMP JUMPDEST PUSH1 0x60 SWAP2 POP JUMPDEST POP POP SWAP1 POP DUP1 PUSH2 0xD21 JUMPI PUSH1 0x40 MLOAD PUSH32 0x8C379A000000000000000000000000000000000000000000000000000000000 DUP2 MSTORE PUSH1 0x4 ADD PUSH2 0xD18 SWAP1 PUSH2 0x1EF1 JUMP JUMPDEST PUSH1 0x40 MLOAD DUP1 SWAP2 SUB SWAP1 REVERT JUMPDEST DUP4 PUSH20 0xFFFFFFFFFFFFFFFFFFFFFFFFFFFFFFFFFFFFFFFF AND PUSH32 0xBB28353E4598C3B9199101A66E0989549B659A59A54D2C27FBB183F1932C8E6D DUP4 PUSH1 0x40 MLOAD PUSH2 0xD67 SWAP2 SWAP1 PUSH2 0x1701 JUMP JUMPDEST PUSH1 0x40 MLOAD DUP1 SWAP2 SUB SWAP1 LOG2 POP JUMPDEST DUP4 PUSH1 0x1 ADD SWAP4 POP POP POP POP PUSH2 0xAAF JUMP JUMPDEST POP PUSH1 0x1 PUSH1 0x6 PUSH0 PUSH2 0x100 EXP DUP2 SLOAD DUP2 PUSH1 0xFF MUL NOT AND SWAP1 DUP4 ISZERO ISZERO MUL OR SWAP1 SSTORE POP PUSH1 0x2 PUSH0 ADD PUSH0 SWAP1 SLOAD SWAP1 PUSH2 0x100 EXP SWAP1 DIV PUSH20 0xFFFFFFFFFFFFFFFFFFFFFFFFFFFFFFFFFFFFFFFF AND PUSH20 0xFFFFFFFFFFFFFFFFFFFFFFFFFFFFFFFFFFFFFFFF AND PUSH32 0x8B1AD6C69D3D79A05F5B1EC0DE825E9BF67C6C70B8C25BABD159976CF9990DFF PUSH1 0x2 PUSH1 0x1 ADD SLOAD PUSH1 0x40 MLOAD PUSH2 0xE08 SWAP2 SWAP1 PUSH2 0x1701 JUMP JUMPDEST PUSH1 0x40 MLOAD DUP1 SWAP2 SUB SWAP1 LOG2 POP PUSH1 0x1 PUSH0 DUP2 SWAP1 SSTORE POP JUMP JUMPDEST PUSH32 0x0 DUP2 JUMP JUMPDEST PUSH1 0x1 SLOAD TIMESTAMP GT PUSH2 0xE82 JUMPI PUSH1 0x40 MLOAD PUSH32 0x8C379A000000000000000000000000000000000000000000000000000000000 DUP2 MSTORE PUSH1 0x4 ADD PUSH2 0xE79 SWAP1 PUSH2 0x1CBD JUMP JUMPDEST PUSH1 0x40 MLOAD DUP1 SWAP2 SUB SWAP1 REVERT JUMPDEST PUSH32 0x0 PUSH20 0xFFFFFFFFFFFFFFFFFFFFFFFFFFFFFFFFFFFFFFFF AND CALLER PUSH20 0xFFFFFFFFFFFFFFFFFFFFFFFFFFFFFFFFFFFFFFFF AND EQ PUSH2 0xF10 JUMPI PUSH1 0x40 MLOAD PUSH32 0x8C379A000000000000000000000000000000000000000000000000000000000 DUP2 MSTORE PUSH1 0x4 ADD PUSH2 0xF07 SWAP1 PUSH2 0x1C55 JUMP JUMPDEST PUSH1 0x40 MLOAD DUP1 SWAP2 SUB SWAP1 REVERT JUMPDEST PUSH1 0x2 PUSH0 SLOAD SUB PUSH2 0xF54 JUMPI PUSH1 0x40 MLOAD PUSH32 0x8C379A000000000000000000000000000000000000000000000000000000000 DUP2 MSTORE PUSH1 0x4 ADD PUSH2 0xF4B SWAP1 PUSH2 0x1E1B JUMP JUMPDEST PUSH1 0x40 MLOAD DUP1 SWAP2 SUB SWAP1 REVERT JUMPDEST PUSH1 0x2 PUSH0 DUP2 SWAP1 SSTORE POP PUSH1 0x6 PUSH0 SWAP1 SLOAD SWAP1 PUSH2 0x100 EXP SWAP1 DIV PUSH1 0xFF AND PUSH2 0xFA9 JUMPI PUSH1 0x40 MLOAD PUSH32 0x8C379A000000000000000000000000000000000000000000000000000000000 DUP2 MSTORE PUSH1 0x4 ADD PUSH2 0xFA0 SWAP1 PUSH2 0x1F59 JUMP JUMPDEST PUSH1 0x40 MLOAD DUP1 SWAP2 SUB SWAP1 REVERT JUMPDEST PUSH0 PUSH32 0x0 PUSH20 0xFFFFFFFFFFFFFFFFFFFFFFFFFFFFFFFFFFFFFFFF AND SELFBALANCE PUSH1 0x40 MLOAD PUSH2 0xFEE SWAP1 PUSH2 0x1E93 JUMP JUMPDEST PUSH0 PUSH1 0x40 MLOAD DUP1 DUP4 SUB DUP2 DUP6 DUP8 GAS CALL SWAP3 POP POP POP RETURNDATASIZE DUP1 PUSH0 DUP2 EQ PUSH2 0x1028 JUMPI PUSH1 0x40 MLOAD SWAP2 POP PUSH1 0x1F NOT PUSH1 0x3F RETURNDATASIZE ADD AND DUP3 ADD PUSH1 0x40 MSTORE RETURNDATASIZE DUP3 MSTORE RETURNDATASIZE PUSH0 PUSH1 0x20 DUP5 ADD RETURNDATACOPY PUSH2 0x102D JUMP JUMPDEST PUSH1 0x60 SWAP2 POP JUMPDEST POP POP SWAP1 POP DUP1 PUSH2 0x1071 JUMPI PUSH1 0x40 MLOAD PUSH32 0x8C379A000000000000000000000000000000000000000000000000000000000 DUP2 MSTORE PUSH1 0x4 ADD PUSH2 0x1068 SWAP1 PUSH2 0x1FC1 JUMP JUMPDEST PUSH1 0x40 MLOAD DUP1 SWAP2 SUB SWAP1 REVERT JUMPDEST POP PUSH1 0x1 PUSH0 DUP2 SWAP1 SSTORE POP JUMP JUMPDEST PUSH32 0x0 DUP2 JUMP JUMPDEST PUSH32 0x0 DUP2 JUMP JUMPDEST PUSH32 0x0 DUP2 JUMP JUMPDEST PUSH1 0x60 PUSH0 PUSH1 0x5 DUP1 SLOAD SWAP1 POP SUB PUSH2 0x1130 JUMPI PUSH1 0x40 MLOAD PUSH32 0x8C379A000000000000000000000000000000000000000000000000000000000 DUP2 MSTORE PUSH1 0x4 ADD PUSH2 0x1127 SWAP1 PUSH2 0x1DB3 JUMP JUMPDEST PUSH1 0x40 MLOAD DUP1 SWAP2 SUB SWAP1 REVERT JUMPDEST PUSH0 PUSH1 0x5 DUP1 SLOAD SWAP1 POP SWAP1 POP PUSH0 DUP2 PUSH8 0xFFFFFFFFFFFFFFFF DUP2 GT ISZERO PUSH2 0x1154 JUMPI PUSH2 0x1153 PUSH2 0x1FDF JUMP JUMPDEST JUMPDEST PUSH1 0x40 MLOAD SWAP1 DUP1 DUP3 MSTORE DUP1 PUSH1 0x20 MUL PUSH1 0x20 ADD DUP3 ADD PUSH1 0x40 MSTORE DUP1 ISZERO PUSH2 0x118D JUMPI DUP2 PUSH1 0x20 ADD JUMPDEST PUSH2 0x117A PUSH2 0x169C JUMP JUMPDEST DUP2 MSTORE PUSH1 0x20 ADD SWAP1 PUSH1 0x1 SWAP1 SUB SWAP1 DUP2 PUSH2 0x1172 JUMPI SWAP1 POP JUMPDEST POP SWAP1 POP PUSH0 PUSH0 SWAP1 POP JUMPDEST DUP3 DUP2 LT ISZERO PUSH2 0x12C6 JUMPI PUSH1 0x4 PUSH0 PUSH1 0x5 DUP4 DUP2 SLOAD DUP2 LT PUSH2 0x11B4 JUMPI PUSH2 0x11B3 PUSH2 0x1E39 JUMP JUMPDEST JUMPDEST SWAP1 PUSH0 MSTORE PUSH1 0x20 PUSH0 KECCAK256 ADD PUSH0 SWAP1 SLOAD SWAP1 PUSH2 0x100 EXP SWAP1 DIV PUSH20 0xFFFFFFFFFFFFFFFFFFFFFFFFFFFFFFFFFFFFFFFF AND PUSH20 0xFFFFFFFFFFFFFFFFFFFFFFFFFFFFFFFFFFFFFFFF AND PUSH20 0xFFFFFFFFFFFFFFFFFFFFFFFFFFFFFFFFFFFFFFFF AND DUP2 MSTORE PUSH1 0x20 ADD SWAP1 DUP2 MSTORE PUSH1 0x20 ADD PUSH0 KECCAK256 PUSH1 0x40 MLOAD DUP1 PUSH1 0x40 ADD PUSH1 0x40 MSTORE SWAP1 DUP2 PUSH0 DUP3 ADD PUSH1 0x40 MLOAD DUP1 PUSH1 0x40 ADD PUSH1 0x40 MSTORE SWAP1 DUP2 PUSH0 DUP3 ADD PUSH0 SWAP1 SLOAD SWAP1 PUSH2 0x100 EXP SWAP1 DIV PUSH20 0xFFFFFFFFFFFFFFFFFFFFFFFFFFFFFFFFFFFFFFFF AND PUSH20 0xFFFFFFFFFFFFFFFFFFFFFFFFFFFFFFFFFFFFFFFF AND PUSH20 0xFFFFFFFFFFFFFFFFFFFFFFFFFFFFFFFFFFFFFFFF AND DUP2 MSTORE PUSH1 0x20 ADD PUSH1 0x1 DUP3 ADD SLOAD DUP2 MSTORE POP POP DUP2 MSTORE PUSH1 0x20 ADD PUSH1 0x2 DUP3 ADD SLOAD DUP2 MSTORE POP POP DUP3 DUP3 DUP2 MLOAD DUP2 LT PUSH2 0x12AE JUMPI PUSH2 0x12AD PUSH2 0x1E39 JUMP JUMPDEST JUMPDEST PUSH1 0x20 MUL PUSH1 0x20 ADD ADD DUP2 SWAP1 MSTORE POP DUP1 DUP1 PUSH1 0x1 ADD SWAP2 POP POP PUSH2 0x1195 JUMP JUMPDEST POP DUP1 SWAP3 POP POP POP SWAP1 JUMP JUMPDEST PUSH0 PUSH1 0x1 SLOAD TIMESTAMP GT ISZERO PUSH2 0x12E2 JUMPI PUSH0 SWAP1 POP PUSH2 0x12F3 JUMP JUMPDEST TIMESTAMP PUSH1 0x1 SLOAD PUSH2 0x12F0 SWAP2 SWAP1 PUSH2 0x1B8B JUMP JUMPDEST SWAP1 POP JUMPDEST SWAP1 JUMP JUMPDEST PUSH2 0x12FE PUSH2 0x16BB JUMP JUMPDEST PUSH0 PUSH1 0x5 DUP1 SLOAD SWAP1 POP SUB PUSH2 0x1345 JUMPI PUSH1 0x40 MLOAD PUSH32 0x8C379A000000000000000000000000000000000000000000000000000000000 DUP2 MSTORE PUSH1 0x4 ADD PUSH2 0x133C SWAP1 PUSH2 0x1DB3 JUMP JUMPDEST PUSH1 0x40 MLOAD DUP1 SWAP2 SUB SWAP1 REVERT JUMPDEST PUSH1 0x1 SLOAD TIMESTAMP GT PUSH2 0x1389 JUMPI PUSH1 0x40 MLOAD PUSH32 0x8C379A000000000000000000000000000000000000000000000000000000000 DUP2 MSTORE PUSH1 0x4 ADD PUSH2 0x1380 SWAP1 PUSH2 0x1CBD JUMP JUMPDEST PUSH1 0x40 MLOAD DUP1 SWAP2 SUB SWAP1 REVERT JUMPDEST PUSH1 0x2 PUSH1 0x40 MLOAD DUP1 PUSH1 0x40 ADD PUSH1 0x40 MSTORE SWAP1 DUP2 PUSH0 DUP3 ADD PUSH0 SWAP1 SLOAD SWAP1 PUSH2 0x100 EXP SWAP1 DIV PUSH20 0xFFFFFFFFFFFFFFFFFFFFFFFFFFFFFFFFFFFFFFFF AND PUSH20 0xFFFFFFFFFFFFFFFFFFFFFFFFFFFFFFFFFFFFFFFF AND PUSH20 0xFFFFFFFFFFFFFFFFFFFFFFFFFFFFFFFFFFFFFFFF AND DUP2 MSTORE PUSH1 0x20 ADD PUSH1 0x1 DUP3 ADD SLOAD DUP2 MSTORE POP POP SWAP1 POP SWAP1 JUMP JUMPDEST PUSH1 0x1 SLOAD TIMESTAMP GT ISZERO PUSH2 0x143E JUMPI PUSH1 0x40 MLOAD PUSH32 0x8C379A000000000000000000000000000000000000000000000000000000000 DUP2 MSTORE PUSH1 0x4 ADD PUSH2 0x1435 SWAP1 PUSH2 0x1979 JUMP JUMPDEST PUSH1 0x40 MLOAD DUP1 SWAP2 SUB SWAP1 REVERT JUMPDEST PUSH0 PUSH1 0x5 DUP1 SLOAD SWAP1 POP SUB PUSH2 0x1485 JUMPI PUSH1 0x40 MLOAD PUSH32 0x8C379A000000000000000000000000000000000000000000000000000000000 DUP2 MSTORE PUSH1 0x4 ADD PUSH2 0x147C SWAP1 PUSH2 0x1DB3 JUMP JUMPDEST PUSH1 0x40 MLOAD DUP1 SWAP2 SUB SWAP1 REVERT JUMPDEST PUSH1 0x2 PUSH0 SLOAD SUB PUSH2 0x14C9 JUMPI PUSH1 0x40 MLOAD PUSH32 0x8C379A000000000000000000000000000000000000000000000000000000000 DUP2 MSTORE PUSH1 0x4 ADD PUSH2 0x14C0 SWAP1 PUSH2 0x1E1B JUMP JUMPDEST PUSH1 0x40 MLOAD DUP1 SWAP2 SUB SWAP1 REVERT JUMPDEST PUSH1 0x2 PUSH0 DUP2 SWAP1 SSTORE POP PUSH0 PUSH1 0x4 PUSH0 CALLER PUSH20 0xFFFFFFFFFFFFFFFFFFFFFFFFFFFFFFFFFFFFFFFF AND PUSH20 0xFFFFFFFFFFFFFFFFFFFFFFFFFFFFFFFFFFFFFFFF AND DUP2 MSTORE PUSH1 0x20 ADD SWAP1 DUP2 MSTORE PUSH1 0x20 ADD PUSH0 KECCAK256 PUSH1 0x2 ADD SLOAD SWAP1 POP PUSH0 DUP2 GT PUSH2 0x1556 JUMPI PUSH1 0x40 MLOAD PUSH32 0x8C379A000000000000000000000000000000000000000000000000000000000 DUP2 MSTORE PUSH1 0x4 ADD PUSH2 0x154D SWAP1 PUSH2 0x2056 JUMP JUMPDEST PUSH1 0x40 MLOAD DUP1 SWAP2 SUB SWAP1 REVERT JUMPDEST PUSH0 PUSH1 0x4 PUSH0 CALLER PUSH20 0xFFFFFFFFFFFFFFFFFFFFFFFFFFFFFFFFFFFFFFFF AND PUSH20 0xFFFFFFFFFFFFFFFFFFFFFFFFFFFFFFFFFFFFFFFF AND DUP2 MSTORE PUSH1 0x20 ADD SWAP1 DUP2 MSTORE PUSH1 0x20 ADD PUSH0 KECCAK256 PUSH1 0x2 ADD DUP2 SWAP1 SSTORE POP PUSH0 CALLER PUSH20 0xFFFFFFFFFFFFFFFFFFFFFFFFFFFFFFFFFFFFFFFF AND DUP3 PUSH1 0x40 MLOAD PUSH2 0x15C0 SWAP1 PUSH2 0x1E93 JUMP JUMPDEST PUSH0 PUSH1 0x40 MLOAD DUP1 DUP4 SUB DUP2 DUP6 DUP8 GAS CALL SWAP3 POP POP POP RETURNDATASIZE DUP1 PUSH0 DUP2 EQ PUSH2 0x15FA JUMPI PUSH1 0x40 MLOAD SWAP2 POP PUSH1 0x1F NOT PUSH1 0x3F RETURNDATASIZE ADD AND DUP3 ADD PUSH1 0x40 MSTORE RETURNDATASIZE DUP3 MSTORE RETURNDATASIZE PUSH0 PUSH1 0x20 DUP5 ADD RETURNDATACOPY PUSH2 0x15FF JUMP JUMPDEST PUSH1 0x60 SWAP2 POP JUMPDEST POP POP SWAP1 POP DUP1 PUSH2 0x1643 JUMPI PUSH1 0x40 MLOAD PUSH32 0x8C379A000000000000000000000000000000000000000000000000000000000 DUP2 MSTORE PUSH1 0x4 ADD PUSH2 0x163A SWAP1 PUSH2 0x20BE JUMP JUMPDEST PUSH1 0x40 MLOAD DUP1 SWAP2 SUB SWAP1 REVERT JUMPDEST CALLER PUSH20 0xFFFFFFFFFFFFFFFFFFFFFFFFFFFFFFFFFFFFFFFF AND PUSH32 0xD84FCBAC5440AEDDA6D2B5F149AA3182C87252EEF5BAB6F061CFE022A3E166EF DUP4 PUSH1 0x40 MLOAD PUSH2 0x1689 SWAP2 SWAP1 PUSH2 0x1701 JUMP JUMPDEST PUSH1 0x40 MLOAD DUP1 SWAP2 SUB SWAP1 LOG2 POP POP PUSH1 0x1 PUSH0 DUP2 SWAP1 SSTORE POP JUMP JUMPDEST PUSH1 0x40 MLOAD DUP1 PUSH1 0x40 ADD PUSH1 0x40 MSTORE DUP1 PUSH2 0x16AF PUSH2 0x16BB JUMP JUMPDEST DUP2 MSTORE PUSH1 0x20 ADD PUSH0 DUP2 MSTORE POP SWAP1 JUMP JUMPDEST PUSH1 0x40 MLOAD DUP1 PUSH1 0x40 ADD PUSH1 0x40 MSTORE DUP1 PUSH0 PUSH20 0xFFFFFFFFFFFFFFFFFFFFFFFFFFFFFFFFFFFFFFFF AND DUP2 MSTORE PUSH1 0x20 ADD PUSH0 DUP2 MSTORE POP SWAP1 JUMP JUMPDEST PUSH0 DUP2 SWAP1 POP SWAP2 SWAP1 POP JUMP JUMPDEST PUSH2 0x16FB DUP2 PUSH2 0x16E9 JUMP JUMPDEST DUP3 MSTORE POP POP JUMP JUMPDEST PUSH0 PUSH1 0x20 DUP3 ADD SWAP1 POP PUSH2 0x1714 PUSH0 DUP4 ADD DUP5 PUSH2 0x16F2 JUMP JUMPDEST SWAP3 SWAP2 POP POP JUMP JUMPDEST PUSH0 PUSH20 0xFFFFFFFFFFFFFFFFFFFFFFFFFFFFFFFFFFFFFFFF DUP3 AND SWAP1 POP SWAP2 SWAP1 POP JUMP JUMPDEST PUSH0 PUSH2 0x1743 DUP3 PUSH2 0x171A JUMP JUMPDEST SWAP1 POP SWAP2 SWAP1 POP JUMP JUMPDEST PUSH2 0x1753 DUP2 PUSH2 0x1739 JUMP JUMPDEST DUP3 MSTORE POP POP JUMP JUMPDEST PUSH0 PUSH1 0x40 DUP3 ADD SWAP1 POP PUSH2 0x176C PUSH0 DUP4 ADD DUP6 PUSH2 0x174A JUMP JUMPDEST PUSH2 0x1779 PUSH1 0x20 DUP4 ADD DUP5 PUSH2 0x16F2 JUMP JUMPDEST SWAP4 SWAP3 POP POP POP JUMP JUMPDEST PUSH0 PUSH1 0x20 DUP3 ADD SWAP1 POP PUSH2 0x1793 PUSH0 DUP4 ADD DUP5 PUSH2 0x174A JUMP JUMPDEST SWAP3 SWAP2 POP POP JUMP JUMPDEST PUSH0 DUP2 MLOAD SWAP1 POP SWAP2 SWAP1 POP JUMP JUMPDEST PUSH0 DUP3 DUP3 MSTORE PUSH1 0x20 DUP3 ADD SWAP1 POP SWAP3 SWAP2 POP POP JUMP JUMPDEST PUSH0 DUP2 SWAP1 POP PUSH1 0x20 DUP3 ADD SWAP1 POP SWAP2 SWAP1 POP JUMP JUMPDEST PUSH2 0x17CB DUP2 PUSH2 0x1739 JUMP JUMPDEST DUP3 MSTORE POP POP JUMP JUMPDEST PUSH2 0x17DA DUP2 PUSH2 0x16E9 JUMP JUMPDEST DUP3 MSTORE POP POP JUMP JUMPDEST PUSH1 0x40 DUP3 ADD PUSH0 DUP3 ADD MLOAD PUSH2 0x17F4 PUSH0 DUP6 ADD DUP3 PUSH2 0x17C2 JUMP JUMPDEST POP PUSH1 0x20 DUP3 ADD MLOAD PUSH2 0x1807 PUSH1 0x20 DUP6 ADD DUP3 PUSH2 0x17D1 JUMP JUMPDEST POP POP POP POP JUMP JUMPDEST PUSH1 0x60 DUP3 ADD PUSH0 DUP3 ADD MLOAD PUSH2 0x1821 PUSH0 DUP6 ADD DUP3 PUSH2 0x17E0 JUMP JUMPDEST POP PUSH1 0x20 DUP3 ADD MLOAD PUSH2 0x1834 PUSH1 0x40 DUP6 ADD DUP3 PUSH2 0x17D1 JUMP JUMPDEST POP POP POP POP JUMP JUMPDEST PUSH0 PUSH2 0x1845 DUP4 DUP4 PUSH2 0x180D JUMP JUMPDEST PUSH1 0x60 DUP4 ADD SWAP1 POP SWAP3 SWAP2 POP POP JUMP JUMPDEST PUSH0 PUSH1 0x20 DUP3 ADD SWAP1 POP SWAP2 SWAP1 POP JUMP JUMPDEST PUSH0 PUSH2 0x1867 DUP3 PUSH2 0x1799 JUMP JUMPDEST PUSH2 0x1871 DUP2 DUP6 PUSH2 0x17A3 JUMP JUMPDEST SWAP4 POP PUSH2 0x187C DUP4 PUSH2 0x17B3 JUMP JUMPDEST DUP1 PUSH0 JUMPDEST DUP4 DUP2 LT ISZERO PUSH2 0x18AC JUMPI DUP2 MLOAD PUSH2 0x1893 DUP9 DUP3 PUSH2 0x183A JUMP JUMPDEST SWAP8 POP PUSH2 0x189E DUP4 PUSH2 0x1851 JUMP JUMPDEST SWAP3 POP POP PUSH1 0x1 DUP2 ADD SWAP1 POP PUSH2 0x187F JUMP JUMPDEST POP DUP6 SWAP4 POP POP POP POP SWAP3 SWAP2 POP POP JUMP JUMPDEST PUSH0 PUSH1 0x20 DUP3 ADD SWAP1 POP DUP2 DUP2 SUB PUSH0 DUP4 ADD MSTORE PUSH2 0x18D1 DUP2 DUP5 PUSH2 0x185D JUMP JUMPDEST SWAP1 POP SWAP3 SWAP2 POP POP JUMP JUMPDEST PUSH1 0x40 DUP3 ADD PUSH0 DUP3 ADD MLOAD PUSH2 0x18ED PUSH0 DUP6 ADD DUP3 PUSH2 0x17C2 JUMP JUMPDEST POP PUSH1 0x20 DUP3 ADD MLOAD PUSH2 0x1900 PUSH1 0x20 DUP6 ADD DUP3 PUSH2 0x17D1 JUMP JUMPDEST POP POP POP POP JUMP JUMPDEST PUSH0 PUSH1 0x40 DUP3 ADD SWAP1 POP PUSH2 0x1919 PUSH0 DUP4 ADD DUP5 PUSH2 0x18D9 JUMP JUMPDEST SWAP3 SWAP2 POP POP JUMP JUMPDEST PUSH0 DUP3 DUP3 MSTORE PUSH1 0x20 DUP3 ADD SWAP1 POP SWAP3 SWAP2 POP POP JUMP JUMPDEST PUSH32 0x41756374696F6E20686173206578706972656400000000000000000000000000 PUSH0 DUP3 ADD MSTORE POP JUMP JUMPDEST PUSH0 PUSH2 0x1963 PUSH1 0x13 DUP4 PUSH2 0x191F JUMP JUMPDEST SWAP2 POP PUSH2 0x196E DUP3 PUSH2 0x192F JUMP JUMPDEST PUSH1 0x20 DUP3 ADD SWAP1 POP SWAP2 SWAP1 POP JUMP JUMPDEST PUSH0 PUSH1 0x20 DUP3 ADD SWAP1 POP DUP2 DUP2 SUB PUSH0 DUP4 ADD MSTORE PUSH2 0x1990 DUP2 PUSH2 0x1957 JUMP JUMPDEST SWAP1 POP SWAP2 SWAP1 POP JUMP JUMPDEST PUSH32 0x4E487B7100000000000000000000000000000000000000000000000000000000 PUSH0 MSTORE PUSH1 0x11 PUSH1 0x4 MSTORE PUSH1 0x24 PUSH0 REVERT JUMPDEST PUSH0 PUSH2 0x19CE DUP3 PUSH2 0x16E9 JUMP JUMPDEST SWAP2 POP PUSH2 0x19D9 DUP4 PUSH2 0x16E9 JUMP JUMPDEST SWAP3 POP DUP3 DUP3 ADD SWAP1 POP DUP1 DUP3 GT ISZERO PUSH2 0x19F1 JUMPI PUSH2 0x19F0 PUSH2 0x1997 JUMP JUMPDEST JUMPDEST SWAP3 SWAP2 POP POP JUMP JUMPDEST PUSH0 PUSH2 0x1A01 DUP3 PUSH2 0x16E9 JUMP JUMPDEST SWAP2 POP PUSH2 0x1A0C DUP4 PUSH2 0x16E9 JUMP JUMPDEST SWAP3 POP DUP3 DUP3 MUL PUSH2 0x1A1A DUP2 PUSH2 0x16E9 JUMP JUMPDEST SWAP2 POP DUP3 DUP3 DIV DUP5 EQ DUP4 ISZERO OR PUSH2 0x1A31 JUMPI PUSH2 0x1A30 PUSH2 0x1997 JUMP JUMPDEST JUMPDEST POP SWAP3 SWAP2 POP POP JUMP JUMPDEST PUSH32 0x4E487B7100000000000000000000000000000000000000000000000000000000 PUSH0 MSTORE PUSH1 0x12 PUSH1 0x4 MSTORE PUSH1 0x24 PUSH0 REVERT JUMPDEST PUSH0 PUSH2 0x1A6F DUP3 PUSH2 0x16E9 JUMP JUMPDEST SWAP2 POP PUSH2 0x1A7A DUP4 PUSH2 0x16E9 JUMP JUMPDEST SWAP3 POP DUP3 PUSH2 0x1A8A JUMPI PUSH2 0x1A89 PUSH2 0x1A38 JUMP JUMPDEST JUMPDEST DUP3 DUP3 DIV SWAP1 POP SWAP3 SWAP2 POP POP JUMP JUMPDEST PUSH32 0x426964206D757374206265206174206C65617374203525206772656174657220 PUSH0 DUP3 ADD MSTORE PUSH32 0x7468616E2063757272656E742068696768657374206269640000000000000000 PUSH1 0x20 DUP3 ADD MSTORE POP JUMP JUMPDEST PUSH0 PUSH2 0x1AEF PUSH1 0x38 DUP4 PUSH2 0x191F JUMP JUMPDEST SWAP2 POP PUSH2 0x1AFA DUP3 PUSH2 0x1A95 JUMP JUMPDEST PUSH1 0x40 DUP3 ADD SWAP1 POP SWAP2 SWAP1 POP JUMP JUMPDEST PUSH0 PUSH1 0x20 DUP3 ADD SWAP1 POP DUP2 DUP2 SUB PUSH0 DUP4 ADD MSTORE PUSH2 0x1B1C DUP2 PUSH2 0x1AE3 JUMP JUMPDEST SWAP1 POP SWAP2 SWAP1 POP JUMP JUMPDEST PUSH32 0x596F7520616C7265616479206861766520746865206869676865737420626964 PUSH0 DUP3 ADD MSTORE POP JUMP JUMPDEST PUSH0 PUSH2 0x1B57 PUSH1 0x20 DUP4 PUSH2 0x191F JUMP JUMPDEST SWAP2 POP PUSH2 0x1B62 DUP3 PUSH2 0x1B23 JUMP JUMPDEST PUSH1 0x20 DUP3 ADD SWAP1 POP SWAP2 SWAP1 POP JUMP JUMPDEST PUSH0 PUSH1 0x20 DUP3 ADD SWAP1 POP DUP2 DUP2 SUB PUSH0 DUP4 ADD MSTORE PUSH2 0x1B84 DUP2 PUSH2 0x1B4B JUMP JUMPDEST SWAP1 POP SWAP2 SWAP1 POP JUMP JUMPDEST PUSH0 PUSH2 0x1B95 DUP3 PUSH2 0x16E9 JUMP JUMPDEST SWAP2 POP PUSH2 0x1BA0 DUP4 PUSH2 0x16E9 JUMP JUMPDEST SWAP3 POP DUP3 DUP3 SUB SWAP1 POP DUP2 DUP2 GT ISZERO PUSH2 0x1BB8 JUMPI PUSH2 0x1BB7 PUSH2 0x1997 JUMP JUMPDEST JUMPDEST SWAP3 SWAP2 POP POP JUMP JUMPDEST PUSH0 PUSH1 0x40 DUP3 ADD SWAP1 POP PUSH2 0x1BD1 PUSH0 DUP4 ADD DUP6 PUSH2 0x16F2 JUMP JUMPDEST PUSH2 0x1BDE PUSH1 0x20 DUP4 ADD DUP5 PUSH2 0x16F2 JUMP JUMPDEST SWAP4 SWAP3 POP POP POP JUMP JUMPDEST PUSH32 0x4F6E6C79206F776E65722063616E20706572666F726D20746869732061637469 PUSH0 DUP3 ADD MSTORE PUSH32 0x6F6E000000000000000000000000000000000000000000000000000000000000 PUSH1 0x20 DUP3 ADD MSTORE POP JUMP JUMPDEST PUSH0 PUSH2 0x1C3F PUSH1 0x22 DUP4 PUSH2 0x191F JUMP JUMPDEST SWAP2 POP PUSH2 0x1C4A DUP3 PUSH2 0x1BE5 JUMP JUMPDEST PUSH1 0x40 DUP3 ADD SWAP1 POP SWAP2 SWAP1 POP JUMP JUMPDEST PUSH0 PUSH1 0x20 DUP3 ADD SWAP1 POP DUP2 DUP2 SUB PUSH0 DUP4 ADD MSTORE PUSH2 0x1C6C DUP2 PUSH2 0x1C33 JUMP JUMPDEST SWAP1 POP SWAP2 SWAP1 POP JUMP JUMPDEST PUSH32 0x41756374696F6E206973206E6F742066696E6973686564000000000000000000 PUSH0 DUP3 ADD MSTORE POP JUMP JUMPDEST PUSH0 PUSH2 0x1CA7 PUSH1 0x17 DUP4 PUSH2 0x191F JUMP JUMPDEST SWAP2 POP PUSH2 0x1CB2 DUP3 PUSH2 0x1C73 JUMP JUMPDEST PUSH1 0x20 DUP3 ADD SWAP1 POP SWAP2 SWAP1 POP JUMP JUMPDEST PUSH0 PUSH1 0x20 DUP3 ADD SWAP1 POP DUP2 DUP2 SUB PUSH0 DUP4 ADD MSTORE PUSH2 0x1CD4 DUP2 PUSH2 0x1C9B JUMP JUMPDEST SWAP1 POP SWAP2 SWAP1 POP JUMP JUMPDEST PUSH32 0x42696464657273206861766520616C7265616479206265656E20726566756E64 PUSH0 DUP3 ADD MSTORE PUSH32 0x6564000000000000000000000000000000000000000000000000000000000000 PUSH1 0x20 DUP3 ADD MSTORE POP JUMP JUMPDEST PUSH0 PUSH2 0x1D35 PUSH1 0x22 DUP4 PUSH2 0x191F JUMP JUMPDEST SWAP2 POP PUSH2 0x1D40 DUP3 PUSH2 0x1CDB JUMP JUMPDEST PUSH1 0x40 DUP3 ADD SWAP1 POP SWAP2 SWAP1 POP JUMP JUMPDEST PUSH0 PUSH1 0x20 DUP3 ADD SWAP1 POP DUP2 DUP2 SUB PUSH0 DUP4 ADD MSTORE PUSH2 0x1D62 DUP2 PUSH2 0x1D29 JUMP JUMPDEST SWAP1 POP SWAP2 SWAP1 POP JUMP JUMPDEST PUSH32 0x546865726520617265206E6F2062696473207965740000000000000000000000 PUSH0 DUP3 ADD MSTORE POP JUMP JUMPDEST PUSH0 PUSH2 0x1D9D PUSH1 0x15 DUP4 PUSH2 0x191F JUMP JUMPDEST SWAP2 POP PUSH2 0x1DA8 DUP3 PUSH2 0x1D69 JUMP JUMPDEST PUSH1 0x20 DUP3 ADD SWAP1 POP SWAP2 SWAP1 POP JUMP JUMPDEST PUSH0 PUSH1 0x20 DUP3 ADD SWAP1 POP DUP2 DUP2 SUB PUSH0 DUP4 ADD MSTORE PUSH2 0x1DCA DUP2 PUSH2 0x1D91 JUMP JUMPDEST SWAP1 POP SWAP2 SWAP1 POP JUMP JUMPDEST PUSH32 0x5265656E7472616E637947756172643A207265656E7472616E742063616C6C00 PUSH0 DUP3 ADD MSTORE POP JUMP JUMPDEST PUSH0 PUSH2 0x1E05 PUSH1 0x1F DUP4 PUSH2 0x191F JUMP JUMPDEST SWAP2 POP PUSH2 0x1E10 DUP3 PUSH2 0x1DD1 JUMP JUMPDEST PUSH1 0x20 DUP3 ADD SWAP1 POP SWAP2 SWAP1 POP JUMP JUMPDEST PUSH0 PUSH1 0x20 DUP3 ADD SWAP1 POP DUP2 DUP2 SUB PUSH0 DUP4 ADD MSTORE PUSH2 0x1E32 DUP2 PUSH2 0x1DF9 JUMP JUMPDEST SWAP1 POP SWAP2 SWAP1 POP JUMP JUMPDEST PUSH32 0x4E487B7100000000000000000000000000000000000000000000000000000000 PUSH0 MSTORE PUSH1 0x32 PUSH1 0x4 MSTORE PUSH1 0x24 PUSH0 REVERT JUMPDEST PUSH0 DUP2 SWAP1 POP SWAP3 SWAP2 POP POP JUMP JUMPDEST POP JUMP JUMPDEST PUSH0 PUSH2 0x1E7E PUSH0 DUP4 PUSH2 0x1E66 JUMP JUMPDEST SWAP2 POP PUSH2 0x1E89 DUP3 PUSH2 0x1E70 JUMP JUMPDEST PUSH0 DUP3 ADD SWAP1 POP SWAP2 SWAP1 POP JUMP JUMPDEST PUSH0 PUSH2 0x1E9D DUP3 PUSH2 0x1E73 JUMP JUMPDEST SWAP2 POP DUP2 SWAP1 POP SWAP2 SWAP1 POP JUMP JUMPDEST PUSH32 0x726566756E64206661696C000000000000000000000000000000000000000000 PUSH0 DUP3 ADD MSTORE POP JUMP JUMPDEST PUSH0 PUSH2 0x1EDB PUSH1 0xB DUP4 PUSH2 0x191F JUMP JUMPDEST SWAP2 POP PUSH2 0x1EE6 DUP3 PUSH2 0x1EA7 JUMP JUMPDEST PUSH1 0x20 DUP3 ADD SWAP1 POP SWAP2 SWAP1 POP JUMP JUMPDEST PUSH0 PUSH1 0x20 DUP3 ADD SWAP1 POP DUP2 DUP2 SUB PUSH0 DUP4 ADD MSTORE PUSH2 0x1F08 DUP2 PUSH2 0x1ECF JUMP JUMPDEST SWAP1 POP SWAP2 SWAP1 POP JUMP JUMPDEST PUSH32 0x526566756E642066697273740000000000000000000000000000000000000000 PUSH0 DUP3 ADD MSTORE POP JUMP JUMPDEST PUSH0 PUSH2 0x1F43 PUSH1 0xC DUP4 PUSH2 0x191F JUMP JUMPDEST SWAP2 POP PUSH2 0x1F4E DUP3 PUSH2 0x1F0F JUMP JUMPDEST PUSH1 0x20 DUP3 ADD SWAP1 POP SWAP2 SWAP1 POP JUMP JUMPDEST PUSH0 PUSH1 0x20 DUP3 ADD SWAP1 POP DUP2 DUP2 SUB PUSH0 DUP4 ADD MSTORE PUSH2 0x1F70 DUP2 PUSH2 0x1F37 JUMP JUMPDEST SWAP1 POP SWAP2 SWAP1 POP JUMP JUMPDEST PUSH32 0x5769746864726177206661696C00000000000000000000000000000000000000 PUSH0 DUP3 ADD MSTORE POP JUMP JUMPDEST PUSH0 PUSH2 0x1FAB PUSH1 0xD DUP4 PUSH2 0x191F JUMP JUMPDEST SWAP2 POP PUSH2 0x1FB6 DUP3 PUSH2 0x1F77 JUMP JUMPDEST PUSH1 0x20 DUP3 ADD SWAP1 POP SWAP2 SWAP1 POP JUMP JUMPDEST PUSH0 PUSH1 0x20 DUP3 ADD SWAP1 POP DUP2 DUP2 SUB PUSH0 DUP4 ADD MSTORE PUSH2 0x1FD8 DUP2 PUSH2 0x1F9F JUMP JUMPDEST SWAP1 POP SWAP2 SWAP1 POP JUMP JUMPDEST PUSH32 0x4E487B7100000000000000000000000000000000000000000000000000000000 PUSH0 MSTORE PUSH1 0x41 PUSH1 0x4 MSTORE PUSH1 0x24 PUSH0 REVERT JUMPDEST PUSH32 0x4E6F2070656E64696E6720776974686472617720666F756E6400000000000000 PUSH0 DUP3 ADD MSTORE POP JUMP JUMPDEST PUSH0 PUSH2 0x2040 PUSH1 0x19 DUP4 PUSH2 0x191F JUMP JUMPDEST SWAP2 POP PUSH2 0x204B DUP3 PUSH2 0x200C JUMP JUMPDEST PUSH1 0x20 DUP3 ADD SWAP1 POP SWAP2 SWAP1 POP JUMP JUMPDEST PUSH0 PUSH1 0x20 DUP3 ADD SWAP1 POP DUP2 DUP2 SUB PUSH0 DUP4 ADD MSTORE PUSH2 0x206D DUP2 PUSH2 0x2034 JUMP JUMPDEST SWAP1 POP SWAP2 SWAP1 POP JUMP JUMPDEST PUSH32 0x526566756E64206661696C656400000000000000000000000000000000000000 PUSH0 DUP3 ADD MSTORE POP JUMP JUMPDEST PUSH0 PUSH2 0x20A8 PUSH1 0xD DUP4 PUSH2 0x191F JUMP JUMPDEST SWAP2 POP PUSH2 0x20B3 DUP3 PUSH2 0x2074 JUMP JUMPDEST PUSH1 0x20 DUP3 ADD SWAP1 POP SWAP2 SWAP1 POP JUMP JUMPDEST PUSH0 PUSH1 0x20 DUP3 ADD SWAP1 POP DUP2 DUP2 SUB PUSH0 DUP4 ADD MSTORE PUSH2 0x20D5 DUP2 PUSH2 0x209C JUMP JUMPDEST SWAP1 POP SWAP2 SWAP1 POP JUMP INVALID LOG2 PUSH5 0x6970667358 0x22 SLT KECCAK256 0xDE PUSH14 0x3F3005369DA5A0C1145552D35591 0xC4 DUP13 RETURNCONTRACT 0x74 CALLER DUP11 INVALID 0x4D 0x1F BYTE 0xD3 PUSH21 0x624A34D964736F6C634300081E0033000000000000 "
				},
				"gasEstimates": {
					"creation": {
						"codeDepositCost": "1693200",
						"executionCost": "infinite",
						"totalCost": "infinite"
					},
					"external": {
						"allowedIncrement()": "infinite",
						"bid()": "infinite",
						"duration()": "infinite",
						"endTime()": "2470",
						"extension()": "infinite",
						"gasFee()": "infinite",
						"getBids()": "infinite",
						"getTimeLeft()": "infinite",
						"getWinnerBid()": "9273",
						"owner()": "infinite",
						"partialWithdraw()": "infinite",
						"refundAll()": "infinite",
						"startTime()": "infinite",
						"winnerBid()": "4778",
						"withdrawBalance()": "infinite"
					}
				},
				"methodIdentifiers": {
					"allowedIncrement()": "430efe6f",
					"bid()": "1998aeef",
					"duration()": "0fb5a6b4",
					"endTime()": "3197cbb6",
					"extension()": "2d5537b0",
					"gasFee()": "658612e9",
					"getBids()": "b81c78ec",
					"getTimeLeft()": "c7e284b8",
					"getWinnerBid()": "ceb98f6e",
					"owner()": "8da5cb5b",
					"partialWithdraw()": "f90ca117",
					"refundAll()": "38e771ab",
					"startTime()": "78e97925",
					"winnerBid()": "11631d06",
					"withdrawBalance()": "5fd8c710"
				}
			},
			"storageLayout": {
				"storage": [
					{
						"astId": 695,
						"contract": "Auction.sol:Auction",
						"label": "_status",
						"offset": 0,
						"slot": "0",
						"type": "t_uint256"
					},
					{
						"astId": 11,
						"contract": "Auction.sol:Auction",
						"label": "endTime",
						"offset": 0,
						"slot": "1",
						"type": "t_uint256"
					},
					{
						"astId": 33,
						"contract": "Auction.sol:Auction",
						"label": "winnerBid",
						"offset": 0,
						"slot": "2",
						"type": "t_struct(Bid)29_storage"
					},
					{
						"astId": 46,
						"contract": "Auction.sol:Auction",
						"label": "bids",
						"offset": 0,
						"slot": "4",
						"type": "t_mapping(t_address,t_struct(BidRecord)40_storage)"
					},
					{
						"astId": 50,
						"contract": "Auction.sol:Auction",
						"label": "bidders",
						"offset": 0,
						"slot": "5",
						"type": "t_array(t_address)dyn_storage"
					},
					{
						"astId": 54,
						"contract": "Auction.sol:Auction",
						"label": "isRefunded",
						"offset": 0,
						"slot": "6",
						"type": "t_bool"
					}
				],
				"types": {
					"t_address": {
						"encoding": "inplace",
						"label": "address",
						"numberOfBytes": "20"
					},
					"t_array(t_address)dyn_storage": {
						"base": "t_address",
						"encoding": "dynamic_array",
						"label": "address[]",
						"numberOfBytes": "32"
					},
					"t_bool": {
						"encoding": "inplace",
						"label": "bool",
						"numberOfBytes": "1"
					},
					"t_mapping(t_address,t_struct(BidRecord)40_storage)": {
						"encoding": "mapping",
						"key": "t_address",
						"label": "mapping(address => struct Auction.BidRecord)",
						"numberOfBytes": "32",
						"value": "t_struct(BidRecord)40_storage"
					},
					"t_struct(Bid)29_storage": {
						"encoding": "inplace",
						"label": "struct Auction.Bid",
						"members": [
							{
								"astId": 26,
								"contract": "Auction.sol:Auction",
								"label": "bidder",
								"offset": 0,
								"slot": "0",
								"type": "t_address"
							},
							{
								"astId": 28,
								"contract": "Auction.sol:Auction",
								"label": "amount",
								"offset": 0,
								"slot": "1",
								"type": "t_uint256"
							}
						],
						"numberOfBytes": "64"
					},
					"t_struct(BidRecord)40_storage": {
						"encoding": "inplace",
						"label": "struct Auction.BidRecord",
						"members": [
							{
								"astId": 37,
								"contract": "Auction.sol:Auction",
								"label": "bid",
								"offset": 0,
								"slot": "0",
								"type": "t_struct(Bid)29_storage"
							},
							{
								"astId": 39,
								"contract": "Auction.sol:Auction",
								"label": "pendingWithdraw",
								"offset": 0,
								"slot": "2",
								"type": "t_uint256"
							}
						],
						"numberOfBytes": "96"
					},
					"t_uint256": {
						"encoding": "inplace",
						"label": "uint256",
						"numberOfBytes": "32"
					}
				}
			},
			"userdoc": {
				"events": {
					"AuctionExtended(uint256,address,uint256)": {
						"notice": "Emitted when the auction is extended due to a new bid."
					},
					"AuctionFinished(address,uint256)": {
						"notice": "Emitted when the auction ends via the owner's refund action."
					},
					"NewBid(address,uint256)": {
						"notice": "Emitted when a new valid bid is placed."
					},
					"PartialWithdraw(address,uint256)": {
						"notice": "Emitted when a bidder performs a partial withdrawal during the auction."
					},
					"Refund(address,uint256)": {
						"notice": "Emitted when a bidder receives a refund."
					}
				},
				"kind": "user",
				"methods": {
					"allowedIncrement()": {
						"notice": "Required percentage increment (e.g., 5%) for a bid to be accepted."
					},
					"bid()": {
						"notice": "Places a new bid if it complies with the rules."
					},
					"constructor": {
						"notice": "Constructor of the Auction contract."
					},
					"duration()": {
						"notice": "Total duration of the auction."
					},
					"endTime()": {
						"notice": "End time of the auction. Can be extended during the auction."
					},
					"extension()": {
						"notice": "Time extension applied if a bid is placed within the last 10 minutes."
					},
					"gasFee()": {
						"notice": "Fee percentage (e.g., 2%) deducted from bid refunds for gas compensation."
					},
					"getBids()": {
						"notice": "Returns all bids in structured format."
					},
					"getTimeLeft()": {
						"notice": "Returns the remaining time before the auction ends."
					},
					"getWinnerBid()": {
						"notice": "Returns the current highest bid and bidder."
					},
					"owner()": {
						"notice": "Owner of the contract."
					},
					"partialWithdraw()": {
						"notice": "Allows bidders to partially withdraw previous bids (not the latest one).         No gas fee is deducted. Can only be done during the auction."
					},
					"refundAll()": {
						"notice": "Allows the owner to refund all bidders at the end of the auction.         The winner receives only their pendingWithdraw amount - 2%.         Others receive their pendingWithdraw + (bid - 2% fee).         Only owner is allowed to run the function."
					},
					"startTime()": {
						"notice": "Start time of the auction."
					},
					"winnerBid()": {
						"notice": "Current highest (winning) bid."
					},
					"withdrawBalance()": {
						"notice": "Function to withdraw balance remaining in the contract. Only owner allowed."
					}
				},
				"notice": "This contract allows users to participate in an auction.",
				"version": 1
			}
		}
	}
}