{
	"Auction.sol": {
		"Auction": {
			"abi": [
				{
					"inputs": [],
					"stateMutability": "nonpayable",
					"type": "constructor"
				},
				{
					"anonymous": false,
					"inputs": [
						{
							"indexed": true,
							"internalType": "address",
							"name": "bidder",
							"type": "address"
						},
						{
							"indexed": false,
							"internalType": "uint256",
							"name": "newEndTime",
							"type": "uint256"
						},
						{
							"indexed": false,
							"internalType": "uint256",
							"name": "bidAmount",
							"type": "uint256"
						}
					],
					"name": "AuctionExtended",
					"type": "event"
				},
				{
					"anonymous": false,
					"inputs": [
						{
							"indexed": true,
							"internalType": "address",
							"name": "winnerBidder",
							"type": "address"
						},
						{
							"indexed": false,
							"internalType": "uint256",
							"name": "winnerBid",
							"type": "uint256"
						}
					],
					"name": "AuctionFinished",
					"type": "event"
				},
				{
					"anonymous": false,
					"inputs": [
						{
							"indexed": true,
							"internalType": "address",
							"name": "bidder",
							"type": "address"
						},
						{
							"indexed": false,
							"internalType": "uint256",
							"name": "value",
							"type": "uint256"
						}
					],
					"name": "NewBid",
					"type": "event"
				},
				{
					"anonymous": false,
					"inputs": [
						{
							"indexed": true,
							"internalType": "address",
							"name": "bidder",
							"type": "address"
						},
						{
							"indexed": false,
							"internalType": "uint256",
							"name": "refundAmount",
							"type": "uint256"
						}
					],
					"name": "PartialRefund",
					"type": "event"
				},
				{
					"anonymous": false,
					"inputs": [
						{
							"indexed": true,
							"internalType": "address",
							"name": "bidder",
							"type": "address"
						},
						{
							"indexed": false,
							"internalType": "uint256",
							"name": "claimedAmount",
							"type": "uint256"
						}
					],
					"name": "Refund",
					"type": "event"
				},
				{
					"inputs": [],
					"name": "bid",
					"outputs": [],
					"stateMutability": "payable",
					"type": "function"
				},
				{
					"inputs": [],
					"name": "claim",
					"outputs": [],
					"stateMutability": "nonpayable",
					"type": "function"
				},
				{
					"inputs": [],
					"name": "duration",
					"outputs": [
						{
							"internalType": "uint256",
							"name": "",
							"type": "uint256"
						}
					],
					"stateMutability": "view",
					"type": "function"
				},
				{
					"inputs": [],
					"name": "endDate",
					"outputs": [
						{
							"internalType": "uint256",
							"name": "",
							"type": "uint256"
						}
					],
					"stateMutability": "view",
					"type": "function"
				},
				{
					"inputs": [],
					"name": "extension",
					"outputs": [
						{
							"internalType": "uint256",
							"name": "",
							"type": "uint256"
						}
					],
					"stateMutability": "view",
					"type": "function"
				},
				{
					"inputs": [],
					"name": "finalize",
					"outputs": [],
					"stateMutability": "nonpayable",
					"type": "function"
				},
				{
					"inputs": [],
					"name": "finalized",
					"outputs": [
						{
							"internalType": "bool",
							"name": "",
							"type": "bool"
						}
					],
					"stateMutability": "view",
					"type": "function"
				},
				{
					"inputs": [],
					"name": "gasFee",
					"outputs": [
						{
							"internalType": "uint256",
							"name": "",
							"type": "uint256"
						}
					],
					"stateMutability": "view",
					"type": "function"
				},
				{
					"inputs": [],
					"name": "getAllBids",
					"outputs": [
						{
							"components": [
								{
									"internalType": "address",
									"name": "bidder",
									"type": "address"
								},
								{
									"internalType": "uint256",
									"name": "amount",
									"type": "uint256"
								}
							],
							"internalType": "struct Auction.Bid[]",
							"name": "",
							"type": "tuple[]"
						}
					],
					"stateMutability": "view",
					"type": "function"
				},
				{
					"inputs": [],
					"name": "getTimeLeft",
					"outputs": [
						{
							"internalType": "uint256",
							"name": "",
							"type": "uint256"
						}
					],
					"stateMutability": "view",
					"type": "function"
				},
				{
					"inputs": [],
					"name": "getWinnerBid",
					"outputs": [
						{
							"components": [
								{
									"internalType": "address",
									"name": "bidder",
									"type": "address"
								},
								{
									"internalType": "uint256",
									"name": "amount",
									"type": "uint256"
								}
							],
							"internalType": "struct Auction.Bid",
							"name": "",
							"type": "tuple"
						}
					],
					"stateMutability": "view",
					"type": "function"
				},
				{
					"inputs": [],
					"name": "increment",
					"outputs": [
						{
							"internalType": "uint256",
							"name": "",
							"type": "uint256"
						}
					],
					"stateMutability": "view",
					"type": "function"
				},
				{
					"inputs": [],
					"name": "owner",
					"outputs": [
						{
							"internalType": "address",
							"name": "",
							"type": "address"
						}
					],
					"stateMutability": "view",
					"type": "function"
				},
				{
					"inputs": [],
					"name": "startDate",
					"outputs": [
						{
							"internalType": "uint256",
							"name": "",
							"type": "uint256"
						}
					],
					"stateMutability": "view",
					"type": "function"
				}
			],
			"devdoc": {
				"author": "Fernando Malaspina",
				"details": "Las reglas de la subasta son las siguientes: - No se admiten pujas inferiores a un 5% mayores a la ultima puja. - El precio base de la subasta es 1 ether. - La duración estipulada es de 1 hora. - El plazo de la subasta se extiende en 10 minutos con cada nueva oferta válida.  Esta regla aplica siempre a partir de 10 minutos antes del plazo original de la subasta.  De esta manera los competidores tienen suficiente tiempo para presentar una nueva oferta si así lo desean.",
				"events": {
					"AuctionExtended(address,uint256,uint256)": {
						"params": {
							"bidAmount": "Valor de la puja",
							"bidder": "Dirección del ofertante",
							"newEndTime": "Nueva fecha de fin de subasta"
						}
					},
					"AuctionFinished(address,uint256)": {
						"params": {
							"winnerBid": "Valor de la puja en wei",
							"winnerBidder": "Dirección del usuario que ganó la subasta"
						}
					},
					"NewBid(address,uint256)": {
						"params": {
							"bidder": "Dirección del usuario que hizo la puja",
							"value": "Valor de la puja en wei"
						}
					},
					"PartialRefund(address,uint256)": {
						"params": {
							"bidder": "Dirección del ofertante",
							"refundAmount": "Valor por sobre la puja menos 2% de gas"
						}
					},
					"Refund(address,uint256)": {
						"params": {
							"bidder": "Dirección del ofertante",
							"claimedAmount": "Valor de la puja menos 2% de gas"
						}
					}
				},
				"kind": "dev",
				"methods": {
					"bid()": {
						"details": "Lanza error si no supera el 5% o si ya es el ofertante ganador"
					},
					"finalize()": {
						"details": "Deberia tener modifier onlyOwner, pero se deja sin para que los profes puedan probar la finalizacion"
					},
					"getAllBids()": {
						"returns": {
							"_0": "Bid[] Una lista de structs con el address del postor y su puja"
						}
					},
					"getTimeLeft()": {
						"returns": {
							"_0": "uint256 timeLeft"
						}
					},
					"getWinnerBid()": {
						"returns": {
							"_0": "Struct Bid con address y valor ofertado"
						}
					}
				},
				"title": "Subasta pública",
				"version": 1
			},
			"evm": {
				"assembly": "    /* \"Auction.sol\":680:6841  contract Auction {... */\n  mstore(0x40, 0x0140)\n    /* \"Auction.sol\":1228:1519  constructor() {... */\n  callvalue\n  dup1\n  iszero\n  tag_1\n  jumpi\n  revert(0x00, 0x00)\ntag_1:\n  pop\n    /* \"Auction.sol\":1260:1270  msg.sender */\n  caller\n    /* \"Auction.sol\":1252:1270  owner = msg.sender */\n  0xffffffffffffffffffffffffffffffffffffffff\n  and\n  0x80\n  dup2\n  0xffffffffffffffffffffffffffffffffffffffff\n  and\n  dup2\n  mstore\n  pop\n  pop\n    /* \"Auction.sol\":1292:1307  block.timestamp */\n  timestamp\n    /* \"Auction.sol\":1280:1307  startDate = block.timestamp */\n  0xa0\n  dup2\n  dup2\n  mstore\n  pop\n  pop\n    /* \"Auction.sol\":1328:1338  15 minutes */\n  0x0384\n    /* \"Auction.sol\":1317:1338  duration = 15 minutes */\n  0xc0\n  dup2\n  dup2\n  mstore\n  pop\n  pop\n    /* \"Auction.sol\":1370:1378  duration */\n  mload(0xc0)\n    /* \"Auction.sol\":1358:1367  startDate */\n  mload(0xa0)\n    /* \"Auction.sol\":1358:1378  startDate + duration */\n  tag_4\n  swap2\n  swap1\n  tag_5\n  jump\t// in\ntag_4:\n    /* \"Auction.sol\":1348:1355  endDate */\n  0x00\n    /* \"Auction.sol\":1348:1378  endDate = startDate + duration */\n  dup2\n  swap1\n  sstore\n  pop\n    /* \"Auction.sol\":1400:1410  0.95 ether */\n  0x0d2f13f7789f0000\n    /* \"Auction.sol\":1388:1397  winnerBid */\n  0x02\n    /* \"Auction.sol\":1388:1410  winnerBid = 0.95 ether */\n  dup2\n  swap1\n  sstore\n  pop\n    /* \"Auction.sol\":1432:1433  5 */\n  0x05\n    /* \"Auction.sol\":1420:1433  increment = 5 */\n  0xe0\n  dup2\n  dup2\n  mstore\n  pop\n  pop\n    /* \"Auction.sol\":1455:1460  false */\n  0x00\n    /* \"Auction.sol\":1443:1452  finalized */\n  0x04\n  0x00\n    /* \"Auction.sol\":1443:1460  finalized = false */\n  0x0100\n  exp\n  dup2\n  sload\n  dup2\n  0xff\n  mul\n  not\n  and\n  swap1\n  dup4\n  iszero\n  iszero\n  mul\n  or\n  swap1\n  sstore\n  pop\n    /* \"Auction.sol\":1482:1492  10 minutes */\n  0x0258\n    /* \"Auction.sol\":1470:1492  extension = 10 minutes */\n  0x0100\n  dup2\n  dup2\n  mstore\n  pop\n  pop\n    /* \"Auction.sol\":1511:1512  2 */\n  0x02\n    /* \"Auction.sol\":1502:1512  gasFee = 2 */\n  0x0120\n  dup2\n  dup2\n  mstore\n  pop\n  pop\n    /* \"Auction.sol\":680:6841  contract Auction {... */\n  jump(tag_6)\n    /* \"#utility.yul\":7:84   */\ntag_7:\n    /* \"#utility.yul\":44:51   */\n  0x00\n    /* \"#utility.yul\":73:78   */\n  dup2\n    /* \"#utility.yul\":62:78   */\n  swap1\n  pop\n    /* \"#utility.yul\":7:84   */\n  swap2\n  swap1\n  pop\n  jump\t// out\n    /* \"#utility.yul\":90:270   */\ntag_8:\n    /* \"#utility.yul\":138:215   */\n  0x4e487b7100000000000000000000000000000000000000000000000000000000\n    /* \"#utility.yul\":135:136   */\n  0x00\n    /* \"#utility.yul\":128:216   */\n  mstore\n    /* \"#utility.yul\":235:239   */\n  0x11\n    /* \"#utility.yul\":232:233   */\n  0x04\n    /* \"#utility.yul\":225:240   */\n  mstore\n    /* \"#utility.yul\":259:263   */\n  0x24\n    /* \"#utility.yul\":256:257   */\n  0x00\n    /* \"#utility.yul\":249:264   */\n  revert\n    /* \"#utility.yul\":276:467   */\ntag_5:\n    /* \"#utility.yul\":316:319   */\n  0x00\n    /* \"#utility.yul\":335:355   */\n  tag_13\n    /* \"#utility.yul\":353:354   */\n  dup3\n    /* \"#utility.yul\":335:355   */\n  tag_7\n  jump\t// in\ntag_13:\n    /* \"#utility.yul\":330:355   */\n  swap2\n  pop\n    /* \"#utility.yul\":369:389   */\n  tag_14\n    /* \"#utility.yul\":387:388   */\n  dup4\n    /* \"#utility.yul\":369:389   */\n  tag_7\n  jump\t// in\ntag_14:\n    /* \"#utility.yul\":364:389   */\n  swap3\n  pop\n    /* \"#utility.yul\":412:413   */\n  dup3\n    /* \"#utility.yul\":409:410   */\n  dup3\n    /* \"#utility.yul\":405:414   */\n  add\n    /* \"#utility.yul\":398:414   */\n  swap1\n  pop\n    /* \"#utility.yul\":433:436   */\n  dup1\n    /* \"#utility.yul\":430:431   */\n  dup3\n    /* \"#utility.yul\":427:437   */\n  gt\n    /* \"#utility.yul\":424:460   */\n  iszero\n  tag_15\n  jumpi\n    /* \"#utility.yul\":440:458   */\n  tag_16\n  tag_8\n  jump\t// in\ntag_16:\n    /* \"#utility.yul\":424:460   */\ntag_15:\n    /* \"#utility.yul\":276:467   */\n  swap3\n  swap2\n  pop\n  pop\n  jump\t// out\n    /* \"Auction.sol\":680:6841  contract Auction {... */\ntag_6:\n  mload(0x80)\n  mload(0xa0)\n  mload(0xc0)\n  mload(0xe0)\n  mload(0x0100)\n  mload(0x0120)\n  codecopy(0x00, dataOffset(sub_0), dataSize(sub_0))\n  0x00\n  assignImmutable(\"0x731dc163f73d31d8c68f9917ce4ff967753939f70432973c04fd2c2a48148607\")\n  0x00\n  assignImmutable(\"0x8fef2229291b68be841adf029e58b87f39ba144b2d3b0af1760243d0a9bc6a1c\")\n  0x00\n  assignImmutable(\"0x277ab82e5a4641341820a4a2933a62c1de997e42e92548657ae21b3728d580fe\")\n  0x00\n  assignImmutable(\"0x1a192fabce13988b84994d4296e6cdc418d55e2f1d7f942188d4040b94fc57ac\")\n  0x00\n  assignImmutable(\"0xe455bf8ea6e7463a1046a0b52804526e119b4bf5136279614e0b1e8e296a4e2d\")\n  0x00\n  assignImmutable(\"0x13600b294191fc92924bb3ce4b969c1e7e2bab8f4c93c3fc6d0a51733df3c060\")\n  return(0x00, dataSize(sub_0))\nstop\n\nsub_0: assembly {\n        /* \"Auction.sol\":680:6841  contract Auction {... */\n      mstore(0x40, 0x80)\n      jumpi(tag_1, lt(calldatasize, 0x04))\n      shr(0xe0, calldataload(0x00))\n      dup1\n      0x8d0f6da3\n      gt\n      tag_16\n      jumpi\n      dup1\n      0xc24a0f8b\n      gt\n      tag_17\n      jumpi\n      dup1\n      0xc24a0f8b\n      eq\n      tag_12\n      jumpi\n      dup1\n      0xc7e284b8\n      eq\n      tag_13\n      jumpi\n      dup1\n      0xceb98f6e\n      eq\n      tag_14\n      jumpi\n      dup1\n      0xd09de08a\n      eq\n      tag_15\n      jumpi\n      jump(tag_1)\n    tag_17:\n      dup1\n      0x8d0f6da3\n      eq\n      tag_9\n      jumpi\n      dup1\n      0x8da5cb5b\n      eq\n      tag_10\n      jumpi\n      dup1\n      0xb3f05b97\n      eq\n      tag_11\n      jumpi\n      jump(tag_1)\n    tag_16:\n      dup1\n      0x2d5537b0\n      gt\n      tag_18\n      jumpi\n      dup1\n      0x2d5537b0\n      eq\n      tag_5\n      jumpi\n      dup1\n      0x4bb278f3\n      eq\n      tag_6\n      jumpi\n      dup1\n      0x4e71d92d\n      eq\n      tag_7\n      jumpi\n      dup1\n      0x658612e9\n      eq\n      tag_8\n      jumpi\n      jump(tag_1)\n    tag_18:\n      dup1\n      0x0b97bc86\n      eq\n      tag_2\n      jumpi\n      dup1\n      0x0fb5a6b4\n      eq\n      tag_3\n      jumpi\n      dup1\n      0x1998aeef\n      eq\n      tag_4\n      jumpi\n    tag_1:\n      revert(0x00, 0x00)\n        /* \"Auction.sol\":739:773  uint256 public immutable startDate */\n    tag_2:\n      callvalue\n      dup1\n      iszero\n      tag_19\n      jumpi\n      revert(0x00, 0x00)\n    tag_19:\n      pop\n      tag_20\n      tag_21\n      jump\t// in\n    tag_20:\n      mload(0x40)\n      tag_22\n      swap2\n      swap1\n      tag_23\n      jump\t// in\n    tag_22:\n      mload(0x40)\n      dup1\n      swap2\n      sub\n      swap1\n      return\n        /* \"Auction.sol\":807:840  uint256 public immutable duration */\n    tag_3:\n      callvalue\n      dup1\n      iszero\n      tag_24\n      jumpi\n      revert(0x00, 0x00)\n    tag_24:\n      pop\n      tag_25\n      tag_26\n      jump\t// in\n    tag_25:\n      mload(0x40)\n      tag_27\n      swap2\n      swap1\n      tag_23\n      jump\t// in\n    tag_27:\n      mload(0x40)\n      dup1\n      swap2\n      sub\n      swap1\n      return\n        /* \"Auction.sol\":3740:4635  function bid() nonReentrant onlyStillActive onlyGreaterBid onlyOtherThanWinnerBidder external payable  {... */\n    tag_4:\n      tag_28\n      tag_29\n      jump\t// in\n    tag_28:\n      stop\n        /* \"Auction.sol\":951:985  uint256 public immutable extension */\n    tag_5:\n      callvalue\n      dup1\n      iszero\n      tag_30\n      jumpi\n      revert(0x00, 0x00)\n    tag_30:\n      pop\n      tag_31\n      tag_32\n      jump\t// in\n    tag_31:\n      mload(0x40)\n      tag_33\n      swap2\n      swap1\n      tag_23\n      jump\t// in\n    tag_33:\n      mload(0x40)\n      dup1\n      swap2\n      sub\n      swap1\n      return\n        /* \"Auction.sol\":5859:6033  function finalize() external onlyFinished onlyNotFinalized nonReentrant {... */\n    tag_6:\n      callvalue\n      dup1\n      iszero\n      tag_34\n      jumpi\n      revert(0x00, 0x00)\n    tag_34:\n      pop\n      tag_35\n      tag_36\n      jump\t// in\n    tag_35:\n      stop\n        /* \"Auction.sol\":6098:6831  function claim() external nonReentrant onlyFinished onlyOtherThanWinnerBidder {        ... */\n    tag_7:\n      callvalue\n      dup1\n      iszero\n      tag_37\n      jumpi\n      revert(0x00, 0x00)\n    tag_37:\n      pop\n      tag_38\n      tag_39\n      jump\t// in\n    tag_38:\n      stop\n        /* \"Auction.sol\":991:1022  uint256 public immutable gasFee */\n    tag_8:\n      callvalue\n      dup1\n      iszero\n      tag_40\n      jumpi\n      revert(0x00, 0x00)\n    tag_40:\n      pop\n      tag_41\n      tag_42\n      jump\t// in\n    tag_41:\n      mload(0x40)\n      tag_43\n      swap2\n      swap1\n      tag_23\n      jump\t// in\n    tag_43:\n      mload(0x40)\n      dup1\n      swap2\n      sub\n      swap1\n      return\n        /* \"Auction.sol\":4805:5157  function getAllBids() external view returns (Bid[] memory) {... */\n    tag_9:\n      callvalue\n      dup1\n      iszero\n      tag_44\n      jumpi\n      revert(0x00, 0x00)\n    tag_44:\n      pop\n      tag_45\n      tag_46\n      jump\t// in\n    tag_45:\n      mload(0x40)\n      tag_47\n      swap2\n      swap1\n      tag_48\n      jump\t// in\n    tag_47:\n      mload(0x40)\n      dup1\n      swap2\n      sub\n      swap1\n      return\n        /* \"Auction.sol\":703:733  address public immutable owner */\n    tag_10:\n      callvalue\n      dup1\n      iszero\n      tag_49\n      jumpi\n      revert(0x00, 0x00)\n    tag_49:\n      pop\n      tag_50\n      tag_51\n      jump\t// in\n    tag_50:\n      mload(0x40)\n      tag_52\n      swap2\n      swap1\n      tag_53\n      jump\t// in\n    tag_52:\n      mload(0x40)\n      dup1\n      swap2\n      sub\n      swap1\n      return\n        /* \"Auction.sol\":1145:1166  bool public finalized */\n    tag_11:\n      callvalue\n      dup1\n      iszero\n      tag_54\n      jumpi\n      revert(0x00, 0x00)\n    tag_54:\n      pop\n      tag_55\n      tag_56\n      jump\t// in\n    tag_55:\n      mload(0x40)\n      tag_57\n      swap2\n      swap1\n      tag_58\n      jump\t// in\n    tag_57:\n      mload(0x40)\n      dup1\n      swap2\n      sub\n      swap1\n      return\n        /* \"Auction.sol\":779:801  uint256 public endDate */\n    tag_12:\n      callvalue\n      dup1\n      iszero\n      tag_59\n      jumpi\n      revert(0x00, 0x00)\n    tag_59:\n      pop\n      tag_60\n      tag_61\n      jump\t// in\n    tag_60:\n      mload(0x40)\n      tag_62\n      swap2\n      swap1\n      tag_23\n      jump\t// in\n    tag_62:\n      mload(0x40)\n      dup1\n      swap2\n      sub\n      swap1\n      return\n        /* \"Auction.sol\":5259:5456  function getTimeLeft() external view returns (uint256) {... */\n    tag_13:\n      callvalue\n      dup1\n      iszero\n      tag_63\n      jumpi\n      revert(0x00, 0x00)\n    tag_63:\n      pop\n      tag_64\n      tag_65\n      jump\t// in\n    tag_64:\n      mload(0x40)\n      tag_66\n      swap2\n      swap1\n      tag_23\n      jump\t// in\n    tag_66:\n      mload(0x40)\n      dup1\n      swap2\n      sub\n      swap1\n      return\n        /* \"Auction.sol\":5602:5739  function getWinnerBid() external view returns (Bid memory) {... */\n    tag_14:\n      callvalue\n      dup1\n      iszero\n      tag_67\n      jumpi\n      revert(0x00, 0x00)\n    tag_67:\n      pop\n      tag_68\n      tag_69\n      jump\t// in\n    tag_68:\n      mload(0x40)\n      tag_70\n      swap2\n      swap1\n      tag_71\n      jump\t// in\n    tag_70:\n      mload(0x40)\n      dup1\n      swap2\n      sub\n      swap1\n      return\n        /* \"Auction.sol\":911:945  uint256 public immutable increment */\n    tag_15:\n      callvalue\n      dup1\n      iszero\n      tag_72\n      jumpi\n      revert(0x00, 0x00)\n    tag_72:\n      pop\n      tag_73\n      tag_74\n      jump\t// in\n    tag_73:\n      mload(0x40)\n      tag_75\n      swap2\n      swap1\n      tag_23\n      jump\t// in\n    tag_75:\n      mload(0x40)\n      dup1\n      swap2\n      sub\n      swap1\n      return\n        /* \"Auction.sol\":739:773  uint256 public immutable startDate */\n    tag_21:\n      immutable(\"0xe455bf8ea6e7463a1046a0b52804526e119b4bf5136279614e0b1e8e296a4e2d\")\n      dup2\n      jump\t// out\n        /* \"Auction.sol\":807:840  uint256 public immutable duration */\n    tag_26:\n      immutable(\"0x1a192fabce13988b84994d4296e6cdc418d55e2f1d7f942188d4040b94fc57ac\")\n      dup2\n      jump\t// out\n        /* \"Auction.sol\":3740:4635  function bid() nonReentrant onlyStillActive onlyGreaterBid onlyOtherThanWinnerBidder external payable  {... */\n    tag_29:\n        /* \"Auction.sol\":2937:2943  locked */\n      0x06\n      0x00\n      swap1\n      sload\n      swap1\n      0x0100\n      exp\n      swap1\n      div\n      0xff\n      and\n        /* \"Auction.sol\":2936:2943  !locked */\n      iszero\n        /* \"Auction.sol\":2928:2955  require(!locked, \"reentr.\") */\n      tag_77\n      jumpi\n      mload(0x40)\n      0x08c379a000000000000000000000000000000000000000000000000000000000\n      dup2\n      mstore\n      0x04\n      add\n      tag_78\n      swap1\n      tag_79\n      jump\t// in\n    tag_78:\n      mload(0x40)\n      dup1\n      swap2\n      sub\n      swap1\n      revert\n    tag_77:\n        /* \"Auction.sol\":2975:2979  true */\n      0x01\n        /* \"Auction.sol\":2966:2972  locked */\n      0x06\n      0x00\n        /* \"Auction.sol\":2966:2979  locked = true */\n      0x0100\n      exp\n      dup2\n      sload\n      dup2\n      0xff\n      mul\n      not\n      and\n      swap1\n      dup4\n      iszero\n      iszero\n      mul\n      or\n      swap1\n      sstore\n      pop\n        /* \"Auction.sol\":3093:3100  endDate */\n      sload(0x00)\n        /* \"Auction.sol\":3075:3090  block.timestamp */\n      timestamp\n        /* \"Auction.sol\":3075:3100  block.timestamp < endDate */\n      lt\n        /* \"Auction.sol\":3067:3122  require(block.timestamp < endDate, \"Contrato expirado\") */\n      tag_81\n      jumpi\n      mload(0x40)\n      0x08c379a000000000000000000000000000000000000000000000000000000000\n      dup2\n      mstore\n      0x04\n      add\n      tag_82\n      swap1\n      tag_83\n      jump\t// in\n    tag_82:\n      mload(0x40)\n      dup1\n      swap2\n      sub\n      swap1\n      revert\n    tag_81:\n        /* \"Auction.sol\":3500:3503  100 */\n      0x64\n        /* \"Auction.sol\":3492:3495  100 */\n      dup1\n        /* \"Auction.sol\":3482:3491  increment */\n      immutable(\"0x277ab82e5a4641341820a4a2933a62c1de997e42e92548657ae21b3728d580fe\")\n        /* \"Auction.sol\":3482:3495  increment+100 */\n      tag_85\n      swap2\n      swap1\n      tag_86\n      jump\t// in\n    tag_85:\n        /* \"Auction.sol\":3469:3478  winnerBid */\n      sload(0x02)\n        /* \"Auction.sol\":3469:3496  winnerBid * (increment+100) */\n      tag_87\n      swap2\n      swap1\n      tag_88\n      jump\t// in\n    tag_87:\n        /* \"Auction.sol\":3468:3503  (winnerBid * (increment+100)) / 100 */\n      tag_89\n      swap2\n      swap1\n      tag_90\n      jump\t// in\n    tag_89:\n        /* \"Auction.sol\":3456:3465  msg.value */\n      callvalue\n        /* \"Auction.sol\":3456:3503  msg.value > (winnerBid * (increment+100)) / 100 */\n      gt\n        /* \"Auction.sol\":3448:3560  require(msg.value > (winnerBid * (increment+100)) / 100, \"Puja con menos de 5% de incremento sobre la ganadora\") */\n      tag_91\n      jumpi\n      mload(0x40)\n      0x08c379a000000000000000000000000000000000000000000000000000000000\n      dup2\n      mstore\n      0x04\n      add\n      tag_92\n      swap1\n      tag_93\n      jump\t// in\n    tag_92:\n      mload(0x40)\n      dup1\n      swap2\n      sub\n      swap1\n      revert\n    tag_91:\n        /* \"Auction.sol\":3343:3355  winnerBidder */\n      0x01\n      0x00\n      swap1\n      sload\n      swap1\n      0x0100\n      exp\n      swap1\n      div\n      0xffffffffffffffffffffffffffffffffffffffff\n      and\n        /* \"Auction.sol\":3329:3355  msg.sender != winnerBidder */\n      0xffffffffffffffffffffffffffffffffffffffff\n      and\n        /* \"Auction.sol\":3329:3339  msg.sender */\n      caller\n        /* \"Auction.sol\":3329:3355  msg.sender != winnerBidder */\n      0xffffffffffffffffffffffffffffffffffffffff\n      and\n      sub\n        /* \"Auction.sol\":3321:3388  require(msg.sender != winnerBidder, \"Usted ya tiene la mejor puja\") */\n      tag_95\n      jumpi\n      mload(0x40)\n      0x08c379a000000000000000000000000000000000000000000000000000000000\n      dup2\n      mstore\n      0x04\n      add\n      tag_96\n      swap1\n      tag_97\n      jump\t// in\n    tag_96:\n      mload(0x40)\n      dup1\n      swap2\n      sub\n      swap1\n      revert\n    tag_95:\n        /* \"Auction.sol\":3865:3875  msg.sender */\n      caller\n        /* \"Auction.sol\":3858:3887  NewBid(msg.sender, msg.value) */\n      0xffffffffffffffffffffffffffffffffffffffff\n      and\n      0xdd0b6c6a77960e2066c96171b4d7ac9e8b4c184011f38544afa36a5bb63ec59f\n        /* \"Auction.sol\":3877:3886  msg.value */\n      callvalue\n        /* \"Auction.sol\":3858:3887  NewBid(msg.sender, msg.value) */\n      mload(0x40)\n      tag_99\n      swap2\n      swap1\n      tag_23\n      jump\t// in\n    tag_99:\n      mload(0x40)\n      dup1\n      swap2\n      sub\n      swap1\n      log2\n        /* \"Auction.sol\":3912:3922  msg.sender */\n      caller\n        /* \"Auction.sol\":3897:3909  winnerBidder */\n      0x01\n      0x00\n        /* \"Auction.sol\":3897:3922  winnerBidder = msg.sender */\n      0x0100\n      exp\n      dup2\n      sload\n      dup2\n      0xffffffffffffffffffffffffffffffffffffffff\n      mul\n      not\n      and\n      swap1\n      dup4\n      0xffffffffffffffffffffffffffffffffffffffff\n      and\n      mul\n      or\n      swap1\n      sstore\n      pop\n        /* \"Auction.sol\":3944:3953  msg.value */\n      callvalue\n        /* \"Auction.sol\":3932:3941  winnerBid */\n      0x02\n        /* \"Auction.sol\":3932:3953  winnerBid = msg.value */\n      dup2\n      swap1\n      sstore\n      pop\n        /* \"Auction.sol\":3987:3988  0 */\n      0x00\n        /* \"Auction.sol\":3967:3971  bids */\n      0x03\n        /* \"Auction.sol\":3967:3983  bids[msg.sender] */\n      0x00\n        /* \"Auction.sol\":3972:3982  msg.sender */\n      caller\n        /* \"Auction.sol\":3967:3983  bids[msg.sender] */\n      0xffffffffffffffffffffffffffffffffffffffff\n      and\n      0xffffffffffffffffffffffffffffffffffffffff\n      and\n      dup2\n      mstore\n      0x20\n      add\n      swap1\n      dup2\n      mstore\n      0x20\n      add\n      0x00\n      keccak256\n      sload\n        /* \"Auction.sol\":3967:3988  bids[msg.sender] == 0 */\n      sub\n        /* \"Auction.sol\":3963:4078  if (bids[msg.sender] == 0) {... */\n      tag_100\n      jumpi\n        /* \"Auction.sol\":4004:4011  bidders */\n      0x05\n        /* \"Auction.sol\":4017:4027  msg.sender */\n      caller\n        /* \"Auction.sol\":4004:4028  bidders.push(msg.sender) */\n      swap1\n      dup1\n      0x01\n      dup2\n      sload\n      add\n      dup1\n      dup3\n      sstore\n      dup1\n      swap2\n      pop\n      pop\n      0x01\n      swap1\n      sub\n      swap1\n      0x00\n      mstore\n      keccak256(0x00, 0x20)\n      add\n      0x00\n      swap1\n      swap2\n      swap1\n      swap2\n      swap1\n      swap2\n      0x0100\n      exp\n      dup2\n      sload\n      dup2\n      0xffffffffffffffffffffffffffffffffffffffff\n      mul\n      not\n      and\n      swap1\n      dup4\n      0xffffffffffffffffffffffffffffffffffffffff\n      and\n      mul\n      or\n      swap1\n      sstore\n      pop\n        /* \"Auction.sol\":3963:4078  if (bids[msg.sender] == 0) {... */\n    tag_100:\n        /* \"Auction.sol\":4087:4109  uint256 previousAmount */\n      0x00\n        /* \"Auction.sol\":4112:4116  bids */\n      0x03\n        /* \"Auction.sol\":4112:4128  bids[msg.sender] */\n      0x00\n        /* \"Auction.sol\":4117:4127  msg.sender */\n      caller\n        /* \"Auction.sol\":4112:4128  bids[msg.sender] */\n      0xffffffffffffffffffffffffffffffffffffffff\n      and\n      0xffffffffffffffffffffffffffffffffffffffff\n      and\n      dup2\n      mstore\n      0x20\n      add\n      swap1\n      dup2\n      mstore\n      0x20\n      add\n      0x00\n      keccak256\n      sload\n        /* \"Auction.sol\":4087:4128  uint256 previousAmount = bids[msg.sender] */\n      swap1\n      pop\n        /* \"Auction.sol\":4138:4158  uint256 refundAmount */\n      0x00\n        /* \"Auction.sol\":4197:4200  100 */\n      0x64\n        /* \"Auction.sol\":4186:4192  gasFee */\n      immutable(\"0x731dc163f73d31d8c68f9917ce4ff967753939f70432973c04fd2c2a48148607\")\n        /* \"Auction.sol\":4180:4183  100 */\n      0x64\n        /* \"Auction.sol\":4180:4192  100 - gasFee */\n      tag_102\n      swap2\n      swap1\n      tag_103\n      jump\t// in\n    tag_102:\n        /* \"Auction.sol\":4162:4176  previousAmount */\n      dup4\n        /* \"Auction.sol\":4162:4193  previousAmount * (100 - gasFee) */\n      tag_104\n      swap2\n      swap1\n      tag_88\n      jump\t// in\n    tag_104:\n        /* \"Auction.sol\":4161:4200  (previousAmount * (100 - gasFee)) / 100 */\n      tag_105\n      swap2\n      swap1\n      tag_90\n      jump\t// in\n    tag_105:\n        /* \"Auction.sol\":4138:4200  uint256 refundAmount = (previousAmount * (100 - gasFee)) / 100 */\n      swap1\n      pop\n        /* \"Auction.sol\":4229:4238  msg.value */\n      callvalue\n        /* \"Auction.sol\":4210:4214  bids */\n      0x03\n        /* \"Auction.sol\":4210:4226  bids[msg.sender] */\n      0x00\n        /* \"Auction.sol\":4215:4225  msg.sender */\n      caller\n        /* \"Auction.sol\":4210:4226  bids[msg.sender] */\n      0xffffffffffffffffffffffffffffffffffffffff\n      and\n      0xffffffffffffffffffffffffffffffffffffffff\n      and\n      dup2\n      mstore\n      0x20\n      add\n      swap1\n      dup2\n      mstore\n      0x20\n      add\n      0x00\n      keccak256\n        /* \"Auction.sol\":4210:4238  bids[msg.sender] = msg.value */\n      dup2\n      swap1\n      sstore\n      pop\n        /* \"Auction.sol\":4281:4290  extension */\n      immutable(\"0x8fef2229291b68be841adf029e58b87f39ba144b2d3b0af1760243d0a9bc6a1c\")\n        /* \"Auction.sol\":4271:4278  endDate */\n      sload(0x00)\n        /* \"Auction.sol\":4271:4290  endDate - extension */\n      tag_106\n      swap2\n      swap1\n      tag_103\n      jump\t// in\n    tag_106:\n        /* \"Auction.sol\":4252:4267  block.timestamp */\n      timestamp\n        /* \"Auction.sol\":4252:4290  block.timestamp >= endDate - extension */\n      lt\n        /* \"Auction.sol\":4248:4458  if (block.timestamp >= endDate - extension) {... */\n      tag_107\n      jumpi\n        /* \"Auction.sol\":4306:4324  uint256 newEndTime */\n      0x00\n        /* \"Auction.sol\":4337:4346  extension */\n      immutable(\"0x8fef2229291b68be841adf029e58b87f39ba144b2d3b0af1760243d0a9bc6a1c\")\n        /* \"Auction.sol\":4327:4334  endDate */\n      sload(0x00)\n        /* \"Auction.sol\":4327:4346  endDate + extension */\n      tag_108\n      swap2\n      swap1\n      tag_86\n      jump\t// in\n    tag_108:\n        /* \"Auction.sol\":4306:4346  uint256 newEndTime = endDate + extension */\n      swap1\n      pop\n        /* \"Auction.sol\":4370:4380  newEndTime */\n      dup1\n        /* \"Auction.sol\":4360:4367  endDate */\n      0x00\n        /* \"Auction.sol\":4360:4380  endDate = newEndTime */\n      dup2\n      swap1\n      sstore\n      pop\n        /* \"Auction.sol\":4415:4425  msg.sender */\n      caller\n        /* \"Auction.sol\":4399:4447  AuctionExtended(msg.sender,newEndTime,msg.value) */\n      0xffffffffffffffffffffffffffffffffffffffff\n      and\n      0x2241aa88c881d125cce08ef2a8f6bfd221ca46e27736a38f9353622a4303c705\n        /* \"Auction.sol\":4426:4436  newEndTime */\n      dup3\n        /* \"Auction.sol\":4437:4446  msg.value */\n      callvalue\n        /* \"Auction.sol\":4399:4447  AuctionExtended(msg.sender,newEndTime,msg.value) */\n      mload(0x40)\n      tag_109\n      swap3\n      swap2\n      swap1\n      tag_110\n      jump\t// in\n    tag_109:\n      mload(0x40)\n      dup1\n      swap2\n      sub\n      swap1\n      log2\n        /* \"Auction.sol\":4292:4458  {... */\n      pop\n        /* \"Auction.sol\":4248:4458  if (block.timestamp >= endDate - extension) {... */\n    tag_107:\n        /* \"Auction.sol\":4468:4477  bool sent */\n      0x00\n        /* \"Auction.sol\":4491:4501  msg.sender */\n      caller\n        /* \"Auction.sol\":4483:4507  payable(msg.sender).call */\n      0xffffffffffffffffffffffffffffffffffffffff\n      and\n        /* \"Auction.sol\":4515:4527  refundAmount */\n      dup3\n        /* \"Auction.sol\":4483:4532  payable(msg.sender).call{value: refundAmount}(\"\") */\n      mload(0x40)\n      tag_111\n      swap1\n      tag_112\n      jump\t// in\n    tag_111:\n      0x00\n      mload(0x40)\n      dup1\n      dup4\n      sub\n      dup2\n      dup6\n      dup8\n      gas\n      call\n      swap3\n      pop\n      pop\n      pop\n      returndatasize\n      dup1\n      0x00\n      dup2\n      eq\n      tag_115\n      jumpi\n      mload(0x40)\n      swap2\n      pop\n      and(add(returndatasize, 0x3f), not(0x1f))\n      dup3\n      add\n      0x40\n      mstore\n      returndatasize\n      dup3\n      mstore\n      returndatasize\n      0x00\n      0x20\n      dup5\n      add\n      returndatacopy\n      jump(tag_114)\n    tag_115:\n      0x60\n      swap2\n      pop\n    tag_114:\n      pop\n        /* \"Auction.sol\":4467:4532  (bool sent, ) = payable(msg.sender).call{value: refundAmount}(\"\") */\n      pop\n      swap1\n      pop\n        /* \"Auction.sol\":4550:4554  sent */\n      dup1\n        /* \"Auction.sol\":4542:4573  require(sent, \"Refund fallido\") */\n      tag_116\n      jumpi\n      mload(0x40)\n      0x08c379a000000000000000000000000000000000000000000000000000000000\n      dup2\n      mstore\n      0x04\n      add\n      tag_117\n      swap1\n      tag_118\n      jump\t// in\n    tag_117:\n      mload(0x40)\n      dup1\n      swap2\n      sub\n      swap1\n      revert\n    tag_116:\n        /* \"Auction.sol\":4602:4612  msg.sender */\n      caller\n        /* \"Auction.sol\":4588:4627  PartialRefund(msg.sender, refundAmount) */\n      0xffffffffffffffffffffffffffffffffffffffff\n      and\n      0xdce68997783ae47468b6fb0dd39cca315f9082d51d9ab3df8747c70512aa8ff2\n        /* \"Auction.sol\":4614:4626  refundAmount */\n      dup4\n        /* \"Auction.sol\":4588:4627  PartialRefund(msg.sender, refundAmount) */\n      mload(0x40)\n      tag_119\n      swap2\n      swap1\n      tag_23\n      jump\t// in\n    tag_119:\n      mload(0x40)\n      dup1\n      swap2\n      sub\n      swap1\n      log2\n        /* \"Auction.sol\":3843:4635  {... */\n      pop\n      pop\n      pop\n        /* \"Auction.sol\":3011:3016  false */\n      0x00\n        /* \"Auction.sol\":3002:3008  locked */\n      0x06\n      0x00\n        /* \"Auction.sol\":3002:3016  locked = false */\n      0x0100\n      exp\n      dup2\n      sload\n      dup2\n      0xff\n      mul\n      not\n      and\n      swap1\n      dup4\n      iszero\n      iszero\n      mul\n      or\n      swap1\n      sstore\n      pop\n        /* \"Auction.sol\":3740:4635  function bid() nonReentrant onlyStillActive onlyGreaterBid onlyOtherThanWinnerBidder external payable  {... */\n      jump\t// out\n        /* \"Auction.sol\":951:985  uint256 public immutable extension */\n    tag_32:\n      immutable(\"0x8fef2229291b68be841adf029e58b87f39ba144b2d3b0af1760243d0a9bc6a1c\")\n      dup2\n      jump\t// out\n        /* \"Auction.sol\":5859:6033  function finalize() external onlyFinished onlyNotFinalized nonReentrant {... */\n    tag_36:\n        /* \"Auction.sol\":3208:3215  endDate */\n      sload(0x00)\n        /* \"Auction.sol\":3189:3204  block.timestamp */\n      timestamp\n        /* \"Auction.sol\":3189:3215  block.timestamp >= endDate */\n      lt\n      iszero\n        /* \"Auction.sol\":3181:3250  require(block.timestamp >= endDate, \"El contrato aun no ha expirado\") */\n      tag_121\n      jumpi\n      mload(0x40)\n      0x08c379a000000000000000000000000000000000000000000000000000000000\n      dup2\n      mstore\n      0x04\n      add\n      tag_122\n      swap1\n      tag_123\n      jump\t// in\n    tag_122:\n      mload(0x40)\n      dup1\n      swap2\n      sub\n      swap1\n      revert\n    tag_121:\n        /* \"Auction.sol\":2839:2848  finalized */\n      0x04\n      0x00\n      swap1\n      sload\n      swap1\n      0x0100\n      exp\n      swap1\n      div\n      0xff\n      and\n        /* \"Auction.sol\":2838:2848  !finalized */\n      iszero\n        /* \"Auction.sol\":2830:2871  require(!finalized, \"Already finalized\" ) */\n      tag_125\n      jumpi\n      mload(0x40)\n      0x08c379a000000000000000000000000000000000000000000000000000000000\n      dup2\n      mstore\n      0x04\n      add\n      tag_126\n      swap1\n      tag_127\n      jump\t// in\n    tag_126:\n      mload(0x40)\n      dup1\n      swap2\n      sub\n      swap1\n      revert\n    tag_125:\n        /* \"Auction.sol\":2937:2943  locked */\n      0x06\n      0x00\n      swap1\n      sload\n      swap1\n      0x0100\n      exp\n      swap1\n      div\n      0xff\n      and\n        /* \"Auction.sol\":2936:2943  !locked */\n      iszero\n        /* \"Auction.sol\":2928:2955  require(!locked, \"reentr.\") */\n      tag_129\n      jumpi\n      mload(0x40)\n      0x08c379a000000000000000000000000000000000000000000000000000000000\n      dup2\n      mstore\n      0x04\n      add\n      tag_130\n      swap1\n      tag_79\n      jump\t// in\n    tag_130:\n      mload(0x40)\n      dup1\n      swap2\n      sub\n      swap1\n      revert\n    tag_129:\n        /* \"Auction.sol\":2975:2979  true */\n      0x01\n        /* \"Auction.sol\":2966:2972  locked */\n      0x06\n      0x00\n        /* \"Auction.sol\":2966:2979  locked = true */\n      0x0100\n      exp\n      dup2\n      sload\n      dup2\n      0xff\n      mul\n      not\n      and\n      swap1\n      dup4\n      iszero\n      iszero\n      mul\n      or\n      swap1\n      sstore\n      pop\n        /* \"Auction.sol\":5953:5957  true */\n      0x01\n        /* \"Auction.sol\":5941:5950  finalized */\n      0x04\n      0x00\n        /* \"Auction.sol\":5941:5957  finalized = true */\n      0x0100\n      exp\n      dup2\n      sload\n      dup2\n      0xff\n      mul\n      not\n      and\n      swap1\n      dup4\n      iszero\n      iszero\n      mul\n      or\n      swap1\n      sstore\n      pop\n        /* \"Auction.sol\":5988:6000  winnerBidder */\n      0x01\n      0x00\n      swap1\n      sload\n      swap1\n      0x0100\n      exp\n      swap1\n      div\n      0xffffffffffffffffffffffffffffffffffffffff\n      and\n        /* \"Auction.sol\":5972:6012  AuctionFinished(winnerBidder, winnerBid) */\n      0xffffffffffffffffffffffffffffffffffffffff\n      and\n      0x8b1ad6c69d3d79a05f5b1ec0de825e9bf67c6c70b8c25babd159976cf9990dff\n        /* \"Auction.sol\":6002:6011  winnerBid */\n      sload(0x02)\n        /* \"Auction.sol\":5972:6012  AuctionFinished(winnerBidder, winnerBid) */\n      mload(0x40)\n      tag_132\n      swap2\n      swap1\n      tag_23\n      jump\t// in\n    tag_132:\n      mload(0x40)\n      dup1\n      swap2\n      sub\n      swap1\n      log2\n        /* \"Auction.sol\":3011:3016  false */\n      0x00\n        /* \"Auction.sol\":3002:3008  locked */\n      0x06\n      0x00\n        /* \"Auction.sol\":3002:3016  locked = false */\n      0x0100\n      exp\n      dup2\n      sload\n      dup2\n      0xff\n      mul\n      not\n      and\n      swap1\n      dup4\n      iszero\n      iszero\n      mul\n      or\n      swap1\n      sstore\n      pop\n        /* \"Auction.sol\":5859:6033  function finalize() external onlyFinished onlyNotFinalized nonReentrant {... */\n      jump\t// out\n        /* \"Auction.sol\":6098:6831  function claim() external nonReentrant onlyFinished onlyOtherThanWinnerBidder {        ... */\n    tag_39:\n        /* \"Auction.sol\":2937:2943  locked */\n      0x06\n      0x00\n      swap1\n      sload\n      swap1\n      0x0100\n      exp\n      swap1\n      div\n      0xff\n      and\n        /* \"Auction.sol\":2936:2943  !locked */\n      iszero\n        /* \"Auction.sol\":2928:2955  require(!locked, \"reentr.\") */\n      tag_134\n      jumpi\n      mload(0x40)\n      0x08c379a000000000000000000000000000000000000000000000000000000000\n      dup2\n      mstore\n      0x04\n      add\n      tag_135\n      swap1\n      tag_79\n      jump\t// in\n    tag_135:\n      mload(0x40)\n      dup1\n      swap2\n      sub\n      swap1\n      revert\n    tag_134:\n        /* \"Auction.sol\":2975:2979  true */\n      0x01\n        /* \"Auction.sol\":2966:2972  locked */\n      0x06\n      0x00\n        /* \"Auction.sol\":2966:2979  locked = true */\n      0x0100\n      exp\n      dup2\n      sload\n      dup2\n      0xff\n      mul\n      not\n      and\n      swap1\n      dup4\n      iszero\n      iszero\n      mul\n      or\n      swap1\n      sstore\n      pop\n        /* \"Auction.sol\":3208:3215  endDate */\n      sload(0x00)\n        /* \"Auction.sol\":3189:3204  block.timestamp */\n      timestamp\n        /* \"Auction.sol\":3189:3215  block.timestamp >= endDate */\n      lt\n      iszero\n        /* \"Auction.sol\":3181:3250  require(block.timestamp >= endDate, \"El contrato aun no ha expirado\") */\n      tag_137\n      jumpi\n      mload(0x40)\n      0x08c379a000000000000000000000000000000000000000000000000000000000\n      dup2\n      mstore\n      0x04\n      add\n      tag_138\n      swap1\n      tag_123\n      jump\t// in\n    tag_138:\n      mload(0x40)\n      dup1\n      swap2\n      sub\n      swap1\n      revert\n    tag_137:\n        /* \"Auction.sol\":3343:3355  winnerBidder */\n      0x01\n      0x00\n      swap1\n      sload\n      swap1\n      0x0100\n      exp\n      swap1\n      div\n      0xffffffffffffffffffffffffffffffffffffffff\n      and\n        /* \"Auction.sol\":3329:3355  msg.sender != winnerBidder */\n      0xffffffffffffffffffffffffffffffffffffffff\n      and\n        /* \"Auction.sol\":3329:3339  msg.sender */\n      caller\n        /* \"Auction.sol\":3329:3355  msg.sender != winnerBidder */\n      0xffffffffffffffffffffffffffffffffffffffff\n      and\n      sub\n        /* \"Auction.sol\":3321:3388  require(msg.sender != winnerBidder, \"Usted ya tiene la mejor puja\") */\n      tag_140\n      jumpi\n      mload(0x40)\n      0x08c379a000000000000000000000000000000000000000000000000000000000\n      dup2\n      mstore\n      0x04\n      add\n      tag_141\n      swap1\n      tag_97\n      jump\t// in\n    tag_141:\n      mload(0x40)\n      dup1\n      swap2\n      sub\n      swap1\n      revert\n    tag_140:\n        /* \"Auction.sol\":6194:6211  uint256 bidAmount */\n      0x00\n        /* \"Auction.sol\":6214:6218  bids */\n      0x03\n        /* \"Auction.sol\":6214:6230  bids[msg.sender] */\n      0x00\n        /* \"Auction.sol\":6219:6229  msg.sender */\n      caller\n        /* \"Auction.sol\":6214:6230  bids[msg.sender] */\n      0xffffffffffffffffffffffffffffffffffffffff\n      and\n      0xffffffffffffffffffffffffffffffffffffffff\n      and\n      dup2\n      mstore\n      0x20\n      add\n      swap1\n      dup2\n      mstore\n      0x20\n      add\n      0x00\n      keccak256\n      sload\n        /* \"Auction.sol\":6194:6230  uint256 bidAmount = bids[msg.sender] */\n      swap1\n      pop\n        /* \"Auction.sol\":6260:6261  0 */\n      0x00\n        /* \"Auction.sol\":6248:6257  bidAmount */\n      dup2\n        /* \"Auction.sol\":6248:6261  bidAmount > 0 */\n      gt\n        /* \"Auction.sol\":6240:6289  require(bidAmount > 0, \"No hay oferta realizada\") */\n      tag_143\n      jumpi\n      mload(0x40)\n      0x08c379a000000000000000000000000000000000000000000000000000000000\n      dup2\n      mstore\n      0x04\n      add\n      tag_144\n      swap1\n      tag_145\n      jump\t// in\n    tag_144:\n      mload(0x40)\n      dup1\n      swap2\n      sub\n      swap1\n      revert\n    tag_143:\n        /* \"Auction.sol\":6299:6319  uint256 refundAmount */\n      0x00\n        /* \"Auction.sol\":6353:6356  100 */\n      0x64\n        /* \"Auction.sol\":6342:6348  gasFee */\n      immutable(\"0x731dc163f73d31d8c68f9917ce4ff967753939f70432973c04fd2c2a48148607\")\n        /* \"Auction.sol\":6336:6339  100 */\n      0x64\n        /* \"Auction.sol\":6336:6348  100 - gasFee */\n      tag_146\n      swap2\n      swap1\n      tag_103\n      jump\t// in\n    tag_146:\n        /* \"Auction.sol\":6323:6332  bidAmount */\n      dup4\n        /* \"Auction.sol\":6323:6349  bidAmount * (100 - gasFee) */\n      tag_147\n      swap2\n      swap1\n      tag_88\n      jump\t// in\n    tag_147:\n        /* \"Auction.sol\":6322:6356  (bidAmount * (100 - gasFee)) / 100 */\n      tag_148\n      swap2\n      swap1\n      tag_90\n      jump\t// in\n    tag_148:\n        /* \"Auction.sol\":6299:6356  uint256 refundAmount = (bidAmount * (100 - gasFee)) / 100 */\n      swap1\n      pop\n        /* \"Auction.sol\":6373:6377  bids */\n      0x03\n        /* \"Auction.sol\":6373:6389  bids[msg.sender] */\n      0x00\n        /* \"Auction.sol\":6378:6388  msg.sender */\n      caller\n        /* \"Auction.sol\":6373:6389  bids[msg.sender] */\n      0xffffffffffffffffffffffffffffffffffffffff\n      and\n      0xffffffffffffffffffffffffffffffffffffffff\n      and\n      dup2\n      mstore\n      0x20\n      add\n      swap1\n      dup2\n      mstore\n      0x20\n      add\n      0x00\n      keccak256\n        /* \"Auction.sol\":6366:6389  delete bids[msg.sender] */\n      0x00\n      swap1\n      sstore\n        /* \"Auction.sol\":6404:6410  uint i */\n      0x00\n        /* \"Auction.sol\":6413:6414  0 */\n      0x00\n        /* \"Auction.sol\":6404:6414  uint i = 0 */\n      swap1\n      pop\n        /* \"Auction.sol\":6399:6661  for (uint i = 0; i < bidders.length; i++) {... */\n    tag_149:\n        /* \"Auction.sol\":6420:6427  bidders */\n      0x05\n        /* \"Auction.sol\":6420:6434  bidders.length */\n      dup1\n      sload\n      swap1\n      pop\n        /* \"Auction.sol\":6416:6417  i */\n      dup2\n        /* \"Auction.sol\":6416:6434  i < bidders.length */\n      lt\n        /* \"Auction.sol\":6399:6661  for (uint i = 0; i < bidders.length; i++) {... */\n      iszero\n      tag_150\n      jumpi\n        /* \"Auction.sol\":6473:6483  msg.sender */\n      caller\n        /* \"Auction.sol\":6459:6483  bidders[i] == msg.sender */\n      0xffffffffffffffffffffffffffffffffffffffff\n      and\n        /* \"Auction.sol\":6459:6466  bidders */\n      0x05\n        /* \"Auction.sol\":6467:6468  i */\n      dup3\n        /* \"Auction.sol\":6459:6469  bidders[i] */\n      dup2\n      sload\n      dup2\n      lt\n      tag_152\n      jumpi\n      tag_153\n      tag_154\n      jump\t// in\n    tag_153:\n    tag_152:\n      swap1\n      0x00\n      mstore\n      keccak256(0x00, 0x20)\n      add\n      0x00\n      swap1\n      sload\n      swap1\n      0x0100\n      exp\n      swap1\n      div\n      0xffffffffffffffffffffffffffffffffffffffff\n      and\n        /* \"Auction.sol\":6459:6483  bidders[i] == msg.sender */\n      0xffffffffffffffffffffffffffffffffffffffff\n      and\n      sub\n        /* \"Auction.sol\":6455:6651  if (bidders[i] == msg.sender) {... */\n      tag_156\n      jumpi\n        /* \"Auction.sol\":6516:6523  bidders */\n      0x05\n        /* \"Auction.sol\":6541:6542  1 */\n      0x01\n        /* \"Auction.sol\":6524:6531  bidders */\n      0x05\n        /* \"Auction.sol\":6524:6538  bidders.length */\n      dup1\n      sload\n      swap1\n      pop\n        /* \"Auction.sol\":6524:6542  bidders.length - 1 */\n      tag_157\n      swap2\n      swap1\n      tag_103\n      jump\t// in\n    tag_157:\n        /* \"Auction.sol\":6516:6543  bidders[bidders.length - 1] */\n      dup2\n      sload\n      dup2\n      lt\n      tag_158\n      jumpi\n      tag_159\n      tag_154\n      jump\t// in\n    tag_159:\n    tag_158:\n      swap1\n      0x00\n      mstore\n      keccak256(0x00, 0x20)\n      add\n      0x00\n      swap1\n      sload\n      swap1\n      0x0100\n      exp\n      swap1\n      div\n      0xffffffffffffffffffffffffffffffffffffffff\n      and\n        /* \"Auction.sol\":6503:6510  bidders */\n      0x05\n        /* \"Auction.sol\":6511:6512  i */\n      dup3\n        /* \"Auction.sol\":6503:6513  bidders[i] */\n      dup2\n      sload\n      dup2\n      lt\n      tag_161\n      jumpi\n      tag_162\n      tag_154\n      jump\t// in\n    tag_162:\n    tag_161:\n      swap1\n      0x00\n      mstore\n      keccak256(0x00, 0x20)\n      add\n      0x00\n        /* \"Auction.sol\":6503:6543  bidders[i] = bidders[bidders.length - 1] */\n      0x0100\n      exp\n      dup2\n      sload\n      dup2\n      0xffffffffffffffffffffffffffffffffffffffff\n      mul\n      not\n      and\n      swap1\n      dup4\n      0xffffffffffffffffffffffffffffffffffffffff\n      and\n      mul\n      or\n      swap1\n      sstore\n      pop\n        /* \"Auction.sol\":6585:6592  bidders */\n      0x05\n        /* \"Auction.sol\":6585:6598  bidders.pop() */\n      dup1\n      sload\n      dup1\n      tag_164\n      jumpi\n      tag_165\n      tag_166\n      jump\t// in\n    tag_165:\n    tag_164:\n      0x01\n      swap1\n      sub\n      dup2\n      dup2\n      swap1\n      0x00\n      mstore\n      keccak256(0x00, 0x20)\n      add\n      exp(0x0100, 0x00)\n      dup2\n      sload\n      swap1\n      0xffffffffffffffffffffffffffffffffffffffff\n      mul\n      not\n      and\n      swap1\n      sstore\n      swap1\n      sstore\n        /* \"Auction.sol\":6631:6636  break */\n      jump(tag_150)\n        /* \"Auction.sol\":6455:6651  if (bidders[i] == msg.sender) {... */\n    tag_156:\n        /* \"Auction.sol\":6436:6439  i++ */\n      dup1\n      dup1\n      0x01\n      add\n      swap2\n      pop\n      pop\n        /* \"Auction.sol\":6399:6661  for (uint i = 0; i < bidders.length; i++) {... */\n      jump(tag_149)\n    tag_150:\n      pop\n        /* \"Auction.sol\":6671:6680  bool sent */\n      0x00\n        /* \"Auction.sol\":6694:6704  msg.sender */\n      caller\n        /* \"Auction.sol\":6686:6710  payable(msg.sender).call */\n      0xffffffffffffffffffffffffffffffffffffffff\n      and\n        /* \"Auction.sol\":6718:6730  refundAmount */\n      dup3\n        /* \"Auction.sol\":6686:6735  payable(msg.sender).call{value: refundAmount}(\"\") */\n      mload(0x40)\n      tag_168\n      swap1\n      tag_112\n      jump\t// in\n    tag_168:\n      0x00\n      mload(0x40)\n      dup1\n      dup4\n      sub\n      dup2\n      dup6\n      dup8\n      gas\n      call\n      swap3\n      pop\n      pop\n      pop\n      returndatasize\n      dup1\n      0x00\n      dup2\n      eq\n      tag_171\n      jumpi\n      mload(0x40)\n      swap2\n      pop\n      and(add(returndatasize, 0x3f), not(0x1f))\n      dup3\n      add\n      0x40\n      mstore\n      returndatasize\n      dup3\n      mstore\n      returndatasize\n      0x00\n      0x20\n      dup5\n      add\n      returndatacopy\n      jump(tag_170)\n    tag_171:\n      0x60\n      swap2\n      pop\n    tag_170:\n      pop\n        /* \"Auction.sol\":6670:6735  (bool sent, ) = payable(msg.sender).call{value: refundAmount}(\"\") */\n      pop\n      swap1\n      pop\n        /* \"Auction.sol\":6753:6757  sent */\n      dup1\n        /* \"Auction.sol\":6745:6776  require(sent, \"Refund fallido\") */\n      tag_172\n      jumpi\n      mload(0x40)\n      0x08c379a000000000000000000000000000000000000000000000000000000000\n      dup2\n      mstore\n      0x04\n      add\n      tag_173\n      swap1\n      tag_118\n      jump\t// in\n    tag_173:\n      mload(0x40)\n      dup1\n      swap2\n      sub\n      swap1\n      revert\n    tag_172:\n        /* \"Auction.sol\":6798:6808  msg.sender */\n      caller\n        /* \"Auction.sol\":6791:6822  Refund(msg.sender,refundAmount) */\n      0xffffffffffffffffffffffffffffffffffffffff\n      and\n      0xbb28353e4598c3b9199101a66e0989549b659a59a54d2c27fbb183f1932c8e6d\n        /* \"Auction.sol\":6809:6821  refundAmount */\n      dup4\n        /* \"Auction.sol\":6791:6822  Refund(msg.sender,refundAmount) */\n      mload(0x40)\n      tag_174\n      swap2\n      swap1\n      tag_23\n      jump\t// in\n    tag_174:\n      mload(0x40)\n      dup1\n      swap2\n      sub\n      swap1\n      log2\n        /* \"Auction.sol\":6176:6831  {        ... */\n      pop\n      pop\n      pop\n        /* \"Auction.sol\":3011:3016  false */\n      0x00\n        /* \"Auction.sol\":3002:3008  locked */\n      0x06\n      0x00\n        /* \"Auction.sol\":3002:3016  locked = false */\n      0x0100\n      exp\n      dup2\n      sload\n      dup2\n      0xff\n      mul\n      not\n      and\n      swap1\n      dup4\n      iszero\n      iszero\n      mul\n      or\n      swap1\n      sstore\n      pop\n        /* \"Auction.sol\":6098:6831  function claim() external nonReentrant onlyFinished onlyOtherThanWinnerBidder {        ... */\n      jump\t// out\n        /* \"Auction.sol\":991:1022  uint256 public immutable gasFee */\n    tag_42:\n      immutable(\"0x731dc163f73d31d8c68f9917ce4ff967753939f70432973c04fd2c2a48148607\")\n      dup2\n      jump\t// out\n        /* \"Auction.sol\":4805:5157  function getAllBids() external view returns (Bid[] memory) {... */\n    tag_46:\n        /* \"Auction.sol\":4850:4862  Bid[] memory */\n      0x60\n        /* \"Auction.sol\":4874:4885  uint256 len */\n      0x00\n        /* \"Auction.sol\":4888:4895  bidders */\n      0x05\n        /* \"Auction.sol\":4888:4902  bidders.length */\n      dup1\n      sload\n      swap1\n      pop\n        /* \"Auction.sol\":4874:4902  uint256 len = bidders.length */\n      swap1\n      pop\n        /* \"Auction.sol\":4912:4928  Bid[] memory all */\n      0x00\n        /* \"Auction.sol\":4941:4944  len */\n      dup2\n        /* \"Auction.sol\":4931:4945  new Bid[](len) */\n      0xffffffffffffffff\n      dup2\n      gt\n      iszero\n      tag_176\n      jumpi\n      tag_177\n      tag_178\n      jump\t// in\n    tag_177:\n    tag_176:\n      mload(0x40)\n      swap1\n      dup1\n      dup3\n      mstore\n      dup1\n      0x20\n      mul\n      0x20\n      add\n      dup3\n      add\n      0x40\n      mstore\n      dup1\n      iszero\n      tag_179\n      jumpi\n      dup2\n      0x20\n      add\n    tag_180:\n      tag_181\n      tag_182\n      jump\t// in\n    tag_181:\n      dup2\n      mstore\n      0x20\n      add\n      swap1\n      0x01\n      swap1\n      sub\n      swap1\n      dup2\n      tag_180\n      jumpi\n      swap1\n      pop\n    tag_179:\n      pop\n        /* \"Auction.sol\":4912:4945  Bid[] memory all = new Bid[](len) */\n      swap1\n      pop\n        /* \"Auction.sol\":4961:4970  uint256 i */\n      0x00\n        /* \"Auction.sol\":4973:4974  0 */\n      0x00\n        /* \"Auction.sol\":4961:4974  uint256 i = 0 */\n      swap1\n      pop\n        /* \"Auction.sol\":4956:5121  for (uint256 i = 0; i < len; i++) {... */\n    tag_183:\n        /* \"Auction.sol\":4980:4983  len */\n      dup3\n        /* \"Auction.sol\":4976:4977  i */\n      dup2\n        /* \"Auction.sol\":4976:4983  i < len */\n      lt\n        /* \"Auction.sol\":4956:5121  for (uint256 i = 0; i < len; i++) {... */\n      iszero\n      tag_184\n      jumpi\n        /* \"Auction.sol\":5013:5110  Bid({... */\n      mload(0x40)\n      dup1\n      0x40\n      add\n      0x40\n      mstore\n      dup1\n        /* \"Auction.sol\":5043:5050  bidders */\n      0x05\n        /* \"Auction.sol\":5051:5052  i */\n      dup4\n        /* \"Auction.sol\":5043:5053  bidders[i] */\n      dup2\n      sload\n      dup2\n      lt\n      tag_186\n      jumpi\n      tag_187\n      tag_154\n      jump\t// in\n    tag_187:\n    tag_186:\n      swap1\n      0x00\n      mstore\n      keccak256(0x00, 0x20)\n      add\n      0x00\n      swap1\n      sload\n      swap1\n      0x0100\n      exp\n      swap1\n      div\n      0xffffffffffffffffffffffffffffffffffffffff\n      and\n        /* \"Auction.sol\":5013:5110  Bid({... */\n      0xffffffffffffffffffffffffffffffffffffffff\n      and\n      dup2\n      mstore\n      0x20\n      add\n        /* \"Auction.sol\":5079:5083  bids */\n      0x03\n        /* \"Auction.sol\":5079:5095  bids[bidders[i]] */\n      0x00\n        /* \"Auction.sol\":5084:5091  bidders */\n      0x05\n        /* \"Auction.sol\":5092:5093  i */\n      dup6\n        /* \"Auction.sol\":5084:5094  bidders[i] */\n      dup2\n      sload\n      dup2\n      lt\n      tag_189\n      jumpi\n      tag_190\n      tag_154\n      jump\t// in\n    tag_190:\n    tag_189:\n      swap1\n      0x00\n      mstore\n      keccak256(0x00, 0x20)\n      add\n      0x00\n      swap1\n      sload\n      swap1\n      0x0100\n      exp\n      swap1\n      div\n      0xffffffffffffffffffffffffffffffffffffffff\n      and\n        /* \"Auction.sol\":5079:5095  bids[bidders[i]] */\n      0xffffffffffffffffffffffffffffffffffffffff\n      and\n      0xffffffffffffffffffffffffffffffffffffffff\n      and\n      dup2\n      mstore\n      0x20\n      add\n      swap1\n      dup2\n      mstore\n      0x20\n      add\n      0x00\n      keccak256\n      sload\n        /* \"Auction.sol\":5013:5110  Bid({... */\n      dup2\n      mstore\n      pop\n        /* \"Auction.sol\":5004:5007  all */\n      dup3\n        /* \"Auction.sol\":5008:5009  i */\n      dup3\n        /* \"Auction.sol\":5004:5010  all[i] */\n      dup2\n      mload\n      dup2\n      lt\n      tag_192\n      jumpi\n      tag_193\n      tag_154\n      jump\t// in\n    tag_193:\n    tag_192:\n      0x20\n      mul\n      0x20\n      add\n      add\n        /* \"Auction.sol\":5004:5110  all[i] = Bid({... */\n      dup2\n      swap1\n      mstore\n      pop\n        /* \"Auction.sol\":4985:4988  i++ */\n      dup1\n      dup1\n      0x01\n      add\n      swap2\n      pop\n      pop\n        /* \"Auction.sol\":4956:5121  for (uint256 i = 0; i < len; i++) {... */\n      jump(tag_183)\n    tag_184:\n      pop\n        /* \"Auction.sol\":5138:5141  all */\n      dup1\n        /* \"Auction.sol\":5131:5141  return all */\n      swap3\n      pop\n      pop\n      pop\n        /* \"Auction.sol\":4805:5157  function getAllBids() external view returns (Bid[] memory) {... */\n      swap1\n      jump\t// out\n        /* \"Auction.sol\":703:733  address public immutable owner */\n    tag_51:\n      immutable(\"0x13600b294191fc92924bb3ce4b969c1e7e2bab8f4c93c3fc6d0a51733df3c060\")\n      dup2\n      jump\t// out\n        /* \"Auction.sol\":1145:1166  bool public finalized */\n    tag_56:\n      0x04\n      0x00\n      swap1\n      sload\n      swap1\n      0x0100\n      exp\n      swap1\n      div\n      0xff\n      and\n      dup2\n      jump\t// out\n        /* \"Auction.sol\":779:801  uint256 public endDate */\n    tag_61:\n      sload(0x00)\n      dup2\n      jump\t// out\n        /* \"Auction.sol\":5259:5456  function getTimeLeft() external view returns (uint256) {... */\n    tag_65:\n        /* \"Auction.sol\":5305:5312  uint256 */\n      0x00\n        /* \"Auction.sol\":5356:5363  endDate */\n      sload(0x00)\n        /* \"Auction.sol\":5337:5352  block.timestamp */\n      timestamp\n        /* \"Auction.sol\":5337:5363  block.timestamp >= endDate */\n      lt\n        /* \"Auction.sol\":5333:5398  if (block.timestamp >= endDate) {... */\n      tag_195\n      jumpi\n        /* \"Auction.sol\":5386:5387  0 */\n      0x00\n        /* \"Auction.sol\":5379:5387  return 0 */\n      swap1\n      pop\n      jump(tag_194)\n        /* \"Auction.sol\":5333:5398  if (block.timestamp >= endDate) {... */\n    tag_195:\n        /* \"Auction.sol\":5425:5440  block.timestamp */\n      timestamp\n        /* \"Auction.sol\":5415:5422  endDate */\n      sload(0x00)\n        /* \"Auction.sol\":5415:5440  endDate - block.timestamp */\n      tag_196\n      swap2\n      swap1\n      tag_103\n      jump\t// in\n    tag_196:\n        /* \"Auction.sol\":5407:5440  return  endDate - block.timestamp */\n      swap1\n      pop\n        /* \"Auction.sol\":5259:5456  function getTimeLeft() external view returns (uint256) {... */\n    tag_194:\n      swap1\n      jump\t// out\n        /* \"Auction.sol\":5602:5739  function getWinnerBid() external view returns (Bid memory) {... */\n    tag_69:\n        /* \"Auction.sol\":5649:5659  Bid memory */\n      tag_197\n      tag_182\n      jump\t// in\n    tag_197:\n        /* \"Auction.sol\":5678:5724  Bid({bidder: winnerBidder, amount: winnerBid}) */\n      mload(0x40)\n      dup1\n      0x40\n      add\n      0x40\n      mstore\n      dup1\n        /* \"Auction.sol\":5691:5703  winnerBidder */\n      0x01\n      0x00\n      swap1\n      sload\n      swap1\n      0x0100\n      exp\n      swap1\n      div\n      0xffffffffffffffffffffffffffffffffffffffff\n      and\n        /* \"Auction.sol\":5678:5724  Bid({bidder: winnerBidder, amount: winnerBid}) */\n      0xffffffffffffffffffffffffffffffffffffffff\n      and\n      dup2\n      mstore\n      0x20\n      add\n        /* \"Auction.sol\":5713:5722  winnerBid */\n      sload(0x02)\n        /* \"Auction.sol\":5678:5724  Bid({bidder: winnerBidder, amount: winnerBid}) */\n      dup2\n      mstore\n      pop\n        /* \"Auction.sol\":5671:5724  return Bid({bidder: winnerBidder, amount: winnerBid}) */\n      swap1\n      pop\n        /* \"Auction.sol\":5602:5739  function getWinnerBid() external view returns (Bid memory) {... */\n      swap1\n      jump\t// out\n        /* \"Auction.sol\":911:945  uint256 public immutable increment */\n    tag_74:\n      immutable(\"0x277ab82e5a4641341820a4a2933a62c1de997e42e92548657ae21b3728d580fe\")\n      dup2\n      jump\t// out\n    tag_182:\n      mload(0x40)\n      dup1\n      0x40\n      add\n      0x40\n      mstore\n      dup1\n      and(0xffffffffffffffffffffffffffffffffffffffff, 0x00)\n      dup2\n      mstore\n      0x20\n      add\n      0x00\n      dup2\n      mstore\n      pop\n      swap1\n      jump\t// out\n        /* \"#utility.yul\":7:84   */\n    tag_199:\n        /* \"#utility.yul\":44:51   */\n      0x00\n        /* \"#utility.yul\":73:78   */\n      dup2\n        /* \"#utility.yul\":62:78   */\n      swap1\n      pop\n        /* \"#utility.yul\":7:84   */\n      swap2\n      swap1\n      pop\n      jump\t// out\n        /* \"#utility.yul\":90:208   */\n    tag_200:\n        /* \"#utility.yul\":177:201   */\n      tag_241\n        /* \"#utility.yul\":195:200   */\n      dup2\n        /* \"#utility.yul\":177:201   */\n      tag_199\n      jump\t// in\n    tag_241:\n        /* \"#utility.yul\":172:175   */\n      dup3\n        /* \"#utility.yul\":165:202   */\n      mstore\n        /* \"#utility.yul\":90:208   */\n      pop\n      pop\n      jump\t// out\n        /* \"#utility.yul\":214:436   */\n    tag_23:\n        /* \"#utility.yul\":307:311   */\n      0x00\n        /* \"#utility.yul\":345:347   */\n      0x20\n        /* \"#utility.yul\":334:343   */\n      dup3\n        /* \"#utility.yul\":330:348   */\n      add\n        /* \"#utility.yul\":322:348   */\n      swap1\n      pop\n        /* \"#utility.yul\":358:429   */\n      tag_243\n        /* \"#utility.yul\":426:427   */\n      0x00\n        /* \"#utility.yul\":415:424   */\n      dup4\n        /* \"#utility.yul\":411:428   */\n      add\n        /* \"#utility.yul\":402:408   */\n      dup5\n        /* \"#utility.yul\":358:429   */\n      tag_200\n      jump\t// in\n    tag_243:\n        /* \"#utility.yul\":214:436   */\n      swap3\n      swap2\n      pop\n      pop\n      jump\t// out\n        /* \"#utility.yul\":442:575   */\n    tag_201:\n        /* \"#utility.yul\":528:534   */\n      0x00\n        /* \"#utility.yul\":562:567   */\n      dup2\n        /* \"#utility.yul\":556:568   */\n      mload\n        /* \"#utility.yul\":546:568   */\n      swap1\n      pop\n        /* \"#utility.yul\":442:575   */\n      swap2\n      swap1\n      pop\n      jump\t// out\n        /* \"#utility.yul\":581:784   */\n    tag_202:\n        /* \"#utility.yul\":699:710   */\n      0x00\n        /* \"#utility.yul\":733:739   */\n      dup3\n        /* \"#utility.yul\":728:731   */\n      dup3\n        /* \"#utility.yul\":721:740   */\n      mstore\n        /* \"#utility.yul\":773:777   */\n      0x20\n        /* \"#utility.yul\":768:771   */\n      dup3\n        /* \"#utility.yul\":764:778   */\n      add\n        /* \"#utility.yul\":749:778   */\n      swap1\n      pop\n        /* \"#utility.yul\":581:784   */\n      swap3\n      swap2\n      pop\n      pop\n      jump\t// out\n        /* \"#utility.yul\":790:941   */\n    tag_203:\n        /* \"#utility.yul\":876:880   */\n      0x00\n        /* \"#utility.yul\":899:902   */\n      dup2\n        /* \"#utility.yul\":891:902   */\n      swap1\n      pop\n        /* \"#utility.yul\":929:933   */\n      0x20\n        /* \"#utility.yul\":924:927   */\n      dup3\n        /* \"#utility.yul\":920:934   */\n      add\n        /* \"#utility.yul\":912:934   */\n      swap1\n      pop\n        /* \"#utility.yul\":790:941   */\n      swap2\n      swap1\n      pop\n      jump\t// out\n        /* \"#utility.yul\":947:1073   */\n    tag_204:\n        /* \"#utility.yul\":984:991   */\n      0x00\n        /* \"#utility.yul\":1024:1066   */\n      0xffffffffffffffffffffffffffffffffffffffff\n        /* \"#utility.yul\":1017:1022   */\n      dup3\n        /* \"#utility.yul\":1013:1067   */\n      and\n        /* \"#utility.yul\":1002:1067   */\n      swap1\n      pop\n        /* \"#utility.yul\":947:1073   */\n      swap2\n      swap1\n      pop\n      jump\t// out\n        /* \"#utility.yul\":1079:1175   */\n    tag_205:\n        /* \"#utility.yul\":1116:1123   */\n      0x00\n        /* \"#utility.yul\":1145:1169   */\n      tag_249\n        /* \"#utility.yul\":1163:1168   */\n      dup3\n        /* \"#utility.yul\":1145:1169   */\n      tag_204\n      jump\t// in\n    tag_249:\n        /* \"#utility.yul\":1134:1169   */\n      swap1\n      pop\n        /* \"#utility.yul\":1079:1175   */\n      swap2\n      swap1\n      pop\n      jump\t// out\n        /* \"#utility.yul\":1181:1289   */\n    tag_206:\n        /* \"#utility.yul\":1258:1282   */\n      tag_251\n        /* \"#utility.yul\":1276:1281   */\n      dup2\n        /* \"#utility.yul\":1258:1282   */\n      tag_205\n      jump\t// in\n    tag_251:\n        /* \"#utility.yul\":1253:1256   */\n      dup3\n        /* \"#utility.yul\":1246:1283   */\n      mstore\n        /* \"#utility.yul\":1181:1289   */\n      pop\n      pop\n      jump\t// out\n        /* \"#utility.yul\":1295:1403   */\n    tag_207:\n        /* \"#utility.yul\":1372:1396   */\n      tag_253\n        /* \"#utility.yul\":1390:1395   */\n      dup2\n        /* \"#utility.yul\":1372:1396   */\n      tag_199\n      jump\t// in\n    tag_253:\n        /* \"#utility.yul\":1367:1370   */\n      dup3\n        /* \"#utility.yul\":1360:1397   */\n      mstore\n        /* \"#utility.yul\":1295:1403   */\n      pop\n      pop\n      jump\t// out\n        /* \"#utility.yul\":1457:1946   */\n    tag_208:\n        /* \"#utility.yul\":1582:1586   */\n      0x40\n        /* \"#utility.yul\":1577:1580   */\n      dup3\n        /* \"#utility.yul\":1573:1587   */\n      add\n        /* \"#utility.yul\":1671:1675   */\n      0x00\n        /* \"#utility.yul\":1664:1669   */\n      dup3\n        /* \"#utility.yul\":1660:1676   */\n      add\n        /* \"#utility.yul\":1654:1677   */\n      mload\n        /* \"#utility.yul\":1690:1753   */\n      tag_255\n        /* \"#utility.yul\":1747:1751   */\n      0x00\n        /* \"#utility.yul\":1742:1745   */\n      dup6\n        /* \"#utility.yul\":1738:1752   */\n      add\n        /* \"#utility.yul\":1724:1736   */\n      dup3\n        /* \"#utility.yul\":1690:1753   */\n      tag_206\n      jump\t// in\n    tag_255:\n        /* \"#utility.yul\":1597:1763   */\n      pop\n        /* \"#utility.yul\":1847:1851   */\n      0x20\n        /* \"#utility.yul\":1840:1845   */\n      dup3\n        /* \"#utility.yul\":1836:1852   */\n      add\n        /* \"#utility.yul\":1830:1853   */\n      mload\n        /* \"#utility.yul\":1866:1929   */\n      tag_256\n        /* \"#utility.yul\":1923:1927   */\n      0x20\n        /* \"#utility.yul\":1918:1921   */\n      dup6\n        /* \"#utility.yul\":1914:1928   */\n      add\n        /* \"#utility.yul\":1900:1912   */\n      dup3\n        /* \"#utility.yul\":1866:1929   */\n      tag_207\n      jump\t// in\n    tag_256:\n        /* \"#utility.yul\":1773:1939   */\n      pop\n        /* \"#utility.yul\":1551:1946   */\n      pop\n        /* \"#utility.yul\":1457:1946   */\n      pop\n      pop\n      jump\t// out\n        /* \"#utility.yul\":1952:2207   */\n    tag_209:\n        /* \"#utility.yul\":2059:2069   */\n      0x00\n        /* \"#utility.yul\":2080:2164   */\n      tag_258\n        /* \"#utility.yul\":2160:2163   */\n      dup4\n        /* \"#utility.yul\":2152:2158   */\n      dup4\n        /* \"#utility.yul\":2080:2164   */\n      tag_208\n      jump\t// in\n    tag_258:\n        /* \"#utility.yul\":2196:2200   */\n      0x40\n        /* \"#utility.yul\":2191:2194   */\n      dup4\n        /* \"#utility.yul\":2187:2201   */\n      add\n        /* \"#utility.yul\":2173:2201   */\n      swap1\n      pop\n        /* \"#utility.yul\":1952:2207   */\n      swap3\n      swap2\n      pop\n      pop\n      jump\t// out\n        /* \"#utility.yul\":2213:2345   */\n    tag_210:\n        /* \"#utility.yul\":2302:2306   */\n      0x00\n        /* \"#utility.yul\":2334:2338   */\n      0x20\n        /* \"#utility.yul\":2329:2332   */\n      dup3\n        /* \"#utility.yul\":2325:2339   */\n      add\n        /* \"#utility.yul\":2317:2339   */\n      swap1\n      pop\n        /* \"#utility.yul\":2213:2345   */\n      swap2\n      swap1\n      pop\n      jump\t// out\n        /* \"#utility.yul\":2403:3287   */\n    tag_211:\n        /* \"#utility.yul\":2560:2563   */\n      0x00\n        /* \"#utility.yul\":2589:2662   */\n      tag_261\n        /* \"#utility.yul\":2656:2661   */\n      dup3\n        /* \"#utility.yul\":2589:2662   */\n      tag_201\n      jump\t// in\n    tag_261:\n        /* \"#utility.yul\":2678:2783   */\n      tag_262\n        /* \"#utility.yul\":2776:2782   */\n      dup2\n        /* \"#utility.yul\":2771:2774   */\n      dup6\n        /* \"#utility.yul\":2678:2783   */\n      tag_202\n      jump\t// in\n    tag_262:\n        /* \"#utility.yul\":2671:2783   */\n      swap4\n      pop\n        /* \"#utility.yul\":2807:2882   */\n      tag_263\n        /* \"#utility.yul\":2876:2881   */\n      dup4\n        /* \"#utility.yul\":2807:2882   */\n      tag_203\n      jump\t// in\n    tag_263:\n        /* \"#utility.yul\":2905:2912   */\n      dup1\n        /* \"#utility.yul\":2936:2937   */\n      0x00\n        /* \"#utility.yul\":2921:3262   */\n    tag_264:\n        /* \"#utility.yul\":2946:2952   */\n      dup4\n        /* \"#utility.yul\":2943:2944   */\n      dup2\n        /* \"#utility.yul\":2940:2953   */\n      lt\n        /* \"#utility.yul\":2921:3262   */\n      iszero\n      tag_266\n      jumpi\n        /* \"#utility.yul\":3022:3028   */\n      dup2\n        /* \"#utility.yul\":3016:3029   */\n      mload\n        /* \"#utility.yul\":3049:3150   */\n      tag_267\n        /* \"#utility.yul\":3146:3149   */\n      dup9\n        /* \"#utility.yul\":3131:3144   */\n      dup3\n        /* \"#utility.yul\":3049:3150   */\n      tag_209\n      jump\t// in\n    tag_267:\n        /* \"#utility.yul\":3042:3150   */\n      swap8\n      pop\n        /* \"#utility.yul\":3173:3252   */\n      tag_268\n        /* \"#utility.yul\":3245:3251   */\n      dup4\n        /* \"#utility.yul\":3173:3252   */\n      tag_210\n      jump\t// in\n    tag_268:\n        /* \"#utility.yul\":3163:3252   */\n      swap3\n      pop\n        /* \"#utility.yul\":2981:3262   */\n      pop\n        /* \"#utility.yul\":2968:2969   */\n      0x01\n        /* \"#utility.yul\":2965:2966   */\n      dup2\n        /* \"#utility.yul\":2961:2970   */\n      add\n        /* \"#utility.yul\":2956:2970   */\n      swap1\n      pop\n        /* \"#utility.yul\":2921:3262   */\n      jump(tag_264)\n    tag_266:\n        /* \"#utility.yul\":2925:2939   */\n      pop\n        /* \"#utility.yul\":3278:3281   */\n      dup6\n        /* \"#utility.yul\":3271:3281   */\n      swap4\n      pop\n        /* \"#utility.yul\":2565:3287   */\n      pop\n      pop\n      pop\n        /* \"#utility.yul\":2403:3287   */\n      swap3\n      swap2\n      pop\n      pop\n      jump\t// out\n        /* \"#utility.yul\":3293:3742   */\n    tag_48:\n        /* \"#utility.yul\":3474:3478   */\n      0x00\n        /* \"#utility.yul\":3512:3514   */\n      0x20\n        /* \"#utility.yul\":3501:3510   */\n      dup3\n        /* \"#utility.yul\":3497:3515   */\n      add\n        /* \"#utility.yul\":3489:3515   */\n      swap1\n      pop\n        /* \"#utility.yul\":3561:3570   */\n      dup2\n        /* \"#utility.yul\":3555:3559   */\n      dup2\n        /* \"#utility.yul\":3551:3571   */\n      sub\n        /* \"#utility.yul\":3547:3548   */\n      0x00\n        /* \"#utility.yul\":3536:3545   */\n      dup4\n        /* \"#utility.yul\":3532:3549   */\n      add\n        /* \"#utility.yul\":3525:3572   */\n      mstore\n        /* \"#utility.yul\":3589:3735   */\n      tag_270\n        /* \"#utility.yul\":3730:3734   */\n      dup2\n        /* \"#utility.yul\":3721:3727   */\n      dup5\n        /* \"#utility.yul\":3589:3735   */\n      tag_211\n      jump\t// in\n    tag_270:\n        /* \"#utility.yul\":3581:3735   */\n      swap1\n      pop\n        /* \"#utility.yul\":3293:3742   */\n      swap3\n      swap2\n      pop\n      pop\n      jump\t// out\n        /* \"#utility.yul\":3748:3866   */\n    tag_212:\n        /* \"#utility.yul\":3835:3859   */\n      tag_272\n        /* \"#utility.yul\":3853:3858   */\n      dup2\n        /* \"#utility.yul\":3835:3859   */\n      tag_205\n      jump\t// in\n    tag_272:\n        /* \"#utility.yul\":3830:3833   */\n      dup3\n        /* \"#utility.yul\":3823:3860   */\n      mstore\n        /* \"#utility.yul\":3748:3866   */\n      pop\n      pop\n      jump\t// out\n        /* \"#utility.yul\":3872:4094   */\n    tag_53:\n        /* \"#utility.yul\":3965:3969   */\n      0x00\n        /* \"#utility.yul\":4003:4005   */\n      0x20\n        /* \"#utility.yul\":3992:4001   */\n      dup3\n        /* \"#utility.yul\":3988:4006   */\n      add\n        /* \"#utility.yul\":3980:4006   */\n      swap1\n      pop\n        /* \"#utility.yul\":4016:4087   */\n      tag_274\n        /* \"#utility.yul\":4084:4085   */\n      0x00\n        /* \"#utility.yul\":4073:4082   */\n      dup4\n        /* \"#utility.yul\":4069:4086   */\n      add\n        /* \"#utility.yul\":4060:4066   */\n      dup5\n        /* \"#utility.yul\":4016:4087   */\n      tag_212\n      jump\t// in\n    tag_274:\n        /* \"#utility.yul\":3872:4094   */\n      swap3\n      swap2\n      pop\n      pop\n      jump\t// out\n        /* \"#utility.yul\":4100:4190   */\n    tag_213:\n        /* \"#utility.yul\":4134:4141   */\n      0x00\n        /* \"#utility.yul\":4177:4182   */\n      dup2\n        /* \"#utility.yul\":4170:4183   */\n      iszero\n        /* \"#utility.yul\":4163:4184   */\n      iszero\n        /* \"#utility.yul\":4152:4184   */\n      swap1\n      pop\n        /* \"#utility.yul\":4100:4190   */\n      swap2\n      swap1\n      pop\n      jump\t// out\n        /* \"#utility.yul\":4196:4305   */\n    tag_214:\n        /* \"#utility.yul\":4277:4298   */\n      tag_277\n        /* \"#utility.yul\":4292:4297   */\n      dup2\n        /* \"#utility.yul\":4277:4298   */\n      tag_213\n      jump\t// in\n    tag_277:\n        /* \"#utility.yul\":4272:4275   */\n      dup3\n        /* \"#utility.yul\":4265:4299   */\n      mstore\n        /* \"#utility.yul\":4196:4305   */\n      pop\n      pop\n      jump\t// out\n        /* \"#utility.yul\":4311:4521   */\n    tag_58:\n        /* \"#utility.yul\":4398:4402   */\n      0x00\n        /* \"#utility.yul\":4436:4438   */\n      0x20\n        /* \"#utility.yul\":4425:4434   */\n      dup3\n        /* \"#utility.yul\":4421:4439   */\n      add\n        /* \"#utility.yul\":4413:4439   */\n      swap1\n      pop\n        /* \"#utility.yul\":4449:4514   */\n      tag_279\n        /* \"#utility.yul\":4511:4512   */\n      0x00\n        /* \"#utility.yul\":4500:4509   */\n      dup4\n        /* \"#utility.yul\":4496:4513   */\n      add\n        /* \"#utility.yul\":4487:4493   */\n      dup5\n        /* \"#utility.yul\":4449:4514   */\n      tag_214\n      jump\t// in\n    tag_279:\n        /* \"#utility.yul\":4311:4521   */\n      swap3\n      swap2\n      pop\n      pop\n      jump\t// out\n        /* \"#utility.yul\":4575:5074   */\n    tag_215:\n        /* \"#utility.yul\":4710:4714   */\n      0x40\n        /* \"#utility.yul\":4705:4708   */\n      dup3\n        /* \"#utility.yul\":4701:4715   */\n      add\n        /* \"#utility.yul\":4799:4803   */\n      0x00\n        /* \"#utility.yul\":4792:4797   */\n      dup3\n        /* \"#utility.yul\":4788:4804   */\n      add\n        /* \"#utility.yul\":4782:4805   */\n      mload\n        /* \"#utility.yul\":4818:4881   */\n      tag_281\n        /* \"#utility.yul\":4875:4879   */\n      0x00\n        /* \"#utility.yul\":4870:4873   */\n      dup6\n        /* \"#utility.yul\":4866:4880   */\n      add\n        /* \"#utility.yul\":4852:4864   */\n      dup3\n        /* \"#utility.yul\":4818:4881   */\n      tag_206\n      jump\t// in\n    tag_281:\n        /* \"#utility.yul\":4725:4891   */\n      pop\n        /* \"#utility.yul\":4975:4979   */\n      0x20\n        /* \"#utility.yul\":4968:4973   */\n      dup3\n        /* \"#utility.yul\":4964:4980   */\n      add\n        /* \"#utility.yul\":4958:4981   */\n      mload\n        /* \"#utility.yul\":4994:5057   */\n      tag_282\n        /* \"#utility.yul\":5051:5055   */\n      0x20\n        /* \"#utility.yul\":5046:5049   */\n      dup6\n        /* \"#utility.yul\":5042:5056   */\n      add\n        /* \"#utility.yul\":5028:5040   */\n      dup3\n        /* \"#utility.yul\":4994:5057   */\n      tag_207\n      jump\t// in\n    tag_282:\n        /* \"#utility.yul\":4901:5067   */\n      pop\n        /* \"#utility.yul\":4679:5074   */\n      pop\n        /* \"#utility.yul\":4575:5074   */\n      pop\n      pop\n      jump\t// out\n        /* \"#utility.yul\":5080:5378   */\n    tag_71:\n        /* \"#utility.yul\":5211:5215   */\n      0x00\n        /* \"#utility.yul\":5249:5251   */\n      0x40\n        /* \"#utility.yul\":5238:5247   */\n      dup3\n        /* \"#utility.yul\":5234:5252   */\n      add\n        /* \"#utility.yul\":5226:5252   */\n      swap1\n      pop\n        /* \"#utility.yul\":5262:5371   */\n      tag_284\n        /* \"#utility.yul\":5368:5369   */\n      0x00\n        /* \"#utility.yul\":5357:5366   */\n      dup4\n        /* \"#utility.yul\":5353:5370   */\n      add\n        /* \"#utility.yul\":5344:5350   */\n      dup5\n        /* \"#utility.yul\":5262:5371   */\n      tag_215\n      jump\t// in\n    tag_284:\n        /* \"#utility.yul\":5080:5378   */\n      swap3\n      swap2\n      pop\n      pop\n      jump\t// out\n        /* \"#utility.yul\":5384:5553   */\n    tag_216:\n        /* \"#utility.yul\":5468:5479   */\n      0x00\n        /* \"#utility.yul\":5502:5508   */\n      dup3\n        /* \"#utility.yul\":5497:5500   */\n      dup3\n        /* \"#utility.yul\":5490:5509   */\n      mstore\n        /* \"#utility.yul\":5542:5546   */\n      0x20\n        /* \"#utility.yul\":5537:5540   */\n      dup3\n        /* \"#utility.yul\":5533:5547   */\n      add\n        /* \"#utility.yul\":5518:5547   */\n      swap1\n      pop\n        /* \"#utility.yul\":5384:5553   */\n      swap3\n      swap2\n      pop\n      pop\n      jump\t// out\n        /* \"#utility.yul\":5559:5716   */\n    tag_217:\n        /* \"#utility.yul\":5699:5708   */\n      0x7265656e74722e00000000000000000000000000000000000000000000000000\n        /* \"#utility.yul\":5695:5696   */\n      0x00\n        /* \"#utility.yul\":5687:5693   */\n      dup3\n        /* \"#utility.yul\":5683:5697   */\n      add\n        /* \"#utility.yul\":5676:5709   */\n      mstore\n        /* \"#utility.yul\":5559:5716   */\n      pop\n      jump\t// out\n        /* \"#utility.yul\":5722:6087   */\n    tag_218:\n        /* \"#utility.yul\":5864:5867   */\n      0x00\n        /* \"#utility.yul\":5885:5951   */\n      tag_288\n        /* \"#utility.yul\":5949:5950   */\n      0x07\n        /* \"#utility.yul\":5944:5947   */\n      dup4\n        /* \"#utility.yul\":5885:5951   */\n      tag_216\n      jump\t// in\n    tag_288:\n        /* \"#utility.yul\":5878:5951   */\n      swap2\n      pop\n        /* \"#utility.yul\":5960:6053   */\n      tag_289\n        /* \"#utility.yul\":6049:6052   */\n      dup3\n        /* \"#utility.yul\":5960:6053   */\n      tag_217\n      jump\t// in\n    tag_289:\n        /* \"#utility.yul\":6078:6080   */\n      0x20\n        /* \"#utility.yul\":6073:6076   */\n      dup3\n        /* \"#utility.yul\":6069:6081   */\n      add\n        /* \"#utility.yul\":6062:6081   */\n      swap1\n      pop\n        /* \"#utility.yul\":5722:6087   */\n      swap2\n      swap1\n      pop\n      jump\t// out\n        /* \"#utility.yul\":6093:6512   */\n    tag_79:\n        /* \"#utility.yul\":6259:6263   */\n      0x00\n        /* \"#utility.yul\":6297:6299   */\n      0x20\n        /* \"#utility.yul\":6286:6295   */\n      dup3\n        /* \"#utility.yul\":6282:6300   */\n      add\n        /* \"#utility.yul\":6274:6300   */\n      swap1\n      pop\n        /* \"#utility.yul\":6346:6355   */\n      dup2\n        /* \"#utility.yul\":6340:6344   */\n      dup2\n        /* \"#utility.yul\":6336:6356   */\n      sub\n        /* \"#utility.yul\":6332:6333   */\n      0x00\n        /* \"#utility.yul\":6321:6330   */\n      dup4\n        /* \"#utility.yul\":6317:6334   */\n      add\n        /* \"#utility.yul\":6310:6357   */\n      mstore\n        /* \"#utility.yul\":6374:6505   */\n      tag_291\n        /* \"#utility.yul\":6500:6504   */\n      dup2\n        /* \"#utility.yul\":6374:6505   */\n      tag_218\n      jump\t// in\n    tag_291:\n        /* \"#utility.yul\":6366:6505   */\n      swap1\n      pop\n        /* \"#utility.yul\":6093:6512   */\n      swap2\n      swap1\n      pop\n      jump\t// out\n        /* \"#utility.yul\":6518:6685   */\n    tag_219:\n        /* \"#utility.yul\":6658:6677   */\n      0x436f6e747261746f20657870697261646f000000000000000000000000000000\n        /* \"#utility.yul\":6654:6655   */\n      0x00\n        /* \"#utility.yul\":6646:6652   */\n      dup3\n        /* \"#utility.yul\":6642:6656   */\n      add\n        /* \"#utility.yul\":6635:6678   */\n      mstore\n        /* \"#utility.yul\":6518:6685   */\n      pop\n      jump\t// out\n        /* \"#utility.yul\":6691:7057   */\n    tag_220:\n        /* \"#utility.yul\":6833:6836   */\n      0x00\n        /* \"#utility.yul\":6854:6921   */\n      tag_294\n        /* \"#utility.yul\":6918:6920   */\n      0x11\n        /* \"#utility.yul\":6913:6916   */\n      dup4\n        /* \"#utility.yul\":6854:6921   */\n      tag_216\n      jump\t// in\n    tag_294:\n        /* \"#utility.yul\":6847:6921   */\n      swap2\n      pop\n        /* \"#utility.yul\":6930:7023   */\n      tag_295\n        /* \"#utility.yul\":7019:7022   */\n      dup3\n        /* \"#utility.yul\":6930:7023   */\n      tag_219\n      jump\t// in\n    tag_295:\n        /* \"#utility.yul\":7048:7050   */\n      0x20\n        /* \"#utility.yul\":7043:7046   */\n      dup3\n        /* \"#utility.yul\":7039:7051   */\n      add\n        /* \"#utility.yul\":7032:7051   */\n      swap1\n      pop\n        /* \"#utility.yul\":6691:7057   */\n      swap2\n      swap1\n      pop\n      jump\t// out\n        /* \"#utility.yul\":7063:7482   */\n    tag_83:\n        /* \"#utility.yul\":7229:7233   */\n      0x00\n        /* \"#utility.yul\":7267:7269   */\n      0x20\n        /* \"#utility.yul\":7256:7265   */\n      dup3\n        /* \"#utility.yul\":7252:7270   */\n      add\n        /* \"#utility.yul\":7244:7270   */\n      swap1\n      pop\n        /* \"#utility.yul\":7316:7325   */\n      dup2\n        /* \"#utility.yul\":7310:7314   */\n      dup2\n        /* \"#utility.yul\":7306:7326   */\n      sub\n        /* \"#utility.yul\":7302:7303   */\n      0x00\n        /* \"#utility.yul\":7291:7300   */\n      dup4\n        /* \"#utility.yul\":7287:7304   */\n      add\n        /* \"#utility.yul\":7280:7327   */\n      mstore\n        /* \"#utility.yul\":7344:7475   */\n      tag_297\n        /* \"#utility.yul\":7470:7474   */\n      dup2\n        /* \"#utility.yul\":7344:7475   */\n      tag_220\n      jump\t// in\n    tag_297:\n        /* \"#utility.yul\":7336:7475   */\n      swap1\n      pop\n        /* \"#utility.yul\":7063:7482   */\n      swap2\n      swap1\n      pop\n      jump\t// out\n        /* \"#utility.yul\":7488:7668   */\n    tag_221:\n        /* \"#utility.yul\":7536:7613   */\n      0x4e487b7100000000000000000000000000000000000000000000000000000000\n        /* \"#utility.yul\":7533:7534   */\n      0x00\n        /* \"#utility.yul\":7526:7614   */\n      mstore\n        /* \"#utility.yul\":7633:7637   */\n      0x11\n        /* \"#utility.yul\":7630:7631   */\n      0x04\n        /* \"#utility.yul\":7623:7638   */\n      mstore\n        /* \"#utility.yul\":7657:7661   */\n      0x24\n        /* \"#utility.yul\":7654:7655   */\n      0x00\n        /* \"#utility.yul\":7647:7662   */\n      revert\n        /* \"#utility.yul\":7674:7865   */\n    tag_86:\n        /* \"#utility.yul\":7714:7717   */\n      0x00\n        /* \"#utility.yul\":7733:7753   */\n      tag_300\n        /* \"#utility.yul\":7751:7752   */\n      dup3\n        /* \"#utility.yul\":7733:7753   */\n      tag_199\n      jump\t// in\n    tag_300:\n        /* \"#utility.yul\":7728:7753   */\n      swap2\n      pop\n        /* \"#utility.yul\":7767:7787   */\n      tag_301\n        /* \"#utility.yul\":7785:7786   */\n      dup4\n        /* \"#utility.yul\":7767:7787   */\n      tag_199\n      jump\t// in\n    tag_301:\n        /* \"#utility.yul\":7762:7787   */\n      swap3\n      pop\n        /* \"#utility.yul\":7810:7811   */\n      dup3\n        /* \"#utility.yul\":7807:7808   */\n      dup3\n        /* \"#utility.yul\":7803:7812   */\n      add\n        /* \"#utility.yul\":7796:7812   */\n      swap1\n      pop\n        /* \"#utility.yul\":7831:7834   */\n      dup1\n        /* \"#utility.yul\":7828:7829   */\n      dup3\n        /* \"#utility.yul\":7825:7835   */\n      gt\n        /* \"#utility.yul\":7822:7858   */\n      iszero\n      tag_302\n      jumpi\n        /* \"#utility.yul\":7838:7856   */\n      tag_303\n      tag_221\n      jump\t// in\n    tag_303:\n        /* \"#utility.yul\":7822:7858   */\n    tag_302:\n        /* \"#utility.yul\":7674:7865   */\n      swap3\n      swap2\n      pop\n      pop\n      jump\t// out\n        /* \"#utility.yul\":7871:8281   */\n    tag_88:\n        /* \"#utility.yul\":7911:7918   */\n      0x00\n        /* \"#utility.yul\":7934:7954   */\n      tag_305\n        /* \"#utility.yul\":7952:7953   */\n      dup3\n        /* \"#utility.yul\":7934:7954   */\n      tag_199\n      jump\t// in\n    tag_305:\n        /* \"#utility.yul\":7929:7954   */\n      swap2\n      pop\n        /* \"#utility.yul\":7968:7988   */\n      tag_306\n        /* \"#utility.yul\":7986:7987   */\n      dup4\n        /* \"#utility.yul\":7968:7988   */\n      tag_199\n      jump\t// in\n    tag_306:\n        /* \"#utility.yul\":7963:7988   */\n      swap3\n      pop\n        /* \"#utility.yul\":8023:8024   */\n      dup3\n        /* \"#utility.yul\":8020:8021   */\n      dup3\n        /* \"#utility.yul\":8016:8025   */\n      mul\n        /* \"#utility.yul\":8045:8075   */\n      tag_307\n        /* \"#utility.yul\":8063:8074   */\n      dup2\n        /* \"#utility.yul\":8045:8075   */\n      tag_199\n      jump\t// in\n    tag_307:\n        /* \"#utility.yul\":8034:8075   */\n      swap2\n      pop\n        /* \"#utility.yul\":8224:8225   */\n      dup3\n        /* \"#utility.yul\":8215:8222   */\n      dup3\n        /* \"#utility.yul\":8211:8226   */\n      div\n        /* \"#utility.yul\":8208:8209   */\n      dup5\n        /* \"#utility.yul\":8205:8227   */\n      eq\n        /* \"#utility.yul\":8185:8186   */\n      dup4\n        /* \"#utility.yul\":8178:8187   */\n      iszero\n        /* \"#utility.yul\":8158:8241   */\n      or\n        /* \"#utility.yul\":8135:8274   */\n      tag_308\n      jumpi\n        /* \"#utility.yul\":8254:8272   */\n      tag_309\n      tag_221\n      jump\t// in\n    tag_309:\n        /* \"#utility.yul\":8135:8274   */\n    tag_308:\n        /* \"#utility.yul\":7919:8281   */\n      pop\n        /* \"#utility.yul\":7871:8281   */\n      swap3\n      swap2\n      pop\n      pop\n      jump\t// out\n        /* \"#utility.yul\":8287:8467   */\n    tag_222:\n        /* \"#utility.yul\":8335:8412   */\n      0x4e487b7100000000000000000000000000000000000000000000000000000000\n        /* \"#utility.yul\":8332:8333   */\n      0x00\n        /* \"#utility.yul\":8325:8413   */\n      mstore\n        /* \"#utility.yul\":8432:8436   */\n      0x12\n        /* \"#utility.yul\":8429:8430   */\n      0x04\n        /* \"#utility.yul\":8422:8437   */\n      mstore\n        /* \"#utility.yul\":8456:8460   */\n      0x24\n        /* \"#utility.yul\":8453:8454   */\n      0x00\n        /* \"#utility.yul\":8446:8461   */\n      revert\n        /* \"#utility.yul\":8473:8658   */\n    tag_90:\n        /* \"#utility.yul\":8513:8514   */\n      0x00\n        /* \"#utility.yul\":8530:8550   */\n      tag_312\n        /* \"#utility.yul\":8548:8549   */\n      dup3\n        /* \"#utility.yul\":8530:8550   */\n      tag_199\n      jump\t// in\n    tag_312:\n        /* \"#utility.yul\":8525:8550   */\n      swap2\n      pop\n        /* \"#utility.yul\":8564:8584   */\n      tag_313\n        /* \"#utility.yul\":8582:8583   */\n      dup4\n        /* \"#utility.yul\":8564:8584   */\n      tag_199\n      jump\t// in\n    tag_313:\n        /* \"#utility.yul\":8559:8584   */\n      swap3\n      pop\n        /* \"#utility.yul\":8603:8604   */\n      dup3\n        /* \"#utility.yul\":8593:8628   */\n      tag_314\n      jumpi\n        /* \"#utility.yul\":8608:8626   */\n      tag_315\n      tag_222\n      jump\t// in\n    tag_315:\n        /* \"#utility.yul\":8593:8628   */\n    tag_314:\n        /* \"#utility.yul\":8650:8651   */\n      dup3\n        /* \"#utility.yul\":8647:8648   */\n      dup3\n        /* \"#utility.yul\":8643:8652   */\n      div\n        /* \"#utility.yul\":8638:8652   */\n      swap1\n      pop\n        /* \"#utility.yul\":8473:8658   */\n      swap3\n      swap2\n      pop\n      pop\n      jump\t// out\n        /* \"#utility.yul\":8664:8903   */\n    tag_223:\n        /* \"#utility.yul\":8804:8838   */\n      0x50756a6120636f6e206d656e6f7320646520352520646520696e6372656d656e\n        /* \"#utility.yul\":8800:8801   */\n      0x00\n        /* \"#utility.yul\":8792:8798   */\n      dup3\n        /* \"#utility.yul\":8788:8802   */\n      add\n        /* \"#utility.yul\":8781:8839   */\n      mstore\n        /* \"#utility.yul\":8873:8895   */\n      0x746f20736f627265206c612067616e61646f7261000000000000000000000000\n        /* \"#utility.yul\":8868:8870   */\n      0x20\n        /* \"#utility.yul\":8860:8866   */\n      dup3\n        /* \"#utility.yul\":8856:8871   */\n      add\n        /* \"#utility.yul\":8849:8896   */\n      mstore\n        /* \"#utility.yul\":8664:8903   */\n      pop\n      jump\t// out\n        /* \"#utility.yul\":8909:9275   */\n    tag_224:\n        /* \"#utility.yul\":9051:9054   */\n      0x00\n        /* \"#utility.yul\":9072:9139   */\n      tag_318\n        /* \"#utility.yul\":9136:9138   */\n      0x34\n        /* \"#utility.yul\":9131:9134   */\n      dup4\n        /* \"#utility.yul\":9072:9139   */\n      tag_216\n      jump\t// in\n    tag_318:\n        /* \"#utility.yul\":9065:9139   */\n      swap2\n      pop\n        /* \"#utility.yul\":9148:9241   */\n      tag_319\n        /* \"#utility.yul\":9237:9240   */\n      dup3\n        /* \"#utility.yul\":9148:9241   */\n      tag_223\n      jump\t// in\n    tag_319:\n        /* \"#utility.yul\":9266:9268   */\n      0x40\n        /* \"#utility.yul\":9261:9264   */\n      dup3\n        /* \"#utility.yul\":9257:9269   */\n      add\n        /* \"#utility.yul\":9250:9269   */\n      swap1\n      pop\n        /* \"#utility.yul\":8909:9275   */\n      swap2\n      swap1\n      pop\n      jump\t// out\n        /* \"#utility.yul\":9281:9700   */\n    tag_93:\n        /* \"#utility.yul\":9447:9451   */\n      0x00\n        /* \"#utility.yul\":9485:9487   */\n      0x20\n        /* \"#utility.yul\":9474:9483   */\n      dup3\n        /* \"#utility.yul\":9470:9488   */\n      add\n        /* \"#utility.yul\":9462:9488   */\n      swap1\n      pop\n        /* \"#utility.yul\":9534:9543   */\n      dup2\n        /* \"#utility.yul\":9528:9532   */\n      dup2\n        /* \"#utility.yul\":9524:9544   */\n      sub\n        /* \"#utility.yul\":9520:9521   */\n      0x00\n        /* \"#utility.yul\":9509:9518   */\n      dup4\n        /* \"#utility.yul\":9505:9522   */\n      add\n        /* \"#utility.yul\":9498:9545   */\n      mstore\n        /* \"#utility.yul\":9562:9693   */\n      tag_321\n        /* \"#utility.yul\":9688:9692   */\n      dup2\n        /* \"#utility.yul\":9562:9693   */\n      tag_224\n      jump\t// in\n    tag_321:\n        /* \"#utility.yul\":9554:9693   */\n      swap1\n      pop\n        /* \"#utility.yul\":9281:9700   */\n      swap2\n      swap1\n      pop\n      jump\t// out\n        /* \"#utility.yul\":9706:9884   */\n    tag_225:\n        /* \"#utility.yul\":9846:9876   */\n      0x5573746564207961207469656e65206c61206d656a6f722070756a6100000000\n        /* \"#utility.yul\":9842:9843   */\n      0x00\n        /* \"#utility.yul\":9834:9840   */\n      dup3\n        /* \"#utility.yul\":9830:9844   */\n      add\n        /* \"#utility.yul\":9823:9877   */\n      mstore\n        /* \"#utility.yul\":9706:9884   */\n      pop\n      jump\t// out\n        /* \"#utility.yul\":9890:10256   */\n    tag_226:\n        /* \"#utility.yul\":10032:10035   */\n      0x00\n        /* \"#utility.yul\":10053:10120   */\n      tag_324\n        /* \"#utility.yul\":10117:10119   */\n      0x1c\n        /* \"#utility.yul\":10112:10115   */\n      dup4\n        /* \"#utility.yul\":10053:10120   */\n      tag_216\n      jump\t// in\n    tag_324:\n        /* \"#utility.yul\":10046:10120   */\n      swap2\n      pop\n        /* \"#utility.yul\":10129:10222   */\n      tag_325\n        /* \"#utility.yul\":10218:10221   */\n      dup3\n        /* \"#utility.yul\":10129:10222   */\n      tag_225\n      jump\t// in\n    tag_325:\n        /* \"#utility.yul\":10247:10249   */\n      0x20\n        /* \"#utility.yul\":10242:10245   */\n      dup3\n        /* \"#utility.yul\":10238:10250   */\n      add\n        /* \"#utility.yul\":10231:10250   */\n      swap1\n      pop\n        /* \"#utility.yul\":9890:10256   */\n      swap2\n      swap1\n      pop\n      jump\t// out\n        /* \"#utility.yul\":10262:10681   */\n    tag_97:\n        /* \"#utility.yul\":10428:10432   */\n      0x00\n        /* \"#utility.yul\":10466:10468   */\n      0x20\n        /* \"#utility.yul\":10455:10464   */\n      dup3\n        /* \"#utility.yul\":10451:10469   */\n      add\n        /* \"#utility.yul\":10443:10469   */\n      swap1\n      pop\n        /* \"#utility.yul\":10515:10524   */\n      dup2\n        /* \"#utility.yul\":10509:10513   */\n      dup2\n        /* \"#utility.yul\":10505:10525   */\n      sub\n        /* \"#utility.yul\":10501:10502   */\n      0x00\n        /* \"#utility.yul\":10490:10499   */\n      dup4\n        /* \"#utility.yul\":10486:10503   */\n      add\n        /* \"#utility.yul\":10479:10526   */\n      mstore\n        /* \"#utility.yul\":10543:10674   */\n      tag_327\n        /* \"#utility.yul\":10669:10673   */\n      dup2\n        /* \"#utility.yul\":10543:10674   */\n      tag_226\n      jump\t// in\n    tag_327:\n        /* \"#utility.yul\":10535:10674   */\n      swap1\n      pop\n        /* \"#utility.yul\":10262:10681   */\n      swap2\n      swap1\n      pop\n      jump\t// out\n        /* \"#utility.yul\":10687:10881   */\n    tag_103:\n        /* \"#utility.yul\":10727:10731   */\n      0x00\n        /* \"#utility.yul\":10747:10767   */\n      tag_329\n        /* \"#utility.yul\":10765:10766   */\n      dup3\n        /* \"#utility.yul\":10747:10767   */\n      tag_199\n      jump\t// in\n    tag_329:\n        /* \"#utility.yul\":10742:10767   */\n      swap2\n      pop\n        /* \"#utility.yul\":10781:10801   */\n      tag_330\n        /* \"#utility.yul\":10799:10800   */\n      dup4\n        /* \"#utility.yul\":10781:10801   */\n      tag_199\n      jump\t// in\n    tag_330:\n        /* \"#utility.yul\":10776:10801   */\n      swap3\n      pop\n        /* \"#utility.yul\":10825:10826   */\n      dup3\n        /* \"#utility.yul\":10822:10823   */\n      dup3\n        /* \"#utility.yul\":10818:10827   */\n      sub\n        /* \"#utility.yul\":10810:10827   */\n      swap1\n      pop\n        /* \"#utility.yul\":10849:10850   */\n      dup2\n        /* \"#utility.yul\":10843:10847   */\n      dup2\n        /* \"#utility.yul\":10840:10851   */\n      gt\n        /* \"#utility.yul\":10837:10874   */\n      iszero\n      tag_331\n      jumpi\n        /* \"#utility.yul\":10854:10872   */\n      tag_332\n      tag_221\n      jump\t// in\n    tag_332:\n        /* \"#utility.yul\":10837:10874   */\n    tag_331:\n        /* \"#utility.yul\":10687:10881   */\n      swap3\n      swap2\n      pop\n      pop\n      jump\t// out\n        /* \"#utility.yul\":10887:11219   */\n    tag_110:\n        /* \"#utility.yul\":11008:11012   */\n      0x00\n        /* \"#utility.yul\":11046:11048   */\n      0x40\n        /* \"#utility.yul\":11035:11044   */\n      dup3\n        /* \"#utility.yul\":11031:11049   */\n      add\n        /* \"#utility.yul\":11023:11049   */\n      swap1\n      pop\n        /* \"#utility.yul\":11059:11130   */\n      tag_334\n        /* \"#utility.yul\":11127:11128   */\n      0x00\n        /* \"#utility.yul\":11116:11125   */\n      dup4\n        /* \"#utility.yul\":11112:11129   */\n      add\n        /* \"#utility.yul\":11103:11109   */\n      dup6\n        /* \"#utility.yul\":11059:11130   */\n      tag_200\n      jump\t// in\n    tag_334:\n        /* \"#utility.yul\":11140:11212   */\n      tag_335\n        /* \"#utility.yul\":11208:11210   */\n      0x20\n        /* \"#utility.yul\":11197:11206   */\n      dup4\n        /* \"#utility.yul\":11193:11211   */\n      add\n        /* \"#utility.yul\":11184:11190   */\n      dup5\n        /* \"#utility.yul\":11140:11212   */\n      tag_200\n      jump\t// in\n    tag_335:\n        /* \"#utility.yul\":10887:11219   */\n      swap4\n      swap3\n      pop\n      pop\n      pop\n      jump\t// out\n        /* \"#utility.yul\":11225:11372   */\n    tag_227:\n        /* \"#utility.yul\":11326:11337   */\n      0x00\n        /* \"#utility.yul\":11363:11366   */\n      dup2\n        /* \"#utility.yul\":11348:11366   */\n      swap1\n      pop\n        /* \"#utility.yul\":11225:11372   */\n      swap3\n      swap2\n      pop\n      pop\n      jump\t// out\n        /* \"#utility.yul\":11378:11492   */\n    tag_228:\n      pop\n      jump\t// out\n        /* \"#utility.yul\":11498:11896   */\n    tag_229:\n        /* \"#utility.yul\":11657:11660   */\n      0x00\n        /* \"#utility.yul\":11678:11761   */\n      tag_339\n        /* \"#utility.yul\":11759:11760   */\n      0x00\n        /* \"#utility.yul\":11754:11757   */\n      dup4\n        /* \"#utility.yul\":11678:11761   */\n      tag_227\n      jump\t// in\n    tag_339:\n        /* \"#utility.yul\":11671:11761   */\n      swap2\n      pop\n        /* \"#utility.yul\":11770:11863   */\n      tag_340\n        /* \"#utility.yul\":11859:11862   */\n      dup3\n        /* \"#utility.yul\":11770:11863   */\n      tag_228\n      jump\t// in\n    tag_340:\n        /* \"#utility.yul\":11888:11889   */\n      0x00\n        /* \"#utility.yul\":11883:11886   */\n      dup3\n        /* \"#utility.yul\":11879:11890   */\n      add\n        /* \"#utility.yul\":11872:11890   */\n      swap1\n      pop\n        /* \"#utility.yul\":11498:11896   */\n      swap2\n      swap1\n      pop\n      jump\t// out\n        /* \"#utility.yul\":11902:12281   */\n    tag_112:\n        /* \"#utility.yul\":12086:12089   */\n      0x00\n        /* \"#utility.yul\":12108:12255   */\n      tag_342\n        /* \"#utility.yul\":12251:12254   */\n      dup3\n        /* \"#utility.yul\":12108:12255   */\n      tag_229\n      jump\t// in\n    tag_342:\n        /* \"#utility.yul\":12101:12255   */\n      swap2\n      pop\n        /* \"#utility.yul\":12272:12275   */\n      dup2\n        /* \"#utility.yul\":12265:12275   */\n      swap1\n      pop\n        /* \"#utility.yul\":11902:12281   */\n      swap2\n      swap1\n      pop\n      jump\t// out\n        /* \"#utility.yul\":12287:12451   */\n    tag_230:\n        /* \"#utility.yul\":12427:12443   */\n      0x526566756e642066616c6c69646f000000000000000000000000000000000000\n        /* \"#utility.yul\":12423:12424   */\n      0x00\n        /* \"#utility.yul\":12415:12421   */\n      dup3\n        /* \"#utility.yul\":12411:12425   */\n      add\n        /* \"#utility.yul\":12404:12444   */\n      mstore\n        /* \"#utility.yul\":12287:12451   */\n      pop\n      jump\t// out\n        /* \"#utility.yul\":12457:12823   */\n    tag_231:\n        /* \"#utility.yul\":12599:12602   */\n      0x00\n        /* \"#utility.yul\":12620:12687   */\n      tag_345\n        /* \"#utility.yul\":12684:12686   */\n      0x0e\n        /* \"#utility.yul\":12679:12682   */\n      dup4\n        /* \"#utility.yul\":12620:12687   */\n      tag_216\n      jump\t// in\n    tag_345:\n        /* \"#utility.yul\":12613:12687   */\n      swap2\n      pop\n        /* \"#utility.yul\":12696:12789   */\n      tag_346\n        /* \"#utility.yul\":12785:12788   */\n      dup3\n        /* \"#utility.yul\":12696:12789   */\n      tag_230\n      jump\t// in\n    tag_346:\n        /* \"#utility.yul\":12814:12816   */\n      0x20\n        /* \"#utility.yul\":12809:12812   */\n      dup3\n        /* \"#utility.yul\":12805:12817   */\n      add\n        /* \"#utility.yul\":12798:12817   */\n      swap1\n      pop\n        /* \"#utility.yul\":12457:12823   */\n      swap2\n      swap1\n      pop\n      jump\t// out\n        /* \"#utility.yul\":12829:13248   */\n    tag_118:\n        /* \"#utility.yul\":12995:12999   */\n      0x00\n        /* \"#utility.yul\":13033:13035   */\n      0x20\n        /* \"#utility.yul\":13022:13031   */\n      dup3\n        /* \"#utility.yul\":13018:13036   */\n      add\n        /* \"#utility.yul\":13010:13036   */\n      swap1\n      pop\n        /* \"#utility.yul\":13082:13091   */\n      dup2\n        /* \"#utility.yul\":13076:13080   */\n      dup2\n        /* \"#utility.yul\":13072:13092   */\n      sub\n        /* \"#utility.yul\":13068:13069   */\n      0x00\n        /* \"#utility.yul\":13057:13066   */\n      dup4\n        /* \"#utility.yul\":13053:13070   */\n      add\n        /* \"#utility.yul\":13046:13093   */\n      mstore\n        /* \"#utility.yul\":13110:13241   */\n      tag_348\n        /* \"#utility.yul\":13236:13240   */\n      dup2\n        /* \"#utility.yul\":13110:13241   */\n      tag_231\n      jump\t// in\n    tag_348:\n        /* \"#utility.yul\":13102:13241   */\n      swap1\n      pop\n        /* \"#utility.yul\":12829:13248   */\n      swap2\n      swap1\n      pop\n      jump\t// out\n        /* \"#utility.yul\":13254:13434   */\n    tag_232:\n        /* \"#utility.yul\":13394:13426   */\n      0x456c20636f6e747261746f2061756e206e6f20686120657870697261646f0000\n        /* \"#utility.yul\":13390:13391   */\n      0x00\n        /* \"#utility.yul\":13382:13388   */\n      dup3\n        /* \"#utility.yul\":13378:13392   */\n      add\n        /* \"#utility.yul\":13371:13427   */\n      mstore\n        /* \"#utility.yul\":13254:13434   */\n      pop\n      jump\t// out\n        /* \"#utility.yul\":13440:13806   */\n    tag_233:\n        /* \"#utility.yul\":13582:13585   */\n      0x00\n        /* \"#utility.yul\":13603:13670   */\n      tag_351\n        /* \"#utility.yul\":13667:13669   */\n      0x1e\n        /* \"#utility.yul\":13662:13665   */\n      dup4\n        /* \"#utility.yul\":13603:13670   */\n      tag_216\n      jump\t// in\n    tag_351:\n        /* \"#utility.yul\":13596:13670   */\n      swap2\n      pop\n        /* \"#utility.yul\":13679:13772   */\n      tag_352\n        /* \"#utility.yul\":13768:13771   */\n      dup3\n        /* \"#utility.yul\":13679:13772   */\n      tag_232\n      jump\t// in\n    tag_352:\n        /* \"#utility.yul\":13797:13799   */\n      0x20\n        /* \"#utility.yul\":13792:13795   */\n      dup3\n        /* \"#utility.yul\":13788:13800   */\n      add\n        /* \"#utility.yul\":13781:13800   */\n      swap1\n      pop\n        /* \"#utility.yul\":13440:13806   */\n      swap2\n      swap1\n      pop\n      jump\t// out\n        /* \"#utility.yul\":13812:14231   */\n    tag_123:\n        /* \"#utility.yul\":13978:13982   */\n      0x00\n        /* \"#utility.yul\":14016:14018   */\n      0x20\n        /* \"#utility.yul\":14005:14014   */\n      dup3\n        /* \"#utility.yul\":14001:14019   */\n      add\n        /* \"#utility.yul\":13993:14019   */\n      swap1\n      pop\n        /* \"#utility.yul\":14065:14074   */\n      dup2\n        /* \"#utility.yul\":14059:14063   */\n      dup2\n        /* \"#utility.yul\":14055:14075   */\n      sub\n        /* \"#utility.yul\":14051:14052   */\n      0x00\n        /* \"#utility.yul\":14040:14049   */\n      dup4\n        /* \"#utility.yul\":14036:14053   */\n      add\n        /* \"#utility.yul\":14029:14076   */\n      mstore\n        /* \"#utility.yul\":14093:14224   */\n      tag_354\n        /* \"#utility.yul\":14219:14223   */\n      dup2\n        /* \"#utility.yul\":14093:14224   */\n      tag_233\n      jump\t// in\n    tag_354:\n        /* \"#utility.yul\":14085:14224   */\n      swap1\n      pop\n        /* \"#utility.yul\":13812:14231   */\n      swap2\n      swap1\n      pop\n      jump\t// out\n        /* \"#utility.yul\":14237:14404   */\n    tag_234:\n        /* \"#utility.yul\":14377:14396   */\n      0x416c72656164792066696e616c697a6564000000000000000000000000000000\n        /* \"#utility.yul\":14373:14374   */\n      0x00\n        /* \"#utility.yul\":14365:14371   */\n      dup3\n        /* \"#utility.yul\":14361:14375   */\n      add\n        /* \"#utility.yul\":14354:14397   */\n      mstore\n        /* \"#utility.yul\":14237:14404   */\n      pop\n      jump\t// out\n        /* \"#utility.yul\":14410:14776   */\n    tag_235:\n        /* \"#utility.yul\":14552:14555   */\n      0x00\n        /* \"#utility.yul\":14573:14640   */\n      tag_357\n        /* \"#utility.yul\":14637:14639   */\n      0x11\n        /* \"#utility.yul\":14632:14635   */\n      dup4\n        /* \"#utility.yul\":14573:14640   */\n      tag_216\n      jump\t// in\n    tag_357:\n        /* \"#utility.yul\":14566:14640   */\n      swap2\n      pop\n        /* \"#utility.yul\":14649:14742   */\n      tag_358\n        /* \"#utility.yul\":14738:14741   */\n      dup3\n        /* \"#utility.yul\":14649:14742   */\n      tag_234\n      jump\t// in\n    tag_358:\n        /* \"#utility.yul\":14767:14769   */\n      0x20\n        /* \"#utility.yul\":14762:14765   */\n      dup3\n        /* \"#utility.yul\":14758:14770   */\n      add\n        /* \"#utility.yul\":14751:14770   */\n      swap1\n      pop\n        /* \"#utility.yul\":14410:14776   */\n      swap2\n      swap1\n      pop\n      jump\t// out\n        /* \"#utility.yul\":14782:15201   */\n    tag_127:\n        /* \"#utility.yul\":14948:14952   */\n      0x00\n        /* \"#utility.yul\":14986:14988   */\n      0x20\n        /* \"#utility.yul\":14975:14984   */\n      dup3\n        /* \"#utility.yul\":14971:14989   */\n      add\n        /* \"#utility.yul\":14963:14989   */\n      swap1\n      pop\n        /* \"#utility.yul\":15035:15044   */\n      dup2\n        /* \"#utility.yul\":15029:15033   */\n      dup2\n        /* \"#utility.yul\":15025:15045   */\n      sub\n        /* \"#utility.yul\":15021:15022   */\n      0x00\n        /* \"#utility.yul\":15010:15019   */\n      dup4\n        /* \"#utility.yul\":15006:15023   */\n      add\n        /* \"#utility.yul\":14999:15046   */\n      mstore\n        /* \"#utility.yul\":15063:15194   */\n      tag_360\n        /* \"#utility.yul\":15189:15193   */\n      dup2\n        /* \"#utility.yul\":15063:15194   */\n      tag_235\n      jump\t// in\n    tag_360:\n        /* \"#utility.yul\":15055:15194   */\n      swap1\n      pop\n        /* \"#utility.yul\":14782:15201   */\n      swap2\n      swap1\n      pop\n      jump\t// out\n        /* \"#utility.yul\":15207:15380   */\n    tag_236:\n        /* \"#utility.yul\":15347:15372   */\n      0x4e6f20686179206f6665727461207265616c697a616461000000000000000000\n        /* \"#utility.yul\":15343:15344   */\n      0x00\n        /* \"#utility.yul\":15335:15341   */\n      dup3\n        /* \"#utility.yul\":15331:15345   */\n      add\n        /* \"#utility.yul\":15324:15373   */\n      mstore\n        /* \"#utility.yul\":15207:15380   */\n      pop\n      jump\t// out\n        /* \"#utility.yul\":15386:15752   */\n    tag_237:\n        /* \"#utility.yul\":15528:15531   */\n      0x00\n        /* \"#utility.yul\":15549:15616   */\n      tag_363\n        /* \"#utility.yul\":15613:15615   */\n      0x17\n        /* \"#utility.yul\":15608:15611   */\n      dup4\n        /* \"#utility.yul\":15549:15616   */\n      tag_216\n      jump\t// in\n    tag_363:\n        /* \"#utility.yul\":15542:15616   */\n      swap2\n      pop\n        /* \"#utility.yul\":15625:15718   */\n      tag_364\n        /* \"#utility.yul\":15714:15717   */\n      dup3\n        /* \"#utility.yul\":15625:15718   */\n      tag_236\n      jump\t// in\n    tag_364:\n        /* \"#utility.yul\":15743:15745   */\n      0x20\n        /* \"#utility.yul\":15738:15741   */\n      dup3\n        /* \"#utility.yul\":15734:15746   */\n      add\n        /* \"#utility.yul\":15727:15746   */\n      swap1\n      pop\n        /* \"#utility.yul\":15386:15752   */\n      swap2\n      swap1\n      pop\n      jump\t// out\n        /* \"#utility.yul\":15758:16177   */\n    tag_145:\n        /* \"#utility.yul\":15924:15928   */\n      0x00\n        /* \"#utility.yul\":15962:15964   */\n      0x20\n        /* \"#utility.yul\":15951:15960   */\n      dup3\n        /* \"#utility.yul\":15947:15965   */\n      add\n        /* \"#utility.yul\":15939:15965   */\n      swap1\n      pop\n        /* \"#utility.yul\":16011:16020   */\n      dup2\n        /* \"#utility.yul\":16005:16009   */\n      dup2\n        /* \"#utility.yul\":16001:16021   */\n      sub\n        /* \"#utility.yul\":15997:15998   */\n      0x00\n        /* \"#utility.yul\":15986:15995   */\n      dup4\n        /* \"#utility.yul\":15982:15999   */\n      add\n        /* \"#utility.yul\":15975:16022   */\n      mstore\n        /* \"#utility.yul\":16039:16170   */\n      tag_366\n        /* \"#utility.yul\":16165:16169   */\n      dup2\n        /* \"#utility.yul\":16039:16170   */\n      tag_237\n      jump\t// in\n    tag_366:\n        /* \"#utility.yul\":16031:16170   */\n      swap1\n      pop\n        /* \"#utility.yul\":15758:16177   */\n      swap2\n      swap1\n      pop\n      jump\t// out\n        /* \"#utility.yul\":16183:16363   */\n    tag_154:\n        /* \"#utility.yul\":16231:16308   */\n      0x4e487b7100000000000000000000000000000000000000000000000000000000\n        /* \"#utility.yul\":16228:16229   */\n      0x00\n        /* \"#utility.yul\":16221:16309   */\n      mstore\n        /* \"#utility.yul\":16328:16332   */\n      0x32\n        /* \"#utility.yul\":16325:16326   */\n      0x04\n        /* \"#utility.yul\":16318:16333   */\n      mstore\n        /* \"#utility.yul\":16352:16356   */\n      0x24\n        /* \"#utility.yul\":16349:16350   */\n      0x00\n        /* \"#utility.yul\":16342:16357   */\n      revert\n        /* \"#utility.yul\":16369:16549   */\n    tag_166:\n        /* \"#utility.yul\":16417:16494   */\n      0x4e487b7100000000000000000000000000000000000000000000000000000000\n        /* \"#utility.yul\":16414:16415   */\n      0x00\n        /* \"#utility.yul\":16407:16495   */\n      mstore\n        /* \"#utility.yul\":16514:16518   */\n      0x31\n        /* \"#utility.yul\":16511:16512   */\n      0x04\n        /* \"#utility.yul\":16504:16519   */\n      mstore\n        /* \"#utility.yul\":16538:16542   */\n      0x24\n        /* \"#utility.yul\":16535:16536   */\n      0x00\n        /* \"#utility.yul\":16528:16543   */\n      revert\n        /* \"#utility.yul\":16555:16735   */\n    tag_178:\n        /* \"#utility.yul\":16603:16680   */\n      0x4e487b7100000000000000000000000000000000000000000000000000000000\n        /* \"#utility.yul\":16600:16601   */\n      0x00\n        /* \"#utility.yul\":16593:16681   */\n      mstore\n        /* \"#utility.yul\":16700:16704   */\n      0x41\n        /* \"#utility.yul\":16697:16698   */\n      0x04\n        /* \"#utility.yul\":16690:16705   */\n      mstore\n        /* \"#utility.yul\":16724:16728   */\n      0x24\n        /* \"#utility.yul\":16721:16722   */\n      0x00\n        /* \"#utility.yul\":16714:16729   */\n      revert\n\n    auxdata: 0xa2646970667358221220a581b9f4035564e894019769cf5fe378a0eea07e540b819d434ea227e6ecd78e64736f6c634300081e0033\n}\n",
				"bytecode": {
					"linkReferences": {},
					"object": "610140604052348015610010575f5ffd5b503373ffffffffffffffffffffffffffffffffffffffff1660808173ffffffffffffffffffffffffffffffffffffffff16815250504260a0818152505061038460c0818152505060c05160a05161006791906100ed565b5f81905550670d2f13f7789f0000600281905550600560e081815250505f60045f6101000a81548160ff021916908315150217905550610258610100818152505060026101208181525050610120565b5f819050919050565b7f4e487b71000000000000000000000000000000000000000000000000000000005f52601160045260245ffd5b5f6100f7826100b7565b9150610102836100b7565b925082820190508082111561011a576101196100c0565b5b92915050565b60805160a05160c05160e05161010051610120516119ef61018a5f395f818161066d01528181610c4a0152610f5f01525f81816106f30152818161072701526108c201525f81816103dd01526111be01525f61030a01525f6102e601525f61110401526119ef5ff3fe6080604052600436106100dc575f3560e01c80638d0f6da31161007e578063c24a0f8b11610058578063c24a0f8b1461023c578063c7e284b814610266578063ceb98f6e14610290578063d09de08a146102ba576100dc565b80638d0f6da3146101be5780638da5cb5b146101e8578063b3f05b9714610212576100dc565b80632d5537b0116100ba5780632d5537b01461013e5780634bb278f3146101685780634e71d92d1461017e578063658612e914610194576100dc565b80630b97bc86146100e05780630fb5a6b41461010a5780631998aeef14610134575b5f5ffd5b3480156100eb575f5ffd5b506100f46102e4565b6040516101019190611226565b60405180910390f35b348015610115575f5ffd5b5061011e610308565b60405161012b9190611226565b60405180910390f35b61013c61032c565b005b348015610149575f5ffd5b506101526108c0565b60405161015f9190611226565b60405180910390f35b348015610173575f5ffd5b5061017c6108e4565b005b348015610189575f5ffd5b50610192610a86565b005b34801561019f575f5ffd5b506101a8610f5d565b6040516101b59190611226565b60405180910390f35b3480156101c9575f5ffd5b506101d2610f81565b6040516101df9190611362565b60405180910390f35b3480156101f3575f5ffd5b506101fc611102565b6040516102099190611391565b60405180910390f35b34801561021d575f5ffd5b50610226611126565b60405161023391906113c4565b60405180910390f35b348015610247575f5ffd5b50610250611138565b60405161025d9190611226565b60405180910390f35b348015610271575f5ffd5b5061027a61113d565b6040516102879190611226565b60405180910390f35b34801561029b575f5ffd5b506102a4611161565b6040516102b1919061140a565b60405180910390f35b3480156102c5575f5ffd5b506102ce6111bc565b6040516102db9190611226565b60405180910390f35b7f000000000000000000000000000000000000000000000000000000000000000081565b7f000000000000000000000000000000000000000000000000000000000000000081565b60065f9054906101000a900460ff161561037b576040517f08c379a00000000000000000000000000000000000000000000000000000000081526004016103729061147d565b60405180910390fd5b600160065f6101000a81548160ff0219169083151502179055505f5442106103d8576040517f08c379a00000000000000000000000000000000000000000000000000000000081526004016103cf906114e5565b60405180910390fd5b6064807f00000000000000000000000000000000000000000000000000000000000000006104069190611530565b6002546104139190611563565b61041d91906115d1565b341161045e576040517f08c379a000000000000000000000000000000000000000000000000000000000815260040161045590611671565b60405180910390fd5b60015f9054906101000a900473ffffffffffffffffffffffffffffffffffffffff1673ffffffffffffffffffffffffffffffffffffffff163373ffffffffffffffffffffffffffffffffffffffff16036104ed576040517f08c379a00000000000000000000000000000000000000000000000000000000081526004016104e4906116d9565b60405180910390fd5b3373ffffffffffffffffffffffffffffffffffffffff167fdd0b6c6a77960e2066c96171b4d7ac9e8b4c184011f38544afa36a5bb63ec59f346040516105339190611226565b60405180910390a23360015f6101000a81548173ffffffffffffffffffffffffffffffffffffffff021916908373ffffffffffffffffffffffffffffffffffffffff160217905550346002819055505f60035f3373ffffffffffffffffffffffffffffffffffffffff1673ffffffffffffffffffffffffffffffffffffffff1681526020019081526020015f20540361062757600533908060018154018082558091505060019003905f5260205f20015f9091909190916101000a81548173ffffffffffffffffffffffffffffffffffffffff021916908373ffffffffffffffffffffffffffffffffffffffff1602179055505b5f60035f3373ffffffffffffffffffffffffffffffffffffffff1673ffffffffffffffffffffffffffffffffffffffff1681526020019081526020015f205490505f60647f0000000000000000000000000000000000000000000000000000000000000000606461069891906116f7565b836106a39190611563565b6106ad91906115d1565b90503460035f3373ffffffffffffffffffffffffffffffffffffffff1673ffffffffffffffffffffffffffffffffffffffff1681526020019081526020015f20819055507f00000000000000000000000000000000000000000000000000000000000000005f5461071e91906116f7565b42106107ac575f7f00000000000000000000000000000000000000000000000000000000000000005f546107529190611530565b9050805f819055503373ffffffffffffffffffffffffffffffffffffffff167f2241aa88c881d125cce08ef2a8f6bfd221ca46e27736a38f9353622a4303c70582346040516107a292919061172a565b60405180910390a2505b5f3373ffffffffffffffffffffffffffffffffffffffff16826040516107d19061177e565b5f6040518083038185875af1925050503d805f811461080b576040519150601f19603f3d011682016040523d82523d5f602084013e610810565b606091505b5050905080610854576040517f08c379a000000000000000000000000000000000000000000000000000000000815260040161084b906117dc565b60405180910390fd5b3373ffffffffffffffffffffffffffffffffffffffff167fdce68997783ae47468b6fb0dd39cca315f9082d51d9ab3df8747c70512aa8ff28360405161089a9190611226565b60405180910390a25050505f60065f6101000a81548160ff021916908315150217905550565b7f000000000000000000000000000000000000000000000000000000000000000081565b5f54421015610928576040517f08c379a000000000000000000000000000000000000000000000000000000000815260040161091f90611844565b60405180910390fd5b60045f9054906101000a900460ff1615610977576040517f08c379a000000000000000000000000000000000000000000000000000000000815260040161096e906118ac565b60405180910390fd5b60065f9054906101000a900460ff16156109c6576040517f08c379a00000000000000000000000000000000000000000000000000000000081526004016109bd9061147d565b60405180910390fd5b600160065f6101000a81548160ff021916908315150217905550600160045f6101000a81548160ff02191690831515021790555060015f9054906101000a900473ffffffffffffffffffffffffffffffffffffffff1673ffffffffffffffffffffffffffffffffffffffff167f8b1ad6c69d3d79a05f5b1ec0de825e9bf67c6c70b8c25babd159976cf9990dff600254604051610a639190611226565b60405180910390a25f60065f6101000a81548160ff021916908315150217905550565b60065f9054906101000a900460ff1615610ad5576040517f08c379a0000000000000000000000000000000000000000000000000000000008152600401610acc9061147d565b60405180910390fd5b600160065f6101000a81548160ff0219169083151502179055505f54421015610b33576040517f08c379a0000000000000000000000000000000000000000000000000000000008152600401610b2a90611844565b60405180910390fd5b60015f9054906101000a900473ffffffffffffffffffffffffffffffffffffffff1673ffffffffffffffffffffffffffffffffffffffff163373ffffffffffffffffffffffffffffffffffffffff1603610bc2576040517f08c379a0000000000000000000000000000000000000000000000000000000008152600401610bb9906116d9565b60405180910390fd5b5f60035f3373ffffffffffffffffffffffffffffffffffffffff1673ffffffffffffffffffffffffffffffffffffffff1681526020019081526020015f205490505f8111610c45576040517f08c379a0000000000000000000000000000000000000000000000000000000008152600401610c3c90611914565b60405180910390fd5b5f60647f00000000000000000000000000000000000000000000000000000000000000006064610c7591906116f7565b83610c809190611563565b610c8a91906115d1565b905060035f3373ffffffffffffffffffffffffffffffffffffffff1673ffffffffffffffffffffffffffffffffffffffff1681526020019081526020015f205f90555f5f90505b600580549050811015610e48573373ffffffffffffffffffffffffffffffffffffffff1660058281548110610d0957610d08611932565b5b905f5260205f20015f9054906101000a900473ffffffffffffffffffffffffffffffffffffffff1673ffffffffffffffffffffffffffffffffffffffff1603610e3b5760056001600580549050610d6091906116f7565b81548110610d7157610d70611932565b5b905f5260205f20015f9054906101000a900473ffffffffffffffffffffffffffffffffffffffff1660058281548110610dad57610dac611932565b5b905f5260205f20015f6101000a81548173ffffffffffffffffffffffffffffffffffffffff021916908373ffffffffffffffffffffffffffffffffffffffff1602179055506005805480610e0457610e0361195f565b5b600190038181905f5260205f20015f6101000a81549073ffffffffffffffffffffffffffffffffffffffff02191690559055610e48565b8080600101915050610cd1565b505f3373ffffffffffffffffffffffffffffffffffffffff1682604051610e6e9061177e565b5f6040518083038185875af1925050503d805f8114610ea8576040519150601f19603f3d011682016040523d82523d5f602084013e610ead565b606091505b5050905080610ef1576040517f08c379a0000000000000000000000000000000000000000000000000000000008152600401610ee8906117dc565b60405180910390fd5b3373ffffffffffffffffffffffffffffffffffffffff167fbb28353e4598c3b9199101a66e0989549b659a59a54d2c27fbb183f1932c8e6d83604051610f379190611226565b60405180910390a25050505f60065f6101000a81548160ff021916908315150217905550565b7f000000000000000000000000000000000000000000000000000000000000000081565b60605f60058054905090505f8167ffffffffffffffff811115610fa757610fa661198c565b5b604051908082528060200260200182016040528015610fe057816020015b610fcd6111e0565b815260200190600190039081610fc55790505b5090505f5f90505b828110156110f95760405180604001604052806005838154811061100f5761100e611932565b5b905f5260205f20015f9054906101000a900473ffffffffffffffffffffffffffffffffffffffff1673ffffffffffffffffffffffffffffffffffffffff16815260200160035f6005858154811061106957611068611932565b5b905f5260205f20015f9054906101000a900473ffffffffffffffffffffffffffffffffffffffff1673ffffffffffffffffffffffffffffffffffffffff1673ffffffffffffffffffffffffffffffffffffffff1681526020019081526020015f20548152508282815181106110e1576110e0611932565b5b60200260200101819052508080600101915050610fe8565b50809250505090565b7f000000000000000000000000000000000000000000000000000000000000000081565b60045f9054906101000a900460ff1681565b5f5481565b5f5f54421061114e575f905061115e565b425f5461115b91906116f7565b90505b90565b6111696111e0565b604051806040016040528060015f9054906101000a900473ffffffffffffffffffffffffffffffffffffffff1673ffffffffffffffffffffffffffffffffffffffff168152602001600254815250905090565b7f000000000000000000000000000000000000000000000000000000000000000081565b60405180604001604052805f73ffffffffffffffffffffffffffffffffffffffff1681526020015f81525090565b5f819050919050565b6112208161120e565b82525050565b5f6020820190506112395f830184611217565b92915050565b5f81519050919050565b5f82825260208201905092915050565b5f819050602082019050919050565b5f73ffffffffffffffffffffffffffffffffffffffff82169050919050565b5f61129182611268565b9050919050565b6112a181611287565b82525050565b6112b08161120e565b82525050565b604082015f8201516112ca5f850182611298565b5060208201516112dd60208501826112a7565b50505050565b5f6112ee83836112b6565b60408301905092915050565b5f602082019050919050565b5f6113108261123f565b61131a8185611249565b935061132583611259565b805f5b8381101561135557815161133c88826112e3565b9750611347836112fa565b925050600181019050611328565b5085935050505092915050565b5f6020820190508181035f83015261137a8184611306565b905092915050565b61138b81611287565b82525050565b5f6020820190506113a45f830184611382565b92915050565b5f8115159050919050565b6113be816113aa565b82525050565b5f6020820190506113d75f8301846113b5565b92915050565b604082015f8201516113f15f850182611298565b50602082015161140460208501826112a7565b50505050565b5f60408201905061141d5f8301846113dd565b92915050565b5f82825260208201905092915050565b7f7265656e74722e000000000000000000000000000000000000000000000000005f82015250565b5f611467600783611423565b915061147282611433565b602082019050919050565b5f6020820190508181035f8301526114948161145b565b9050919050565b7f436f6e747261746f20657870697261646f0000000000000000000000000000005f82015250565b5f6114cf601183611423565b91506114da8261149b565b602082019050919050565b5f6020820190508181035f8301526114fc816114c3565b9050919050565b7f4e487b71000000000000000000000000000000000000000000000000000000005f52601160045260245ffd5b5f61153a8261120e565b91506115458361120e565b925082820190508082111561155d5761155c611503565b5b92915050565b5f61156d8261120e565b91506115788361120e565b92508282026115868161120e565b9150828204841483151761159d5761159c611503565b5b5092915050565b7f4e487b71000000000000000000000000000000000000000000000000000000005f52601260045260245ffd5b5f6115db8261120e565b91506115e68361120e565b9250826115f6576115f56115a4565b5b828204905092915050565b7f50756a6120636f6e206d656e6f7320646520352520646520696e6372656d656e5f8201527f746f20736f627265206c612067616e61646f7261000000000000000000000000602082015250565b5f61165b603483611423565b915061166682611601565b604082019050919050565b5f6020820190508181035f8301526116888161164f565b9050919050565b7f5573746564207961207469656e65206c61206d656a6f722070756a61000000005f82015250565b5f6116c3601c83611423565b91506116ce8261168f565b602082019050919050565b5f6020820190508181035f8301526116f0816116b7565b9050919050565b5f6117018261120e565b915061170c8361120e565b925082820390508181111561172457611723611503565b5b92915050565b5f60408201905061173d5f830185611217565b61174a6020830184611217565b9392505050565b5f81905092915050565b50565b5f6117695f83611751565b91506117748261175b565b5f82019050919050565b5f6117888261175e565b9150819050919050565b7f526566756e642066616c6c69646f0000000000000000000000000000000000005f82015250565b5f6117c6600e83611423565b91506117d182611792565b602082019050919050565b5f6020820190508181035f8301526117f3816117ba565b9050919050565b7f456c20636f6e747261746f2061756e206e6f20686120657870697261646f00005f82015250565b5f61182e601e83611423565b9150611839826117fa565b602082019050919050565b5f6020820190508181035f83015261185b81611822565b9050919050565b7f416c72656164792066696e616c697a65640000000000000000000000000000005f82015250565b5f611896601183611423565b91506118a182611862565b602082019050919050565b5f6020820190508181035f8301526118c38161188a565b9050919050565b7f4e6f20686179206f6665727461207265616c697a6164610000000000000000005f82015250565b5f6118fe601783611423565b9150611909826118ca565b602082019050919050565b5f6020820190508181035f83015261192b816118f2565b9050919050565b7f4e487b71000000000000000000000000000000000000000000000000000000005f52603260045260245ffd5b7f4e487b71000000000000000000000000000000000000000000000000000000005f52603160045260245ffd5b7f4e487b71000000000000000000000000000000000000000000000000000000005f52604160045260245ffdfea2646970667358221220a581b9f4035564e894019769cf5fe378a0eea07e540b819d434ea227e6ecd78e64736f6c634300081e0033",
					"opcodes": "PUSH2 0x140 PUSH1 0x40 MSTORE CALLVALUE DUP1 ISZERO PUSH2 0x10 JUMPI PUSH0 PUSH0 REVERT JUMPDEST POP CALLER PUSH20 0xFFFFFFFFFFFFFFFFFFFFFFFFFFFFFFFFFFFFFFFF AND PUSH1 0x80 DUP2 PUSH20 0xFFFFFFFFFFFFFFFFFFFFFFFFFFFFFFFFFFFFFFFF AND DUP2 MSTORE POP POP TIMESTAMP PUSH1 0xA0 DUP2 DUP2 MSTORE POP POP PUSH2 0x384 PUSH1 0xC0 DUP2 DUP2 MSTORE POP POP PUSH1 0xC0 MLOAD PUSH1 0xA0 MLOAD PUSH2 0x67 SWAP2 SWAP1 PUSH2 0xED JUMP JUMPDEST PUSH0 DUP2 SWAP1 SSTORE POP PUSH8 0xD2F13F7789F0000 PUSH1 0x2 DUP2 SWAP1 SSTORE POP PUSH1 0x5 PUSH1 0xE0 DUP2 DUP2 MSTORE POP POP PUSH0 PUSH1 0x4 PUSH0 PUSH2 0x100 EXP DUP2 SLOAD DUP2 PUSH1 0xFF MUL NOT AND SWAP1 DUP4 ISZERO ISZERO MUL OR SWAP1 SSTORE POP PUSH2 0x258 PUSH2 0x100 DUP2 DUP2 MSTORE POP POP PUSH1 0x2 PUSH2 0x120 DUP2 DUP2 MSTORE POP POP PUSH2 0x120 JUMP JUMPDEST PUSH0 DUP2 SWAP1 POP SWAP2 SWAP1 POP JUMP JUMPDEST PUSH32 0x4E487B7100000000000000000000000000000000000000000000000000000000 PUSH0 MSTORE PUSH1 0x11 PUSH1 0x4 MSTORE PUSH1 0x24 PUSH0 REVERT JUMPDEST PUSH0 PUSH2 0xF7 DUP3 PUSH2 0xB7 JUMP JUMPDEST SWAP2 POP PUSH2 0x102 DUP4 PUSH2 0xB7 JUMP JUMPDEST SWAP3 POP DUP3 DUP3 ADD SWAP1 POP DUP1 DUP3 GT ISZERO PUSH2 0x11A JUMPI PUSH2 0x119 PUSH2 0xC0 JUMP JUMPDEST JUMPDEST SWAP3 SWAP2 POP POP JUMP JUMPDEST PUSH1 0x80 MLOAD PUSH1 0xA0 MLOAD PUSH1 0xC0 MLOAD PUSH1 0xE0 MLOAD PUSH2 0x100 MLOAD PUSH2 0x120 MLOAD PUSH2 0x19EF PUSH2 0x18A PUSH0 CODECOPY PUSH0 DUP2 DUP2 PUSH2 0x66D ADD MSTORE DUP2 DUP2 PUSH2 0xC4A ADD MSTORE PUSH2 0xF5F ADD MSTORE PUSH0 DUP2 DUP2 PUSH2 0x6F3 ADD MSTORE DUP2 DUP2 PUSH2 0x727 ADD MSTORE PUSH2 0x8C2 ADD MSTORE PUSH0 DUP2 DUP2 PUSH2 0x3DD ADD MSTORE PUSH2 0x11BE ADD MSTORE PUSH0 PUSH2 0x30A ADD MSTORE PUSH0 PUSH2 0x2E6 ADD MSTORE PUSH0 PUSH2 0x1104 ADD MSTORE PUSH2 0x19EF PUSH0 RETURN INVALID PUSH1 0x80 PUSH1 0x40 MSTORE PUSH1 0x4 CALLDATASIZE LT PUSH2 0xDC JUMPI PUSH0 CALLDATALOAD PUSH1 0xE0 SHR DUP1 PUSH4 0x8D0F6DA3 GT PUSH2 0x7E JUMPI DUP1 PUSH4 0xC24A0F8B GT PUSH2 0x58 JUMPI DUP1 PUSH4 0xC24A0F8B EQ PUSH2 0x23C JUMPI DUP1 PUSH4 0xC7E284B8 EQ PUSH2 0x266 JUMPI DUP1 PUSH4 0xCEB98F6E EQ PUSH2 0x290 JUMPI DUP1 PUSH4 0xD09DE08A EQ PUSH2 0x2BA JUMPI PUSH2 0xDC JUMP JUMPDEST DUP1 PUSH4 0x8D0F6DA3 EQ PUSH2 0x1BE JUMPI DUP1 PUSH4 0x8DA5CB5B EQ PUSH2 0x1E8 JUMPI DUP1 PUSH4 0xB3F05B97 EQ PUSH2 0x212 JUMPI PUSH2 0xDC JUMP JUMPDEST DUP1 PUSH4 0x2D5537B0 GT PUSH2 0xBA JUMPI DUP1 PUSH4 0x2D5537B0 EQ PUSH2 0x13E JUMPI DUP1 PUSH4 0x4BB278F3 EQ PUSH2 0x168 JUMPI DUP1 PUSH4 0x4E71D92D EQ PUSH2 0x17E JUMPI DUP1 PUSH4 0x658612E9 EQ PUSH2 0x194 JUMPI PUSH2 0xDC JUMP JUMPDEST DUP1 PUSH4 0xB97BC86 EQ PUSH2 0xE0 JUMPI DUP1 PUSH4 0xFB5A6B4 EQ PUSH2 0x10A JUMPI DUP1 PUSH4 0x1998AEEF EQ PUSH2 0x134 JUMPI JUMPDEST PUSH0 PUSH0 REVERT JUMPDEST CALLVALUE DUP1 ISZERO PUSH2 0xEB JUMPI PUSH0 PUSH0 REVERT JUMPDEST POP PUSH2 0xF4 PUSH2 0x2E4 JUMP JUMPDEST PUSH1 0x40 MLOAD PUSH2 0x101 SWAP2 SWAP1 PUSH2 0x1226 JUMP JUMPDEST PUSH1 0x40 MLOAD DUP1 SWAP2 SUB SWAP1 RETURN JUMPDEST CALLVALUE DUP1 ISZERO PUSH2 0x115 JUMPI PUSH0 PUSH0 REVERT JUMPDEST POP PUSH2 0x11E PUSH2 0x308 JUMP JUMPDEST PUSH1 0x40 MLOAD PUSH2 0x12B SWAP2 SWAP1 PUSH2 0x1226 JUMP JUMPDEST PUSH1 0x40 MLOAD DUP1 SWAP2 SUB SWAP1 RETURN JUMPDEST PUSH2 0x13C PUSH2 0x32C JUMP JUMPDEST STOP JUMPDEST CALLVALUE DUP1 ISZERO PUSH2 0x149 JUMPI PUSH0 PUSH0 REVERT JUMPDEST POP PUSH2 0x152 PUSH2 0x8C0 JUMP JUMPDEST PUSH1 0x40 MLOAD PUSH2 0x15F SWAP2 SWAP1 PUSH2 0x1226 JUMP JUMPDEST PUSH1 0x40 MLOAD DUP1 SWAP2 SUB SWAP1 RETURN JUMPDEST CALLVALUE DUP1 ISZERO PUSH2 0x173 JUMPI PUSH0 PUSH0 REVERT JUMPDEST POP PUSH2 0x17C PUSH2 0x8E4 JUMP JUMPDEST STOP JUMPDEST CALLVALUE DUP1 ISZERO PUSH2 0x189 JUMPI PUSH0 PUSH0 REVERT JUMPDEST POP PUSH2 0x192 PUSH2 0xA86 JUMP JUMPDEST STOP JUMPDEST CALLVALUE DUP1 ISZERO PUSH2 0x19F JUMPI PUSH0 PUSH0 REVERT JUMPDEST POP PUSH2 0x1A8 PUSH2 0xF5D JUMP JUMPDEST PUSH1 0x40 MLOAD PUSH2 0x1B5 SWAP2 SWAP1 PUSH2 0x1226 JUMP JUMPDEST PUSH1 0x40 MLOAD DUP1 SWAP2 SUB SWAP1 RETURN JUMPDEST CALLVALUE DUP1 ISZERO PUSH2 0x1C9 JUMPI PUSH0 PUSH0 REVERT JUMPDEST POP PUSH2 0x1D2 PUSH2 0xF81 JUMP JUMPDEST PUSH1 0x40 MLOAD PUSH2 0x1DF SWAP2 SWAP1 PUSH2 0x1362 JUMP JUMPDEST PUSH1 0x40 MLOAD DUP1 SWAP2 SUB SWAP1 RETURN JUMPDEST CALLVALUE DUP1 ISZERO PUSH2 0x1F3 JUMPI PUSH0 PUSH0 REVERT JUMPDEST POP PUSH2 0x1FC PUSH2 0x1102 JUMP JUMPDEST PUSH1 0x40 MLOAD PUSH2 0x209 SWAP2 SWAP1 PUSH2 0x1391 JUMP JUMPDEST PUSH1 0x40 MLOAD DUP1 SWAP2 SUB SWAP1 RETURN JUMPDEST CALLVALUE DUP1 ISZERO PUSH2 0x21D JUMPI PUSH0 PUSH0 REVERT JUMPDEST POP PUSH2 0x226 PUSH2 0x1126 JUMP JUMPDEST PUSH1 0x40 MLOAD PUSH2 0x233 SWAP2 SWAP1 PUSH2 0x13C4 JUMP JUMPDEST PUSH1 0x40 MLOAD DUP1 SWAP2 SUB SWAP1 RETURN JUMPDEST CALLVALUE DUP1 ISZERO PUSH2 0x247 JUMPI PUSH0 PUSH0 REVERT JUMPDEST POP PUSH2 0x250 PUSH2 0x1138 JUMP JUMPDEST PUSH1 0x40 MLOAD PUSH2 0x25D SWAP2 SWAP1 PUSH2 0x1226 JUMP JUMPDEST PUSH1 0x40 MLOAD DUP1 SWAP2 SUB SWAP1 RETURN JUMPDEST CALLVALUE DUP1 ISZERO PUSH2 0x271 JUMPI PUSH0 PUSH0 REVERT JUMPDEST POP PUSH2 0x27A PUSH2 0x113D JUMP JUMPDEST PUSH1 0x40 MLOAD PUSH2 0x287 SWAP2 SWAP1 PUSH2 0x1226 JUMP JUMPDEST PUSH1 0x40 MLOAD DUP1 SWAP2 SUB SWAP1 RETURN JUMPDEST CALLVALUE DUP1 ISZERO PUSH2 0x29B JUMPI PUSH0 PUSH0 REVERT JUMPDEST POP PUSH2 0x2A4 PUSH2 0x1161 JUMP JUMPDEST PUSH1 0x40 MLOAD PUSH2 0x2B1 SWAP2 SWAP1 PUSH2 0x140A JUMP JUMPDEST PUSH1 0x40 MLOAD DUP1 SWAP2 SUB SWAP1 RETURN JUMPDEST CALLVALUE DUP1 ISZERO PUSH2 0x2C5 JUMPI PUSH0 PUSH0 REVERT JUMPDEST POP PUSH2 0x2CE PUSH2 0x11BC JUMP JUMPDEST PUSH1 0x40 MLOAD PUSH2 0x2DB SWAP2 SWAP1 PUSH2 0x1226 JUMP JUMPDEST PUSH1 0x40 MLOAD DUP1 SWAP2 SUB SWAP1 RETURN JUMPDEST PUSH32 0x0 DUP2 JUMP JUMPDEST PUSH32 0x0 DUP2 JUMP JUMPDEST PUSH1 0x6 PUSH0 SWAP1 SLOAD SWAP1 PUSH2 0x100 EXP SWAP1 DIV PUSH1 0xFF AND ISZERO PUSH2 0x37B JUMPI PUSH1 0x40 MLOAD PUSH32 0x8C379A000000000000000000000000000000000000000000000000000000000 DUP2 MSTORE PUSH1 0x4 ADD PUSH2 0x372 SWAP1 PUSH2 0x147D JUMP JUMPDEST PUSH1 0x40 MLOAD DUP1 SWAP2 SUB SWAP1 REVERT JUMPDEST PUSH1 0x1 PUSH1 0x6 PUSH0 PUSH2 0x100 EXP DUP2 SLOAD DUP2 PUSH1 0xFF MUL NOT AND SWAP1 DUP4 ISZERO ISZERO MUL OR SWAP1 SSTORE POP PUSH0 SLOAD TIMESTAMP LT PUSH2 0x3D8 JUMPI PUSH1 0x40 MLOAD PUSH32 0x8C379A000000000000000000000000000000000000000000000000000000000 DUP2 MSTORE PUSH1 0x4 ADD PUSH2 0x3CF SWAP1 PUSH2 0x14E5 JUMP JUMPDEST PUSH1 0x40 MLOAD DUP1 SWAP2 SUB SWAP1 REVERT JUMPDEST PUSH1 0x64 DUP1 PUSH32 0x0 PUSH2 0x406 SWAP2 SWAP1 PUSH2 0x1530 JUMP JUMPDEST PUSH1 0x2 SLOAD PUSH2 0x413 SWAP2 SWAP1 PUSH2 0x1563 JUMP JUMPDEST PUSH2 0x41D SWAP2 SWAP1 PUSH2 0x15D1 JUMP JUMPDEST CALLVALUE GT PUSH2 0x45E JUMPI PUSH1 0x40 MLOAD PUSH32 0x8C379A000000000000000000000000000000000000000000000000000000000 DUP2 MSTORE PUSH1 0x4 ADD PUSH2 0x455 SWAP1 PUSH2 0x1671 JUMP JUMPDEST PUSH1 0x40 MLOAD DUP1 SWAP2 SUB SWAP1 REVERT JUMPDEST PUSH1 0x1 PUSH0 SWAP1 SLOAD SWAP1 PUSH2 0x100 EXP SWAP1 DIV PUSH20 0xFFFFFFFFFFFFFFFFFFFFFFFFFFFFFFFFFFFFFFFF AND PUSH20 0xFFFFFFFFFFFFFFFFFFFFFFFFFFFFFFFFFFFFFFFF AND CALLER PUSH20 0xFFFFFFFFFFFFFFFFFFFFFFFFFFFFFFFFFFFFFFFF AND SUB PUSH2 0x4ED JUMPI PUSH1 0x40 MLOAD PUSH32 0x8C379A000000000000000000000000000000000000000000000000000000000 DUP2 MSTORE PUSH1 0x4 ADD PUSH2 0x4E4 SWAP1 PUSH2 0x16D9 JUMP JUMPDEST PUSH1 0x40 MLOAD DUP1 SWAP2 SUB SWAP1 REVERT JUMPDEST CALLER PUSH20 0xFFFFFFFFFFFFFFFFFFFFFFFFFFFFFFFFFFFFFFFF AND PUSH32 0xDD0B6C6A77960E2066C96171B4D7AC9E8B4C184011F38544AFA36A5BB63EC59F CALLVALUE PUSH1 0x40 MLOAD PUSH2 0x533 SWAP2 SWAP1 PUSH2 0x1226 JUMP JUMPDEST PUSH1 0x40 MLOAD DUP1 SWAP2 SUB SWAP1 LOG2 CALLER PUSH1 0x1 PUSH0 PUSH2 0x100 EXP DUP2 SLOAD DUP2 PUSH20 0xFFFFFFFFFFFFFFFFFFFFFFFFFFFFFFFFFFFFFFFF MUL NOT AND SWAP1 DUP4 PUSH20 0xFFFFFFFFFFFFFFFFFFFFFFFFFFFFFFFFFFFFFFFF AND MUL OR SWAP1 SSTORE POP CALLVALUE PUSH1 0x2 DUP2 SWAP1 SSTORE POP PUSH0 PUSH1 0x3 PUSH0 CALLER PUSH20 0xFFFFFFFFFFFFFFFFFFFFFFFFFFFFFFFFFFFFFFFF AND PUSH20 0xFFFFFFFFFFFFFFFFFFFFFFFFFFFFFFFFFFFFFFFF AND DUP2 MSTORE PUSH1 0x20 ADD SWAP1 DUP2 MSTORE PUSH1 0x20 ADD PUSH0 KECCAK256 SLOAD SUB PUSH2 0x627 JUMPI PUSH1 0x5 CALLER SWAP1 DUP1 PUSH1 0x1 DUP2 SLOAD ADD DUP1 DUP3 SSTORE DUP1 SWAP2 POP POP PUSH1 0x1 SWAP1 SUB SWAP1 PUSH0 MSTORE PUSH1 0x20 PUSH0 KECCAK256 ADD PUSH0 SWAP1 SWAP2 SWAP1 SWAP2 SWAP1 SWAP2 PUSH2 0x100 EXP DUP2 SLOAD DUP2 PUSH20 0xFFFFFFFFFFFFFFFFFFFFFFFFFFFFFFFFFFFFFFFF MUL NOT AND SWAP1 DUP4 PUSH20 0xFFFFFFFFFFFFFFFFFFFFFFFFFFFFFFFFFFFFFFFF AND MUL OR SWAP1 SSTORE POP JUMPDEST PUSH0 PUSH1 0x3 PUSH0 CALLER PUSH20 0xFFFFFFFFFFFFFFFFFFFFFFFFFFFFFFFFFFFFFFFF AND PUSH20 0xFFFFFFFFFFFFFFFFFFFFFFFFFFFFFFFFFFFFFFFF AND DUP2 MSTORE PUSH1 0x20 ADD SWAP1 DUP2 MSTORE PUSH1 0x20 ADD PUSH0 KECCAK256 SLOAD SWAP1 POP PUSH0 PUSH1 0x64 PUSH32 0x0 PUSH1 0x64 PUSH2 0x698 SWAP2 SWAP1 PUSH2 0x16F7 JUMP JUMPDEST DUP4 PUSH2 0x6A3 SWAP2 SWAP1 PUSH2 0x1563 JUMP JUMPDEST PUSH2 0x6AD SWAP2 SWAP1 PUSH2 0x15D1 JUMP JUMPDEST SWAP1 POP CALLVALUE PUSH1 0x3 PUSH0 CALLER PUSH20 0xFFFFFFFFFFFFFFFFFFFFFFFFFFFFFFFFFFFFFFFF AND PUSH20 0xFFFFFFFFFFFFFFFFFFFFFFFFFFFFFFFFFFFFFFFF AND DUP2 MSTORE PUSH1 0x20 ADD SWAP1 DUP2 MSTORE PUSH1 0x20 ADD PUSH0 KECCAK256 DUP2 SWAP1 SSTORE POP PUSH32 0x0 PUSH0 SLOAD PUSH2 0x71E SWAP2 SWAP1 PUSH2 0x16F7 JUMP JUMPDEST TIMESTAMP LT PUSH2 0x7AC JUMPI PUSH0 PUSH32 0x0 PUSH0 SLOAD PUSH2 0x752 SWAP2 SWAP1 PUSH2 0x1530 JUMP JUMPDEST SWAP1 POP DUP1 PUSH0 DUP2 SWAP1 SSTORE POP CALLER PUSH20 0xFFFFFFFFFFFFFFFFFFFFFFFFFFFFFFFFFFFFFFFF AND PUSH32 0x2241AA88C881D125CCE08EF2A8F6BFD221CA46E27736A38F9353622A4303C705 DUP3 CALLVALUE PUSH1 0x40 MLOAD PUSH2 0x7A2 SWAP3 SWAP2 SWAP1 PUSH2 0x172A JUMP JUMPDEST PUSH1 0x40 MLOAD DUP1 SWAP2 SUB SWAP1 LOG2 POP JUMPDEST PUSH0 CALLER PUSH20 0xFFFFFFFFFFFFFFFFFFFFFFFFFFFFFFFFFFFFFFFF AND DUP3 PUSH1 0x40 MLOAD PUSH2 0x7D1 SWAP1 PUSH2 0x177E JUMP JUMPDEST PUSH0 PUSH1 0x40 MLOAD DUP1 DUP4 SUB DUP2 DUP6 DUP8 GAS CALL SWAP3 POP POP POP RETURNDATASIZE DUP1 PUSH0 DUP2 EQ PUSH2 0x80B JUMPI PUSH1 0x40 MLOAD SWAP2 POP PUSH1 0x1F NOT PUSH1 0x3F RETURNDATASIZE ADD AND DUP3 ADD PUSH1 0x40 MSTORE RETURNDATASIZE DUP3 MSTORE RETURNDATASIZE PUSH0 PUSH1 0x20 DUP5 ADD RETURNDATACOPY PUSH2 0x810 JUMP JUMPDEST PUSH1 0x60 SWAP2 POP JUMPDEST POP POP SWAP1 POP DUP1 PUSH2 0x854 JUMPI PUSH1 0x40 MLOAD PUSH32 0x8C379A000000000000000000000000000000000000000000000000000000000 DUP2 MSTORE PUSH1 0x4 ADD PUSH2 0x84B SWAP1 PUSH2 0x17DC JUMP JUMPDEST PUSH1 0x40 MLOAD DUP1 SWAP2 SUB SWAP1 REVERT JUMPDEST CALLER PUSH20 0xFFFFFFFFFFFFFFFFFFFFFFFFFFFFFFFFFFFFFFFF AND PUSH32 0xDCE68997783AE47468B6FB0DD39CCA315F9082D51D9AB3DF8747C70512AA8FF2 DUP4 PUSH1 0x40 MLOAD PUSH2 0x89A SWAP2 SWAP1 PUSH2 0x1226 JUMP JUMPDEST PUSH1 0x40 MLOAD DUP1 SWAP2 SUB SWAP1 LOG2 POP POP POP PUSH0 PUSH1 0x6 PUSH0 PUSH2 0x100 EXP DUP2 SLOAD DUP2 PUSH1 0xFF MUL NOT AND SWAP1 DUP4 ISZERO ISZERO MUL OR SWAP1 SSTORE POP JUMP JUMPDEST PUSH32 0x0 DUP2 JUMP JUMPDEST PUSH0 SLOAD TIMESTAMP LT ISZERO PUSH2 0x928 JUMPI PUSH1 0x40 MLOAD PUSH32 0x8C379A000000000000000000000000000000000000000000000000000000000 DUP2 MSTORE PUSH1 0x4 ADD PUSH2 0x91F SWAP1 PUSH2 0x1844 JUMP JUMPDEST PUSH1 0x40 MLOAD DUP1 SWAP2 SUB SWAP1 REVERT JUMPDEST PUSH1 0x4 PUSH0 SWAP1 SLOAD SWAP1 PUSH2 0x100 EXP SWAP1 DIV PUSH1 0xFF AND ISZERO PUSH2 0x977 JUMPI PUSH1 0x40 MLOAD PUSH32 0x8C379A000000000000000000000000000000000000000000000000000000000 DUP2 MSTORE PUSH1 0x4 ADD PUSH2 0x96E SWAP1 PUSH2 0x18AC JUMP JUMPDEST PUSH1 0x40 MLOAD DUP1 SWAP2 SUB SWAP1 REVERT JUMPDEST PUSH1 0x6 PUSH0 SWAP1 SLOAD SWAP1 PUSH2 0x100 EXP SWAP1 DIV PUSH1 0xFF AND ISZERO PUSH2 0x9C6 JUMPI PUSH1 0x40 MLOAD PUSH32 0x8C379A000000000000000000000000000000000000000000000000000000000 DUP2 MSTORE PUSH1 0x4 ADD PUSH2 0x9BD SWAP1 PUSH2 0x147D JUMP JUMPDEST PUSH1 0x40 MLOAD DUP1 SWAP2 SUB SWAP1 REVERT JUMPDEST PUSH1 0x1 PUSH1 0x6 PUSH0 PUSH2 0x100 EXP DUP2 SLOAD DUP2 PUSH1 0xFF MUL NOT AND SWAP1 DUP4 ISZERO ISZERO MUL OR SWAP1 SSTORE POP PUSH1 0x1 PUSH1 0x4 PUSH0 PUSH2 0x100 EXP DUP2 SLOAD DUP2 PUSH1 0xFF MUL NOT AND SWAP1 DUP4 ISZERO ISZERO MUL OR SWAP1 SSTORE POP PUSH1 0x1 PUSH0 SWAP1 SLOAD SWAP1 PUSH2 0x100 EXP SWAP1 DIV PUSH20 0xFFFFFFFFFFFFFFFFFFFFFFFFFFFFFFFFFFFFFFFF AND PUSH20 0xFFFFFFFFFFFFFFFFFFFFFFFFFFFFFFFFFFFFFFFF AND PUSH32 0x8B1AD6C69D3D79A05F5B1EC0DE825E9BF67C6C70B8C25BABD159976CF9990DFF PUSH1 0x2 SLOAD PUSH1 0x40 MLOAD PUSH2 0xA63 SWAP2 SWAP1 PUSH2 0x1226 JUMP JUMPDEST PUSH1 0x40 MLOAD DUP1 SWAP2 SUB SWAP1 LOG2 PUSH0 PUSH1 0x6 PUSH0 PUSH2 0x100 EXP DUP2 SLOAD DUP2 PUSH1 0xFF MUL NOT AND SWAP1 DUP4 ISZERO ISZERO MUL OR SWAP1 SSTORE POP JUMP JUMPDEST PUSH1 0x6 PUSH0 SWAP1 SLOAD SWAP1 PUSH2 0x100 EXP SWAP1 DIV PUSH1 0xFF AND ISZERO PUSH2 0xAD5 JUMPI PUSH1 0x40 MLOAD PUSH32 0x8C379A000000000000000000000000000000000000000000000000000000000 DUP2 MSTORE PUSH1 0x4 ADD PUSH2 0xACC SWAP1 PUSH2 0x147D JUMP JUMPDEST PUSH1 0x40 MLOAD DUP1 SWAP2 SUB SWAP1 REVERT JUMPDEST PUSH1 0x1 PUSH1 0x6 PUSH0 PUSH2 0x100 EXP DUP2 SLOAD DUP2 PUSH1 0xFF MUL NOT AND SWAP1 DUP4 ISZERO ISZERO MUL OR SWAP1 SSTORE POP PUSH0 SLOAD TIMESTAMP LT ISZERO PUSH2 0xB33 JUMPI PUSH1 0x40 MLOAD PUSH32 0x8C379A000000000000000000000000000000000000000000000000000000000 DUP2 MSTORE PUSH1 0x4 ADD PUSH2 0xB2A SWAP1 PUSH2 0x1844 JUMP JUMPDEST PUSH1 0x40 MLOAD DUP1 SWAP2 SUB SWAP1 REVERT JUMPDEST PUSH1 0x1 PUSH0 SWAP1 SLOAD SWAP1 PUSH2 0x100 EXP SWAP1 DIV PUSH20 0xFFFFFFFFFFFFFFFFFFFFFFFFFFFFFFFFFFFFFFFF AND PUSH20 0xFFFFFFFFFFFFFFFFFFFFFFFFFFFFFFFFFFFFFFFF AND CALLER PUSH20 0xFFFFFFFFFFFFFFFFFFFFFFFFFFFFFFFFFFFFFFFF AND SUB PUSH2 0xBC2 JUMPI PUSH1 0x40 MLOAD PUSH32 0x8C379A000000000000000000000000000000000000000000000000000000000 DUP2 MSTORE PUSH1 0x4 ADD PUSH2 0xBB9 SWAP1 PUSH2 0x16D9 JUMP JUMPDEST PUSH1 0x40 MLOAD DUP1 SWAP2 SUB SWAP1 REVERT JUMPDEST PUSH0 PUSH1 0x3 PUSH0 CALLER PUSH20 0xFFFFFFFFFFFFFFFFFFFFFFFFFFFFFFFFFFFFFFFF AND PUSH20 0xFFFFFFFFFFFFFFFFFFFFFFFFFFFFFFFFFFFFFFFF AND DUP2 MSTORE PUSH1 0x20 ADD SWAP1 DUP2 MSTORE PUSH1 0x20 ADD PUSH0 KECCAK256 SLOAD SWAP1 POP PUSH0 DUP2 GT PUSH2 0xC45 JUMPI PUSH1 0x40 MLOAD PUSH32 0x8C379A000000000000000000000000000000000000000000000000000000000 DUP2 MSTORE PUSH1 0x4 ADD PUSH2 0xC3C SWAP1 PUSH2 0x1914 JUMP JUMPDEST PUSH1 0x40 MLOAD DUP1 SWAP2 SUB SWAP1 REVERT JUMPDEST PUSH0 PUSH1 0x64 PUSH32 0x0 PUSH1 0x64 PUSH2 0xC75 SWAP2 SWAP1 PUSH2 0x16F7 JUMP JUMPDEST DUP4 PUSH2 0xC80 SWAP2 SWAP1 PUSH2 0x1563 JUMP JUMPDEST PUSH2 0xC8A SWAP2 SWAP1 PUSH2 0x15D1 JUMP JUMPDEST SWAP1 POP PUSH1 0x3 PUSH0 CALLER PUSH20 0xFFFFFFFFFFFFFFFFFFFFFFFFFFFFFFFFFFFFFFFF AND PUSH20 0xFFFFFFFFFFFFFFFFFFFFFFFFFFFFFFFFFFFFFFFF AND DUP2 MSTORE PUSH1 0x20 ADD SWAP1 DUP2 MSTORE PUSH1 0x20 ADD PUSH0 KECCAK256 PUSH0 SWAP1 SSTORE PUSH0 PUSH0 SWAP1 POP JUMPDEST PUSH1 0x5 DUP1 SLOAD SWAP1 POP DUP2 LT ISZERO PUSH2 0xE48 JUMPI CALLER PUSH20 0xFFFFFFFFFFFFFFFFFFFFFFFFFFFFFFFFFFFFFFFF AND PUSH1 0x5 DUP3 DUP2 SLOAD DUP2 LT PUSH2 0xD09 JUMPI PUSH2 0xD08 PUSH2 0x1932 JUMP JUMPDEST JUMPDEST SWAP1 PUSH0 MSTORE PUSH1 0x20 PUSH0 KECCAK256 ADD PUSH0 SWAP1 SLOAD SWAP1 PUSH2 0x100 EXP SWAP1 DIV PUSH20 0xFFFFFFFFFFFFFFFFFFFFFFFFFFFFFFFFFFFFFFFF AND PUSH20 0xFFFFFFFFFFFFFFFFFFFFFFFFFFFFFFFFFFFFFFFF AND SUB PUSH2 0xE3B JUMPI PUSH1 0x5 PUSH1 0x1 PUSH1 0x5 DUP1 SLOAD SWAP1 POP PUSH2 0xD60 SWAP2 SWAP1 PUSH2 0x16F7 JUMP JUMPDEST DUP2 SLOAD DUP2 LT PUSH2 0xD71 JUMPI PUSH2 0xD70 PUSH2 0x1932 JUMP JUMPDEST JUMPDEST SWAP1 PUSH0 MSTORE PUSH1 0x20 PUSH0 KECCAK256 ADD PUSH0 SWAP1 SLOAD SWAP1 PUSH2 0x100 EXP SWAP1 DIV PUSH20 0xFFFFFFFFFFFFFFFFFFFFFFFFFFFFFFFFFFFFFFFF AND PUSH1 0x5 DUP3 DUP2 SLOAD DUP2 LT PUSH2 0xDAD JUMPI PUSH2 0xDAC PUSH2 0x1932 JUMP JUMPDEST JUMPDEST SWAP1 PUSH0 MSTORE PUSH1 0x20 PUSH0 KECCAK256 ADD PUSH0 PUSH2 0x100 EXP DUP2 SLOAD DUP2 PUSH20 0xFFFFFFFFFFFFFFFFFFFFFFFFFFFFFFFFFFFFFFFF MUL NOT AND SWAP1 DUP4 PUSH20 0xFFFFFFFFFFFFFFFFFFFFFFFFFFFFFFFFFFFFFFFF AND MUL OR SWAP1 SSTORE POP PUSH1 0x5 DUP1 SLOAD DUP1 PUSH2 0xE04 JUMPI PUSH2 0xE03 PUSH2 0x195F JUMP JUMPDEST JUMPDEST PUSH1 0x1 SWAP1 SUB DUP2 DUP2 SWAP1 PUSH0 MSTORE PUSH1 0x20 PUSH0 KECCAK256 ADD PUSH0 PUSH2 0x100 EXP DUP2 SLOAD SWAP1 PUSH20 0xFFFFFFFFFFFFFFFFFFFFFFFFFFFFFFFFFFFFFFFF MUL NOT AND SWAP1 SSTORE SWAP1 SSTORE PUSH2 0xE48 JUMP JUMPDEST DUP1 DUP1 PUSH1 0x1 ADD SWAP2 POP POP PUSH2 0xCD1 JUMP JUMPDEST POP PUSH0 CALLER PUSH20 0xFFFFFFFFFFFFFFFFFFFFFFFFFFFFFFFFFFFFFFFF AND DUP3 PUSH1 0x40 MLOAD PUSH2 0xE6E SWAP1 PUSH2 0x177E JUMP JUMPDEST PUSH0 PUSH1 0x40 MLOAD DUP1 DUP4 SUB DUP2 DUP6 DUP8 GAS CALL SWAP3 POP POP POP RETURNDATASIZE DUP1 PUSH0 DUP2 EQ PUSH2 0xEA8 JUMPI PUSH1 0x40 MLOAD SWAP2 POP PUSH1 0x1F NOT PUSH1 0x3F RETURNDATASIZE ADD AND DUP3 ADD PUSH1 0x40 MSTORE RETURNDATASIZE DUP3 MSTORE RETURNDATASIZE PUSH0 PUSH1 0x20 DUP5 ADD RETURNDATACOPY PUSH2 0xEAD JUMP JUMPDEST PUSH1 0x60 SWAP2 POP JUMPDEST POP POP SWAP1 POP DUP1 PUSH2 0xEF1 JUMPI PUSH1 0x40 MLOAD PUSH32 0x8C379A000000000000000000000000000000000000000000000000000000000 DUP2 MSTORE PUSH1 0x4 ADD PUSH2 0xEE8 SWAP1 PUSH2 0x17DC JUMP JUMPDEST PUSH1 0x40 MLOAD DUP1 SWAP2 SUB SWAP1 REVERT JUMPDEST CALLER PUSH20 0xFFFFFFFFFFFFFFFFFFFFFFFFFFFFFFFFFFFFFFFF AND PUSH32 0xBB28353E4598C3B9199101A66E0989549B659A59A54D2C27FBB183F1932C8E6D DUP4 PUSH1 0x40 MLOAD PUSH2 0xF37 SWAP2 SWAP1 PUSH2 0x1226 JUMP JUMPDEST PUSH1 0x40 MLOAD DUP1 SWAP2 SUB SWAP1 LOG2 POP POP POP PUSH0 PUSH1 0x6 PUSH0 PUSH2 0x100 EXP DUP2 SLOAD DUP2 PUSH1 0xFF MUL NOT AND SWAP1 DUP4 ISZERO ISZERO MUL OR SWAP1 SSTORE POP JUMP JUMPDEST PUSH32 0x0 DUP2 JUMP JUMPDEST PUSH1 0x60 PUSH0 PUSH1 0x5 DUP1 SLOAD SWAP1 POP SWAP1 POP PUSH0 DUP2 PUSH8 0xFFFFFFFFFFFFFFFF DUP2 GT ISZERO PUSH2 0xFA7 JUMPI PUSH2 0xFA6 PUSH2 0x198C JUMP JUMPDEST JUMPDEST PUSH1 0x40 MLOAD SWAP1 DUP1 DUP3 MSTORE DUP1 PUSH1 0x20 MUL PUSH1 0x20 ADD DUP3 ADD PUSH1 0x40 MSTORE DUP1 ISZERO PUSH2 0xFE0 JUMPI DUP2 PUSH1 0x20 ADD JUMPDEST PUSH2 0xFCD PUSH2 0x11E0 JUMP JUMPDEST DUP2 MSTORE PUSH1 0x20 ADD SWAP1 PUSH1 0x1 SWAP1 SUB SWAP1 DUP2 PUSH2 0xFC5 JUMPI SWAP1 POP JUMPDEST POP SWAP1 POP PUSH0 PUSH0 SWAP1 POP JUMPDEST DUP3 DUP2 LT ISZERO PUSH2 0x10F9 JUMPI PUSH1 0x40 MLOAD DUP1 PUSH1 0x40 ADD PUSH1 0x40 MSTORE DUP1 PUSH1 0x5 DUP4 DUP2 SLOAD DUP2 LT PUSH2 0x100F JUMPI PUSH2 0x100E PUSH2 0x1932 JUMP JUMPDEST JUMPDEST SWAP1 PUSH0 MSTORE PUSH1 0x20 PUSH0 KECCAK256 ADD PUSH0 SWAP1 SLOAD SWAP1 PUSH2 0x100 EXP SWAP1 DIV PUSH20 0xFFFFFFFFFFFFFFFFFFFFFFFFFFFFFFFFFFFFFFFF AND PUSH20 0xFFFFFFFFFFFFFFFFFFFFFFFFFFFFFFFFFFFFFFFF AND DUP2 MSTORE PUSH1 0x20 ADD PUSH1 0x3 PUSH0 PUSH1 0x5 DUP6 DUP2 SLOAD DUP2 LT PUSH2 0x1069 JUMPI PUSH2 0x1068 PUSH2 0x1932 JUMP JUMPDEST JUMPDEST SWAP1 PUSH0 MSTORE PUSH1 0x20 PUSH0 KECCAK256 ADD PUSH0 SWAP1 SLOAD SWAP1 PUSH2 0x100 EXP SWAP1 DIV PUSH20 0xFFFFFFFFFFFFFFFFFFFFFFFFFFFFFFFFFFFFFFFF AND PUSH20 0xFFFFFFFFFFFFFFFFFFFFFFFFFFFFFFFFFFFFFFFF AND PUSH20 0xFFFFFFFFFFFFFFFFFFFFFFFFFFFFFFFFFFFFFFFF AND DUP2 MSTORE PUSH1 0x20 ADD SWAP1 DUP2 MSTORE PUSH1 0x20 ADD PUSH0 KECCAK256 SLOAD DUP2 MSTORE POP DUP3 DUP3 DUP2 MLOAD DUP2 LT PUSH2 0x10E1 JUMPI PUSH2 0x10E0 PUSH2 0x1932 JUMP JUMPDEST JUMPDEST PUSH1 0x20 MUL PUSH1 0x20 ADD ADD DUP2 SWAP1 MSTORE POP DUP1 DUP1 PUSH1 0x1 ADD SWAP2 POP POP PUSH2 0xFE8 JUMP JUMPDEST POP DUP1 SWAP3 POP POP POP SWAP1 JUMP JUMPDEST PUSH32 0x0 DUP2 JUMP JUMPDEST PUSH1 0x4 PUSH0 SWAP1 SLOAD SWAP1 PUSH2 0x100 EXP SWAP1 DIV PUSH1 0xFF AND DUP2 JUMP JUMPDEST PUSH0 SLOAD DUP2 JUMP JUMPDEST PUSH0 PUSH0 SLOAD TIMESTAMP LT PUSH2 0x114E JUMPI PUSH0 SWAP1 POP PUSH2 0x115E JUMP JUMPDEST TIMESTAMP PUSH0 SLOAD PUSH2 0x115B SWAP2 SWAP1 PUSH2 0x16F7 JUMP JUMPDEST SWAP1 POP JUMPDEST SWAP1 JUMP JUMPDEST PUSH2 0x1169 PUSH2 0x11E0 JUMP JUMPDEST PUSH1 0x40 MLOAD DUP1 PUSH1 0x40 ADD PUSH1 0x40 MSTORE DUP1 PUSH1 0x1 PUSH0 SWAP1 SLOAD SWAP1 PUSH2 0x100 EXP SWAP1 DIV PUSH20 0xFFFFFFFFFFFFFFFFFFFFFFFFFFFFFFFFFFFFFFFF AND PUSH20 0xFFFFFFFFFFFFFFFFFFFFFFFFFFFFFFFFFFFFFFFF AND DUP2 MSTORE PUSH1 0x20 ADD PUSH1 0x2 SLOAD DUP2 MSTORE POP SWAP1 POP SWAP1 JUMP JUMPDEST PUSH32 0x0 DUP2 JUMP JUMPDEST PUSH1 0x40 MLOAD DUP1 PUSH1 0x40 ADD PUSH1 0x40 MSTORE DUP1 PUSH0 PUSH20 0xFFFFFFFFFFFFFFFFFFFFFFFFFFFFFFFFFFFFFFFF AND DUP2 MSTORE PUSH1 0x20 ADD PUSH0 DUP2 MSTORE POP SWAP1 JUMP JUMPDEST PUSH0 DUP2 SWAP1 POP SWAP2 SWAP1 POP JUMP JUMPDEST PUSH2 0x1220 DUP2 PUSH2 0x120E JUMP JUMPDEST DUP3 MSTORE POP POP JUMP JUMPDEST PUSH0 PUSH1 0x20 DUP3 ADD SWAP1 POP PUSH2 0x1239 PUSH0 DUP4 ADD DUP5 PUSH2 0x1217 JUMP JUMPDEST SWAP3 SWAP2 POP POP JUMP JUMPDEST PUSH0 DUP2 MLOAD SWAP1 POP SWAP2 SWAP1 POP JUMP JUMPDEST PUSH0 DUP3 DUP3 MSTORE PUSH1 0x20 DUP3 ADD SWAP1 POP SWAP3 SWAP2 POP POP JUMP JUMPDEST PUSH0 DUP2 SWAP1 POP PUSH1 0x20 DUP3 ADD SWAP1 POP SWAP2 SWAP1 POP JUMP JUMPDEST PUSH0 PUSH20 0xFFFFFFFFFFFFFFFFFFFFFFFFFFFFFFFFFFFFFFFF DUP3 AND SWAP1 POP SWAP2 SWAP1 POP JUMP JUMPDEST PUSH0 PUSH2 0x1291 DUP3 PUSH2 0x1268 JUMP JUMPDEST SWAP1 POP SWAP2 SWAP1 POP JUMP JUMPDEST PUSH2 0x12A1 DUP2 PUSH2 0x1287 JUMP JUMPDEST DUP3 MSTORE POP POP JUMP JUMPDEST PUSH2 0x12B0 DUP2 PUSH2 0x120E JUMP JUMPDEST DUP3 MSTORE POP POP JUMP JUMPDEST PUSH1 0x40 DUP3 ADD PUSH0 DUP3 ADD MLOAD PUSH2 0x12CA PUSH0 DUP6 ADD DUP3 PUSH2 0x1298 JUMP JUMPDEST POP PUSH1 0x20 DUP3 ADD MLOAD PUSH2 0x12DD PUSH1 0x20 DUP6 ADD DUP3 PUSH2 0x12A7 JUMP JUMPDEST POP POP POP POP JUMP JUMPDEST PUSH0 PUSH2 0x12EE DUP4 DUP4 PUSH2 0x12B6 JUMP JUMPDEST PUSH1 0x40 DUP4 ADD SWAP1 POP SWAP3 SWAP2 POP POP JUMP JUMPDEST PUSH0 PUSH1 0x20 DUP3 ADD SWAP1 POP SWAP2 SWAP1 POP JUMP JUMPDEST PUSH0 PUSH2 0x1310 DUP3 PUSH2 0x123F JUMP JUMPDEST PUSH2 0x131A DUP2 DUP6 PUSH2 0x1249 JUMP JUMPDEST SWAP4 POP PUSH2 0x1325 DUP4 PUSH2 0x1259 JUMP JUMPDEST DUP1 PUSH0 JUMPDEST DUP4 DUP2 LT ISZERO PUSH2 0x1355 JUMPI DUP2 MLOAD PUSH2 0x133C DUP9 DUP3 PUSH2 0x12E3 JUMP JUMPDEST SWAP8 POP PUSH2 0x1347 DUP4 PUSH2 0x12FA JUMP JUMPDEST SWAP3 POP POP PUSH1 0x1 DUP2 ADD SWAP1 POP PUSH2 0x1328 JUMP JUMPDEST POP DUP6 SWAP4 POP POP POP POP SWAP3 SWAP2 POP POP JUMP JUMPDEST PUSH0 PUSH1 0x20 DUP3 ADD SWAP1 POP DUP2 DUP2 SUB PUSH0 DUP4 ADD MSTORE PUSH2 0x137A DUP2 DUP5 PUSH2 0x1306 JUMP JUMPDEST SWAP1 POP SWAP3 SWAP2 POP POP JUMP JUMPDEST PUSH2 0x138B DUP2 PUSH2 0x1287 JUMP JUMPDEST DUP3 MSTORE POP POP JUMP JUMPDEST PUSH0 PUSH1 0x20 DUP3 ADD SWAP1 POP PUSH2 0x13A4 PUSH0 DUP4 ADD DUP5 PUSH2 0x1382 JUMP JUMPDEST SWAP3 SWAP2 POP POP JUMP JUMPDEST PUSH0 DUP2 ISZERO ISZERO SWAP1 POP SWAP2 SWAP1 POP JUMP JUMPDEST PUSH2 0x13BE DUP2 PUSH2 0x13AA JUMP JUMPDEST DUP3 MSTORE POP POP JUMP JUMPDEST PUSH0 PUSH1 0x20 DUP3 ADD SWAP1 POP PUSH2 0x13D7 PUSH0 DUP4 ADD DUP5 PUSH2 0x13B5 JUMP JUMPDEST SWAP3 SWAP2 POP POP JUMP JUMPDEST PUSH1 0x40 DUP3 ADD PUSH0 DUP3 ADD MLOAD PUSH2 0x13F1 PUSH0 DUP6 ADD DUP3 PUSH2 0x1298 JUMP JUMPDEST POP PUSH1 0x20 DUP3 ADD MLOAD PUSH2 0x1404 PUSH1 0x20 DUP6 ADD DUP3 PUSH2 0x12A7 JUMP JUMPDEST POP POP POP POP JUMP JUMPDEST PUSH0 PUSH1 0x40 DUP3 ADD SWAP1 POP PUSH2 0x141D PUSH0 DUP4 ADD DUP5 PUSH2 0x13DD JUMP JUMPDEST SWAP3 SWAP2 POP POP JUMP JUMPDEST PUSH0 DUP3 DUP3 MSTORE PUSH1 0x20 DUP3 ADD SWAP1 POP SWAP3 SWAP2 POP POP JUMP JUMPDEST PUSH32 0x7265656E74722E00000000000000000000000000000000000000000000000000 PUSH0 DUP3 ADD MSTORE POP JUMP JUMPDEST PUSH0 PUSH2 0x1467 PUSH1 0x7 DUP4 PUSH2 0x1423 JUMP JUMPDEST SWAP2 POP PUSH2 0x1472 DUP3 PUSH2 0x1433 JUMP JUMPDEST PUSH1 0x20 DUP3 ADD SWAP1 POP SWAP2 SWAP1 POP JUMP JUMPDEST PUSH0 PUSH1 0x20 DUP3 ADD SWAP1 POP DUP2 DUP2 SUB PUSH0 DUP4 ADD MSTORE PUSH2 0x1494 DUP2 PUSH2 0x145B JUMP JUMPDEST SWAP1 POP SWAP2 SWAP1 POP JUMP JUMPDEST PUSH32 0x436F6E747261746F20657870697261646F000000000000000000000000000000 PUSH0 DUP3 ADD MSTORE POP JUMP JUMPDEST PUSH0 PUSH2 0x14CF PUSH1 0x11 DUP4 PUSH2 0x1423 JUMP JUMPDEST SWAP2 POP PUSH2 0x14DA DUP3 PUSH2 0x149B JUMP JUMPDEST PUSH1 0x20 DUP3 ADD SWAP1 POP SWAP2 SWAP1 POP JUMP JUMPDEST PUSH0 PUSH1 0x20 DUP3 ADD SWAP1 POP DUP2 DUP2 SUB PUSH0 DUP4 ADD MSTORE PUSH2 0x14FC DUP2 PUSH2 0x14C3 JUMP JUMPDEST SWAP1 POP SWAP2 SWAP1 POP JUMP JUMPDEST PUSH32 0x4E487B7100000000000000000000000000000000000000000000000000000000 PUSH0 MSTORE PUSH1 0x11 PUSH1 0x4 MSTORE PUSH1 0x24 PUSH0 REVERT JUMPDEST PUSH0 PUSH2 0x153A DUP3 PUSH2 0x120E JUMP JUMPDEST SWAP2 POP PUSH2 0x1545 DUP4 PUSH2 0x120E JUMP JUMPDEST SWAP3 POP DUP3 DUP3 ADD SWAP1 POP DUP1 DUP3 GT ISZERO PUSH2 0x155D JUMPI PUSH2 0x155C PUSH2 0x1503 JUMP JUMPDEST JUMPDEST SWAP3 SWAP2 POP POP JUMP JUMPDEST PUSH0 PUSH2 0x156D DUP3 PUSH2 0x120E JUMP JUMPDEST SWAP2 POP PUSH2 0x1578 DUP4 PUSH2 0x120E JUMP JUMPDEST SWAP3 POP DUP3 DUP3 MUL PUSH2 0x1586 DUP2 PUSH2 0x120E JUMP JUMPDEST SWAP2 POP DUP3 DUP3 DIV DUP5 EQ DUP4 ISZERO OR PUSH2 0x159D JUMPI PUSH2 0x159C PUSH2 0x1503 JUMP JUMPDEST JUMPDEST POP SWAP3 SWAP2 POP POP JUMP JUMPDEST PUSH32 0x4E487B7100000000000000000000000000000000000000000000000000000000 PUSH0 MSTORE PUSH1 0x12 PUSH1 0x4 MSTORE PUSH1 0x24 PUSH0 REVERT JUMPDEST PUSH0 PUSH2 0x15DB DUP3 PUSH2 0x120E JUMP JUMPDEST SWAP2 POP PUSH2 0x15E6 DUP4 PUSH2 0x120E JUMP JUMPDEST SWAP3 POP DUP3 PUSH2 0x15F6 JUMPI PUSH2 0x15F5 PUSH2 0x15A4 JUMP JUMPDEST JUMPDEST DUP3 DUP3 DIV SWAP1 POP SWAP3 SWAP2 POP POP JUMP JUMPDEST PUSH32 0x50756A6120636F6E206D656E6F7320646520352520646520696E6372656D656E PUSH0 DUP3 ADD MSTORE PUSH32 0x746F20736F627265206C612067616E61646F7261000000000000000000000000 PUSH1 0x20 DUP3 ADD MSTORE POP JUMP JUMPDEST PUSH0 PUSH2 0x165B PUSH1 0x34 DUP4 PUSH2 0x1423 JUMP JUMPDEST SWAP2 POP PUSH2 0x1666 DUP3 PUSH2 0x1601 JUMP JUMPDEST PUSH1 0x40 DUP3 ADD SWAP1 POP SWAP2 SWAP1 POP JUMP JUMPDEST PUSH0 PUSH1 0x20 DUP3 ADD SWAP1 POP DUP2 DUP2 SUB PUSH0 DUP4 ADD MSTORE PUSH2 0x1688 DUP2 PUSH2 0x164F JUMP JUMPDEST SWAP1 POP SWAP2 SWAP1 POP JUMP JUMPDEST PUSH32 0x5573746564207961207469656E65206C61206D656A6F722070756A6100000000 PUSH0 DUP3 ADD MSTORE POP JUMP JUMPDEST PUSH0 PUSH2 0x16C3 PUSH1 0x1C DUP4 PUSH2 0x1423 JUMP JUMPDEST SWAP2 POP PUSH2 0x16CE DUP3 PUSH2 0x168F JUMP JUMPDEST PUSH1 0x20 DUP3 ADD SWAP1 POP SWAP2 SWAP1 POP JUMP JUMPDEST PUSH0 PUSH1 0x20 DUP3 ADD SWAP1 POP DUP2 DUP2 SUB PUSH0 DUP4 ADD MSTORE PUSH2 0x16F0 DUP2 PUSH2 0x16B7 JUMP JUMPDEST SWAP1 POP SWAP2 SWAP1 POP JUMP JUMPDEST PUSH0 PUSH2 0x1701 DUP3 PUSH2 0x120E JUMP JUMPDEST SWAP2 POP PUSH2 0x170C DUP4 PUSH2 0x120E JUMP JUMPDEST SWAP3 POP DUP3 DUP3 SUB SWAP1 POP DUP2 DUP2 GT ISZERO PUSH2 0x1724 JUMPI PUSH2 0x1723 PUSH2 0x1503 JUMP JUMPDEST JUMPDEST SWAP3 SWAP2 POP POP JUMP JUMPDEST PUSH0 PUSH1 0x40 DUP3 ADD SWAP1 POP PUSH2 0x173D PUSH0 DUP4 ADD DUP6 PUSH2 0x1217 JUMP JUMPDEST PUSH2 0x174A PUSH1 0x20 DUP4 ADD DUP5 PUSH2 0x1217 JUMP JUMPDEST SWAP4 SWAP3 POP POP POP JUMP JUMPDEST PUSH0 DUP2 SWAP1 POP SWAP3 SWAP2 POP POP JUMP JUMPDEST POP JUMP JUMPDEST PUSH0 PUSH2 0x1769 PUSH0 DUP4 PUSH2 0x1751 JUMP JUMPDEST SWAP2 POP PUSH2 0x1774 DUP3 PUSH2 0x175B JUMP JUMPDEST PUSH0 DUP3 ADD SWAP1 POP SWAP2 SWAP1 POP JUMP JUMPDEST PUSH0 PUSH2 0x1788 DUP3 PUSH2 0x175E JUMP JUMPDEST SWAP2 POP DUP2 SWAP1 POP SWAP2 SWAP1 POP JUMP JUMPDEST PUSH32 0x526566756E642066616C6C69646F000000000000000000000000000000000000 PUSH0 DUP3 ADD MSTORE POP JUMP JUMPDEST PUSH0 PUSH2 0x17C6 PUSH1 0xE DUP4 PUSH2 0x1423 JUMP JUMPDEST SWAP2 POP PUSH2 0x17D1 DUP3 PUSH2 0x1792 JUMP JUMPDEST PUSH1 0x20 DUP3 ADD SWAP1 POP SWAP2 SWAP1 POP JUMP JUMPDEST PUSH0 PUSH1 0x20 DUP3 ADD SWAP1 POP DUP2 DUP2 SUB PUSH0 DUP4 ADD MSTORE PUSH2 0x17F3 DUP2 PUSH2 0x17BA JUMP JUMPDEST SWAP1 POP SWAP2 SWAP1 POP JUMP JUMPDEST PUSH32 0x456C20636F6E747261746F2061756E206E6F20686120657870697261646F0000 PUSH0 DUP3 ADD MSTORE POP JUMP JUMPDEST PUSH0 PUSH2 0x182E PUSH1 0x1E DUP4 PUSH2 0x1423 JUMP JUMPDEST SWAP2 POP PUSH2 0x1839 DUP3 PUSH2 0x17FA JUMP JUMPDEST PUSH1 0x20 DUP3 ADD SWAP1 POP SWAP2 SWAP1 POP JUMP JUMPDEST PUSH0 PUSH1 0x20 DUP3 ADD SWAP1 POP DUP2 DUP2 SUB PUSH0 DUP4 ADD MSTORE PUSH2 0x185B DUP2 PUSH2 0x1822 JUMP JUMPDEST SWAP1 POP SWAP2 SWAP1 POP JUMP JUMPDEST PUSH32 0x416C72656164792066696E616C697A6564000000000000000000000000000000 PUSH0 DUP3 ADD MSTORE POP JUMP JUMPDEST PUSH0 PUSH2 0x1896 PUSH1 0x11 DUP4 PUSH2 0x1423 JUMP JUMPDEST SWAP2 POP PUSH2 0x18A1 DUP3 PUSH2 0x1862 JUMP JUMPDEST PUSH1 0x20 DUP3 ADD SWAP1 POP SWAP2 SWAP1 POP JUMP JUMPDEST PUSH0 PUSH1 0x20 DUP3 ADD SWAP1 POP DUP2 DUP2 SUB PUSH0 DUP4 ADD MSTORE PUSH2 0x18C3 DUP2 PUSH2 0x188A JUMP JUMPDEST SWAP1 POP SWAP2 SWAP1 POP JUMP JUMPDEST PUSH32 0x4E6F20686179206F6665727461207265616C697A616461000000000000000000 PUSH0 DUP3 ADD MSTORE POP JUMP JUMPDEST PUSH0 PUSH2 0x18FE PUSH1 0x17 DUP4 PUSH2 0x1423 JUMP JUMPDEST SWAP2 POP PUSH2 0x1909 DUP3 PUSH2 0x18CA JUMP JUMPDEST PUSH1 0x20 DUP3 ADD SWAP1 POP SWAP2 SWAP1 POP JUMP JUMPDEST PUSH0 PUSH1 0x20 DUP3 ADD SWAP1 POP DUP2 DUP2 SUB PUSH0 DUP4 ADD MSTORE PUSH2 0x192B DUP2 PUSH2 0x18F2 JUMP JUMPDEST SWAP1 POP SWAP2 SWAP1 POP JUMP JUMPDEST PUSH32 0x4E487B7100000000000000000000000000000000000000000000000000000000 PUSH0 MSTORE PUSH1 0x32 PUSH1 0x4 MSTORE PUSH1 0x24 PUSH0 REVERT JUMPDEST PUSH32 0x4E487B7100000000000000000000000000000000000000000000000000000000 PUSH0 MSTORE PUSH1 0x31 PUSH1 0x4 MSTORE PUSH1 0x24 PUSH0 REVERT JUMPDEST PUSH32 0x4E487B7100000000000000000000000000000000000000000000000000000000 PUSH0 MSTORE PUSH1 0x41 PUSH1 0x4 MSTORE PUSH1 0x24 PUSH0 REVERT INVALID LOG2 PUSH5 0x6970667358 0x22 SLT KECCAK256 0xA5 DUP2 0xB9 DELEGATECALL SUB SSTORE PUSH5 0xE894019769 0xCF PUSH0 CALLF 0x78A0 RETURNCONTRACT 0xA0 PUSH31 0x540B819D434EA227E6ECD78E64736F6C634300081E00330000000000000000 "
				},
				"gasEstimates": {
					"creation": {
						"codeDepositCost": "1327800",
						"executionCost": "infinite",
						"totalCost": "infinite"
					},
					"external": {
						"bid()": "infinite",
						"claim()": "infinite",
						"duration()": "infinite",
						"endDate()": "2446",
						"extension()": "infinite",
						"finalize()": "85226",
						"finalized()": "2533",
						"gasFee()": "infinite",
						"getAllBids()": "infinite",
						"getTimeLeft()": "infinite",
						"getWinnerBid()": "4996",
						"increment()": "infinite",
						"owner()": "infinite",
						"startDate()": "infinite"
					}
				},
				"methodIdentifiers": {
					"bid()": "1998aeef",
					"claim()": "4e71d92d",
					"duration()": "0fb5a6b4",
					"endDate()": "c24a0f8b",
					"extension()": "2d5537b0",
					"finalize()": "4bb278f3",
					"finalized()": "b3f05b97",
					"gasFee()": "658612e9",
					"getAllBids()": "8d0f6da3",
					"getTimeLeft()": "c7e284b8",
					"getWinnerBid()": "ceb98f6e",
					"increment()": "d09de08a",
					"owner()": "8da5cb5b",
					"startDate()": "0b97bc86"
				}
			},
			"storageLayout": {
				"storage": [
					{
						"astId": 8,
						"contract": "Auction.sol:Auction",
						"label": "endDate",
						"offset": 0,
						"slot": "0",
						"type": "t_uint256"
					},
					{
						"astId": 12,
						"contract": "Auction.sol:Auction",
						"label": "winnerBidder",
						"offset": 0,
						"slot": "1",
						"type": "t_address"
					},
					{
						"astId": 14,
						"contract": "Auction.sol:Auction",
						"label": "winnerBid",
						"offset": 0,
						"slot": "2",
						"type": "t_uint256"
					},
					{
						"astId": 29,
						"contract": "Auction.sol:Auction",
						"label": "bids",
						"offset": 0,
						"slot": "3",
						"type": "t_mapping(t_address,t_uint256)"
					},
					{
						"astId": 31,
						"contract": "Auction.sol:Auction",
						"label": "finalized",
						"offset": 0,
						"slot": "4",
						"type": "t_bool"
					},
					{
						"astId": 34,
						"contract": "Auction.sol:Auction",
						"label": "bidders",
						"offset": 0,
						"slot": "5",
						"type": "t_array(t_address)dyn_storage"
					},
					{
						"astId": 36,
						"contract": "Auction.sol:Auction",
						"label": "locked",
						"offset": 0,
						"slot": "6",
						"type": "t_bool"
					}
				],
				"types": {
					"t_address": {
						"encoding": "inplace",
						"label": "address",
						"numberOfBytes": "20"
					},
					"t_array(t_address)dyn_storage": {
						"base": "t_address",
						"encoding": "dynamic_array",
						"label": "address[]",
						"numberOfBytes": "32"
					},
					"t_bool": {
						"encoding": "inplace",
						"label": "bool",
						"numberOfBytes": "1"
					},
					"t_mapping(t_address,t_uint256)": {
						"encoding": "mapping",
						"key": "t_address",
						"label": "mapping(address => uint256)",
						"numberOfBytes": "32",
						"value": "t_uint256"
					},
					"t_uint256": {
						"encoding": "inplace",
						"label": "uint256",
						"numberOfBytes": "32"
					}
				}
			},
			"userdoc": {
				"events": {
					"AuctionExtended(address,uint256,uint256)": {
						"notice": "Finalización de la subasta extendida."
					},
					"AuctionFinished(address,uint256)": {
						"notice": "Se emite cuando la subasta ha finalizado."
					},
					"NewBid(address,uint256)": {
						"notice": "Se emite cuando se realiza una nueva puja válida."
					},
					"PartialRefund(address,uint256)": {
						"notice": "Reclamos parcial automático (mejora a la propuesta en la consigna)"
					},
					"Refund(address,uint256)": {
						"notice": "Reclamo de fondos"
					}
				},
				"kind": "user",
				"methods": {
					"bid()": {
						"notice": "Permite hacer una nueva puja si cumple las reglas de la subasta"
					},
					"claim()": {
						"notice": "Reclama el dinero ofertado menos 2% de gas"
					},
					"getAllBids()": {
						"notice": "Devuelve todas las pujas realizadas en formato estructurado"
					},
					"getTimeLeft()": {
						"notice": "Devuelve el tiempo hasta finalizar la subasta"
					},
					"getWinnerBid()": {
						"notice": "Devuelve la oferta ganador de la subasta y su puja hasta el momento"
					}
				},
				"notice": "Este contrato permite ofertar en subastas.",
				"version": 1
			}
		}
	}
}