{
	"Auction.sol": {
		"Auction": {
			"abi": [
				{
					"inputs": [],
					"stateMutability": "nonpayable",
					"type": "constructor"
				},
				{
					"anonymous": false,
					"inputs": [
						{
							"indexed": false,
							"internalType": "uint256",
							"name": "newEndTime",
							"type": "uint256"
						},
						{
							"indexed": true,
							"internalType": "address",
							"name": "lastBidder",
							"type": "address"
						},
						{
							"indexed": false,
							"internalType": "uint256",
							"name": "lastBidAmount",
							"type": "uint256"
						}
					],
					"name": "AuctionExtended",
					"type": "event"
				},
				{
					"anonymous": false,
					"inputs": [
						{
							"indexed": true,
							"internalType": "address",
							"name": "winnerBidder",
							"type": "address"
						},
						{
							"indexed": false,
							"internalType": "uint256",
							"name": "winnerBid",
							"type": "uint256"
						}
					],
					"name": "AuctionFinished",
					"type": "event"
				},
				{
					"anonymous": false,
					"inputs": [
						{
							"indexed": true,
							"internalType": "address",
							"name": "bidder",
							"type": "address"
						},
						{
							"indexed": false,
							"internalType": "uint256",
							"name": "amount",
							"type": "uint256"
						}
					],
					"name": "NewBid",
					"type": "event"
				},
				{
					"anonymous": false,
					"inputs": [
						{
							"indexed": true,
							"internalType": "address",
							"name": "bidder",
							"type": "address"
						},
						{
							"indexed": false,
							"internalType": "uint256",
							"name": "withdrawnAmount",
							"type": "uint256"
						}
					],
					"name": "PartialWithdraw",
					"type": "event"
				},
				{
					"anonymous": false,
					"inputs": [
						{
							"indexed": true,
							"internalType": "address",
							"name": "bidder",
							"type": "address"
						},
						{
							"indexed": false,
							"internalType": "uint256",
							"name": "refundAmount",
							"type": "uint256"
						}
					],
					"name": "Refund",
					"type": "event"
				},
				{
					"inputs": [],
					"name": "allowedIncrement",
					"outputs": [
						{
							"internalType": "uint256",
							"name": "",
							"type": "uint256"
						}
					],
					"stateMutability": "view",
					"type": "function"
				},
				{
					"inputs": [],
					"name": "bid",
					"outputs": [],
					"stateMutability": "payable",
					"type": "function"
				},
				{
					"inputs": [],
					"name": "duration",
					"outputs": [
						{
							"internalType": "uint256",
							"name": "",
							"type": "uint256"
						}
					],
					"stateMutability": "view",
					"type": "function"
				},
				{
					"inputs": [],
					"name": "endTime",
					"outputs": [
						{
							"internalType": "uint256",
							"name": "",
							"type": "uint256"
						}
					],
					"stateMutability": "view",
					"type": "function"
				},
				{
					"inputs": [],
					"name": "extension",
					"outputs": [
						{
							"internalType": "uint256",
							"name": "",
							"type": "uint256"
						}
					],
					"stateMutability": "view",
					"type": "function"
				},
				{
					"inputs": [],
					"name": "gasFee",
					"outputs": [
						{
							"internalType": "uint256",
							"name": "",
							"type": "uint256"
						}
					],
					"stateMutability": "view",
					"type": "function"
				},
				{
					"inputs": [],
					"name": "getBids",
					"outputs": [
						{
							"components": [
								{
									"components": [
										{
											"internalType": "address",
											"name": "bidder",
											"type": "address"
										},
										{
											"internalType": "uint256",
											"name": "amount",
											"type": "uint256"
										}
									],
									"internalType": "struct Auction.Bid",
									"name": "bid",
									"type": "tuple"
								},
								{
									"internalType": "uint256",
									"name": "pendingWithdraw",
									"type": "uint256"
								}
							],
							"internalType": "struct Auction.BidRecord[]",
							"name": "",
							"type": "tuple[]"
						}
					],
					"stateMutability": "view",
					"type": "function"
				},
				{
					"inputs": [],
					"name": "getTimeLeft",
					"outputs": [
						{
							"internalType": "uint256",
							"name": "",
							"type": "uint256"
						}
					],
					"stateMutability": "view",
					"type": "function"
				},
				{
					"inputs": [],
					"name": "getWinnerBid",
					"outputs": [
						{
							"components": [
								{
									"internalType": "address",
									"name": "bidder",
									"type": "address"
								},
								{
									"internalType": "uint256",
									"name": "amount",
									"type": "uint256"
								}
							],
							"internalType": "struct Auction.Bid",
							"name": "",
							"type": "tuple"
						}
					],
					"stateMutability": "view",
					"type": "function"
				},
				{
					"inputs": [],
					"name": "owner",
					"outputs": [
						{
							"internalType": "address",
							"name": "",
							"type": "address"
						}
					],
					"stateMutability": "view",
					"type": "function"
				},
				{
					"inputs": [],
					"name": "partialWithraw",
					"outputs": [],
					"stateMutability": "nonpayable",
					"type": "function"
				},
				{
					"inputs": [],
					"name": "refundAll",
					"outputs": [],
					"stateMutability": "nonpayable",
					"type": "function"
				},
				{
					"inputs": [],
					"name": "startTime",
					"outputs": [
						{
							"internalType": "uint256",
							"name": "",
							"type": "uint256"
						}
					],
					"stateMutability": "view",
					"type": "function"
				}
			],
			"devdoc": {
				"author": "Fernando Malaspina",
				"details": "Auction rules: - Bids must be at least 5% higher than the current highest bid. - The base price for the auction is 1 ether. - Auction duration is initially set to 1 hour. - The auction is extended by 10 minutes with every valid new bid made in the last 10 minutes.   This allows other bidders enough time to respond.",
				"events": {
					"AuctionExtended(uint256,address,uint256)": {
						"params": {
							"lastBidAmount": "Amount of the triggering bid.",
							"lastBidder": "Address of the bidder who triggered the extension.",
							"newEndTime": "Updated auction end time."
						}
					},
					"AuctionFinished(address,uint256)": {
						"params": {
							"winnerBid": "Value of the winning bid in wei.",
							"winnerBidder": "Address of the auction winner."
						}
					},
					"NewBid(address,uint256)": {
						"params": {
							"amount": "Amount of the bid in wei.",
							"bidder": "Address of the wallet that placed the bid."
						}
					},
					"PartialWithdraw(address,uint256)": {
						"params": {
							"bidder": "Address of the bidder.",
							"withdrawnAmount": "Amount withdrawn in wei."
						}
					},
					"Refund(address,uint256)": {
						"params": {
							"bidder": "Address of the bidder.",
							"refundAmount": "Amount refunded in wei."
						}
					}
				},
				"kind": "dev",
				"methods": {
					"bid()": {
						"details": "Reverts if bid is not at least 5% higher or if sender is current highest bidder."
					},
					"getBids()": {
						"returns": {
							"_0": "A list of BidRecord structs containing each bidder's data."
						}
					},
					"getTimeLeft()": {
						"returns": {
							"_0": "Time left in seconds."
						}
					},
					"getWinnerBid()": {
						"returns": {
							"_0": "Struct Bid containing the highest bidder and bid amount."
						}
					}
				},
				"title": "Public auction for generic assets",
				"version": 1
			},
			"evm": {
				"assembly": "    /* \"Auction.sol\":547:8836  contract Auction {... */\n  mstore(0x40, 0x0140)\n    /* \"Auction.sol\":2354:2625  constructor() {... */\n  callvalue\n  dup1\n  iszero\n  tag_1\n  jumpi\n  revert(0x00, 0x00)\ntag_1:\n  pop\n    /* \"Auction.sol\":2386:2396  msg.sender */\n  caller\n    /* \"Auction.sol\":2378:2396  owner = msg.sender */\n  0xffffffffffffffffffffffffffffffffffffffff\n  and\n  0x80\n  dup2\n  0xffffffffffffffffffffffffffffffffffffffff\n  and\n  dup2\n  mstore\n  pop\n  pop\n    /* \"Auction.sol\":2418:2433  block.timestamp */\n  timestamp\n    /* \"Auction.sol\":2406:2433  startTime = block.timestamp */\n  0xa0\n  dup2\n  dup2\n  mstore\n  pop\n  pop\n    /* \"Auction.sol\":2454:2464  15 minutes */\n  0x0384\n    /* \"Auction.sol\":2443:2464  duration = 15 minutes */\n  0xc0\n  dup2\n  dup2\n  mstore\n  pop\n  pop\n    /* \"Auction.sol\":2496:2504  duration */\n  mload(0xc0)\n    /* \"Auction.sol\":2484:2493  startTime */\n  mload(0xa0)\n    /* \"Auction.sol\":2484:2504  startTime + duration */\n  tag_4\n  swap2\n  swap1\n  tag_5\n  jump\t// in\ntag_4:\n    /* \"Auction.sol\":2474:2481  endTime */\n  0x00\n    /* \"Auction.sol\":2474:2504  endTime = startTime + duration */\n  dup2\n  swap1\n  sstore\n  pop\n    /* \"Auction.sol\":2526:2536  0.95 ether */\n  0x0d2f13f7789f0000\n    /* \"Auction.sol\":2514:2523  basePrice */\n  0x03\n    /* \"Auction.sol\":2514:2536  basePrice = 0.95 ether */\n  dup2\n  swap1\n  sstore\n  pop\n    /* \"Auction.sol\":2565:2566  5 */\n  0x05\n    /* \"Auction.sol\":2546:2566  allowedIncrement = 5 */\n  0xe0\n  dup2\n  dup2\n  mstore\n  pop\n  pop\n    /* \"Auction.sol\":2588:2598  10 minutes */\n  0x0258\n    /* \"Auction.sol\":2576:2598  extension = 10 minutes */\n  0x0100\n  dup2\n  dup2\n  mstore\n  pop\n  pop\n    /* \"Auction.sol\":2617:2618  2 */\n  0x02\n    /* \"Auction.sol\":2608:2618  gasFee = 2 */\n  0x0120\n  dup2\n  dup2\n  mstore\n  pop\n  pop\n    /* \"Auction.sol\":547:8836  contract Auction {... */\n  jump(tag_6)\n    /* \"#utility.yul\":7:84   */\ntag_7:\n    /* \"#utility.yul\":44:51   */\n  0x00\n    /* \"#utility.yul\":73:78   */\n  dup2\n    /* \"#utility.yul\":62:78   */\n  swap1\n  pop\n    /* \"#utility.yul\":7:84   */\n  swap2\n  swap1\n  pop\n  jump\t// out\n    /* \"#utility.yul\":90:270   */\ntag_8:\n    /* \"#utility.yul\":138:215   */\n  0x4e487b7100000000000000000000000000000000000000000000000000000000\n    /* \"#utility.yul\":135:136   */\n  0x00\n    /* \"#utility.yul\":128:216   */\n  mstore\n    /* \"#utility.yul\":235:239   */\n  0x11\n    /* \"#utility.yul\":232:233   */\n  0x04\n    /* \"#utility.yul\":225:240   */\n  mstore\n    /* \"#utility.yul\":259:263   */\n  0x24\n    /* \"#utility.yul\":256:257   */\n  0x00\n    /* \"#utility.yul\":249:264   */\n  revert\n    /* \"#utility.yul\":276:467   */\ntag_5:\n    /* \"#utility.yul\":316:319   */\n  0x00\n    /* \"#utility.yul\":335:355   */\n  tag_13\n    /* \"#utility.yul\":353:354   */\n  dup3\n    /* \"#utility.yul\":335:355   */\n  tag_7\n  jump\t// in\ntag_13:\n    /* \"#utility.yul\":330:355   */\n  swap2\n  pop\n    /* \"#utility.yul\":369:389   */\n  tag_14\n    /* \"#utility.yul\":387:388   */\n  dup4\n    /* \"#utility.yul\":369:389   */\n  tag_7\n  jump\t// in\ntag_14:\n    /* \"#utility.yul\":364:389   */\n  swap3\n  pop\n    /* \"#utility.yul\":412:413   */\n  dup3\n    /* \"#utility.yul\":409:410   */\n  dup3\n    /* \"#utility.yul\":405:414   */\n  add\n    /* \"#utility.yul\":398:414   */\n  swap1\n  pop\n    /* \"#utility.yul\":433:436   */\n  dup1\n    /* \"#utility.yul\":430:431   */\n  dup3\n    /* \"#utility.yul\":427:437   */\n  gt\n    /* \"#utility.yul\":424:460   */\n  iszero\n  tag_15\n  jumpi\n    /* \"#utility.yul\":440:458   */\n  tag_16\n  tag_8\n  jump\t// in\ntag_16:\n    /* \"#utility.yul\":424:460   */\ntag_15:\n    /* \"#utility.yul\":276:467   */\n  swap3\n  swap2\n  pop\n  pop\n  jump\t// out\n    /* \"Auction.sol\":547:8836  contract Auction {... */\ntag_6:\n  mload(0x80)\n  mload(0xa0)\n  mload(0xc0)\n  mload(0xe0)\n  mload(0x0100)\n  mload(0x0120)\n  codecopy(0x00, dataOffset(sub_0), dataSize(sub_0))\n  0x00\n  assignImmutable(\"0x3b4066bd7b7960752225af105d3beafb5c47a26c5aae7e6798a437b7c0bb33e6\")\n  0x00\n  assignImmutable(\"0xed93c67e1a9b7f09d3b44ee593360f0073603a8e45415e2c3c69afc994a1103d\")\n  0x00\n  assignImmutable(\"0xbbf5a24880b10a5f9f601c4058e4771ddea17e7d765ceb3c903814e1c0d621e0\")\n  0x00\n  assignImmutable(\"0x5c4c6aa067b6f8e6cb38e6ab843832a94d1712d661a04d73c517d6a1931a9e5d\")\n  0x00\n  assignImmutable(\"0xe4b1702d9298fee62dfeccc57d322a463ad55ca201256d01f62b45b2e1c21c10\")\n  0x00\n  assignImmutable(\"0xceebf77a833b30520287ddd9478ff51abbdffa30aa90a8d655dba0e8a79ce0c1\")\n  return(0x00, dataSize(sub_0))\nstop\n\nsub_0: assembly {\n        /* \"Auction.sol\":547:8836  contract Auction {... */\n      mstore(0x40, 0x80)\n      jumpi(tag_1, lt(calldatasize, 0x04))\n      shr(0xe0, calldataload(0x00))\n      dup1\n      0x658612e9\n      gt\n      tag_15\n      jumpi\n      dup1\n      0x8da5cb5b\n      gt\n      tag_16\n      jumpi\n      dup1\n      0x8da5cb5b\n      eq\n      tag_11\n      jumpi\n      dup1\n      0xb81c78ec\n      eq\n      tag_12\n      jumpi\n      dup1\n      0xc7e284b8\n      eq\n      tag_13\n      jumpi\n      dup1\n      0xceb98f6e\n      eq\n      tag_14\n      jumpi\n      jump(tag_1)\n    tag_16:\n      dup1\n      0x658612e9\n      eq\n      tag_8\n      jumpi\n      dup1\n      0x78e97925\n      eq\n      tag_9\n      jumpi\n      dup1\n      0x8d818527\n      eq\n      tag_10\n      jumpi\n      jump(tag_1)\n    tag_15:\n      dup1\n      0x0fb5a6b4\n      eq\n      tag_2\n      jumpi\n      dup1\n      0x1998aeef\n      eq\n      tag_3\n      jumpi\n      dup1\n      0x2d5537b0\n      eq\n      tag_4\n      jumpi\n      dup1\n      0x3197cbb6\n      eq\n      tag_5\n      jumpi\n      dup1\n      0x38e771ab\n      eq\n      tag_6\n      jumpi\n      dup1\n      0x430efe6f\n      eq\n      tag_7\n      jumpi\n    tag_1:\n      revert(0x00, 0x00)\n        /* \"Auction.sol\":943:976  uint256 public immutable duration */\n    tag_2:\n      callvalue\n      dup1\n      iszero\n      tag_17\n      jumpi\n      revert(0x00, 0x00)\n    tag_17:\n      pop\n      tag_18\n      tag_19\n      jump\t// in\n    tag_18:\n      mload(0x40)\n      tag_20\n      swap2\n      swap1\n      tag_21\n      jump\t// in\n    tag_20:\n      mload(0x40)\n      dup1\n      swap2\n      sub\n      swap1\n      return\n        /* \"Auction.sol\":5242:6042  function bid() external payable nonReentrant isActive onlyGreaterBid onlyOtherThanWinnerBidder {... */\n    tag_3:\n      tag_22\n      tag_23\n      jump\t// in\n    tag_22:\n      stop\n        /* \"Auction.sol\":1618:1652  uint256 public immutable extension */\n    tag_4:\n      callvalue\n      dup1\n      iszero\n      tag_24\n      jumpi\n      revert(0x00, 0x00)\n    tag_24:\n      pop\n      tag_25\n      tag_26\n      jump\t// in\n    tag_25:\n      mload(0x40)\n      tag_27\n      swap2\n      swap1\n      tag_21\n      jump\t// in\n    tag_27:\n      mload(0x40)\n      dup1\n      swap2\n      sub\n      swap1\n      return\n        /* \"Auction.sol\":852:874  uint256 public endTime */\n    tag_5:\n      callvalue\n      dup1\n      iszero\n      tag_28\n      jumpi\n      revert(0x00, 0x00)\n    tag_28:\n      pop\n      tag_29\n      tag_30\n      jump\t// in\n    tag_29:\n      mload(0x40)\n      tag_31\n      swap2\n      swap1\n      tag_21\n      jump\t// in\n    tag_31:\n      mload(0x40)\n      dup1\n      swap2\n      sub\n      swap1\n      return\n        /* \"Auction.sol\":7868:8834  function refundAll() external onlyOwner nonReentrant {... */\n    tag_6:\n      callvalue\n      dup1\n      iszero\n      tag_32\n      jumpi\n      revert(0x00, 0x00)\n    tag_32:\n      pop\n      tag_33\n      tag_34\n      jump\t// in\n    tag_33:\n      stop\n        /* \"Auction.sol\":1469:1510  uint256 public immutable allowedIncrement */\n    tag_7:\n      callvalue\n      dup1\n      iszero\n      tag_35\n      jumpi\n      revert(0x00, 0x00)\n    tag_35:\n      pop\n      tag_36\n      tag_37\n      jump\t// in\n    tag_36:\n      mload(0x40)\n      tag_38\n      swap2\n      swap1\n      tag_21\n      jump\t// in\n    tag_38:\n      mload(0x40)\n      dup1\n      swap2\n      sub\n      swap1\n      return\n        /* \"Auction.sol\":1764:1795  uint256 public immutable gasFee */\n    tag_8:\n      callvalue\n      dup1\n      iszero\n      tag_39\n      jumpi\n      revert(0x00, 0x00)\n    tag_39:\n      pop\n      tag_40\n      tag_41\n      jump\t// in\n    tag_40:\n      mload(0x40)\n      tag_42\n      swap2\n      swap1\n      tag_21\n      jump\t// in\n    tag_42:\n      mload(0x40)\n      dup1\n      swap2\n      sub\n      swap1\n      return\n        /* \"Auction.sol\":719:753  uint256 public immutable startTime */\n    tag_9:\n      callvalue\n      dup1\n      iszero\n      tag_43\n      jumpi\n      revert(0x00, 0x00)\n    tag_43:\n      pop\n      tag_44\n      tag_45\n      jump\t// in\n    tag_44:\n      mload(0x40)\n      tag_46\n      swap2\n      swap1\n      tag_21\n      jump\t// in\n    tag_46:\n      mload(0x40)\n      dup1\n      swap2\n      sub\n      swap1\n      return\n        /* \"Auction.sol\":7206:7620  function partialWithraw() external isActive {... */\n    tag_10:\n      callvalue\n      dup1\n      iszero\n      tag_47\n      jumpi\n      revert(0x00, 0x00)\n    tag_47:\n      pop\n      tag_48\n      tag_49\n      jump\t// in\n    tag_48:\n      stop\n        /* \"Auction.sol\":624:654  address public immutable owner */\n    tag_11:\n      callvalue\n      dup1\n      iszero\n      tag_50\n      jumpi\n      revert(0x00, 0x00)\n    tag_50:\n      pop\n      tag_51\n      tag_52\n      jump\t// in\n    tag_51:\n      mload(0x40)\n      tag_53\n      swap2\n      swap1\n      tag_54\n      jump\t// in\n    tag_53:\n      mload(0x40)\n      dup1\n      swap2\n      sub\n      swap1\n      return\n        /* \"Auction.sol\":6192:6471  function getBids() external view returns (BidRecord[] memory) {... */\n    tag_12:\n      callvalue\n      dup1\n      iszero\n      tag_55\n      jumpi\n      revert(0x00, 0x00)\n    tag_55:\n      pop\n      tag_56\n      tag_57\n      jump\t// in\n    tag_56:\n      mload(0x40)\n      tag_58\n      swap2\n      swap1\n      tag_59\n      jump\t// in\n    tag_58:\n      mload(0x40)\n      dup1\n      swap2\n      sub\n      swap1\n      return\n        /* \"Auction.sol\":6597:6775  function getTimeLeft() external view returns (uint256) {... */\n    tag_13:\n      callvalue\n      dup1\n      iszero\n      tag_60\n      jumpi\n      revert(0x00, 0x00)\n    tag_60:\n      pop\n      tag_61\n      tag_62\n      jump\t// in\n    tag_61:\n      mload(0x40)\n      tag_63\n      swap2\n      swap1\n      tag_21\n      jump\t// in\n    tag_63:\n      mload(0x40)\n      dup1\n      swap2\n      sub\n      swap1\n      return\n        /* \"Auction.sol\":6928:7020  function getWinnerBid() external view returns (Bid memory) {... */\n    tag_14:\n      callvalue\n      dup1\n      iszero\n      tag_64\n      jumpi\n      revert(0x00, 0x00)\n    tag_64:\n      pop\n      tag_65\n      tag_66\n      jump\t// in\n    tag_65:\n      mload(0x40)\n      tag_67\n      swap2\n      swap1\n      tag_68\n      jump\t// in\n    tag_67:\n      mload(0x40)\n      dup1\n      swap2\n      sub\n      swap1\n      return\n        /* \"Auction.sol\":943:976  uint256 public immutable duration */\n    tag_19:\n      immutable(\"0x5c4c6aa067b6f8e6cb38e6ab843832a94d1712d661a04d73c517d6a1931a9e5d\")\n      dup2\n      jump\t// out\n        /* \"Auction.sol\":5242:6042  function bid() external payable nonReentrant isActive onlyGreaterBid onlyOtherThanWinnerBidder {... */\n    tag_23:\n        /* \"Auction.sol\":4259:4265  locked */\n      0x06\n      0x00\n      swap1\n      sload\n      swap1\n      0x0100\n      exp\n      swap1\n      div\n      0xff\n      and\n        /* \"Auction.sol\":4258:4265  !locked */\n      iszero\n        /* \"Auction.sol\":4250:4289  require(!locked, \"Reentrancy detected\") */\n      tag_70\n      jumpi\n      mload(0x40)\n      0x08c379a000000000000000000000000000000000000000000000000000000000\n      dup2\n      mstore\n      0x04\n      add\n      tag_71\n      swap1\n      tag_72\n      jump\t// in\n    tag_71:\n      mload(0x40)\n      dup1\n      swap2\n      sub\n      swap1\n      revert\n    tag_70:\n        /* \"Auction.sol\":4308:4312  true */\n      0x01\n        /* \"Auction.sol\":4299:4305  locked */\n      0x06\n      0x00\n        /* \"Auction.sol\":4299:4312  locked = true */\n      0x0100\n      exp\n      dup2\n      sload\n      dup2\n      0xff\n      mul\n      not\n      and\n      swap1\n      dup4\n      iszero\n      iszero\n      mul\n      or\n      swap1\n      sstore\n      pop\n        /* \"Auction.sol\":4416:4423  endTime */\n      sload(0x00)\n        /* \"Auction.sol\":4398:4413  block.timestamp */\n      timestamp\n        /* \"Auction.sol\":4398:4423  block.timestamp < endTime */\n      lt\n        /* \"Auction.sol\":4390:4447  require(block.timestamp < endTime, \"Auction has expired\") */\n      tag_74\n      jumpi\n      mload(0x40)\n      0x08c379a000000000000000000000000000000000000000000000000000000000\n      dup2\n      mstore\n      0x04\n      add\n      tag_75\n      swap1\n      tag_76\n      jump\t// in\n    tag_75:\n      mload(0x40)\n      dup1\n      swap2\n      sub\n      swap1\n      revert\n    tag_74:\n        /* \"Auction.sol\":4855:4858  100 */\n      0x64\n        /* \"Auction.sol\":4847:4850  100 */\n      dup1\n        /* \"Auction.sol\":4828:4844  allowedIncrement */\n      immutable(\"0xbbf5a24880b10a5f9f601c4058e4771ddea17e7d765ceb3c903814e1c0d621e0\")\n        /* \"Auction.sol\":4828:4850  allowedIncrement + 100 */\n      tag_78\n      swap2\n      swap1\n      tag_79\n      jump\t// in\n    tag_78:\n        /* \"Auction.sol\":4808:4817  winnerBid */\n      0x01\n        /* \"Auction.sol\":4808:4824  winnerBid.amount */\n      dup1\n      add\n      sload\n        /* \"Auction.sol\":4808:4851  winnerBid.amount * (allowedIncrement + 100) */\n      tag_80\n      swap2\n      swap1\n      tag_81\n      jump\t// in\n    tag_80:\n        /* \"Auction.sol\":4807:4858  (winnerBid.amount * (allowedIncrement + 100)) / 100 */\n      tag_82\n      swap2\n      swap1\n      tag_83\n      jump\t// in\n    tag_82:\n        /* \"Auction.sol\":4795:4804  msg.value */\n      callvalue\n        /* \"Auction.sol\":4795:4858  msg.value > (winnerBid.amount * (allowedIncrement + 100)) / 100 */\n      gt\n        /* \"Auction.sol\":4774:4940  require(... */\n      tag_84\n      jumpi\n      mload(0x40)\n      0x08c379a000000000000000000000000000000000000000000000000000000000\n      dup2\n      mstore\n      0x04\n      add\n      tag_85\n      swap1\n      tag_86\n      jump\t// in\n    tag_85:\n      mload(0x40)\n      dup1\n      swap2\n      sub\n      swap1\n      revert\n    tag_84:\n        /* \"Auction.sol\":4661:4670  winnerBid */\n      0x01\n        /* \"Auction.sol\":4661:4677  winnerBid.bidder */\n      0x00\n      add\n      0x00\n      swap1\n      sload\n      swap1\n      0x0100\n      exp\n      swap1\n      div\n      0xffffffffffffffffffffffffffffffffffffffff\n      and\n        /* \"Auction.sol\":4647:4677  msg.sender != winnerBid.bidder */\n      0xffffffffffffffffffffffffffffffffffffffff\n      and\n        /* \"Auction.sol\":4647:4657  msg.sender */\n      caller\n        /* \"Auction.sol\":4647:4677  msg.sender != winnerBid.bidder */\n      0xffffffffffffffffffffffffffffffffffffffff\n      and\n      sub\n        /* \"Auction.sol\":4639:4714  require(msg.sender != winnerBid.bidder, \"You already have the highest bid\") */\n      tag_88\n      jumpi\n      mload(0x40)\n      0x08c379a000000000000000000000000000000000000000000000000000000000\n      dup2\n      mstore\n      0x04\n      add\n      tag_89\n      swap1\n      tag_90\n      jump\t// in\n    tag_89:\n      mload(0x40)\n      dup1\n      swap2\n      sub\n      swap1\n      revert\n    tag_88:\n        /* \"Auction.sol\":5359:5369  msg.sender */\n      caller\n        /* \"Auction.sol\":5352:5381  NewBid(msg.sender, msg.value) */\n      0xffffffffffffffffffffffffffffffffffffffff\n      and\n      0xdd0b6c6a77960e2066c96171b4d7ac9e8b4c184011f38544afa36a5bb63ec59f\n        /* \"Auction.sol\":5371:5380  msg.value */\n      callvalue\n        /* \"Auction.sol\":5352:5381  NewBid(msg.sender, msg.value) */\n      mload(0x40)\n      tag_92\n      swap2\n      swap1\n      tag_21\n      jump\t// in\n    tag_92:\n      mload(0x40)\n      dup1\n      swap2\n      sub\n      swap1\n      log2\n        /* \"Auction.sol\":5411:5421  msg.sender */\n      caller\n        /* \"Auction.sol\":5392:5401  winnerBid */\n      0x01\n        /* \"Auction.sol\":5392:5408  winnerBid.bidder */\n      0x00\n      add\n      0x00\n        /* \"Auction.sol\":5392:5421  winnerBid.bidder = msg.sender */\n      0x0100\n      exp\n      dup2\n      sload\n      dup2\n      0xffffffffffffffffffffffffffffffffffffffff\n      mul\n      not\n      and\n      swap1\n      dup4\n      0xffffffffffffffffffffffffffffffffffffffff\n      and\n      mul\n      or\n      swap1\n      sstore\n      pop\n        /* \"Auction.sol\":5450:5459  msg.value */\n      callvalue\n        /* \"Auction.sol\":5431:5440  winnerBid */\n      0x01\n        /* \"Auction.sol\":5431:5447  winnerBid.amount */\n      dup1\n      add\n        /* \"Auction.sol\":5431:5459  winnerBid.amount = msg.value */\n      dup2\n      swap1\n      sstore\n      pop\n        /* \"Auction.sol\":5470:5497  BidRecord memory _bidRecord */\n      0x00\n        /* \"Auction.sol\":5500:5504  bids */\n      0x04\n        /* \"Auction.sol\":5500:5516  bids[msg.sender] */\n      0x00\n        /* \"Auction.sol\":5505:5515  msg.sender */\n      caller\n        /* \"Auction.sol\":5500:5516  bids[msg.sender] */\n      0xffffffffffffffffffffffffffffffffffffffff\n      and\n      0xffffffffffffffffffffffffffffffffffffffff\n      and\n      dup2\n      mstore\n      0x20\n      add\n      swap1\n      dup2\n      mstore\n      0x20\n      add\n      0x00\n      keccak256\n        /* \"Auction.sol\":5470:5516  BidRecord memory _bidRecord = bids[msg.sender] */\n      mload(0x40)\n      dup1\n      0x40\n      add\n      0x40\n      mstore\n      swap1\n      dup2\n      0x00\n      dup3\n      add\n      mload(0x40)\n      dup1\n      0x40\n      add\n      0x40\n      mstore\n      swap1\n      dup2\n      0x00\n      dup3\n      add\n      0x00\n      swap1\n      sload\n      swap1\n      0x0100\n      exp\n      swap1\n      div\n      0xffffffffffffffffffffffffffffffffffffffff\n      and\n      0xffffffffffffffffffffffffffffffffffffffff\n      and\n      0xffffffffffffffffffffffffffffffffffffffff\n      and\n      dup2\n      mstore\n      0x20\n      add\n      0x01\n      dup3\n      add\n      sload\n      dup2\n      mstore\n      pop\n      pop\n      dup2\n      mstore\n      0x20\n      add\n      0x02\n      dup3\n      add\n      sload\n      dup2\n      mstore\n      pop\n      pop\n      swap1\n      pop\n        /* \"Auction.sol\":5556:5557  0 */\n      0x00\n        /* \"Auction.sol\":5531:5541  _bidRecord */\n      dup2\n        /* \"Auction.sol\":5531:5545  _bidRecord.bid */\n      0x00\n      add\n      mload\n        /* \"Auction.sol\":5531:5552  _bidRecord.bid.amount */\n      0x20\n      add\n      mload\n        /* \"Auction.sol\":5531:5557  _bidRecord.bid.amount == 0 */\n      sub\n        /* \"Auction.sol\":5527:5815  if (_bidRecord.bid.amount == 0) {... */\n      tag_93\n      jumpi\n        /* \"Auction.sol\":5586:5626  BidRecord(Bid(msg.sender, msg.value), 0) */\n      mload(0x40)\n      dup1\n      0x40\n      add\n      0x40\n      mstore\n      dup1\n        /* \"Auction.sol\":5596:5622  Bid(msg.sender, msg.value) */\n      mload(0x40)\n      dup1\n      0x40\n      add\n      0x40\n      mstore\n      dup1\n        /* \"Auction.sol\":5600:5610  msg.sender */\n      caller\n        /* \"Auction.sol\":5596:5622  Bid(msg.sender, msg.value) */\n      0xffffffffffffffffffffffffffffffffffffffff\n      and\n      dup2\n      mstore\n      0x20\n      add\n        /* \"Auction.sol\":5612:5621  msg.value */\n      callvalue\n        /* \"Auction.sol\":5596:5622  Bid(msg.sender, msg.value) */\n      dup2\n      mstore\n      pop\n        /* \"Auction.sol\":5586:5626  BidRecord(Bid(msg.sender, msg.value), 0) */\n      dup2\n      mstore\n      0x20\n      add\n        /* \"Auction.sol\":5624:5625  0 */\n      0x00\n        /* \"Auction.sol\":5586:5626  BidRecord(Bid(msg.sender, msg.value), 0) */\n      dup2\n      mstore\n      pop\n        /* \"Auction.sol\":5573:5626  _bidRecord = BidRecord(Bid(msg.sender, msg.value), 0) */\n      swap1\n      pop\n        /* \"Auction.sol\":5640:5647  bidders */\n      0x05\n        /* \"Auction.sol\":5653:5663  _bidRecord */\n      dup2\n        /* \"Auction.sol\":5653:5667  _bidRecord.bid */\n      0x00\n      add\n      mload\n        /* \"Auction.sol\":5653:5674  _bidRecord.bid.bidder */\n      0x00\n      add\n      mload\n        /* \"Auction.sol\":5640:5675  bidders.push(_bidRecord.bid.bidder) */\n      swap1\n      dup1\n      0x01\n      dup2\n      sload\n      add\n      dup1\n      dup3\n      sstore\n      dup1\n      swap2\n      pop\n      pop\n      0x01\n      swap1\n      sub\n      swap1\n      0x00\n      mstore\n      keccak256(0x00, 0x20)\n      add\n      0x00\n      swap1\n      swap2\n      swap1\n      swap2\n      swap1\n      swap2\n      0x0100\n      exp\n      dup2\n      sload\n      dup2\n      0xffffffffffffffffffffffffffffffffffffffff\n      mul\n      not\n      and\n      swap1\n      dup4\n      0xffffffffffffffffffffffffffffffffffffffff\n      and\n      mul\n      or\n      swap1\n      sstore\n      pop\n        /* \"Auction.sol\":5527:5815  if (_bidRecord.bid.amount == 0) {... */\n      jump(tag_95)\n    tag_93:\n        /* \"Auction.sol\":5736:5746  _bidRecord */\n      dup1\n        /* \"Auction.sol\":5736:5750  _bidRecord.bid */\n      0x00\n      add\n      mload\n        /* \"Auction.sol\":5736:5757  _bidRecord.bid.amount */\n      0x20\n      add\n      mload\n        /* \"Auction.sol\":5706:5716  _bidRecord */\n      dup2\n        /* \"Auction.sol\":5706:5732  _bidRecord.pendingWithdraw */\n      0x20\n      add\n        /* \"Auction.sol\":5706:5757  _bidRecord.pendingWithdraw += _bidRecord.bid.amount */\n      dup2\n      dup2\n      mload\n      tag_96\n      swap2\n      swap1\n      tag_79\n      jump\t// in\n    tag_96:\n      swap2\n      pop\n      dup2\n      dup2\n      mstore\n      pop\n      pop\n        /* \"Auction.sol\":5795:5804  msg.value */\n      callvalue\n        /* \"Auction.sol\":5771:5781  _bidRecord */\n      dup2\n        /* \"Auction.sol\":5771:5785  _bidRecord.bid */\n      0x00\n      add\n      mload\n        /* \"Auction.sol\":5771:5792  _bidRecord.bid.amount */\n      0x20\n      add\n        /* \"Auction.sol\":5771:5804  _bidRecord.bid.amount = msg.value */\n      dup2\n      dup2\n      mstore\n      pop\n      pop\n        /* \"Auction.sol\":5527:5815  if (_bidRecord.bid.amount == 0) {... */\n    tag_95:\n        /* \"Auction.sol\":5844:5854  _bidRecord */\n      dup1\n        /* \"Auction.sol\":5825:5829  bids */\n      0x04\n        /* \"Auction.sol\":5825:5841  bids[msg.sender] */\n      0x00\n        /* \"Auction.sol\":5830:5840  msg.sender */\n      caller\n        /* \"Auction.sol\":5825:5841  bids[msg.sender] */\n      0xffffffffffffffffffffffffffffffffffffffff\n      and\n      0xffffffffffffffffffffffffffffffffffffffff\n      and\n      dup2\n      mstore\n      0x20\n      add\n      swap1\n      dup2\n      mstore\n      0x20\n      add\n      0x00\n      keccak256\n        /* \"Auction.sol\":5825:5854  bids[msg.sender] = _bidRecord */\n      0x00\n      dup3\n      add\n      mload\n      dup2\n      0x00\n      add\n      0x00\n      dup3\n      add\n      mload\n      dup2\n      0x00\n      add\n      exp(0x0100, 0x00)\n      dup2\n      sload\n      dup2\n      0xffffffffffffffffffffffffffffffffffffffff\n      mul\n      not\n      and\n      swap1\n      dup4\n      0xffffffffffffffffffffffffffffffffffffffff\n      and\n      mul\n      or\n      swap1\n      sstore\n      pop\n      0x20\n      dup3\n      add\n      mload\n      dup2\n      0x01\n      add\n      sstore\n      pop\n      pop\n      0x20\n      dup3\n      add\n      mload\n      dup2\n      0x02\n      add\n      sstore\n      swap1\n      pop\n      pop\n        /* \"Auction.sol\":5897:5906  extension */\n      immutable(\"0xed93c67e1a9b7f09d3b44ee593360f0073603a8e45415e2c3c69afc994a1103d\")\n        /* \"Auction.sol\":5887:5894  endTime */\n      sload(0x00)\n        /* \"Auction.sol\":5887:5906  endTime - extension */\n      tag_97\n      swap2\n      swap1\n      tag_98\n      jump\t// in\n    tag_97:\n        /* \"Auction.sol\":5869:5884  block.timestamp */\n      timestamp\n        /* \"Auction.sol\":5869:5906  block.timestamp > endTime - extension */\n      gt\n        /* \"Auction.sol\":5865:6036  if (block.timestamp > endTime - extension) {... */\n      iszero\n      tag_99\n      jumpi\n        /* \"Auction.sol\":5950:5959  extension */\n      immutable(\"0xed93c67e1a9b7f09d3b44ee593360f0073603a8e45415e2c3c69afc994a1103d\")\n        /* \"Auction.sol\":5932:5947  block.timestamp */\n      timestamp\n        /* \"Auction.sol\":5932:5959  block.timestamp + extension */\n      tag_100\n      swap2\n      swap1\n      tag_79\n      jump\t// in\n    tag_100:\n        /* \"Auction.sol\":5922:5929  endTime */\n      0x00\n        /* \"Auction.sol\":5922:5959  endTime = block.timestamp + extension */\n      dup2\n      swap1\n      sstore\n      pop\n        /* \"Auction.sol\":6003:6013  msg.sender */\n      caller\n        /* \"Auction.sol\":5978:6025  AuctionExtended(endTime, msg.sender, msg.value) */\n      0xffffffffffffffffffffffffffffffffffffffff\n      and\n      0xbf5210f11796c8ce8b1d67add316e5a734c26896acce48ba93993f580af205ff\n        /* \"Auction.sol\":5994:6001  endTime */\n      sload(0x00)\n        /* \"Auction.sol\":6015:6024  msg.value */\n      callvalue\n        /* \"Auction.sol\":5978:6025  AuctionExtended(endTime, msg.sender, msg.value) */\n      mload(0x40)\n      tag_101\n      swap3\n      swap2\n      swap1\n      tag_102\n      jump\t// in\n    tag_101:\n      mload(0x40)\n      dup1\n      swap2\n      sub\n      swap1\n      log2\n        /* \"Auction.sol\":5865:6036  if (block.timestamp > endTime - extension) {... */\n    tag_99:\n        /* \"Auction.sol\":5337:6042  {... */\n      pop\n        /* \"Auction.sol\":4342:4347  false */\n      0x00\n        /* \"Auction.sol\":4333:4339  locked */\n      0x06\n      0x00\n        /* \"Auction.sol\":4333:4347  locked = false */\n      0x0100\n      exp\n      dup2\n      sload\n      dup2\n      0xff\n      mul\n      not\n      and\n      swap1\n      dup4\n      iszero\n      iszero\n      mul\n      or\n      swap1\n      sstore\n      pop\n        /* \"Auction.sol\":5242:6042  function bid() external payable nonReentrant isActive onlyGreaterBid onlyOtherThanWinnerBidder {... */\n      jump\t// out\n        /* \"Auction.sol\":1618:1652  uint256 public immutable extension */\n    tag_26:\n      immutable(\"0xed93c67e1a9b7f09d3b44ee593360f0073603a8e45415e2c3c69afc994a1103d\")\n      dup2\n      jump\t// out\n        /* \"Auction.sol\":852:874  uint256 public endTime */\n    tag_30:\n      sload(0x00)\n      dup2\n      jump\t// out\n        /* \"Auction.sol\":7868:8834  function refundAll() external onlyOwner nonReentrant {... */\n    tag_34:\n        /* \"Auction.sol\":4524:4529  owner */\n      immutable(\"0xceebf77a833b30520287ddd9478ff51abbdffa30aa90a8d655dba0e8a79ce0c1\")\n        /* \"Auction.sol\":4510:4529  msg.sender == owner */\n      0xffffffffffffffffffffffffffffffffffffffff\n      and\n        /* \"Auction.sol\":4510:4520  msg.sender */\n      caller\n        /* \"Auction.sol\":4510:4529  msg.sender == owner */\n      0xffffffffffffffffffffffffffffffffffffffff\n      and\n      eq\n        /* \"Auction.sol\":4502:4568  require(msg.sender == owner, \"Only owner can perform this action\") */\n      tag_104\n      jumpi\n      mload(0x40)\n      0x08c379a000000000000000000000000000000000000000000000000000000000\n      dup2\n      mstore\n      0x04\n      add\n      tag_105\n      swap1\n      tag_106\n      jump\t// in\n    tag_105:\n      mload(0x40)\n      dup1\n      swap2\n      sub\n      swap1\n      revert\n    tag_104:\n        /* \"Auction.sol\":4259:4265  locked */\n      0x06\n      0x00\n      swap1\n      sload\n      swap1\n      0x0100\n      exp\n      swap1\n      div\n      0xff\n      and\n        /* \"Auction.sol\":4258:4265  !locked */\n      iszero\n        /* \"Auction.sol\":4250:4289  require(!locked, \"Reentrancy detected\") */\n      tag_108\n      jumpi\n      mload(0x40)\n      0x08c379a000000000000000000000000000000000000000000000000000000000\n      dup2\n      mstore\n      0x04\n      add\n      tag_109\n      swap1\n      tag_72\n      jump\t// in\n    tag_109:\n      mload(0x40)\n      dup1\n      swap2\n      sub\n      swap1\n      revert\n    tag_108:\n        /* \"Auction.sol\":4308:4312  true */\n      0x01\n        /* \"Auction.sol\":4299:4305  locked */\n      0x06\n      0x00\n        /* \"Auction.sol\":4299:4312  locked = true */\n      0x0100\n      exp\n      dup2\n      sload\n      dup2\n      0xff\n      mul\n      not\n      and\n      swap1\n      dup4\n      iszero\n      iszero\n      mul\n      or\n      swap1\n      sstore\n      pop\n        /* \"Auction.sol\":7936:7945  uint256 i */\n      0x00\n        /* \"Auction.sol\":7948:7949  0 */\n      0x00\n        /* \"Auction.sol\":7936:7949  uint256 i = 0 */\n      swap1\n      pop\n        /* \"Auction.sol\":7931:8761  for (uint256 i = 0; i < bidders.length; i++) {... */\n    tag_111:\n        /* \"Auction.sol\":7955:7962  bidders */\n      0x05\n        /* \"Auction.sol\":7955:7969  bidders.length */\n      dup1\n      sload\n      swap1\n      pop\n        /* \"Auction.sol\":7951:7952  i */\n      dup2\n        /* \"Auction.sol\":7951:7969  i < bidders.length */\n      lt\n        /* \"Auction.sol\":7931:8761  for (uint256 i = 0; i < bidders.length; i++) {... */\n      iszero\n      tag_112\n      jumpi\n        /* \"Auction.sol\":7990:8008  address bidderAddr */\n      0x00\n        /* \"Auction.sol\":8011:8018  bidders */\n      0x05\n        /* \"Auction.sol\":8019:8020  i */\n      dup3\n        /* \"Auction.sol\":8011:8021  bidders[i] */\n      dup2\n      sload\n      dup2\n      lt\n      tag_114\n      jumpi\n      tag_115\n      tag_116\n      jump\t// in\n    tag_115:\n    tag_114:\n      swap1\n      0x00\n      mstore\n      keccak256(0x00, 0x20)\n      add\n      0x00\n      swap1\n      sload\n      swap1\n      0x0100\n      exp\n      swap1\n      div\n      0xffffffffffffffffffffffffffffffffffffffff\n      and\n        /* \"Auction.sol\":7990:8021  address bidderAddr = bidders[i] */\n      swap1\n      pop\n        /* \"Auction.sol\":8035:8059  BidRecord storage record */\n      0x00\n        /* \"Auction.sol\":8062:8066  bids */\n      0x04\n        /* \"Auction.sol\":8062:8078  bids[bidderAddr] */\n      0x00\n        /* \"Auction.sol\":8067:8077  bidderAddr */\n      dup4\n        /* \"Auction.sol\":8062:8078  bids[bidderAddr] */\n      0xffffffffffffffffffffffffffffffffffffffff\n      and\n      0xffffffffffffffffffffffffffffffffffffffff\n      and\n      dup2\n      mstore\n      0x20\n      add\n      swap1\n      dup2\n      mstore\n      0x20\n      add\n      0x00\n      keccak256\n        /* \"Auction.sol\":8035:8078  BidRecord storage record = bids[bidderAddr] */\n      swap1\n      pop\n        /* \"Auction.sol\":8093:8113  uint256 refundAmount */\n      0x00\n        /* \"Auction.sol\":8128:8153  uint256 pendingWithrawNet */\n      0x00\n        /* \"Auction.sol\":8200:8203  100 */\n      0x64\n        /* \"Auction.sol\":8189:8195  gasFee */\n      immutable(\"0x3b4066bd7b7960752225af105d3beafb5c47a26c5aae7e6798a437b7c0bb33e6\")\n        /* \"Auction.sol\":8183:8186  100 */\n      0x64\n        /* \"Auction.sol\":8183:8195  100 - gasFee */\n      tag_118\n      swap2\n      swap1\n      tag_98\n      jump\t// in\n    tag_118:\n        /* \"Auction.sol\":8157:8163  record */\n      dup5\n        /* \"Auction.sol\":8157:8179  record.pendingWithdraw */\n      0x02\n      add\n      sload\n        /* \"Auction.sol\":8157:8196  record.pendingWithdraw * (100 - gasFee) */\n      tag_119\n      swap2\n      swap1\n      tag_81\n      jump\t// in\n    tag_119:\n        /* \"Auction.sol\":8156:8203  (record.pendingWithdraw * (100 - gasFee)) / 100 */\n      tag_120\n      swap2\n      swap1\n      tag_83\n      jump\t// in\n    tag_120:\n        /* \"Auction.sol\":8128:8203  uint256 pendingWithrawNet = (record.pendingWithdraw * (100 - gasFee)) / 100 */\n      swap1\n      pop\n        /* \"Auction.sol\":8235:8244  winnerBid */\n      0x01\n        /* \"Auction.sol\":8235:8251  winnerBid.bidder */\n      0x00\n      add\n      0x00\n      swap1\n      sload\n      swap1\n      0x0100\n      exp\n      swap1\n      div\n      0xffffffffffffffffffffffffffffffffffffffff\n      and\n        /* \"Auction.sol\":8221:8251  bidderAddr != winnerBid.bidder */\n      0xffffffffffffffffffffffffffffffffffffffff\n      and\n        /* \"Auction.sol\":8221:8231  bidderAddr */\n      dup5\n        /* \"Auction.sol\":8221:8251  bidderAddr != winnerBid.bidder */\n      0xffffffffffffffffffffffffffffffffffffffff\n      and\n      eq\n        /* \"Auction.sol\":8217:8443  if (bidderAddr != winnerBid.bidder) {... */\n      tag_121\n      jumpi\n        /* \"Auction.sol\":8271:8285  uint256 bidNet */\n      0x00\n        /* \"Auction.sol\":8327:8330  100 */\n      0x64\n        /* \"Auction.sol\":8316:8322  gasFee */\n      immutable(\"0x3b4066bd7b7960752225af105d3beafb5c47a26c5aae7e6798a437b7c0bb33e6\")\n        /* \"Auction.sol\":8310:8313  100 */\n      0x64\n        /* \"Auction.sol\":8310:8322  100 - gasFee */\n      tag_122\n      swap2\n      swap1\n      tag_98\n      jump\t// in\n    tag_122:\n        /* \"Auction.sol\":8289:8295  record */\n      dup6\n        /* \"Auction.sol\":8289:8299  record.bid */\n      0x00\n      add\n        /* \"Auction.sol\":8289:8306  record.bid.amount */\n      0x01\n      add\n      sload\n        /* \"Auction.sol\":8289:8323  record.bid.amount * (100 - gasFee) */\n      tag_123\n      swap2\n      swap1\n      tag_81\n      jump\t// in\n    tag_123:\n        /* \"Auction.sol\":8288:8330  (record.bid.amount * (100 - gasFee)) / 100 */\n      tag_124\n      swap2\n      swap1\n      tag_83\n      jump\t// in\n    tag_124:\n        /* \"Auction.sol\":8271:8330  uint256 bidNet = (record.bid.amount * (100 - gasFee)) / 100 */\n      swap1\n      pop\n        /* \"Auction.sol\":8383:8389  bidNet */\n      dup1\n        /* \"Auction.sol\":8363:8380  pendingWithrawNet */\n      dup3\n        /* \"Auction.sol\":8363:8389  pendingWithrawNet + bidNet */\n      tag_125\n      swap2\n      swap1\n      tag_79\n      jump\t// in\n    tag_125:\n        /* \"Auction.sol\":8348:8389  refundAmount = pendingWithrawNet + bidNet */\n      swap3\n      pop\n        /* \"Auction.sol\":8427:8428  0 */\n      0x00\n        /* \"Auction.sol\":8407:8413  record */\n      dup5\n        /* \"Auction.sol\":8407:8417  record.bid */\n      0x00\n      add\n        /* \"Auction.sol\":8407:8424  record.bid.amount */\n      0x01\n      add\n        /* \"Auction.sol\":8407:8428  record.bid.amount = 0 */\n      dup2\n      swap1\n      sstore\n      pop\n        /* \"Auction.sol\":8253:8443  {... */\n      pop\n        /* \"Auction.sol\":8217:8443  if (bidderAddr != winnerBid.bidder) {... */\n    tag_121:\n        /* \"Auction.sol\":8481:8482  0 */\n      0x00\n        /* \"Auction.sol\":8456:8462  record */\n      dup4\n        /* \"Auction.sol\":8456:8478  record.pendingWithdraw */\n      0x02\n      add\n        /* \"Auction.sol\":8456:8482  record.pendingWithdraw = 0 */\n      dup2\n      swap1\n      sstore\n      pop\n        /* \"Auction.sol\":8541:8542  0 */\n      0x00\n        /* \"Auction.sol\":8526:8538  refundAmount */\n      dup3\n        /* \"Auction.sol\":8526:8542  refundAmount > 0 */\n      gt\n        /* \"Auction.sol\":8522:8751  if (refundAmount > 0) {... */\n      iszero\n      tag_126\n      jumpi\n        /* \"Auction.sol\":8563:8575  bool success */\n      0x00\n        /* \"Auction.sol\":8589:8599  bidderAddr */\n      dup5\n        /* \"Auction.sol\":8581:8605  payable(bidderAddr).call */\n      0xffffffffffffffffffffffffffffffffffffffff\n      and\n        /* \"Auction.sol\":8613:8625  refundAmount */\n      dup4\n        /* \"Auction.sol\":8581:8630  payable(bidderAddr).call{value: refundAmount}(\"\") */\n      mload(0x40)\n      tag_127\n      swap1\n      tag_128\n      jump\t// in\n    tag_127:\n      0x00\n      mload(0x40)\n      dup1\n      dup4\n      sub\n      dup2\n      dup6\n      dup8\n      gas\n      call\n      swap3\n      pop\n      pop\n      pop\n      returndatasize\n      dup1\n      0x00\n      dup2\n      eq\n      tag_131\n      jumpi\n      mload(0x40)\n      swap2\n      pop\n      and(add(returndatasize, 0x3f), not(0x1f))\n      dup3\n      add\n      0x40\n      mstore\n      returndatasize\n      dup3\n      mstore\n      returndatasize\n      0x00\n      0x20\n      dup5\n      add\n      returndatacopy\n      jump(tag_130)\n    tag_131:\n      0x60\n      swap2\n      pop\n    tag_130:\n      pop\n        /* \"Auction.sol\":8562:8630  (bool success, ) = payable(bidderAddr).call{value: refundAmount}(\"\") */\n      pop\n      swap1\n      pop\n        /* \"Auction.sol\":8656:8663  success */\n      dup1\n        /* \"Auction.sol\":8648:8681  require(success, \"Refund failed\") */\n      tag_132\n      jumpi\n      mload(0x40)\n      0x08c379a000000000000000000000000000000000000000000000000000000000\n      dup2\n      mstore\n      0x04\n      add\n      tag_133\n      swap1\n      tag_134\n      jump\t// in\n    tag_133:\n      mload(0x40)\n      dup1\n      swap2\n      sub\n      swap1\n      revert\n    tag_132:\n        /* \"Auction.sol\":8711:8721  bidderAddr */\n      dup5\n        /* \"Auction.sol\":8704:8736  Refund(bidderAddr, refundAmount) */\n      0xffffffffffffffffffffffffffffffffffffffff\n      and\n      0xbb28353e4598c3b9199101a66e0989549b659a59a54d2c27fbb183f1932c8e6d\n        /* \"Auction.sol\":8723:8735  refundAmount */\n      dup5\n        /* \"Auction.sol\":8704:8736  Refund(bidderAddr, refundAmount) */\n      mload(0x40)\n      tag_135\n      swap2\n      swap1\n      tag_21\n      jump\t// in\n    tag_135:\n      mload(0x40)\n      dup1\n      swap2\n      sub\n      swap1\n      log2\n        /* \"Auction.sol\":8544:8751  {... */\n      pop\n        /* \"Auction.sol\":8522:8751  if (refundAmount > 0) {... */\n    tag_126:\n        /* \"Auction.sol\":7976:8761  {... */\n      pop\n      pop\n      pop\n      pop\n        /* \"Auction.sol\":7971:7974  i++ */\n      dup1\n      dup1\n      0x01\n      add\n      swap2\n      pop\n      pop\n        /* \"Auction.sol\":7931:8761  for (uint256 i = 0; i < bidders.length; i++) {... */\n      jump(tag_111)\n    tag_112:\n      pop\n        /* \"Auction.sol\":8792:8801  winnerBid */\n      0x01\n        /* \"Auction.sol\":8792:8808  winnerBid.bidder */\n      0x00\n      add\n      0x00\n      swap1\n      sload\n      swap1\n      0x0100\n      exp\n      swap1\n      div\n      0xffffffffffffffffffffffffffffffffffffffff\n      and\n        /* \"Auction.sol\":8776:8827  AuctionFinished(winnerBid.bidder, winnerBid.amount) */\n      0xffffffffffffffffffffffffffffffffffffffff\n      and\n      0x8b1ad6c69d3d79a05f5b1ec0de825e9bf67c6c70b8c25babd159976cf9990dff\n        /* \"Auction.sol\":8810:8819  winnerBid */\n      0x01\n        /* \"Auction.sol\":8810:8826  winnerBid.amount */\n      dup1\n      add\n      sload\n        /* \"Auction.sol\":8776:8827  AuctionFinished(winnerBid.bidder, winnerBid.amount) */\n      mload(0x40)\n      tag_136\n      swap2\n      swap1\n      tag_21\n      jump\t// in\n    tag_136:\n      mload(0x40)\n      dup1\n      swap2\n      sub\n      swap1\n      log2\n        /* \"Auction.sol\":4342:4347  false */\n      0x00\n        /* \"Auction.sol\":4333:4339  locked */\n      0x06\n      0x00\n        /* \"Auction.sol\":4333:4347  locked = false */\n      0x0100\n      exp\n      dup2\n      sload\n      dup2\n      0xff\n      mul\n      not\n      and\n      swap1\n      dup4\n      iszero\n      iszero\n      mul\n      or\n      swap1\n      sstore\n      pop\n        /* \"Auction.sol\":7868:8834  function refundAll() external onlyOwner nonReentrant {... */\n      jump\t// out\n        /* \"Auction.sol\":1469:1510  uint256 public immutable allowedIncrement */\n    tag_37:\n      immutable(\"0xbbf5a24880b10a5f9f601c4058e4771ddea17e7d765ceb3c903814e1c0d621e0\")\n      dup2\n      jump\t// out\n        /* \"Auction.sol\":1764:1795  uint256 public immutable gasFee */\n    tag_41:\n      immutable(\"0x3b4066bd7b7960752225af105d3beafb5c47a26c5aae7e6798a437b7c0bb33e6\")\n      dup2\n      jump\t// out\n        /* \"Auction.sol\":719:753  uint256 public immutable startTime */\n    tag_45:\n      immutable(\"0xe4b1702d9298fee62dfeccc57d322a463ad55ca201256d01f62b45b2e1c21c10\")\n      dup2\n      jump\t// out\n        /* \"Auction.sol\":7206:7620  function partialWithraw() external isActive {... */\n    tag_49:\n        /* \"Auction.sol\":4416:4423  endTime */\n      sload(0x00)\n        /* \"Auction.sol\":4398:4413  block.timestamp */\n      timestamp\n        /* \"Auction.sol\":4398:4423  block.timestamp < endTime */\n      lt\n        /* \"Auction.sol\":4390:4447  require(block.timestamp < endTime, \"Auction has expired\") */\n      tag_138\n      jumpi\n      mload(0x40)\n      0x08c379a000000000000000000000000000000000000000000000000000000000\n      dup2\n      mstore\n      0x04\n      add\n      tag_139\n      swap1\n      tag_76\n      jump\t// in\n    tag_139:\n      mload(0x40)\n      dup1\n      swap2\n      sub\n      swap1\n      revert\n    tag_138:\n        /* \"Auction.sol\":7260:7282  uint256 pendingWithraw */\n      0x00\n        /* \"Auction.sol\":7285:7289  bids */\n      0x04\n        /* \"Auction.sol\":7285:7301  bids[msg.sender] */\n      0x00\n        /* \"Auction.sol\":7290:7300  msg.sender */\n      caller\n        /* \"Auction.sol\":7285:7301  bids[msg.sender] */\n      0xffffffffffffffffffffffffffffffffffffffff\n      and\n      0xffffffffffffffffffffffffffffffffffffffff\n      and\n      dup2\n      mstore\n      0x20\n      add\n      swap1\n      dup2\n      mstore\n      0x20\n      add\n      0x00\n      keccak256\n        /* \"Auction.sol\":7285:7317  bids[msg.sender].pendingWithdraw */\n      0x02\n      add\n      sload\n        /* \"Auction.sol\":7260:7317  uint256 pendingWithraw = bids[msg.sender].pendingWithdraw */\n      swap1\n      pop\n        /* \"Auction.sol\":7352:7353  0 */\n      0x00\n        /* \"Auction.sol\":7335:7349  pendingWithraw */\n      dup2\n        /* \"Auction.sol\":7335:7353  pendingWithraw > 0 */\n      gt\n        /* \"Auction.sol\":7327:7383  require(pendingWithraw > 0, \"No pending withdraw found\") */\n      tag_141\n      jumpi\n      mload(0x40)\n      0x08c379a000000000000000000000000000000000000000000000000000000000\n      dup2\n      mstore\n      0x04\n      add\n      tag_142\n      swap1\n      tag_143\n      jump\t// in\n    tag_142:\n      mload(0x40)\n      dup1\n      swap2\n      sub\n      swap1\n      revert\n    tag_141:\n        /* \"Auction.sol\":7429:7430  0 */\n      0x00\n        /* \"Auction.sol\":7394:7398  bids */\n      0x04\n        /* \"Auction.sol\":7394:7410  bids[msg.sender] */\n      0x00\n        /* \"Auction.sol\":7399:7409  msg.sender */\n      caller\n        /* \"Auction.sol\":7394:7410  bids[msg.sender] */\n      0xffffffffffffffffffffffffffffffffffffffff\n      and\n      0xffffffffffffffffffffffffffffffffffffffff\n      and\n      dup2\n      mstore\n      0x20\n      add\n      swap1\n      dup2\n      mstore\n      0x20\n      add\n      0x00\n      keccak256\n        /* \"Auction.sol\":7394:7426  bids[msg.sender].pendingWithdraw */\n      0x02\n      add\n        /* \"Auction.sol\":7394:7430  bids[msg.sender].pendingWithdraw = 0 */\n      dup2\n      swap1\n      sstore\n      pop\n        /* \"Auction.sol\":7442:7454  bool success */\n      0x00\n        /* \"Auction.sol\":7468:7478  msg.sender */\n      caller\n        /* \"Auction.sol\":7460:7484  payable(msg.sender).call */\n      0xffffffffffffffffffffffffffffffffffffffff\n      and\n        /* \"Auction.sol\":7492:7506  pendingWithraw */\n      dup3\n        /* \"Auction.sol\":7460:7511  payable(msg.sender).call{value: pendingWithraw}(\"\") */\n      mload(0x40)\n      tag_144\n      swap1\n      tag_128\n      jump\t// in\n    tag_144:\n      0x00\n      mload(0x40)\n      dup1\n      dup4\n      sub\n      dup2\n      dup6\n      dup8\n      gas\n      call\n      swap3\n      pop\n      pop\n      pop\n      returndatasize\n      dup1\n      0x00\n      dup2\n      eq\n      tag_147\n      jumpi\n      mload(0x40)\n      swap2\n      pop\n      and(add(returndatasize, 0x3f), not(0x1f))\n      dup3\n      add\n      0x40\n      mstore\n      returndatasize\n      dup3\n      mstore\n      returndatasize\n      0x00\n      0x20\n      dup5\n      add\n      returndatacopy\n      jump(tag_146)\n    tag_147:\n      0x60\n      swap2\n      pop\n    tag_146:\n      pop\n        /* \"Auction.sol\":7441:7511  (bool success, ) = payable(msg.sender).call{value: pendingWithraw}(\"\") */\n      pop\n      swap1\n      pop\n        /* \"Auction.sol\":7529:7536  success */\n      dup1\n        /* \"Auction.sol\":7521:7554  require(success, \"Refund failed\") */\n      tag_148\n      jumpi\n      mload(0x40)\n      0x08c379a000000000000000000000000000000000000000000000000000000000\n      dup2\n      mstore\n      0x04\n      add\n      tag_149\n      swap1\n      tag_134\n      jump\t// in\n    tag_149:\n      mload(0x40)\n      dup1\n      swap2\n      sub\n      swap1\n      revert\n    tag_148:\n        /* \"Auction.sol\":7586:7596  msg.sender */\n      caller\n        /* \"Auction.sol\":7570:7613  PartialWithdraw(msg.sender, pendingWithraw) */\n      0xffffffffffffffffffffffffffffffffffffffff\n      and\n      0xd84fcbac5440aedda6d2b5f149aa3182c87252eef5bab6f061cfe022a3e166ef\n        /* \"Auction.sol\":7598:7612  pendingWithraw */\n      dup4\n        /* \"Auction.sol\":7570:7613  PartialWithdraw(msg.sender, pendingWithraw) */\n      mload(0x40)\n      tag_150\n      swap2\n      swap1\n      tag_21\n      jump\t// in\n    tag_150:\n      mload(0x40)\n      dup1\n      swap2\n      sub\n      swap1\n      log2\n        /* \"Auction.sol\":7250:7620  {... */\n      pop\n      pop\n        /* \"Auction.sol\":7206:7620  function partialWithraw() external isActive {... */\n      jump\t// out\n        /* \"Auction.sol\":624:654  address public immutable owner */\n    tag_52:\n      immutable(\"0xceebf77a833b30520287ddd9478ff51abbdffa30aa90a8d655dba0e8a79ce0c1\")\n      dup2\n      jump\t// out\n        /* \"Auction.sol\":6192:6471  function getBids() external view returns (BidRecord[] memory) {... */\n    tag_57:\n        /* \"Auction.sol\":6234:6252  BidRecord[] memory */\n      0x60\n        /* \"Auction.sol\":6264:6275  uint256 len */\n      0x00\n        /* \"Auction.sol\":6278:6285  bidders */\n      0x05\n        /* \"Auction.sol\":6278:6292  bidders.length */\n      dup1\n      sload\n      swap1\n      pop\n        /* \"Auction.sol\":6264:6292  uint256 len = bidders.length */\n      swap1\n      pop\n        /* \"Auction.sol\":6302:6325  BidRecord[] memory _all */\n      0x00\n        /* \"Auction.sol\":6344:6347  len */\n      dup2\n        /* \"Auction.sol\":6328:6348  new BidRecord[](len) */\n      0xffffffffffffffff\n      dup2\n      gt\n      iszero\n      tag_152\n      jumpi\n      tag_153\n      tag_154\n      jump\t// in\n    tag_153:\n    tag_152:\n      mload(0x40)\n      swap1\n      dup1\n      dup3\n      mstore\n      dup1\n      0x20\n      mul\n      0x20\n      add\n      dup3\n      add\n      0x40\n      mstore\n      dup1\n      iszero\n      tag_155\n      jumpi\n      dup2\n      0x20\n      add\n    tag_156:\n      tag_157\n      tag_158\n      jump\t// in\n    tag_157:\n      dup2\n      mstore\n      0x20\n      add\n      swap1\n      0x01\n      swap1\n      sub\n      swap1\n      dup2\n      tag_156\n      jumpi\n      swap1\n      pop\n    tag_155:\n      pop\n        /* \"Auction.sol\":6302:6348  BidRecord[] memory _all = new BidRecord[](len) */\n      swap1\n      pop\n        /* \"Auction.sol\":6364:6373  uint256 i */\n      0x00\n        /* \"Auction.sol\":6376:6377  0 */\n      0x00\n        /* \"Auction.sol\":6364:6377  uint256 i = 0 */\n      swap1\n      pop\n        /* \"Auction.sol\":6359:6444  for (uint256 i = 0; i < len; i++) {... */\n    tag_159:\n        /* \"Auction.sol\":6383:6386  len */\n      dup3\n        /* \"Auction.sol\":6379:6380  i */\n      dup2\n        /* \"Auction.sol\":6379:6386  i < len */\n      lt\n        /* \"Auction.sol\":6359:6444  for (uint256 i = 0; i < len; i++) {... */\n      iszero\n      tag_160\n      jumpi\n        /* \"Auction.sol\":6417:6421  bids */\n      0x04\n        /* \"Auction.sol\":6417:6433  bids[bidders[i]] */\n      0x00\n        /* \"Auction.sol\":6422:6429  bidders */\n      0x05\n        /* \"Auction.sol\":6430:6431  i */\n      dup4\n        /* \"Auction.sol\":6422:6432  bidders[i] */\n      dup2\n      sload\n      dup2\n      lt\n      tag_162\n      jumpi\n      tag_163\n      tag_116\n      jump\t// in\n    tag_163:\n    tag_162:\n      swap1\n      0x00\n      mstore\n      keccak256(0x00, 0x20)\n      add\n      0x00\n      swap1\n      sload\n      swap1\n      0x0100\n      exp\n      swap1\n      div\n      0xffffffffffffffffffffffffffffffffffffffff\n      and\n        /* \"Auction.sol\":6417:6433  bids[bidders[i]] */\n      0xffffffffffffffffffffffffffffffffffffffff\n      and\n      0xffffffffffffffffffffffffffffffffffffffff\n      and\n      dup2\n      mstore\n      0x20\n      add\n      swap1\n      dup2\n      mstore\n      0x20\n      add\n      0x00\n      keccak256\n        /* \"Auction.sol\":6407:6433  _all[i] = bids[bidders[i]] */\n      mload(0x40)\n      dup1\n      0x40\n      add\n      0x40\n      mstore\n      swap1\n      dup2\n      0x00\n      dup3\n      add\n      mload(0x40)\n      dup1\n      0x40\n      add\n      0x40\n      mstore\n      swap1\n      dup2\n      0x00\n      dup3\n      add\n      0x00\n      swap1\n      sload\n      swap1\n      0x0100\n      exp\n      swap1\n      div\n      0xffffffffffffffffffffffffffffffffffffffff\n      and\n      0xffffffffffffffffffffffffffffffffffffffff\n      and\n      0xffffffffffffffffffffffffffffffffffffffff\n      and\n      dup2\n      mstore\n      0x20\n      add\n      0x01\n      dup3\n      add\n      sload\n      dup2\n      mstore\n      pop\n      pop\n      dup2\n      mstore\n      0x20\n      add\n      0x02\n      dup3\n      add\n      sload\n      dup2\n      mstore\n      pop\n      pop\n        /* \"Auction.sol\":6407:6411  _all */\n      dup3\n        /* \"Auction.sol\":6412:6413  i */\n      dup3\n        /* \"Auction.sol\":6407:6414  _all[i] */\n      dup2\n      mload\n      dup2\n      lt\n      tag_165\n      jumpi\n      tag_166\n      tag_116\n      jump\t// in\n    tag_166:\n    tag_165:\n      0x20\n      mul\n      0x20\n      add\n      add\n        /* \"Auction.sol\":6407:6433  _all[i] = bids[bidders[i]] */\n      dup2\n      swap1\n      mstore\n      pop\n        /* \"Auction.sol\":6388:6391  i++ */\n      dup1\n      dup1\n      0x01\n      add\n      swap2\n      pop\n      pop\n        /* \"Auction.sol\":6359:6444  for (uint256 i = 0; i < len; i++) {... */\n      jump(tag_159)\n    tag_160:\n      pop\n        /* \"Auction.sol\":6460:6464  _all */\n      dup1\n        /* \"Auction.sol\":6453:6464  return _all */\n      swap3\n      pop\n      pop\n      pop\n        /* \"Auction.sol\":6192:6471  function getBids() external view returns (BidRecord[] memory) {... */\n      swap1\n      jump\t// out\n        /* \"Auction.sol\":6597:6775  function getTimeLeft() external view returns (uint256) {... */\n    tag_62:\n        /* \"Auction.sol\":6643:6650  uint256 */\n      0x00\n        /* \"Auction.sol\":6685:6692  endTime */\n      sload(0x00)\n        /* \"Auction.sol\":6666:6681  block.timestamp */\n      timestamp\n        /* \"Auction.sol\":6666:6692  block.timestamp >= endTime */\n      lt\n        /* \"Auction.sol\":6662:6727  if (block.timestamp >= endTime) {... */\n      tag_168\n      jumpi\n        /* \"Auction.sol\":6715:6716  0 */\n      0x00\n        /* \"Auction.sol\":6708:6716  return 0 */\n      swap1\n      pop\n      jump(tag_167)\n        /* \"Auction.sol\":6662:6727  if (block.timestamp >= endTime) {... */\n    tag_168:\n        /* \"Auction.sol\":6753:6768  block.timestamp */\n      timestamp\n        /* \"Auction.sol\":6743:6750  endTime */\n      sload(0x00)\n        /* \"Auction.sol\":6743:6768  endTime - block.timestamp */\n      tag_169\n      swap2\n      swap1\n      tag_98\n      jump\t// in\n    tag_169:\n        /* \"Auction.sol\":6736:6768  return endTime - block.timestamp */\n      swap1\n      pop\n        /* \"Auction.sol\":6597:6775  function getTimeLeft() external view returns (uint256) {... */\n    tag_167:\n      swap1\n      jump\t// out\n        /* \"Auction.sol\":6928:7020  function getWinnerBid() external view returns (Bid memory) {... */\n    tag_66:\n        /* \"Auction.sol\":6975:6985  Bid memory */\n      tag_170\n      tag_171\n      jump\t// in\n    tag_170:\n        /* \"Auction.sol\":7004:7013  winnerBid */\n      0x01\n        /* \"Auction.sol\":6997:7013  return winnerBid */\n      mload(0x40)\n      dup1\n      0x40\n      add\n      0x40\n      mstore\n      swap1\n      dup2\n      0x00\n      dup3\n      add\n      0x00\n      swap1\n      sload\n      swap1\n      0x0100\n      exp\n      swap1\n      div\n      0xffffffffffffffffffffffffffffffffffffffff\n      and\n      0xffffffffffffffffffffffffffffffffffffffff\n      and\n      0xffffffffffffffffffffffffffffffffffffffff\n      and\n      dup2\n      mstore\n      0x20\n      add\n      0x01\n      dup3\n      add\n      sload\n      dup2\n      mstore\n      pop\n      pop\n      swap1\n      pop\n        /* \"Auction.sol\":6928:7020  function getWinnerBid() external view returns (Bid memory) {... */\n      swap1\n      jump\t// out\n    tag_158:\n      mload(0x40)\n      dup1\n      0x40\n      add\n      0x40\n      mstore\n      dup1\n      tag_173\n      tag_171\n      jump\t// in\n    tag_173:\n      dup2\n      mstore\n      0x20\n      add\n      0x00\n      dup2\n      mstore\n      pop\n      swap1\n      jump\t// out\n    tag_171:\n      mload(0x40)\n      dup1\n      0x40\n      add\n      0x40\n      mstore\n      dup1\n      and(0xffffffffffffffffffffffffffffffffffffffff, 0x00)\n      dup2\n      mstore\n      0x20\n      add\n      0x00\n      dup2\n      mstore\n      pop\n      swap1\n      jump\t// out\n        /* \"#utility.yul\":7:84   */\n    tag_174:\n        /* \"#utility.yul\":44:51   */\n      0x00\n        /* \"#utility.yul\":73:78   */\n      dup2\n        /* \"#utility.yul\":62:78   */\n      swap1\n      pop\n        /* \"#utility.yul\":7:84   */\n      swap2\n      swap1\n      pop\n      jump\t// out\n        /* \"#utility.yul\":90:208   */\n    tag_175:\n        /* \"#utility.yul\":177:201   */\n      tag_213\n        /* \"#utility.yul\":195:200   */\n      dup2\n        /* \"#utility.yul\":177:201   */\n      tag_174\n      jump\t// in\n    tag_213:\n        /* \"#utility.yul\":172:175   */\n      dup3\n        /* \"#utility.yul\":165:202   */\n      mstore\n        /* \"#utility.yul\":90:208   */\n      pop\n      pop\n      jump\t// out\n        /* \"#utility.yul\":214:436   */\n    tag_21:\n        /* \"#utility.yul\":307:311   */\n      0x00\n        /* \"#utility.yul\":345:347   */\n      0x20\n        /* \"#utility.yul\":334:343   */\n      dup3\n        /* \"#utility.yul\":330:348   */\n      add\n        /* \"#utility.yul\":322:348   */\n      swap1\n      pop\n        /* \"#utility.yul\":358:429   */\n      tag_215\n        /* \"#utility.yul\":426:427   */\n      0x00\n        /* \"#utility.yul\":415:424   */\n      dup4\n        /* \"#utility.yul\":411:428   */\n      add\n        /* \"#utility.yul\":402:408   */\n      dup5\n        /* \"#utility.yul\":358:429   */\n      tag_175\n      jump\t// in\n    tag_215:\n        /* \"#utility.yul\":214:436   */\n      swap3\n      swap2\n      pop\n      pop\n      jump\t// out\n        /* \"#utility.yul\":442:568   */\n    tag_176:\n        /* \"#utility.yul\":479:486   */\n      0x00\n        /* \"#utility.yul\":519:561   */\n      0xffffffffffffffffffffffffffffffffffffffff\n        /* \"#utility.yul\":512:517   */\n      dup3\n        /* \"#utility.yul\":508:562   */\n      and\n        /* \"#utility.yul\":497:562   */\n      swap1\n      pop\n        /* \"#utility.yul\":442:568   */\n      swap2\n      swap1\n      pop\n      jump\t// out\n        /* \"#utility.yul\":574:670   */\n    tag_177:\n        /* \"#utility.yul\":611:618   */\n      0x00\n        /* \"#utility.yul\":640:664   */\n      tag_218\n        /* \"#utility.yul\":658:663   */\n      dup3\n        /* \"#utility.yul\":640:664   */\n      tag_176\n      jump\t// in\n    tag_218:\n        /* \"#utility.yul\":629:664   */\n      swap1\n      pop\n        /* \"#utility.yul\":574:670   */\n      swap2\n      swap1\n      pop\n      jump\t// out\n        /* \"#utility.yul\":676:794   */\n    tag_178:\n        /* \"#utility.yul\":763:787   */\n      tag_220\n        /* \"#utility.yul\":781:786   */\n      dup2\n        /* \"#utility.yul\":763:787   */\n      tag_177\n      jump\t// in\n    tag_220:\n        /* \"#utility.yul\":758:761   */\n      dup3\n        /* \"#utility.yul\":751:788   */\n      mstore\n        /* \"#utility.yul\":676:794   */\n      pop\n      pop\n      jump\t// out\n        /* \"#utility.yul\":800:1022   */\n    tag_54:\n        /* \"#utility.yul\":893:897   */\n      0x00\n        /* \"#utility.yul\":931:933   */\n      0x20\n        /* \"#utility.yul\":920:929   */\n      dup3\n        /* \"#utility.yul\":916:934   */\n      add\n        /* \"#utility.yul\":908:934   */\n      swap1\n      pop\n        /* \"#utility.yul\":944:1015   */\n      tag_222\n        /* \"#utility.yul\":1012:1013   */\n      0x00\n        /* \"#utility.yul\":1001:1010   */\n      dup4\n        /* \"#utility.yul\":997:1014   */\n      add\n        /* \"#utility.yul\":988:994   */\n      dup5\n        /* \"#utility.yul\":944:1015   */\n      tag_178\n      jump\t// in\n    tag_222:\n        /* \"#utility.yul\":800:1022   */\n      swap3\n      swap2\n      pop\n      pop\n      jump\t// out\n        /* \"#utility.yul\":1028:1167   */\n    tag_179:\n        /* \"#utility.yul\":1120:1126   */\n      0x00\n        /* \"#utility.yul\":1154:1159   */\n      dup2\n        /* \"#utility.yul\":1148:1160   */\n      mload\n        /* \"#utility.yul\":1138:1160   */\n      swap1\n      pop\n        /* \"#utility.yul\":1028:1167   */\n      swap2\n      swap1\n      pop\n      jump\t// out\n        /* \"#utility.yul\":1173:1382   */\n    tag_180:\n        /* \"#utility.yul\":1297:1308   */\n      0x00\n        /* \"#utility.yul\":1331:1337   */\n      dup3\n        /* \"#utility.yul\":1326:1329   */\n      dup3\n        /* \"#utility.yul\":1319:1338   */\n      mstore\n        /* \"#utility.yul\":1371:1375   */\n      0x20\n        /* \"#utility.yul\":1366:1369   */\n      dup3\n        /* \"#utility.yul\":1362:1376   */\n      add\n        /* \"#utility.yul\":1347:1376   */\n      swap1\n      pop\n        /* \"#utility.yul\":1173:1382   */\n      swap3\n      swap2\n      pop\n      pop\n      jump\t// out\n        /* \"#utility.yul\":1388:1545   */\n    tag_181:\n        /* \"#utility.yul\":1480:1484   */\n      0x00\n        /* \"#utility.yul\":1503:1506   */\n      dup2\n        /* \"#utility.yul\":1495:1506   */\n      swap1\n      pop\n        /* \"#utility.yul\":1533:1537   */\n      0x20\n        /* \"#utility.yul\":1528:1531   */\n      dup3\n        /* \"#utility.yul\":1524:1538   */\n      add\n        /* \"#utility.yul\":1516:1538   */\n      swap1\n      pop\n        /* \"#utility.yul\":1388:1545   */\n      swap2\n      swap1\n      pop\n      jump\t// out\n        /* \"#utility.yul\":1551:1659   */\n    tag_182:\n        /* \"#utility.yul\":1628:1652   */\n      tag_227\n        /* \"#utility.yul\":1646:1651   */\n      dup2\n        /* \"#utility.yul\":1628:1652   */\n      tag_177\n      jump\t// in\n    tag_227:\n        /* \"#utility.yul\":1623:1626   */\n      dup3\n        /* \"#utility.yul\":1616:1653   */\n      mstore\n        /* \"#utility.yul\":1551:1659   */\n      pop\n      pop\n      jump\t// out\n        /* \"#utility.yul\":1665:1773   */\n    tag_183:\n        /* \"#utility.yul\":1742:1766   */\n      tag_229\n        /* \"#utility.yul\":1760:1765   */\n      dup2\n        /* \"#utility.yul\":1742:1766   */\n      tag_174\n      jump\t// in\n    tag_229:\n        /* \"#utility.yul\":1737:1740   */\n      dup3\n        /* \"#utility.yul\":1730:1767   */\n      mstore\n        /* \"#utility.yul\":1665:1773   */\n      pop\n      pop\n      jump\t// out\n        /* \"#utility.yul\":1827:2316   */\n    tag_184:\n        /* \"#utility.yul\":1952:1956   */\n      0x40\n        /* \"#utility.yul\":1947:1950   */\n      dup3\n        /* \"#utility.yul\":1943:1957   */\n      add\n        /* \"#utility.yul\":2041:2045   */\n      0x00\n        /* \"#utility.yul\":2034:2039   */\n      dup3\n        /* \"#utility.yul\":2030:2046   */\n      add\n        /* \"#utility.yul\":2024:2047   */\n      mload\n        /* \"#utility.yul\":2060:2123   */\n      tag_231\n        /* \"#utility.yul\":2117:2121   */\n      0x00\n        /* \"#utility.yul\":2112:2115   */\n      dup6\n        /* \"#utility.yul\":2108:2122   */\n      add\n        /* \"#utility.yul\":2094:2106   */\n      dup3\n        /* \"#utility.yul\":2060:2123   */\n      tag_182\n      jump\t// in\n    tag_231:\n        /* \"#utility.yul\":1967:2133   */\n      pop\n        /* \"#utility.yul\":2217:2221   */\n      0x20\n        /* \"#utility.yul\":2210:2215   */\n      dup3\n        /* \"#utility.yul\":2206:2222   */\n      add\n        /* \"#utility.yul\":2200:2223   */\n      mload\n        /* \"#utility.yul\":2236:2299   */\n      tag_232\n        /* \"#utility.yul\":2293:2297   */\n      0x20\n        /* \"#utility.yul\":2288:2291   */\n      dup6\n        /* \"#utility.yul\":2284:2298   */\n      add\n        /* \"#utility.yul\":2270:2282   */\n      dup3\n        /* \"#utility.yul\":2236:2299   */\n      tag_183\n      jump\t// in\n    tag_232:\n        /* \"#utility.yul\":2143:2309   */\n      pop\n        /* \"#utility.yul\":1921:2316   */\n      pop\n        /* \"#utility.yul\":1827:2316   */\n      pop\n      pop\n      jump\t// out\n        /* \"#utility.yul\":2382:2927   */\n    tag_185:\n        /* \"#utility.yul\":2519:2523   */\n      0x60\n        /* \"#utility.yul\":2514:2517   */\n      dup3\n        /* \"#utility.yul\":2510:2524   */\n      add\n        /* \"#utility.yul\":2605:2609   */\n      0x00\n        /* \"#utility.yul\":2598:2603   */\n      dup3\n        /* \"#utility.yul\":2594:2610   */\n      add\n        /* \"#utility.yul\":2588:2611   */\n      mload\n        /* \"#utility.yul\":2624:2725   */\n      tag_234\n        /* \"#utility.yul\":2719:2723   */\n      0x00\n        /* \"#utility.yul\":2714:2717   */\n      dup6\n        /* \"#utility.yul\":2710:2724   */\n      add\n        /* \"#utility.yul\":2696:2708   */\n      dup3\n        /* \"#utility.yul\":2624:2725   */\n      tag_184\n      jump\t// in\n    tag_234:\n        /* \"#utility.yul\":2534:2735   */\n      pop\n        /* \"#utility.yul\":2828:2832   */\n      0x20\n        /* \"#utility.yul\":2821:2826   */\n      dup3\n        /* \"#utility.yul\":2817:2833   */\n      add\n        /* \"#utility.yul\":2811:2834   */\n      mload\n        /* \"#utility.yul\":2847:2910   */\n      tag_235\n        /* \"#utility.yul\":2904:2908   */\n      0x40\n        /* \"#utility.yul\":2899:2902   */\n      dup6\n        /* \"#utility.yul\":2895:2909   */\n      add\n        /* \"#utility.yul\":2881:2893   */\n      dup3\n        /* \"#utility.yul\":2847:2910   */\n      tag_183\n      jump\t// in\n    tag_235:\n        /* \"#utility.yul\":2745:2920   */\n      pop\n        /* \"#utility.yul\":2488:2927   */\n      pop\n        /* \"#utility.yul\":2382:2927   */\n      pop\n      pop\n      jump\t// out\n        /* \"#utility.yul\":2933:3212   */\n    tag_186:\n        /* \"#utility.yul\":3052:3062   */\n      0x00\n        /* \"#utility.yul\":3073:3169   */\n      tag_237\n        /* \"#utility.yul\":3165:3168   */\n      dup4\n        /* \"#utility.yul\":3157:3163   */\n      dup4\n        /* \"#utility.yul\":3073:3169   */\n      tag_185\n      jump\t// in\n    tag_237:\n        /* \"#utility.yul\":3201:3205   */\n      0x60\n        /* \"#utility.yul\":3196:3199   */\n      dup4\n        /* \"#utility.yul\":3192:3206   */\n      add\n        /* \"#utility.yul\":3178:3206   */\n      swap1\n      pop\n        /* \"#utility.yul\":2933:3212   */\n      swap3\n      swap2\n      pop\n      pop\n      jump\t// out\n        /* \"#utility.yul\":3218:3356   */\n    tag_187:\n        /* \"#utility.yul\":3313:3317   */\n      0x00\n        /* \"#utility.yul\":3345:3349   */\n      0x20\n        /* \"#utility.yul\":3340:3343   */\n      dup3\n        /* \"#utility.yul\":3336:3350   */\n      add\n        /* \"#utility.yul\":3328:3350   */\n      swap1\n      pop\n        /* \"#utility.yul\":3218:3356   */\n      swap2\n      swap1\n      pop\n      jump\t// out\n        /* \"#utility.yul\":3426:4358   */\n    tag_188:\n        /* \"#utility.yul\":3595:3598   */\n      0x00\n        /* \"#utility.yul\":3624:3703   */\n      tag_240\n        /* \"#utility.yul\":3697:3702   */\n      dup3\n        /* \"#utility.yul\":3624:3703   */\n      tag_179\n      jump\t// in\n    tag_240:\n        /* \"#utility.yul\":3719:3830   */\n      tag_241\n        /* \"#utility.yul\":3823:3829   */\n      dup2\n        /* \"#utility.yul\":3818:3821   */\n      dup6\n        /* \"#utility.yul\":3719:3830   */\n      tag_180\n      jump\t// in\n    tag_241:\n        /* \"#utility.yul\":3712:3830   */\n      swap4\n      pop\n        /* \"#utility.yul\":3854:3935   */\n      tag_242\n        /* \"#utility.yul\":3929:3934   */\n      dup4\n        /* \"#utility.yul\":3854:3935   */\n      tag_181\n      jump\t// in\n    tag_242:\n        /* \"#utility.yul\":3958:3965   */\n      dup1\n        /* \"#utility.yul\":3989:3990   */\n      0x00\n        /* \"#utility.yul\":3974:4333   */\n    tag_243:\n        /* \"#utility.yul\":3999:4005   */\n      dup4\n        /* \"#utility.yul\":3996:3997   */\n      dup2\n        /* \"#utility.yul\":3993:4006   */\n      lt\n        /* \"#utility.yul\":3974:4333   */\n      iszero\n      tag_245\n      jumpi\n        /* \"#utility.yul\":4075:4081   */\n      dup2\n        /* \"#utility.yul\":4069:4082   */\n      mload\n        /* \"#utility.yul\":4102:4215   */\n      tag_246\n        /* \"#utility.yul\":4211:4214   */\n      dup9\n        /* \"#utility.yul\":4196:4209   */\n      dup3\n        /* \"#utility.yul\":4102:4215   */\n      tag_186\n      jump\t// in\n    tag_246:\n        /* \"#utility.yul\":4095:4215   */\n      swap8\n      pop\n        /* \"#utility.yul\":4238:4323   */\n      tag_247\n        /* \"#utility.yul\":4316:4322   */\n      dup4\n        /* \"#utility.yul\":4238:4323   */\n      tag_187\n      jump\t// in\n    tag_247:\n        /* \"#utility.yul\":4228:4323   */\n      swap3\n      pop\n        /* \"#utility.yul\":4034:4333   */\n      pop\n        /* \"#utility.yul\":4021:4022   */\n      0x01\n        /* \"#utility.yul\":4018:4019   */\n      dup2\n        /* \"#utility.yul\":4014:4023   */\n      add\n        /* \"#utility.yul\":4009:4023   */\n      swap1\n      pop\n        /* \"#utility.yul\":3974:4333   */\n      jump(tag_243)\n    tag_245:\n        /* \"#utility.yul\":3978:3992   */\n      pop\n        /* \"#utility.yul\":4349:4352   */\n      dup6\n        /* \"#utility.yul\":4342:4352   */\n      swap4\n      pop\n        /* \"#utility.yul\":3600:4358   */\n      pop\n      pop\n      pop\n        /* \"#utility.yul\":3426:4358   */\n      swap3\n      swap2\n      pop\n      pop\n      jump\t// out\n        /* \"#utility.yul\":4364:4837   */\n    tag_59:\n        /* \"#utility.yul\":4557:4561   */\n      0x00\n        /* \"#utility.yul\":4595:4597   */\n      0x20\n        /* \"#utility.yul\":4584:4593   */\n      dup3\n        /* \"#utility.yul\":4580:4598   */\n      add\n        /* \"#utility.yul\":4572:4598   */\n      swap1\n      pop\n        /* \"#utility.yul\":4644:4653   */\n      dup2\n        /* \"#utility.yul\":4638:4642   */\n      dup2\n        /* \"#utility.yul\":4634:4654   */\n      sub\n        /* \"#utility.yul\":4630:4631   */\n      0x00\n        /* \"#utility.yul\":4619:4628   */\n      dup4\n        /* \"#utility.yul\":4615:4632   */\n      add\n        /* \"#utility.yul\":4608:4655   */\n      mstore\n        /* \"#utility.yul\":4672:4830   */\n      tag_249\n        /* \"#utility.yul\":4825:4829   */\n      dup2\n        /* \"#utility.yul\":4816:4822   */\n      dup5\n        /* \"#utility.yul\":4672:4830   */\n      tag_188\n      jump\t// in\n    tag_249:\n        /* \"#utility.yul\":4664:4830   */\n      swap1\n      pop\n        /* \"#utility.yul\":4364:4837   */\n      swap3\n      swap2\n      pop\n      pop\n      jump\t// out\n        /* \"#utility.yul\":4891:5390   */\n    tag_189:\n        /* \"#utility.yul\":5026:5030   */\n      0x40\n        /* \"#utility.yul\":5021:5024   */\n      dup3\n        /* \"#utility.yul\":5017:5031   */\n      add\n        /* \"#utility.yul\":5115:5119   */\n      0x00\n        /* \"#utility.yul\":5108:5113   */\n      dup3\n        /* \"#utility.yul\":5104:5120   */\n      add\n        /* \"#utility.yul\":5098:5121   */\n      mload\n        /* \"#utility.yul\":5134:5197   */\n      tag_251\n        /* \"#utility.yul\":5191:5195   */\n      0x00\n        /* \"#utility.yul\":5186:5189   */\n      dup6\n        /* \"#utility.yul\":5182:5196   */\n      add\n        /* \"#utility.yul\":5168:5180   */\n      dup3\n        /* \"#utility.yul\":5134:5197   */\n      tag_182\n      jump\t// in\n    tag_251:\n        /* \"#utility.yul\":5041:5207   */\n      pop\n        /* \"#utility.yul\":5291:5295   */\n      0x20\n        /* \"#utility.yul\":5284:5289   */\n      dup3\n        /* \"#utility.yul\":5280:5296   */\n      add\n        /* \"#utility.yul\":5274:5297   */\n      mload\n        /* \"#utility.yul\":5310:5373   */\n      tag_252\n        /* \"#utility.yul\":5367:5371   */\n      0x20\n        /* \"#utility.yul\":5362:5365   */\n      dup6\n        /* \"#utility.yul\":5358:5372   */\n      add\n        /* \"#utility.yul\":5344:5356   */\n      dup3\n        /* \"#utility.yul\":5310:5373   */\n      tag_183\n      jump\t// in\n    tag_252:\n        /* \"#utility.yul\":5217:5383   */\n      pop\n        /* \"#utility.yul\":4995:5390   */\n      pop\n        /* \"#utility.yul\":4891:5390   */\n      pop\n      pop\n      jump\t// out\n        /* \"#utility.yul\":5396:5694   */\n    tag_68:\n        /* \"#utility.yul\":5527:5531   */\n      0x00\n        /* \"#utility.yul\":5565:5567   */\n      0x40\n        /* \"#utility.yul\":5554:5563   */\n      dup3\n        /* \"#utility.yul\":5550:5568   */\n      add\n        /* \"#utility.yul\":5542:5568   */\n      swap1\n      pop\n        /* \"#utility.yul\":5578:5687   */\n      tag_254\n        /* \"#utility.yul\":5684:5685   */\n      0x00\n        /* \"#utility.yul\":5673:5682   */\n      dup4\n        /* \"#utility.yul\":5669:5686   */\n      add\n        /* \"#utility.yul\":5660:5666   */\n      dup5\n        /* \"#utility.yul\":5578:5687   */\n      tag_189\n      jump\t// in\n    tag_254:\n        /* \"#utility.yul\":5396:5694   */\n      swap3\n      swap2\n      pop\n      pop\n      jump\t// out\n        /* \"#utility.yul\":5700:5869   */\n    tag_190:\n        /* \"#utility.yul\":5784:5795   */\n      0x00\n        /* \"#utility.yul\":5818:5824   */\n      dup3\n        /* \"#utility.yul\":5813:5816   */\n      dup3\n        /* \"#utility.yul\":5806:5825   */\n      mstore\n        /* \"#utility.yul\":5858:5862   */\n      0x20\n        /* \"#utility.yul\":5853:5856   */\n      dup3\n        /* \"#utility.yul\":5849:5863   */\n      add\n        /* \"#utility.yul\":5834:5863   */\n      swap1\n      pop\n        /* \"#utility.yul\":5700:5869   */\n      swap3\n      swap2\n      pop\n      pop\n      jump\t// out\n        /* \"#utility.yul\":5875:6044   */\n    tag_191:\n        /* \"#utility.yul\":6015:6036   */\n      0x5265656e7472616e637920646574656374656400000000000000000000000000\n        /* \"#utility.yul\":6011:6012   */\n      0x00\n        /* \"#utility.yul\":6003:6009   */\n      dup3\n        /* \"#utility.yul\":5999:6013   */\n      add\n        /* \"#utility.yul\":5992:6037   */\n      mstore\n        /* \"#utility.yul\":5875:6044   */\n      pop\n      jump\t// out\n        /* \"#utility.yul\":6050:6416   */\n    tag_192:\n        /* \"#utility.yul\":6192:6195   */\n      0x00\n        /* \"#utility.yul\":6213:6280   */\n      tag_258\n        /* \"#utility.yul\":6277:6279   */\n      0x13\n        /* \"#utility.yul\":6272:6275   */\n      dup4\n        /* \"#utility.yul\":6213:6280   */\n      tag_190\n      jump\t// in\n    tag_258:\n        /* \"#utility.yul\":6206:6280   */\n      swap2\n      pop\n        /* \"#utility.yul\":6289:6382   */\n      tag_259\n        /* \"#utility.yul\":6378:6381   */\n      dup3\n        /* \"#utility.yul\":6289:6382   */\n      tag_191\n      jump\t// in\n    tag_259:\n        /* \"#utility.yul\":6407:6409   */\n      0x20\n        /* \"#utility.yul\":6402:6405   */\n      dup3\n        /* \"#utility.yul\":6398:6410   */\n      add\n        /* \"#utility.yul\":6391:6410   */\n      swap1\n      pop\n        /* \"#utility.yul\":6050:6416   */\n      swap2\n      swap1\n      pop\n      jump\t// out\n        /* \"#utility.yul\":6422:6841   */\n    tag_72:\n        /* \"#utility.yul\":6588:6592   */\n      0x00\n        /* \"#utility.yul\":6626:6628   */\n      0x20\n        /* \"#utility.yul\":6615:6624   */\n      dup3\n        /* \"#utility.yul\":6611:6629   */\n      add\n        /* \"#utility.yul\":6603:6629   */\n      swap1\n      pop\n        /* \"#utility.yul\":6675:6684   */\n      dup2\n        /* \"#utility.yul\":6669:6673   */\n      dup2\n        /* \"#utility.yul\":6665:6685   */\n      sub\n        /* \"#utility.yul\":6661:6662   */\n      0x00\n        /* \"#utility.yul\":6650:6659   */\n      dup4\n        /* \"#utility.yul\":6646:6663   */\n      add\n        /* \"#utility.yul\":6639:6686   */\n      mstore\n        /* \"#utility.yul\":6703:6834   */\n      tag_261\n        /* \"#utility.yul\":6829:6833   */\n      dup2\n        /* \"#utility.yul\":6703:6834   */\n      tag_192\n      jump\t// in\n    tag_261:\n        /* \"#utility.yul\":6695:6834   */\n      swap1\n      pop\n        /* \"#utility.yul\":6422:6841   */\n      swap2\n      swap1\n      pop\n      jump\t// out\n        /* \"#utility.yul\":6847:7016   */\n    tag_193:\n        /* \"#utility.yul\":6987:7008   */\n      0x41756374696f6e20686173206578706972656400000000000000000000000000\n        /* \"#utility.yul\":6983:6984   */\n      0x00\n        /* \"#utility.yul\":6975:6981   */\n      dup3\n        /* \"#utility.yul\":6971:6985   */\n      add\n        /* \"#utility.yul\":6964:7009   */\n      mstore\n        /* \"#utility.yul\":6847:7016   */\n      pop\n      jump\t// out\n        /* \"#utility.yul\":7022:7388   */\n    tag_194:\n        /* \"#utility.yul\":7164:7167   */\n      0x00\n        /* \"#utility.yul\":7185:7252   */\n      tag_264\n        /* \"#utility.yul\":7249:7251   */\n      0x13\n        /* \"#utility.yul\":7244:7247   */\n      dup4\n        /* \"#utility.yul\":7185:7252   */\n      tag_190\n      jump\t// in\n    tag_264:\n        /* \"#utility.yul\":7178:7252   */\n      swap2\n      pop\n        /* \"#utility.yul\":7261:7354   */\n      tag_265\n        /* \"#utility.yul\":7350:7353   */\n      dup3\n        /* \"#utility.yul\":7261:7354   */\n      tag_193\n      jump\t// in\n    tag_265:\n        /* \"#utility.yul\":7379:7381   */\n      0x20\n        /* \"#utility.yul\":7374:7377   */\n      dup3\n        /* \"#utility.yul\":7370:7382   */\n      add\n        /* \"#utility.yul\":7363:7382   */\n      swap1\n      pop\n        /* \"#utility.yul\":7022:7388   */\n      swap2\n      swap1\n      pop\n      jump\t// out\n        /* \"#utility.yul\":7394:7813   */\n    tag_76:\n        /* \"#utility.yul\":7560:7564   */\n      0x00\n        /* \"#utility.yul\":7598:7600   */\n      0x20\n        /* \"#utility.yul\":7587:7596   */\n      dup3\n        /* \"#utility.yul\":7583:7601   */\n      add\n        /* \"#utility.yul\":7575:7601   */\n      swap1\n      pop\n        /* \"#utility.yul\":7647:7656   */\n      dup2\n        /* \"#utility.yul\":7641:7645   */\n      dup2\n        /* \"#utility.yul\":7637:7657   */\n      sub\n        /* \"#utility.yul\":7633:7634   */\n      0x00\n        /* \"#utility.yul\":7622:7631   */\n      dup4\n        /* \"#utility.yul\":7618:7635   */\n      add\n        /* \"#utility.yul\":7611:7658   */\n      mstore\n        /* \"#utility.yul\":7675:7806   */\n      tag_267\n        /* \"#utility.yul\":7801:7805   */\n      dup2\n        /* \"#utility.yul\":7675:7806   */\n      tag_194\n      jump\t// in\n    tag_267:\n        /* \"#utility.yul\":7667:7806   */\n      swap1\n      pop\n        /* \"#utility.yul\":7394:7813   */\n      swap2\n      swap1\n      pop\n      jump\t// out\n        /* \"#utility.yul\":7819:7999   */\n    tag_195:\n        /* \"#utility.yul\":7867:7944   */\n      0x4e487b7100000000000000000000000000000000000000000000000000000000\n        /* \"#utility.yul\":7864:7865   */\n      0x00\n        /* \"#utility.yul\":7857:7945   */\n      mstore\n        /* \"#utility.yul\":7964:7968   */\n      0x11\n        /* \"#utility.yul\":7961:7962   */\n      0x04\n        /* \"#utility.yul\":7954:7969   */\n      mstore\n        /* \"#utility.yul\":7988:7992   */\n      0x24\n        /* \"#utility.yul\":7985:7986   */\n      0x00\n        /* \"#utility.yul\":7978:7993   */\n      revert\n        /* \"#utility.yul\":8005:8196   */\n    tag_79:\n        /* \"#utility.yul\":8045:8048   */\n      0x00\n        /* \"#utility.yul\":8064:8084   */\n      tag_270\n        /* \"#utility.yul\":8082:8083   */\n      dup3\n        /* \"#utility.yul\":8064:8084   */\n      tag_174\n      jump\t// in\n    tag_270:\n        /* \"#utility.yul\":8059:8084   */\n      swap2\n      pop\n        /* \"#utility.yul\":8098:8118   */\n      tag_271\n        /* \"#utility.yul\":8116:8117   */\n      dup4\n        /* \"#utility.yul\":8098:8118   */\n      tag_174\n      jump\t// in\n    tag_271:\n        /* \"#utility.yul\":8093:8118   */\n      swap3\n      pop\n        /* \"#utility.yul\":8141:8142   */\n      dup3\n        /* \"#utility.yul\":8138:8139   */\n      dup3\n        /* \"#utility.yul\":8134:8143   */\n      add\n        /* \"#utility.yul\":8127:8143   */\n      swap1\n      pop\n        /* \"#utility.yul\":8162:8165   */\n      dup1\n        /* \"#utility.yul\":8159:8160   */\n      dup3\n        /* \"#utility.yul\":8156:8166   */\n      gt\n        /* \"#utility.yul\":8153:8189   */\n      iszero\n      tag_272\n      jumpi\n        /* \"#utility.yul\":8169:8187   */\n      tag_273\n      tag_195\n      jump\t// in\n    tag_273:\n        /* \"#utility.yul\":8153:8189   */\n    tag_272:\n        /* \"#utility.yul\":8005:8196   */\n      swap3\n      swap2\n      pop\n      pop\n      jump\t// out\n        /* \"#utility.yul\":8202:8612   */\n    tag_81:\n        /* \"#utility.yul\":8242:8249   */\n      0x00\n        /* \"#utility.yul\":8265:8285   */\n      tag_275\n        /* \"#utility.yul\":8283:8284   */\n      dup3\n        /* \"#utility.yul\":8265:8285   */\n      tag_174\n      jump\t// in\n    tag_275:\n        /* \"#utility.yul\":8260:8285   */\n      swap2\n      pop\n        /* \"#utility.yul\":8299:8319   */\n      tag_276\n        /* \"#utility.yul\":8317:8318   */\n      dup4\n        /* \"#utility.yul\":8299:8319   */\n      tag_174\n      jump\t// in\n    tag_276:\n        /* \"#utility.yul\":8294:8319   */\n      swap3\n      pop\n        /* \"#utility.yul\":8354:8355   */\n      dup3\n        /* \"#utility.yul\":8351:8352   */\n      dup3\n        /* \"#utility.yul\":8347:8356   */\n      mul\n        /* \"#utility.yul\":8376:8406   */\n      tag_277\n        /* \"#utility.yul\":8394:8405   */\n      dup2\n        /* \"#utility.yul\":8376:8406   */\n      tag_174\n      jump\t// in\n    tag_277:\n        /* \"#utility.yul\":8365:8406   */\n      swap2\n      pop\n        /* \"#utility.yul\":8555:8556   */\n      dup3\n        /* \"#utility.yul\":8546:8553   */\n      dup3\n        /* \"#utility.yul\":8542:8557   */\n      div\n        /* \"#utility.yul\":8539:8540   */\n      dup5\n        /* \"#utility.yul\":8536:8558   */\n      eq\n        /* \"#utility.yul\":8516:8517   */\n      dup4\n        /* \"#utility.yul\":8509:8518   */\n      iszero\n        /* \"#utility.yul\":8489:8572   */\n      or\n        /* \"#utility.yul\":8466:8605   */\n      tag_278\n      jumpi\n        /* \"#utility.yul\":8585:8603   */\n      tag_279\n      tag_195\n      jump\t// in\n    tag_279:\n        /* \"#utility.yul\":8466:8605   */\n    tag_278:\n        /* \"#utility.yul\":8250:8612   */\n      pop\n        /* \"#utility.yul\":8202:8612   */\n      swap3\n      swap2\n      pop\n      pop\n      jump\t// out\n        /* \"#utility.yul\":8618:8798   */\n    tag_196:\n        /* \"#utility.yul\":8666:8743   */\n      0x4e487b7100000000000000000000000000000000000000000000000000000000\n        /* \"#utility.yul\":8663:8664   */\n      0x00\n        /* \"#utility.yul\":8656:8744   */\n      mstore\n        /* \"#utility.yul\":8763:8767   */\n      0x12\n        /* \"#utility.yul\":8760:8761   */\n      0x04\n        /* \"#utility.yul\":8753:8768   */\n      mstore\n        /* \"#utility.yul\":8787:8791   */\n      0x24\n        /* \"#utility.yul\":8784:8785   */\n      0x00\n        /* \"#utility.yul\":8777:8792   */\n      revert\n        /* \"#utility.yul\":8804:8989   */\n    tag_83:\n        /* \"#utility.yul\":8844:8845   */\n      0x00\n        /* \"#utility.yul\":8861:8881   */\n      tag_282\n        /* \"#utility.yul\":8879:8880   */\n      dup3\n        /* \"#utility.yul\":8861:8881   */\n      tag_174\n      jump\t// in\n    tag_282:\n        /* \"#utility.yul\":8856:8881   */\n      swap2\n      pop\n        /* \"#utility.yul\":8895:8915   */\n      tag_283\n        /* \"#utility.yul\":8913:8914   */\n      dup4\n        /* \"#utility.yul\":8895:8915   */\n      tag_174\n      jump\t// in\n    tag_283:\n        /* \"#utility.yul\":8890:8915   */\n      swap3\n      pop\n        /* \"#utility.yul\":8934:8935   */\n      dup3\n        /* \"#utility.yul\":8924:8959   */\n      tag_284\n      jumpi\n        /* \"#utility.yul\":8939:8957   */\n      tag_285\n      tag_196\n      jump\t// in\n    tag_285:\n        /* \"#utility.yul\":8924:8959   */\n    tag_284:\n        /* \"#utility.yul\":8981:8982   */\n      dup3\n        /* \"#utility.yul\":8978:8979   */\n      dup3\n        /* \"#utility.yul\":8974:8983   */\n      div\n        /* \"#utility.yul\":8969:8983   */\n      swap1\n      pop\n        /* \"#utility.yul\":8804:8989   */\n      swap3\n      swap2\n      pop\n      pop\n      jump\t// out\n        /* \"#utility.yul\":8995:9238   */\n    tag_197:\n        /* \"#utility.yul\":9135:9169   */\n      0x426964206d757374206265206174206c65617374203525206772656174657220\n        /* \"#utility.yul\":9131:9132   */\n      0x00\n        /* \"#utility.yul\":9123:9129   */\n      dup3\n        /* \"#utility.yul\":9119:9133   */\n      add\n        /* \"#utility.yul\":9112:9170   */\n      mstore\n        /* \"#utility.yul\":9204:9230   */\n      0x7468616e2063757272656e742068696768657374206269640000000000000000\n        /* \"#utility.yul\":9199:9201   */\n      0x20\n        /* \"#utility.yul\":9191:9197   */\n      dup3\n        /* \"#utility.yul\":9187:9202   */\n      add\n        /* \"#utility.yul\":9180:9231   */\n      mstore\n        /* \"#utility.yul\":8995:9238   */\n      pop\n      jump\t// out\n        /* \"#utility.yul\":9244:9610   */\n    tag_198:\n        /* \"#utility.yul\":9386:9389   */\n      0x00\n        /* \"#utility.yul\":9407:9474   */\n      tag_288\n        /* \"#utility.yul\":9471:9473   */\n      0x38\n        /* \"#utility.yul\":9466:9469   */\n      dup4\n        /* \"#utility.yul\":9407:9474   */\n      tag_190\n      jump\t// in\n    tag_288:\n        /* \"#utility.yul\":9400:9474   */\n      swap2\n      pop\n        /* \"#utility.yul\":9483:9576   */\n      tag_289\n        /* \"#utility.yul\":9572:9575   */\n      dup3\n        /* \"#utility.yul\":9483:9576   */\n      tag_197\n      jump\t// in\n    tag_289:\n        /* \"#utility.yul\":9601:9603   */\n      0x40\n        /* \"#utility.yul\":9596:9599   */\n      dup3\n        /* \"#utility.yul\":9592:9604   */\n      add\n        /* \"#utility.yul\":9585:9604   */\n      swap1\n      pop\n        /* \"#utility.yul\":9244:9610   */\n      swap2\n      swap1\n      pop\n      jump\t// out\n        /* \"#utility.yul\":9616:10035   */\n    tag_86:\n        /* \"#utility.yul\":9782:9786   */\n      0x00\n        /* \"#utility.yul\":9820:9822   */\n      0x20\n        /* \"#utility.yul\":9809:9818   */\n      dup3\n        /* \"#utility.yul\":9805:9823   */\n      add\n        /* \"#utility.yul\":9797:9823   */\n      swap1\n      pop\n        /* \"#utility.yul\":9869:9878   */\n      dup2\n        /* \"#utility.yul\":9863:9867   */\n      dup2\n        /* \"#utility.yul\":9859:9879   */\n      sub\n        /* \"#utility.yul\":9855:9856   */\n      0x00\n        /* \"#utility.yul\":9844:9853   */\n      dup4\n        /* \"#utility.yul\":9840:9857   */\n      add\n        /* \"#utility.yul\":9833:9880   */\n      mstore\n        /* \"#utility.yul\":9897:10028   */\n      tag_291\n        /* \"#utility.yul\":10023:10027   */\n      dup2\n        /* \"#utility.yul\":9897:10028   */\n      tag_198\n      jump\t// in\n    tag_291:\n        /* \"#utility.yul\":9889:10028   */\n      swap1\n      pop\n        /* \"#utility.yul\":9616:10035   */\n      swap2\n      swap1\n      pop\n      jump\t// out\n        /* \"#utility.yul\":10041:10223   */\n    tag_199:\n        /* \"#utility.yul\":10181:10215   */\n      0x596f7520616c7265616479206861766520746865206869676865737420626964\n        /* \"#utility.yul\":10177:10178   */\n      0x00\n        /* \"#utility.yul\":10169:10175   */\n      dup3\n        /* \"#utility.yul\":10165:10179   */\n      add\n        /* \"#utility.yul\":10158:10216   */\n      mstore\n        /* \"#utility.yul\":10041:10223   */\n      pop\n      jump\t// out\n        /* \"#utility.yul\":10229:10595   */\n    tag_200:\n        /* \"#utility.yul\":10371:10374   */\n      0x00\n        /* \"#utility.yul\":10392:10459   */\n      tag_294\n        /* \"#utility.yul\":10456:10458   */\n      0x20\n        /* \"#utility.yul\":10451:10454   */\n      dup4\n        /* \"#utility.yul\":10392:10459   */\n      tag_190\n      jump\t// in\n    tag_294:\n        /* \"#utility.yul\":10385:10459   */\n      swap2\n      pop\n        /* \"#utility.yul\":10468:10561   */\n      tag_295\n        /* \"#utility.yul\":10557:10560   */\n      dup3\n        /* \"#utility.yul\":10468:10561   */\n      tag_199\n      jump\t// in\n    tag_295:\n        /* \"#utility.yul\":10586:10588   */\n      0x20\n        /* \"#utility.yul\":10581:10584   */\n      dup3\n        /* \"#utility.yul\":10577:10589   */\n      add\n        /* \"#utility.yul\":10570:10589   */\n      swap1\n      pop\n        /* \"#utility.yul\":10229:10595   */\n      swap2\n      swap1\n      pop\n      jump\t// out\n        /* \"#utility.yul\":10601:11020   */\n    tag_90:\n        /* \"#utility.yul\":10767:10771   */\n      0x00\n        /* \"#utility.yul\":10805:10807   */\n      0x20\n        /* \"#utility.yul\":10794:10803   */\n      dup3\n        /* \"#utility.yul\":10790:10808   */\n      add\n        /* \"#utility.yul\":10782:10808   */\n      swap1\n      pop\n        /* \"#utility.yul\":10854:10863   */\n      dup2\n        /* \"#utility.yul\":10848:10852   */\n      dup2\n        /* \"#utility.yul\":10844:10864   */\n      sub\n        /* \"#utility.yul\":10840:10841   */\n      0x00\n        /* \"#utility.yul\":10829:10838   */\n      dup4\n        /* \"#utility.yul\":10825:10842   */\n      add\n        /* \"#utility.yul\":10818:10865   */\n      mstore\n        /* \"#utility.yul\":10882:11013   */\n      tag_297\n        /* \"#utility.yul\":11008:11012   */\n      dup2\n        /* \"#utility.yul\":10882:11013   */\n      tag_200\n      jump\t// in\n    tag_297:\n        /* \"#utility.yul\":10874:11013   */\n      swap1\n      pop\n        /* \"#utility.yul\":10601:11020   */\n      swap2\n      swap1\n      pop\n      jump\t// out\n        /* \"#utility.yul\":11026:11220   */\n    tag_98:\n        /* \"#utility.yul\":11066:11070   */\n      0x00\n        /* \"#utility.yul\":11086:11106   */\n      tag_299\n        /* \"#utility.yul\":11104:11105   */\n      dup3\n        /* \"#utility.yul\":11086:11106   */\n      tag_174\n      jump\t// in\n    tag_299:\n        /* \"#utility.yul\":11081:11106   */\n      swap2\n      pop\n        /* \"#utility.yul\":11120:11140   */\n      tag_300\n        /* \"#utility.yul\":11138:11139   */\n      dup4\n        /* \"#utility.yul\":11120:11140   */\n      tag_174\n      jump\t// in\n    tag_300:\n        /* \"#utility.yul\":11115:11140   */\n      swap3\n      pop\n        /* \"#utility.yul\":11164:11165   */\n      dup3\n        /* \"#utility.yul\":11161:11162   */\n      dup3\n        /* \"#utility.yul\":11157:11166   */\n      sub\n        /* \"#utility.yul\":11149:11166   */\n      swap1\n      pop\n        /* \"#utility.yul\":11188:11189   */\n      dup2\n        /* \"#utility.yul\":11182:11186   */\n      dup2\n        /* \"#utility.yul\":11179:11190   */\n      gt\n        /* \"#utility.yul\":11176:11213   */\n      iszero\n      tag_301\n      jumpi\n        /* \"#utility.yul\":11193:11211   */\n      tag_302\n      tag_195\n      jump\t// in\n    tag_302:\n        /* \"#utility.yul\":11176:11213   */\n    tag_301:\n        /* \"#utility.yul\":11026:11220   */\n      swap3\n      swap2\n      pop\n      pop\n      jump\t// out\n        /* \"#utility.yul\":11226:11558   */\n    tag_102:\n        /* \"#utility.yul\":11347:11351   */\n      0x00\n        /* \"#utility.yul\":11385:11387   */\n      0x40\n        /* \"#utility.yul\":11374:11383   */\n      dup3\n        /* \"#utility.yul\":11370:11388   */\n      add\n        /* \"#utility.yul\":11362:11388   */\n      swap1\n      pop\n        /* \"#utility.yul\":11398:11469   */\n      tag_304\n        /* \"#utility.yul\":11466:11467   */\n      0x00\n        /* \"#utility.yul\":11455:11464   */\n      dup4\n        /* \"#utility.yul\":11451:11468   */\n      add\n        /* \"#utility.yul\":11442:11448   */\n      dup6\n        /* \"#utility.yul\":11398:11469   */\n      tag_175\n      jump\t// in\n    tag_304:\n        /* \"#utility.yul\":11479:11551   */\n      tag_305\n        /* \"#utility.yul\":11547:11549   */\n      0x20\n        /* \"#utility.yul\":11536:11545   */\n      dup4\n        /* \"#utility.yul\":11532:11550   */\n      add\n        /* \"#utility.yul\":11523:11529   */\n      dup5\n        /* \"#utility.yul\":11479:11551   */\n      tag_175\n      jump\t// in\n    tag_305:\n        /* \"#utility.yul\":11226:11558   */\n      swap4\n      swap3\n      pop\n      pop\n      pop\n      jump\t// out\n        /* \"#utility.yul\":11564:11785   */\n    tag_201:\n        /* \"#utility.yul\":11704:11738   */\n      0x4f6e6c79206f776e65722063616e20706572666f726d20746869732061637469\n        /* \"#utility.yul\":11700:11701   */\n      0x00\n        /* \"#utility.yul\":11692:11698   */\n      dup3\n        /* \"#utility.yul\":11688:11702   */\n      add\n        /* \"#utility.yul\":11681:11739   */\n      mstore\n        /* \"#utility.yul\":11773:11777   */\n      0x6f6e000000000000000000000000000000000000000000000000000000000000\n        /* \"#utility.yul\":11768:11770   */\n      0x20\n        /* \"#utility.yul\":11760:11766   */\n      dup3\n        /* \"#utility.yul\":11756:11771   */\n      add\n        /* \"#utility.yul\":11749:11778   */\n      mstore\n        /* \"#utility.yul\":11564:11785   */\n      pop\n      jump\t// out\n        /* \"#utility.yul\":11791:12157   */\n    tag_202:\n        /* \"#utility.yul\":11933:11936   */\n      0x00\n        /* \"#utility.yul\":11954:12021   */\n      tag_308\n        /* \"#utility.yul\":12018:12020   */\n      0x22\n        /* \"#utility.yul\":12013:12016   */\n      dup4\n        /* \"#utility.yul\":11954:12021   */\n      tag_190\n      jump\t// in\n    tag_308:\n        /* \"#utility.yul\":11947:12021   */\n      swap2\n      pop\n        /* \"#utility.yul\":12030:12123   */\n      tag_309\n        /* \"#utility.yul\":12119:12122   */\n      dup3\n        /* \"#utility.yul\":12030:12123   */\n      tag_201\n      jump\t// in\n    tag_309:\n        /* \"#utility.yul\":12148:12150   */\n      0x40\n        /* \"#utility.yul\":12143:12146   */\n      dup3\n        /* \"#utility.yul\":12139:12151   */\n      add\n        /* \"#utility.yul\":12132:12151   */\n      swap1\n      pop\n        /* \"#utility.yul\":11791:12157   */\n      swap2\n      swap1\n      pop\n      jump\t// out\n        /* \"#utility.yul\":12163:12582   */\n    tag_106:\n        /* \"#utility.yul\":12329:12333   */\n      0x00\n        /* \"#utility.yul\":12367:12369   */\n      0x20\n        /* \"#utility.yul\":12356:12365   */\n      dup3\n        /* \"#utility.yul\":12352:12370   */\n      add\n        /* \"#utility.yul\":12344:12370   */\n      swap1\n      pop\n        /* \"#utility.yul\":12416:12425   */\n      dup2\n        /* \"#utility.yul\":12410:12414   */\n      dup2\n        /* \"#utility.yul\":12406:12426   */\n      sub\n        /* \"#utility.yul\":12402:12403   */\n      0x00\n        /* \"#utility.yul\":12391:12400   */\n      dup4\n        /* \"#utility.yul\":12387:12404   */\n      add\n        /* \"#utility.yul\":12380:12427   */\n      mstore\n        /* \"#utility.yul\":12444:12575   */\n      tag_311\n        /* \"#utility.yul\":12570:12574   */\n      dup2\n        /* \"#utility.yul\":12444:12575   */\n      tag_202\n      jump\t// in\n    tag_311:\n        /* \"#utility.yul\":12436:12575   */\n      swap1\n      pop\n        /* \"#utility.yul\":12163:12582   */\n      swap2\n      swap1\n      pop\n      jump\t// out\n        /* \"#utility.yul\":12588:12768   */\n    tag_116:\n        /* \"#utility.yul\":12636:12713   */\n      0x4e487b7100000000000000000000000000000000000000000000000000000000\n        /* \"#utility.yul\":12633:12634   */\n      0x00\n        /* \"#utility.yul\":12626:12714   */\n      mstore\n        /* \"#utility.yul\":12733:12737   */\n      0x32\n        /* \"#utility.yul\":12730:12731   */\n      0x04\n        /* \"#utility.yul\":12723:12738   */\n      mstore\n        /* \"#utility.yul\":12757:12761   */\n      0x24\n        /* \"#utility.yul\":12754:12755   */\n      0x00\n        /* \"#utility.yul\":12747:12762   */\n      revert\n        /* \"#utility.yul\":12774:12921   */\n    tag_203:\n        /* \"#utility.yul\":12875:12886   */\n      0x00\n        /* \"#utility.yul\":12912:12915   */\n      dup2\n        /* \"#utility.yul\":12897:12915   */\n      swap1\n      pop\n        /* \"#utility.yul\":12774:12921   */\n      swap3\n      swap2\n      pop\n      pop\n      jump\t// out\n        /* \"#utility.yul\":12927:13041   */\n    tag_204:\n      pop\n      jump\t// out\n        /* \"#utility.yul\":13047:13445   */\n    tag_205:\n        /* \"#utility.yul\":13206:13209   */\n      0x00\n        /* \"#utility.yul\":13227:13310   */\n      tag_316\n        /* \"#utility.yul\":13308:13309   */\n      0x00\n        /* \"#utility.yul\":13303:13306   */\n      dup4\n        /* \"#utility.yul\":13227:13310   */\n      tag_203\n      jump\t// in\n    tag_316:\n        /* \"#utility.yul\":13220:13310   */\n      swap2\n      pop\n        /* \"#utility.yul\":13319:13412   */\n      tag_317\n        /* \"#utility.yul\":13408:13411   */\n      dup3\n        /* \"#utility.yul\":13319:13412   */\n      tag_204\n      jump\t// in\n    tag_317:\n        /* \"#utility.yul\":13437:13438   */\n      0x00\n        /* \"#utility.yul\":13432:13435   */\n      dup3\n        /* \"#utility.yul\":13428:13439   */\n      add\n        /* \"#utility.yul\":13421:13439   */\n      swap1\n      pop\n        /* \"#utility.yul\":13047:13445   */\n      swap2\n      swap1\n      pop\n      jump\t// out\n        /* \"#utility.yul\":13451:13830   */\n    tag_128:\n        /* \"#utility.yul\":13635:13638   */\n      0x00\n        /* \"#utility.yul\":13657:13804   */\n      tag_319\n        /* \"#utility.yul\":13800:13803   */\n      dup3\n        /* \"#utility.yul\":13657:13804   */\n      tag_205\n      jump\t// in\n    tag_319:\n        /* \"#utility.yul\":13650:13804   */\n      swap2\n      pop\n        /* \"#utility.yul\":13821:13824   */\n      dup2\n        /* \"#utility.yul\":13814:13824   */\n      swap1\n      pop\n        /* \"#utility.yul\":13451:13830   */\n      swap2\n      swap1\n      pop\n      jump\t// out\n        /* \"#utility.yul\":13836:13999   */\n    tag_206:\n        /* \"#utility.yul\":13976:13991   */\n      0x526566756e64206661696c656400000000000000000000000000000000000000\n        /* \"#utility.yul\":13972:13973   */\n      0x00\n        /* \"#utility.yul\":13964:13970   */\n      dup3\n        /* \"#utility.yul\":13960:13974   */\n      add\n        /* \"#utility.yul\":13953:13992   */\n      mstore\n        /* \"#utility.yul\":13836:13999   */\n      pop\n      jump\t// out\n        /* \"#utility.yul\":14005:14371   */\n    tag_207:\n        /* \"#utility.yul\":14147:14150   */\n      0x00\n        /* \"#utility.yul\":14168:14235   */\n      tag_322\n        /* \"#utility.yul\":14232:14234   */\n      0x0d\n        /* \"#utility.yul\":14227:14230   */\n      dup4\n        /* \"#utility.yul\":14168:14235   */\n      tag_190\n      jump\t// in\n    tag_322:\n        /* \"#utility.yul\":14161:14235   */\n      swap2\n      pop\n        /* \"#utility.yul\":14244:14337   */\n      tag_323\n        /* \"#utility.yul\":14333:14336   */\n      dup3\n        /* \"#utility.yul\":14244:14337   */\n      tag_206\n      jump\t// in\n    tag_323:\n        /* \"#utility.yul\":14362:14364   */\n      0x20\n        /* \"#utility.yul\":14357:14360   */\n      dup3\n        /* \"#utility.yul\":14353:14365   */\n      add\n        /* \"#utility.yul\":14346:14365   */\n      swap1\n      pop\n        /* \"#utility.yul\":14005:14371   */\n      swap2\n      swap1\n      pop\n      jump\t// out\n        /* \"#utility.yul\":14377:14796   */\n    tag_134:\n        /* \"#utility.yul\":14543:14547   */\n      0x00\n        /* \"#utility.yul\":14581:14583   */\n      0x20\n        /* \"#utility.yul\":14570:14579   */\n      dup3\n        /* \"#utility.yul\":14566:14584   */\n      add\n        /* \"#utility.yul\":14558:14584   */\n      swap1\n      pop\n        /* \"#utility.yul\":14630:14639   */\n      dup2\n        /* \"#utility.yul\":14624:14628   */\n      dup2\n        /* \"#utility.yul\":14620:14640   */\n      sub\n        /* \"#utility.yul\":14616:14617   */\n      0x00\n        /* \"#utility.yul\":14605:14614   */\n      dup4\n        /* \"#utility.yul\":14601:14618   */\n      add\n        /* \"#utility.yul\":14594:14641   */\n      mstore\n        /* \"#utility.yul\":14658:14789   */\n      tag_325\n        /* \"#utility.yul\":14784:14788   */\n      dup2\n        /* \"#utility.yul\":14658:14789   */\n      tag_207\n      jump\t// in\n    tag_325:\n        /* \"#utility.yul\":14650:14789   */\n      swap1\n      pop\n        /* \"#utility.yul\":14377:14796   */\n      swap2\n      swap1\n      pop\n      jump\t// out\n        /* \"#utility.yul\":14802:14977   */\n    tag_208:\n        /* \"#utility.yul\":14942:14969   */\n      0x4e6f2070656e64696e6720776974686472617720666f756e6400000000000000\n        /* \"#utility.yul\":14938:14939   */\n      0x00\n        /* \"#utility.yul\":14930:14936   */\n      dup3\n        /* \"#utility.yul\":14926:14940   */\n      add\n        /* \"#utility.yul\":14919:14970   */\n      mstore\n        /* \"#utility.yul\":14802:14977   */\n      pop\n      jump\t// out\n        /* \"#utility.yul\":14983:15349   */\n    tag_209:\n        /* \"#utility.yul\":15125:15128   */\n      0x00\n        /* \"#utility.yul\":15146:15213   */\n      tag_328\n        /* \"#utility.yul\":15210:15212   */\n      0x19\n        /* \"#utility.yul\":15205:15208   */\n      dup4\n        /* \"#utility.yul\":15146:15213   */\n      tag_190\n      jump\t// in\n    tag_328:\n        /* \"#utility.yul\":15139:15213   */\n      swap2\n      pop\n        /* \"#utility.yul\":15222:15315   */\n      tag_329\n        /* \"#utility.yul\":15311:15314   */\n      dup3\n        /* \"#utility.yul\":15222:15315   */\n      tag_208\n      jump\t// in\n    tag_329:\n        /* \"#utility.yul\":15340:15342   */\n      0x20\n        /* \"#utility.yul\":15335:15338   */\n      dup3\n        /* \"#utility.yul\":15331:15343   */\n      add\n        /* \"#utility.yul\":15324:15343   */\n      swap1\n      pop\n        /* \"#utility.yul\":14983:15349   */\n      swap2\n      swap1\n      pop\n      jump\t// out\n        /* \"#utility.yul\":15355:15774   */\n    tag_143:\n        /* \"#utility.yul\":15521:15525   */\n      0x00\n        /* \"#utility.yul\":15559:15561   */\n      0x20\n        /* \"#utility.yul\":15548:15557   */\n      dup3\n        /* \"#utility.yul\":15544:15562   */\n      add\n        /* \"#utility.yul\":15536:15562   */\n      swap1\n      pop\n        /* \"#utility.yul\":15608:15617   */\n      dup2\n        /* \"#utility.yul\":15602:15606   */\n      dup2\n        /* \"#utility.yul\":15598:15618   */\n      sub\n        /* \"#utility.yul\":15594:15595   */\n      0x00\n        /* \"#utility.yul\":15583:15592   */\n      dup4\n        /* \"#utility.yul\":15579:15596   */\n      add\n        /* \"#utility.yul\":15572:15619   */\n      mstore\n        /* \"#utility.yul\":15636:15767   */\n      tag_331\n        /* \"#utility.yul\":15762:15766   */\n      dup2\n        /* \"#utility.yul\":15636:15767   */\n      tag_209\n      jump\t// in\n    tag_331:\n        /* \"#utility.yul\":15628:15767   */\n      swap1\n      pop\n        /* \"#utility.yul\":15355:15774   */\n      swap2\n      swap1\n      pop\n      jump\t// out\n        /* \"#utility.yul\":15780:15960   */\n    tag_154:\n        /* \"#utility.yul\":15828:15905   */\n      0x4e487b7100000000000000000000000000000000000000000000000000000000\n        /* \"#utility.yul\":15825:15826   */\n      0x00\n        /* \"#utility.yul\":15818:15906   */\n      mstore\n        /* \"#utility.yul\":15925:15929   */\n      0x41\n        /* \"#utility.yul\":15922:15923   */\n      0x04\n        /* \"#utility.yul\":15915:15930   */\n      mstore\n        /* \"#utility.yul\":15949:15953   */\n      0x24\n        /* \"#utility.yul\":15946:15947   */\n      0x00\n        /* \"#utility.yul\":15939:15954   */\n      revert\n\n    auxdata: 0xa2646970667358221220122b5ff1690d2ecce46a45be8e7697ec3ea3e48f744f6971c9f5815431e91af164736f6c634300081e0033\n}\n",
				"bytecode": {
					"linkReferences": {},
					"object": "610140604052348015610010575f5ffd5b503373ffffffffffffffffffffffffffffffffffffffff1660808173ffffffffffffffffffffffffffffffffffffffff16815250504260a0818152505061038460c0818152505060c05160a05161006791906100d4565b5f81905550670d2f13f7789f0000600381905550600560e08181525050610258610100818152505060026101208181525050610107565b5f819050919050565b7f4e487b71000000000000000000000000000000000000000000000000000000005f52601160045260245ffd5b5f6100de8261009e565b91506100e98361009e565b9250828201905080821115610101576101006100a7565b5b92915050565b60805160a05160c05160e05161010051610120516119386101785f395f81816109fb01528181610a9c0152610cd001525f8181610773015281816107a7015261084601525f81816103740152610cac01525f6102a101525f610cf401525f818161086f0152610f2001526119385ff3fe6080604052600436106100c1575f3560e01c8063658612e91161007e5780638da5cb5b116100585780638da5cb5b146101f7578063b81c78ec14610221578063c7e284b81461024b578063ceb98f6e14610275576100c1565b8063658612e91461018d57806378e97925146101b75780638d818527146101e1576100c1565b80630fb5a6b4146100c55780631998aeef146100ef5780632d5537b0146100f95780633197cbb61461012357806338e771ab1461014d578063430efe6f14610163575b5f5ffd5b3480156100d0575f5ffd5b506100d961029f565b6040516100e691906111e4565b60405180910390f35b6100f76102c3565b005b348015610104575f5ffd5b5061010d610844565b60405161011a91906111e4565b60405180910390f35b34801561012e575f5ffd5b50610137610868565b60405161014491906111e4565b60405180910390f35b348015610158575f5ffd5b5061016161086d565b005b34801561016e575f5ffd5b50610177610caa565b60405161018491906111e4565b60405180910390f35b348015610198575f5ffd5b506101a1610cce565b6040516101ae91906111e4565b60405180910390f35b3480156101c2575f5ffd5b506101cb610cf2565b6040516101d891906111e4565b60405180910390f35b3480156101ec575f5ffd5b506101f5610d16565b005b348015610202575f5ffd5b5061020b610f1e565b604051610218919061123c565b60405180910390f35b34801561022c575f5ffd5b50610235610f42565b6040516102429190611375565b60405180910390f35b348015610256575f5ffd5b5061025f6110e3565b60405161026c91906111e4565b60405180910390f35b348015610280575f5ffd5b50610289611107565b60405161029691906113c2565b60405180910390f35b7f000000000000000000000000000000000000000000000000000000000000000081565b60065f9054906101000a900460ff1615610312576040517f08c379a000000000000000000000000000000000000000000000000000000000815260040161030990611435565b60405180910390fd5b600160065f6101000a81548160ff0219169083151502179055505f54421061036f576040517f08c379a00000000000000000000000000000000000000000000000000000000081526004016103669061149d565b60405180910390fd5b6064807f000000000000000000000000000000000000000000000000000000000000000061039d91906114e8565b60018001546103ac919061151b565b6103b69190611589565b34116103f7576040517f08c379a00000000000000000000000000000000000000000000000000000000081526004016103ee90611629565b60405180910390fd5b60015f015f9054906101000a900473ffffffffffffffffffffffffffffffffffffffff1673ffffffffffffffffffffffffffffffffffffffff163373ffffffffffffffffffffffffffffffffffffffff1603610488576040517f08c379a000000000000000000000000000000000000000000000000000000000815260040161047f90611691565b60405180910390fd5b3373ffffffffffffffffffffffffffffffffffffffff167fdd0b6c6a77960e2066c96171b4d7ac9e8b4c184011f38544afa36a5bb63ec59f346040516104ce91906111e4565b60405180910390a23360015f015f6101000a81548173ffffffffffffffffffffffffffffffffffffffff021916908373ffffffffffffffffffffffffffffffffffffffff1602179055503460018001819055505f60045f3373ffffffffffffffffffffffffffffffffffffffff1673ffffffffffffffffffffffffffffffffffffffff1681526020019081526020015f206040518060400160405290815f82016040518060400160405290815f82015f9054906101000a900473ffffffffffffffffffffffffffffffffffffffff1673ffffffffffffffffffffffffffffffffffffffff1673ffffffffffffffffffffffffffffffffffffffff168152602001600182015481525050815260200160028201548152505090505f815f015160200151036106a157604051806040016040528060405180604001604052803373ffffffffffffffffffffffffffffffffffffffff1681526020013481525081526020015f81525090506005815f01515f0151908060018154018082558091505060019003905f5260205f20015f9091909190916101000a81548173ffffffffffffffffffffffffffffffffffffffff021916908373ffffffffffffffffffffffffffffffffffffffff1602179055506106cf565b805f015160200151816020018181516106ba91906114e8565b9150818152505034815f015160200181815250505b8060045f3373ffffffffffffffffffffffffffffffffffffffff1673ffffffffffffffffffffffffffffffffffffffff1681526020019081526020015f205f820151815f015f820151815f015f6101000a81548173ffffffffffffffffffffffffffffffffffffffff021916908373ffffffffffffffffffffffffffffffffffffffff160217905550602082015181600101555050602082015181600201559050507f00000000000000000000000000000000000000000000000000000000000000005f5461079e91906116af565b421115610828577f0000000000000000000000000000000000000000000000000000000000000000426107d191906114e8565b5f819055503373ffffffffffffffffffffffffffffffffffffffff167fbf5210f11796c8ce8b1d67add316e5a734c26896acce48ba93993f580af205ff5f543460405161081f9291906116e2565b60405180910390a25b505f60065f6101000a81548160ff021916908315150217905550565b7f000000000000000000000000000000000000000000000000000000000000000081565b5f5481565b7f000000000000000000000000000000000000000000000000000000000000000073ffffffffffffffffffffffffffffffffffffffff163373ffffffffffffffffffffffffffffffffffffffff16146108fb576040517f08c379a00000000000000000000000000000000000000000000000000000000081526004016108f290611779565b60405180910390fd5b60065f9054906101000a900460ff161561094a576040517f08c379a000000000000000000000000000000000000000000000000000000000815260040161094190611435565b60405180910390fd5b600160065f6101000a81548160ff0219169083151502179055505f5f90505b600580549050811015610c19575f6005828154811061098b5761098a611797565b5b905f5260205f20015f9054906101000a900473ffffffffffffffffffffffffffffffffffffffff1690505f60045f8373ffffffffffffffffffffffffffffffffffffffff1673ffffffffffffffffffffffffffffffffffffffff1681526020019081526020015f2090505f5f60647f00000000000000000000000000000000000000000000000000000000000000006064610a2691906116af565b8460020154610a35919061151b565b610a3f9190611589565b905060015f015f9054906101000a900473ffffffffffffffffffffffffffffffffffffffff1673ffffffffffffffffffffffffffffffffffffffff168473ffffffffffffffffffffffffffffffffffffffff1614610aff575f60647f00000000000000000000000000000000000000000000000000000000000000006064610ac791906116af565b855f0160010154610ad8919061151b565b610ae29190611589565b90508082610af091906114e8565b92505f845f0160010181905550505b5f83600201819055505f821115610c08575f8473ffffffffffffffffffffffffffffffffffffffff1683604051610b35906117f1565b5f6040518083038185875af1925050503d805f8114610b6f576040519150601f19603f3d011682016040523d82523d5f602084013e610b74565b606091505b5050905080610bb8576040517f08c379a0000000000000000000000000000000000000000000000000000000008152600401610baf9061184f565b60405180910390fd5b8473ffffffffffffffffffffffffffffffffffffffff167fbb28353e4598c3b9199101a66e0989549b659a59a54d2c27fbb183f1932c8e6d84604051610bfe91906111e4565b60405180910390a2505b505050508080600101915050610969565b5060015f015f9054906101000a900473ffffffffffffffffffffffffffffffffffffffff1673ffffffffffffffffffffffffffffffffffffffff167f8b1ad6c69d3d79a05f5b1ec0de825e9bf67c6c70b8c25babd159976cf9990dff6001800154604051610c8791906111e4565b60405180910390a25f60065f6101000a81548160ff021916908315150217905550565b7f000000000000000000000000000000000000000000000000000000000000000081565b7f000000000000000000000000000000000000000000000000000000000000000081565b7f000000000000000000000000000000000000000000000000000000000000000081565b5f544210610d59576040517f08c379a0000000000000000000000000000000000000000000000000000000008152600401610d509061149d565b60405180910390fd5b5f60045f3373ffffffffffffffffffffffffffffffffffffffff1673ffffffffffffffffffffffffffffffffffffffff1681526020019081526020015f206002015490505f8111610ddf576040517f08c379a0000000000000000000000000000000000000000000000000000000008152600401610dd6906118b7565b60405180910390fd5b5f60045f3373ffffffffffffffffffffffffffffffffffffffff1673ffffffffffffffffffffffffffffffffffffffff1681526020019081526020015f20600201819055505f3373ffffffffffffffffffffffffffffffffffffffff1682604051610e49906117f1565b5f6040518083038185875af1925050503d805f8114610e83576040519150601f19603f3d011682016040523d82523d5f602084013e610e88565b606091505b5050905080610ecc576040517f08c379a0000000000000000000000000000000000000000000000000000000008152600401610ec39061184f565b60405180910390fd5b3373ffffffffffffffffffffffffffffffffffffffff167fd84fcbac5440aedda6d2b5f149aa3182c87252eef5bab6f061cfe022a3e166ef83604051610f1291906111e4565b60405180910390a25050565b7f000000000000000000000000000000000000000000000000000000000000000081565b60605f60058054905090505f8167ffffffffffffffff811115610f6857610f676118d5565b5b604051908082528060200260200182016040528015610fa157816020015b610f8e61117f565b815260200190600190039081610f865790505b5090505f5f90505b828110156110da5760045f60058381548110610fc857610fc7611797565b5b905f5260205f20015f9054906101000a900473ffffffffffffffffffffffffffffffffffffffff1673ffffffffffffffffffffffffffffffffffffffff1673ffffffffffffffffffffffffffffffffffffffff1681526020019081526020015f206040518060400160405290815f82016040518060400160405290815f82015f9054906101000a900473ffffffffffffffffffffffffffffffffffffffff1673ffffffffffffffffffffffffffffffffffffffff1673ffffffffffffffffffffffffffffffffffffffff16815260200160018201548152505081526020016002820154815250508282815181106110c2576110c1611797565b5b60200260200101819052508080600101915050610fa9565b50809250505090565b5f5f5442106110f4575f9050611104565b425f5461110191906116af565b90505b90565b61110f61119e565b60016040518060400160405290815f82015f9054906101000a900473ffffffffffffffffffffffffffffffffffffffff1673ffffffffffffffffffffffffffffffffffffffff1673ffffffffffffffffffffffffffffffffffffffff168152602001600182015481525050905090565b604051806040016040528061119261119e565b81526020015f81525090565b60405180604001604052805f73ffffffffffffffffffffffffffffffffffffffff1681526020015f81525090565b5f819050919050565b6111de816111cc565b82525050565b5f6020820190506111f75f8301846111d5565b92915050565b5f73ffffffffffffffffffffffffffffffffffffffff82169050919050565b5f611226826111fd565b9050919050565b6112368161121c565b82525050565b5f60208201905061124f5f83018461122d565b92915050565b5f81519050919050565b5f82825260208201905092915050565b5f819050602082019050919050565b6112878161121c565b82525050565b611296816111cc565b82525050565b604082015f8201516112b05f85018261127e565b5060208201516112c3602085018261128d565b50505050565b606082015f8201516112dd5f85018261129c565b5060208201516112f0604085018261128d565b50505050565b5f61130183836112c9565b60608301905092915050565b5f602082019050919050565b5f61132382611255565b61132d818561125f565b93506113388361126f565b805f5b8381101561136857815161134f88826112f6565b975061135a8361130d565b92505060018101905061133b565b5085935050505092915050565b5f6020820190508181035f83015261138d8184611319565b905092915050565b604082015f8201516113a95f85018261127e565b5060208201516113bc602085018261128d565b50505050565b5f6040820190506113d55f830184611395565b92915050565b5f82825260208201905092915050565b7f5265656e7472616e6379206465746563746564000000000000000000000000005f82015250565b5f61141f6013836113db565b915061142a826113eb565b602082019050919050565b5f6020820190508181035f83015261144c81611413565b9050919050565b7f41756374696f6e206861732065787069726564000000000000000000000000005f82015250565b5f6114876013836113db565b915061149282611453565b602082019050919050565b5f6020820190508181035f8301526114b48161147b565b9050919050565b7f4e487b71000000000000000000000000000000000000000000000000000000005f52601160045260245ffd5b5f6114f2826111cc565b91506114fd836111cc565b9250828201905080821115611515576115146114bb565b5b92915050565b5f611525826111cc565b9150611530836111cc565b925082820261153e816111cc565b91508282048414831517611555576115546114bb565b5b5092915050565b7f4e487b71000000000000000000000000000000000000000000000000000000005f52601260045260245ffd5b5f611593826111cc565b915061159e836111cc565b9250826115ae576115ad61155c565b5b828204905092915050565b7f426964206d757374206265206174206c656173742035252067726561746572205f8201527f7468616e2063757272656e742068696768657374206269640000000000000000602082015250565b5f6116136038836113db565b915061161e826115b9565b604082019050919050565b5f6020820190508181035f83015261164081611607565b9050919050565b7f596f7520616c72656164792068617665207468652068696768657374206269645f82015250565b5f61167b6020836113db565b915061168682611647565b602082019050919050565b5f6020820190508181035f8301526116a88161166f565b9050919050565b5f6116b9826111cc565b91506116c4836111cc565b92508282039050818111156116dc576116db6114bb565b5b92915050565b5f6040820190506116f55f8301856111d5565b61170260208301846111d5565b9392505050565b7f4f6e6c79206f776e65722063616e20706572666f726d207468697320616374695f8201527f6f6e000000000000000000000000000000000000000000000000000000000000602082015250565b5f6117636022836113db565b915061176e82611709565b604082019050919050565b5f6020820190508181035f83015261179081611757565b9050919050565b7f4e487b71000000000000000000000000000000000000000000000000000000005f52603260045260245ffd5b5f81905092915050565b50565b5f6117dc5f836117c4565b91506117e7826117ce565b5f82019050919050565b5f6117fb826117d1565b9150819050919050565b7f526566756e64206661696c6564000000000000000000000000000000000000005f82015250565b5f611839600d836113db565b915061184482611805565b602082019050919050565b5f6020820190508181035f8301526118668161182d565b9050919050565b7f4e6f2070656e64696e6720776974686472617720666f756e64000000000000005f82015250565b5f6118a16019836113db565b91506118ac8261186d565b602082019050919050565b5f6020820190508181035f8301526118ce81611895565b9050919050565b7f4e487b71000000000000000000000000000000000000000000000000000000005f52604160045260245ffdfea2646970667358221220122b5ff1690d2ecce46a45be8e7697ec3ea3e48f744f6971c9f5815431e91af164736f6c634300081e0033",
					"opcodes": "PUSH2 0x140 PUSH1 0x40 MSTORE CALLVALUE DUP1 ISZERO PUSH2 0x10 JUMPI PUSH0 PUSH0 REVERT JUMPDEST POP CALLER PUSH20 0xFFFFFFFFFFFFFFFFFFFFFFFFFFFFFFFFFFFFFFFF AND PUSH1 0x80 DUP2 PUSH20 0xFFFFFFFFFFFFFFFFFFFFFFFFFFFFFFFFFFFFFFFF AND DUP2 MSTORE POP POP TIMESTAMP PUSH1 0xA0 DUP2 DUP2 MSTORE POP POP PUSH2 0x384 PUSH1 0xC0 DUP2 DUP2 MSTORE POP POP PUSH1 0xC0 MLOAD PUSH1 0xA0 MLOAD PUSH2 0x67 SWAP2 SWAP1 PUSH2 0xD4 JUMP JUMPDEST PUSH0 DUP2 SWAP1 SSTORE POP PUSH8 0xD2F13F7789F0000 PUSH1 0x3 DUP2 SWAP1 SSTORE POP PUSH1 0x5 PUSH1 0xE0 DUP2 DUP2 MSTORE POP POP PUSH2 0x258 PUSH2 0x100 DUP2 DUP2 MSTORE POP POP PUSH1 0x2 PUSH2 0x120 DUP2 DUP2 MSTORE POP POP PUSH2 0x107 JUMP JUMPDEST PUSH0 DUP2 SWAP1 POP SWAP2 SWAP1 POP JUMP JUMPDEST PUSH32 0x4E487B7100000000000000000000000000000000000000000000000000000000 PUSH0 MSTORE PUSH1 0x11 PUSH1 0x4 MSTORE PUSH1 0x24 PUSH0 REVERT JUMPDEST PUSH0 PUSH2 0xDE DUP3 PUSH2 0x9E JUMP JUMPDEST SWAP2 POP PUSH2 0xE9 DUP4 PUSH2 0x9E JUMP JUMPDEST SWAP3 POP DUP3 DUP3 ADD SWAP1 POP DUP1 DUP3 GT ISZERO PUSH2 0x101 JUMPI PUSH2 0x100 PUSH2 0xA7 JUMP JUMPDEST JUMPDEST SWAP3 SWAP2 POP POP JUMP JUMPDEST PUSH1 0x80 MLOAD PUSH1 0xA0 MLOAD PUSH1 0xC0 MLOAD PUSH1 0xE0 MLOAD PUSH2 0x100 MLOAD PUSH2 0x120 MLOAD PUSH2 0x1938 PUSH2 0x178 PUSH0 CODECOPY PUSH0 DUP2 DUP2 PUSH2 0x9FB ADD MSTORE DUP2 DUP2 PUSH2 0xA9C ADD MSTORE PUSH2 0xCD0 ADD MSTORE PUSH0 DUP2 DUP2 PUSH2 0x773 ADD MSTORE DUP2 DUP2 PUSH2 0x7A7 ADD MSTORE PUSH2 0x846 ADD MSTORE PUSH0 DUP2 DUP2 PUSH2 0x374 ADD MSTORE PUSH2 0xCAC ADD MSTORE PUSH0 PUSH2 0x2A1 ADD MSTORE PUSH0 PUSH2 0xCF4 ADD MSTORE PUSH0 DUP2 DUP2 PUSH2 0x86F ADD MSTORE PUSH2 0xF20 ADD MSTORE PUSH2 0x1938 PUSH0 RETURN INVALID PUSH1 0x80 PUSH1 0x40 MSTORE PUSH1 0x4 CALLDATASIZE LT PUSH2 0xC1 JUMPI PUSH0 CALLDATALOAD PUSH1 0xE0 SHR DUP1 PUSH4 0x658612E9 GT PUSH2 0x7E JUMPI DUP1 PUSH4 0x8DA5CB5B GT PUSH2 0x58 JUMPI DUP1 PUSH4 0x8DA5CB5B EQ PUSH2 0x1F7 JUMPI DUP1 PUSH4 0xB81C78EC EQ PUSH2 0x221 JUMPI DUP1 PUSH4 0xC7E284B8 EQ PUSH2 0x24B JUMPI DUP1 PUSH4 0xCEB98F6E EQ PUSH2 0x275 JUMPI PUSH2 0xC1 JUMP JUMPDEST DUP1 PUSH4 0x658612E9 EQ PUSH2 0x18D JUMPI DUP1 PUSH4 0x78E97925 EQ PUSH2 0x1B7 JUMPI DUP1 PUSH4 0x8D818527 EQ PUSH2 0x1E1 JUMPI PUSH2 0xC1 JUMP JUMPDEST DUP1 PUSH4 0xFB5A6B4 EQ PUSH2 0xC5 JUMPI DUP1 PUSH4 0x1998AEEF EQ PUSH2 0xEF JUMPI DUP1 PUSH4 0x2D5537B0 EQ PUSH2 0xF9 JUMPI DUP1 PUSH4 0x3197CBB6 EQ PUSH2 0x123 JUMPI DUP1 PUSH4 0x38E771AB EQ PUSH2 0x14D JUMPI DUP1 PUSH4 0x430EFE6F EQ PUSH2 0x163 JUMPI JUMPDEST PUSH0 PUSH0 REVERT JUMPDEST CALLVALUE DUP1 ISZERO PUSH2 0xD0 JUMPI PUSH0 PUSH0 REVERT JUMPDEST POP PUSH2 0xD9 PUSH2 0x29F JUMP JUMPDEST PUSH1 0x40 MLOAD PUSH2 0xE6 SWAP2 SWAP1 PUSH2 0x11E4 JUMP JUMPDEST PUSH1 0x40 MLOAD DUP1 SWAP2 SUB SWAP1 RETURN JUMPDEST PUSH2 0xF7 PUSH2 0x2C3 JUMP JUMPDEST STOP JUMPDEST CALLVALUE DUP1 ISZERO PUSH2 0x104 JUMPI PUSH0 PUSH0 REVERT JUMPDEST POP PUSH2 0x10D PUSH2 0x844 JUMP JUMPDEST PUSH1 0x40 MLOAD PUSH2 0x11A SWAP2 SWAP1 PUSH2 0x11E4 JUMP JUMPDEST PUSH1 0x40 MLOAD DUP1 SWAP2 SUB SWAP1 RETURN JUMPDEST CALLVALUE DUP1 ISZERO PUSH2 0x12E JUMPI PUSH0 PUSH0 REVERT JUMPDEST POP PUSH2 0x137 PUSH2 0x868 JUMP JUMPDEST PUSH1 0x40 MLOAD PUSH2 0x144 SWAP2 SWAP1 PUSH2 0x11E4 JUMP JUMPDEST PUSH1 0x40 MLOAD DUP1 SWAP2 SUB SWAP1 RETURN JUMPDEST CALLVALUE DUP1 ISZERO PUSH2 0x158 JUMPI PUSH0 PUSH0 REVERT JUMPDEST POP PUSH2 0x161 PUSH2 0x86D JUMP JUMPDEST STOP JUMPDEST CALLVALUE DUP1 ISZERO PUSH2 0x16E JUMPI PUSH0 PUSH0 REVERT JUMPDEST POP PUSH2 0x177 PUSH2 0xCAA JUMP JUMPDEST PUSH1 0x40 MLOAD PUSH2 0x184 SWAP2 SWAP1 PUSH2 0x11E4 JUMP JUMPDEST PUSH1 0x40 MLOAD DUP1 SWAP2 SUB SWAP1 RETURN JUMPDEST CALLVALUE DUP1 ISZERO PUSH2 0x198 JUMPI PUSH0 PUSH0 REVERT JUMPDEST POP PUSH2 0x1A1 PUSH2 0xCCE JUMP JUMPDEST PUSH1 0x40 MLOAD PUSH2 0x1AE SWAP2 SWAP1 PUSH2 0x11E4 JUMP JUMPDEST PUSH1 0x40 MLOAD DUP1 SWAP2 SUB SWAP1 RETURN JUMPDEST CALLVALUE DUP1 ISZERO PUSH2 0x1C2 JUMPI PUSH0 PUSH0 REVERT JUMPDEST POP PUSH2 0x1CB PUSH2 0xCF2 JUMP JUMPDEST PUSH1 0x40 MLOAD PUSH2 0x1D8 SWAP2 SWAP1 PUSH2 0x11E4 JUMP JUMPDEST PUSH1 0x40 MLOAD DUP1 SWAP2 SUB SWAP1 RETURN JUMPDEST CALLVALUE DUP1 ISZERO PUSH2 0x1EC JUMPI PUSH0 PUSH0 REVERT JUMPDEST POP PUSH2 0x1F5 PUSH2 0xD16 JUMP JUMPDEST STOP JUMPDEST CALLVALUE DUP1 ISZERO PUSH2 0x202 JUMPI PUSH0 PUSH0 REVERT JUMPDEST POP PUSH2 0x20B PUSH2 0xF1E JUMP JUMPDEST PUSH1 0x40 MLOAD PUSH2 0x218 SWAP2 SWAP1 PUSH2 0x123C JUMP JUMPDEST PUSH1 0x40 MLOAD DUP1 SWAP2 SUB SWAP1 RETURN JUMPDEST CALLVALUE DUP1 ISZERO PUSH2 0x22C JUMPI PUSH0 PUSH0 REVERT JUMPDEST POP PUSH2 0x235 PUSH2 0xF42 JUMP JUMPDEST PUSH1 0x40 MLOAD PUSH2 0x242 SWAP2 SWAP1 PUSH2 0x1375 JUMP JUMPDEST PUSH1 0x40 MLOAD DUP1 SWAP2 SUB SWAP1 RETURN JUMPDEST CALLVALUE DUP1 ISZERO PUSH2 0x256 JUMPI PUSH0 PUSH0 REVERT JUMPDEST POP PUSH2 0x25F PUSH2 0x10E3 JUMP JUMPDEST PUSH1 0x40 MLOAD PUSH2 0x26C SWAP2 SWAP1 PUSH2 0x11E4 JUMP JUMPDEST PUSH1 0x40 MLOAD DUP1 SWAP2 SUB SWAP1 RETURN JUMPDEST CALLVALUE DUP1 ISZERO PUSH2 0x280 JUMPI PUSH0 PUSH0 REVERT JUMPDEST POP PUSH2 0x289 PUSH2 0x1107 JUMP JUMPDEST PUSH1 0x40 MLOAD PUSH2 0x296 SWAP2 SWAP1 PUSH2 0x13C2 JUMP JUMPDEST PUSH1 0x40 MLOAD DUP1 SWAP2 SUB SWAP1 RETURN JUMPDEST PUSH32 0x0 DUP2 JUMP JUMPDEST PUSH1 0x6 PUSH0 SWAP1 SLOAD SWAP1 PUSH2 0x100 EXP SWAP1 DIV PUSH1 0xFF AND ISZERO PUSH2 0x312 JUMPI PUSH1 0x40 MLOAD PUSH32 0x8C379A000000000000000000000000000000000000000000000000000000000 DUP2 MSTORE PUSH1 0x4 ADD PUSH2 0x309 SWAP1 PUSH2 0x1435 JUMP JUMPDEST PUSH1 0x40 MLOAD DUP1 SWAP2 SUB SWAP1 REVERT JUMPDEST PUSH1 0x1 PUSH1 0x6 PUSH0 PUSH2 0x100 EXP DUP2 SLOAD DUP2 PUSH1 0xFF MUL NOT AND SWAP1 DUP4 ISZERO ISZERO MUL OR SWAP1 SSTORE POP PUSH0 SLOAD TIMESTAMP LT PUSH2 0x36F JUMPI PUSH1 0x40 MLOAD PUSH32 0x8C379A000000000000000000000000000000000000000000000000000000000 DUP2 MSTORE PUSH1 0x4 ADD PUSH2 0x366 SWAP1 PUSH2 0x149D JUMP JUMPDEST PUSH1 0x40 MLOAD DUP1 SWAP2 SUB SWAP1 REVERT JUMPDEST PUSH1 0x64 DUP1 PUSH32 0x0 PUSH2 0x39D SWAP2 SWAP1 PUSH2 0x14E8 JUMP JUMPDEST PUSH1 0x1 DUP1 ADD SLOAD PUSH2 0x3AC SWAP2 SWAP1 PUSH2 0x151B JUMP JUMPDEST PUSH2 0x3B6 SWAP2 SWAP1 PUSH2 0x1589 JUMP JUMPDEST CALLVALUE GT PUSH2 0x3F7 JUMPI PUSH1 0x40 MLOAD PUSH32 0x8C379A000000000000000000000000000000000000000000000000000000000 DUP2 MSTORE PUSH1 0x4 ADD PUSH2 0x3EE SWAP1 PUSH2 0x1629 JUMP JUMPDEST PUSH1 0x40 MLOAD DUP1 SWAP2 SUB SWAP1 REVERT JUMPDEST PUSH1 0x1 PUSH0 ADD PUSH0 SWAP1 SLOAD SWAP1 PUSH2 0x100 EXP SWAP1 DIV PUSH20 0xFFFFFFFFFFFFFFFFFFFFFFFFFFFFFFFFFFFFFFFF AND PUSH20 0xFFFFFFFFFFFFFFFFFFFFFFFFFFFFFFFFFFFFFFFF AND CALLER PUSH20 0xFFFFFFFFFFFFFFFFFFFFFFFFFFFFFFFFFFFFFFFF AND SUB PUSH2 0x488 JUMPI PUSH1 0x40 MLOAD PUSH32 0x8C379A000000000000000000000000000000000000000000000000000000000 DUP2 MSTORE PUSH1 0x4 ADD PUSH2 0x47F SWAP1 PUSH2 0x1691 JUMP JUMPDEST PUSH1 0x40 MLOAD DUP1 SWAP2 SUB SWAP1 REVERT JUMPDEST CALLER PUSH20 0xFFFFFFFFFFFFFFFFFFFFFFFFFFFFFFFFFFFFFFFF AND PUSH32 0xDD0B6C6A77960E2066C96171B4D7AC9E8B4C184011F38544AFA36A5BB63EC59F CALLVALUE PUSH1 0x40 MLOAD PUSH2 0x4CE SWAP2 SWAP1 PUSH2 0x11E4 JUMP JUMPDEST PUSH1 0x40 MLOAD DUP1 SWAP2 SUB SWAP1 LOG2 CALLER PUSH1 0x1 PUSH0 ADD PUSH0 PUSH2 0x100 EXP DUP2 SLOAD DUP2 PUSH20 0xFFFFFFFFFFFFFFFFFFFFFFFFFFFFFFFFFFFFFFFF MUL NOT AND SWAP1 DUP4 PUSH20 0xFFFFFFFFFFFFFFFFFFFFFFFFFFFFFFFFFFFFFFFF AND MUL OR SWAP1 SSTORE POP CALLVALUE PUSH1 0x1 DUP1 ADD DUP2 SWAP1 SSTORE POP PUSH0 PUSH1 0x4 PUSH0 CALLER PUSH20 0xFFFFFFFFFFFFFFFFFFFFFFFFFFFFFFFFFFFFFFFF AND PUSH20 0xFFFFFFFFFFFFFFFFFFFFFFFFFFFFFFFFFFFFFFFF AND DUP2 MSTORE PUSH1 0x20 ADD SWAP1 DUP2 MSTORE PUSH1 0x20 ADD PUSH0 KECCAK256 PUSH1 0x40 MLOAD DUP1 PUSH1 0x40 ADD PUSH1 0x40 MSTORE SWAP1 DUP2 PUSH0 DUP3 ADD PUSH1 0x40 MLOAD DUP1 PUSH1 0x40 ADD PUSH1 0x40 MSTORE SWAP1 DUP2 PUSH0 DUP3 ADD PUSH0 SWAP1 SLOAD SWAP1 PUSH2 0x100 EXP SWAP1 DIV PUSH20 0xFFFFFFFFFFFFFFFFFFFFFFFFFFFFFFFFFFFFFFFF AND PUSH20 0xFFFFFFFFFFFFFFFFFFFFFFFFFFFFFFFFFFFFFFFF AND PUSH20 0xFFFFFFFFFFFFFFFFFFFFFFFFFFFFFFFFFFFFFFFF AND DUP2 MSTORE PUSH1 0x20 ADD PUSH1 0x1 DUP3 ADD SLOAD DUP2 MSTORE POP POP DUP2 MSTORE PUSH1 0x20 ADD PUSH1 0x2 DUP3 ADD SLOAD DUP2 MSTORE POP POP SWAP1 POP PUSH0 DUP2 PUSH0 ADD MLOAD PUSH1 0x20 ADD MLOAD SUB PUSH2 0x6A1 JUMPI PUSH1 0x40 MLOAD DUP1 PUSH1 0x40 ADD PUSH1 0x40 MSTORE DUP1 PUSH1 0x40 MLOAD DUP1 PUSH1 0x40 ADD PUSH1 0x40 MSTORE DUP1 CALLER PUSH20 0xFFFFFFFFFFFFFFFFFFFFFFFFFFFFFFFFFFFFFFFF AND DUP2 MSTORE PUSH1 0x20 ADD CALLVALUE DUP2 MSTORE POP DUP2 MSTORE PUSH1 0x20 ADD PUSH0 DUP2 MSTORE POP SWAP1 POP PUSH1 0x5 DUP2 PUSH0 ADD MLOAD PUSH0 ADD MLOAD SWAP1 DUP1 PUSH1 0x1 DUP2 SLOAD ADD DUP1 DUP3 SSTORE DUP1 SWAP2 POP POP PUSH1 0x1 SWAP1 SUB SWAP1 PUSH0 MSTORE PUSH1 0x20 PUSH0 KECCAK256 ADD PUSH0 SWAP1 SWAP2 SWAP1 SWAP2 SWAP1 SWAP2 PUSH2 0x100 EXP DUP2 SLOAD DUP2 PUSH20 0xFFFFFFFFFFFFFFFFFFFFFFFFFFFFFFFFFFFFFFFF MUL NOT AND SWAP1 DUP4 PUSH20 0xFFFFFFFFFFFFFFFFFFFFFFFFFFFFFFFFFFFFFFFF AND MUL OR SWAP1 SSTORE POP PUSH2 0x6CF JUMP JUMPDEST DUP1 PUSH0 ADD MLOAD PUSH1 0x20 ADD MLOAD DUP2 PUSH1 0x20 ADD DUP2 DUP2 MLOAD PUSH2 0x6BA SWAP2 SWAP1 PUSH2 0x14E8 JUMP JUMPDEST SWAP2 POP DUP2 DUP2 MSTORE POP POP CALLVALUE DUP2 PUSH0 ADD MLOAD PUSH1 0x20 ADD DUP2 DUP2 MSTORE POP POP JUMPDEST DUP1 PUSH1 0x4 PUSH0 CALLER PUSH20 0xFFFFFFFFFFFFFFFFFFFFFFFFFFFFFFFFFFFFFFFF AND PUSH20 0xFFFFFFFFFFFFFFFFFFFFFFFFFFFFFFFFFFFFFFFF AND DUP2 MSTORE PUSH1 0x20 ADD SWAP1 DUP2 MSTORE PUSH1 0x20 ADD PUSH0 KECCAK256 PUSH0 DUP3 ADD MLOAD DUP2 PUSH0 ADD PUSH0 DUP3 ADD MLOAD DUP2 PUSH0 ADD PUSH0 PUSH2 0x100 EXP DUP2 SLOAD DUP2 PUSH20 0xFFFFFFFFFFFFFFFFFFFFFFFFFFFFFFFFFFFFFFFF MUL NOT AND SWAP1 DUP4 PUSH20 0xFFFFFFFFFFFFFFFFFFFFFFFFFFFFFFFFFFFFFFFF AND MUL OR SWAP1 SSTORE POP PUSH1 0x20 DUP3 ADD MLOAD DUP2 PUSH1 0x1 ADD SSTORE POP POP PUSH1 0x20 DUP3 ADD MLOAD DUP2 PUSH1 0x2 ADD SSTORE SWAP1 POP POP PUSH32 0x0 PUSH0 SLOAD PUSH2 0x79E SWAP2 SWAP1 PUSH2 0x16AF JUMP JUMPDEST TIMESTAMP GT ISZERO PUSH2 0x828 JUMPI PUSH32 0x0 TIMESTAMP PUSH2 0x7D1 SWAP2 SWAP1 PUSH2 0x14E8 JUMP JUMPDEST PUSH0 DUP2 SWAP1 SSTORE POP CALLER PUSH20 0xFFFFFFFFFFFFFFFFFFFFFFFFFFFFFFFFFFFFFFFF AND PUSH32 0xBF5210F11796C8CE8B1D67ADD316E5A734C26896ACCE48BA93993F580AF205FF PUSH0 SLOAD CALLVALUE PUSH1 0x40 MLOAD PUSH2 0x81F SWAP3 SWAP2 SWAP1 PUSH2 0x16E2 JUMP JUMPDEST PUSH1 0x40 MLOAD DUP1 SWAP2 SUB SWAP1 LOG2 JUMPDEST POP PUSH0 PUSH1 0x6 PUSH0 PUSH2 0x100 EXP DUP2 SLOAD DUP2 PUSH1 0xFF MUL NOT AND SWAP1 DUP4 ISZERO ISZERO MUL OR SWAP1 SSTORE POP JUMP JUMPDEST PUSH32 0x0 DUP2 JUMP JUMPDEST PUSH0 SLOAD DUP2 JUMP JUMPDEST PUSH32 0x0 PUSH20 0xFFFFFFFFFFFFFFFFFFFFFFFFFFFFFFFFFFFFFFFF AND CALLER PUSH20 0xFFFFFFFFFFFFFFFFFFFFFFFFFFFFFFFFFFFFFFFF AND EQ PUSH2 0x8FB JUMPI PUSH1 0x40 MLOAD PUSH32 0x8C379A000000000000000000000000000000000000000000000000000000000 DUP2 MSTORE PUSH1 0x4 ADD PUSH2 0x8F2 SWAP1 PUSH2 0x1779 JUMP JUMPDEST PUSH1 0x40 MLOAD DUP1 SWAP2 SUB SWAP1 REVERT JUMPDEST PUSH1 0x6 PUSH0 SWAP1 SLOAD SWAP1 PUSH2 0x100 EXP SWAP1 DIV PUSH1 0xFF AND ISZERO PUSH2 0x94A JUMPI PUSH1 0x40 MLOAD PUSH32 0x8C379A000000000000000000000000000000000000000000000000000000000 DUP2 MSTORE PUSH1 0x4 ADD PUSH2 0x941 SWAP1 PUSH2 0x1435 JUMP JUMPDEST PUSH1 0x40 MLOAD DUP1 SWAP2 SUB SWAP1 REVERT JUMPDEST PUSH1 0x1 PUSH1 0x6 PUSH0 PUSH2 0x100 EXP DUP2 SLOAD DUP2 PUSH1 0xFF MUL NOT AND SWAP1 DUP4 ISZERO ISZERO MUL OR SWAP1 SSTORE POP PUSH0 PUSH0 SWAP1 POP JUMPDEST PUSH1 0x5 DUP1 SLOAD SWAP1 POP DUP2 LT ISZERO PUSH2 0xC19 JUMPI PUSH0 PUSH1 0x5 DUP3 DUP2 SLOAD DUP2 LT PUSH2 0x98B JUMPI PUSH2 0x98A PUSH2 0x1797 JUMP JUMPDEST JUMPDEST SWAP1 PUSH0 MSTORE PUSH1 0x20 PUSH0 KECCAK256 ADD PUSH0 SWAP1 SLOAD SWAP1 PUSH2 0x100 EXP SWAP1 DIV PUSH20 0xFFFFFFFFFFFFFFFFFFFFFFFFFFFFFFFFFFFFFFFF AND SWAP1 POP PUSH0 PUSH1 0x4 PUSH0 DUP4 PUSH20 0xFFFFFFFFFFFFFFFFFFFFFFFFFFFFFFFFFFFFFFFF AND PUSH20 0xFFFFFFFFFFFFFFFFFFFFFFFFFFFFFFFFFFFFFFFF AND DUP2 MSTORE PUSH1 0x20 ADD SWAP1 DUP2 MSTORE PUSH1 0x20 ADD PUSH0 KECCAK256 SWAP1 POP PUSH0 PUSH0 PUSH1 0x64 PUSH32 0x0 PUSH1 0x64 PUSH2 0xA26 SWAP2 SWAP1 PUSH2 0x16AF JUMP JUMPDEST DUP5 PUSH1 0x2 ADD SLOAD PUSH2 0xA35 SWAP2 SWAP1 PUSH2 0x151B JUMP JUMPDEST PUSH2 0xA3F SWAP2 SWAP1 PUSH2 0x1589 JUMP JUMPDEST SWAP1 POP PUSH1 0x1 PUSH0 ADD PUSH0 SWAP1 SLOAD SWAP1 PUSH2 0x100 EXP SWAP1 DIV PUSH20 0xFFFFFFFFFFFFFFFFFFFFFFFFFFFFFFFFFFFFFFFF AND PUSH20 0xFFFFFFFFFFFFFFFFFFFFFFFFFFFFFFFFFFFFFFFF AND DUP5 PUSH20 0xFFFFFFFFFFFFFFFFFFFFFFFFFFFFFFFFFFFFFFFF AND EQ PUSH2 0xAFF JUMPI PUSH0 PUSH1 0x64 PUSH32 0x0 PUSH1 0x64 PUSH2 0xAC7 SWAP2 SWAP1 PUSH2 0x16AF JUMP JUMPDEST DUP6 PUSH0 ADD PUSH1 0x1 ADD SLOAD PUSH2 0xAD8 SWAP2 SWAP1 PUSH2 0x151B JUMP JUMPDEST PUSH2 0xAE2 SWAP2 SWAP1 PUSH2 0x1589 JUMP JUMPDEST SWAP1 POP DUP1 DUP3 PUSH2 0xAF0 SWAP2 SWAP1 PUSH2 0x14E8 JUMP JUMPDEST SWAP3 POP PUSH0 DUP5 PUSH0 ADD PUSH1 0x1 ADD DUP2 SWAP1 SSTORE POP POP JUMPDEST PUSH0 DUP4 PUSH1 0x2 ADD DUP2 SWAP1 SSTORE POP PUSH0 DUP3 GT ISZERO PUSH2 0xC08 JUMPI PUSH0 DUP5 PUSH20 0xFFFFFFFFFFFFFFFFFFFFFFFFFFFFFFFFFFFFFFFF AND DUP4 PUSH1 0x40 MLOAD PUSH2 0xB35 SWAP1 PUSH2 0x17F1 JUMP JUMPDEST PUSH0 PUSH1 0x40 MLOAD DUP1 DUP4 SUB DUP2 DUP6 DUP8 GAS CALL SWAP3 POP POP POP RETURNDATASIZE DUP1 PUSH0 DUP2 EQ PUSH2 0xB6F JUMPI PUSH1 0x40 MLOAD SWAP2 POP PUSH1 0x1F NOT PUSH1 0x3F RETURNDATASIZE ADD AND DUP3 ADD PUSH1 0x40 MSTORE RETURNDATASIZE DUP3 MSTORE RETURNDATASIZE PUSH0 PUSH1 0x20 DUP5 ADD RETURNDATACOPY PUSH2 0xB74 JUMP JUMPDEST PUSH1 0x60 SWAP2 POP JUMPDEST POP POP SWAP1 POP DUP1 PUSH2 0xBB8 JUMPI PUSH1 0x40 MLOAD PUSH32 0x8C379A000000000000000000000000000000000000000000000000000000000 DUP2 MSTORE PUSH1 0x4 ADD PUSH2 0xBAF SWAP1 PUSH2 0x184F JUMP JUMPDEST PUSH1 0x40 MLOAD DUP1 SWAP2 SUB SWAP1 REVERT JUMPDEST DUP5 PUSH20 0xFFFFFFFFFFFFFFFFFFFFFFFFFFFFFFFFFFFFFFFF AND PUSH32 0xBB28353E4598C3B9199101A66E0989549B659A59A54D2C27FBB183F1932C8E6D DUP5 PUSH1 0x40 MLOAD PUSH2 0xBFE SWAP2 SWAP1 PUSH2 0x11E4 JUMP JUMPDEST PUSH1 0x40 MLOAD DUP1 SWAP2 SUB SWAP1 LOG2 POP JUMPDEST POP POP POP POP DUP1 DUP1 PUSH1 0x1 ADD SWAP2 POP POP PUSH2 0x969 JUMP JUMPDEST POP PUSH1 0x1 PUSH0 ADD PUSH0 SWAP1 SLOAD SWAP1 PUSH2 0x100 EXP SWAP1 DIV PUSH20 0xFFFFFFFFFFFFFFFFFFFFFFFFFFFFFFFFFFFFFFFF AND PUSH20 0xFFFFFFFFFFFFFFFFFFFFFFFFFFFFFFFFFFFFFFFF AND PUSH32 0x8B1AD6C69D3D79A05F5B1EC0DE825E9BF67C6C70B8C25BABD159976CF9990DFF PUSH1 0x1 DUP1 ADD SLOAD PUSH1 0x40 MLOAD PUSH2 0xC87 SWAP2 SWAP1 PUSH2 0x11E4 JUMP JUMPDEST PUSH1 0x40 MLOAD DUP1 SWAP2 SUB SWAP1 LOG2 PUSH0 PUSH1 0x6 PUSH0 PUSH2 0x100 EXP DUP2 SLOAD DUP2 PUSH1 0xFF MUL NOT AND SWAP1 DUP4 ISZERO ISZERO MUL OR SWAP1 SSTORE POP JUMP JUMPDEST PUSH32 0x0 DUP2 JUMP JUMPDEST PUSH32 0x0 DUP2 JUMP JUMPDEST PUSH32 0x0 DUP2 JUMP JUMPDEST PUSH0 SLOAD TIMESTAMP LT PUSH2 0xD59 JUMPI PUSH1 0x40 MLOAD PUSH32 0x8C379A000000000000000000000000000000000000000000000000000000000 DUP2 MSTORE PUSH1 0x4 ADD PUSH2 0xD50 SWAP1 PUSH2 0x149D JUMP JUMPDEST PUSH1 0x40 MLOAD DUP1 SWAP2 SUB SWAP1 REVERT JUMPDEST PUSH0 PUSH1 0x4 PUSH0 CALLER PUSH20 0xFFFFFFFFFFFFFFFFFFFFFFFFFFFFFFFFFFFFFFFF AND PUSH20 0xFFFFFFFFFFFFFFFFFFFFFFFFFFFFFFFFFFFFFFFF AND DUP2 MSTORE PUSH1 0x20 ADD SWAP1 DUP2 MSTORE PUSH1 0x20 ADD PUSH0 KECCAK256 PUSH1 0x2 ADD SLOAD SWAP1 POP PUSH0 DUP2 GT PUSH2 0xDDF JUMPI PUSH1 0x40 MLOAD PUSH32 0x8C379A000000000000000000000000000000000000000000000000000000000 DUP2 MSTORE PUSH1 0x4 ADD PUSH2 0xDD6 SWAP1 PUSH2 0x18B7 JUMP JUMPDEST PUSH1 0x40 MLOAD DUP1 SWAP2 SUB SWAP1 REVERT JUMPDEST PUSH0 PUSH1 0x4 PUSH0 CALLER PUSH20 0xFFFFFFFFFFFFFFFFFFFFFFFFFFFFFFFFFFFFFFFF AND PUSH20 0xFFFFFFFFFFFFFFFFFFFFFFFFFFFFFFFFFFFFFFFF AND DUP2 MSTORE PUSH1 0x20 ADD SWAP1 DUP2 MSTORE PUSH1 0x20 ADD PUSH0 KECCAK256 PUSH1 0x2 ADD DUP2 SWAP1 SSTORE POP PUSH0 CALLER PUSH20 0xFFFFFFFFFFFFFFFFFFFFFFFFFFFFFFFFFFFFFFFF AND DUP3 PUSH1 0x40 MLOAD PUSH2 0xE49 SWAP1 PUSH2 0x17F1 JUMP JUMPDEST PUSH0 PUSH1 0x40 MLOAD DUP1 DUP4 SUB DUP2 DUP6 DUP8 GAS CALL SWAP3 POP POP POP RETURNDATASIZE DUP1 PUSH0 DUP2 EQ PUSH2 0xE83 JUMPI PUSH1 0x40 MLOAD SWAP2 POP PUSH1 0x1F NOT PUSH1 0x3F RETURNDATASIZE ADD AND DUP3 ADD PUSH1 0x40 MSTORE RETURNDATASIZE DUP3 MSTORE RETURNDATASIZE PUSH0 PUSH1 0x20 DUP5 ADD RETURNDATACOPY PUSH2 0xE88 JUMP JUMPDEST PUSH1 0x60 SWAP2 POP JUMPDEST POP POP SWAP1 POP DUP1 PUSH2 0xECC JUMPI PUSH1 0x40 MLOAD PUSH32 0x8C379A000000000000000000000000000000000000000000000000000000000 DUP2 MSTORE PUSH1 0x4 ADD PUSH2 0xEC3 SWAP1 PUSH2 0x184F JUMP JUMPDEST PUSH1 0x40 MLOAD DUP1 SWAP2 SUB SWAP1 REVERT JUMPDEST CALLER PUSH20 0xFFFFFFFFFFFFFFFFFFFFFFFFFFFFFFFFFFFFFFFF AND PUSH32 0xD84FCBAC5440AEDDA6D2B5F149AA3182C87252EEF5BAB6F061CFE022A3E166EF DUP4 PUSH1 0x40 MLOAD PUSH2 0xF12 SWAP2 SWAP1 PUSH2 0x11E4 JUMP JUMPDEST PUSH1 0x40 MLOAD DUP1 SWAP2 SUB SWAP1 LOG2 POP POP JUMP JUMPDEST PUSH32 0x0 DUP2 JUMP JUMPDEST PUSH1 0x60 PUSH0 PUSH1 0x5 DUP1 SLOAD SWAP1 POP SWAP1 POP PUSH0 DUP2 PUSH8 0xFFFFFFFFFFFFFFFF DUP2 GT ISZERO PUSH2 0xF68 JUMPI PUSH2 0xF67 PUSH2 0x18D5 JUMP JUMPDEST JUMPDEST PUSH1 0x40 MLOAD SWAP1 DUP1 DUP3 MSTORE DUP1 PUSH1 0x20 MUL PUSH1 0x20 ADD DUP3 ADD PUSH1 0x40 MSTORE DUP1 ISZERO PUSH2 0xFA1 JUMPI DUP2 PUSH1 0x20 ADD JUMPDEST PUSH2 0xF8E PUSH2 0x117F JUMP JUMPDEST DUP2 MSTORE PUSH1 0x20 ADD SWAP1 PUSH1 0x1 SWAP1 SUB SWAP1 DUP2 PUSH2 0xF86 JUMPI SWAP1 POP JUMPDEST POP SWAP1 POP PUSH0 PUSH0 SWAP1 POP JUMPDEST DUP3 DUP2 LT ISZERO PUSH2 0x10DA JUMPI PUSH1 0x4 PUSH0 PUSH1 0x5 DUP4 DUP2 SLOAD DUP2 LT PUSH2 0xFC8 JUMPI PUSH2 0xFC7 PUSH2 0x1797 JUMP JUMPDEST JUMPDEST SWAP1 PUSH0 MSTORE PUSH1 0x20 PUSH0 KECCAK256 ADD PUSH0 SWAP1 SLOAD SWAP1 PUSH2 0x100 EXP SWAP1 DIV PUSH20 0xFFFFFFFFFFFFFFFFFFFFFFFFFFFFFFFFFFFFFFFF AND PUSH20 0xFFFFFFFFFFFFFFFFFFFFFFFFFFFFFFFFFFFFFFFF AND PUSH20 0xFFFFFFFFFFFFFFFFFFFFFFFFFFFFFFFFFFFFFFFF AND DUP2 MSTORE PUSH1 0x20 ADD SWAP1 DUP2 MSTORE PUSH1 0x20 ADD PUSH0 KECCAK256 PUSH1 0x40 MLOAD DUP1 PUSH1 0x40 ADD PUSH1 0x40 MSTORE SWAP1 DUP2 PUSH0 DUP3 ADD PUSH1 0x40 MLOAD DUP1 PUSH1 0x40 ADD PUSH1 0x40 MSTORE SWAP1 DUP2 PUSH0 DUP3 ADD PUSH0 SWAP1 SLOAD SWAP1 PUSH2 0x100 EXP SWAP1 DIV PUSH20 0xFFFFFFFFFFFFFFFFFFFFFFFFFFFFFFFFFFFFFFFF AND PUSH20 0xFFFFFFFFFFFFFFFFFFFFFFFFFFFFFFFFFFFFFFFF AND PUSH20 0xFFFFFFFFFFFFFFFFFFFFFFFFFFFFFFFFFFFFFFFF AND DUP2 MSTORE PUSH1 0x20 ADD PUSH1 0x1 DUP3 ADD SLOAD DUP2 MSTORE POP POP DUP2 MSTORE PUSH1 0x20 ADD PUSH1 0x2 DUP3 ADD SLOAD DUP2 MSTORE POP POP DUP3 DUP3 DUP2 MLOAD DUP2 LT PUSH2 0x10C2 JUMPI PUSH2 0x10C1 PUSH2 0x1797 JUMP JUMPDEST JUMPDEST PUSH1 0x20 MUL PUSH1 0x20 ADD ADD DUP2 SWAP1 MSTORE POP DUP1 DUP1 PUSH1 0x1 ADD SWAP2 POP POP PUSH2 0xFA9 JUMP JUMPDEST POP DUP1 SWAP3 POP POP POP SWAP1 JUMP JUMPDEST PUSH0 PUSH0 SLOAD TIMESTAMP LT PUSH2 0x10F4 JUMPI PUSH0 SWAP1 POP PUSH2 0x1104 JUMP JUMPDEST TIMESTAMP PUSH0 SLOAD PUSH2 0x1101 SWAP2 SWAP1 PUSH2 0x16AF JUMP JUMPDEST SWAP1 POP JUMPDEST SWAP1 JUMP JUMPDEST PUSH2 0x110F PUSH2 0x119E JUMP JUMPDEST PUSH1 0x1 PUSH1 0x40 MLOAD DUP1 PUSH1 0x40 ADD PUSH1 0x40 MSTORE SWAP1 DUP2 PUSH0 DUP3 ADD PUSH0 SWAP1 SLOAD SWAP1 PUSH2 0x100 EXP SWAP1 DIV PUSH20 0xFFFFFFFFFFFFFFFFFFFFFFFFFFFFFFFFFFFFFFFF AND PUSH20 0xFFFFFFFFFFFFFFFFFFFFFFFFFFFFFFFFFFFFFFFF AND PUSH20 0xFFFFFFFFFFFFFFFFFFFFFFFFFFFFFFFFFFFFFFFF AND DUP2 MSTORE PUSH1 0x20 ADD PUSH1 0x1 DUP3 ADD SLOAD DUP2 MSTORE POP POP SWAP1 POP SWAP1 JUMP JUMPDEST PUSH1 0x40 MLOAD DUP1 PUSH1 0x40 ADD PUSH1 0x40 MSTORE DUP1 PUSH2 0x1192 PUSH2 0x119E JUMP JUMPDEST DUP2 MSTORE PUSH1 0x20 ADD PUSH0 DUP2 MSTORE POP SWAP1 JUMP JUMPDEST PUSH1 0x40 MLOAD DUP1 PUSH1 0x40 ADD PUSH1 0x40 MSTORE DUP1 PUSH0 PUSH20 0xFFFFFFFFFFFFFFFFFFFFFFFFFFFFFFFFFFFFFFFF AND DUP2 MSTORE PUSH1 0x20 ADD PUSH0 DUP2 MSTORE POP SWAP1 JUMP JUMPDEST PUSH0 DUP2 SWAP1 POP SWAP2 SWAP1 POP JUMP JUMPDEST PUSH2 0x11DE DUP2 PUSH2 0x11CC JUMP JUMPDEST DUP3 MSTORE POP POP JUMP JUMPDEST PUSH0 PUSH1 0x20 DUP3 ADD SWAP1 POP PUSH2 0x11F7 PUSH0 DUP4 ADD DUP5 PUSH2 0x11D5 JUMP JUMPDEST SWAP3 SWAP2 POP POP JUMP JUMPDEST PUSH0 PUSH20 0xFFFFFFFFFFFFFFFFFFFFFFFFFFFFFFFFFFFFFFFF DUP3 AND SWAP1 POP SWAP2 SWAP1 POP JUMP JUMPDEST PUSH0 PUSH2 0x1226 DUP3 PUSH2 0x11FD JUMP JUMPDEST SWAP1 POP SWAP2 SWAP1 POP JUMP JUMPDEST PUSH2 0x1236 DUP2 PUSH2 0x121C JUMP JUMPDEST DUP3 MSTORE POP POP JUMP JUMPDEST PUSH0 PUSH1 0x20 DUP3 ADD SWAP1 POP PUSH2 0x124F PUSH0 DUP4 ADD DUP5 PUSH2 0x122D JUMP JUMPDEST SWAP3 SWAP2 POP POP JUMP JUMPDEST PUSH0 DUP2 MLOAD SWAP1 POP SWAP2 SWAP1 POP JUMP JUMPDEST PUSH0 DUP3 DUP3 MSTORE PUSH1 0x20 DUP3 ADD SWAP1 POP SWAP3 SWAP2 POP POP JUMP JUMPDEST PUSH0 DUP2 SWAP1 POP PUSH1 0x20 DUP3 ADD SWAP1 POP SWAP2 SWAP1 POP JUMP JUMPDEST PUSH2 0x1287 DUP2 PUSH2 0x121C JUMP JUMPDEST DUP3 MSTORE POP POP JUMP JUMPDEST PUSH2 0x1296 DUP2 PUSH2 0x11CC JUMP JUMPDEST DUP3 MSTORE POP POP JUMP JUMPDEST PUSH1 0x40 DUP3 ADD PUSH0 DUP3 ADD MLOAD PUSH2 0x12B0 PUSH0 DUP6 ADD DUP3 PUSH2 0x127E JUMP JUMPDEST POP PUSH1 0x20 DUP3 ADD MLOAD PUSH2 0x12C3 PUSH1 0x20 DUP6 ADD DUP3 PUSH2 0x128D JUMP JUMPDEST POP POP POP POP JUMP JUMPDEST PUSH1 0x60 DUP3 ADD PUSH0 DUP3 ADD MLOAD PUSH2 0x12DD PUSH0 DUP6 ADD DUP3 PUSH2 0x129C JUMP JUMPDEST POP PUSH1 0x20 DUP3 ADD MLOAD PUSH2 0x12F0 PUSH1 0x40 DUP6 ADD DUP3 PUSH2 0x128D JUMP JUMPDEST POP POP POP POP JUMP JUMPDEST PUSH0 PUSH2 0x1301 DUP4 DUP4 PUSH2 0x12C9 JUMP JUMPDEST PUSH1 0x60 DUP4 ADD SWAP1 POP SWAP3 SWAP2 POP POP JUMP JUMPDEST PUSH0 PUSH1 0x20 DUP3 ADD SWAP1 POP SWAP2 SWAP1 POP JUMP JUMPDEST PUSH0 PUSH2 0x1323 DUP3 PUSH2 0x1255 JUMP JUMPDEST PUSH2 0x132D DUP2 DUP6 PUSH2 0x125F JUMP JUMPDEST SWAP4 POP PUSH2 0x1338 DUP4 PUSH2 0x126F JUMP JUMPDEST DUP1 PUSH0 JUMPDEST DUP4 DUP2 LT ISZERO PUSH2 0x1368 JUMPI DUP2 MLOAD PUSH2 0x134F DUP9 DUP3 PUSH2 0x12F6 JUMP JUMPDEST SWAP8 POP PUSH2 0x135A DUP4 PUSH2 0x130D JUMP JUMPDEST SWAP3 POP POP PUSH1 0x1 DUP2 ADD SWAP1 POP PUSH2 0x133B JUMP JUMPDEST POP DUP6 SWAP4 POP POP POP POP SWAP3 SWAP2 POP POP JUMP JUMPDEST PUSH0 PUSH1 0x20 DUP3 ADD SWAP1 POP DUP2 DUP2 SUB PUSH0 DUP4 ADD MSTORE PUSH2 0x138D DUP2 DUP5 PUSH2 0x1319 JUMP JUMPDEST SWAP1 POP SWAP3 SWAP2 POP POP JUMP JUMPDEST PUSH1 0x40 DUP3 ADD PUSH0 DUP3 ADD MLOAD PUSH2 0x13A9 PUSH0 DUP6 ADD DUP3 PUSH2 0x127E JUMP JUMPDEST POP PUSH1 0x20 DUP3 ADD MLOAD PUSH2 0x13BC PUSH1 0x20 DUP6 ADD DUP3 PUSH2 0x128D JUMP JUMPDEST POP POP POP POP JUMP JUMPDEST PUSH0 PUSH1 0x40 DUP3 ADD SWAP1 POP PUSH2 0x13D5 PUSH0 DUP4 ADD DUP5 PUSH2 0x1395 JUMP JUMPDEST SWAP3 SWAP2 POP POP JUMP JUMPDEST PUSH0 DUP3 DUP3 MSTORE PUSH1 0x20 DUP3 ADD SWAP1 POP SWAP3 SWAP2 POP POP JUMP JUMPDEST PUSH32 0x5265656E7472616E637920646574656374656400000000000000000000000000 PUSH0 DUP3 ADD MSTORE POP JUMP JUMPDEST PUSH0 PUSH2 0x141F PUSH1 0x13 DUP4 PUSH2 0x13DB JUMP JUMPDEST SWAP2 POP PUSH2 0x142A DUP3 PUSH2 0x13EB JUMP JUMPDEST PUSH1 0x20 DUP3 ADD SWAP1 POP SWAP2 SWAP1 POP JUMP JUMPDEST PUSH0 PUSH1 0x20 DUP3 ADD SWAP1 POP DUP2 DUP2 SUB PUSH0 DUP4 ADD MSTORE PUSH2 0x144C DUP2 PUSH2 0x1413 JUMP JUMPDEST SWAP1 POP SWAP2 SWAP1 POP JUMP JUMPDEST PUSH32 0x41756374696F6E20686173206578706972656400000000000000000000000000 PUSH0 DUP3 ADD MSTORE POP JUMP JUMPDEST PUSH0 PUSH2 0x1487 PUSH1 0x13 DUP4 PUSH2 0x13DB JUMP JUMPDEST SWAP2 POP PUSH2 0x1492 DUP3 PUSH2 0x1453 JUMP JUMPDEST PUSH1 0x20 DUP3 ADD SWAP1 POP SWAP2 SWAP1 POP JUMP JUMPDEST PUSH0 PUSH1 0x20 DUP3 ADD SWAP1 POP DUP2 DUP2 SUB PUSH0 DUP4 ADD MSTORE PUSH2 0x14B4 DUP2 PUSH2 0x147B JUMP JUMPDEST SWAP1 POP SWAP2 SWAP1 POP JUMP JUMPDEST PUSH32 0x4E487B7100000000000000000000000000000000000000000000000000000000 PUSH0 MSTORE PUSH1 0x11 PUSH1 0x4 MSTORE PUSH1 0x24 PUSH0 REVERT JUMPDEST PUSH0 PUSH2 0x14F2 DUP3 PUSH2 0x11CC JUMP JUMPDEST SWAP2 POP PUSH2 0x14FD DUP4 PUSH2 0x11CC JUMP JUMPDEST SWAP3 POP DUP3 DUP3 ADD SWAP1 POP DUP1 DUP3 GT ISZERO PUSH2 0x1515 JUMPI PUSH2 0x1514 PUSH2 0x14BB JUMP JUMPDEST JUMPDEST SWAP3 SWAP2 POP POP JUMP JUMPDEST PUSH0 PUSH2 0x1525 DUP3 PUSH2 0x11CC JUMP JUMPDEST SWAP2 POP PUSH2 0x1530 DUP4 PUSH2 0x11CC JUMP JUMPDEST SWAP3 POP DUP3 DUP3 MUL PUSH2 0x153E DUP2 PUSH2 0x11CC JUMP JUMPDEST SWAP2 POP DUP3 DUP3 DIV DUP5 EQ DUP4 ISZERO OR PUSH2 0x1555 JUMPI PUSH2 0x1554 PUSH2 0x14BB JUMP JUMPDEST JUMPDEST POP SWAP3 SWAP2 POP POP JUMP JUMPDEST PUSH32 0x4E487B7100000000000000000000000000000000000000000000000000000000 PUSH0 MSTORE PUSH1 0x12 PUSH1 0x4 MSTORE PUSH1 0x24 PUSH0 REVERT JUMPDEST PUSH0 PUSH2 0x1593 DUP3 PUSH2 0x11CC JUMP JUMPDEST SWAP2 POP PUSH2 0x159E DUP4 PUSH2 0x11CC JUMP JUMPDEST SWAP3 POP DUP3 PUSH2 0x15AE JUMPI PUSH2 0x15AD PUSH2 0x155C JUMP JUMPDEST JUMPDEST DUP3 DUP3 DIV SWAP1 POP SWAP3 SWAP2 POP POP JUMP JUMPDEST PUSH32 0x426964206D757374206265206174206C65617374203525206772656174657220 PUSH0 DUP3 ADD MSTORE PUSH32 0x7468616E2063757272656E742068696768657374206269640000000000000000 PUSH1 0x20 DUP3 ADD MSTORE POP JUMP JUMPDEST PUSH0 PUSH2 0x1613 PUSH1 0x38 DUP4 PUSH2 0x13DB JUMP JUMPDEST SWAP2 POP PUSH2 0x161E DUP3 PUSH2 0x15B9 JUMP JUMPDEST PUSH1 0x40 DUP3 ADD SWAP1 POP SWAP2 SWAP1 POP JUMP JUMPDEST PUSH0 PUSH1 0x20 DUP3 ADD SWAP1 POP DUP2 DUP2 SUB PUSH0 DUP4 ADD MSTORE PUSH2 0x1640 DUP2 PUSH2 0x1607 JUMP JUMPDEST SWAP1 POP SWAP2 SWAP1 POP JUMP JUMPDEST PUSH32 0x596F7520616C7265616479206861766520746865206869676865737420626964 PUSH0 DUP3 ADD MSTORE POP JUMP JUMPDEST PUSH0 PUSH2 0x167B PUSH1 0x20 DUP4 PUSH2 0x13DB JUMP JUMPDEST SWAP2 POP PUSH2 0x1686 DUP3 PUSH2 0x1647 JUMP JUMPDEST PUSH1 0x20 DUP3 ADD SWAP1 POP SWAP2 SWAP1 POP JUMP JUMPDEST PUSH0 PUSH1 0x20 DUP3 ADD SWAP1 POP DUP2 DUP2 SUB PUSH0 DUP4 ADD MSTORE PUSH2 0x16A8 DUP2 PUSH2 0x166F JUMP JUMPDEST SWAP1 POP SWAP2 SWAP1 POP JUMP JUMPDEST PUSH0 PUSH2 0x16B9 DUP3 PUSH2 0x11CC JUMP JUMPDEST SWAP2 POP PUSH2 0x16C4 DUP4 PUSH2 0x11CC JUMP JUMPDEST SWAP3 POP DUP3 DUP3 SUB SWAP1 POP DUP2 DUP2 GT ISZERO PUSH2 0x16DC JUMPI PUSH2 0x16DB PUSH2 0x14BB JUMP JUMPDEST JUMPDEST SWAP3 SWAP2 POP POP JUMP JUMPDEST PUSH0 PUSH1 0x40 DUP3 ADD SWAP1 POP PUSH2 0x16F5 PUSH0 DUP4 ADD DUP6 PUSH2 0x11D5 JUMP JUMPDEST PUSH2 0x1702 PUSH1 0x20 DUP4 ADD DUP5 PUSH2 0x11D5 JUMP JUMPDEST SWAP4 SWAP3 POP POP POP JUMP JUMPDEST PUSH32 0x4F6E6C79206F776E65722063616E20706572666F726D20746869732061637469 PUSH0 DUP3 ADD MSTORE PUSH32 0x6F6E000000000000000000000000000000000000000000000000000000000000 PUSH1 0x20 DUP3 ADD MSTORE POP JUMP JUMPDEST PUSH0 PUSH2 0x1763 PUSH1 0x22 DUP4 PUSH2 0x13DB JUMP JUMPDEST SWAP2 POP PUSH2 0x176E DUP3 PUSH2 0x1709 JUMP JUMPDEST PUSH1 0x40 DUP3 ADD SWAP1 POP SWAP2 SWAP1 POP JUMP JUMPDEST PUSH0 PUSH1 0x20 DUP3 ADD SWAP1 POP DUP2 DUP2 SUB PUSH0 DUP4 ADD MSTORE PUSH2 0x1790 DUP2 PUSH2 0x1757 JUMP JUMPDEST SWAP1 POP SWAP2 SWAP1 POP JUMP JUMPDEST PUSH32 0x4E487B7100000000000000000000000000000000000000000000000000000000 PUSH0 MSTORE PUSH1 0x32 PUSH1 0x4 MSTORE PUSH1 0x24 PUSH0 REVERT JUMPDEST PUSH0 DUP2 SWAP1 POP SWAP3 SWAP2 POP POP JUMP JUMPDEST POP JUMP JUMPDEST PUSH0 PUSH2 0x17DC PUSH0 DUP4 PUSH2 0x17C4 JUMP JUMPDEST SWAP2 POP PUSH2 0x17E7 DUP3 PUSH2 0x17CE JUMP JUMPDEST PUSH0 DUP3 ADD SWAP1 POP SWAP2 SWAP1 POP JUMP JUMPDEST PUSH0 PUSH2 0x17FB DUP3 PUSH2 0x17D1 JUMP JUMPDEST SWAP2 POP DUP2 SWAP1 POP SWAP2 SWAP1 POP JUMP JUMPDEST PUSH32 0x526566756E64206661696C656400000000000000000000000000000000000000 PUSH0 DUP3 ADD MSTORE POP JUMP JUMPDEST PUSH0 PUSH2 0x1839 PUSH1 0xD DUP4 PUSH2 0x13DB JUMP JUMPDEST SWAP2 POP PUSH2 0x1844 DUP3 PUSH2 0x1805 JUMP JUMPDEST PUSH1 0x20 DUP3 ADD SWAP1 POP SWAP2 SWAP1 POP JUMP JUMPDEST PUSH0 PUSH1 0x20 DUP3 ADD SWAP1 POP DUP2 DUP2 SUB PUSH0 DUP4 ADD MSTORE PUSH2 0x1866 DUP2 PUSH2 0x182D JUMP JUMPDEST SWAP1 POP SWAP2 SWAP1 POP JUMP JUMPDEST PUSH32 0x4E6F2070656E64696E6720776974686472617720666F756E6400000000000000 PUSH0 DUP3 ADD MSTORE POP JUMP JUMPDEST PUSH0 PUSH2 0x18A1 PUSH1 0x19 DUP4 PUSH2 0x13DB JUMP JUMPDEST SWAP2 POP PUSH2 0x18AC DUP3 PUSH2 0x186D JUMP JUMPDEST PUSH1 0x20 DUP3 ADD SWAP1 POP SWAP2 SWAP1 POP JUMP JUMPDEST PUSH0 PUSH1 0x20 DUP3 ADD SWAP1 POP DUP2 DUP2 SUB PUSH0 DUP4 ADD MSTORE PUSH2 0x18CE DUP2 PUSH2 0x1895 JUMP JUMPDEST SWAP1 POP SWAP2 SWAP1 POP JUMP JUMPDEST PUSH32 0x4E487B7100000000000000000000000000000000000000000000000000000000 PUSH0 MSTORE PUSH1 0x41 PUSH1 0x4 MSTORE PUSH1 0x24 PUSH0 REVERT INVALID LOG2 PUSH5 0x6970667358 0x22 SLT KECCAK256 SLT 0x2B PUSH0 CALL PUSH10 0xD2ECCE46A45BE8E7697 EOFCREATE 0x3E LOG3 RETF DUP16 PUSH21 0x4F6971C9F5815431E91AF164736F6C634300081E00 CALLER "
				},
				"gasEstimates": {
					"creation": {
						"codeDepositCost": "1291200",
						"executionCost": "infinite",
						"totalCost": "infinite"
					},
					"external": {
						"allowedIncrement()": "infinite",
						"bid()": "infinite",
						"duration()": "infinite",
						"endTime()": "2491",
						"extension()": "infinite",
						"gasFee()": "infinite",
						"getBids()": "infinite",
						"getTimeLeft()": "infinite",
						"getWinnerBid()": "5043",
						"owner()": "infinite",
						"partialWithraw()": "infinite",
						"refundAll()": "infinite",
						"startTime()": "infinite"
					}
				},
				"methodIdentifiers": {
					"allowedIncrement()": "430efe6f",
					"bid()": "1998aeef",
					"duration()": "0fb5a6b4",
					"endTime()": "3197cbb6",
					"extension()": "2d5537b0",
					"gasFee()": "658612e9",
					"getBids()": "b81c78ec",
					"getTimeLeft()": "c7e284b8",
					"getWinnerBid()": "ceb98f6e",
					"owner()": "8da5cb5b",
					"partialWithraw()": "8d818527",
					"refundAll()": "38e771ab",
					"startTime()": "78e97925"
				}
			},
			"storageLayout": {
				"storage": [
					{
						"astId": 11,
						"contract": "Auction.sol:Auction",
						"label": "endTime",
						"offset": 0,
						"slot": "0",
						"type": "t_uint256"
					},
					{
						"astId": 24,
						"contract": "Auction.sol:Auction",
						"label": "winnerBid",
						"offset": 0,
						"slot": "1",
						"type": "t_struct(Bid)20_storage"
					},
					{
						"astId": 27,
						"contract": "Auction.sol:Auction",
						"label": "basePrice",
						"offset": 0,
						"slot": "3",
						"type": "t_uint256"
					},
					{
						"astId": 49,
						"contract": "Auction.sol:Auction",
						"label": "bids",
						"offset": 0,
						"slot": "4",
						"type": "t_mapping(t_address,t_struct(BidRecord)43_storage)"
					},
					{
						"astId": 53,
						"contract": "Auction.sol:Auction",
						"label": "bidders",
						"offset": 0,
						"slot": "5",
						"type": "t_array(t_address)dyn_storage"
					},
					{
						"astId": 56,
						"contract": "Auction.sol:Auction",
						"label": "locked",
						"offset": 0,
						"slot": "6",
						"type": "t_bool"
					}
				],
				"types": {
					"t_address": {
						"encoding": "inplace",
						"label": "address",
						"numberOfBytes": "20"
					},
					"t_array(t_address)dyn_storage": {
						"base": "t_address",
						"encoding": "dynamic_array",
						"label": "address[]",
						"numberOfBytes": "32"
					},
					"t_bool": {
						"encoding": "inplace",
						"label": "bool",
						"numberOfBytes": "1"
					},
					"t_mapping(t_address,t_struct(BidRecord)43_storage)": {
						"encoding": "mapping",
						"key": "t_address",
						"label": "mapping(address => struct Auction.BidRecord)",
						"numberOfBytes": "32",
						"value": "t_struct(BidRecord)43_storage"
					},
					"t_struct(Bid)20_storage": {
						"encoding": "inplace",
						"label": "struct Auction.Bid",
						"members": [
							{
								"astId": 17,
								"contract": "Auction.sol:Auction",
								"label": "bidder",
								"offset": 0,
								"slot": "0",
								"type": "t_address"
							},
							{
								"astId": 19,
								"contract": "Auction.sol:Auction",
								"label": "amount",
								"offset": 0,
								"slot": "1",
								"type": "t_uint256"
							}
						],
						"numberOfBytes": "64"
					},
					"t_struct(BidRecord)43_storage": {
						"encoding": "inplace",
						"label": "struct Auction.BidRecord",
						"members": [
							{
								"astId": 40,
								"contract": "Auction.sol:Auction",
								"label": "bid",
								"offset": 0,
								"slot": "0",
								"type": "t_struct(Bid)20_storage"
							},
							{
								"astId": 42,
								"contract": "Auction.sol:Auction",
								"label": "pendingWithdraw",
								"offset": 0,
								"slot": "2",
								"type": "t_uint256"
							}
						],
						"numberOfBytes": "96"
					},
					"t_uint256": {
						"encoding": "inplace",
						"label": "uint256",
						"numberOfBytes": "32"
					}
				}
			},
			"userdoc": {
				"events": {
					"AuctionExtended(uint256,address,uint256)": {
						"notice": "Emitted when the auction is extended due to a new bid."
					},
					"AuctionFinished(address,uint256)": {
						"notice": "Emitted when the auction ends via the owner's refund action."
					},
					"NewBid(address,uint256)": {
						"notice": "Emitted when a new valid bid is placed."
					},
					"PartialWithdraw(address,uint256)": {
						"notice": "Emitted when a bidder performs a partial withdrawal during the auction."
					},
					"Refund(address,uint256)": {
						"notice": "Emitted when a bidder receives a refund."
					}
				},
				"kind": "user",
				"methods": {
					"allowedIncrement()": {
						"notice": "Required percentage increment (e.g., 5%) for a bid to be accepted."
					},
					"bid()": {
						"notice": "Places a new bid if it complies with the rules."
					},
					"duration()": {
						"notice": "Total duration of the auction."
					},
					"endTime()": {
						"notice": "End time of the auction. Can be extended during the auction."
					},
					"extension()": {
						"notice": "Time extension applied if a bid is placed within the last 10 minutes."
					},
					"gasFee()": {
						"notice": "Fee percentage (e.g., 2%) deducted from bid refunds for gas compensation."
					},
					"getBids()": {
						"notice": "Returns all bids in structured format."
					},
					"getTimeLeft()": {
						"notice": "Returns the remaining time before the auction ends."
					},
					"getWinnerBid()": {
						"notice": "Returns the current highest bid and bidder."
					},
					"owner()": {
						"notice": "Owner of the contract."
					},
					"partialWithraw()": {
						"notice": "Allows bidders to partially withdraw previous bids (not the latest one).         No gas fee is deducted. Can only be done during the auction."
					},
					"refundAll()": {
						"notice": "Allows the owner to refund all bidders at the end of the auction.         The winner receives only their pendingWithdraw amount - 2%.         Others receive their pendingWithdraw + (bid - 2% fee)."
					},
					"startTime()": {
						"notice": "Start time of the auction."
					}
				},
				"notice": "This contract allows users to participate in an auction.",
				"version": 1
			}
		}
	}
}