{
	"Auction.sol": {
		"Auction": {
			"abi": [
				{
					"inputs": [],
					"stateMutability": "nonpayable",
					"type": "constructor"
				},
				{
					"anonymous": false,
					"inputs": [
						{
							"indexed": true,
							"internalType": "address",
							"name": "bidder",
							"type": "address"
						},
						{
							"indexed": false,
							"internalType": "uint256",
							"name": "value",
							"type": "uint256"
						}
					],
					"name": "end",
					"type": "event"
				},
				{
					"anonymous": false,
					"inputs": [
						{
							"indexed": true,
							"internalType": "address",
							"name": "bidder",
							"type": "address"
						},
						{
							"indexed": false,
							"internalType": "uint256",
							"name": "value",
							"type": "uint256"
						}
					],
					"name": "newBid",
					"type": "event"
				},
				{
					"inputs": [],
					"name": "bid",
					"outputs": [],
					"stateMutability": "payable",
					"type": "function"
				},
				{
					"inputs": [],
					"name": "getAllBids",
					"outputs": [
						{
							"components": [
								{
									"internalType": "address",
									"name": "bidder",
									"type": "address"
								},
								{
									"internalType": "uint256",
									"name": "amount",
									"type": "uint256"
								}
							],
							"internalType": "struct Auction.Bid[]",
							"name": "",
							"type": "tuple[]"
						}
					],
					"stateMutability": "view",
					"type": "function"
				},
				{
					"inputs": [],
					"name": "getWinnerBid",
					"outputs": [
						{
							"components": [
								{
									"internalType": "address",
									"name": "bidder",
									"type": "address"
								},
								{
									"internalType": "uint256",
									"name": "amount",
									"type": "uint256"
								}
							],
							"internalType": "struct Auction.Bid",
							"name": "",
							"type": "tuple"
						}
					],
					"stateMutability": "view",
					"type": "function"
				}
			],
			"devdoc": {
				"kind": "dev",
				"methods": {},
				"version": 1
			},
			"evm": {
				"assembly": "    /* \"Auction.sol\":58:2602  contract Auction {... */\n  mstore(0x40, 0x80)\n    /* \"Auction.sol\":672:852  constructor() {... */\n  callvalue\n  dup1\n  iszero\n  tag_1\n  jumpi\n  revert(0x00, 0x00)\ntag_1:\n  pop\n    /* \"Auction.sol\":708:723  block.timestamp */\n  timestamp\n    /* \"Auction.sol\":696:705  startDate */\n  0x00\n    /* \"Auction.sol\":696:723  startDate = block.timestamp */\n  dup2\n  swap1\n  sstore\n  pop\n    /* \"Auction.sol\":744:751  1 hours */\n  0x0e10\n    /* \"Auction.sol\":733:741  duration */\n  0x02\n    /* \"Auction.sol\":733:751  duration = 1 hours */\n  dup2\n  swap1\n  sstore\n  pop\n    /* \"Auction.sol\":783:791  duration */\n  sload(0x02)\n    /* \"Auction.sol\":771:780  startDate */\n  sload(0x00)\n    /* \"Auction.sol\":771:791  startDate + duration */\n  tag_4\n  swap2\n  swap1\n  tag_5\n  jump\t// in\ntag_4:\n    /* \"Auction.sol\":761:768  endDate */\n  0x01\n    /* \"Auction.sol\":761:791  endDate = startDate + duration */\n  dup2\n  swap1\n  sstore\n  pop\n    /* \"Auction.sol\":813:820  1 ether */\n  0x0de0b6b3a7640000\n    /* \"Auction.sol\":801:810  winnerBid */\n  0x04\n    /* \"Auction.sol\":801:820  winnerBid = 1 ether */\n  dup2\n  swap1\n  sstore\n  pop\n    /* \"Auction.sol\":842:845  105 */\n  0x69\n    /* \"Auction.sol\":830:839  increment */\n  0x05\n    /* \"Auction.sol\":830:845  increment = 105 */\n  dup2\n  swap1\n  sstore\n  pop\n    /* \"Auction.sol\":58:2602  contract Auction {... */\n  jump(tag_6)\n    /* \"#utility.yul\":7:84   */\ntag_7:\n    /* \"#utility.yul\":44:51   */\n  0x00\n    /* \"#utility.yul\":73:78   */\n  dup2\n    /* \"#utility.yul\":62:78   */\n  swap1\n  pop\n    /* \"#utility.yul\":7:84   */\n  swap2\n  swap1\n  pop\n  jump\t// out\n    /* \"#utility.yul\":90:270   */\ntag_8:\n    /* \"#utility.yul\":138:215   */\n  0x4e487b7100000000000000000000000000000000000000000000000000000000\n    /* \"#utility.yul\":135:136   */\n  0x00\n    /* \"#utility.yul\":128:216   */\n  mstore\n    /* \"#utility.yul\":235:239   */\n  0x11\n    /* \"#utility.yul\":232:233   */\n  0x04\n    /* \"#utility.yul\":225:240   */\n  mstore\n    /* \"#utility.yul\":259:263   */\n  0x24\n    /* \"#utility.yul\":256:257   */\n  0x00\n    /* \"#utility.yul\":249:264   */\n  revert\n    /* \"#utility.yul\":276:467   */\ntag_5:\n    /* \"#utility.yul\":316:319   */\n  0x00\n    /* \"#utility.yul\":335:355   */\n  tag_13\n    /* \"#utility.yul\":353:354   */\n  dup3\n    /* \"#utility.yul\":335:355   */\n  tag_7\n  jump\t// in\ntag_13:\n    /* \"#utility.yul\":330:355   */\n  swap2\n  pop\n    /* \"#utility.yul\":369:389   */\n  tag_14\n    /* \"#utility.yul\":387:388   */\n  dup4\n    /* \"#utility.yul\":369:389   */\n  tag_7\n  jump\t// in\ntag_14:\n    /* \"#utility.yul\":364:389   */\n  swap3\n  pop\n    /* \"#utility.yul\":412:413   */\n  dup3\n    /* \"#utility.yul\":409:410   */\n  dup3\n    /* \"#utility.yul\":405:414   */\n  add\n    /* \"#utility.yul\":398:414   */\n  swap1\n  pop\n    /* \"#utility.yul\":433:436   */\n  dup1\n    /* \"#utility.yul\":430:431   */\n  dup3\n    /* \"#utility.yul\":427:437   */\n  gt\n    /* \"#utility.yul\":424:460   */\n  iszero\n  tag_15\n  jumpi\n    /* \"#utility.yul\":440:458   */\n  tag_16\n  tag_8\n  jump\t// in\ntag_16:\n    /* \"#utility.yul\":424:460   */\ntag_15:\n    /* \"#utility.yul\":276:467   */\n  swap3\n  swap2\n  pop\n  pop\n  jump\t// out\n    /* \"Auction.sol\":58:2602  contract Auction {... */\ntag_6:\n  dataSize(sub_0)\n  dup1\n  dataOffset(sub_0)\n  0x00\n  codecopy\n  0x00\n  return\nstop\n\nsub_0: assembly {\n        /* \"Auction.sol\":58:2602  contract Auction {... */\n      mstore(0x40, 0x80)\n      jumpi(tag_1, lt(calldatasize, 0x04))\n      shr(0xe0, calldataload(0x00))\n      dup1\n      0x1998aeef\n      eq\n      tag_2\n      jumpi\n      dup1\n      0x8d0f6da3\n      eq\n      tag_3\n      jumpi\n      dup1\n      0xceb98f6e\n      eq\n      tag_4\n      jumpi\n    tag_1:\n      revert(0x00, 0x00)\n        /* \"Auction.sol\":1635:2009  function bid() onlyStillActive() onlyGreaterBid() onlyOtherThanWinnerBidder external payable  {... */\n    tag_2:\n      tag_5\n      tag_6\n      jump\t// in\n    tag_5:\n      stop\n        /* \"Auction.sol\":2077:2429  function getAllBids() external view returns (Bid[] memory) {... */\n    tag_3:\n      callvalue\n      dup1\n      iszero\n      tag_7\n      jumpi\n      revert(0x00, 0x00)\n    tag_7:\n      pop\n      tag_8\n      tag_9\n      jump\t// in\n    tag_8:\n      mload(0x40)\n      tag_10\n      swap2\n      swap1\n      tag_11\n      jump\t// in\n    tag_10:\n      mload(0x40)\n      dup1\n      swap2\n      sub\n      swap1\n      return\n        /* \"Auction.sol\":2471:2600  function getWinnerBid() external view returns (Bid memory) {... */\n    tag_4:\n      callvalue\n      dup1\n      iszero\n      tag_12\n      jumpi\n      revert(0x00, 0x00)\n    tag_12:\n      pop\n      tag_13\n      tag_14\n      jump\t// in\n    tag_13:\n      mload(0x40)\n      tag_15\n      swap2\n      swap1\n      tag_16\n      jump\t// in\n    tag_15:\n      mload(0x40)\n      dup1\n      swap2\n      sub\n      swap1\n      return\n        /* \"Auction.sol\":1635:2009  function bid() onlyStillActive() onlyGreaterBid() onlyOtherThanWinnerBidder external payable  {... */\n    tag_6:\n        /* \"Auction.sol\":1076:1083  endDate */\n      sload(0x01)\n        /* \"Auction.sol\":1057:1072  block.timestamp */\n      timestamp\n        /* \"Auction.sol\":1057:1083  block.timestamp <= endDate */\n      gt\n      iszero\n        /* \"Auction.sol\":1049:1105  require(block.timestamp <= endDate, \"Contrato expirado\") */\n      tag_18\n      jumpi\n      mload(0x40)\n      0x08c379a000000000000000000000000000000000000000000000000000000000\n      dup2\n      mstore\n      0x04\n      add\n      tag_19\n      swap1\n      tag_20\n      jump\t// in\n    tag_19:\n      mload(0x40)\n      dup1\n      swap2\n      sub\n      swap1\n      revert\n    tag_18:\n        /* \"Auction.sol\":1509:1512  100 */\n      0x64\n        /* \"Auction.sol\":1496:1505  increment */\n      sload(0x05)\n        /* \"Auction.sol\":1484:1493  winnerBid */\n      sload(0x04)\n        /* \"Auction.sol\":1484:1505  winnerBid * increment */\n      tag_22\n      swap2\n      swap1\n      tag_23\n      jump\t// in\n    tag_22:\n        /* \"Auction.sol\":1483:1512  (winnerBid * increment) / 100 */\n      tag_24\n      swap2\n      swap1\n      tag_25\n      jump\t// in\n    tag_24:\n        /* \"Auction.sol\":1471:1480  msg.value */\n      callvalue\n        /* \"Auction.sol\":1471:1512  msg.value > (winnerBid * increment) / 100 */\n      gt\n        /* \"Auction.sol\":1463:1569  require(msg.value > (winnerBid * increment) / 100, \"Puja con menos de 5% de incremento sobre la ganadora\") */\n      tag_26\n      jumpi\n      mload(0x40)\n      0x08c379a000000000000000000000000000000000000000000000000000000000\n      dup2\n      mstore\n      0x04\n      add\n      tag_27\n      swap1\n      tag_28\n      jump\t// in\n    tag_27:\n      mload(0x40)\n      dup1\n      swap2\n      sub\n      swap1\n      revert\n    tag_26:\n        /* \"Auction.sol\":1267:1279  winnerBidder */\n      0x03\n      0x00\n      swap1\n      sload\n      swap1\n      0x0100\n      exp\n      swap1\n      div\n      0xffffffffffffffffffffffffffffffffffffffff\n      and\n        /* \"Auction.sol\":1253:1279  msg.sender != winnerBidder */\n      0xffffffffffffffffffffffffffffffffffffffff\n      and\n        /* \"Auction.sol\":1253:1263  msg.sender */\n      caller\n        /* \"Auction.sol\":1253:1279  msg.sender != winnerBidder */\n      0xffffffffffffffffffffffffffffffffffffffff\n      and\n      sub\n        /* \"Auction.sol\":1245:1312  require(msg.sender != winnerBidder, \"Usted ya tiene la mejor puja\") */\n      tag_30\n      jumpi\n      mload(0x40)\n      0x08c379a000000000000000000000000000000000000000000000000000000000\n      dup2\n      mstore\n      0x04\n      add\n      tag_31\n      swap1\n      tag_32\n      jump\t// in\n    tag_31:\n      mload(0x40)\n      dup1\n      swap2\n      sub\n      swap1\n      revert\n    tag_30:\n        /* \"Auction.sol\":1751:1761  msg.sender */\n      caller\n        /* \"Auction.sol\":1744:1773  newBid(msg.sender, msg.value) */\n      0xffffffffffffffffffffffffffffffffffffffff\n      and\n      0x7b6bc441ac62da4ede87e2fafbf3885745a385ec42ec7611d5d8094e7b850be1\n        /* \"Auction.sol\":1763:1772  msg.value */\n      callvalue\n        /* \"Auction.sol\":1744:1773  newBid(msg.sender, msg.value) */\n      mload(0x40)\n      tag_34\n      swap2\n      swap1\n      tag_35\n      jump\t// in\n    tag_34:\n      mload(0x40)\n      dup1\n      swap2\n      sub\n      swap1\n      log2\n        /* \"Auction.sol\":1798:1808  msg.sender */\n      caller\n        /* \"Auction.sol\":1783:1795  winnerBidder */\n      0x03\n      0x00\n        /* \"Auction.sol\":1783:1808  winnerBidder = msg.sender */\n      0x0100\n      exp\n      dup2\n      sload\n      dup2\n      0xffffffffffffffffffffffffffffffffffffffff\n      mul\n      not\n      and\n      swap1\n      dup4\n      0xffffffffffffffffffffffffffffffffffffffff\n      and\n      mul\n      or\n      swap1\n      sstore\n      pop\n        /* \"Auction.sol\":1830:1839  msg.value */\n      callvalue\n        /* \"Auction.sol\":1818:1827  winnerBid */\n      0x04\n        /* \"Auction.sol\":1818:1839  winnerBid = msg.value */\n      dup2\n      swap1\n      sstore\n      pop\n        /* \"Auction.sol\":1873:1874  0 */\n      0x00\n        /* \"Auction.sol\":1853:1857  bids */\n      0x06\n        /* \"Auction.sol\":1853:1869  bids[msg.sender] */\n      0x00\n        /* \"Auction.sol\":1858:1868  msg.sender */\n      caller\n        /* \"Auction.sol\":1853:1869  bids[msg.sender] */\n      0xffffffffffffffffffffffffffffffffffffffff\n      and\n      0xffffffffffffffffffffffffffffffffffffffff\n      and\n      dup2\n      mstore\n      0x20\n      add\n      swap1\n      dup2\n      mstore\n      0x20\n      add\n      0x00\n      keccak256\n      sload\n        /* \"Auction.sol\":1853:1874  bids[msg.sender] == 0 */\n      sub\n        /* \"Auction.sol\":1849:1964  if (bids[msg.sender] == 0) {... */\n      tag_36\n      jumpi\n        /* \"Auction.sol\":1890:1897  bidders */\n      0x07\n        /* \"Auction.sol\":1903:1913  msg.sender */\n      caller\n        /* \"Auction.sol\":1890:1914  bidders.push(msg.sender) */\n      swap1\n      dup1\n      0x01\n      dup2\n      sload\n      add\n      dup1\n      dup3\n      sstore\n      dup1\n      swap2\n      pop\n      pop\n      0x01\n      swap1\n      sub\n      swap1\n      0x00\n      mstore\n      keccak256(0x00, 0x20)\n      add\n      0x00\n      swap1\n      swap2\n      swap1\n      swap2\n      swap1\n      swap2\n      0x0100\n      exp\n      dup2\n      sload\n      dup2\n      0xffffffffffffffffffffffffffffffffffffffff\n      mul\n      not\n      and\n      swap1\n      dup4\n      0xffffffffffffffffffffffffffffffffffffffff\n      and\n      mul\n      or\n      swap1\n      sstore\n      pop\n        /* \"Auction.sol\":1849:1964  if (bids[msg.sender] == 0) {... */\n    tag_36:\n        /* \"Auction.sol\":1992:2001  msg.value */\n      callvalue\n        /* \"Auction.sol\":1973:1977  bids */\n      0x06\n        /* \"Auction.sol\":1973:1989  bids[msg.sender] */\n      0x00\n        /* \"Auction.sol\":1978:1988  msg.sender */\n      caller\n        /* \"Auction.sol\":1973:1989  bids[msg.sender] */\n      0xffffffffffffffffffffffffffffffffffffffff\n      and\n      0xffffffffffffffffffffffffffffffffffffffff\n      and\n      dup2\n      mstore\n      0x20\n      add\n      swap1\n      dup2\n      mstore\n      0x20\n      add\n      0x00\n      keccak256\n        /* \"Auction.sol\":1973:2001  bids[msg.sender] = msg.value */\n      dup2\n      swap1\n      sstore\n      pop\n        /* \"Auction.sol\":1635:2009  function bid() onlyStillActive() onlyGreaterBid() onlyOtherThanWinnerBidder external payable  {... */\n      jump\t// out\n        /* \"Auction.sol\":2077:2429  function getAllBids() external view returns (Bid[] memory) {... */\n    tag_9:\n        /* \"Auction.sol\":2122:2134  Bid[] memory */\n      0x60\n        /* \"Auction.sol\":2146:2157  uint256 len */\n      0x00\n        /* \"Auction.sol\":2160:2167  bidders */\n      0x07\n        /* \"Auction.sol\":2160:2174  bidders.length */\n      dup1\n      sload\n      swap1\n      pop\n        /* \"Auction.sol\":2146:2174  uint256 len = bidders.length */\n      swap1\n      pop\n        /* \"Auction.sol\":2184:2200  Bid[] memory all */\n      0x00\n        /* \"Auction.sol\":2213:2216  len */\n      dup2\n        /* \"Auction.sol\":2203:2217  new Bid[](len) */\n      0xffffffffffffffff\n      dup2\n      gt\n      iszero\n      tag_39\n      jumpi\n      tag_40\n      tag_41\n      jump\t// in\n    tag_40:\n    tag_39:\n      mload(0x40)\n      swap1\n      dup1\n      dup3\n      mstore\n      dup1\n      0x20\n      mul\n      0x20\n      add\n      dup3\n      add\n      0x40\n      mstore\n      dup1\n      iszero\n      tag_42\n      jumpi\n      dup2\n      0x20\n      add\n    tag_43:\n      tag_44\n      tag_45\n      jump\t// in\n    tag_44:\n      dup2\n      mstore\n      0x20\n      add\n      swap1\n      0x01\n      swap1\n      sub\n      swap1\n      dup2\n      tag_43\n      jumpi\n      swap1\n      pop\n    tag_42:\n      pop\n        /* \"Auction.sol\":2184:2217  Bid[] memory all = new Bid[](len) */\n      swap1\n      pop\n        /* \"Auction.sol\":2233:2242  uint256 i */\n      0x00\n        /* \"Auction.sol\":2245:2246  0 */\n      0x00\n        /* \"Auction.sol\":2233:2246  uint256 i = 0 */\n      swap1\n      pop\n        /* \"Auction.sol\":2228:2393  for (uint256 i = 0; i < len; i++) {... */\n    tag_46:\n        /* \"Auction.sol\":2252:2255  len */\n      dup3\n        /* \"Auction.sol\":2248:2249  i */\n      dup2\n        /* \"Auction.sol\":2248:2255  i < len */\n      lt\n        /* \"Auction.sol\":2228:2393  for (uint256 i = 0; i < len; i++) {... */\n      iszero\n      tag_47\n      jumpi\n        /* \"Auction.sol\":2285:2382  Bid({... */\n      mload(0x40)\n      dup1\n      0x40\n      add\n      0x40\n      mstore\n      dup1\n        /* \"Auction.sol\":2315:2322  bidders */\n      0x07\n        /* \"Auction.sol\":2323:2324  i */\n      dup4\n        /* \"Auction.sol\":2315:2325  bidders[i] */\n      dup2\n      sload\n      dup2\n      lt\n      tag_49\n      jumpi\n      tag_50\n      tag_51\n      jump\t// in\n    tag_50:\n    tag_49:\n      swap1\n      0x00\n      mstore\n      keccak256(0x00, 0x20)\n      add\n      0x00\n      swap1\n      sload\n      swap1\n      0x0100\n      exp\n      swap1\n      div\n      0xffffffffffffffffffffffffffffffffffffffff\n      and\n        /* \"Auction.sol\":2285:2382  Bid({... */\n      0xffffffffffffffffffffffffffffffffffffffff\n      and\n      dup2\n      mstore\n      0x20\n      add\n        /* \"Auction.sol\":2351:2355  bids */\n      0x06\n        /* \"Auction.sol\":2351:2367  bids[bidders[i]] */\n      0x00\n        /* \"Auction.sol\":2356:2363  bidders */\n      0x07\n        /* \"Auction.sol\":2364:2365  i */\n      dup6\n        /* \"Auction.sol\":2356:2366  bidders[i] */\n      dup2\n      sload\n      dup2\n      lt\n      tag_53\n      jumpi\n      tag_54\n      tag_51\n      jump\t// in\n    tag_54:\n    tag_53:\n      swap1\n      0x00\n      mstore\n      keccak256(0x00, 0x20)\n      add\n      0x00\n      swap1\n      sload\n      swap1\n      0x0100\n      exp\n      swap1\n      div\n      0xffffffffffffffffffffffffffffffffffffffff\n      and\n        /* \"Auction.sol\":2351:2367  bids[bidders[i]] */\n      0xffffffffffffffffffffffffffffffffffffffff\n      and\n      0xffffffffffffffffffffffffffffffffffffffff\n      and\n      dup2\n      mstore\n      0x20\n      add\n      swap1\n      dup2\n      mstore\n      0x20\n      add\n      0x00\n      keccak256\n      sload\n        /* \"Auction.sol\":2285:2382  Bid({... */\n      dup2\n      mstore\n      pop\n        /* \"Auction.sol\":2276:2279  all */\n      dup3\n        /* \"Auction.sol\":2280:2281  i */\n      dup3\n        /* \"Auction.sol\":2276:2282  all[i] */\n      dup2\n      mload\n      dup2\n      lt\n      tag_56\n      jumpi\n      tag_57\n      tag_51\n      jump\t// in\n    tag_57:\n    tag_56:\n      0x20\n      mul\n      0x20\n      add\n      add\n        /* \"Auction.sol\":2276:2382  all[i] = Bid({... */\n      dup2\n      swap1\n      mstore\n      pop\n        /* \"Auction.sol\":2257:2260  i++ */\n      dup1\n      dup1\n      0x01\n      add\n      swap2\n      pop\n      pop\n        /* \"Auction.sol\":2228:2393  for (uint256 i = 0; i < len; i++) {... */\n      jump(tag_46)\n    tag_47:\n      pop\n        /* \"Auction.sol\":2410:2413  all */\n      dup1\n        /* \"Auction.sol\":2403:2413  return all */\n      swap3\n      pop\n      pop\n      pop\n        /* \"Auction.sol\":2077:2429  function getAllBids() external view returns (Bid[] memory) {... */\n      swap1\n      jump\t// out\n        /* \"Auction.sol\":2471:2600  function getWinnerBid() external view returns (Bid memory) {... */\n    tag_14:\n        /* \"Auction.sol\":2518:2528  Bid memory */\n      tag_58\n      tag_45\n      jump\t// in\n    tag_58:\n        /* \"Auction.sol\":2547:2593  Bid({bidder: winnerBidder, amount: winnerBid}) */\n      mload(0x40)\n      dup1\n      0x40\n      add\n      0x40\n      mstore\n      dup1\n        /* \"Auction.sol\":2560:2572  winnerBidder */\n      0x03\n      0x00\n      swap1\n      sload\n      swap1\n      0x0100\n      exp\n      swap1\n      div\n      0xffffffffffffffffffffffffffffffffffffffff\n      and\n        /* \"Auction.sol\":2547:2593  Bid({bidder: winnerBidder, amount: winnerBid}) */\n      0xffffffffffffffffffffffffffffffffffffffff\n      and\n      dup2\n      mstore\n      0x20\n      add\n        /* \"Auction.sol\":2582:2591  winnerBid */\n      sload(0x04)\n        /* \"Auction.sol\":2547:2593  Bid({bidder: winnerBidder, amount: winnerBid}) */\n      dup2\n      mstore\n      pop\n        /* \"Auction.sol\":2540:2593  return Bid({bidder: winnerBidder, amount: winnerBid}) */\n      swap1\n      pop\n        /* \"Auction.sol\":2471:2600  function getWinnerBid() external view returns (Bid memory) {... */\n      swap1\n      jump\t// out\n    tag_45:\n      mload(0x40)\n      dup1\n      0x40\n      add\n      0x40\n      mstore\n      dup1\n      and(0xffffffffffffffffffffffffffffffffffffffff, 0x00)\n      dup2\n      mstore\n      0x20\n      add\n      0x00\n      dup2\n      mstore\n      pop\n      swap1\n      jump\t// out\n        /* \"#utility.yul\":7:140   */\n    tag_60:\n        /* \"#utility.yul\":93:99   */\n      0x00\n        /* \"#utility.yul\":127:132   */\n      dup2\n        /* \"#utility.yul\":121:133   */\n      mload\n        /* \"#utility.yul\":111:133   */\n      swap1\n      pop\n        /* \"#utility.yul\":7:140   */\n      swap2\n      swap1\n      pop\n      jump\t// out\n        /* \"#utility.yul\":146:349   */\n    tag_61:\n        /* \"#utility.yul\":264:275   */\n      0x00\n        /* \"#utility.yul\":298:304   */\n      dup3\n        /* \"#utility.yul\":293:296   */\n      dup3\n        /* \"#utility.yul\":286:305   */\n      mstore\n        /* \"#utility.yul\":338:342   */\n      0x20\n        /* \"#utility.yul\":333:336   */\n      dup3\n        /* \"#utility.yul\":329:343   */\n      add\n        /* \"#utility.yul\":314:343   */\n      swap1\n      pop\n        /* \"#utility.yul\":146:349   */\n      swap3\n      swap2\n      pop\n      pop\n      jump\t// out\n        /* \"#utility.yul\":355:506   */\n    tag_62:\n        /* \"#utility.yul\":441:445   */\n      0x00\n        /* \"#utility.yul\":464:467   */\n      dup2\n        /* \"#utility.yul\":456:467   */\n      swap1\n      pop\n        /* \"#utility.yul\":494:498   */\n      0x20\n        /* \"#utility.yul\":489:492   */\n      dup3\n        /* \"#utility.yul\":485:499   */\n      add\n        /* \"#utility.yul\":477:499   */\n      swap1\n      pop\n        /* \"#utility.yul\":355:506   */\n      swap2\n      swap1\n      pop\n      jump\t// out\n        /* \"#utility.yul\":512:638   */\n    tag_63:\n        /* \"#utility.yul\":549:556   */\n      0x00\n        /* \"#utility.yul\":589:631   */\n      0xffffffffffffffffffffffffffffffffffffffff\n        /* \"#utility.yul\":582:587   */\n      dup3\n        /* \"#utility.yul\":578:632   */\n      and\n        /* \"#utility.yul\":567:632   */\n      swap1\n      pop\n        /* \"#utility.yul\":512:638   */\n      swap2\n      swap1\n      pop\n      jump\t// out\n        /* \"#utility.yul\":644:740   */\n    tag_64:\n        /* \"#utility.yul\":681:688   */\n      0x00\n        /* \"#utility.yul\":710:734   */\n      tag_89\n        /* \"#utility.yul\":728:733   */\n      dup3\n        /* \"#utility.yul\":710:734   */\n      tag_63\n      jump\t// in\n    tag_89:\n        /* \"#utility.yul\":699:734   */\n      swap1\n      pop\n        /* \"#utility.yul\":644:740   */\n      swap2\n      swap1\n      pop\n      jump\t// out\n        /* \"#utility.yul\":746:854   */\n    tag_65:\n        /* \"#utility.yul\":823:847   */\n      tag_91\n        /* \"#utility.yul\":841:846   */\n      dup2\n        /* \"#utility.yul\":823:847   */\n      tag_64\n      jump\t// in\n    tag_91:\n        /* \"#utility.yul\":818:821   */\n      dup3\n        /* \"#utility.yul\":811:848   */\n      mstore\n        /* \"#utility.yul\":746:854   */\n      pop\n      pop\n      jump\t// out\n        /* \"#utility.yul\":860:937   */\n    tag_66:\n        /* \"#utility.yul\":897:904   */\n      0x00\n        /* \"#utility.yul\":926:931   */\n      dup2\n        /* \"#utility.yul\":915:931   */\n      swap1\n      pop\n        /* \"#utility.yul\":860:937   */\n      swap2\n      swap1\n      pop\n      jump\t// out\n        /* \"#utility.yul\":943:1051   */\n    tag_67:\n        /* \"#utility.yul\":1020:1044   */\n      tag_94\n        /* \"#utility.yul\":1038:1043   */\n      dup2\n        /* \"#utility.yul\":1020:1044   */\n      tag_66\n      jump\t// in\n    tag_94:\n        /* \"#utility.yul\":1015:1018   */\n      dup3\n        /* \"#utility.yul\":1008:1045   */\n      mstore\n        /* \"#utility.yul\":943:1051   */\n      pop\n      pop\n      jump\t// out\n        /* \"#utility.yul\":1105:1594   */\n    tag_68:\n        /* \"#utility.yul\":1230:1234   */\n      0x40\n        /* \"#utility.yul\":1225:1228   */\n      dup3\n        /* \"#utility.yul\":1221:1235   */\n      add\n        /* \"#utility.yul\":1319:1323   */\n      0x00\n        /* \"#utility.yul\":1312:1317   */\n      dup3\n        /* \"#utility.yul\":1308:1324   */\n      add\n        /* \"#utility.yul\":1302:1325   */\n      mload\n        /* \"#utility.yul\":1338:1401   */\n      tag_96\n        /* \"#utility.yul\":1395:1399   */\n      0x00\n        /* \"#utility.yul\":1390:1393   */\n      dup6\n        /* \"#utility.yul\":1386:1400   */\n      add\n        /* \"#utility.yul\":1372:1384   */\n      dup3\n        /* \"#utility.yul\":1338:1401   */\n      tag_65\n      jump\t// in\n    tag_96:\n        /* \"#utility.yul\":1245:1411   */\n      pop\n        /* \"#utility.yul\":1495:1499   */\n      0x20\n        /* \"#utility.yul\":1488:1493   */\n      dup3\n        /* \"#utility.yul\":1484:1500   */\n      add\n        /* \"#utility.yul\":1478:1501   */\n      mload\n        /* \"#utility.yul\":1514:1577   */\n      tag_97\n        /* \"#utility.yul\":1571:1575   */\n      0x20\n        /* \"#utility.yul\":1566:1569   */\n      dup6\n        /* \"#utility.yul\":1562:1576   */\n      add\n        /* \"#utility.yul\":1548:1560   */\n      dup3\n        /* \"#utility.yul\":1514:1577   */\n      tag_67\n      jump\t// in\n    tag_97:\n        /* \"#utility.yul\":1421:1587   */\n      pop\n        /* \"#utility.yul\":1199:1594   */\n      pop\n        /* \"#utility.yul\":1105:1594   */\n      pop\n      pop\n      jump\t// out\n        /* \"#utility.yul\":1600:1855   */\n    tag_69:\n        /* \"#utility.yul\":1707:1717   */\n      0x00\n        /* \"#utility.yul\":1728:1812   */\n      tag_99\n        /* \"#utility.yul\":1808:1811   */\n      dup4\n        /* \"#utility.yul\":1800:1806   */\n      dup4\n        /* \"#utility.yul\":1728:1812   */\n      tag_68\n      jump\t// in\n    tag_99:\n        /* \"#utility.yul\":1844:1848   */\n      0x40\n        /* \"#utility.yul\":1839:1842   */\n      dup4\n        /* \"#utility.yul\":1835:1849   */\n      add\n        /* \"#utility.yul\":1821:1849   */\n      swap1\n      pop\n        /* \"#utility.yul\":1600:1855   */\n      swap3\n      swap2\n      pop\n      pop\n      jump\t// out\n        /* \"#utility.yul\":1861:1993   */\n    tag_70:\n        /* \"#utility.yul\":1950:1954   */\n      0x00\n        /* \"#utility.yul\":1982:1986   */\n      0x20\n        /* \"#utility.yul\":1977:1980   */\n      dup3\n        /* \"#utility.yul\":1973:1987   */\n      add\n        /* \"#utility.yul\":1965:1987   */\n      swap1\n      pop\n        /* \"#utility.yul\":1861:1993   */\n      swap2\n      swap1\n      pop\n      jump\t// out\n        /* \"#utility.yul\":2051:2935   */\n    tag_71:\n        /* \"#utility.yul\":2208:2211   */\n      0x00\n        /* \"#utility.yul\":2237:2310   */\n      tag_102\n        /* \"#utility.yul\":2304:2309   */\n      dup3\n        /* \"#utility.yul\":2237:2310   */\n      tag_60\n      jump\t// in\n    tag_102:\n        /* \"#utility.yul\":2326:2431   */\n      tag_103\n        /* \"#utility.yul\":2424:2430   */\n      dup2\n        /* \"#utility.yul\":2419:2422   */\n      dup6\n        /* \"#utility.yul\":2326:2431   */\n      tag_61\n      jump\t// in\n    tag_103:\n        /* \"#utility.yul\":2319:2431   */\n      swap4\n      pop\n        /* \"#utility.yul\":2455:2530   */\n      tag_104\n        /* \"#utility.yul\":2524:2529   */\n      dup4\n        /* \"#utility.yul\":2455:2530   */\n      tag_62\n      jump\t// in\n    tag_104:\n        /* \"#utility.yul\":2553:2560   */\n      dup1\n        /* \"#utility.yul\":2584:2585   */\n      0x00\n        /* \"#utility.yul\":2569:2910   */\n    tag_105:\n        /* \"#utility.yul\":2594:2600   */\n      dup4\n        /* \"#utility.yul\":2591:2592   */\n      dup2\n        /* \"#utility.yul\":2588:2601   */\n      lt\n        /* \"#utility.yul\":2569:2910   */\n      iszero\n      tag_107\n      jumpi\n        /* \"#utility.yul\":2670:2676   */\n      dup2\n        /* \"#utility.yul\":2664:2677   */\n      mload\n        /* \"#utility.yul\":2697:2798   */\n      tag_108\n        /* \"#utility.yul\":2794:2797   */\n      dup9\n        /* \"#utility.yul\":2779:2792   */\n      dup3\n        /* \"#utility.yul\":2697:2798   */\n      tag_69\n      jump\t// in\n    tag_108:\n        /* \"#utility.yul\":2690:2798   */\n      swap8\n      pop\n        /* \"#utility.yul\":2821:2900   */\n      tag_109\n        /* \"#utility.yul\":2893:2899   */\n      dup4\n        /* \"#utility.yul\":2821:2900   */\n      tag_70\n      jump\t// in\n    tag_109:\n        /* \"#utility.yul\":2811:2900   */\n      swap3\n      pop\n        /* \"#utility.yul\":2629:2910   */\n      pop\n        /* \"#utility.yul\":2616:2617   */\n      0x01\n        /* \"#utility.yul\":2613:2614   */\n      dup2\n        /* \"#utility.yul\":2609:2618   */\n      add\n        /* \"#utility.yul\":2604:2618   */\n      swap1\n      pop\n        /* \"#utility.yul\":2569:2910   */\n      jump(tag_105)\n    tag_107:\n        /* \"#utility.yul\":2573:2587   */\n      pop\n        /* \"#utility.yul\":2926:2929   */\n      dup6\n        /* \"#utility.yul\":2919:2929   */\n      swap4\n      pop\n        /* \"#utility.yul\":2213:2935   */\n      pop\n      pop\n      pop\n        /* \"#utility.yul\":2051:2935   */\n      swap3\n      swap2\n      pop\n      pop\n      jump\t// out\n        /* \"#utility.yul\":2941:3390   */\n    tag_11:\n        /* \"#utility.yul\":3122:3126   */\n      0x00\n        /* \"#utility.yul\":3160:3162   */\n      0x20\n        /* \"#utility.yul\":3149:3158   */\n      dup3\n        /* \"#utility.yul\":3145:3163   */\n      add\n        /* \"#utility.yul\":3137:3163   */\n      swap1\n      pop\n        /* \"#utility.yul\":3209:3218   */\n      dup2\n        /* \"#utility.yul\":3203:3207   */\n      dup2\n        /* \"#utility.yul\":3199:3219   */\n      sub\n        /* \"#utility.yul\":3195:3196   */\n      0x00\n        /* \"#utility.yul\":3184:3193   */\n      dup4\n        /* \"#utility.yul\":3180:3197   */\n      add\n        /* \"#utility.yul\":3173:3220   */\n      mstore\n        /* \"#utility.yul\":3237:3383   */\n      tag_111\n        /* \"#utility.yul\":3378:3382   */\n      dup2\n        /* \"#utility.yul\":3369:3375   */\n      dup5\n        /* \"#utility.yul\":3237:3383   */\n      tag_71\n      jump\t// in\n    tag_111:\n        /* \"#utility.yul\":3229:3383   */\n      swap1\n      pop\n        /* \"#utility.yul\":2941:3390   */\n      swap3\n      swap2\n      pop\n      pop\n      jump\t// out\n        /* \"#utility.yul\":3444:3943   */\n    tag_72:\n        /* \"#utility.yul\":3579:3583   */\n      0x40\n        /* \"#utility.yul\":3574:3577   */\n      dup3\n        /* \"#utility.yul\":3570:3584   */\n      add\n        /* \"#utility.yul\":3668:3672   */\n      0x00\n        /* \"#utility.yul\":3661:3666   */\n      dup3\n        /* \"#utility.yul\":3657:3673   */\n      add\n        /* \"#utility.yul\":3651:3674   */\n      mload\n        /* \"#utility.yul\":3687:3750   */\n      tag_113\n        /* \"#utility.yul\":3744:3748   */\n      0x00\n        /* \"#utility.yul\":3739:3742   */\n      dup6\n        /* \"#utility.yul\":3735:3749   */\n      add\n        /* \"#utility.yul\":3721:3733   */\n      dup3\n        /* \"#utility.yul\":3687:3750   */\n      tag_65\n      jump\t// in\n    tag_113:\n        /* \"#utility.yul\":3594:3760   */\n      pop\n        /* \"#utility.yul\":3844:3848   */\n      0x20\n        /* \"#utility.yul\":3837:3842   */\n      dup3\n        /* \"#utility.yul\":3833:3849   */\n      add\n        /* \"#utility.yul\":3827:3850   */\n      mload\n        /* \"#utility.yul\":3863:3926   */\n      tag_114\n        /* \"#utility.yul\":3920:3924   */\n      0x20\n        /* \"#utility.yul\":3915:3918   */\n      dup6\n        /* \"#utility.yul\":3911:3925   */\n      add\n        /* \"#utility.yul\":3897:3909   */\n      dup3\n        /* \"#utility.yul\":3863:3926   */\n      tag_67\n      jump\t// in\n    tag_114:\n        /* \"#utility.yul\":3770:3936   */\n      pop\n        /* \"#utility.yul\":3548:3943   */\n      pop\n        /* \"#utility.yul\":3444:3943   */\n      pop\n      pop\n      jump\t// out\n        /* \"#utility.yul\":3949:4247   */\n    tag_16:\n        /* \"#utility.yul\":4080:4084   */\n      0x00\n        /* \"#utility.yul\":4118:4120   */\n      0x40\n        /* \"#utility.yul\":4107:4116   */\n      dup3\n        /* \"#utility.yul\":4103:4121   */\n      add\n        /* \"#utility.yul\":4095:4121   */\n      swap1\n      pop\n        /* \"#utility.yul\":4131:4240   */\n      tag_116\n        /* \"#utility.yul\":4237:4238   */\n      0x00\n        /* \"#utility.yul\":4226:4235   */\n      dup4\n        /* \"#utility.yul\":4222:4239   */\n      add\n        /* \"#utility.yul\":4213:4219   */\n      dup5\n        /* \"#utility.yul\":4131:4240   */\n      tag_72\n      jump\t// in\n    tag_116:\n        /* \"#utility.yul\":3949:4247   */\n      swap3\n      swap2\n      pop\n      pop\n      jump\t// out\n        /* \"#utility.yul\":4253:4422   */\n    tag_73:\n        /* \"#utility.yul\":4337:4348   */\n      0x00\n        /* \"#utility.yul\":4371:4377   */\n      dup3\n        /* \"#utility.yul\":4366:4369   */\n      dup3\n        /* \"#utility.yul\":4359:4378   */\n      mstore\n        /* \"#utility.yul\":4411:4415   */\n      0x20\n        /* \"#utility.yul\":4406:4409   */\n      dup3\n        /* \"#utility.yul\":4402:4416   */\n      add\n        /* \"#utility.yul\":4387:4416   */\n      swap1\n      pop\n        /* \"#utility.yul\":4253:4422   */\n      swap3\n      swap2\n      pop\n      pop\n      jump\t// out\n        /* \"#utility.yul\":4428:4595   */\n    tag_74:\n        /* \"#utility.yul\":4568:4587   */\n      0x436f6e747261746f20657870697261646f000000000000000000000000000000\n        /* \"#utility.yul\":4564:4565   */\n      0x00\n        /* \"#utility.yul\":4556:4562   */\n      dup3\n        /* \"#utility.yul\":4552:4566   */\n      add\n        /* \"#utility.yul\":4545:4588   */\n      mstore\n        /* \"#utility.yul\":4428:4595   */\n      pop\n      jump\t// out\n        /* \"#utility.yul\":4601:4967   */\n    tag_75:\n        /* \"#utility.yul\":4743:4746   */\n      0x00\n        /* \"#utility.yul\":4764:4831   */\n      tag_120\n        /* \"#utility.yul\":4828:4830   */\n      0x11\n        /* \"#utility.yul\":4823:4826   */\n      dup4\n        /* \"#utility.yul\":4764:4831   */\n      tag_73\n      jump\t// in\n    tag_120:\n        /* \"#utility.yul\":4757:4831   */\n      swap2\n      pop\n        /* \"#utility.yul\":4840:4933   */\n      tag_121\n        /* \"#utility.yul\":4929:4932   */\n      dup3\n        /* \"#utility.yul\":4840:4933   */\n      tag_74\n      jump\t// in\n    tag_121:\n        /* \"#utility.yul\":4958:4960   */\n      0x20\n        /* \"#utility.yul\":4953:4956   */\n      dup3\n        /* \"#utility.yul\":4949:4961   */\n      add\n        /* \"#utility.yul\":4942:4961   */\n      swap1\n      pop\n        /* \"#utility.yul\":4601:4967   */\n      swap2\n      swap1\n      pop\n      jump\t// out\n        /* \"#utility.yul\":4973:5392   */\n    tag_20:\n        /* \"#utility.yul\":5139:5143   */\n      0x00\n        /* \"#utility.yul\":5177:5179   */\n      0x20\n        /* \"#utility.yul\":5166:5175   */\n      dup3\n        /* \"#utility.yul\":5162:5180   */\n      add\n        /* \"#utility.yul\":5154:5180   */\n      swap1\n      pop\n        /* \"#utility.yul\":5226:5235   */\n      dup2\n        /* \"#utility.yul\":5220:5224   */\n      dup2\n        /* \"#utility.yul\":5216:5236   */\n      sub\n        /* \"#utility.yul\":5212:5213   */\n      0x00\n        /* \"#utility.yul\":5201:5210   */\n      dup4\n        /* \"#utility.yul\":5197:5214   */\n      add\n        /* \"#utility.yul\":5190:5237   */\n      mstore\n        /* \"#utility.yul\":5254:5385   */\n      tag_123\n        /* \"#utility.yul\":5380:5384   */\n      dup2\n        /* \"#utility.yul\":5254:5385   */\n      tag_75\n      jump\t// in\n    tag_123:\n        /* \"#utility.yul\":5246:5385   */\n      swap1\n      pop\n        /* \"#utility.yul\":4973:5392   */\n      swap2\n      swap1\n      pop\n      jump\t// out\n        /* \"#utility.yul\":5398:5578   */\n    tag_76:\n        /* \"#utility.yul\":5446:5523   */\n      0x4e487b7100000000000000000000000000000000000000000000000000000000\n        /* \"#utility.yul\":5443:5444   */\n      0x00\n        /* \"#utility.yul\":5436:5524   */\n      mstore\n        /* \"#utility.yul\":5543:5547   */\n      0x11\n        /* \"#utility.yul\":5540:5541   */\n      0x04\n        /* \"#utility.yul\":5533:5548   */\n      mstore\n        /* \"#utility.yul\":5567:5571   */\n      0x24\n        /* \"#utility.yul\":5564:5565   */\n      0x00\n        /* \"#utility.yul\":5557:5572   */\n      revert\n        /* \"#utility.yul\":5584:5994   */\n    tag_23:\n        /* \"#utility.yul\":5624:5631   */\n      0x00\n        /* \"#utility.yul\":5647:5667   */\n      tag_126\n        /* \"#utility.yul\":5665:5666   */\n      dup3\n        /* \"#utility.yul\":5647:5667   */\n      tag_66\n      jump\t// in\n    tag_126:\n        /* \"#utility.yul\":5642:5667   */\n      swap2\n      pop\n        /* \"#utility.yul\":5681:5701   */\n      tag_127\n        /* \"#utility.yul\":5699:5700   */\n      dup4\n        /* \"#utility.yul\":5681:5701   */\n      tag_66\n      jump\t// in\n    tag_127:\n        /* \"#utility.yul\":5676:5701   */\n      swap3\n      pop\n        /* \"#utility.yul\":5736:5737   */\n      dup3\n        /* \"#utility.yul\":5733:5734   */\n      dup3\n        /* \"#utility.yul\":5729:5738   */\n      mul\n        /* \"#utility.yul\":5758:5788   */\n      tag_128\n        /* \"#utility.yul\":5776:5787   */\n      dup2\n        /* \"#utility.yul\":5758:5788   */\n      tag_66\n      jump\t// in\n    tag_128:\n        /* \"#utility.yul\":5747:5788   */\n      swap2\n      pop\n        /* \"#utility.yul\":5937:5938   */\n      dup3\n        /* \"#utility.yul\":5928:5935   */\n      dup3\n        /* \"#utility.yul\":5924:5939   */\n      div\n        /* \"#utility.yul\":5921:5922   */\n      dup5\n        /* \"#utility.yul\":5918:5940   */\n      eq\n        /* \"#utility.yul\":5898:5899   */\n      dup4\n        /* \"#utility.yul\":5891:5900   */\n      iszero\n        /* \"#utility.yul\":5871:5954   */\n      or\n        /* \"#utility.yul\":5848:5987   */\n      tag_129\n      jumpi\n        /* \"#utility.yul\":5967:5985   */\n      tag_130\n      tag_76\n      jump\t// in\n    tag_130:\n        /* \"#utility.yul\":5848:5987   */\n    tag_129:\n        /* \"#utility.yul\":5632:5994   */\n      pop\n        /* \"#utility.yul\":5584:5994   */\n      swap3\n      swap2\n      pop\n      pop\n      jump\t// out\n        /* \"#utility.yul\":6000:6180   */\n    tag_77:\n        /* \"#utility.yul\":6048:6125   */\n      0x4e487b7100000000000000000000000000000000000000000000000000000000\n        /* \"#utility.yul\":6045:6046   */\n      0x00\n        /* \"#utility.yul\":6038:6126   */\n      mstore\n        /* \"#utility.yul\":6145:6149   */\n      0x12\n        /* \"#utility.yul\":6142:6143   */\n      0x04\n        /* \"#utility.yul\":6135:6150   */\n      mstore\n        /* \"#utility.yul\":6169:6173   */\n      0x24\n        /* \"#utility.yul\":6166:6167   */\n      0x00\n        /* \"#utility.yul\":6159:6174   */\n      revert\n        /* \"#utility.yul\":6186:6371   */\n    tag_25:\n        /* \"#utility.yul\":6226:6227   */\n      0x00\n        /* \"#utility.yul\":6243:6263   */\n      tag_133\n        /* \"#utility.yul\":6261:6262   */\n      dup3\n        /* \"#utility.yul\":6243:6263   */\n      tag_66\n      jump\t// in\n    tag_133:\n        /* \"#utility.yul\":6238:6263   */\n      swap2\n      pop\n        /* \"#utility.yul\":6277:6297   */\n      tag_134\n        /* \"#utility.yul\":6295:6296   */\n      dup4\n        /* \"#utility.yul\":6277:6297   */\n      tag_66\n      jump\t// in\n    tag_134:\n        /* \"#utility.yul\":6272:6297   */\n      swap3\n      pop\n        /* \"#utility.yul\":6316:6317   */\n      dup3\n        /* \"#utility.yul\":6306:6341   */\n      tag_135\n      jumpi\n        /* \"#utility.yul\":6321:6339   */\n      tag_136\n      tag_77\n      jump\t// in\n    tag_136:\n        /* \"#utility.yul\":6306:6341   */\n    tag_135:\n        /* \"#utility.yul\":6363:6364   */\n      dup3\n        /* \"#utility.yul\":6360:6361   */\n      dup3\n        /* \"#utility.yul\":6356:6365   */\n      div\n        /* \"#utility.yul\":6351:6365   */\n      swap1\n      pop\n        /* \"#utility.yul\":6186:6371   */\n      swap3\n      swap2\n      pop\n      pop\n      jump\t// out\n        /* \"#utility.yul\":6377:6616   */\n    tag_78:\n        /* \"#utility.yul\":6517:6551   */\n      0x50756a6120636f6e206d656e6f7320646520352520646520696e6372656d656e\n        /* \"#utility.yul\":6513:6514   */\n      0x00\n        /* \"#utility.yul\":6505:6511   */\n      dup3\n        /* \"#utility.yul\":6501:6515   */\n      add\n        /* \"#utility.yul\":6494:6552   */\n      mstore\n        /* \"#utility.yul\":6586:6608   */\n      0x746f20736f627265206c612067616e61646f7261000000000000000000000000\n        /* \"#utility.yul\":6581:6583   */\n      0x20\n        /* \"#utility.yul\":6573:6579   */\n      dup3\n        /* \"#utility.yul\":6569:6584   */\n      add\n        /* \"#utility.yul\":6562:6609   */\n      mstore\n        /* \"#utility.yul\":6377:6616   */\n      pop\n      jump\t// out\n        /* \"#utility.yul\":6622:6988   */\n    tag_79:\n        /* \"#utility.yul\":6764:6767   */\n      0x00\n        /* \"#utility.yul\":6785:6852   */\n      tag_139\n        /* \"#utility.yul\":6849:6851   */\n      0x34\n        /* \"#utility.yul\":6844:6847   */\n      dup4\n        /* \"#utility.yul\":6785:6852   */\n      tag_73\n      jump\t// in\n    tag_139:\n        /* \"#utility.yul\":6778:6852   */\n      swap2\n      pop\n        /* \"#utility.yul\":6861:6954   */\n      tag_140\n        /* \"#utility.yul\":6950:6953   */\n      dup3\n        /* \"#utility.yul\":6861:6954   */\n      tag_78\n      jump\t// in\n    tag_140:\n        /* \"#utility.yul\":6979:6981   */\n      0x40\n        /* \"#utility.yul\":6974:6977   */\n      dup3\n        /* \"#utility.yul\":6970:6982   */\n      add\n        /* \"#utility.yul\":6963:6982   */\n      swap1\n      pop\n        /* \"#utility.yul\":6622:6988   */\n      swap2\n      swap1\n      pop\n      jump\t// out\n        /* \"#utility.yul\":6994:7413   */\n    tag_28:\n        /* \"#utility.yul\":7160:7164   */\n      0x00\n        /* \"#utility.yul\":7198:7200   */\n      0x20\n        /* \"#utility.yul\":7187:7196   */\n      dup3\n        /* \"#utility.yul\":7183:7201   */\n      add\n        /* \"#utility.yul\":7175:7201   */\n      swap1\n      pop\n        /* \"#utility.yul\":7247:7256   */\n      dup2\n        /* \"#utility.yul\":7241:7245   */\n      dup2\n        /* \"#utility.yul\":7237:7257   */\n      sub\n        /* \"#utility.yul\":7233:7234   */\n      0x00\n        /* \"#utility.yul\":7222:7231   */\n      dup4\n        /* \"#utility.yul\":7218:7235   */\n      add\n        /* \"#utility.yul\":7211:7258   */\n      mstore\n        /* \"#utility.yul\":7275:7406   */\n      tag_142\n        /* \"#utility.yul\":7401:7405   */\n      dup2\n        /* \"#utility.yul\":7275:7406   */\n      tag_79\n      jump\t// in\n    tag_142:\n        /* \"#utility.yul\":7267:7406   */\n      swap1\n      pop\n        /* \"#utility.yul\":6994:7413   */\n      swap2\n      swap1\n      pop\n      jump\t// out\n        /* \"#utility.yul\":7419:7597   */\n    tag_80:\n        /* \"#utility.yul\":7559:7589   */\n      0x5573746564207961207469656e65206c61206d656a6f722070756a6100000000\n        /* \"#utility.yul\":7555:7556   */\n      0x00\n        /* \"#utility.yul\":7547:7553   */\n      dup3\n        /* \"#utility.yul\":7543:7557   */\n      add\n        /* \"#utility.yul\":7536:7590   */\n      mstore\n        /* \"#utility.yul\":7419:7597   */\n      pop\n      jump\t// out\n        /* \"#utility.yul\":7603:7969   */\n    tag_81:\n        /* \"#utility.yul\":7745:7748   */\n      0x00\n        /* \"#utility.yul\":7766:7833   */\n      tag_145\n        /* \"#utility.yul\":7830:7832   */\n      0x1c\n        /* \"#utility.yul\":7825:7828   */\n      dup4\n        /* \"#utility.yul\":7766:7833   */\n      tag_73\n      jump\t// in\n    tag_145:\n        /* \"#utility.yul\":7759:7833   */\n      swap2\n      pop\n        /* \"#utility.yul\":7842:7935   */\n      tag_146\n        /* \"#utility.yul\":7931:7934   */\n      dup3\n        /* \"#utility.yul\":7842:7935   */\n      tag_80\n      jump\t// in\n    tag_146:\n        /* \"#utility.yul\":7960:7962   */\n      0x20\n        /* \"#utility.yul\":7955:7958   */\n      dup3\n        /* \"#utility.yul\":7951:7963   */\n      add\n        /* \"#utility.yul\":7944:7963   */\n      swap1\n      pop\n        /* \"#utility.yul\":7603:7969   */\n      swap2\n      swap1\n      pop\n      jump\t// out\n        /* \"#utility.yul\":7975:8394   */\n    tag_32:\n        /* \"#utility.yul\":8141:8145   */\n      0x00\n        /* \"#utility.yul\":8179:8181   */\n      0x20\n        /* \"#utility.yul\":8168:8177   */\n      dup3\n        /* \"#utility.yul\":8164:8182   */\n      add\n        /* \"#utility.yul\":8156:8182   */\n      swap1\n      pop\n        /* \"#utility.yul\":8228:8237   */\n      dup2\n        /* \"#utility.yul\":8222:8226   */\n      dup2\n        /* \"#utility.yul\":8218:8238   */\n      sub\n        /* \"#utility.yul\":8214:8215   */\n      0x00\n        /* \"#utility.yul\":8203:8212   */\n      dup4\n        /* \"#utility.yul\":8199:8216   */\n      add\n        /* \"#utility.yul\":8192:8239   */\n      mstore\n        /* \"#utility.yul\":8256:8387   */\n      tag_148\n        /* \"#utility.yul\":8382:8386   */\n      dup2\n        /* \"#utility.yul\":8256:8387   */\n      tag_81\n      jump\t// in\n    tag_148:\n        /* \"#utility.yul\":8248:8387   */\n      swap1\n      pop\n        /* \"#utility.yul\":7975:8394   */\n      swap2\n      swap1\n      pop\n      jump\t// out\n        /* \"#utility.yul\":8400:8518   */\n    tag_82:\n        /* \"#utility.yul\":8487:8511   */\n      tag_150\n        /* \"#utility.yul\":8505:8510   */\n      dup2\n        /* \"#utility.yul\":8487:8511   */\n      tag_66\n      jump\t// in\n    tag_150:\n        /* \"#utility.yul\":8482:8485   */\n      dup3\n        /* \"#utility.yul\":8475:8512   */\n      mstore\n        /* \"#utility.yul\":8400:8518   */\n      pop\n      pop\n      jump\t// out\n        /* \"#utility.yul\":8524:8746   */\n    tag_35:\n        /* \"#utility.yul\":8617:8621   */\n      0x00\n        /* \"#utility.yul\":8655:8657   */\n      0x20\n        /* \"#utility.yul\":8644:8653   */\n      dup3\n        /* \"#utility.yul\":8640:8658   */\n      add\n        /* \"#utility.yul\":8632:8658   */\n      swap1\n      pop\n        /* \"#utility.yul\":8668:8739   */\n      tag_152\n        /* \"#utility.yul\":8736:8737   */\n      0x00\n        /* \"#utility.yul\":8725:8734   */\n      dup4\n        /* \"#utility.yul\":8721:8738   */\n      add\n        /* \"#utility.yul\":8712:8718   */\n      dup5\n        /* \"#utility.yul\":8668:8739   */\n      tag_82\n      jump\t// in\n    tag_152:\n        /* \"#utility.yul\":8524:8746   */\n      swap3\n      swap2\n      pop\n      pop\n      jump\t// out\n        /* \"#utility.yul\":8752:8932   */\n    tag_41:\n        /* \"#utility.yul\":8800:8877   */\n      0x4e487b7100000000000000000000000000000000000000000000000000000000\n        /* \"#utility.yul\":8797:8798   */\n      0x00\n        /* \"#utility.yul\":8790:8878   */\n      mstore\n        /* \"#utility.yul\":8897:8901   */\n      0x41\n        /* \"#utility.yul\":8894:8895   */\n      0x04\n        /* \"#utility.yul\":8887:8902   */\n      mstore\n        /* \"#utility.yul\":8921:8925   */\n      0x24\n        /* \"#utility.yul\":8918:8919   */\n      0x00\n        /* \"#utility.yul\":8911:8926   */\n      revert\n        /* \"#utility.yul\":8938:9118   */\n    tag_51:\n        /* \"#utility.yul\":8986:9063   */\n      0x4e487b7100000000000000000000000000000000000000000000000000000000\n        /* \"#utility.yul\":8983:8984   */\n      0x00\n        /* \"#utility.yul\":8976:9064   */\n      mstore\n        /* \"#utility.yul\":9083:9087   */\n      0x32\n        /* \"#utility.yul\":9080:9081   */\n      0x04\n        /* \"#utility.yul\":9073:9088   */\n      mstore\n        /* \"#utility.yul\":9107:9111   */\n      0x24\n        /* \"#utility.yul\":9104:9105   */\n      0x00\n        /* \"#utility.yul\":9097:9112   */\n      revert\n\n    auxdata: 0xa2646970667358221220e61a0b917758426164d4204a9df3f2ba4d5906ae2db65d5fe7247ecdbd97621c64736f6c634300081e0033\n}\n",
				"bytecode": {
					"linkReferences": {},
					"object": "6080604052348015600e575f5ffd5b50425f81905550610e106002819055506002545f54602b91906082565b600181905550670de0b6b3a7640000600481905550606960058190555060ae565b5f819050919050565b7f4e487b71000000000000000000000000000000000000000000000000000000005f52601160045260245ffd5b5f608a82604c565b9150609383604c565b925082820190508082111560a85760a76055565b5b92915050565b6109d1806100bb5f395ff3fe608060405260043610610033575f3560e01c80631998aeef146100375780638d0f6da314610041578063ceb98f6e1461006b575b5f5ffd5b61003f610095565b005b34801561004c575f5ffd5b50610055610344565b604051610062919061067a565b60405180910390f35b348015610076575f5ffd5b5061007f6104c5565b60405161008c91906106c7565b60405180910390f35b6001544211156100da576040517f08c379a00000000000000000000000000000000000000000000000000000000081526004016100d19061073a565b60405180910390fd5b60646005546004546100ec9190610785565b6100f691906107f3565b3411610137576040517f08c379a000000000000000000000000000000000000000000000000000000000815260040161012e90610893565b60405180910390fd5b60035f9054906101000a900473ffffffffffffffffffffffffffffffffffffffff1673ffffffffffffffffffffffffffffffffffffffff163373ffffffffffffffffffffffffffffffffffffffff16036101c6576040517f08c379a00000000000000000000000000000000000000000000000000000000081526004016101bd906108fb565b60405180910390fd5b3373ffffffffffffffffffffffffffffffffffffffff167f7b6bc441ac62da4ede87e2fafbf3885745a385ec42ec7611d5d8094e7b850be13460405161020c9190610928565b60405180910390a23360035f6101000a81548173ffffffffffffffffffffffffffffffffffffffff021916908373ffffffffffffffffffffffffffffffffffffffff160217905550346004819055505f60065f3373ffffffffffffffffffffffffffffffffffffffff1673ffffffffffffffffffffffffffffffffffffffff1681526020019081526020015f20540361030057600733908060018154018082558091505060019003905f5260205f20015f9091909190916101000a81548173ffffffffffffffffffffffffffffffffffffffff021916908373ffffffffffffffffffffffffffffffffffffffff1602179055505b3460065f3373ffffffffffffffffffffffffffffffffffffffff1673ffffffffffffffffffffffffffffffffffffffff1681526020019081526020015f2081905550565b60605f60078054905090505f8167ffffffffffffffff81111561036a57610369610941565b5b6040519080825280602002602001820160405280156103a357816020015b610390610520565b8152602001906001900390816103885790505b5090505f5f90505b828110156104bc576040518060400160405280600783815481106103d2576103d161096e565b5b905f5260205f20015f9054906101000a900473ffffffffffffffffffffffffffffffffffffffff1673ffffffffffffffffffffffffffffffffffffffff16815260200160065f6007858154811061042c5761042b61096e565b5b905f5260205f20015f9054906101000a900473ffffffffffffffffffffffffffffffffffffffff1673ffffffffffffffffffffffffffffffffffffffff1673ffffffffffffffffffffffffffffffffffffffff1681526020019081526020015f20548152508282815181106104a4576104a361096e565b5b602002602001018190525080806001019150506103ab565b50809250505090565b6104cd610520565b604051806040016040528060035f9054906101000a900473ffffffffffffffffffffffffffffffffffffffff1673ffffffffffffffffffffffffffffffffffffffff168152602001600454815250905090565b60405180604001604052805f73ffffffffffffffffffffffffffffffffffffffff1681526020015f81525090565b5f81519050919050565b5f82825260208201905092915050565b5f819050602082019050919050565b5f73ffffffffffffffffffffffffffffffffffffffff82169050919050565b5f6105a082610577565b9050919050565b6105b081610596565b82525050565b5f819050919050565b6105c8816105b6565b82525050565b604082015f8201516105e25f8501826105a7565b5060208201516105f560208501826105bf565b50505050565b5f61060683836105ce565b60408301905092915050565b5f602082019050919050565b5f6106288261054e565b6106328185610558565b935061063d83610568565b805f5b8381101561066d57815161065488826105fb565b975061065f83610612565b925050600181019050610640565b5085935050505092915050565b5f6020820190508181035f830152610692818461061e565b905092915050565b604082015f8201516106ae5f8501826105a7565b5060208201516106c160208501826105bf565b50505050565b5f6040820190506106da5f83018461069a565b92915050565b5f82825260208201905092915050565b7f436f6e747261746f20657870697261646f0000000000000000000000000000005f82015250565b5f6107246011836106e0565b915061072f826106f0565b602082019050919050565b5f6020820190508181035f83015261075181610718565b9050919050565b7f4e487b71000000000000000000000000000000000000000000000000000000005f52601160045260245ffd5b5f61078f826105b6565b915061079a836105b6565b92508282026107a8816105b6565b915082820484148315176107bf576107be610758565b5b5092915050565b7f4e487b71000000000000000000000000000000000000000000000000000000005f52601260045260245ffd5b5f6107fd826105b6565b9150610808836105b6565b925082610818576108176107c6565b5b828204905092915050565b7f50756a6120636f6e206d656e6f7320646520352520646520696e6372656d656e5f8201527f746f20736f627265206c612067616e61646f7261000000000000000000000000602082015250565b5f61087d6034836106e0565b915061088882610823565b604082019050919050565b5f6020820190508181035f8301526108aa81610871565b9050919050565b7f5573746564207961207469656e65206c61206d656a6f722070756a61000000005f82015250565b5f6108e5601c836106e0565b91506108f0826108b1565b602082019050919050565b5f6020820190508181035f830152610912816108d9565b9050919050565b610922816105b6565b82525050565b5f60208201905061093b5f830184610919565b92915050565b7f4e487b71000000000000000000000000000000000000000000000000000000005f52604160045260245ffd5b7f4e487b71000000000000000000000000000000000000000000000000000000005f52603260045260245ffdfea2646970667358221220e61a0b917758426164d4204a9df3f2ba4d5906ae2db65d5fe7247ecdbd97621c64736f6c634300081e0033",
					"opcodes": "PUSH1 0x80 PUSH1 0x40 MSTORE CALLVALUE DUP1 ISZERO PUSH1 0xE JUMPI PUSH0 PUSH0 REVERT JUMPDEST POP TIMESTAMP PUSH0 DUP2 SWAP1 SSTORE POP PUSH2 0xE10 PUSH1 0x2 DUP2 SWAP1 SSTORE POP PUSH1 0x2 SLOAD PUSH0 SLOAD PUSH1 0x2B SWAP2 SWAP1 PUSH1 0x82 JUMP JUMPDEST PUSH1 0x1 DUP2 SWAP1 SSTORE POP PUSH8 0xDE0B6B3A7640000 PUSH1 0x4 DUP2 SWAP1 SSTORE POP PUSH1 0x69 PUSH1 0x5 DUP2 SWAP1 SSTORE POP PUSH1 0xAE JUMP JUMPDEST PUSH0 DUP2 SWAP1 POP SWAP2 SWAP1 POP JUMP JUMPDEST PUSH32 0x4E487B7100000000000000000000000000000000000000000000000000000000 PUSH0 MSTORE PUSH1 0x11 PUSH1 0x4 MSTORE PUSH1 0x24 PUSH0 REVERT JUMPDEST PUSH0 PUSH1 0x8A DUP3 PUSH1 0x4C JUMP JUMPDEST SWAP2 POP PUSH1 0x93 DUP4 PUSH1 0x4C JUMP JUMPDEST SWAP3 POP DUP3 DUP3 ADD SWAP1 POP DUP1 DUP3 GT ISZERO PUSH1 0xA8 JUMPI PUSH1 0xA7 PUSH1 0x55 JUMP JUMPDEST JUMPDEST SWAP3 SWAP2 POP POP JUMP JUMPDEST PUSH2 0x9D1 DUP1 PUSH2 0xBB PUSH0 CODECOPY PUSH0 RETURN INVALID PUSH1 0x80 PUSH1 0x40 MSTORE PUSH1 0x4 CALLDATASIZE LT PUSH2 0x33 JUMPI PUSH0 CALLDATALOAD PUSH1 0xE0 SHR DUP1 PUSH4 0x1998AEEF EQ PUSH2 0x37 JUMPI DUP1 PUSH4 0x8D0F6DA3 EQ PUSH2 0x41 JUMPI DUP1 PUSH4 0xCEB98F6E EQ PUSH2 0x6B JUMPI JUMPDEST PUSH0 PUSH0 REVERT JUMPDEST PUSH2 0x3F PUSH2 0x95 JUMP JUMPDEST STOP JUMPDEST CALLVALUE DUP1 ISZERO PUSH2 0x4C JUMPI PUSH0 PUSH0 REVERT JUMPDEST POP PUSH2 0x55 PUSH2 0x344 JUMP JUMPDEST PUSH1 0x40 MLOAD PUSH2 0x62 SWAP2 SWAP1 PUSH2 0x67A JUMP JUMPDEST PUSH1 0x40 MLOAD DUP1 SWAP2 SUB SWAP1 RETURN JUMPDEST CALLVALUE DUP1 ISZERO PUSH2 0x76 JUMPI PUSH0 PUSH0 REVERT JUMPDEST POP PUSH2 0x7F PUSH2 0x4C5 JUMP JUMPDEST PUSH1 0x40 MLOAD PUSH2 0x8C SWAP2 SWAP1 PUSH2 0x6C7 JUMP JUMPDEST PUSH1 0x40 MLOAD DUP1 SWAP2 SUB SWAP1 RETURN JUMPDEST PUSH1 0x1 SLOAD TIMESTAMP GT ISZERO PUSH2 0xDA JUMPI PUSH1 0x40 MLOAD PUSH32 0x8C379A000000000000000000000000000000000000000000000000000000000 DUP2 MSTORE PUSH1 0x4 ADD PUSH2 0xD1 SWAP1 PUSH2 0x73A JUMP JUMPDEST PUSH1 0x40 MLOAD DUP1 SWAP2 SUB SWAP1 REVERT JUMPDEST PUSH1 0x64 PUSH1 0x5 SLOAD PUSH1 0x4 SLOAD PUSH2 0xEC SWAP2 SWAP1 PUSH2 0x785 JUMP JUMPDEST PUSH2 0xF6 SWAP2 SWAP1 PUSH2 0x7F3 JUMP JUMPDEST CALLVALUE GT PUSH2 0x137 JUMPI PUSH1 0x40 MLOAD PUSH32 0x8C379A000000000000000000000000000000000000000000000000000000000 DUP2 MSTORE PUSH1 0x4 ADD PUSH2 0x12E SWAP1 PUSH2 0x893 JUMP JUMPDEST PUSH1 0x40 MLOAD DUP1 SWAP2 SUB SWAP1 REVERT JUMPDEST PUSH1 0x3 PUSH0 SWAP1 SLOAD SWAP1 PUSH2 0x100 EXP SWAP1 DIV PUSH20 0xFFFFFFFFFFFFFFFFFFFFFFFFFFFFFFFFFFFFFFFF AND PUSH20 0xFFFFFFFFFFFFFFFFFFFFFFFFFFFFFFFFFFFFFFFF AND CALLER PUSH20 0xFFFFFFFFFFFFFFFFFFFFFFFFFFFFFFFFFFFFFFFF AND SUB PUSH2 0x1C6 JUMPI PUSH1 0x40 MLOAD PUSH32 0x8C379A000000000000000000000000000000000000000000000000000000000 DUP2 MSTORE PUSH1 0x4 ADD PUSH2 0x1BD SWAP1 PUSH2 0x8FB JUMP JUMPDEST PUSH1 0x40 MLOAD DUP1 SWAP2 SUB SWAP1 REVERT JUMPDEST CALLER PUSH20 0xFFFFFFFFFFFFFFFFFFFFFFFFFFFFFFFFFFFFFFFF AND PUSH32 0x7B6BC441AC62DA4EDE87E2FAFBF3885745A385EC42EC7611D5D8094E7B850BE1 CALLVALUE PUSH1 0x40 MLOAD PUSH2 0x20C SWAP2 SWAP1 PUSH2 0x928 JUMP JUMPDEST PUSH1 0x40 MLOAD DUP1 SWAP2 SUB SWAP1 LOG2 CALLER PUSH1 0x3 PUSH0 PUSH2 0x100 EXP DUP2 SLOAD DUP2 PUSH20 0xFFFFFFFFFFFFFFFFFFFFFFFFFFFFFFFFFFFFFFFF MUL NOT AND SWAP1 DUP4 PUSH20 0xFFFFFFFFFFFFFFFFFFFFFFFFFFFFFFFFFFFFFFFF AND MUL OR SWAP1 SSTORE POP CALLVALUE PUSH1 0x4 DUP2 SWAP1 SSTORE POP PUSH0 PUSH1 0x6 PUSH0 CALLER PUSH20 0xFFFFFFFFFFFFFFFFFFFFFFFFFFFFFFFFFFFFFFFF AND PUSH20 0xFFFFFFFFFFFFFFFFFFFFFFFFFFFFFFFFFFFFFFFF AND DUP2 MSTORE PUSH1 0x20 ADD SWAP1 DUP2 MSTORE PUSH1 0x20 ADD PUSH0 KECCAK256 SLOAD SUB PUSH2 0x300 JUMPI PUSH1 0x7 CALLER SWAP1 DUP1 PUSH1 0x1 DUP2 SLOAD ADD DUP1 DUP3 SSTORE DUP1 SWAP2 POP POP PUSH1 0x1 SWAP1 SUB SWAP1 PUSH0 MSTORE PUSH1 0x20 PUSH0 KECCAK256 ADD PUSH0 SWAP1 SWAP2 SWAP1 SWAP2 SWAP1 SWAP2 PUSH2 0x100 EXP DUP2 SLOAD DUP2 PUSH20 0xFFFFFFFFFFFFFFFFFFFFFFFFFFFFFFFFFFFFFFFF MUL NOT AND SWAP1 DUP4 PUSH20 0xFFFFFFFFFFFFFFFFFFFFFFFFFFFFFFFFFFFFFFFF AND MUL OR SWAP1 SSTORE POP JUMPDEST CALLVALUE PUSH1 0x6 PUSH0 CALLER PUSH20 0xFFFFFFFFFFFFFFFFFFFFFFFFFFFFFFFFFFFFFFFF AND PUSH20 0xFFFFFFFFFFFFFFFFFFFFFFFFFFFFFFFFFFFFFFFF AND DUP2 MSTORE PUSH1 0x20 ADD SWAP1 DUP2 MSTORE PUSH1 0x20 ADD PUSH0 KECCAK256 DUP2 SWAP1 SSTORE POP JUMP JUMPDEST PUSH1 0x60 PUSH0 PUSH1 0x7 DUP1 SLOAD SWAP1 POP SWAP1 POP PUSH0 DUP2 PUSH8 0xFFFFFFFFFFFFFFFF DUP2 GT ISZERO PUSH2 0x36A JUMPI PUSH2 0x369 PUSH2 0x941 JUMP JUMPDEST JUMPDEST PUSH1 0x40 MLOAD SWAP1 DUP1 DUP3 MSTORE DUP1 PUSH1 0x20 MUL PUSH1 0x20 ADD DUP3 ADD PUSH1 0x40 MSTORE DUP1 ISZERO PUSH2 0x3A3 JUMPI DUP2 PUSH1 0x20 ADD JUMPDEST PUSH2 0x390 PUSH2 0x520 JUMP JUMPDEST DUP2 MSTORE PUSH1 0x20 ADD SWAP1 PUSH1 0x1 SWAP1 SUB SWAP1 DUP2 PUSH2 0x388 JUMPI SWAP1 POP JUMPDEST POP SWAP1 POP PUSH0 PUSH0 SWAP1 POP JUMPDEST DUP3 DUP2 LT ISZERO PUSH2 0x4BC JUMPI PUSH1 0x40 MLOAD DUP1 PUSH1 0x40 ADD PUSH1 0x40 MSTORE DUP1 PUSH1 0x7 DUP4 DUP2 SLOAD DUP2 LT PUSH2 0x3D2 JUMPI PUSH2 0x3D1 PUSH2 0x96E JUMP JUMPDEST JUMPDEST SWAP1 PUSH0 MSTORE PUSH1 0x20 PUSH0 KECCAK256 ADD PUSH0 SWAP1 SLOAD SWAP1 PUSH2 0x100 EXP SWAP1 DIV PUSH20 0xFFFFFFFFFFFFFFFFFFFFFFFFFFFFFFFFFFFFFFFF AND PUSH20 0xFFFFFFFFFFFFFFFFFFFFFFFFFFFFFFFFFFFFFFFF AND DUP2 MSTORE PUSH1 0x20 ADD PUSH1 0x6 PUSH0 PUSH1 0x7 DUP6 DUP2 SLOAD DUP2 LT PUSH2 0x42C JUMPI PUSH2 0x42B PUSH2 0x96E JUMP JUMPDEST JUMPDEST SWAP1 PUSH0 MSTORE PUSH1 0x20 PUSH0 KECCAK256 ADD PUSH0 SWAP1 SLOAD SWAP1 PUSH2 0x100 EXP SWAP1 DIV PUSH20 0xFFFFFFFFFFFFFFFFFFFFFFFFFFFFFFFFFFFFFFFF AND PUSH20 0xFFFFFFFFFFFFFFFFFFFFFFFFFFFFFFFFFFFFFFFF AND PUSH20 0xFFFFFFFFFFFFFFFFFFFFFFFFFFFFFFFFFFFFFFFF AND DUP2 MSTORE PUSH1 0x20 ADD SWAP1 DUP2 MSTORE PUSH1 0x20 ADD PUSH0 KECCAK256 SLOAD DUP2 MSTORE POP DUP3 DUP3 DUP2 MLOAD DUP2 LT PUSH2 0x4A4 JUMPI PUSH2 0x4A3 PUSH2 0x96E JUMP JUMPDEST JUMPDEST PUSH1 0x20 MUL PUSH1 0x20 ADD ADD DUP2 SWAP1 MSTORE POP DUP1 DUP1 PUSH1 0x1 ADD SWAP2 POP POP PUSH2 0x3AB JUMP JUMPDEST POP DUP1 SWAP3 POP POP POP SWAP1 JUMP JUMPDEST PUSH2 0x4CD PUSH2 0x520 JUMP JUMPDEST PUSH1 0x40 MLOAD DUP1 PUSH1 0x40 ADD PUSH1 0x40 MSTORE DUP1 PUSH1 0x3 PUSH0 SWAP1 SLOAD SWAP1 PUSH2 0x100 EXP SWAP1 DIV PUSH20 0xFFFFFFFFFFFFFFFFFFFFFFFFFFFFFFFFFFFFFFFF AND PUSH20 0xFFFFFFFFFFFFFFFFFFFFFFFFFFFFFFFFFFFFFFFF AND DUP2 MSTORE PUSH1 0x20 ADD PUSH1 0x4 SLOAD DUP2 MSTORE POP SWAP1 POP SWAP1 JUMP JUMPDEST PUSH1 0x40 MLOAD DUP1 PUSH1 0x40 ADD PUSH1 0x40 MSTORE DUP1 PUSH0 PUSH20 0xFFFFFFFFFFFFFFFFFFFFFFFFFFFFFFFFFFFFFFFF AND DUP2 MSTORE PUSH1 0x20 ADD PUSH0 DUP2 MSTORE POP SWAP1 JUMP JUMPDEST PUSH0 DUP2 MLOAD SWAP1 POP SWAP2 SWAP1 POP JUMP JUMPDEST PUSH0 DUP3 DUP3 MSTORE PUSH1 0x20 DUP3 ADD SWAP1 POP SWAP3 SWAP2 POP POP JUMP JUMPDEST PUSH0 DUP2 SWAP1 POP PUSH1 0x20 DUP3 ADD SWAP1 POP SWAP2 SWAP1 POP JUMP JUMPDEST PUSH0 PUSH20 0xFFFFFFFFFFFFFFFFFFFFFFFFFFFFFFFFFFFFFFFF DUP3 AND SWAP1 POP SWAP2 SWAP1 POP JUMP JUMPDEST PUSH0 PUSH2 0x5A0 DUP3 PUSH2 0x577 JUMP JUMPDEST SWAP1 POP SWAP2 SWAP1 POP JUMP JUMPDEST PUSH2 0x5B0 DUP2 PUSH2 0x596 JUMP JUMPDEST DUP3 MSTORE POP POP JUMP JUMPDEST PUSH0 DUP2 SWAP1 POP SWAP2 SWAP1 POP JUMP JUMPDEST PUSH2 0x5C8 DUP2 PUSH2 0x5B6 JUMP JUMPDEST DUP3 MSTORE POP POP JUMP JUMPDEST PUSH1 0x40 DUP3 ADD PUSH0 DUP3 ADD MLOAD PUSH2 0x5E2 PUSH0 DUP6 ADD DUP3 PUSH2 0x5A7 JUMP JUMPDEST POP PUSH1 0x20 DUP3 ADD MLOAD PUSH2 0x5F5 PUSH1 0x20 DUP6 ADD DUP3 PUSH2 0x5BF JUMP JUMPDEST POP POP POP POP JUMP JUMPDEST PUSH0 PUSH2 0x606 DUP4 DUP4 PUSH2 0x5CE JUMP JUMPDEST PUSH1 0x40 DUP4 ADD SWAP1 POP SWAP3 SWAP2 POP POP JUMP JUMPDEST PUSH0 PUSH1 0x20 DUP3 ADD SWAP1 POP SWAP2 SWAP1 POP JUMP JUMPDEST PUSH0 PUSH2 0x628 DUP3 PUSH2 0x54E JUMP JUMPDEST PUSH2 0x632 DUP2 DUP6 PUSH2 0x558 JUMP JUMPDEST SWAP4 POP PUSH2 0x63D DUP4 PUSH2 0x568 JUMP JUMPDEST DUP1 PUSH0 JUMPDEST DUP4 DUP2 LT ISZERO PUSH2 0x66D JUMPI DUP2 MLOAD PUSH2 0x654 DUP9 DUP3 PUSH2 0x5FB JUMP JUMPDEST SWAP8 POP PUSH2 0x65F DUP4 PUSH2 0x612 JUMP JUMPDEST SWAP3 POP POP PUSH1 0x1 DUP2 ADD SWAP1 POP PUSH2 0x640 JUMP JUMPDEST POP DUP6 SWAP4 POP POP POP POP SWAP3 SWAP2 POP POP JUMP JUMPDEST PUSH0 PUSH1 0x20 DUP3 ADD SWAP1 POP DUP2 DUP2 SUB PUSH0 DUP4 ADD MSTORE PUSH2 0x692 DUP2 DUP5 PUSH2 0x61E JUMP JUMPDEST SWAP1 POP SWAP3 SWAP2 POP POP JUMP JUMPDEST PUSH1 0x40 DUP3 ADD PUSH0 DUP3 ADD MLOAD PUSH2 0x6AE PUSH0 DUP6 ADD DUP3 PUSH2 0x5A7 JUMP JUMPDEST POP PUSH1 0x20 DUP3 ADD MLOAD PUSH2 0x6C1 PUSH1 0x20 DUP6 ADD DUP3 PUSH2 0x5BF JUMP JUMPDEST POP POP POP POP JUMP JUMPDEST PUSH0 PUSH1 0x40 DUP3 ADD SWAP1 POP PUSH2 0x6DA PUSH0 DUP4 ADD DUP5 PUSH2 0x69A JUMP JUMPDEST SWAP3 SWAP2 POP POP JUMP JUMPDEST PUSH0 DUP3 DUP3 MSTORE PUSH1 0x20 DUP3 ADD SWAP1 POP SWAP3 SWAP2 POP POP JUMP JUMPDEST PUSH32 0x436F6E747261746F20657870697261646F000000000000000000000000000000 PUSH0 DUP3 ADD MSTORE POP JUMP JUMPDEST PUSH0 PUSH2 0x724 PUSH1 0x11 DUP4 PUSH2 0x6E0 JUMP JUMPDEST SWAP2 POP PUSH2 0x72F DUP3 PUSH2 0x6F0 JUMP JUMPDEST PUSH1 0x20 DUP3 ADD SWAP1 POP SWAP2 SWAP1 POP JUMP JUMPDEST PUSH0 PUSH1 0x20 DUP3 ADD SWAP1 POP DUP2 DUP2 SUB PUSH0 DUP4 ADD MSTORE PUSH2 0x751 DUP2 PUSH2 0x718 JUMP JUMPDEST SWAP1 POP SWAP2 SWAP1 POP JUMP JUMPDEST PUSH32 0x4E487B7100000000000000000000000000000000000000000000000000000000 PUSH0 MSTORE PUSH1 0x11 PUSH1 0x4 MSTORE PUSH1 0x24 PUSH0 REVERT JUMPDEST PUSH0 PUSH2 0x78F DUP3 PUSH2 0x5B6 JUMP JUMPDEST SWAP2 POP PUSH2 0x79A DUP4 PUSH2 0x5B6 JUMP JUMPDEST SWAP3 POP DUP3 DUP3 MUL PUSH2 0x7A8 DUP2 PUSH2 0x5B6 JUMP JUMPDEST SWAP2 POP DUP3 DUP3 DIV DUP5 EQ DUP4 ISZERO OR PUSH2 0x7BF JUMPI PUSH2 0x7BE PUSH2 0x758 JUMP JUMPDEST JUMPDEST POP SWAP3 SWAP2 POP POP JUMP JUMPDEST PUSH32 0x4E487B7100000000000000000000000000000000000000000000000000000000 PUSH0 MSTORE PUSH1 0x12 PUSH1 0x4 MSTORE PUSH1 0x24 PUSH0 REVERT JUMPDEST PUSH0 PUSH2 0x7FD DUP3 PUSH2 0x5B6 JUMP JUMPDEST SWAP2 POP PUSH2 0x808 DUP4 PUSH2 0x5B6 JUMP JUMPDEST SWAP3 POP DUP3 PUSH2 0x818 JUMPI PUSH2 0x817 PUSH2 0x7C6 JUMP JUMPDEST JUMPDEST DUP3 DUP3 DIV SWAP1 POP SWAP3 SWAP2 POP POP JUMP JUMPDEST PUSH32 0x50756A6120636F6E206D656E6F7320646520352520646520696E6372656D656E PUSH0 DUP3 ADD MSTORE PUSH32 0x746F20736F627265206C612067616E61646F7261000000000000000000000000 PUSH1 0x20 DUP3 ADD MSTORE POP JUMP JUMPDEST PUSH0 PUSH2 0x87D PUSH1 0x34 DUP4 PUSH2 0x6E0 JUMP JUMPDEST SWAP2 POP PUSH2 0x888 DUP3 PUSH2 0x823 JUMP JUMPDEST PUSH1 0x40 DUP3 ADD SWAP1 POP SWAP2 SWAP1 POP JUMP JUMPDEST PUSH0 PUSH1 0x20 DUP3 ADD SWAP1 POP DUP2 DUP2 SUB PUSH0 DUP4 ADD MSTORE PUSH2 0x8AA DUP2 PUSH2 0x871 JUMP JUMPDEST SWAP1 POP SWAP2 SWAP1 POP JUMP JUMPDEST PUSH32 0x5573746564207961207469656E65206C61206D656A6F722070756A6100000000 PUSH0 DUP3 ADD MSTORE POP JUMP JUMPDEST PUSH0 PUSH2 0x8E5 PUSH1 0x1C DUP4 PUSH2 0x6E0 JUMP JUMPDEST SWAP2 POP PUSH2 0x8F0 DUP3 PUSH2 0x8B1 JUMP JUMPDEST PUSH1 0x20 DUP3 ADD SWAP1 POP SWAP2 SWAP1 POP JUMP JUMPDEST PUSH0 PUSH1 0x20 DUP3 ADD SWAP1 POP DUP2 DUP2 SUB PUSH0 DUP4 ADD MSTORE PUSH2 0x912 DUP2 PUSH2 0x8D9 JUMP JUMPDEST SWAP1 POP SWAP2 SWAP1 POP JUMP JUMPDEST PUSH2 0x922 DUP2 PUSH2 0x5B6 JUMP JUMPDEST DUP3 MSTORE POP POP JUMP JUMPDEST PUSH0 PUSH1 0x20 DUP3 ADD SWAP1 POP PUSH2 0x93B PUSH0 DUP4 ADD DUP5 PUSH2 0x919 JUMP JUMPDEST SWAP3 SWAP2 POP POP JUMP JUMPDEST PUSH32 0x4E487B7100000000000000000000000000000000000000000000000000000000 PUSH0 MSTORE PUSH1 0x41 PUSH1 0x4 MSTORE PUSH1 0x24 PUSH0 REVERT JUMPDEST PUSH32 0x4E487B7100000000000000000000000000000000000000000000000000000000 PUSH0 MSTORE PUSH1 0x32 PUSH1 0x4 MSTORE PUSH1 0x24 PUSH0 REVERT INVALID LOG2 PUSH5 0x6970667358 0x22 SLT KECCAK256 DUPN 0x1A SIGNEXTEND SWAP2 PUSH24 0x58426164D4204A9DF3F2BA4D5906AE2DB65D5FE7247ECDBD SWAP8 PUSH3 0x1C6473 PUSH16 0x6C634300081E00330000000000000000 "
				},
				"gasEstimates": {
					"creation": {
						"codeDepositCost": "502600",
						"executionCost": "infinite",
						"totalCost": "infinite"
					},
					"external": {
						"bid()": "infinite",
						"getAllBids()": "infinite",
						"getWinnerBid()": "4952"
					}
				},
				"methodIdentifiers": {
					"bid()": "1998aeef",
					"getAllBids()": "8d0f6da3",
					"getWinnerBid()": "ceb98f6e"
				}
			},
			"storageLayout": {
				"storage": [
					{
						"astId": 3,
						"contract": "Auction.sol:Auction",
						"label": "startDate",
						"offset": 0,
						"slot": "0",
						"type": "t_uint256"
					},
					{
						"astId": 5,
						"contract": "Auction.sol:Auction",
						"label": "endDate",
						"offset": 0,
						"slot": "1",
						"type": "t_uint256"
					},
					{
						"astId": 7,
						"contract": "Auction.sol:Auction",
						"label": "duration",
						"offset": 0,
						"slot": "2",
						"type": "t_uint256"
					},
					{
						"astId": 9,
						"contract": "Auction.sol:Auction",
						"label": "winnerBidder",
						"offset": 0,
						"slot": "3",
						"type": "t_address"
					},
					{
						"astId": 11,
						"contract": "Auction.sol:Auction",
						"label": "winnerBid",
						"offset": 0,
						"slot": "4",
						"type": "t_uint256"
					},
					{
						"astId": 13,
						"contract": "Auction.sol:Auction",
						"label": "increment",
						"offset": 0,
						"slot": "5",
						"type": "t_uint256"
					},
					{
						"astId": 22,
						"contract": "Auction.sol:Auction",
						"label": "bids",
						"offset": 0,
						"slot": "6",
						"type": "t_mapping(t_address,t_uint256)"
					},
					{
						"astId": 25,
						"contract": "Auction.sol:Auction",
						"label": "bidders",
						"offset": 0,
						"slot": "7",
						"type": "t_array(t_address)dyn_storage"
					}
				],
				"types": {
					"t_address": {
						"encoding": "inplace",
						"label": "address",
						"numberOfBytes": "20"
					},
					"t_array(t_address)dyn_storage": {
						"base": "t_address",
						"encoding": "dynamic_array",
						"label": "address[]",
						"numberOfBytes": "32"
					},
					"t_mapping(t_address,t_uint256)": {
						"encoding": "mapping",
						"key": "t_address",
						"label": "mapping(address => uint256)",
						"numberOfBytes": "32",
						"value": "t_uint256"
					},
					"t_uint256": {
						"encoding": "inplace",
						"label": "uint256",
						"numberOfBytes": "32"
					}
				}
			},
			"userdoc": {
				"kind": "user",
				"methods": {},
				"version": 1
			}
		}
	}
}