{
	"Auction.sol": {
		"Auction": {
			"abi": [
				{
					"inputs": [
						{
							"internalType": "uint256",
							"name": "_duration",
							"type": "uint256"
						},
						{
							"internalType": "uint256",
							"name": "_basePrice",
							"type": "uint256"
						},
						{
							"internalType": "uint256",
							"name": "_allowedIncrement",
							"type": "uint256"
						},
						{
							"internalType": "uint256",
							"name": "_extension",
							"type": "uint256"
						},
						{
							"internalType": "uint256",
							"name": "_gasFee",
							"type": "uint256"
						}
					],
					"stateMutability": "nonpayable",
					"type": "constructor"
				},
				{
					"anonymous": false,
					"inputs": [
						{
							"indexed": false,
							"internalType": "uint256",
							"name": "newEndTime",
							"type": "uint256"
						},
						{
							"indexed": true,
							"internalType": "address",
							"name": "lastBidder",
							"type": "address"
						},
						{
							"indexed": false,
							"internalType": "uint256",
							"name": "lastBidAmount",
							"type": "uint256"
						}
					],
					"name": "AuctionExtended",
					"type": "event"
				},
				{
					"anonymous": false,
					"inputs": [
						{
							"indexed": true,
							"internalType": "address",
							"name": "winnerBidder",
							"type": "address"
						},
						{
							"indexed": false,
							"internalType": "uint256",
							"name": "winnerBid",
							"type": "uint256"
						}
					],
					"name": "AuctionFinished",
					"type": "event"
				},
				{
					"anonymous": false,
					"inputs": [
						{
							"indexed": true,
							"internalType": "address",
							"name": "bidder",
							"type": "address"
						},
						{
							"indexed": false,
							"internalType": "uint256",
							"name": "amount",
							"type": "uint256"
						}
					],
					"name": "NewBid",
					"type": "event"
				},
				{
					"anonymous": false,
					"inputs": [
						{
							"indexed": true,
							"internalType": "address",
							"name": "bidder",
							"type": "address"
						},
						{
							"indexed": false,
							"internalType": "uint256",
							"name": "withdrawnAmount",
							"type": "uint256"
						}
					],
					"name": "PartialWithdraw",
					"type": "event"
				},
				{
					"anonymous": false,
					"inputs": [
						{
							"indexed": true,
							"internalType": "address",
							"name": "bidder",
							"type": "address"
						},
						{
							"indexed": false,
							"internalType": "uint256",
							"name": "refundAmount",
							"type": "uint256"
						}
					],
					"name": "Refund",
					"type": "event"
				},
				{
					"inputs": [],
					"name": "allowedIncrement",
					"outputs": [
						{
							"internalType": "uint256",
							"name": "",
							"type": "uint256"
						}
					],
					"stateMutability": "view",
					"type": "function"
				},
				{
					"inputs": [],
					"name": "bid",
					"outputs": [],
					"stateMutability": "payable",
					"type": "function"
				},
				{
					"inputs": [],
					"name": "duration",
					"outputs": [
						{
							"internalType": "uint256",
							"name": "",
							"type": "uint256"
						}
					],
					"stateMutability": "view",
					"type": "function"
				},
				{
					"inputs": [],
					"name": "endTime",
					"outputs": [
						{
							"internalType": "uint256",
							"name": "",
							"type": "uint256"
						}
					],
					"stateMutability": "view",
					"type": "function"
				},
				{
					"inputs": [],
					"name": "extension",
					"outputs": [
						{
							"internalType": "uint256",
							"name": "",
							"type": "uint256"
						}
					],
					"stateMutability": "view",
					"type": "function"
				},
				{
					"inputs": [],
					"name": "gasFee",
					"outputs": [
						{
							"internalType": "uint256",
							"name": "",
							"type": "uint256"
						}
					],
					"stateMutability": "view",
					"type": "function"
				},
				{
					"inputs": [],
					"name": "getBids",
					"outputs": [
						{
							"components": [
								{
									"components": [
										{
											"internalType": "address",
											"name": "bidder",
											"type": "address"
										},
										{
											"internalType": "uint256",
											"name": "amount",
											"type": "uint256"
										}
									],
									"internalType": "struct Auction.Bid",
									"name": "bid",
									"type": "tuple"
								},
								{
									"internalType": "uint256",
									"name": "pendingWithdraw",
									"type": "uint256"
								}
							],
							"internalType": "struct Auction.BidRecord[]",
							"name": "",
							"type": "tuple[]"
						}
					],
					"stateMutability": "view",
					"type": "function"
				},
				{
					"inputs": [],
					"name": "getTimeLeft",
					"outputs": [
						{
							"internalType": "uint256",
							"name": "",
							"type": "uint256"
						}
					],
					"stateMutability": "view",
					"type": "function"
				},
				{
					"inputs": [],
					"name": "getWinnerBid",
					"outputs": [
						{
							"components": [
								{
									"internalType": "address",
									"name": "bidder",
									"type": "address"
								},
								{
									"internalType": "uint256",
									"name": "amount",
									"type": "uint256"
								}
							],
							"internalType": "struct Auction.Bid",
							"name": "",
							"type": "tuple"
						}
					],
					"stateMutability": "view",
					"type": "function"
				},
				{
					"inputs": [],
					"name": "owner",
					"outputs": [
						{
							"internalType": "address",
							"name": "",
							"type": "address"
						}
					],
					"stateMutability": "view",
					"type": "function"
				},
				{
					"inputs": [],
					"name": "partialWithdraw",
					"outputs": [],
					"stateMutability": "nonpayable",
					"type": "function"
				},
				{
					"inputs": [],
					"name": "refundAll",
					"outputs": [],
					"stateMutability": "nonpayable",
					"type": "function"
				},
				{
					"inputs": [],
					"name": "startTime",
					"outputs": [
						{
							"internalType": "uint256",
							"name": "",
							"type": "uint256"
						}
					],
					"stateMutability": "view",
					"type": "function"
				},
				{
					"inputs": [],
					"name": "withdrawBalance",
					"outputs": [],
					"stateMutability": "nonpayable",
					"type": "function"
				}
			],
			"devdoc": {
				"author": "Fernando Malaspina",
				"details": "Auction rules: - Bids must be at least 5% higher than the current highest bid. - The base price for the auction is 1 ether. - Auction duration is initially set to 1 hour. - The auction is extended by 10 minutes with every valid new bid made in the last 10 minutes.   This allows other bidders enough time to respond.",
				"events": {
					"AuctionExtended(uint256,address,uint256)": {
						"params": {
							"lastBidAmount": "Amount of the triggering bid.",
							"lastBidder": "Address of the bidder who triggered the extension.",
							"newEndTime": "Updated auction end time."
						}
					},
					"AuctionFinished(address,uint256)": {
						"params": {
							"winnerBid": "Value of the winning bid in wei.",
							"winnerBidder": "Address of the auction winner."
						}
					},
					"NewBid(address,uint256)": {
						"params": {
							"amount": "Amount of the bid in wei.",
							"bidder": "Address of the wallet that placed the bid."
						}
					},
					"PartialWithdraw(address,uint256)": {
						"params": {
							"bidder": "Address of the bidder.",
							"withdrawnAmount": "Amount withdrawn in wei."
						}
					},
					"Refund(address,uint256)": {
						"params": {
							"bidder": "Address of the bidder.",
							"refundAmount": "Amount refunded in wei."
						}
					}
				},
				"kind": "dev",
				"methods": {
					"bid()": {
						"details": "Reverts if bid is not at least 5% higher or if sender is current highest bidder."
					},
					"getBids()": {
						"returns": {
							"_0": "A list of BidRecord structs containing each bidder's data."
						}
					},
					"getTimeLeft()": {
						"returns": {
							"_0": "Time left in seconds."
						}
					},
					"getWinnerBid()": {
						"returns": {
							"_0": "Struct Bid containing the highest bidder and bid amount."
						}
					},
					"withdrawBalance()": {
						"details": "Function to withdraw balance remaining in the contract"
					}
				},
				"title": "Public auction for generic assets",
				"version": 1
			},
			"evm": {
				"assembly": "    /* \"Auction.sol\":575:9520  contract Auction is BaseContract {... */\n  mstore(0x40, 0xe0)\n    /* \"Auction.sol\":2144:2149  false */\n  0x00\n    /* \"Auction.sol\":2126:2149  bool isRefunded = false */\n  0x09\n  exp(0x0100, 0x00)\n  dup2\n  sload\n  dup2\n  0xff\n  mul\n  not\n  and\n  swap1\n  dup4\n  iszero\n  iszero\n  mul\n  or\n  swap1\n  sstore\n  pop\n    /* \"Auction.sol\":2156:2556  constructor(uint256 _duration, uint256 _basePrice, uint256 _allowedIncrement, uint256 _extension, uint256 _gasFee) {... */\n  callvalue\n  dup1\n  iszero\n  tag_1\n  jumpi\n  revert(0x00, 0x00)\ntag_1:\n  pop\n  mload(0x40)\n  sub(codesize, bytecodeSize)\n  dup1\n  bytecodeSize\n  dup4\n  codecopy\n  dup2\n  dup2\n  add\n  0x40\n  mstore\n  dup2\n  add\n  swap1\n  tag_2\n  swap2\n  swap1\n  tag_3\n  jump\t// in\ntag_2:\n    /* \"BaseContract.sol\":188:189  1 */\n  0x01\n    /* \"BaseContract.sol\":426:433  _status */\n  0x00\n    /* \"BaseContract.sol\":426:448  _status = _NOT_ENTERED */\n  dup2\n  swap1\n  sstore\n  pop\n    /* \"BaseContract.sol\":466:476  msg.sender */\n  caller\n    /* \"BaseContract.sol\":458:476  owner = msg.sender */\n  0xffffffffffffffffffffffffffffffffffffffff\n  and\n  0x80\n  dup2\n  0xffffffffffffffffffffffffffffffffffffffff\n  and\n  dup2\n  mstore\n  pop\n  pop\n    /* \"Auction.sol\":2289:2299  msg.sender */\n  caller\n    /* \"Auction.sol\":2281:2299  owner = msg.sender */\n  0xffffffffffffffffffffffffffffffffffffffff\n  and\n  0x80\n  dup2\n  0xffffffffffffffffffffffffffffffffffffffff\n  and\n  dup2\n  mstore\n  pop\n  pop\n    /* \"Auction.sol\":2321:2336  block.timestamp */\n  timestamp\n    /* \"Auction.sol\":2309:2336  startTime = block.timestamp */\n  0xa0\n  dup2\n  dup2\n  mstore\n  pop\n  pop\n    /* \"Auction.sol\":2357:2366  _duration */\n  dup5\n    /* \"Auction.sol\":2346:2366  duration = _duration */\n  0xc0\n  dup2\n  dup2\n  mstore\n  pop\n  pop\n    /* \"Auction.sol\":2398:2406  duration */\n  mload(0xc0)\n    /* \"Auction.sol\":2386:2395  startTime */\n  mload(0xa0)\n    /* \"Auction.sol\":2386:2406  startTime + duration */\n  tag_8\n  swap2\n  swap1\n  tag_9\n  jump\t// in\ntag_8:\n    /* \"Auction.sol\":2376:2383  endTime */\n  0x01\n    /* \"Auction.sol\":2376:2406  endTime = startTime + duration */\n  dup2\n  swap1\n  sstore\n  pop\n    /* \"Auction.sol\":2435:2445  _basePrice */\n  dup4\n    /* \"Auction.sol\":2416:2425  winnerBid */\n  0x02\n    /* \"Auction.sol\":2416:2432  winnerBid.amount */\n  0x01\n  add\n    /* \"Auction.sol\":2416:2445  winnerBid.amount = _basePrice */\n  dup2\n  swap1\n  sstore\n  pop\n    /* \"Auction.sol\":2474:2491  _allowedIncrement */\n  dup3\n    /* \"Auction.sol\":2455:2471  allowedIncrement */\n  0x04\n    /* \"Auction.sol\":2455:2491  allowedIncrement = _allowedIncrement */\n  dup2\n  swap1\n  sstore\n  pop\n    /* \"Auction.sol\":2513:2523  _extension */\n  dup2\n    /* \"Auction.sol\":2501:2510  extension */\n  0x05\n    /* \"Auction.sol\":2501:2523  extension = _extension */\n  dup2\n  swap1\n  sstore\n  pop\n    /* \"Auction.sol\":2542:2549  _gasFee */\n  dup1\n    /* \"Auction.sol\":2533:2539  gasFee */\n  0x06\n    /* \"Auction.sol\":2533:2549  gasFee = _gasFee */\n  dup2\n  swap1\n  sstore\n  pop\n    /* \"Auction.sol\":2156:2556  constructor(uint256 _duration, uint256 _basePrice, uint256 _allowedIncrement, uint256 _extension, uint256 _gasFee) {... */\n  pop\n  pop\n  pop\n  pop\n  pop\n    /* \"Auction.sol\":575:9520  contract Auction is BaseContract {... */\n  jump(tag_10)\n    /* \"#utility.yul\":88:205   */\ntag_12:\n    /* \"#utility.yul\":197:198   */\n  0x00\n    /* \"#utility.yul\":194:195   */\n  0x00\n    /* \"#utility.yul\":187:199   */\n  revert\n    /* \"#utility.yul\":334:411   */\ntag_14:\n    /* \"#utility.yul\":371:378   */\n  0x00\n    /* \"#utility.yul\":400:405   */\n  dup2\n    /* \"#utility.yul\":389:405   */\n  swap1\n  pop\n    /* \"#utility.yul\":334:411   */\n  swap2\n  swap1\n  pop\n  jump\t// out\n    /* \"#utility.yul\":417:539   */\ntag_15:\n    /* \"#utility.yul\":490:514   */\n  tag_24\n    /* \"#utility.yul\":508:513   */\n  dup2\n    /* \"#utility.yul\":490:514   */\n  tag_14\n  jump\t// in\ntag_24:\n    /* \"#utility.yul\":483:488   */\n  dup2\n    /* \"#utility.yul\":480:515   */\n  eq\n    /* \"#utility.yul\":470:533   */\n  tag_25\n  jumpi\n    /* \"#utility.yul\":529:530   */\n  0x00\n    /* \"#utility.yul\":526:527   */\n  0x00\n    /* \"#utility.yul\":519:531   */\n  revert\n    /* \"#utility.yul\":470:533   */\ntag_25:\n    /* \"#utility.yul\":417:539   */\n  pop\n  jump\t// out\n    /* \"#utility.yul\":545:688   */\ntag_16:\n    /* \"#utility.yul\":602:607   */\n  0x00\n    /* \"#utility.yul\":633:639   */\n  dup2\n    /* \"#utility.yul\":627:640   */\n  mload\n    /* \"#utility.yul\":618:640   */\n  swap1\n  pop\n    /* \"#utility.yul\":649:682   */\n  tag_27\n    /* \"#utility.yul\":676:681   */\n  dup2\n    /* \"#utility.yul\":649:682   */\n  tag_15\n  jump\t// in\ntag_27:\n    /* \"#utility.yul\":545:688   */\n  swap3\n  swap2\n  pop\n  pop\n  jump\t// out\n    /* \"#utility.yul\":694:1671   */\ntag_3:\n    /* \"#utility.yul\":800:806   */\n  0x00\n    /* \"#utility.yul\":808:814   */\n  0x00\n    /* \"#utility.yul\":816:822   */\n  0x00\n    /* \"#utility.yul\":824:830   */\n  0x00\n    /* \"#utility.yul\":832:838   */\n  0x00\n    /* \"#utility.yul\":881:884   */\n  0xa0\n    /* \"#utility.yul\":869:878   */\n  dup7\n    /* \"#utility.yul\":860:867   */\n  dup9\n    /* \"#utility.yul\":856:879   */\n  sub\n    /* \"#utility.yul\":852:885   */\n  slt\n    /* \"#utility.yul\":849:969   */\n  iszero\n  tag_29\n  jumpi\n    /* \"#utility.yul\":888:967   */\n  tag_30\n  tag_12\n  jump\t// in\ntag_30:\n    /* \"#utility.yul\":849:969   */\ntag_29:\n    /* \"#utility.yul\":1008:1009   */\n  0x00\n    /* \"#utility.yul\":1033:1097   */\n  tag_31\n    /* \"#utility.yul\":1089:1096   */\n  dup9\n    /* \"#utility.yul\":1080:1086   */\n  dup3\n    /* \"#utility.yul\":1069:1078   */\n  dup10\n    /* \"#utility.yul\":1065:1087   */\n  add\n    /* \"#utility.yul\":1033:1097   */\n  tag_16\n  jump\t// in\ntag_31:\n    /* \"#utility.yul\":1023:1097   */\n  swap6\n  pop\n    /* \"#utility.yul\":979:1107   */\n  pop\n    /* \"#utility.yul\":1146:1148   */\n  0x20\n    /* \"#utility.yul\":1172:1236   */\n  tag_32\n    /* \"#utility.yul\":1228:1235   */\n  dup9\n    /* \"#utility.yul\":1219:1225   */\n  dup3\n    /* \"#utility.yul\":1208:1217   */\n  dup10\n    /* \"#utility.yul\":1204:1226   */\n  add\n    /* \"#utility.yul\":1172:1236   */\n  tag_16\n  jump\t// in\ntag_32:\n    /* \"#utility.yul\":1162:1236   */\n  swap5\n  pop\n    /* \"#utility.yul\":1117:1246   */\n  pop\n    /* \"#utility.yul\":1285:1287   */\n  0x40\n    /* \"#utility.yul\":1311:1375   */\n  tag_33\n    /* \"#utility.yul\":1367:1374   */\n  dup9\n    /* \"#utility.yul\":1358:1364   */\n  dup3\n    /* \"#utility.yul\":1347:1356   */\n  dup10\n    /* \"#utility.yul\":1343:1365   */\n  add\n    /* \"#utility.yul\":1311:1375   */\n  tag_16\n  jump\t// in\ntag_33:\n    /* \"#utility.yul\":1301:1375   */\n  swap4\n  pop\n    /* \"#utility.yul\":1256:1385   */\n  pop\n    /* \"#utility.yul\":1424:1426   */\n  0x60\n    /* \"#utility.yul\":1450:1514   */\n  tag_34\n    /* \"#utility.yul\":1506:1513   */\n  dup9\n    /* \"#utility.yul\":1497:1503   */\n  dup3\n    /* \"#utility.yul\":1486:1495   */\n  dup10\n    /* \"#utility.yul\":1482:1504   */\n  add\n    /* \"#utility.yul\":1450:1514   */\n  tag_16\n  jump\t// in\ntag_34:\n    /* \"#utility.yul\":1440:1514   */\n  swap3\n  pop\n    /* \"#utility.yul\":1395:1524   */\n  pop\n    /* \"#utility.yul\":1563:1566   */\n  0x80\n    /* \"#utility.yul\":1590:1654   */\n  tag_35\n    /* \"#utility.yul\":1646:1653   */\n  dup9\n    /* \"#utility.yul\":1637:1643   */\n  dup3\n    /* \"#utility.yul\":1626:1635   */\n  dup10\n    /* \"#utility.yul\":1622:1644   */\n  add\n    /* \"#utility.yul\":1590:1654   */\n  tag_16\n  jump\t// in\ntag_35:\n    /* \"#utility.yul\":1580:1654   */\n  swap2\n  pop\n    /* \"#utility.yul\":1534:1664   */\n  pop\n    /* \"#utility.yul\":694:1671   */\n  swap3\n  swap6\n  pop\n  swap3\n  swap6\n  swap1\n  swap4\n  pop\n  jump\t// out\n    /* \"#utility.yul\":1677:1857   */\ntag_17:\n    /* \"#utility.yul\":1725:1802   */\n  0x4e487b7100000000000000000000000000000000000000000000000000000000\n    /* \"#utility.yul\":1722:1723   */\n  0x00\n    /* \"#utility.yul\":1715:1803   */\n  mstore\n    /* \"#utility.yul\":1822:1826   */\n  0x11\n    /* \"#utility.yul\":1819:1820   */\n  0x04\n    /* \"#utility.yul\":1812:1827   */\n  mstore\n    /* \"#utility.yul\":1846:1850   */\n  0x24\n    /* \"#utility.yul\":1843:1844   */\n  0x00\n    /* \"#utility.yul\":1836:1851   */\n  revert\n    /* \"#utility.yul\":1863:2054   */\ntag_9:\n    /* \"#utility.yul\":1903:1906   */\n  0x00\n    /* \"#utility.yul\":1922:1942   */\n  tag_38\n    /* \"#utility.yul\":1940:1941   */\n  dup3\n    /* \"#utility.yul\":1922:1942   */\n  tag_14\n  jump\t// in\ntag_38:\n    /* \"#utility.yul\":1917:1942   */\n  swap2\n  pop\n    /* \"#utility.yul\":1956:1976   */\n  tag_39\n    /* \"#utility.yul\":1974:1975   */\n  dup4\n    /* \"#utility.yul\":1956:1976   */\n  tag_14\n  jump\t// in\ntag_39:\n    /* \"#utility.yul\":1951:1976   */\n  swap3\n  pop\n    /* \"#utility.yul\":1999:2000   */\n  dup3\n    /* \"#utility.yul\":1996:1997   */\n  dup3\n    /* \"#utility.yul\":1992:2001   */\n  add\n    /* \"#utility.yul\":1985:2001   */\n  swap1\n  pop\n    /* \"#utility.yul\":2020:2023   */\n  dup1\n    /* \"#utility.yul\":2017:2018   */\n  dup3\n    /* \"#utility.yul\":2014:2024   */\n  gt\n    /* \"#utility.yul\":2011:2047   */\n  iszero\n  tag_40\n  jumpi\n    /* \"#utility.yul\":2027:2045   */\n  tag_41\n  tag_17\n  jump\t// in\ntag_41:\n    /* \"#utility.yul\":2011:2047   */\ntag_40:\n    /* \"#utility.yul\":1863:2054   */\n  swap3\n  swap2\n  pop\n  pop\n  jump\t// out\n    /* \"Auction.sol\":575:9520  contract Auction is BaseContract {... */\ntag_10:\n  mload(0x80)\n  mload(0xa0)\n  mload(0xc0)\n  codecopy(0x00, dataOffset(sub_0), dataSize(sub_0))\n  0x00\n  assignImmutable(\"0x5c4c6aa067b6f8e6cb38e6ab843832a94d1712d661a04d73c517d6a1931a9e5d\")\n  0x00\n  assignImmutable(\"0xe4b1702d9298fee62dfeccc57d322a463ad55ca201256d01f62b45b2e1c21c10\")\n  0x00\n  assignImmutable(\"0x1df7655878a1b706ec1103c16682665cfed2def3408d4fc8b53efdf4c19e3cd2\")\n  return(0x00, dataSize(sub_0))\nstop\n\nsub_0: assembly {\n        /* \"Auction.sol\":575:9520  contract Auction is BaseContract {... */\n      mstore(0x40, 0x80)\n      jumpi(tag_1, lt(calldatasize, 0x04))\n      shr(0xe0, calldataload(0x00))\n      dup1\n      0x658612e9\n      gt\n      tag_16\n      jumpi\n      dup1\n      0xb81c78ec\n      gt\n      tag_17\n      jumpi\n      dup1\n      0xb81c78ec\n      eq\n      tag_12\n      jumpi\n      dup1\n      0xc7e284b8\n      eq\n      tag_13\n      jumpi\n      dup1\n      0xceb98f6e\n      eq\n      tag_14\n      jumpi\n      dup1\n      0xf90ca117\n      eq\n      tag_15\n      jumpi\n      jump(tag_1)\n    tag_17:\n      dup1\n      0x658612e9\n      eq\n      tag_9\n      jumpi\n      dup1\n      0x78e97925\n      eq\n      tag_10\n      jumpi\n      dup1\n      0x8da5cb5b\n      eq\n      tag_11\n      jumpi\n      jump(tag_1)\n    tag_16:\n      dup1\n      0x3197cbb6\n      gt\n      tag_18\n      jumpi\n      dup1\n      0x3197cbb6\n      eq\n      tag_5\n      jumpi\n      dup1\n      0x38e771ab\n      eq\n      tag_6\n      jumpi\n      dup1\n      0x430efe6f\n      eq\n      tag_7\n      jumpi\n      dup1\n      0x5fd8c710\n      eq\n      tag_8\n      jumpi\n      jump(tag_1)\n    tag_18:\n      dup1\n      0x0fb5a6b4\n      eq\n      tag_2\n      jumpi\n      dup1\n      0x1998aeef\n      eq\n      tag_3\n      jumpi\n      dup1\n      0x2d5537b0\n      eq\n      tag_4\n      jumpi\n    tag_1:\n      revert(0x00, 0x00)\n        /* \"Auction.sol\":902:935  uint256 public immutable duration */\n    tag_2:\n      callvalue\n      dup1\n      iszero\n      tag_19\n      jumpi\n      revert(0x00, 0x00)\n    tag_19:\n      pop\n      tag_20\n      tag_21\n      jump\t// in\n    tag_20:\n      mload(0x40)\n      tag_22\n      swap2\n      swap1\n      tag_23\n      jump\t// in\n    tag_22:\n      mload(0x40)\n      dup1\n      swap2\n      sub\n      swap1\n      return\n        /* \"Auction.sol\":5249:6149  function bid() external payable isActive onlyGreaterBid onlyOtherThanWinnerBidder {... */\n    tag_3:\n      tag_24\n      tag_25\n      jump\t// in\n    tag_24:\n      stop\n        /* \"Auction.sol\":1620:1644  uint256 public extension */\n    tag_4:\n      callvalue\n      dup1\n      iszero\n      tag_26\n      jumpi\n      revert(0x00, 0x00)\n    tag_26:\n      pop\n      tag_27\n      tag_28\n      jump\t// in\n    tag_27:\n      mload(0x40)\n      tag_29\n      swap2\n      swap1\n      tag_23\n      jump\t// in\n    tag_29:\n      mload(0x40)\n      dup1\n      swap2\n      sub\n      swap1\n      return\n        /* \"Auction.sol\":811:833  uint256 public endTime */\n    tag_5:\n      callvalue\n      dup1\n      iszero\n      tag_30\n      jumpi\n      revert(0x00, 0x00)\n    tag_30:\n      pop\n      tag_31\n      tag_32\n      jump\t// in\n    tag_31:\n      mload(0x40)\n      tag_33\n      swap2\n      swap1\n      tag_23\n      jump\t// in\n    tag_33:\n      mload(0x40)\n      dup1\n      swap2\n      sub\n      swap1\n      return\n        /* \"Auction.sol\":8058:9192  function refundAll() external onlyOwner isFinished notRefunded hasBids nonReentrant {... */\n    tag_6:\n      callvalue\n      dup1\n      iszero\n      tag_34\n      jumpi\n      revert(0x00, 0x00)\n    tag_34:\n      pop\n      tag_35\n      tag_36\n      jump\t// in\n    tag_35:\n      stop\n        /* \"Auction.sol\":1481:1512  uint256 public allowedIncrement */\n    tag_7:\n      callvalue\n      dup1\n      iszero\n      tag_37\n      jumpi\n      revert(0x00, 0x00)\n    tag_37:\n      pop\n      tag_38\n      tag_39\n      jump\t// in\n    tag_38:\n      mload(0x40)\n      tag_40\n      swap2\n      swap1\n      tag_23\n      jump\t// in\n    tag_40:\n      mload(0x40)\n      dup1\n      swap2\n      sub\n      swap1\n      return\n        /* \"Auction.sol\":9278:9516  function withdrawBalance() external isFinished onlyOwner nonReentrant {... */\n    tag_8:\n      callvalue\n      dup1\n      iszero\n      tag_41\n      jumpi\n      revert(0x00, 0x00)\n    tag_41:\n      pop\n      tag_42\n      tag_43\n      jump\t// in\n    tag_42:\n      stop\n        /* \"Auction.sol\":1756:1777  uint256 public gasFee */\n    tag_9:\n      callvalue\n      dup1\n      iszero\n      tag_44\n      jumpi\n      revert(0x00, 0x00)\n    tag_44:\n      pop\n      tag_45\n      tag_46\n      jump\t// in\n    tag_45:\n      mload(0x40)\n      tag_47\n      swap2\n      swap1\n      tag_23\n      jump\t// in\n    tag_47:\n      mload(0x40)\n      dup1\n      swap2\n      sub\n      swap1\n      return\n        /* \"Auction.sol\":678:712  uint256 public immutable startTime */\n    tag_10:\n      callvalue\n      dup1\n      iszero\n      tag_48\n      jumpi\n      revert(0x00, 0x00)\n    tag_48:\n      pop\n      tag_49\n      tag_50\n      jump\t// in\n    tag_49:\n      mload(0x40)\n      tag_51\n      swap2\n      swap1\n      tag_23\n      jump\t// in\n    tag_51:\n      mload(0x40)\n      dup1\n      swap2\n      sub\n      swap1\n      return\n        /* \"BaseContract.sol\":361:391  address public immutable owner */\n    tag_11:\n      callvalue\n      dup1\n      iszero\n      tag_52\n      jumpi\n      revert(0x00, 0x00)\n    tag_52:\n      pop\n      tag_53\n      tag_54\n      jump\t// in\n    tag_53:\n      mload(0x40)\n      tag_55\n      swap2\n      swap1\n      tag_56\n      jump\t// in\n    tag_55:\n      mload(0x40)\n      dup1\n      swap2\n      sub\n      swap1\n      return\n        /* \"Auction.sol\":6299:6611  function getBids() hasBids external view returns (BidRecord[] memory) {... */\n    tag_12:\n      callvalue\n      dup1\n      iszero\n      tag_57\n      jumpi\n      revert(0x00, 0x00)\n    tag_57:\n      pop\n      tag_58\n      tag_59\n      jump\t// in\n    tag_58:\n      mload(0x40)\n      tag_60\n      swap2\n      swap1\n      tag_61\n      jump\t// in\n    tag_60:\n      mload(0x40)\n      dup1\n      swap2\n      sub\n      swap1\n      return\n        /* \"Auction.sol\":6737:6914  function getTimeLeft() external view returns (uint256) {... */\n    tag_13:\n      callvalue\n      dup1\n      iszero\n      tag_62\n      jumpi\n      revert(0x00, 0x00)\n    tag_62:\n      pop\n      tag_63\n      tag_64\n      jump\t// in\n    tag_63:\n      mload(0x40)\n      tag_65\n      swap2\n      swap1\n      tag_23\n      jump\t// in\n    tag_65:\n      mload(0x40)\n      dup1\n      swap2\n      sub\n      swap1\n      return\n        /* \"Auction.sol\":7067:7178  function getWinnerBid() hasBids external view isFinished returns (Bid memory) {... */\n    tag_14:\n      callvalue\n      dup1\n      iszero\n      tag_66\n      jumpi\n      revert(0x00, 0x00)\n    tag_66:\n      pop\n      tag_67\n      tag_68\n      jump\t// in\n    tag_67:\n      mload(0x40)\n      tag_69\n      swap2\n      swap1\n      tag_70\n      jump\t// in\n    tag_69:\n      mload(0x40)\n      dup1\n      swap2\n      sub\n      swap1\n      return\n        /* \"Auction.sol\":7364:7804  function partialWithdraw() external isActive hasBids nonReentrant {... */\n    tag_15:\n      callvalue\n      dup1\n      iszero\n      tag_71\n      jumpi\n      revert(0x00, 0x00)\n    tag_71:\n      pop\n      tag_72\n      tag_73\n      jump\t// in\n    tag_72:\n      stop\n        /* \"Auction.sol\":902:935  uint256 public immutable duration */\n    tag_21:\n      immutable(\"0x5c4c6aa067b6f8e6cb38e6ab843832a94d1712d661a04d73c517d6a1931a9e5d\")\n      dup2\n      jump\t// out\n        /* \"Auction.sol\":5249:6149  function bid() external payable isActive onlyGreaterBid onlyOtherThanWinnerBidder {... */\n    tag_25:\n        /* \"Auction.sol\":4319:4326  endTime */\n      sload(0x01)\n        /* \"Auction.sol\":4300:4315  block.timestamp */\n      timestamp\n        /* \"Auction.sol\":4300:4326  block.timestamp <= endTime */\n      gt\n      iszero\n        /* \"Auction.sol\":4292:4350  require(block.timestamp <= endTime, \"Auction has expired\") */\n      tag_75\n      jumpi\n      mload(0x40)\n      0x08c379a000000000000000000000000000000000000000000000000000000000\n      dup2\n      mstore\n      0x04\n      add\n      tag_76\n      swap1\n      tag_77\n      jump\t// in\n    tag_76:\n      mload(0x40)\n      dup1\n      swap2\n      sub\n      swap1\n      revert\n    tag_75:\n        /* \"Auction.sol\":4862:4865  100 */\n      0x64\n        /* \"Auction.sol\":4854:4857  100 */\n      dup1\n        /* \"Auction.sol\":4835:4851  allowedIncrement */\n      sload(0x04)\n        /* \"Auction.sol\":4835:4857  allowedIncrement + 100 */\n      tag_79\n      swap2\n      swap1\n      tag_80\n      jump\t// in\n    tag_79:\n        /* \"Auction.sol\":4815:4824  winnerBid */\n      0x02\n        /* \"Auction.sol\":4815:4831  winnerBid.amount */\n      0x01\n      add\n      sload\n        /* \"Auction.sol\":4815:4858  winnerBid.amount * (allowedIncrement + 100) */\n      tag_81\n      swap2\n      swap1\n      tag_82\n      jump\t// in\n    tag_81:\n        /* \"Auction.sol\":4814:4865  (winnerBid.amount * (allowedIncrement + 100)) / 100 */\n      tag_83\n      swap2\n      swap1\n      tag_84\n      jump\t// in\n    tag_83:\n        /* \"Auction.sol\":4801:4810  msg.value */\n      callvalue\n        /* \"Auction.sol\":4801:4865  msg.value >= (winnerBid.amount * (allowedIncrement + 100)) / 100 */\n      lt\n      iszero\n        /* \"Auction.sol\":4780:4947  require(... */\n      tag_85\n      jumpi\n      mload(0x40)\n      0x08c379a000000000000000000000000000000000000000000000000000000000\n      dup2\n      mstore\n      0x04\n      add\n      tag_86\n      swap1\n      tag_87\n      jump\t// in\n    tag_86:\n      mload(0x40)\n      dup1\n      swap2\n      sub\n      swap1\n      revert\n    tag_85:\n        /* \"Auction.sol\":4667:4676  winnerBid */\n      0x02\n        /* \"Auction.sol\":4667:4683  winnerBid.bidder */\n      0x00\n      add\n      0x00\n      swap1\n      sload\n      swap1\n      0x0100\n      exp\n      swap1\n      div\n      0xffffffffffffffffffffffffffffffffffffffff\n      and\n        /* \"Auction.sol\":4653:4683  msg.sender != winnerBid.bidder */\n      0xffffffffffffffffffffffffffffffffffffffff\n      and\n        /* \"Auction.sol\":4653:4663  msg.sender */\n      caller\n        /* \"Auction.sol\":4653:4683  msg.sender != winnerBid.bidder */\n      0xffffffffffffffffffffffffffffffffffffffff\n      and\n      sub\n        /* \"Auction.sol\":4645:4720  require(msg.sender != winnerBid.bidder, \"You already have the highest bid\") */\n      tag_89\n      jumpi\n      mload(0x40)\n      0x08c379a000000000000000000000000000000000000000000000000000000000\n      dup2\n      mstore\n      0x04\n      add\n      tag_90\n      swap1\n      tag_91\n      jump\t// in\n    tag_90:\n      mload(0x40)\n      dup1\n      swap2\n      sub\n      swap1\n      revert\n    tag_89:\n        /* \"Auction.sol\":5380:5381  0 */\n      0x00\n        /* \"Auction.sol\":5352:5382  winnerBid.bidder != address(0) */\n      0xffffffffffffffffffffffffffffffffffffffff\n      and\n        /* \"Auction.sol\":5352:5361  winnerBid */\n      0x02\n        /* \"Auction.sol\":5352:5368  winnerBid.bidder */\n      0x00\n      add\n      0x00\n      swap1\n      sload\n      swap1\n      0x0100\n      exp\n      swap1\n      div\n      0xffffffffffffffffffffffffffffffffffffffff\n      and\n        /* \"Auction.sol\":5352:5382  winnerBid.bidder != address(0) */\n      0xffffffffffffffffffffffffffffffffffffffff\n      and\n      eq\n        /* \"Auction.sol\":5348:5542  if (winnerBid.bidder != address(0)) {... */\n      tag_93\n      jumpi\n        /* \"Auction.sol\":5398:5420  BidRecord storage prev */\n      0x00\n        /* \"Auction.sol\":5423:5427  bids */\n      0x07\n        /* \"Auction.sol\":5423:5445  bids[winnerBid.bidder] */\n      0x00\n        /* \"Auction.sol\":5428:5437  winnerBid */\n      0x02\n        /* \"Auction.sol\":5428:5444  winnerBid.bidder */\n      0x00\n      add\n      0x00\n      swap1\n      sload\n      swap1\n      0x0100\n      exp\n      swap1\n      div\n      0xffffffffffffffffffffffffffffffffffffffff\n      and\n        /* \"Auction.sol\":5423:5445  bids[winnerBid.bidder] */\n      0xffffffffffffffffffffffffffffffffffffffff\n      and\n      0xffffffffffffffffffffffffffffffffffffffff\n      and\n      dup2\n      mstore\n      0x20\n      add\n      swap1\n      dup2\n      mstore\n      0x20\n      add\n      0x00\n      keccak256\n        /* \"Auction.sol\":5398:5445  BidRecord storage prev = bids[winnerBid.bidder] */\n      swap1\n      pop\n        /* \"Auction.sol\":5483:5487  prev */\n      dup1\n        /* \"Auction.sol\":5483:5491  prev.bid */\n      0x00\n      add\n        /* \"Auction.sol\":5483:5498  prev.bid.amount */\n      0x01\n      add\n      sload\n        /* \"Auction.sol\":5459:5463  prev */\n      dup2\n        /* \"Auction.sol\":5459:5479  prev.pendingWithdraw */\n      0x02\n      add\n      0x00\n        /* \"Auction.sol\":5459:5498  prev.pendingWithdraw += prev.bid.amount */\n      dup3\n      dup3\n      sload\n      tag_94\n      swap2\n      swap1\n      tag_80\n      jump\t// in\n    tag_94:\n      swap3\n      pop\n      pop\n      dup2\n      swap1\n      sstore\n      pop\n        /* \"Auction.sol\":5530:5531  0 */\n      0x00\n        /* \"Auction.sol\":5512:5516  prev */\n      dup2\n        /* \"Auction.sol\":5512:5520  prev.bid */\n      0x00\n      add\n        /* \"Auction.sol\":5512:5527  prev.bid.amount */\n      0x01\n      add\n        /* \"Auction.sol\":5512:5531  prev.bid.amount = 0 */\n      dup2\n      swap1\n      sstore\n      pop\n        /* \"Auction.sol\":5384:5542  {... */\n      pop\n        /* \"Auction.sol\":5348:5542  if (winnerBid.bidder != address(0)) {... */\n    tag_93:\n        /* \"Auction.sol\":5557:5578  BidRecord storage rec */\n      0x00\n        /* \"Auction.sol\":5581:5585  bids */\n      0x07\n        /* \"Auction.sol\":5581:5597  bids[msg.sender] */\n      0x00\n        /* \"Auction.sol\":5586:5596  msg.sender */\n      caller\n        /* \"Auction.sol\":5581:5597  bids[msg.sender] */\n      0xffffffffffffffffffffffffffffffffffffffff\n      and\n      0xffffffffffffffffffffffffffffffffffffffff\n      and\n      dup2\n      mstore\n      0x20\n      add\n      swap1\n      dup2\n      mstore\n      0x20\n      add\n      0x00\n      keccak256\n        /* \"Auction.sol\":5557:5597  BidRecord storage rec = bids[msg.sender] */\n      swap1\n      pop\n        /* \"Auction.sol\":5638:5639  0 */\n      0x00\n        /* \"Auction.sol\":5612:5640  rec.bid.bidder == address(0) */\n      0xffffffffffffffffffffffffffffffffffffffff\n      and\n        /* \"Auction.sol\":5612:5615  rec */\n      dup2\n        /* \"Auction.sol\":5612:5619  rec.bid */\n      0x00\n      add\n        /* \"Auction.sol\":5612:5626  rec.bid.bidder */\n      0x00\n      add\n      0x00\n      swap1\n      sload\n      swap1\n      0x0100\n      exp\n      swap1\n      div\n      0xffffffffffffffffffffffffffffffffffffffff\n      and\n        /* \"Auction.sol\":5612:5640  rec.bid.bidder == address(0) */\n      0xffffffffffffffffffffffffffffffffffffffff\n      and\n      sub\n        /* \"Auction.sol\":5608:5788  if (rec.bid.bidder == address(0)) {          ... */\n      tag_95\n      jumpi\n        /* \"Auction.sol\":5666:5673  bidders */\n      0x08\n        /* \"Auction.sol\":5679:5689  msg.sender */\n      caller\n        /* \"Auction.sol\":5666:5690  bidders.push(msg.sender) */\n      swap1\n      dup1\n      0x01\n      dup2\n      sload\n      add\n      dup1\n      dup3\n      sstore\n      dup1\n      swap2\n      pop\n      pop\n      0x01\n      swap1\n      sub\n      swap1\n      0x00\n      mstore\n      keccak256(0x00, 0x20)\n      add\n      0x00\n      swap1\n      swap2\n      swap1\n      swap2\n      swap1\n      swap2\n      0x0100\n      exp\n      dup2\n      sload\n      dup2\n      0xffffffffffffffffffffffffffffffffffffffff\n      mul\n      not\n      and\n      swap1\n      dup4\n      0xffffffffffffffffffffffffffffffffffffffff\n      and\n      mul\n      or\n      swap1\n      sstore\n      pop\n        /* \"Auction.sol\":5608:5788  if (rec.bid.bidder == address(0)) {          ... */\n      jump(tag_97)\n    tag_95:\n        /* \"Auction.sol\":5760:5763  rec */\n      dup1\n        /* \"Auction.sol\":5760:5767  rec.bid */\n      0x00\n      add\n        /* \"Auction.sol\":5760:5774  rec.bid.amount */\n      0x01\n      add\n      sload\n        /* \"Auction.sol\":5737:5740  rec */\n      dup2\n        /* \"Auction.sol\":5737:5756  rec.pendingWithdraw */\n      0x02\n      add\n      0x00\n        /* \"Auction.sol\":5737:5774  rec.pendingWithdraw += rec.bid.amount */\n      dup3\n      dup3\n      sload\n      tag_98\n      swap2\n      swap1\n      tag_80\n      jump\t// in\n    tag_98:\n      swap3\n      pop\n      pop\n      dup2\n      swap1\n      sstore\n      pop\n        /* \"Auction.sol\":5608:5788  if (rec.bid.bidder == address(0)) {          ... */\n    tag_97:\n        /* \"Auction.sol\":5808:5834  Bid(msg.sender, msg.value) */\n      mload(0x40)\n      dup1\n      0x40\n      add\n      0x40\n      mstore\n      dup1\n        /* \"Auction.sol\":5812:5822  msg.sender */\n      caller\n        /* \"Auction.sol\":5808:5834  Bid(msg.sender, msg.value) */\n      0xffffffffffffffffffffffffffffffffffffffff\n      and\n      dup2\n      mstore\n      0x20\n      add\n        /* \"Auction.sol\":5824:5833  msg.value */\n      callvalue\n        /* \"Auction.sol\":5808:5834  Bid(msg.sender, msg.value) */\n      dup2\n      mstore\n      pop\n        /* \"Auction.sol\":5798:5801  rec */\n      dup2\n        /* \"Auction.sol\":5798:5805  rec.bid */\n      0x00\n      add\n        /* \"Auction.sol\":5798:5834  rec.bid = Bid(msg.sender, msg.value) */\n      0x00\n      dup3\n      add\n      mload\n      dup2\n      0x00\n      add\n      exp(0x0100, 0x00)\n      dup2\n      sload\n      dup2\n      0xffffffffffffffffffffffffffffffffffffffff\n      mul\n      not\n      and\n      swap1\n      dup4\n      0xffffffffffffffffffffffffffffffffffffffff\n      and\n      mul\n      or\n      swap1\n      sstore\n      pop\n      0x20\n      dup3\n      add\n      mload\n      dup2\n      0x01\n      add\n      sstore\n      swap1\n      pop\n      pop\n        /* \"Auction.sol\":5886:5912  Bid(msg.sender, msg.value) */\n      mload(0x40)\n      dup1\n      0x40\n      add\n      0x40\n      mstore\n      dup1\n        /* \"Auction.sol\":5890:5900  msg.sender */\n      caller\n        /* \"Auction.sol\":5886:5912  Bid(msg.sender, msg.value) */\n      0xffffffffffffffffffffffffffffffffffffffff\n      and\n      dup2\n      mstore\n      0x20\n      add\n        /* \"Auction.sol\":5902:5911  msg.value */\n      callvalue\n        /* \"Auction.sol\":5886:5912  Bid(msg.sender, msg.value) */\n      dup2\n      mstore\n      pop\n        /* \"Auction.sol\":5874:5883  winnerBid */\n      0x02\n        /* \"Auction.sol\":5874:5912  winnerBid = Bid(msg.sender, msg.value) */\n      0x00\n      dup3\n      add\n      mload\n      dup2\n      0x00\n      add\n      exp(0x0100, 0x00)\n      dup2\n      sload\n      dup2\n      0xffffffffffffffffffffffffffffffffffffffff\n      mul\n      not\n      and\n      swap1\n      dup4\n      0xffffffffffffffffffffffffffffffffffffffff\n      and\n      mul\n      or\n      swap1\n      sstore\n      pop\n      0x20\n      dup3\n      add\n      mload\n      dup2\n      0x01\n      add\n      sstore\n      swap1\n      pop\n      pop\n        /* \"Auction.sol\":5934:5944  msg.sender */\n      caller\n        /* \"Auction.sol\":5927:5956  NewBid(msg.sender, msg.value) */\n      0xffffffffffffffffffffffffffffffffffffffff\n      and\n      0xdd0b6c6a77960e2066c96171b4d7ac9e8b4c184011f38544afa36a5bb63ec59f\n        /* \"Auction.sol\":5946:5955  msg.value */\n      callvalue\n        /* \"Auction.sol\":5927:5956  NewBid(msg.sender, msg.value) */\n      mload(0x40)\n      tag_99\n      swap2\n      swap1\n      tag_23\n      jump\t// in\n    tag_99:\n      mload(0x40)\n      dup1\n      swap2\n      sub\n      swap1\n      log2\n        /* \"Auction.sol\":6004:6013  extension */\n      sload(0x05)\n        /* \"Auction.sol\":5994:6001  endTime */\n      sload(0x01)\n        /* \"Auction.sol\":5994:6013  endTime - extension */\n      tag_100\n      swap2\n      swap1\n      tag_101\n      jump\t// in\n    tag_100:\n        /* \"Auction.sol\":5976:5991  block.timestamp */\n      timestamp\n        /* \"Auction.sol\":5976:6013  block.timestamp > endTime - extension */\n      gt\n        /* \"Auction.sol\":5972:6143  if (block.timestamp > endTime - extension) {... */\n      iszero\n      tag_102\n      jumpi\n        /* \"Auction.sol\":6057:6066  extension */\n      sload(0x05)\n        /* \"Auction.sol\":6039:6054  block.timestamp */\n      timestamp\n        /* \"Auction.sol\":6039:6066  block.timestamp + extension */\n      tag_103\n      swap2\n      swap1\n      tag_80\n      jump\t// in\n    tag_103:\n        /* \"Auction.sol\":6029:6036  endTime */\n      0x01\n        /* \"Auction.sol\":6029:6066  endTime = block.timestamp + extension */\n      dup2\n      swap1\n      sstore\n      pop\n        /* \"Auction.sol\":6110:6120  msg.sender */\n      caller\n        /* \"Auction.sol\":6085:6132  AuctionExtended(endTime, msg.sender, msg.value) */\n      0xffffffffffffffffffffffffffffffffffffffff\n      and\n      0xbf5210f11796c8ce8b1d67add316e5a734c26896acce48ba93993f580af205ff\n        /* \"Auction.sol\":6101:6108  endTime */\n      sload(0x01)\n        /* \"Auction.sol\":6122:6131  msg.value */\n      callvalue\n        /* \"Auction.sol\":6085:6132  AuctionExtended(endTime, msg.sender, msg.value) */\n      mload(0x40)\n      tag_104\n      swap3\n      swap2\n      swap1\n      tag_105\n      jump\t// in\n    tag_104:\n      mload(0x40)\n      dup1\n      swap2\n      sub\n      swap1\n      log2\n        /* \"Auction.sol\":5972:6143  if (block.timestamp > endTime - extension) {... */\n    tag_102:\n        /* \"Auction.sol\":5331:6149  {... */\n      pop\n        /* \"Auction.sol\":5249:6149  function bid() external payable isActive onlyGreaterBid onlyOtherThanWinnerBidder {... */\n      jump\t// out\n        /* \"Auction.sol\":1620:1644  uint256 public extension */\n    tag_28:\n      sload(0x05)\n      dup2\n      jump\t// out\n        /* \"Auction.sol\":811:833  uint256 public endTime */\n    tag_32:\n      sload(0x01)\n      dup2\n      jump\t// out\n        /* \"Auction.sol\":8058:9192  function refundAll() external onlyOwner isFinished notRefunded hasBids nonReentrant {... */\n    tag_36:\n        /* \"BaseContract.sol\":601:606  owner */\n      immutable(\"0x1df7655878a1b706ec1103c16682665cfed2def3408d4fc8b53efdf4c19e3cd2\")\n        /* \"BaseContract.sol\":587:606  msg.sender == owner */\n      0xffffffffffffffffffffffffffffffffffffffff\n      and\n        /* \"BaseContract.sol\":587:597  msg.sender */\n      caller\n        /* \"BaseContract.sol\":587:606  msg.sender == owner */\n      0xffffffffffffffffffffffffffffffffffffffff\n      and\n      eq\n        /* \"BaseContract.sol\":579:645  require(msg.sender == owner, \"Only owner can perform this action\") */\n      tag_107\n      jumpi\n      mload(0x40)\n      0x08c379a000000000000000000000000000000000000000000000000000000000\n      dup2\n      mstore\n      0x04\n      add\n      tag_108\n      swap1\n      tag_109\n      jump\t// in\n    tag_108:\n      mload(0x40)\n      dup1\n      swap2\n      sub\n      swap1\n      revert\n    tag_107:\n        /* \"Auction.sol\":4433:4440  endTime */\n      sload(0x01)\n        /* \"Auction.sol\":4415:4430  block.timestamp */\n      timestamp\n        /* \"Auction.sol\":4415:4440  block.timestamp > endTime */\n      gt\n        /* \"Auction.sol\":4407:4468  require(block.timestamp > endTime, \"Auction is not finished\") */\n      tag_111\n      jumpi\n      mload(0x40)\n      0x08c379a000000000000000000000000000000000000000000000000000000000\n      dup2\n      mstore\n      0x04\n      add\n      tag_112\n      swap1\n      tag_113\n      jump\t// in\n    tag_112:\n      mload(0x40)\n      dup1\n      swap2\n      sub\n      swap1\n      revert\n    tag_111:\n        /* \"Auction.sol\":4189:4199  isRefunded */\n      0x09\n      0x00\n      swap1\n      sload\n      swap1\n      0x0100\n      exp\n      swap1\n      div\n      0xff\n      and\n        /* \"Auction.sol\":4188:4199  !isRefunded */\n      iszero\n        /* \"Auction.sol\":4180:4238  require(!isRefunded, \"Bidders have already been refunded\") */\n      tag_115\n      jumpi\n      mload(0x40)\n      0x08c379a000000000000000000000000000000000000000000000000000000000\n      dup2\n      mstore\n      0x04\n      add\n      tag_116\n      swap1\n      tag_117\n      jump\t// in\n    tag_116:\n      mload(0x40)\n      dup1\n      swap2\n      sub\n      swap1\n      revert\n    tag_115:\n        /* \"Auction.sol\":4547:4548  0 */\n      0x00\n        /* \"Auction.sol\":4529:4536  bidders */\n      0x08\n        /* \"Auction.sol\":4529:4543  bidders.length */\n      dup1\n      sload\n      swap1\n      pop\n        /* \"Auction.sol\":4529:4548  bidders.length != 0 */\n      sub\n        /* \"Auction.sol\":4521:4574  require(bidders.length != 0, \"There are no bids yet\") */\n      tag_119\n      jumpi\n      mload(0x40)\n      0x08c379a000000000000000000000000000000000000000000000000000000000\n      dup2\n      mstore\n      0x04\n      add\n      tag_120\n      swap1\n      tag_121\n      jump\t// in\n    tag_120:\n      mload(0x40)\n      dup1\n      swap2\n      sub\n      swap1\n      revert\n    tag_119:\n        /* \"BaseContract.sol\":235:236  2 */\n      0x02\n        /* \"BaseContract.sol\":776:783  _status */\n      sload(0x00)\n        /* \"BaseContract.sol\":776:795  _status != _ENTERED */\n      sub\n        /* \"BaseContract.sol\":768:831  require(_status != _ENTERED, \"ReentrancyGuard: reentrant call\") */\n      tag_123\n      jumpi\n      mload(0x40)\n      0x08c379a000000000000000000000000000000000000000000000000000000000\n      dup2\n      mstore\n      0x04\n      add\n      tag_124\n      swap1\n      tag_125\n      jump\t// in\n    tag_124:\n      mload(0x40)\n      dup1\n      swap2\n      sub\n      swap1\n      revert\n    tag_123:\n        /* \"BaseContract.sol\":235:236  2 */\n      0x02\n        /* \"BaseContract.sol\":842:849  _status */\n      0x00\n        /* \"BaseContract.sol\":842:860  _status = _ENTERED */\n      dup2\n      swap1\n      sstore\n      pop\n        /* \"Auction.sol\":8157:8168  uint256 len */\n      0x00\n        /* \"Auction.sol\":8171:8178  bidders */\n      0x08\n        /* \"Auction.sol\":8171:8185  bidders.length */\n      dup1\n      sload\n      swap1\n      pop\n        /* \"Auction.sol\":8157:8185  uint256 len = bidders.length */\n      swap1\n      pop\n        /* \"Auction.sol\":8214:8223  uint256 i */\n      0x00\n        /* \"Auction.sol\":8209:9076  for (uint256 i; i < len; ) {           ... */\n    tag_127:\n        /* \"Auction.sol\":8229:8232  len */\n      dup2\n        /* \"Auction.sol\":8225:8226  i */\n      dup2\n        /* \"Auction.sol\":8225:8232  i < len */\n      lt\n        /* \"Auction.sol\":8209:9076  for (uint256 i; i < len; ) {           ... */\n      iszero\n      tag_128\n      jumpi\n        /* \"Auction.sol\":8265:8279  address bidder */\n      0x00\n        /* \"Auction.sol\":8282:8289  bidders */\n      0x08\n        /* \"Auction.sol\":8290:8291  i */\n      dup3\n        /* \"Auction.sol\":8282:8292  bidders[i] */\n      dup2\n      sload\n      dup2\n      lt\n      tag_130\n      jumpi\n      tag_131\n      tag_132\n      jump\t// in\n    tag_131:\n    tag_130:\n      swap1\n      0x00\n      mstore\n      keccak256(0x00, 0x20)\n      add\n      0x00\n      swap1\n      sload\n      swap1\n      0x0100\n      exp\n      swap1\n      div\n      0xffffffffffffffffffffffffffffffffffffffff\n      and\n        /* \"Auction.sol\":8265:8292  address bidder = bidders[i] */\n      swap1\n      pop\n        /* \"Auction.sol\":8317:8338  BidRecord storage rec */\n      0x00\n        /* \"Auction.sol\":8341:8345  bids */\n      0x07\n        /* \"Auction.sol\":8341:8353  bids[bidder] */\n      0x00\n        /* \"Auction.sol\":8346:8352  bidder */\n      dup4\n        /* \"Auction.sol\":8341:8353  bids[bidder] */\n      0xffffffffffffffffffffffffffffffffffffffff\n      and\n      0xffffffffffffffffffffffffffffffffffffffff\n      and\n      dup2\n      mstore\n      0x20\n      add\n      swap1\n      dup2\n      mstore\n      0x20\n      add\n      0x00\n      keccak256\n        /* \"Auction.sol\":8317:8353  BidRecord storage rec = bids[bidder] */\n      swap1\n      pop\n        /* \"Auction.sol\":8371:8385  uint256 refund */\n      0x00\n        /* \"Auction.sol\":8388:8389  0 */\n      0x00\n        /* \"Auction.sol\":8371:8389  uint256 refund = 0 */\n      swap1\n      pop\n        /* \"Auction.sol\":8433:8434  0 */\n      0x00\n        /* \"Auction.sol\":8411:8414  rec */\n      dup3\n        /* \"Auction.sol\":8411:8430  rec.pendingWithdraw */\n      0x02\n      add\n      sload\n        /* \"Auction.sol\":8411:8434  rec.pendingWithdraw > 0 */\n      gt\n        /* \"Auction.sol\":8407:8576  if (rec.pendingWithdraw > 0) {... */\n      iszero\n      tag_134\n      jumpi\n        /* \"Auction.sol\":8509:8512  100 */\n      0x64\n        /* \"Auction.sol\":8498:8504  gasFee */\n      sload(0x06)\n        /* \"Auction.sol\":8492:8495  100 */\n      0x64\n        /* \"Auction.sol\":8492:8504  100 - gasFee */\n      tag_135\n      swap2\n      swap1\n      tag_101\n      jump\t// in\n    tag_135:\n        /* \"Auction.sol\":8469:8472  rec */\n      dup4\n        /* \"Auction.sol\":8469:8488  rec.pendingWithdraw */\n      0x02\n      add\n      sload\n        /* \"Auction.sol\":8469:8505  rec.pendingWithdraw * (100 - gasFee) */\n      tag_136\n      swap2\n      swap1\n      tag_82\n      jump\t// in\n    tag_136:\n        /* \"Auction.sol\":8468:8512  (rec.pendingWithdraw * (100 - gasFee)) / 100 */\n      tag_137\n      swap2\n      swap1\n      tag_84\n      jump\t// in\n    tag_137:\n        /* \"Auction.sol\":8458:8512  refund += (rec.pendingWithdraw * (100 - gasFee)) / 100 */\n      dup2\n      tag_138\n      swap2\n      swap1\n      tag_80\n      jump\t// in\n    tag_138:\n      swap1\n      pop\n        /* \"Auction.sol\":8556:8557  0 */\n      0x00\n        /* \"Auction.sol\":8534:8537  rec */\n      dup3\n        /* \"Auction.sol\":8534:8553  rec.pendingWithdraw */\n      0x02\n      add\n        /* \"Auction.sol\":8534:8557  rec.pendingWithdraw = 0 */\n      dup2\n      swap1\n      sstore\n      pop\n        /* \"Auction.sol\":8407:8576  if (rec.pendingWithdraw > 0) {... */\n    tag_134:\n        /* \"Auction.sol\":8607:8616  winnerBid */\n      0x02\n        /* \"Auction.sol\":8607:8623  winnerBid.bidder */\n      0x00\n      add\n      0x00\n      swap1\n      sload\n      swap1\n      0x0100\n      exp\n      swap1\n      div\n      0xffffffffffffffffffffffffffffffffffffffff\n      and\n        /* \"Auction.sol\":8597:8623  bidder != winnerBid.bidder */\n      0xffffffffffffffffffffffffffffffffffffffff\n      and\n        /* \"Auction.sol\":8597:8603  bidder */\n      dup4\n        /* \"Auction.sol\":8597:8623  bidder != winnerBid.bidder */\n      0xffffffffffffffffffffffffffffffffffffffff\n      and\n      eq\n      iszero\n        /* \"Auction.sol\":8597:8645  bidder != winnerBid.bidder && rec.bid.amount > 0 */\n      dup1\n      iszero\n      tag_139\n      jumpi\n      pop\n        /* \"Auction.sol\":8644:8645  0 */\n      0x00\n        /* \"Auction.sol\":8627:8630  rec */\n      dup3\n        /* \"Auction.sol\":8627:8634  rec.bid */\n      0x00\n      add\n        /* \"Auction.sol\":8627:8641  rec.bid.amount */\n      0x01\n      add\n      sload\n        /* \"Auction.sol\":8627:8645  rec.bid.amount > 0 */\n      gt\n        /* \"Auction.sol\":8597:8645  bidder != winnerBid.bidder && rec.bid.amount > 0 */\n    tag_139:\n        /* \"Auction.sol\":8593:8777  if (bidder != winnerBid.bidder && rec.bid.amount > 0) {... */\n      iszero\n      tag_140\n      jumpi\n        /* \"Auction.sol\":8715:8718  100 */\n      0x64\n        /* \"Auction.sol\":8704:8710  gasFee */\n      sload(0x06)\n        /* \"Auction.sol\":8698:8701  100 */\n      0x64\n        /* \"Auction.sol\":8698:8710  100 - gasFee */\n      tag_141\n      swap2\n      swap1\n      tag_101\n      jump\t// in\n    tag_141:\n        /* \"Auction.sol\":8680:8683  rec */\n      dup4\n        /* \"Auction.sol\":8680:8687  rec.bid */\n      0x00\n      add\n        /* \"Auction.sol\":8680:8694  rec.bid.amount */\n      0x01\n      add\n      sload\n        /* \"Auction.sol\":8680:8711  rec.bid.amount * (100 - gasFee) */\n      tag_142\n      swap2\n      swap1\n      tag_82\n      jump\t// in\n    tag_142:\n        /* \"Auction.sol\":8679:8718  (rec.bid.amount * (100 - gasFee)) / 100 */\n      tag_143\n      swap2\n      swap1\n      tag_84\n      jump\t// in\n    tag_143:\n        /* \"Auction.sol\":8669:8718  refund += (rec.bid.amount * (100 - gasFee)) / 100 */\n      dup2\n      tag_144\n      swap2\n      swap1\n      tag_80\n      jump\t// in\n    tag_144:\n      swap1\n      pop\n        /* \"Auction.sol\":8757:8758  0 */\n      0x00\n        /* \"Auction.sol\":8740:8743  rec */\n      dup3\n        /* \"Auction.sol\":8740:8747  rec.bid */\n      0x00\n      add\n        /* \"Auction.sol\":8740:8754  rec.bid.amount */\n      0x01\n      add\n        /* \"Auction.sol\":8740:8758  rec.bid.amount = 0 */\n      dup2\n      swap1\n      sstore\n      pop\n        /* \"Auction.sol\":8593:8777  if (bidder != winnerBid.bidder && rec.bid.amount > 0) {... */\n    tag_140:\n        /* \"Auction.sol\":8825:8826  0 */\n      0x00\n        /* \"Auction.sol\":8816:8822  refund */\n      dup2\n        /* \"Auction.sol\":8816:8826  refund > 0 */\n      gt\n        /* \"Auction.sol\":8812:9019  if (refund > 0) {... */\n      iszero\n      tag_145\n      jumpi\n        /* \"Auction.sol\":8851:8858  bool ok */\n      0x00\n        /* \"Auction.sol\":8872:8878  bidder */\n      dup4\n        /* \"Auction.sol\":8864:8884  payable(bidder).call */\n      0xffffffffffffffffffffffffffffffffffffffff\n      and\n        /* \"Auction.sol\":8892:8898  refund */\n      dup3\n        /* \"Auction.sol\":8864:8903  payable(bidder).call{value: refund}(\"\") */\n      mload(0x40)\n      tag_146\n      swap1\n      tag_147\n      jump\t// in\n    tag_146:\n      0x00\n      mload(0x40)\n      dup1\n      dup4\n      sub\n      dup2\n      dup6\n      dup8\n      gas\n      call\n      swap3\n      pop\n      pop\n      pop\n      returndatasize\n      dup1\n      0x00\n      dup2\n      eq\n      tag_150\n      jumpi\n      mload(0x40)\n      swap2\n      pop\n      and(add(returndatasize, 0x3f), not(0x1f))\n      dup3\n      add\n      0x40\n      mstore\n      returndatasize\n      dup3\n      mstore\n      returndatasize\n      0x00\n      0x20\n      dup5\n      add\n      returndatacopy\n      jump(tag_149)\n    tag_150:\n      0x60\n      swap2\n      pop\n    tag_149:\n      pop\n        /* \"Auction.sol\":8850:8903  (bool ok, ) = payable(bidder).call{value: refund}(\"\") */\n      pop\n      swap1\n      pop\n        /* \"Auction.sol\":8933:8935  ok */\n      dup1\n        /* \"Auction.sol\":8925:8951  require(ok, \"refund fail\") */\n      tag_151\n      jumpi\n      mload(0x40)\n      0x08c379a000000000000000000000000000000000000000000000000000000000\n      dup2\n      mstore\n      0x04\n      add\n      tag_152\n      swap1\n      tag_153\n      jump\t// in\n    tag_152:\n      mload(0x40)\n      dup1\n      swap2\n      sub\n      swap1\n      revert\n    tag_151:\n        /* \"Auction.sol\":8985:8991  bidder */\n      dup4\n        /* \"Auction.sol\":8978:9000  Refund(bidder, refund) */\n      0xffffffffffffffffffffffffffffffffffffffff\n      and\n      0xbb28353e4598c3b9199101a66e0989549b659a59a54d2c27fbb183f1932c8e6d\n        /* \"Auction.sol\":8993:8999  refund */\n      dup4\n        /* \"Auction.sol\":8978:9000  Refund(bidder, refund) */\n      mload(0x40)\n      tag_154\n      swap2\n      swap1\n      tag_23\n      jump\t// in\n    tag_154:\n      mload(0x40)\n      dup1\n      swap2\n      sub\n      swap1\n      log2\n        /* \"Auction.sol\":8828:9019  {... */\n      pop\n        /* \"Auction.sol\":8812:9019  if (refund > 0) {... */\n    tag_145:\n        /* \"Auction.sol\":9049:9052  ++i */\n      dup4\n      0x01\n      add\n      swap4\n      pop\n        /* \"Auction.sol\":8236:9076  {           ... */\n      pop\n      pop\n      pop\n        /* \"Auction.sol\":8209:9076  for (uint256 i; i < len; ) {           ... */\n      jump(tag_127)\n    tag_128:\n      pop\n        /* \"Auction.sol\":9102:9106  true */\n      0x01\n        /* \"Auction.sol\":9089:9099  isRefunded */\n      0x09\n      0x00\n        /* \"Auction.sol\":9089:9106  isRefunded = true */\n      0x0100\n      exp\n      dup2\n      sload\n      dup2\n      0xff\n      mul\n      not\n      and\n      swap1\n      dup4\n      iszero\n      iszero\n      mul\n      or\n      swap1\n      sstore\n      pop\n        /* \"Auction.sol\":9141:9150  winnerBid */\n      0x02\n        /* \"Auction.sol\":9141:9157  winnerBid.bidder */\n      0x00\n      add\n      0x00\n      swap1\n      sload\n      swap1\n      0x0100\n      exp\n      swap1\n      div\n      0xffffffffffffffffffffffffffffffffffffffff\n      and\n        /* \"Auction.sol\":9125:9176  AuctionFinished(winnerBid.bidder, winnerBid.amount) */\n      0xffffffffffffffffffffffffffffffffffffffff\n      and\n      0x8b1ad6c69d3d79a05f5b1ec0de825e9bf67c6c70b8c25babd159976cf9990dff\n        /* \"Auction.sol\":9159:9168  winnerBid */\n      0x02\n        /* \"Auction.sol\":9159:9175  winnerBid.amount */\n      0x01\n      add\n      sload\n        /* \"Auction.sol\":9125:9176  AuctionFinished(winnerBid.bidder, winnerBid.amount) */\n      mload(0x40)\n      tag_155\n      swap2\n      swap1\n      tag_23\n      jump\t// in\n    tag_155:\n      mload(0x40)\n      dup1\n      swap2\n      sub\n      swap1\n      log2\n        /* \"Auction.sol\":8142:9192  {... */\n      pop\n        /* \"BaseContract.sol\":188:189  1 */\n      0x01\n        /* \"BaseContract.sol\":881:888  _status */\n      0x00\n        /* \"BaseContract.sol\":881:903  _status = _NOT_ENTERED */\n      dup2\n      swap1\n      sstore\n      pop\n        /* \"Auction.sol\":8058:9192  function refundAll() external onlyOwner isFinished notRefunded hasBids nonReentrant {... */\n      jump\t// out\n        /* \"Auction.sol\":1481:1512  uint256 public allowedIncrement */\n    tag_39:\n      sload(0x04)\n      dup2\n      jump\t// out\n        /* \"Auction.sol\":9278:9516  function withdrawBalance() external isFinished onlyOwner nonReentrant {... */\n    tag_43:\n        /* \"Auction.sol\":4433:4440  endTime */\n      sload(0x01)\n        /* \"Auction.sol\":4415:4430  block.timestamp */\n      timestamp\n        /* \"Auction.sol\":4415:4440  block.timestamp > endTime */\n      gt\n        /* \"Auction.sol\":4407:4468  require(block.timestamp > endTime, \"Auction is not finished\") */\n      tag_157\n      jumpi\n      mload(0x40)\n      0x08c379a000000000000000000000000000000000000000000000000000000000\n      dup2\n      mstore\n      0x04\n      add\n      tag_158\n      swap1\n      tag_113\n      jump\t// in\n    tag_158:\n      mload(0x40)\n      dup1\n      swap2\n      sub\n      swap1\n      revert\n    tag_157:\n        /* \"BaseContract.sol\":601:606  owner */\n      immutable(\"0x1df7655878a1b706ec1103c16682665cfed2def3408d4fc8b53efdf4c19e3cd2\")\n        /* \"BaseContract.sol\":587:606  msg.sender == owner */\n      0xffffffffffffffffffffffffffffffffffffffff\n      and\n        /* \"BaseContract.sol\":587:597  msg.sender */\n      caller\n        /* \"BaseContract.sol\":587:606  msg.sender == owner */\n      0xffffffffffffffffffffffffffffffffffffffff\n      and\n      eq\n        /* \"BaseContract.sol\":579:645  require(msg.sender == owner, \"Only owner can perform this action\") */\n      tag_160\n      jumpi\n      mload(0x40)\n      0x08c379a000000000000000000000000000000000000000000000000000000000\n      dup2\n      mstore\n      0x04\n      add\n      tag_161\n      swap1\n      tag_109\n      jump\t// in\n    tag_161:\n      mload(0x40)\n      dup1\n      swap2\n      sub\n      swap1\n      revert\n    tag_160:\n        /* \"BaseContract.sol\":235:236  2 */\n      0x02\n        /* \"BaseContract.sol\":776:783  _status */\n      sload(0x00)\n        /* \"BaseContract.sol\":776:795  _status != _ENTERED */\n      sub\n        /* \"BaseContract.sol\":768:831  require(_status != _ENTERED, \"ReentrancyGuard: reentrant call\") */\n      tag_163\n      jumpi\n      mload(0x40)\n      0x08c379a000000000000000000000000000000000000000000000000000000000\n      dup2\n      mstore\n      0x04\n      add\n      tag_164\n      swap1\n      tag_125\n      jump\t// in\n    tag_164:\n      mload(0x40)\n      dup1\n      swap2\n      sub\n      swap1\n      revert\n    tag_163:\n        /* \"BaseContract.sol\":235:236  2 */\n      0x02\n        /* \"BaseContract.sol\":842:849  _status */\n      0x00\n        /* \"BaseContract.sol\":842:860  _status = _ENTERED */\n      dup2\n      swap1\n      sstore\n      pop\n        /* \"Auction.sol\":9366:9376  isRefunded */\n      0x09\n      0x00\n      swap1\n      sload\n      swap1\n      0x0100\n      exp\n      swap1\n      div\n      0xff\n      and\n        /* \"Auction.sol\":9358:9393  require(isRefunded, \"Refund first\") */\n      tag_166\n      jumpi\n      mload(0x40)\n      0x08c379a000000000000000000000000000000000000000000000000000000000\n      dup2\n      mstore\n      0x04\n      add\n      tag_167\n      swap1\n      tag_168\n      jump\t// in\n    tag_167:\n      mload(0x40)\n      dup1\n      swap2\n      sub\n      swap1\n      revert\n    tag_166:\n        /* \"Auction.sol\":9404:9411  bool ok */\n      0x00\n        /* \"Auction.sol\":9425:9430  owner */\n      immutable(\"0x1df7655878a1b706ec1103c16682665cfed2def3408d4fc8b53efdf4c19e3cd2\")\n        /* \"Auction.sol\":9417:9436  payable(owner).call */\n      0xffffffffffffffffffffffffffffffffffffffff\n      and\n        /* \"Auction.sol\":9444:9465  address(this).balance */\n      selfbalance\n        /* \"Auction.sol\":9417:9470  payable(owner).call{value: address(this).balance}(\"\") */\n      mload(0x40)\n      tag_169\n      swap1\n      tag_147\n      jump\t// in\n    tag_169:\n      0x00\n      mload(0x40)\n      dup1\n      dup4\n      sub\n      dup2\n      dup6\n      dup8\n      gas\n      call\n      swap3\n      pop\n      pop\n      pop\n      returndatasize\n      dup1\n      0x00\n      dup2\n      eq\n      tag_172\n      jumpi\n      mload(0x40)\n      swap2\n      pop\n      and(add(returndatasize, 0x3f), not(0x1f))\n      dup3\n      add\n      0x40\n      mstore\n      returndatasize\n      dup3\n      mstore\n      returndatasize\n      0x00\n      0x20\n      dup5\n      add\n      returndatacopy\n      jump(tag_171)\n    tag_172:\n      0x60\n      swap2\n      pop\n    tag_171:\n      pop\n        /* \"Auction.sol\":9403:9470  (bool ok, ) = payable(owner).call{value: address(this).balance}(\"\") */\n      pop\n      swap1\n      pop\n        /* \"Auction.sol\":9488:9490  ok */\n      dup1\n        /* \"Auction.sol\":9480:9508  require(ok, \"Withdraw fail\") */\n      tag_173\n      jumpi\n      mload(0x40)\n      0x08c379a000000000000000000000000000000000000000000000000000000000\n      dup2\n      mstore\n      0x04\n      add\n      tag_174\n      swap1\n      tag_175\n      jump\t// in\n    tag_174:\n      mload(0x40)\n      dup1\n      swap2\n      sub\n      swap1\n      revert\n    tag_173:\n        /* \"Auction.sol\":9348:9516  {... */\n      pop\n        /* \"BaseContract.sol\":188:189  1 */\n      0x01\n        /* \"BaseContract.sol\":881:888  _status */\n      0x00\n        /* \"BaseContract.sol\":881:903  _status = _NOT_ENTERED */\n      dup2\n      swap1\n      sstore\n      pop\n        /* \"Auction.sol\":9278:9516  function withdrawBalance() external isFinished onlyOwner nonReentrant {... */\n      jump\t// out\n        /* \"Auction.sol\":1756:1777  uint256 public gasFee */\n    tag_46:\n      sload(0x06)\n      dup2\n      jump\t// out\n        /* \"Auction.sol\":678:712  uint256 public immutable startTime */\n    tag_50:\n      immutable(\"0xe4b1702d9298fee62dfeccc57d322a463ad55ca201256d01f62b45b2e1c21c10\")\n      dup2\n      jump\t// out\n        /* \"BaseContract.sol\":361:391  address public immutable owner */\n    tag_54:\n      immutable(\"0x1df7655878a1b706ec1103c16682665cfed2def3408d4fc8b53efdf4c19e3cd2\")\n      dup2\n      jump\t// out\n        /* \"Auction.sol\":6299:6611  function getBids() hasBids external view returns (BidRecord[] memory) {... */\n    tag_59:\n        /* \"Auction.sol\":6349:6367  BidRecord[] memory */\n      0x60\n        /* \"Auction.sol\":4547:4548  0 */\n      0x00\n        /* \"Auction.sol\":4529:4536  bidders */\n      0x08\n        /* \"Auction.sol\":4529:4543  bidders.length */\n      dup1\n      sload\n      swap1\n      pop\n        /* \"Auction.sol\":4529:4548  bidders.length != 0 */\n      sub\n        /* \"Auction.sol\":4521:4574  require(bidders.length != 0, \"There are no bids yet\") */\n      tag_177\n      jumpi\n      mload(0x40)\n      0x08c379a000000000000000000000000000000000000000000000000000000000\n      dup2\n      mstore\n      0x04\n      add\n      tag_178\n      swap1\n      tag_121\n      jump\t// in\n    tag_178:\n      mload(0x40)\n      dup1\n      swap2\n      sub\n      swap1\n      revert\n    tag_177:\n        /* \"Auction.sol\":6379:6390  uint256 len */\n      0x00\n        /* \"Auction.sol\":6393:6400  bidders */\n      0x08\n        /* \"Auction.sol\":6393:6407  bidders.length */\n      dup1\n      sload\n      swap1\n      pop\n        /* \"Auction.sol\":6379:6407  uint256 len = bidders.length */\n      swap1\n      pop\n        /* \"Auction.sol\":6417:6440  BidRecord[] memory _all */\n      0x00\n        /* \"Auction.sol\":6459:6462  len */\n      dup2\n        /* \"Auction.sol\":6443:6463  new BidRecord[](len) */\n      0xffffffffffffffff\n      dup2\n      gt\n      iszero\n      tag_180\n      jumpi\n      tag_181\n      tag_182\n      jump\t// in\n    tag_181:\n    tag_180:\n      mload(0x40)\n      swap1\n      dup1\n      dup3\n      mstore\n      dup1\n      0x20\n      mul\n      0x20\n      add\n      dup3\n      add\n      0x40\n      mstore\n      dup1\n      iszero\n      tag_183\n      jumpi\n      dup2\n      0x20\n      add\n    tag_184:\n      tag_185\n      tag_186\n      jump\t// in\n    tag_185:\n      dup2\n      mstore\n      0x20\n      add\n      swap1\n      0x01\n      swap1\n      sub\n      swap1\n      dup2\n      tag_184\n      jumpi\n      swap1\n      pop\n    tag_183:\n      pop\n        /* \"Auction.sol\":6417:6463  BidRecord[] memory _all = new BidRecord[](len) */\n      swap1\n      pop\n        /* \"Auction.sol\":6479:6488  uint256 i */\n      0x00\n        /* \"Auction.sol\":6491:6492  0 */\n      0x00\n        /* \"Auction.sol\":6479:6492  uint256 i = 0 */\n      swap1\n      pop\n        /* \"Auction.sol\":6474:6584  for (uint256 i = 0; i < len; ) {... */\n    tag_187:\n        /* \"Auction.sol\":6498:6501  len */\n      dup3\n        /* \"Auction.sol\":6494:6495  i */\n      dup2\n        /* \"Auction.sol\":6494:6501  i < len */\n      lt\n        /* \"Auction.sol\":6474:6584  for (uint256 i = 0; i < len; ) {... */\n      iszero\n      tag_188\n      jumpi\n        /* \"Auction.sol\":6529:6533  bids */\n      0x07\n        /* \"Auction.sol\":6529:6545  bids[bidders[i]] */\n      0x00\n        /* \"Auction.sol\":6534:6541  bidders */\n      0x08\n        /* \"Auction.sol\":6542:6543  i */\n      dup4\n        /* \"Auction.sol\":6534:6544  bidders[i] */\n      dup2\n      sload\n      dup2\n      lt\n      tag_190\n      jumpi\n      tag_191\n      tag_132\n      jump\t// in\n    tag_191:\n    tag_190:\n      swap1\n      0x00\n      mstore\n      keccak256(0x00, 0x20)\n      add\n      0x00\n      swap1\n      sload\n      swap1\n      0x0100\n      exp\n      swap1\n      div\n      0xffffffffffffffffffffffffffffffffffffffff\n      and\n        /* \"Auction.sol\":6529:6545  bids[bidders[i]] */\n      0xffffffffffffffffffffffffffffffffffffffff\n      and\n      0xffffffffffffffffffffffffffffffffffffffff\n      and\n      dup2\n      mstore\n      0x20\n      add\n      swap1\n      dup2\n      mstore\n      0x20\n      add\n      0x00\n      keccak256\n        /* \"Auction.sol\":6519:6545  _all[i] = bids[bidders[i]] */\n      mload(0x40)\n      dup1\n      0x40\n      add\n      0x40\n      mstore\n      swap1\n      dup2\n      0x00\n      dup3\n      add\n      mload(0x40)\n      dup1\n      0x40\n      add\n      0x40\n      mstore\n      swap1\n      dup2\n      0x00\n      dup3\n      add\n      0x00\n      swap1\n      sload\n      swap1\n      0x0100\n      exp\n      swap1\n      div\n      0xffffffffffffffffffffffffffffffffffffffff\n      and\n      0xffffffffffffffffffffffffffffffffffffffff\n      and\n      0xffffffffffffffffffffffffffffffffffffffff\n      and\n      dup2\n      mstore\n      0x20\n      add\n      0x01\n      dup3\n      add\n      sload\n      dup2\n      mstore\n      pop\n      pop\n      dup2\n      mstore\n      0x20\n      add\n      0x02\n      dup3\n      add\n      sload\n      dup2\n      mstore\n      pop\n      pop\n        /* \"Auction.sol\":6519:6523  _all */\n      dup3\n        /* \"Auction.sol\":6524:6525  i */\n      dup3\n        /* \"Auction.sol\":6519:6526  _all[i] */\n      dup2\n      mload\n      dup2\n      lt\n      tag_193\n      jumpi\n      tag_194\n      tag_132\n      jump\t// in\n    tag_194:\n    tag_193:\n      0x20\n      mul\n      0x20\n      add\n      add\n        /* \"Auction.sol\":6519:6545  _all[i] = bids[bidders[i]] */\n      dup2\n      swap1\n      mstore\n      pop\n        /* \"Auction.sol\":6569:6572  i++ */\n      dup1\n      dup1\n      0x01\n      add\n      swap2\n      pop\n      pop\n        /* \"Auction.sol\":6474:6584  for (uint256 i = 0; i < len; ) {... */\n      jump(tag_187)\n    tag_188:\n      pop\n        /* \"Auction.sol\":6600:6604  _all */\n      dup1\n        /* \"Auction.sol\":6593:6604  return _all */\n      swap3\n      pop\n      pop\n      pop\n        /* \"Auction.sol\":6299:6611  function getBids() hasBids external view returns (BidRecord[] memory) {... */\n      swap1\n      jump\t// out\n        /* \"Auction.sol\":6737:6914  function getTimeLeft() external view returns (uint256) {... */\n    tag_64:\n        /* \"Auction.sol\":6783:6790  uint256 */\n      0x00\n        /* \"Auction.sol\":6824:6831  endTime */\n      sload(0x01)\n        /* \"Auction.sol\":6806:6821  block.timestamp */\n      timestamp\n        /* \"Auction.sol\":6806:6831  block.timestamp > endTime */\n      gt\n        /* \"Auction.sol\":6802:6866  if (block.timestamp > endTime) {... */\n      iszero\n      tag_196\n      jumpi\n        /* \"Auction.sol\":6854:6855  0 */\n      0x00\n        /* \"Auction.sol\":6847:6855  return 0 */\n      swap1\n      pop\n      jump(tag_195)\n        /* \"Auction.sol\":6802:6866  if (block.timestamp > endTime) {... */\n    tag_196:\n        /* \"Auction.sol\":6892:6907  block.timestamp */\n      timestamp\n        /* \"Auction.sol\":6882:6889  endTime */\n      sload(0x01)\n        /* \"Auction.sol\":6882:6907  endTime - block.timestamp */\n      tag_197\n      swap2\n      swap1\n      tag_101\n      jump\t// in\n    tag_197:\n        /* \"Auction.sol\":6875:6907  return endTime - block.timestamp */\n      swap1\n      pop\n        /* \"Auction.sol\":6737:6914  function getTimeLeft() external view returns (uint256) {... */\n    tag_195:\n      swap1\n      jump\t// out\n        /* \"Auction.sol\":7067:7178  function getWinnerBid() hasBids external view isFinished returns (Bid memory) {... */\n    tag_68:\n        /* \"Auction.sol\":7133:7143  Bid memory */\n      tag_198\n      tag_199\n      jump\t// in\n    tag_198:\n        /* \"Auction.sol\":4547:4548  0 */\n      0x00\n        /* \"Auction.sol\":4529:4536  bidders */\n      0x08\n        /* \"Auction.sol\":4529:4543  bidders.length */\n      dup1\n      sload\n      swap1\n      pop\n        /* \"Auction.sol\":4529:4548  bidders.length != 0 */\n      sub\n        /* \"Auction.sol\":4521:4574  require(bidders.length != 0, \"There are no bids yet\") */\n      tag_201\n      jumpi\n      mload(0x40)\n      0x08c379a000000000000000000000000000000000000000000000000000000000\n      dup2\n      mstore\n      0x04\n      add\n      tag_202\n      swap1\n      tag_121\n      jump\t// in\n    tag_202:\n      mload(0x40)\n      dup1\n      swap2\n      sub\n      swap1\n      revert\n    tag_201:\n        /* \"Auction.sol\":4433:4440  endTime */\n      sload(0x01)\n        /* \"Auction.sol\":4415:4430  block.timestamp */\n      timestamp\n        /* \"Auction.sol\":4415:4440  block.timestamp > endTime */\n      gt\n        /* \"Auction.sol\":4407:4468  require(block.timestamp > endTime, \"Auction is not finished\") */\n      tag_204\n      jumpi\n      mload(0x40)\n      0x08c379a000000000000000000000000000000000000000000000000000000000\n      dup2\n      mstore\n      0x04\n      add\n      tag_205\n      swap1\n      tag_113\n      jump\t// in\n    tag_205:\n      mload(0x40)\n      dup1\n      swap2\n      sub\n      swap1\n      revert\n    tag_204:\n        /* \"Auction.sol\":7162:7171  winnerBid */\n      0x02\n        /* \"Auction.sol\":7155:7171  return winnerBid */\n      mload(0x40)\n      dup1\n      0x40\n      add\n      0x40\n      mstore\n      swap1\n      dup2\n      0x00\n      dup3\n      add\n      0x00\n      swap1\n      sload\n      swap1\n      0x0100\n      exp\n      swap1\n      div\n      0xffffffffffffffffffffffffffffffffffffffff\n      and\n      0xffffffffffffffffffffffffffffffffffffffff\n      and\n      0xffffffffffffffffffffffffffffffffffffffff\n      and\n      dup2\n      mstore\n      0x20\n      add\n      0x01\n      dup3\n      add\n      sload\n      dup2\n      mstore\n      pop\n      pop\n      swap1\n      pop\n        /* \"Auction.sol\":7067:7178  function getWinnerBid() hasBids external view isFinished returns (Bid memory) {... */\n      swap1\n      jump\t// out\n        /* \"Auction.sol\":7364:7804  function partialWithdraw() external isActive hasBids nonReentrant {... */\n    tag_73:\n        /* \"Auction.sol\":4319:4326  endTime */\n      sload(0x01)\n        /* \"Auction.sol\":4300:4315  block.timestamp */\n      timestamp\n        /* \"Auction.sol\":4300:4326  block.timestamp <= endTime */\n      gt\n      iszero\n        /* \"Auction.sol\":4292:4350  require(block.timestamp <= endTime, \"Auction has expired\") */\n      tag_208\n      jumpi\n      mload(0x40)\n      0x08c379a000000000000000000000000000000000000000000000000000000000\n      dup2\n      mstore\n      0x04\n      add\n      tag_209\n      swap1\n      tag_77\n      jump\t// in\n    tag_209:\n      mload(0x40)\n      dup1\n      swap2\n      sub\n      swap1\n      revert\n    tag_208:\n        /* \"Auction.sol\":4547:4548  0 */\n      0x00\n        /* \"Auction.sol\":4529:4536  bidders */\n      0x08\n        /* \"Auction.sol\":4529:4543  bidders.length */\n      dup1\n      sload\n      swap1\n      pop\n        /* \"Auction.sol\":4529:4548  bidders.length != 0 */\n      sub\n        /* \"Auction.sol\":4521:4574  require(bidders.length != 0, \"There are no bids yet\") */\n      tag_211\n      jumpi\n      mload(0x40)\n      0x08c379a000000000000000000000000000000000000000000000000000000000\n      dup2\n      mstore\n      0x04\n      add\n      tag_212\n      swap1\n      tag_121\n      jump\t// in\n    tag_212:\n      mload(0x40)\n      dup1\n      swap2\n      sub\n      swap1\n      revert\n    tag_211:\n        /* \"BaseContract.sol\":235:236  2 */\n      0x02\n        /* \"BaseContract.sol\":776:783  _status */\n      sload(0x00)\n        /* \"BaseContract.sol\":776:795  _status != _ENTERED */\n      sub\n        /* \"BaseContract.sol\":768:831  require(_status != _ENTERED, \"ReentrancyGuard: reentrant call\") */\n      tag_214\n      jumpi\n      mload(0x40)\n      0x08c379a000000000000000000000000000000000000000000000000000000000\n      dup2\n      mstore\n      0x04\n      add\n      tag_215\n      swap1\n      tag_125\n      jump\t// in\n    tag_215:\n      mload(0x40)\n      dup1\n      swap2\n      sub\n      swap1\n      revert\n    tag_214:\n        /* \"BaseContract.sol\":235:236  2 */\n      0x02\n        /* \"BaseContract.sol\":842:849  _status */\n      0x00\n        /* \"BaseContract.sol\":842:860  _status = _ENTERED */\n      dup2\n      swap1\n      sstore\n      pop\n        /* \"Auction.sol\":7440:7463  uint256 pendingWithdraw */\n      0x00\n        /* \"Auction.sol\":7466:7470  bids */\n      0x07\n        /* \"Auction.sol\":7466:7482  bids[msg.sender] */\n      0x00\n        /* \"Auction.sol\":7471:7481  msg.sender */\n      caller\n        /* \"Auction.sol\":7466:7482  bids[msg.sender] */\n      0xffffffffffffffffffffffffffffffffffffffff\n      and\n      0xffffffffffffffffffffffffffffffffffffffff\n      and\n      dup2\n      mstore\n      0x20\n      add\n      swap1\n      dup2\n      mstore\n      0x20\n      add\n      0x00\n      keccak256\n        /* \"Auction.sol\":7466:7498  bids[msg.sender].pendingWithdraw */\n      0x02\n      add\n      sload\n        /* \"Auction.sol\":7440:7498  uint256 pendingWithdraw = bids[msg.sender].pendingWithdraw */\n      swap1\n      pop\n        /* \"Auction.sol\":7534:7535  0 */\n      0x00\n        /* \"Auction.sol\":7516:7531  pendingWithdraw */\n      dup2\n        /* \"Auction.sol\":7516:7535  pendingWithdraw > 0 */\n      gt\n        /* \"Auction.sol\":7508:7565  require(pendingWithdraw > 0, \"No pending withdraw found\") */\n      tag_217\n      jumpi\n      mload(0x40)\n      0x08c379a000000000000000000000000000000000000000000000000000000000\n      dup2\n      mstore\n      0x04\n      add\n      tag_218\n      swap1\n      tag_219\n      jump\t// in\n    tag_218:\n      mload(0x40)\n      dup1\n      swap2\n      sub\n      swap1\n      revert\n    tag_217:\n        /* \"Auction.sol\":7611:7612  0 */\n      0x00\n        /* \"Auction.sol\":7576:7580  bids */\n      0x07\n        /* \"Auction.sol\":7576:7592  bids[msg.sender] */\n      0x00\n        /* \"Auction.sol\":7581:7591  msg.sender */\n      caller\n        /* \"Auction.sol\":7576:7592  bids[msg.sender] */\n      0xffffffffffffffffffffffffffffffffffffffff\n      and\n      0xffffffffffffffffffffffffffffffffffffffff\n      and\n      dup2\n      mstore\n      0x20\n      add\n      swap1\n      dup2\n      mstore\n      0x20\n      add\n      0x00\n      keccak256\n        /* \"Auction.sol\":7576:7608  bids[msg.sender].pendingWithdraw */\n      0x02\n      add\n        /* \"Auction.sol\":7576:7612  bids[msg.sender].pendingWithdraw = 0 */\n      dup2\n      swap1\n      sstore\n      pop\n        /* \"Auction.sol\":7624:7636  bool success */\n      0x00\n        /* \"Auction.sol\":7650:7660  msg.sender */\n      caller\n        /* \"Auction.sol\":7642:7666  payable(msg.sender).call */\n      0xffffffffffffffffffffffffffffffffffffffff\n      and\n        /* \"Auction.sol\":7674:7689  pendingWithdraw */\n      dup3\n        /* \"Auction.sol\":7642:7694  payable(msg.sender).call{value: pendingWithdraw}(\"\") */\n      mload(0x40)\n      tag_220\n      swap1\n      tag_147\n      jump\t// in\n    tag_220:\n      0x00\n      mload(0x40)\n      dup1\n      dup4\n      sub\n      dup2\n      dup6\n      dup8\n      gas\n      call\n      swap3\n      pop\n      pop\n      pop\n      returndatasize\n      dup1\n      0x00\n      dup2\n      eq\n      tag_223\n      jumpi\n      mload(0x40)\n      swap2\n      pop\n      and(add(returndatasize, 0x3f), not(0x1f))\n      dup3\n      add\n      0x40\n      mstore\n      returndatasize\n      dup3\n      mstore\n      returndatasize\n      0x00\n      0x20\n      dup5\n      add\n      returndatacopy\n      jump(tag_222)\n    tag_223:\n      0x60\n      swap2\n      pop\n    tag_222:\n      pop\n        /* \"Auction.sol\":7623:7694  (bool success, ) = payable(msg.sender).call{value: pendingWithdraw}(\"\") */\n      pop\n      swap1\n      pop\n        /* \"Auction.sol\":7712:7719  success */\n      dup1\n        /* \"Auction.sol\":7704:7737  require(success, \"Refund failed\") */\n      tag_224\n      jumpi\n      mload(0x40)\n      0x08c379a000000000000000000000000000000000000000000000000000000000\n      dup2\n      mstore\n      0x04\n      add\n      tag_225\n      swap1\n      tag_226\n      jump\t// in\n    tag_225:\n      mload(0x40)\n      dup1\n      swap2\n      sub\n      swap1\n      revert\n    tag_224:\n        /* \"Auction.sol\":7769:7779  msg.sender */\n      caller\n        /* \"Auction.sol\":7753:7797  PartialWithdraw(msg.sender, pendingWithdraw) */\n      0xffffffffffffffffffffffffffffffffffffffff\n      and\n      0xd84fcbac5440aedda6d2b5f149aa3182c87252eef5bab6f061cfe022a3e166ef\n        /* \"Auction.sol\":7781:7796  pendingWithdraw */\n      dup4\n        /* \"Auction.sol\":7753:7797  PartialWithdraw(msg.sender, pendingWithdraw) */\n      mload(0x40)\n      tag_227\n      swap2\n      swap1\n      tag_23\n      jump\t// in\n    tag_227:\n      mload(0x40)\n      dup1\n      swap2\n      sub\n      swap1\n      log2\n        /* \"Auction.sol\":7430:7804  {... */\n      pop\n      pop\n        /* \"BaseContract.sol\":188:189  1 */\n      0x01\n        /* \"BaseContract.sol\":881:888  _status */\n      0x00\n        /* \"BaseContract.sol\":881:903  _status = _NOT_ENTERED */\n      dup2\n      swap1\n      sstore\n      pop\n        /* \"Auction.sol\":7364:7804  function partialWithdraw() external isActive hasBids nonReentrant {... */\n      jump\t// out\n    tag_186:\n      mload(0x40)\n      dup1\n      0x40\n      add\n      0x40\n      mstore\n      dup1\n      tag_228\n      tag_199\n      jump\t// in\n    tag_228:\n      dup2\n      mstore\n      0x20\n      add\n      0x00\n      dup2\n      mstore\n      pop\n      swap1\n      jump\t// out\n    tag_199:\n      mload(0x40)\n      dup1\n      0x40\n      add\n      0x40\n      mstore\n      dup1\n      and(0xffffffffffffffffffffffffffffffffffffffff, 0x00)\n      dup2\n      mstore\n      0x20\n      add\n      0x00\n      dup2\n      mstore\n      pop\n      swap1\n      jump\t// out\n        /* \"#utility.yul\":7:84   */\n    tag_229:\n        /* \"#utility.yul\":44:51   */\n      0x00\n        /* \"#utility.yul\":73:78   */\n      dup2\n        /* \"#utility.yul\":62:78   */\n      swap1\n      pop\n        /* \"#utility.yul\":7:84   */\n      swap2\n      swap1\n      pop\n      jump\t// out\n        /* \"#utility.yul\":90:208   */\n    tag_230:\n        /* \"#utility.yul\":177:201   */\n      tag_280\n        /* \"#utility.yul\":195:200   */\n      dup2\n        /* \"#utility.yul\":177:201   */\n      tag_229\n      jump\t// in\n    tag_280:\n        /* \"#utility.yul\":172:175   */\n      dup3\n        /* \"#utility.yul\":165:202   */\n      mstore\n        /* \"#utility.yul\":90:208   */\n      pop\n      pop\n      jump\t// out\n        /* \"#utility.yul\":214:436   */\n    tag_23:\n        /* \"#utility.yul\":307:311   */\n      0x00\n        /* \"#utility.yul\":345:347   */\n      0x20\n        /* \"#utility.yul\":334:343   */\n      dup3\n        /* \"#utility.yul\":330:348   */\n      add\n        /* \"#utility.yul\":322:348   */\n      swap1\n      pop\n        /* \"#utility.yul\":358:429   */\n      tag_282\n        /* \"#utility.yul\":426:427   */\n      0x00\n        /* \"#utility.yul\":415:424   */\n      dup4\n        /* \"#utility.yul\":411:428   */\n      add\n        /* \"#utility.yul\":402:408   */\n      dup5\n        /* \"#utility.yul\":358:429   */\n      tag_230\n      jump\t// in\n    tag_282:\n        /* \"#utility.yul\":214:436   */\n      swap3\n      swap2\n      pop\n      pop\n      jump\t// out\n        /* \"#utility.yul\":442:568   */\n    tag_231:\n        /* \"#utility.yul\":479:486   */\n      0x00\n        /* \"#utility.yul\":519:561   */\n      0xffffffffffffffffffffffffffffffffffffffff\n        /* \"#utility.yul\":512:517   */\n      dup3\n        /* \"#utility.yul\":508:562   */\n      and\n        /* \"#utility.yul\":497:562   */\n      swap1\n      pop\n        /* \"#utility.yul\":442:568   */\n      swap2\n      swap1\n      pop\n      jump\t// out\n        /* \"#utility.yul\":574:670   */\n    tag_232:\n        /* \"#utility.yul\":611:618   */\n      0x00\n        /* \"#utility.yul\":640:664   */\n      tag_285\n        /* \"#utility.yul\":658:663   */\n      dup3\n        /* \"#utility.yul\":640:664   */\n      tag_231\n      jump\t// in\n    tag_285:\n        /* \"#utility.yul\":629:664   */\n      swap1\n      pop\n        /* \"#utility.yul\":574:670   */\n      swap2\n      swap1\n      pop\n      jump\t// out\n        /* \"#utility.yul\":676:794   */\n    tag_233:\n        /* \"#utility.yul\":763:787   */\n      tag_287\n        /* \"#utility.yul\":781:786   */\n      dup2\n        /* \"#utility.yul\":763:787   */\n      tag_232\n      jump\t// in\n    tag_287:\n        /* \"#utility.yul\":758:761   */\n      dup3\n        /* \"#utility.yul\":751:788   */\n      mstore\n        /* \"#utility.yul\":676:794   */\n      pop\n      pop\n      jump\t// out\n        /* \"#utility.yul\":800:1022   */\n    tag_56:\n        /* \"#utility.yul\":893:897   */\n      0x00\n        /* \"#utility.yul\":931:933   */\n      0x20\n        /* \"#utility.yul\":920:929   */\n      dup3\n        /* \"#utility.yul\":916:934   */\n      add\n        /* \"#utility.yul\":908:934   */\n      swap1\n      pop\n        /* \"#utility.yul\":944:1015   */\n      tag_289\n        /* \"#utility.yul\":1012:1013   */\n      0x00\n        /* \"#utility.yul\":1001:1010   */\n      dup4\n        /* \"#utility.yul\":997:1014   */\n      add\n        /* \"#utility.yul\":988:994   */\n      dup5\n        /* \"#utility.yul\":944:1015   */\n      tag_233\n      jump\t// in\n    tag_289:\n        /* \"#utility.yul\":800:1022   */\n      swap3\n      swap2\n      pop\n      pop\n      jump\t// out\n        /* \"#utility.yul\":1028:1167   */\n    tag_234:\n        /* \"#utility.yul\":1120:1126   */\n      0x00\n        /* \"#utility.yul\":1154:1159   */\n      dup2\n        /* \"#utility.yul\":1148:1160   */\n      mload\n        /* \"#utility.yul\":1138:1160   */\n      swap1\n      pop\n        /* \"#utility.yul\":1028:1167   */\n      swap2\n      swap1\n      pop\n      jump\t// out\n        /* \"#utility.yul\":1173:1382   */\n    tag_235:\n        /* \"#utility.yul\":1297:1308   */\n      0x00\n        /* \"#utility.yul\":1331:1337   */\n      dup3\n        /* \"#utility.yul\":1326:1329   */\n      dup3\n        /* \"#utility.yul\":1319:1338   */\n      mstore\n        /* \"#utility.yul\":1371:1375   */\n      0x20\n        /* \"#utility.yul\":1366:1369   */\n      dup3\n        /* \"#utility.yul\":1362:1376   */\n      add\n        /* \"#utility.yul\":1347:1376   */\n      swap1\n      pop\n        /* \"#utility.yul\":1173:1382   */\n      swap3\n      swap2\n      pop\n      pop\n      jump\t// out\n        /* \"#utility.yul\":1388:1545   */\n    tag_236:\n        /* \"#utility.yul\":1480:1484   */\n      0x00\n        /* \"#utility.yul\":1503:1506   */\n      dup2\n        /* \"#utility.yul\":1495:1506   */\n      swap1\n      pop\n        /* \"#utility.yul\":1533:1537   */\n      0x20\n        /* \"#utility.yul\":1528:1531   */\n      dup3\n        /* \"#utility.yul\":1524:1538   */\n      add\n        /* \"#utility.yul\":1516:1538   */\n      swap1\n      pop\n        /* \"#utility.yul\":1388:1545   */\n      swap2\n      swap1\n      pop\n      jump\t// out\n        /* \"#utility.yul\":1551:1659   */\n    tag_237:\n        /* \"#utility.yul\":1628:1652   */\n      tag_294\n        /* \"#utility.yul\":1646:1651   */\n      dup2\n        /* \"#utility.yul\":1628:1652   */\n      tag_232\n      jump\t// in\n    tag_294:\n        /* \"#utility.yul\":1623:1626   */\n      dup3\n        /* \"#utility.yul\":1616:1653   */\n      mstore\n        /* \"#utility.yul\":1551:1659   */\n      pop\n      pop\n      jump\t// out\n        /* \"#utility.yul\":1665:1773   */\n    tag_238:\n        /* \"#utility.yul\":1742:1766   */\n      tag_296\n        /* \"#utility.yul\":1760:1765   */\n      dup2\n        /* \"#utility.yul\":1742:1766   */\n      tag_229\n      jump\t// in\n    tag_296:\n        /* \"#utility.yul\":1737:1740   */\n      dup3\n        /* \"#utility.yul\":1730:1767   */\n      mstore\n        /* \"#utility.yul\":1665:1773   */\n      pop\n      pop\n      jump\t// out\n        /* \"#utility.yul\":1827:2316   */\n    tag_239:\n        /* \"#utility.yul\":1952:1956   */\n      0x40\n        /* \"#utility.yul\":1947:1950   */\n      dup3\n        /* \"#utility.yul\":1943:1957   */\n      add\n        /* \"#utility.yul\":2041:2045   */\n      0x00\n        /* \"#utility.yul\":2034:2039   */\n      dup3\n        /* \"#utility.yul\":2030:2046   */\n      add\n        /* \"#utility.yul\":2024:2047   */\n      mload\n        /* \"#utility.yul\":2060:2123   */\n      tag_298\n        /* \"#utility.yul\":2117:2121   */\n      0x00\n        /* \"#utility.yul\":2112:2115   */\n      dup6\n        /* \"#utility.yul\":2108:2122   */\n      add\n        /* \"#utility.yul\":2094:2106   */\n      dup3\n        /* \"#utility.yul\":2060:2123   */\n      tag_237\n      jump\t// in\n    tag_298:\n        /* \"#utility.yul\":1967:2133   */\n      pop\n        /* \"#utility.yul\":2217:2221   */\n      0x20\n        /* \"#utility.yul\":2210:2215   */\n      dup3\n        /* \"#utility.yul\":2206:2222   */\n      add\n        /* \"#utility.yul\":2200:2223   */\n      mload\n        /* \"#utility.yul\":2236:2299   */\n      tag_299\n        /* \"#utility.yul\":2293:2297   */\n      0x20\n        /* \"#utility.yul\":2288:2291   */\n      dup6\n        /* \"#utility.yul\":2284:2298   */\n      add\n        /* \"#utility.yul\":2270:2282   */\n      dup3\n        /* \"#utility.yul\":2236:2299   */\n      tag_238\n      jump\t// in\n    tag_299:\n        /* \"#utility.yul\":2143:2309   */\n      pop\n        /* \"#utility.yul\":1921:2316   */\n      pop\n        /* \"#utility.yul\":1827:2316   */\n      pop\n      pop\n      jump\t// out\n        /* \"#utility.yul\":2382:2927   */\n    tag_240:\n        /* \"#utility.yul\":2519:2523   */\n      0x60\n        /* \"#utility.yul\":2514:2517   */\n      dup3\n        /* \"#utility.yul\":2510:2524   */\n      add\n        /* \"#utility.yul\":2605:2609   */\n      0x00\n        /* \"#utility.yul\":2598:2603   */\n      dup3\n        /* \"#utility.yul\":2594:2610   */\n      add\n        /* \"#utility.yul\":2588:2611   */\n      mload\n        /* \"#utility.yul\":2624:2725   */\n      tag_301\n        /* \"#utility.yul\":2719:2723   */\n      0x00\n        /* \"#utility.yul\":2714:2717   */\n      dup6\n        /* \"#utility.yul\":2710:2724   */\n      add\n        /* \"#utility.yul\":2696:2708   */\n      dup3\n        /* \"#utility.yul\":2624:2725   */\n      tag_239\n      jump\t// in\n    tag_301:\n        /* \"#utility.yul\":2534:2735   */\n      pop\n        /* \"#utility.yul\":2828:2832   */\n      0x20\n        /* \"#utility.yul\":2821:2826   */\n      dup3\n        /* \"#utility.yul\":2817:2833   */\n      add\n        /* \"#utility.yul\":2811:2834   */\n      mload\n        /* \"#utility.yul\":2847:2910   */\n      tag_302\n        /* \"#utility.yul\":2904:2908   */\n      0x40\n        /* \"#utility.yul\":2899:2902   */\n      dup6\n        /* \"#utility.yul\":2895:2909   */\n      add\n        /* \"#utility.yul\":2881:2893   */\n      dup3\n        /* \"#utility.yul\":2847:2910   */\n      tag_238\n      jump\t// in\n    tag_302:\n        /* \"#utility.yul\":2745:2920   */\n      pop\n        /* \"#utility.yul\":2488:2927   */\n      pop\n        /* \"#utility.yul\":2382:2927   */\n      pop\n      pop\n      jump\t// out\n        /* \"#utility.yul\":2933:3212   */\n    tag_241:\n        /* \"#utility.yul\":3052:3062   */\n      0x00\n        /* \"#utility.yul\":3073:3169   */\n      tag_304\n        /* \"#utility.yul\":3165:3168   */\n      dup4\n        /* \"#utility.yul\":3157:3163   */\n      dup4\n        /* \"#utility.yul\":3073:3169   */\n      tag_240\n      jump\t// in\n    tag_304:\n        /* \"#utility.yul\":3201:3205   */\n      0x60\n        /* \"#utility.yul\":3196:3199   */\n      dup4\n        /* \"#utility.yul\":3192:3206   */\n      add\n        /* \"#utility.yul\":3178:3206   */\n      swap1\n      pop\n        /* \"#utility.yul\":2933:3212   */\n      swap3\n      swap2\n      pop\n      pop\n      jump\t// out\n        /* \"#utility.yul\":3218:3356   */\n    tag_242:\n        /* \"#utility.yul\":3313:3317   */\n      0x00\n        /* \"#utility.yul\":3345:3349   */\n      0x20\n        /* \"#utility.yul\":3340:3343   */\n      dup3\n        /* \"#utility.yul\":3336:3350   */\n      add\n        /* \"#utility.yul\":3328:3350   */\n      swap1\n      pop\n        /* \"#utility.yul\":3218:3356   */\n      swap2\n      swap1\n      pop\n      jump\t// out\n        /* \"#utility.yul\":3426:4358   */\n    tag_243:\n        /* \"#utility.yul\":3595:3598   */\n      0x00\n        /* \"#utility.yul\":3624:3703   */\n      tag_307\n        /* \"#utility.yul\":3697:3702   */\n      dup3\n        /* \"#utility.yul\":3624:3703   */\n      tag_234\n      jump\t// in\n    tag_307:\n        /* \"#utility.yul\":3719:3830   */\n      tag_308\n        /* \"#utility.yul\":3823:3829   */\n      dup2\n        /* \"#utility.yul\":3818:3821   */\n      dup6\n        /* \"#utility.yul\":3719:3830   */\n      tag_235\n      jump\t// in\n    tag_308:\n        /* \"#utility.yul\":3712:3830   */\n      swap4\n      pop\n        /* \"#utility.yul\":3854:3935   */\n      tag_309\n        /* \"#utility.yul\":3929:3934   */\n      dup4\n        /* \"#utility.yul\":3854:3935   */\n      tag_236\n      jump\t// in\n    tag_309:\n        /* \"#utility.yul\":3958:3965   */\n      dup1\n        /* \"#utility.yul\":3989:3990   */\n      0x00\n        /* \"#utility.yul\":3974:4333   */\n    tag_310:\n        /* \"#utility.yul\":3999:4005   */\n      dup4\n        /* \"#utility.yul\":3996:3997   */\n      dup2\n        /* \"#utility.yul\":3993:4006   */\n      lt\n        /* \"#utility.yul\":3974:4333   */\n      iszero\n      tag_312\n      jumpi\n        /* \"#utility.yul\":4075:4081   */\n      dup2\n        /* \"#utility.yul\":4069:4082   */\n      mload\n        /* \"#utility.yul\":4102:4215   */\n      tag_313\n        /* \"#utility.yul\":4211:4214   */\n      dup9\n        /* \"#utility.yul\":4196:4209   */\n      dup3\n        /* \"#utility.yul\":4102:4215   */\n      tag_241\n      jump\t// in\n    tag_313:\n        /* \"#utility.yul\":4095:4215   */\n      swap8\n      pop\n        /* \"#utility.yul\":4238:4323   */\n      tag_314\n        /* \"#utility.yul\":4316:4322   */\n      dup4\n        /* \"#utility.yul\":4238:4323   */\n      tag_242\n      jump\t// in\n    tag_314:\n        /* \"#utility.yul\":4228:4323   */\n      swap3\n      pop\n        /* \"#utility.yul\":4034:4333   */\n      pop\n        /* \"#utility.yul\":4021:4022   */\n      0x01\n        /* \"#utility.yul\":4018:4019   */\n      dup2\n        /* \"#utility.yul\":4014:4023   */\n      add\n        /* \"#utility.yul\":4009:4023   */\n      swap1\n      pop\n        /* \"#utility.yul\":3974:4333   */\n      jump(tag_310)\n    tag_312:\n        /* \"#utility.yul\":3978:3992   */\n      pop\n        /* \"#utility.yul\":4349:4352   */\n      dup6\n        /* \"#utility.yul\":4342:4352   */\n      swap4\n      pop\n        /* \"#utility.yul\":3600:4358   */\n      pop\n      pop\n      pop\n        /* \"#utility.yul\":3426:4358   */\n      swap3\n      swap2\n      pop\n      pop\n      jump\t// out\n        /* \"#utility.yul\":4364:4837   */\n    tag_61:\n        /* \"#utility.yul\":4557:4561   */\n      0x00\n        /* \"#utility.yul\":4595:4597   */\n      0x20\n        /* \"#utility.yul\":4584:4593   */\n      dup3\n        /* \"#utility.yul\":4580:4598   */\n      add\n        /* \"#utility.yul\":4572:4598   */\n      swap1\n      pop\n        /* \"#utility.yul\":4644:4653   */\n      dup2\n        /* \"#utility.yul\":4638:4642   */\n      dup2\n        /* \"#utility.yul\":4634:4654   */\n      sub\n        /* \"#utility.yul\":4630:4631   */\n      0x00\n        /* \"#utility.yul\":4619:4628   */\n      dup4\n        /* \"#utility.yul\":4615:4632   */\n      add\n        /* \"#utility.yul\":4608:4655   */\n      mstore\n        /* \"#utility.yul\":4672:4830   */\n      tag_316\n        /* \"#utility.yul\":4825:4829   */\n      dup2\n        /* \"#utility.yul\":4816:4822   */\n      dup5\n        /* \"#utility.yul\":4672:4830   */\n      tag_243\n      jump\t// in\n    tag_316:\n        /* \"#utility.yul\":4664:4830   */\n      swap1\n      pop\n        /* \"#utility.yul\":4364:4837   */\n      swap3\n      swap2\n      pop\n      pop\n      jump\t// out\n        /* \"#utility.yul\":4891:5390   */\n    tag_244:\n        /* \"#utility.yul\":5026:5030   */\n      0x40\n        /* \"#utility.yul\":5021:5024   */\n      dup3\n        /* \"#utility.yul\":5017:5031   */\n      add\n        /* \"#utility.yul\":5115:5119   */\n      0x00\n        /* \"#utility.yul\":5108:5113   */\n      dup3\n        /* \"#utility.yul\":5104:5120   */\n      add\n        /* \"#utility.yul\":5098:5121   */\n      mload\n        /* \"#utility.yul\":5134:5197   */\n      tag_318\n        /* \"#utility.yul\":5191:5195   */\n      0x00\n        /* \"#utility.yul\":5186:5189   */\n      dup6\n        /* \"#utility.yul\":5182:5196   */\n      add\n        /* \"#utility.yul\":5168:5180   */\n      dup3\n        /* \"#utility.yul\":5134:5197   */\n      tag_237\n      jump\t// in\n    tag_318:\n        /* \"#utility.yul\":5041:5207   */\n      pop\n        /* \"#utility.yul\":5291:5295   */\n      0x20\n        /* \"#utility.yul\":5284:5289   */\n      dup3\n        /* \"#utility.yul\":5280:5296   */\n      add\n        /* \"#utility.yul\":5274:5297   */\n      mload\n        /* \"#utility.yul\":5310:5373   */\n      tag_319\n        /* \"#utility.yul\":5367:5371   */\n      0x20\n        /* \"#utility.yul\":5362:5365   */\n      dup6\n        /* \"#utility.yul\":5358:5372   */\n      add\n        /* \"#utility.yul\":5344:5356   */\n      dup3\n        /* \"#utility.yul\":5310:5373   */\n      tag_238\n      jump\t// in\n    tag_319:\n        /* \"#utility.yul\":5217:5383   */\n      pop\n        /* \"#utility.yul\":4995:5390   */\n      pop\n        /* \"#utility.yul\":4891:5390   */\n      pop\n      pop\n      jump\t// out\n        /* \"#utility.yul\":5396:5694   */\n    tag_70:\n        /* \"#utility.yul\":5527:5531   */\n      0x00\n        /* \"#utility.yul\":5565:5567   */\n      0x40\n        /* \"#utility.yul\":5554:5563   */\n      dup3\n        /* \"#utility.yul\":5550:5568   */\n      add\n        /* \"#utility.yul\":5542:5568   */\n      swap1\n      pop\n        /* \"#utility.yul\":5578:5687   */\n      tag_321\n        /* \"#utility.yul\":5684:5685   */\n      0x00\n        /* \"#utility.yul\":5673:5682   */\n      dup4\n        /* \"#utility.yul\":5669:5686   */\n      add\n        /* \"#utility.yul\":5660:5666   */\n      dup5\n        /* \"#utility.yul\":5578:5687   */\n      tag_244\n      jump\t// in\n    tag_321:\n        /* \"#utility.yul\":5396:5694   */\n      swap3\n      swap2\n      pop\n      pop\n      jump\t// out\n        /* \"#utility.yul\":5700:5869   */\n    tag_245:\n        /* \"#utility.yul\":5784:5795   */\n      0x00\n        /* \"#utility.yul\":5818:5824   */\n      dup3\n        /* \"#utility.yul\":5813:5816   */\n      dup3\n        /* \"#utility.yul\":5806:5825   */\n      mstore\n        /* \"#utility.yul\":5858:5862   */\n      0x20\n        /* \"#utility.yul\":5853:5856   */\n      dup3\n        /* \"#utility.yul\":5849:5863   */\n      add\n        /* \"#utility.yul\":5834:5863   */\n      swap1\n      pop\n        /* \"#utility.yul\":5700:5869   */\n      swap3\n      swap2\n      pop\n      pop\n      jump\t// out\n        /* \"#utility.yul\":5875:6044   */\n    tag_246:\n        /* \"#utility.yul\":6015:6036   */\n      0x41756374696f6e20686173206578706972656400000000000000000000000000\n        /* \"#utility.yul\":6011:6012   */\n      0x00\n        /* \"#utility.yul\":6003:6009   */\n      dup3\n        /* \"#utility.yul\":5999:6013   */\n      add\n        /* \"#utility.yul\":5992:6037   */\n      mstore\n        /* \"#utility.yul\":5875:6044   */\n      pop\n      jump\t// out\n        /* \"#utility.yul\":6050:6416   */\n    tag_247:\n        /* \"#utility.yul\":6192:6195   */\n      0x00\n        /* \"#utility.yul\":6213:6280   */\n      tag_325\n        /* \"#utility.yul\":6277:6279   */\n      0x13\n        /* \"#utility.yul\":6272:6275   */\n      dup4\n        /* \"#utility.yul\":6213:6280   */\n      tag_245\n      jump\t// in\n    tag_325:\n        /* \"#utility.yul\":6206:6280   */\n      swap2\n      pop\n        /* \"#utility.yul\":6289:6382   */\n      tag_326\n        /* \"#utility.yul\":6378:6381   */\n      dup3\n        /* \"#utility.yul\":6289:6382   */\n      tag_246\n      jump\t// in\n    tag_326:\n        /* \"#utility.yul\":6407:6409   */\n      0x20\n        /* \"#utility.yul\":6402:6405   */\n      dup3\n        /* \"#utility.yul\":6398:6410   */\n      add\n        /* \"#utility.yul\":6391:6410   */\n      swap1\n      pop\n        /* \"#utility.yul\":6050:6416   */\n      swap2\n      swap1\n      pop\n      jump\t// out\n        /* \"#utility.yul\":6422:6841   */\n    tag_77:\n        /* \"#utility.yul\":6588:6592   */\n      0x00\n        /* \"#utility.yul\":6626:6628   */\n      0x20\n        /* \"#utility.yul\":6615:6624   */\n      dup3\n        /* \"#utility.yul\":6611:6629   */\n      add\n        /* \"#utility.yul\":6603:6629   */\n      swap1\n      pop\n        /* \"#utility.yul\":6675:6684   */\n      dup2\n        /* \"#utility.yul\":6669:6673   */\n      dup2\n        /* \"#utility.yul\":6665:6685   */\n      sub\n        /* \"#utility.yul\":6661:6662   */\n      0x00\n        /* \"#utility.yul\":6650:6659   */\n      dup4\n        /* \"#utility.yul\":6646:6663   */\n      add\n        /* \"#utility.yul\":6639:6686   */\n      mstore\n        /* \"#utility.yul\":6703:6834   */\n      tag_328\n        /* \"#utility.yul\":6829:6833   */\n      dup2\n        /* \"#utility.yul\":6703:6834   */\n      tag_247\n      jump\t// in\n    tag_328:\n        /* \"#utility.yul\":6695:6834   */\n      swap1\n      pop\n        /* \"#utility.yul\":6422:6841   */\n      swap2\n      swap1\n      pop\n      jump\t// out\n        /* \"#utility.yul\":6847:7027   */\n    tag_248:\n        /* \"#utility.yul\":6895:6972   */\n      0x4e487b7100000000000000000000000000000000000000000000000000000000\n        /* \"#utility.yul\":6892:6893   */\n      0x00\n        /* \"#utility.yul\":6885:6973   */\n      mstore\n        /* \"#utility.yul\":6992:6996   */\n      0x11\n        /* \"#utility.yul\":6989:6990   */\n      0x04\n        /* \"#utility.yul\":6982:6997   */\n      mstore\n        /* \"#utility.yul\":7016:7020   */\n      0x24\n        /* \"#utility.yul\":7013:7014   */\n      0x00\n        /* \"#utility.yul\":7006:7021   */\n      revert\n        /* \"#utility.yul\":7033:7224   */\n    tag_80:\n        /* \"#utility.yul\":7073:7076   */\n      0x00\n        /* \"#utility.yul\":7092:7112   */\n      tag_331\n        /* \"#utility.yul\":7110:7111   */\n      dup3\n        /* \"#utility.yul\":7092:7112   */\n      tag_229\n      jump\t// in\n    tag_331:\n        /* \"#utility.yul\":7087:7112   */\n      swap2\n      pop\n        /* \"#utility.yul\":7126:7146   */\n      tag_332\n        /* \"#utility.yul\":7144:7145   */\n      dup4\n        /* \"#utility.yul\":7126:7146   */\n      tag_229\n      jump\t// in\n    tag_332:\n        /* \"#utility.yul\":7121:7146   */\n      swap3\n      pop\n        /* \"#utility.yul\":7169:7170   */\n      dup3\n        /* \"#utility.yul\":7166:7167   */\n      dup3\n        /* \"#utility.yul\":7162:7171   */\n      add\n        /* \"#utility.yul\":7155:7171   */\n      swap1\n      pop\n        /* \"#utility.yul\":7190:7193   */\n      dup1\n        /* \"#utility.yul\":7187:7188   */\n      dup3\n        /* \"#utility.yul\":7184:7194   */\n      gt\n        /* \"#utility.yul\":7181:7217   */\n      iszero\n      tag_333\n      jumpi\n        /* \"#utility.yul\":7197:7215   */\n      tag_334\n      tag_248\n      jump\t// in\n    tag_334:\n        /* \"#utility.yul\":7181:7217   */\n    tag_333:\n        /* \"#utility.yul\":7033:7224   */\n      swap3\n      swap2\n      pop\n      pop\n      jump\t// out\n        /* \"#utility.yul\":7230:7640   */\n    tag_82:\n        /* \"#utility.yul\":7270:7277   */\n      0x00\n        /* \"#utility.yul\":7293:7313   */\n      tag_336\n        /* \"#utility.yul\":7311:7312   */\n      dup3\n        /* \"#utility.yul\":7293:7313   */\n      tag_229\n      jump\t// in\n    tag_336:\n        /* \"#utility.yul\":7288:7313   */\n      swap2\n      pop\n        /* \"#utility.yul\":7327:7347   */\n      tag_337\n        /* \"#utility.yul\":7345:7346   */\n      dup4\n        /* \"#utility.yul\":7327:7347   */\n      tag_229\n      jump\t// in\n    tag_337:\n        /* \"#utility.yul\":7322:7347   */\n      swap3\n      pop\n        /* \"#utility.yul\":7382:7383   */\n      dup3\n        /* \"#utility.yul\":7379:7380   */\n      dup3\n        /* \"#utility.yul\":7375:7384   */\n      mul\n        /* \"#utility.yul\":7404:7434   */\n      tag_338\n        /* \"#utility.yul\":7422:7433   */\n      dup2\n        /* \"#utility.yul\":7404:7434   */\n      tag_229\n      jump\t// in\n    tag_338:\n        /* \"#utility.yul\":7393:7434   */\n      swap2\n      pop\n        /* \"#utility.yul\":7583:7584   */\n      dup3\n        /* \"#utility.yul\":7574:7581   */\n      dup3\n        /* \"#utility.yul\":7570:7585   */\n      div\n        /* \"#utility.yul\":7567:7568   */\n      dup5\n        /* \"#utility.yul\":7564:7586   */\n      eq\n        /* \"#utility.yul\":7544:7545   */\n      dup4\n        /* \"#utility.yul\":7537:7546   */\n      iszero\n        /* \"#utility.yul\":7517:7600   */\n      or\n        /* \"#utility.yul\":7494:7633   */\n      tag_339\n      jumpi\n        /* \"#utility.yul\":7613:7631   */\n      tag_340\n      tag_248\n      jump\t// in\n    tag_340:\n        /* \"#utility.yul\":7494:7633   */\n    tag_339:\n        /* \"#utility.yul\":7278:7640   */\n      pop\n        /* \"#utility.yul\":7230:7640   */\n      swap3\n      swap2\n      pop\n      pop\n      jump\t// out\n        /* \"#utility.yul\":7646:7826   */\n    tag_249:\n        /* \"#utility.yul\":7694:7771   */\n      0x4e487b7100000000000000000000000000000000000000000000000000000000\n        /* \"#utility.yul\":7691:7692   */\n      0x00\n        /* \"#utility.yul\":7684:7772   */\n      mstore\n        /* \"#utility.yul\":7791:7795   */\n      0x12\n        /* \"#utility.yul\":7788:7789   */\n      0x04\n        /* \"#utility.yul\":7781:7796   */\n      mstore\n        /* \"#utility.yul\":7815:7819   */\n      0x24\n        /* \"#utility.yul\":7812:7813   */\n      0x00\n        /* \"#utility.yul\":7805:7820   */\n      revert\n        /* \"#utility.yul\":7832:8017   */\n    tag_84:\n        /* \"#utility.yul\":7872:7873   */\n      0x00\n        /* \"#utility.yul\":7889:7909   */\n      tag_343\n        /* \"#utility.yul\":7907:7908   */\n      dup3\n        /* \"#utility.yul\":7889:7909   */\n      tag_229\n      jump\t// in\n    tag_343:\n        /* \"#utility.yul\":7884:7909   */\n      swap2\n      pop\n        /* \"#utility.yul\":7923:7943   */\n      tag_344\n        /* \"#utility.yul\":7941:7942   */\n      dup4\n        /* \"#utility.yul\":7923:7943   */\n      tag_229\n      jump\t// in\n    tag_344:\n        /* \"#utility.yul\":7918:7943   */\n      swap3\n      pop\n        /* \"#utility.yul\":7962:7963   */\n      dup3\n        /* \"#utility.yul\":7952:7987   */\n      tag_345\n      jumpi\n        /* \"#utility.yul\":7967:7985   */\n      tag_346\n      tag_249\n      jump\t// in\n    tag_346:\n        /* \"#utility.yul\":7952:7987   */\n    tag_345:\n        /* \"#utility.yul\":8009:8010   */\n      dup3\n        /* \"#utility.yul\":8006:8007   */\n      dup3\n        /* \"#utility.yul\":8002:8011   */\n      div\n        /* \"#utility.yul\":7997:8011   */\n      swap1\n      pop\n        /* \"#utility.yul\":7832:8017   */\n      swap3\n      swap2\n      pop\n      pop\n      jump\t// out\n        /* \"#utility.yul\":8023:8266   */\n    tag_250:\n        /* \"#utility.yul\":8163:8197   */\n      0x426964206d757374206265206174206c65617374203525206772656174657220\n        /* \"#utility.yul\":8159:8160   */\n      0x00\n        /* \"#utility.yul\":8151:8157   */\n      dup3\n        /* \"#utility.yul\":8147:8161   */\n      add\n        /* \"#utility.yul\":8140:8198   */\n      mstore\n        /* \"#utility.yul\":8232:8258   */\n      0x7468616e2063757272656e742068696768657374206269640000000000000000\n        /* \"#utility.yul\":8227:8229   */\n      0x20\n        /* \"#utility.yul\":8219:8225   */\n      dup3\n        /* \"#utility.yul\":8215:8230   */\n      add\n        /* \"#utility.yul\":8208:8259   */\n      mstore\n        /* \"#utility.yul\":8023:8266   */\n      pop\n      jump\t// out\n        /* \"#utility.yul\":8272:8638   */\n    tag_251:\n        /* \"#utility.yul\":8414:8417   */\n      0x00\n        /* \"#utility.yul\":8435:8502   */\n      tag_349\n        /* \"#utility.yul\":8499:8501   */\n      0x38\n        /* \"#utility.yul\":8494:8497   */\n      dup4\n        /* \"#utility.yul\":8435:8502   */\n      tag_245\n      jump\t// in\n    tag_349:\n        /* \"#utility.yul\":8428:8502   */\n      swap2\n      pop\n        /* \"#utility.yul\":8511:8604   */\n      tag_350\n        /* \"#utility.yul\":8600:8603   */\n      dup3\n        /* \"#utility.yul\":8511:8604   */\n      tag_250\n      jump\t// in\n    tag_350:\n        /* \"#utility.yul\":8629:8631   */\n      0x40\n        /* \"#utility.yul\":8624:8627   */\n      dup3\n        /* \"#utility.yul\":8620:8632   */\n      add\n        /* \"#utility.yul\":8613:8632   */\n      swap1\n      pop\n        /* \"#utility.yul\":8272:8638   */\n      swap2\n      swap1\n      pop\n      jump\t// out\n        /* \"#utility.yul\":8644:9063   */\n    tag_87:\n        /* \"#utility.yul\":8810:8814   */\n      0x00\n        /* \"#utility.yul\":8848:8850   */\n      0x20\n        /* \"#utility.yul\":8837:8846   */\n      dup3\n        /* \"#utility.yul\":8833:8851   */\n      add\n        /* \"#utility.yul\":8825:8851   */\n      swap1\n      pop\n        /* \"#utility.yul\":8897:8906   */\n      dup2\n        /* \"#utility.yul\":8891:8895   */\n      dup2\n        /* \"#utility.yul\":8887:8907   */\n      sub\n        /* \"#utility.yul\":8883:8884   */\n      0x00\n        /* \"#utility.yul\":8872:8881   */\n      dup4\n        /* \"#utility.yul\":8868:8885   */\n      add\n        /* \"#utility.yul\":8861:8908   */\n      mstore\n        /* \"#utility.yul\":8925:9056   */\n      tag_352\n        /* \"#utility.yul\":9051:9055   */\n      dup2\n        /* \"#utility.yul\":8925:9056   */\n      tag_251\n      jump\t// in\n    tag_352:\n        /* \"#utility.yul\":8917:9056   */\n      swap1\n      pop\n        /* \"#utility.yul\":8644:9063   */\n      swap2\n      swap1\n      pop\n      jump\t// out\n        /* \"#utility.yul\":9069:9251   */\n    tag_252:\n        /* \"#utility.yul\":9209:9243   */\n      0x596f7520616c7265616479206861766520746865206869676865737420626964\n        /* \"#utility.yul\":9205:9206   */\n      0x00\n        /* \"#utility.yul\":9197:9203   */\n      dup3\n        /* \"#utility.yul\":9193:9207   */\n      add\n        /* \"#utility.yul\":9186:9244   */\n      mstore\n        /* \"#utility.yul\":9069:9251   */\n      pop\n      jump\t// out\n        /* \"#utility.yul\":9257:9623   */\n    tag_253:\n        /* \"#utility.yul\":9399:9402   */\n      0x00\n        /* \"#utility.yul\":9420:9487   */\n      tag_355\n        /* \"#utility.yul\":9484:9486   */\n      0x20\n        /* \"#utility.yul\":9479:9482   */\n      dup4\n        /* \"#utility.yul\":9420:9487   */\n      tag_245\n      jump\t// in\n    tag_355:\n        /* \"#utility.yul\":9413:9487   */\n      swap2\n      pop\n        /* \"#utility.yul\":9496:9589   */\n      tag_356\n        /* \"#utility.yul\":9585:9588   */\n      dup3\n        /* \"#utility.yul\":9496:9589   */\n      tag_252\n      jump\t// in\n    tag_356:\n        /* \"#utility.yul\":9614:9616   */\n      0x20\n        /* \"#utility.yul\":9609:9612   */\n      dup3\n        /* \"#utility.yul\":9605:9617   */\n      add\n        /* \"#utility.yul\":9598:9617   */\n      swap1\n      pop\n        /* \"#utility.yul\":9257:9623   */\n      swap2\n      swap1\n      pop\n      jump\t// out\n        /* \"#utility.yul\":9629:10048   */\n    tag_91:\n        /* \"#utility.yul\":9795:9799   */\n      0x00\n        /* \"#utility.yul\":9833:9835   */\n      0x20\n        /* \"#utility.yul\":9822:9831   */\n      dup3\n        /* \"#utility.yul\":9818:9836   */\n      add\n        /* \"#utility.yul\":9810:9836   */\n      swap1\n      pop\n        /* \"#utility.yul\":9882:9891   */\n      dup2\n        /* \"#utility.yul\":9876:9880   */\n      dup2\n        /* \"#utility.yul\":9872:9892   */\n      sub\n        /* \"#utility.yul\":9868:9869   */\n      0x00\n        /* \"#utility.yul\":9857:9866   */\n      dup4\n        /* \"#utility.yul\":9853:9870   */\n      add\n        /* \"#utility.yul\":9846:9893   */\n      mstore\n        /* \"#utility.yul\":9910:10041   */\n      tag_358\n        /* \"#utility.yul\":10036:10040   */\n      dup2\n        /* \"#utility.yul\":9910:10041   */\n      tag_253\n      jump\t// in\n    tag_358:\n        /* \"#utility.yul\":9902:10041   */\n      swap1\n      pop\n        /* \"#utility.yul\":9629:10048   */\n      swap2\n      swap1\n      pop\n      jump\t// out\n        /* \"#utility.yul\":10054:10248   */\n    tag_101:\n        /* \"#utility.yul\":10094:10098   */\n      0x00\n        /* \"#utility.yul\":10114:10134   */\n      tag_360\n        /* \"#utility.yul\":10132:10133   */\n      dup3\n        /* \"#utility.yul\":10114:10134   */\n      tag_229\n      jump\t// in\n    tag_360:\n        /* \"#utility.yul\":10109:10134   */\n      swap2\n      pop\n        /* \"#utility.yul\":10148:10168   */\n      tag_361\n        /* \"#utility.yul\":10166:10167   */\n      dup4\n        /* \"#utility.yul\":10148:10168   */\n      tag_229\n      jump\t// in\n    tag_361:\n        /* \"#utility.yul\":10143:10168   */\n      swap3\n      pop\n        /* \"#utility.yul\":10192:10193   */\n      dup3\n        /* \"#utility.yul\":10189:10190   */\n      dup3\n        /* \"#utility.yul\":10185:10194   */\n      sub\n        /* \"#utility.yul\":10177:10194   */\n      swap1\n      pop\n        /* \"#utility.yul\":10216:10217   */\n      dup2\n        /* \"#utility.yul\":10210:10214   */\n      dup2\n        /* \"#utility.yul\":10207:10218   */\n      gt\n        /* \"#utility.yul\":10204:10241   */\n      iszero\n      tag_362\n      jumpi\n        /* \"#utility.yul\":10221:10239   */\n      tag_363\n      tag_248\n      jump\t// in\n    tag_363:\n        /* \"#utility.yul\":10204:10241   */\n    tag_362:\n        /* \"#utility.yul\":10054:10248   */\n      swap3\n      swap2\n      pop\n      pop\n      jump\t// out\n        /* \"#utility.yul\":10254:10586   */\n    tag_105:\n        /* \"#utility.yul\":10375:10379   */\n      0x00\n        /* \"#utility.yul\":10413:10415   */\n      0x40\n        /* \"#utility.yul\":10402:10411   */\n      dup3\n        /* \"#utility.yul\":10398:10416   */\n      add\n        /* \"#utility.yul\":10390:10416   */\n      swap1\n      pop\n        /* \"#utility.yul\":10426:10497   */\n      tag_365\n        /* \"#utility.yul\":10494:10495   */\n      0x00\n        /* \"#utility.yul\":10483:10492   */\n      dup4\n        /* \"#utility.yul\":10479:10496   */\n      add\n        /* \"#utility.yul\":10470:10476   */\n      dup6\n        /* \"#utility.yul\":10426:10497   */\n      tag_230\n      jump\t// in\n    tag_365:\n        /* \"#utility.yul\":10507:10579   */\n      tag_366\n        /* \"#utility.yul\":10575:10577   */\n      0x20\n        /* \"#utility.yul\":10564:10573   */\n      dup4\n        /* \"#utility.yul\":10560:10578   */\n      add\n        /* \"#utility.yul\":10551:10557   */\n      dup5\n        /* \"#utility.yul\":10507:10579   */\n      tag_230\n      jump\t// in\n    tag_366:\n        /* \"#utility.yul\":10254:10586   */\n      swap4\n      swap3\n      pop\n      pop\n      pop\n      jump\t// out\n        /* \"#utility.yul\":10592:10813   */\n    tag_254:\n        /* \"#utility.yul\":10732:10766   */\n      0x4f6e6c79206f776e65722063616e20706572666f726d20746869732061637469\n        /* \"#utility.yul\":10728:10729   */\n      0x00\n        /* \"#utility.yul\":10720:10726   */\n      dup3\n        /* \"#utility.yul\":10716:10730   */\n      add\n        /* \"#utility.yul\":10709:10767   */\n      mstore\n        /* \"#utility.yul\":10801:10805   */\n      0x6f6e000000000000000000000000000000000000000000000000000000000000\n        /* \"#utility.yul\":10796:10798   */\n      0x20\n        /* \"#utility.yul\":10788:10794   */\n      dup3\n        /* \"#utility.yul\":10784:10799   */\n      add\n        /* \"#utility.yul\":10777:10806   */\n      mstore\n        /* \"#utility.yul\":10592:10813   */\n      pop\n      jump\t// out\n        /* \"#utility.yul\":10819:11185   */\n    tag_255:\n        /* \"#utility.yul\":10961:10964   */\n      0x00\n        /* \"#utility.yul\":10982:11049   */\n      tag_369\n        /* \"#utility.yul\":11046:11048   */\n      0x22\n        /* \"#utility.yul\":11041:11044   */\n      dup4\n        /* \"#utility.yul\":10982:11049   */\n      tag_245\n      jump\t// in\n    tag_369:\n        /* \"#utility.yul\":10975:11049   */\n      swap2\n      pop\n        /* \"#utility.yul\":11058:11151   */\n      tag_370\n        /* \"#utility.yul\":11147:11150   */\n      dup3\n        /* \"#utility.yul\":11058:11151   */\n      tag_254\n      jump\t// in\n    tag_370:\n        /* \"#utility.yul\":11176:11178   */\n      0x40\n        /* \"#utility.yul\":11171:11174   */\n      dup3\n        /* \"#utility.yul\":11167:11179   */\n      add\n        /* \"#utility.yul\":11160:11179   */\n      swap1\n      pop\n        /* \"#utility.yul\":10819:11185   */\n      swap2\n      swap1\n      pop\n      jump\t// out\n        /* \"#utility.yul\":11191:11610   */\n    tag_109:\n        /* \"#utility.yul\":11357:11361   */\n      0x00\n        /* \"#utility.yul\":11395:11397   */\n      0x20\n        /* \"#utility.yul\":11384:11393   */\n      dup3\n        /* \"#utility.yul\":11380:11398   */\n      add\n        /* \"#utility.yul\":11372:11398   */\n      swap1\n      pop\n        /* \"#utility.yul\":11444:11453   */\n      dup2\n        /* \"#utility.yul\":11438:11442   */\n      dup2\n        /* \"#utility.yul\":11434:11454   */\n      sub\n        /* \"#utility.yul\":11430:11431   */\n      0x00\n        /* \"#utility.yul\":11419:11428   */\n      dup4\n        /* \"#utility.yul\":11415:11432   */\n      add\n        /* \"#utility.yul\":11408:11455   */\n      mstore\n        /* \"#utility.yul\":11472:11603   */\n      tag_372\n        /* \"#utility.yul\":11598:11602   */\n      dup2\n        /* \"#utility.yul\":11472:11603   */\n      tag_255\n      jump\t// in\n    tag_372:\n        /* \"#utility.yul\":11464:11603   */\n      swap1\n      pop\n        /* \"#utility.yul\":11191:11610   */\n      swap2\n      swap1\n      pop\n      jump\t// out\n        /* \"#utility.yul\":11616:11789   */\n    tag_256:\n        /* \"#utility.yul\":11756:11781   */\n      0x41756374696f6e206973206e6f742066696e6973686564000000000000000000\n        /* \"#utility.yul\":11752:11753   */\n      0x00\n        /* \"#utility.yul\":11744:11750   */\n      dup3\n        /* \"#utility.yul\":11740:11754   */\n      add\n        /* \"#utility.yul\":11733:11782   */\n      mstore\n        /* \"#utility.yul\":11616:11789   */\n      pop\n      jump\t// out\n        /* \"#utility.yul\":11795:12161   */\n    tag_257:\n        /* \"#utility.yul\":11937:11940   */\n      0x00\n        /* \"#utility.yul\":11958:12025   */\n      tag_375\n        /* \"#utility.yul\":12022:12024   */\n      0x17\n        /* \"#utility.yul\":12017:12020   */\n      dup4\n        /* \"#utility.yul\":11958:12025   */\n      tag_245\n      jump\t// in\n    tag_375:\n        /* \"#utility.yul\":11951:12025   */\n      swap2\n      pop\n        /* \"#utility.yul\":12034:12127   */\n      tag_376\n        /* \"#utility.yul\":12123:12126   */\n      dup3\n        /* \"#utility.yul\":12034:12127   */\n      tag_256\n      jump\t// in\n    tag_376:\n        /* \"#utility.yul\":12152:12154   */\n      0x20\n        /* \"#utility.yul\":12147:12150   */\n      dup3\n        /* \"#utility.yul\":12143:12155   */\n      add\n        /* \"#utility.yul\":12136:12155   */\n      swap1\n      pop\n        /* \"#utility.yul\":11795:12161   */\n      swap2\n      swap1\n      pop\n      jump\t// out\n        /* \"#utility.yul\":12167:12586   */\n    tag_113:\n        /* \"#utility.yul\":12333:12337   */\n      0x00\n        /* \"#utility.yul\":12371:12373   */\n      0x20\n        /* \"#utility.yul\":12360:12369   */\n      dup3\n        /* \"#utility.yul\":12356:12374   */\n      add\n        /* \"#utility.yul\":12348:12374   */\n      swap1\n      pop\n        /* \"#utility.yul\":12420:12429   */\n      dup2\n        /* \"#utility.yul\":12414:12418   */\n      dup2\n        /* \"#utility.yul\":12410:12430   */\n      sub\n        /* \"#utility.yul\":12406:12407   */\n      0x00\n        /* \"#utility.yul\":12395:12404   */\n      dup4\n        /* \"#utility.yul\":12391:12408   */\n      add\n        /* \"#utility.yul\":12384:12431   */\n      mstore\n        /* \"#utility.yul\":12448:12579   */\n      tag_378\n        /* \"#utility.yul\":12574:12578   */\n      dup2\n        /* \"#utility.yul\":12448:12579   */\n      tag_257\n      jump\t// in\n    tag_378:\n        /* \"#utility.yul\":12440:12579   */\n      swap1\n      pop\n        /* \"#utility.yul\":12167:12586   */\n      swap2\n      swap1\n      pop\n      jump\t// out\n        /* \"#utility.yul\":12592:12813   */\n    tag_258:\n        /* \"#utility.yul\":12732:12766   */\n      0x42696464657273206861766520616c7265616479206265656e20726566756e64\n        /* \"#utility.yul\":12728:12729   */\n      0x00\n        /* \"#utility.yul\":12720:12726   */\n      dup3\n        /* \"#utility.yul\":12716:12730   */\n      add\n        /* \"#utility.yul\":12709:12767   */\n      mstore\n        /* \"#utility.yul\":12801:12805   */\n      0x6564000000000000000000000000000000000000000000000000000000000000\n        /* \"#utility.yul\":12796:12798   */\n      0x20\n        /* \"#utility.yul\":12788:12794   */\n      dup3\n        /* \"#utility.yul\":12784:12799   */\n      add\n        /* \"#utility.yul\":12777:12806   */\n      mstore\n        /* \"#utility.yul\":12592:12813   */\n      pop\n      jump\t// out\n        /* \"#utility.yul\":12819:13185   */\n    tag_259:\n        /* \"#utility.yul\":12961:12964   */\n      0x00\n        /* \"#utility.yul\":12982:13049   */\n      tag_381\n        /* \"#utility.yul\":13046:13048   */\n      0x22\n        /* \"#utility.yul\":13041:13044   */\n      dup4\n        /* \"#utility.yul\":12982:13049   */\n      tag_245\n      jump\t// in\n    tag_381:\n        /* \"#utility.yul\":12975:13049   */\n      swap2\n      pop\n        /* \"#utility.yul\":13058:13151   */\n      tag_382\n        /* \"#utility.yul\":13147:13150   */\n      dup3\n        /* \"#utility.yul\":13058:13151   */\n      tag_258\n      jump\t// in\n    tag_382:\n        /* \"#utility.yul\":13176:13178   */\n      0x40\n        /* \"#utility.yul\":13171:13174   */\n      dup3\n        /* \"#utility.yul\":13167:13179   */\n      add\n        /* \"#utility.yul\":13160:13179   */\n      swap1\n      pop\n        /* \"#utility.yul\":12819:13185   */\n      swap2\n      swap1\n      pop\n      jump\t// out\n        /* \"#utility.yul\":13191:13610   */\n    tag_117:\n        /* \"#utility.yul\":13357:13361   */\n      0x00\n        /* \"#utility.yul\":13395:13397   */\n      0x20\n        /* \"#utility.yul\":13384:13393   */\n      dup3\n        /* \"#utility.yul\":13380:13398   */\n      add\n        /* \"#utility.yul\":13372:13398   */\n      swap1\n      pop\n        /* \"#utility.yul\":13444:13453   */\n      dup2\n        /* \"#utility.yul\":13438:13442   */\n      dup2\n        /* \"#utility.yul\":13434:13454   */\n      sub\n        /* \"#utility.yul\":13430:13431   */\n      0x00\n        /* \"#utility.yul\":13419:13428   */\n      dup4\n        /* \"#utility.yul\":13415:13432   */\n      add\n        /* \"#utility.yul\":13408:13455   */\n      mstore\n        /* \"#utility.yul\":13472:13603   */\n      tag_384\n        /* \"#utility.yul\":13598:13602   */\n      dup2\n        /* \"#utility.yul\":13472:13603   */\n      tag_259\n      jump\t// in\n    tag_384:\n        /* \"#utility.yul\":13464:13603   */\n      swap1\n      pop\n        /* \"#utility.yul\":13191:13610   */\n      swap2\n      swap1\n      pop\n      jump\t// out\n        /* \"#utility.yul\":13616:13787   */\n    tag_260:\n        /* \"#utility.yul\":13756:13779   */\n      0x546865726520617265206e6f2062696473207965740000000000000000000000\n        /* \"#utility.yul\":13752:13753   */\n      0x00\n        /* \"#utility.yul\":13744:13750   */\n      dup3\n        /* \"#utility.yul\":13740:13754   */\n      add\n        /* \"#utility.yul\":13733:13780   */\n      mstore\n        /* \"#utility.yul\":13616:13787   */\n      pop\n      jump\t// out\n        /* \"#utility.yul\":13793:14159   */\n    tag_261:\n        /* \"#utility.yul\":13935:13938   */\n      0x00\n        /* \"#utility.yul\":13956:14023   */\n      tag_387\n        /* \"#utility.yul\":14020:14022   */\n      0x15\n        /* \"#utility.yul\":14015:14018   */\n      dup4\n        /* \"#utility.yul\":13956:14023   */\n      tag_245\n      jump\t// in\n    tag_387:\n        /* \"#utility.yul\":13949:14023   */\n      swap2\n      pop\n        /* \"#utility.yul\":14032:14125   */\n      tag_388\n        /* \"#utility.yul\":14121:14124   */\n      dup3\n        /* \"#utility.yul\":14032:14125   */\n      tag_260\n      jump\t// in\n    tag_388:\n        /* \"#utility.yul\":14150:14152   */\n      0x20\n        /* \"#utility.yul\":14145:14148   */\n      dup3\n        /* \"#utility.yul\":14141:14153   */\n      add\n        /* \"#utility.yul\":14134:14153   */\n      swap1\n      pop\n        /* \"#utility.yul\":13793:14159   */\n      swap2\n      swap1\n      pop\n      jump\t// out\n        /* \"#utility.yul\":14165:14584   */\n    tag_121:\n        /* \"#utility.yul\":14331:14335   */\n      0x00\n        /* \"#utility.yul\":14369:14371   */\n      0x20\n        /* \"#utility.yul\":14358:14367   */\n      dup3\n        /* \"#utility.yul\":14354:14372   */\n      add\n        /* \"#utility.yul\":14346:14372   */\n      swap1\n      pop\n        /* \"#utility.yul\":14418:14427   */\n      dup2\n        /* \"#utility.yul\":14412:14416   */\n      dup2\n        /* \"#utility.yul\":14408:14428   */\n      sub\n        /* \"#utility.yul\":14404:14405   */\n      0x00\n        /* \"#utility.yul\":14393:14402   */\n      dup4\n        /* \"#utility.yul\":14389:14406   */\n      add\n        /* \"#utility.yul\":14382:14429   */\n      mstore\n        /* \"#utility.yul\":14446:14577   */\n      tag_390\n        /* \"#utility.yul\":14572:14576   */\n      dup2\n        /* \"#utility.yul\":14446:14577   */\n      tag_261\n      jump\t// in\n    tag_390:\n        /* \"#utility.yul\":14438:14577   */\n      swap1\n      pop\n        /* \"#utility.yul\":14165:14584   */\n      swap2\n      swap1\n      pop\n      jump\t// out\n        /* \"#utility.yul\":14590:14771   */\n    tag_262:\n        /* \"#utility.yul\":14730:14763   */\n      0x5265656e7472616e637947756172643a207265656e7472616e742063616c6c00\n        /* \"#utility.yul\":14726:14727   */\n      0x00\n        /* \"#utility.yul\":14718:14724   */\n      dup3\n        /* \"#utility.yul\":14714:14728   */\n      add\n        /* \"#utility.yul\":14707:14764   */\n      mstore\n        /* \"#utility.yul\":14590:14771   */\n      pop\n      jump\t// out\n        /* \"#utility.yul\":14777:15143   */\n    tag_263:\n        /* \"#utility.yul\":14919:14922   */\n      0x00\n        /* \"#utility.yul\":14940:15007   */\n      tag_393\n        /* \"#utility.yul\":15004:15006   */\n      0x1f\n        /* \"#utility.yul\":14999:15002   */\n      dup4\n        /* \"#utility.yul\":14940:15007   */\n      tag_245\n      jump\t// in\n    tag_393:\n        /* \"#utility.yul\":14933:15007   */\n      swap2\n      pop\n        /* \"#utility.yul\":15016:15109   */\n      tag_394\n        /* \"#utility.yul\":15105:15108   */\n      dup3\n        /* \"#utility.yul\":15016:15109   */\n      tag_262\n      jump\t// in\n    tag_394:\n        /* \"#utility.yul\":15134:15136   */\n      0x20\n        /* \"#utility.yul\":15129:15132   */\n      dup3\n        /* \"#utility.yul\":15125:15137   */\n      add\n        /* \"#utility.yul\":15118:15137   */\n      swap1\n      pop\n        /* \"#utility.yul\":14777:15143   */\n      swap2\n      swap1\n      pop\n      jump\t// out\n        /* \"#utility.yul\":15149:15568   */\n    tag_125:\n        /* \"#utility.yul\":15315:15319   */\n      0x00\n        /* \"#utility.yul\":15353:15355   */\n      0x20\n        /* \"#utility.yul\":15342:15351   */\n      dup3\n        /* \"#utility.yul\":15338:15356   */\n      add\n        /* \"#utility.yul\":15330:15356   */\n      swap1\n      pop\n        /* \"#utility.yul\":15402:15411   */\n      dup2\n        /* \"#utility.yul\":15396:15400   */\n      dup2\n        /* \"#utility.yul\":15392:15412   */\n      sub\n        /* \"#utility.yul\":15388:15389   */\n      0x00\n        /* \"#utility.yul\":15377:15386   */\n      dup4\n        /* \"#utility.yul\":15373:15390   */\n      add\n        /* \"#utility.yul\":15366:15413   */\n      mstore\n        /* \"#utility.yul\":15430:15561   */\n      tag_396\n        /* \"#utility.yul\":15556:15560   */\n      dup2\n        /* \"#utility.yul\":15430:15561   */\n      tag_263\n      jump\t// in\n    tag_396:\n        /* \"#utility.yul\":15422:15561   */\n      swap1\n      pop\n        /* \"#utility.yul\":15149:15568   */\n      swap2\n      swap1\n      pop\n      jump\t// out\n        /* \"#utility.yul\":15574:15754   */\n    tag_132:\n        /* \"#utility.yul\":15622:15699   */\n      0x4e487b7100000000000000000000000000000000000000000000000000000000\n        /* \"#utility.yul\":15619:15620   */\n      0x00\n        /* \"#utility.yul\":15612:15700   */\n      mstore\n        /* \"#utility.yul\":15719:15723   */\n      0x32\n        /* \"#utility.yul\":15716:15717   */\n      0x04\n        /* \"#utility.yul\":15709:15724   */\n      mstore\n        /* \"#utility.yul\":15743:15747   */\n      0x24\n        /* \"#utility.yul\":15740:15741   */\n      0x00\n        /* \"#utility.yul\":15733:15748   */\n      revert\n        /* \"#utility.yul\":15760:15907   */\n    tag_264:\n        /* \"#utility.yul\":15861:15872   */\n      0x00\n        /* \"#utility.yul\":15898:15901   */\n      dup2\n        /* \"#utility.yul\":15883:15901   */\n      swap1\n      pop\n        /* \"#utility.yul\":15760:15907   */\n      swap3\n      swap2\n      pop\n      pop\n      jump\t// out\n        /* \"#utility.yul\":15913:16027   */\n    tag_265:\n      pop\n      jump\t// out\n        /* \"#utility.yul\":16033:16431   */\n    tag_266:\n        /* \"#utility.yul\":16192:16195   */\n      0x00\n        /* \"#utility.yul\":16213:16296   */\n      tag_401\n        /* \"#utility.yul\":16294:16295   */\n      0x00\n        /* \"#utility.yul\":16289:16292   */\n      dup4\n        /* \"#utility.yul\":16213:16296   */\n      tag_264\n      jump\t// in\n    tag_401:\n        /* \"#utility.yul\":16206:16296   */\n      swap2\n      pop\n        /* \"#utility.yul\":16305:16398   */\n      tag_402\n        /* \"#utility.yul\":16394:16397   */\n      dup3\n        /* \"#utility.yul\":16305:16398   */\n      tag_265\n      jump\t// in\n    tag_402:\n        /* \"#utility.yul\":16423:16424   */\n      0x00\n        /* \"#utility.yul\":16418:16421   */\n      dup3\n        /* \"#utility.yul\":16414:16425   */\n      add\n        /* \"#utility.yul\":16407:16425   */\n      swap1\n      pop\n        /* \"#utility.yul\":16033:16431   */\n      swap2\n      swap1\n      pop\n      jump\t// out\n        /* \"#utility.yul\":16437:16816   */\n    tag_147:\n        /* \"#utility.yul\":16621:16624   */\n      0x00\n        /* \"#utility.yul\":16643:16790   */\n      tag_404\n        /* \"#utility.yul\":16786:16789   */\n      dup3\n        /* \"#utility.yul\":16643:16790   */\n      tag_266\n      jump\t// in\n    tag_404:\n        /* \"#utility.yul\":16636:16790   */\n      swap2\n      pop\n        /* \"#utility.yul\":16807:16810   */\n      dup2\n        /* \"#utility.yul\":16800:16810   */\n      swap1\n      pop\n        /* \"#utility.yul\":16437:16816   */\n      swap2\n      swap1\n      pop\n      jump\t// out\n        /* \"#utility.yul\":16822:16983   */\n    tag_267:\n        /* \"#utility.yul\":16962:16975   */\n      0x726566756e64206661696c000000000000000000000000000000000000000000\n        /* \"#utility.yul\":16958:16959   */\n      0x00\n        /* \"#utility.yul\":16950:16956   */\n      dup3\n        /* \"#utility.yul\":16946:16960   */\n      add\n        /* \"#utility.yul\":16939:16976   */\n      mstore\n        /* \"#utility.yul\":16822:16983   */\n      pop\n      jump\t// out\n        /* \"#utility.yul\":16989:17355   */\n    tag_268:\n        /* \"#utility.yul\":17131:17134   */\n      0x00\n        /* \"#utility.yul\":17152:17219   */\n      tag_407\n        /* \"#utility.yul\":17216:17218   */\n      0x0b\n        /* \"#utility.yul\":17211:17214   */\n      dup4\n        /* \"#utility.yul\":17152:17219   */\n      tag_245\n      jump\t// in\n    tag_407:\n        /* \"#utility.yul\":17145:17219   */\n      swap2\n      pop\n        /* \"#utility.yul\":17228:17321   */\n      tag_408\n        /* \"#utility.yul\":17317:17320   */\n      dup3\n        /* \"#utility.yul\":17228:17321   */\n      tag_267\n      jump\t// in\n    tag_408:\n        /* \"#utility.yul\":17346:17348   */\n      0x20\n        /* \"#utility.yul\":17341:17344   */\n      dup3\n        /* \"#utility.yul\":17337:17349   */\n      add\n        /* \"#utility.yul\":17330:17349   */\n      swap1\n      pop\n        /* \"#utility.yul\":16989:17355   */\n      swap2\n      swap1\n      pop\n      jump\t// out\n        /* \"#utility.yul\":17361:17780   */\n    tag_153:\n        /* \"#utility.yul\":17527:17531   */\n      0x00\n        /* \"#utility.yul\":17565:17567   */\n      0x20\n        /* \"#utility.yul\":17554:17563   */\n      dup3\n        /* \"#utility.yul\":17550:17568   */\n      add\n        /* \"#utility.yul\":17542:17568   */\n      swap1\n      pop\n        /* \"#utility.yul\":17614:17623   */\n      dup2\n        /* \"#utility.yul\":17608:17612   */\n      dup2\n        /* \"#utility.yul\":17604:17624   */\n      sub\n        /* \"#utility.yul\":17600:17601   */\n      0x00\n        /* \"#utility.yul\":17589:17598   */\n      dup4\n        /* \"#utility.yul\":17585:17602   */\n      add\n        /* \"#utility.yul\":17578:17625   */\n      mstore\n        /* \"#utility.yul\":17642:17773   */\n      tag_410\n        /* \"#utility.yul\":17768:17772   */\n      dup2\n        /* \"#utility.yul\":17642:17773   */\n      tag_268\n      jump\t// in\n    tag_410:\n        /* \"#utility.yul\":17634:17773   */\n      swap1\n      pop\n        /* \"#utility.yul\":17361:17780   */\n      swap2\n      swap1\n      pop\n      jump\t// out\n        /* \"#utility.yul\":17786:17948   */\n    tag_269:\n        /* \"#utility.yul\":17926:17940   */\n      0x526566756e642066697273740000000000000000000000000000000000000000\n        /* \"#utility.yul\":17922:17923   */\n      0x00\n        /* \"#utility.yul\":17914:17920   */\n      dup3\n        /* \"#utility.yul\":17910:17924   */\n      add\n        /* \"#utility.yul\":17903:17941   */\n      mstore\n        /* \"#utility.yul\":17786:17948   */\n      pop\n      jump\t// out\n        /* \"#utility.yul\":17954:18320   */\n    tag_270:\n        /* \"#utility.yul\":18096:18099   */\n      0x00\n        /* \"#utility.yul\":18117:18184   */\n      tag_413\n        /* \"#utility.yul\":18181:18183   */\n      0x0c\n        /* \"#utility.yul\":18176:18179   */\n      dup4\n        /* \"#utility.yul\":18117:18184   */\n      tag_245\n      jump\t// in\n    tag_413:\n        /* \"#utility.yul\":18110:18184   */\n      swap2\n      pop\n        /* \"#utility.yul\":18193:18286   */\n      tag_414\n        /* \"#utility.yul\":18282:18285   */\n      dup3\n        /* \"#utility.yul\":18193:18286   */\n      tag_269\n      jump\t// in\n    tag_414:\n        /* \"#utility.yul\":18311:18313   */\n      0x20\n        /* \"#utility.yul\":18306:18309   */\n      dup3\n        /* \"#utility.yul\":18302:18314   */\n      add\n        /* \"#utility.yul\":18295:18314   */\n      swap1\n      pop\n        /* \"#utility.yul\":17954:18320   */\n      swap2\n      swap1\n      pop\n      jump\t// out\n        /* \"#utility.yul\":18326:18745   */\n    tag_168:\n        /* \"#utility.yul\":18492:18496   */\n      0x00\n        /* \"#utility.yul\":18530:18532   */\n      0x20\n        /* \"#utility.yul\":18519:18528   */\n      dup3\n        /* \"#utility.yul\":18515:18533   */\n      add\n        /* \"#utility.yul\":18507:18533   */\n      swap1\n      pop\n        /* \"#utility.yul\":18579:18588   */\n      dup2\n        /* \"#utility.yul\":18573:18577   */\n      dup2\n        /* \"#utility.yul\":18569:18589   */\n      sub\n        /* \"#utility.yul\":18565:18566   */\n      0x00\n        /* \"#utility.yul\":18554:18563   */\n      dup4\n        /* \"#utility.yul\":18550:18567   */\n      add\n        /* \"#utility.yul\":18543:18590   */\n      mstore\n        /* \"#utility.yul\":18607:18738   */\n      tag_416\n        /* \"#utility.yul\":18733:18737   */\n      dup2\n        /* \"#utility.yul\":18607:18738   */\n      tag_270\n      jump\t// in\n    tag_416:\n        /* \"#utility.yul\":18599:18738   */\n      swap1\n      pop\n        /* \"#utility.yul\":18326:18745   */\n      swap2\n      swap1\n      pop\n      jump\t// out\n        /* \"#utility.yul\":18751:18914   */\n    tag_271:\n        /* \"#utility.yul\":18891:18906   */\n      0x5769746864726177206661696c00000000000000000000000000000000000000\n        /* \"#utility.yul\":18887:18888   */\n      0x00\n        /* \"#utility.yul\":18879:18885   */\n      dup3\n        /* \"#utility.yul\":18875:18889   */\n      add\n        /* \"#utility.yul\":18868:18907   */\n      mstore\n        /* \"#utility.yul\":18751:18914   */\n      pop\n      jump\t// out\n        /* \"#utility.yul\":18920:19286   */\n    tag_272:\n        /* \"#utility.yul\":19062:19065   */\n      0x00\n        /* \"#utility.yul\":19083:19150   */\n      tag_419\n        /* \"#utility.yul\":19147:19149   */\n      0x0d\n        /* \"#utility.yul\":19142:19145   */\n      dup4\n        /* \"#utility.yul\":19083:19150   */\n      tag_245\n      jump\t// in\n    tag_419:\n        /* \"#utility.yul\":19076:19150   */\n      swap2\n      pop\n        /* \"#utility.yul\":19159:19252   */\n      tag_420\n        /* \"#utility.yul\":19248:19251   */\n      dup3\n        /* \"#utility.yul\":19159:19252   */\n      tag_271\n      jump\t// in\n    tag_420:\n        /* \"#utility.yul\":19277:19279   */\n      0x20\n        /* \"#utility.yul\":19272:19275   */\n      dup3\n        /* \"#utility.yul\":19268:19280   */\n      add\n        /* \"#utility.yul\":19261:19280   */\n      swap1\n      pop\n        /* \"#utility.yul\":18920:19286   */\n      swap2\n      swap1\n      pop\n      jump\t// out\n        /* \"#utility.yul\":19292:19711   */\n    tag_175:\n        /* \"#utility.yul\":19458:19462   */\n      0x00\n        /* \"#utility.yul\":19496:19498   */\n      0x20\n        /* \"#utility.yul\":19485:19494   */\n      dup3\n        /* \"#utility.yul\":19481:19499   */\n      add\n        /* \"#utility.yul\":19473:19499   */\n      swap1\n      pop\n        /* \"#utility.yul\":19545:19554   */\n      dup2\n        /* \"#utility.yul\":19539:19543   */\n      dup2\n        /* \"#utility.yul\":19535:19555   */\n      sub\n        /* \"#utility.yul\":19531:19532   */\n      0x00\n        /* \"#utility.yul\":19520:19529   */\n      dup4\n        /* \"#utility.yul\":19516:19533   */\n      add\n        /* \"#utility.yul\":19509:19556   */\n      mstore\n        /* \"#utility.yul\":19573:19704   */\n      tag_422\n        /* \"#utility.yul\":19699:19703   */\n      dup2\n        /* \"#utility.yul\":19573:19704   */\n      tag_272\n      jump\t// in\n    tag_422:\n        /* \"#utility.yul\":19565:19704   */\n      swap1\n      pop\n        /* \"#utility.yul\":19292:19711   */\n      swap2\n      swap1\n      pop\n      jump\t// out\n        /* \"#utility.yul\":19717:19897   */\n    tag_182:\n        /* \"#utility.yul\":19765:19842   */\n      0x4e487b7100000000000000000000000000000000000000000000000000000000\n        /* \"#utility.yul\":19762:19763   */\n      0x00\n        /* \"#utility.yul\":19755:19843   */\n      mstore\n        /* \"#utility.yul\":19862:19866   */\n      0x41\n        /* \"#utility.yul\":19859:19860   */\n      0x04\n        /* \"#utility.yul\":19852:19867   */\n      mstore\n        /* \"#utility.yul\":19886:19890   */\n      0x24\n        /* \"#utility.yul\":19883:19884   */\n      0x00\n        /* \"#utility.yul\":19876:19891   */\n      revert\n        /* \"#utility.yul\":19903:20078   */\n    tag_273:\n        /* \"#utility.yul\":20043:20070   */\n      0x4e6f2070656e64696e6720776974686472617720666f756e6400000000000000\n        /* \"#utility.yul\":20039:20040   */\n      0x00\n        /* \"#utility.yul\":20031:20037   */\n      dup3\n        /* \"#utility.yul\":20027:20041   */\n      add\n        /* \"#utility.yul\":20020:20071   */\n      mstore\n        /* \"#utility.yul\":19903:20078   */\n      pop\n      jump\t// out\n        /* \"#utility.yul\":20084:20450   */\n    tag_274:\n        /* \"#utility.yul\":20226:20229   */\n      0x00\n        /* \"#utility.yul\":20247:20314   */\n      tag_426\n        /* \"#utility.yul\":20311:20313   */\n      0x19\n        /* \"#utility.yul\":20306:20309   */\n      dup4\n        /* \"#utility.yul\":20247:20314   */\n      tag_245\n      jump\t// in\n    tag_426:\n        /* \"#utility.yul\":20240:20314   */\n      swap2\n      pop\n        /* \"#utility.yul\":20323:20416   */\n      tag_427\n        /* \"#utility.yul\":20412:20415   */\n      dup3\n        /* \"#utility.yul\":20323:20416   */\n      tag_273\n      jump\t// in\n    tag_427:\n        /* \"#utility.yul\":20441:20443   */\n      0x20\n        /* \"#utility.yul\":20436:20439   */\n      dup3\n        /* \"#utility.yul\":20432:20444   */\n      add\n        /* \"#utility.yul\":20425:20444   */\n      swap1\n      pop\n        /* \"#utility.yul\":20084:20450   */\n      swap2\n      swap1\n      pop\n      jump\t// out\n        /* \"#utility.yul\":20456:20875   */\n    tag_219:\n        /* \"#utility.yul\":20622:20626   */\n      0x00\n        /* \"#utility.yul\":20660:20662   */\n      0x20\n        /* \"#utility.yul\":20649:20658   */\n      dup3\n        /* \"#utility.yul\":20645:20663   */\n      add\n        /* \"#utility.yul\":20637:20663   */\n      swap1\n      pop\n        /* \"#utility.yul\":20709:20718   */\n      dup2\n        /* \"#utility.yul\":20703:20707   */\n      dup2\n        /* \"#utility.yul\":20699:20719   */\n      sub\n        /* \"#utility.yul\":20695:20696   */\n      0x00\n        /* \"#utility.yul\":20684:20693   */\n      dup4\n        /* \"#utility.yul\":20680:20697   */\n      add\n        /* \"#utility.yul\":20673:20720   */\n      mstore\n        /* \"#utility.yul\":20737:20868   */\n      tag_429\n        /* \"#utility.yul\":20863:20867   */\n      dup2\n        /* \"#utility.yul\":20737:20868   */\n      tag_274\n      jump\t// in\n    tag_429:\n        /* \"#utility.yul\":20729:20868   */\n      swap1\n      pop\n        /* \"#utility.yul\":20456:20875   */\n      swap2\n      swap1\n      pop\n      jump\t// out\n        /* \"#utility.yul\":20881:21044   */\n    tag_275:\n        /* \"#utility.yul\":21021:21036   */\n      0x526566756e64206661696c656400000000000000000000000000000000000000\n        /* \"#utility.yul\":21017:21018   */\n      0x00\n        /* \"#utility.yul\":21009:21015   */\n      dup3\n        /* \"#utility.yul\":21005:21019   */\n      add\n        /* \"#utility.yul\":20998:21037   */\n      mstore\n        /* \"#utility.yul\":20881:21044   */\n      pop\n      jump\t// out\n        /* \"#utility.yul\":21050:21416   */\n    tag_276:\n        /* \"#utility.yul\":21192:21195   */\n      0x00\n        /* \"#utility.yul\":21213:21280   */\n      tag_432\n        /* \"#utility.yul\":21277:21279   */\n      0x0d\n        /* \"#utility.yul\":21272:21275   */\n      dup4\n        /* \"#utility.yul\":21213:21280   */\n      tag_245\n      jump\t// in\n    tag_432:\n        /* \"#utility.yul\":21206:21280   */\n      swap2\n      pop\n        /* \"#utility.yul\":21289:21382   */\n      tag_433\n        /* \"#utility.yul\":21378:21381   */\n      dup3\n        /* \"#utility.yul\":21289:21382   */\n      tag_275\n      jump\t// in\n    tag_433:\n        /* \"#utility.yul\":21407:21409   */\n      0x20\n        /* \"#utility.yul\":21402:21405   */\n      dup3\n        /* \"#utility.yul\":21398:21410   */\n      add\n        /* \"#utility.yul\":21391:21410   */\n      swap1\n      pop\n        /* \"#utility.yul\":21050:21416   */\n      swap2\n      swap1\n      pop\n      jump\t// out\n        /* \"#utility.yul\":21422:21841   */\n    tag_226:\n        /* \"#utility.yul\":21588:21592   */\n      0x00\n        /* \"#utility.yul\":21626:21628   */\n      0x20\n        /* \"#utility.yul\":21615:21624   */\n      dup3\n        /* \"#utility.yul\":21611:21629   */\n      add\n        /* \"#utility.yul\":21603:21629   */\n      swap1\n      pop\n        /* \"#utility.yul\":21675:21684   */\n      dup2\n        /* \"#utility.yul\":21669:21673   */\n      dup2\n        /* \"#utility.yul\":21665:21685   */\n      sub\n        /* \"#utility.yul\":21661:21662   */\n      0x00\n        /* \"#utility.yul\":21650:21659   */\n      dup4\n        /* \"#utility.yul\":21646:21663   */\n      add\n        /* \"#utility.yul\":21639:21686   */\n      mstore\n        /* \"#utility.yul\":21703:21834   */\n      tag_435\n        /* \"#utility.yul\":21829:21833   */\n      dup2\n        /* \"#utility.yul\":21703:21834   */\n      tag_276\n      jump\t// in\n    tag_435:\n        /* \"#utility.yul\":21695:21834   */\n      swap1\n      pop\n        /* \"#utility.yul\":21422:21841   */\n      swap2\n      swap1\n      pop\n      jump\t// out\n\n    auxdata: 0xa2646970667358221220a2c302dd312c84a5cae9d6a266dcd15ce25648c7cb349cbffc0e21a17263eced64736f6c634300081e0033\n}\n",
				"bytecode": {
					"linkReferences": {},
					"object": "60e06040525f60095f6101000a81548160ff021916908315150217905550348015610028575f5ffd5b506040516121e83803806121e8833981810160405281019061004a919061013f565b60015f819055503373ffffffffffffffffffffffffffffffffffffffff1660808173ffffffffffffffffffffffffffffffffffffffff16815250503373ffffffffffffffffffffffffffffffffffffffff1660808173ffffffffffffffffffffffffffffffffffffffff16815250504260a081815250508460c0818152505060c05160a0516100d991906101e3565b600181905550836002600101819055508260048190555081600581905550806006819055505050505050610216565b5f5ffd5b5f819050919050565b61011e8161010c565b8114610128575f5ffd5b50565b5f8151905061013981610115565b92915050565b5f5f5f5f5f60a0868803121561015857610157610108565b5b5f6101658882890161012b565b95505060206101768882890161012b565b94505060406101878882890161012b565b93505060606101988882890161012b565b92505060806101a98882890161012b565b9150509295509295909350565b7f4e487b71000000000000000000000000000000000000000000000000000000005f52601160045260245ffd5b5f6101ed8261010c565b91506101f88361010c565b92508282019050808211156102105761020f6101b6565b5b92915050565b60805160a05160c051611f936102555f395f6102d201525f610f4901525f818161081301528181610d4a01528181610e720152610f6d0152611f935ff3fe6080604052600436106100dc575f3560e01c8063658612e91161007e578063b81c78ec11610058578063b81c78ec1461023c578063c7e284b814610266578063ceb98f6e14610290578063f90ca117146102ba576100dc565b8063658612e9146101be57806378e97925146101e85780638da5cb5b14610212576100dc565b80633197cbb6116100ba5780633197cbb61461013e57806338e771ab14610168578063430efe6f1461017e5780635fd8c710146101a8576100dc565b80630fb5a6b4146100e05780631998aeef1461010a5780632d5537b014610114575b5f5ffd5b3480156100eb575f5ffd5b506100f46102d0565b60405161010191906115a9565b60405180910390f35b6101126102f4565b005b34801561011f575f5ffd5b50610128610805565b60405161013591906115a9565b60405180910390f35b348015610149575f5ffd5b5061015261080b565b60405161015f91906115a9565b60405180910390f35b348015610173575f5ffd5b5061017c610811565b005b348015610189575f5ffd5b50610192610cfe565b60405161019f91906115a9565b60405180910390f35b3480156101b3575f5ffd5b506101bc610d04565b005b3480156101c9575f5ffd5b506101d2610f41565b6040516101df91906115a9565b60405180910390f35b3480156101f3575f5ffd5b506101fc610f47565b60405161020991906115a9565b60405180910390f35b34801561021d575f5ffd5b50610226610f6b565b6040516102339190611601565b60405180910390f35b348015610247575f5ffd5b50610250610f8f565b60405161025d919061173a565b60405180910390f35b348015610271575f5ffd5b5061027a611177565b60405161028791906115a9565b60405180910390f35b34801561029b575f5ffd5b506102a461119e565b6040516102b19190611787565b60405180910390f35b3480156102c5575f5ffd5b506102ce6112a1565b005b7f000000000000000000000000000000000000000000000000000000000000000081565b600154421115610339576040517f08c379a0000000000000000000000000000000000000000000000000000000008152600401610330906117fa565b60405180910390fd5b6064806004546103499190611845565b6002600101546103599190611878565b61036391906118e6565b3410156103a5576040517f08c379a000000000000000000000000000000000000000000000000000000000815260040161039c90611986565b60405180910390fd5b60025f015f9054906101000a900473ffffffffffffffffffffffffffffffffffffffff1673ffffffffffffffffffffffffffffffffffffffff163373ffffffffffffffffffffffffffffffffffffffff1603610436576040517f08c379a000000000000000000000000000000000000000000000000000000000815260040161042d906119ee565b60405180910390fd5b5f73ffffffffffffffffffffffffffffffffffffffff1660025f015f9054906101000a900473ffffffffffffffffffffffffffffffffffffffff1673ffffffffffffffffffffffffffffffffffffffff161461051c575f60075f60025f015f9054906101000a900473ffffffffffffffffffffffffffffffffffffffff1673ffffffffffffffffffffffffffffffffffffffff1673ffffffffffffffffffffffffffffffffffffffff1681526020019081526020015f209050805f0160010154816002015f8282546105089190611845565b925050819055505f815f0160010181905550505b5f60075f3373ffffffffffffffffffffffffffffffffffffffff1673ffffffffffffffffffffffffffffffffffffffff1681526020019081526020015f2090505f73ffffffffffffffffffffffffffffffffffffffff16815f015f015f9054906101000a900473ffffffffffffffffffffffffffffffffffffffff1673ffffffffffffffffffffffffffffffffffffffff160361061857600833908060018154018082558091505060019003905f5260205f20015f9091909190916101000a81548173ffffffffffffffffffffffffffffffffffffffff021916908373ffffffffffffffffffffffffffffffffffffffff160217905550610639565b805f0160010154816002015f8282546106319190611845565b925050819055505b60405180604001604052803373ffffffffffffffffffffffffffffffffffffffff16815260200134815250815f015f820151815f015f6101000a81548173ffffffffffffffffffffffffffffffffffffffff021916908373ffffffffffffffffffffffffffffffffffffffff1602179055506020820151816001015590505060405180604001604052803373ffffffffffffffffffffffffffffffffffffffff1681526020013481525060025f820151815f015f6101000a81548173ffffffffffffffffffffffffffffffffffffffff021916908373ffffffffffffffffffffffffffffffffffffffff160217905550602082015181600101559050503373ffffffffffffffffffffffffffffffffffffffff167fdd0b6c6a77960e2066c96171b4d7ac9e8b4c184011f38544afa36a5bb63ec59f3460405161077c91906115a9565b60405180910390a26005546001546107949190611a0c565b42111561080257600554426107a99190611845565b6001819055503373ffffffffffffffffffffffffffffffffffffffff167fbf5210f11796c8ce8b1d67add316e5a734c26896acce48ba93993f580af205ff600154346040516107f9929190611a3f565b60405180910390a25b50565b60055481565b60015481565b7f000000000000000000000000000000000000000000000000000000000000000073ffffffffffffffffffffffffffffffffffffffff163373ffffffffffffffffffffffffffffffffffffffff161461089f576040517f08c379a000000000000000000000000000000000000000000000000000000000815260040161089690611ad6565b60405180910390fd5b60015442116108e3576040517f08c379a00000000000000000000000000000000000000000000000000000000081526004016108da90611b3e565b60405180910390fd5b60095f9054906101000a900460ff1615610932576040517f08c379a000000000000000000000000000000000000000000000000000000000815260040161092990611bcc565b60405180910390fd5b5f60088054905003610979576040517f08c379a000000000000000000000000000000000000000000000000000000000815260040161097090611c34565b60405180910390fd5b60025f54036109bd576040517f08c379a00000000000000000000000000000000000000000000000000000000081526004016109b490611c9c565b60405180910390fd5b60025f819055505f60088054905090505f5b81811015610c63575f600882815481106109ec576109eb611cba565b5b905f5260205f20015f9054906101000a900473ffffffffffffffffffffffffffffffffffffffff1690505f60075f8373ffffffffffffffffffffffffffffffffffffffff1673ffffffffffffffffffffffffffffffffffffffff1681526020019081526020015f2090505f5f90505f82600201541115610aa75760646006546064610a779190611a0c565b8360020154610a869190611878565b610a9091906118e6565b81610a9b9190611845565b90505f82600201819055505b60025f015f9054906101000a900473ffffffffffffffffffffffffffffffffffffffff1673ffffffffffffffffffffffffffffffffffffffff168373ffffffffffffffffffffffffffffffffffffffff1614158015610b0b57505f825f0160010154115b15610b555760646006546064610b219190611a0c565b835f0160010154610b329190611878565b610b3c91906118e6565b81610b479190611845565b90505f825f01600101819055505b5f811115610c55575f8373ffffffffffffffffffffffffffffffffffffffff1682604051610b8290611d14565b5f6040518083038185875af1925050503d805f8114610bbc576040519150601f19603f3d011682016040523d82523d5f602084013e610bc1565b606091505b5050905080610c05576040517f08c379a0000000000000000000000000000000000000000000000000000000008152600401610bfc90611d72565b60405180910390fd5b8373ffffffffffffffffffffffffffffffffffffffff167fbb28353e4598c3b9199101a66e0989549b659a59a54d2c27fbb183f1932c8e6d83604051610c4b91906115a9565b60405180910390a2505b8360010193505050506109cf565b50600160095f6101000a81548160ff02191690831515021790555060025f015f9054906101000a900473ffffffffffffffffffffffffffffffffffffffff1673ffffffffffffffffffffffffffffffffffffffff167f8b1ad6c69d3d79a05f5b1ec0de825e9bf67c6c70b8c25babd159976cf9990dff600260010154604051610cec91906115a9565b60405180910390a25060015f81905550565b60045481565b6001544211610d48576040517f08c379a0000000000000000000000000000000000000000000000000000000008152600401610d3f90611b3e565b60405180910390fd5b7f000000000000000000000000000000000000000000000000000000000000000073ffffffffffffffffffffffffffffffffffffffff163373ffffffffffffffffffffffffffffffffffffffff1614610dd6576040517f08c379a0000000000000000000000000000000000000000000000000000000008152600401610dcd90611ad6565b60405180910390fd5b60025f5403610e1a576040517f08c379a0000000000000000000000000000000000000000000000000000000008152600401610e1190611c9c565b60405180910390fd5b60025f8190555060095f9054906101000a900460ff16610e6f576040517f08c379a0000000000000000000000000000000000000000000000000000000008152600401610e6690611dda565b60405180910390fd5b5f7f000000000000000000000000000000000000000000000000000000000000000073ffffffffffffffffffffffffffffffffffffffff1647604051610eb490611d14565b5f6040518083038185875af1925050503d805f8114610eee576040519150601f19603f3d011682016040523d82523d5f602084013e610ef3565b606091505b5050905080610f37576040517f08c379a0000000000000000000000000000000000000000000000000000000008152600401610f2e90611e42565b60405180910390fd5b5060015f81905550565b60065481565b7f000000000000000000000000000000000000000000000000000000000000000081565b7f000000000000000000000000000000000000000000000000000000000000000081565b60605f60088054905003610fd8576040517f08c379a0000000000000000000000000000000000000000000000000000000008152600401610fcf90611c34565b60405180910390fd5b5f60088054905090505f8167ffffffffffffffff811115610ffc57610ffb611e60565b5b60405190808252806020026020018201604052801561103557816020015b611022611544565b81526020019060019003908161101a5790505b5090505f5f90505b8281101561116e5760075f6008838154811061105c5761105b611cba565b5b905f5260205f20015f9054906101000a900473ffffffffffffffffffffffffffffffffffffffff1673ffffffffffffffffffffffffffffffffffffffff1673ffffffffffffffffffffffffffffffffffffffff1681526020019081526020015f206040518060400160405290815f82016040518060400160405290815f82015f9054906101000a900473ffffffffffffffffffffffffffffffffffffffff1673ffffffffffffffffffffffffffffffffffffffff1673ffffffffffffffffffffffffffffffffffffffff168152602001600182015481525050815260200160028201548152505082828151811061115657611155611cba565b5b6020026020010181905250808060010191505061103d565b50809250505090565b5f60015442111561118a575f905061119b565b426001546111989190611a0c565b90505b90565b6111a6611563565b5f600880549050036111ed576040517f08c379a00000000000000000000000000000000000000000000000000000000081526004016111e490611c34565b60405180910390fd5b6001544211611231576040517f08c379a000000000000000000000000000000000000000000000000000000000815260040161122890611b3e565b60405180910390fd5b60026040518060400160405290815f82015f9054906101000a900473ffffffffffffffffffffffffffffffffffffffff1673ffffffffffffffffffffffffffffffffffffffff1673ffffffffffffffffffffffffffffffffffffffff168152602001600182015481525050905090565b6001544211156112e6576040517f08c379a00000000000000000000000000000000000000000000000000000000081526004016112dd906117fa565b60405180910390fd5b5f6008805490500361132d576040517f08c379a000000000000000000000000000000000000000000000000000000000815260040161132490611c34565b60405180910390fd5b60025f5403611371576040517f08c379a000000000000000000000000000000000000000000000000000000000815260040161136890611c9c565b60405180910390fd5b60025f819055505f60075f3373ffffffffffffffffffffffffffffffffffffffff1673ffffffffffffffffffffffffffffffffffffffff1681526020019081526020015f206002015490505f81116113fe576040517f08c379a00000000000000000000000000000000000000000000000000000000081526004016113f590611ed7565b60405180910390fd5b5f60075f3373ffffffffffffffffffffffffffffffffffffffff1673ffffffffffffffffffffffffffffffffffffffff1681526020019081526020015f20600201819055505f3373ffffffffffffffffffffffffffffffffffffffff168260405161146890611d14565b5f6040518083038185875af1925050503d805f81146114a2576040519150601f19603f3d011682016040523d82523d5f602084013e6114a7565b606091505b50509050806114eb576040517f08c379a00000000000000000000000000000000000000000000000000000000081526004016114e290611f3f565b60405180910390fd5b3373ffffffffffffffffffffffffffffffffffffffff167fd84fcbac5440aedda6d2b5f149aa3182c87252eef5bab6f061cfe022a3e166ef8360405161153191906115a9565b60405180910390a2505060015f81905550565b6040518060400160405280611557611563565b81526020015f81525090565b60405180604001604052805f73ffffffffffffffffffffffffffffffffffffffff1681526020015f81525090565b5f819050919050565b6115a381611591565b82525050565b5f6020820190506115bc5f83018461159a565b92915050565b5f73ffffffffffffffffffffffffffffffffffffffff82169050919050565b5f6115eb826115c2565b9050919050565b6115fb816115e1565b82525050565b5f6020820190506116145f8301846115f2565b92915050565b5f81519050919050565b5f82825260208201905092915050565b5f819050602082019050919050565b61164c816115e1565b82525050565b61165b81611591565b82525050565b604082015f8201516116755f850182611643565b5060208201516116886020850182611652565b50505050565b606082015f8201516116a25f850182611661565b5060208201516116b56040850182611652565b50505050565b5f6116c6838361168e565b60608301905092915050565b5f602082019050919050565b5f6116e88261161a565b6116f28185611624565b93506116fd83611634565b805f5b8381101561172d57815161171488826116bb565b975061171f836116d2565b925050600181019050611700565b5085935050505092915050565b5f6020820190508181035f83015261175281846116de565b905092915050565b604082015f82015161176e5f850182611643565b5060208201516117816020850182611652565b50505050565b5f60408201905061179a5f83018461175a565b92915050565b5f82825260208201905092915050565b7f41756374696f6e206861732065787069726564000000000000000000000000005f82015250565b5f6117e46013836117a0565b91506117ef826117b0565b602082019050919050565b5f6020820190508181035f830152611811816117d8565b9050919050565b7f4e487b71000000000000000000000000000000000000000000000000000000005f52601160045260245ffd5b5f61184f82611591565b915061185a83611591565b925082820190508082111561187257611871611818565b5b92915050565b5f61188282611591565b915061188d83611591565b925082820261189b81611591565b915082820484148315176118b2576118b1611818565b5b5092915050565b7f4e487b71000000000000000000000000000000000000000000000000000000005f52601260045260245ffd5b5f6118f082611591565b91506118fb83611591565b92508261190b5761190a6118b9565b5b828204905092915050565b7f426964206d757374206265206174206c656173742035252067726561746572205f8201527f7468616e2063757272656e742068696768657374206269640000000000000000602082015250565b5f6119706038836117a0565b915061197b82611916565b604082019050919050565b5f6020820190508181035f83015261199d81611964565b9050919050565b7f596f7520616c72656164792068617665207468652068696768657374206269645f82015250565b5f6119d86020836117a0565b91506119e3826119a4565b602082019050919050565b5f6020820190508181035f830152611a05816119cc565b9050919050565b5f611a1682611591565b9150611a2183611591565b9250828203905081811115611a3957611a38611818565b5b92915050565b5f604082019050611a525f83018561159a565b611a5f602083018461159a565b9392505050565b7f4f6e6c79206f776e65722063616e20706572666f726d207468697320616374695f8201527f6f6e000000000000000000000000000000000000000000000000000000000000602082015250565b5f611ac06022836117a0565b9150611acb82611a66565b604082019050919050565b5f6020820190508181035f830152611aed81611ab4565b9050919050565b7f41756374696f6e206973206e6f742066696e69736865640000000000000000005f82015250565b5f611b286017836117a0565b9150611b3382611af4565b602082019050919050565b5f6020820190508181035f830152611b5581611b1c565b9050919050565b7f42696464657273206861766520616c7265616479206265656e20726566756e645f8201527f6564000000000000000000000000000000000000000000000000000000000000602082015250565b5f611bb66022836117a0565b9150611bc182611b5c565b604082019050919050565b5f6020820190508181035f830152611be381611baa565b9050919050565b7f546865726520617265206e6f20626964732079657400000000000000000000005f82015250565b5f611c1e6015836117a0565b9150611c2982611bea565b602082019050919050565b5f6020820190508181035f830152611c4b81611c12565b9050919050565b7f5265656e7472616e637947756172643a207265656e7472616e742063616c6c005f82015250565b5f611c86601f836117a0565b9150611c9182611c52565b602082019050919050565b5f6020820190508181035f830152611cb381611c7a565b9050919050565b7f4e487b71000000000000000000000000000000000000000000000000000000005f52603260045260245ffd5b5f81905092915050565b50565b5f611cff5f83611ce7565b9150611d0a82611cf1565b5f82019050919050565b5f611d1e82611cf4565b9150819050919050565b7f726566756e64206661696c0000000000000000000000000000000000000000005f82015250565b5f611d5c600b836117a0565b9150611d6782611d28565b602082019050919050565b5f6020820190508181035f830152611d8981611d50565b9050919050565b7f526566756e6420666972737400000000000000000000000000000000000000005f82015250565b5f611dc4600c836117a0565b9150611dcf82611d90565b602082019050919050565b5f6020820190508181035f830152611df181611db8565b9050919050565b7f5769746864726177206661696c000000000000000000000000000000000000005f82015250565b5f611e2c600d836117a0565b9150611e3782611df8565b602082019050919050565b5f6020820190508181035f830152611e5981611e20565b9050919050565b7f4e487b71000000000000000000000000000000000000000000000000000000005f52604160045260245ffd5b7f4e6f2070656e64696e6720776974686472617720666f756e64000000000000005f82015250565b5f611ec16019836117a0565b9150611ecc82611e8d565b602082019050919050565b5f6020820190508181035f830152611eee81611eb5565b9050919050565b7f526566756e64206661696c6564000000000000000000000000000000000000005f82015250565b5f611f29600d836117a0565b9150611f3482611ef5565b602082019050919050565b5f6020820190508181035f830152611f5681611f1d565b905091905056fea2646970667358221220a2c302dd312c84a5cae9d6a266dcd15ce25648c7cb349cbffc0e21a17263eced64736f6c634300081e0033",
					"opcodes": "PUSH1 0xE0 PUSH1 0x40 MSTORE PUSH0 PUSH1 0x9 PUSH0 PUSH2 0x100 EXP DUP2 SLOAD DUP2 PUSH1 0xFF MUL NOT AND SWAP1 DUP4 ISZERO ISZERO MUL OR SWAP1 SSTORE POP CALLVALUE DUP1 ISZERO PUSH2 0x28 JUMPI PUSH0 PUSH0 REVERT JUMPDEST POP PUSH1 0x40 MLOAD PUSH2 0x21E8 CODESIZE SUB DUP1 PUSH2 0x21E8 DUP4 CODECOPY DUP2 DUP2 ADD PUSH1 0x40 MSTORE DUP2 ADD SWAP1 PUSH2 0x4A SWAP2 SWAP1 PUSH2 0x13F JUMP JUMPDEST PUSH1 0x1 PUSH0 DUP2 SWAP1 SSTORE POP CALLER PUSH20 0xFFFFFFFFFFFFFFFFFFFFFFFFFFFFFFFFFFFFFFFF AND PUSH1 0x80 DUP2 PUSH20 0xFFFFFFFFFFFFFFFFFFFFFFFFFFFFFFFFFFFFFFFF AND DUP2 MSTORE POP POP CALLER PUSH20 0xFFFFFFFFFFFFFFFFFFFFFFFFFFFFFFFFFFFFFFFF AND PUSH1 0x80 DUP2 PUSH20 0xFFFFFFFFFFFFFFFFFFFFFFFFFFFFFFFFFFFFFFFF AND DUP2 MSTORE POP POP TIMESTAMP PUSH1 0xA0 DUP2 DUP2 MSTORE POP POP DUP5 PUSH1 0xC0 DUP2 DUP2 MSTORE POP POP PUSH1 0xC0 MLOAD PUSH1 0xA0 MLOAD PUSH2 0xD9 SWAP2 SWAP1 PUSH2 0x1E3 JUMP JUMPDEST PUSH1 0x1 DUP2 SWAP1 SSTORE POP DUP4 PUSH1 0x2 PUSH1 0x1 ADD DUP2 SWAP1 SSTORE POP DUP3 PUSH1 0x4 DUP2 SWAP1 SSTORE POP DUP2 PUSH1 0x5 DUP2 SWAP1 SSTORE POP DUP1 PUSH1 0x6 DUP2 SWAP1 SSTORE POP POP POP POP POP POP PUSH2 0x216 JUMP JUMPDEST PUSH0 PUSH0 REVERT JUMPDEST PUSH0 DUP2 SWAP1 POP SWAP2 SWAP1 POP JUMP JUMPDEST PUSH2 0x11E DUP2 PUSH2 0x10C JUMP JUMPDEST DUP2 EQ PUSH2 0x128 JUMPI PUSH0 PUSH0 REVERT JUMPDEST POP JUMP JUMPDEST PUSH0 DUP2 MLOAD SWAP1 POP PUSH2 0x139 DUP2 PUSH2 0x115 JUMP JUMPDEST SWAP3 SWAP2 POP POP JUMP JUMPDEST PUSH0 PUSH0 PUSH0 PUSH0 PUSH0 PUSH1 0xA0 DUP7 DUP9 SUB SLT ISZERO PUSH2 0x158 JUMPI PUSH2 0x157 PUSH2 0x108 JUMP JUMPDEST JUMPDEST PUSH0 PUSH2 0x165 DUP9 DUP3 DUP10 ADD PUSH2 0x12B JUMP JUMPDEST SWAP6 POP POP PUSH1 0x20 PUSH2 0x176 DUP9 DUP3 DUP10 ADD PUSH2 0x12B JUMP JUMPDEST SWAP5 POP POP PUSH1 0x40 PUSH2 0x187 DUP9 DUP3 DUP10 ADD PUSH2 0x12B JUMP JUMPDEST SWAP4 POP POP PUSH1 0x60 PUSH2 0x198 DUP9 DUP3 DUP10 ADD PUSH2 0x12B JUMP JUMPDEST SWAP3 POP POP PUSH1 0x80 PUSH2 0x1A9 DUP9 DUP3 DUP10 ADD PUSH2 0x12B JUMP JUMPDEST SWAP2 POP POP SWAP3 SWAP6 POP SWAP3 SWAP6 SWAP1 SWAP4 POP JUMP JUMPDEST PUSH32 0x4E487B7100000000000000000000000000000000000000000000000000000000 PUSH0 MSTORE PUSH1 0x11 PUSH1 0x4 MSTORE PUSH1 0x24 PUSH0 REVERT JUMPDEST PUSH0 PUSH2 0x1ED DUP3 PUSH2 0x10C JUMP JUMPDEST SWAP2 POP PUSH2 0x1F8 DUP4 PUSH2 0x10C JUMP JUMPDEST SWAP3 POP DUP3 DUP3 ADD SWAP1 POP DUP1 DUP3 GT ISZERO PUSH2 0x210 JUMPI PUSH2 0x20F PUSH2 0x1B6 JUMP JUMPDEST JUMPDEST SWAP3 SWAP2 POP POP JUMP JUMPDEST PUSH1 0x80 MLOAD PUSH1 0xA0 MLOAD PUSH1 0xC0 MLOAD PUSH2 0x1F93 PUSH2 0x255 PUSH0 CODECOPY PUSH0 PUSH2 0x2D2 ADD MSTORE PUSH0 PUSH2 0xF49 ADD MSTORE PUSH0 DUP2 DUP2 PUSH2 0x813 ADD MSTORE DUP2 DUP2 PUSH2 0xD4A ADD MSTORE DUP2 DUP2 PUSH2 0xE72 ADD MSTORE PUSH2 0xF6D ADD MSTORE PUSH2 0x1F93 PUSH0 RETURN INVALID PUSH1 0x80 PUSH1 0x40 MSTORE PUSH1 0x4 CALLDATASIZE LT PUSH2 0xDC JUMPI PUSH0 CALLDATALOAD PUSH1 0xE0 SHR DUP1 PUSH4 0x658612E9 GT PUSH2 0x7E JUMPI DUP1 PUSH4 0xB81C78EC GT PUSH2 0x58 JUMPI DUP1 PUSH4 0xB81C78EC EQ PUSH2 0x23C JUMPI DUP1 PUSH4 0xC7E284B8 EQ PUSH2 0x266 JUMPI DUP1 PUSH4 0xCEB98F6E EQ PUSH2 0x290 JUMPI DUP1 PUSH4 0xF90CA117 EQ PUSH2 0x2BA JUMPI PUSH2 0xDC JUMP JUMPDEST DUP1 PUSH4 0x658612E9 EQ PUSH2 0x1BE JUMPI DUP1 PUSH4 0x78E97925 EQ PUSH2 0x1E8 JUMPI DUP1 PUSH4 0x8DA5CB5B EQ PUSH2 0x212 JUMPI PUSH2 0xDC JUMP JUMPDEST DUP1 PUSH4 0x3197CBB6 GT PUSH2 0xBA JUMPI DUP1 PUSH4 0x3197CBB6 EQ PUSH2 0x13E JUMPI DUP1 PUSH4 0x38E771AB EQ PUSH2 0x168 JUMPI DUP1 PUSH4 0x430EFE6F EQ PUSH2 0x17E JUMPI DUP1 PUSH4 0x5FD8C710 EQ PUSH2 0x1A8 JUMPI PUSH2 0xDC JUMP JUMPDEST DUP1 PUSH4 0xFB5A6B4 EQ PUSH2 0xE0 JUMPI DUP1 PUSH4 0x1998AEEF EQ PUSH2 0x10A JUMPI DUP1 PUSH4 0x2D5537B0 EQ PUSH2 0x114 JUMPI JUMPDEST PUSH0 PUSH0 REVERT JUMPDEST CALLVALUE DUP1 ISZERO PUSH2 0xEB JUMPI PUSH0 PUSH0 REVERT JUMPDEST POP PUSH2 0xF4 PUSH2 0x2D0 JUMP JUMPDEST PUSH1 0x40 MLOAD PUSH2 0x101 SWAP2 SWAP1 PUSH2 0x15A9 JUMP JUMPDEST PUSH1 0x40 MLOAD DUP1 SWAP2 SUB SWAP1 RETURN JUMPDEST PUSH2 0x112 PUSH2 0x2F4 JUMP JUMPDEST STOP JUMPDEST CALLVALUE DUP1 ISZERO PUSH2 0x11F JUMPI PUSH0 PUSH0 REVERT JUMPDEST POP PUSH2 0x128 PUSH2 0x805 JUMP JUMPDEST PUSH1 0x40 MLOAD PUSH2 0x135 SWAP2 SWAP1 PUSH2 0x15A9 JUMP JUMPDEST PUSH1 0x40 MLOAD DUP1 SWAP2 SUB SWAP1 RETURN JUMPDEST CALLVALUE DUP1 ISZERO PUSH2 0x149 JUMPI PUSH0 PUSH0 REVERT JUMPDEST POP PUSH2 0x152 PUSH2 0x80B JUMP JUMPDEST PUSH1 0x40 MLOAD PUSH2 0x15F SWAP2 SWAP1 PUSH2 0x15A9 JUMP JUMPDEST PUSH1 0x40 MLOAD DUP1 SWAP2 SUB SWAP1 RETURN JUMPDEST CALLVALUE DUP1 ISZERO PUSH2 0x173 JUMPI PUSH0 PUSH0 REVERT JUMPDEST POP PUSH2 0x17C PUSH2 0x811 JUMP JUMPDEST STOP JUMPDEST CALLVALUE DUP1 ISZERO PUSH2 0x189 JUMPI PUSH0 PUSH0 REVERT JUMPDEST POP PUSH2 0x192 PUSH2 0xCFE JUMP JUMPDEST PUSH1 0x40 MLOAD PUSH2 0x19F SWAP2 SWAP1 PUSH2 0x15A9 JUMP JUMPDEST PUSH1 0x40 MLOAD DUP1 SWAP2 SUB SWAP1 RETURN JUMPDEST CALLVALUE DUP1 ISZERO PUSH2 0x1B3 JUMPI PUSH0 PUSH0 REVERT JUMPDEST POP PUSH2 0x1BC PUSH2 0xD04 JUMP JUMPDEST STOP JUMPDEST CALLVALUE DUP1 ISZERO PUSH2 0x1C9 JUMPI PUSH0 PUSH0 REVERT JUMPDEST POP PUSH2 0x1D2 PUSH2 0xF41 JUMP JUMPDEST PUSH1 0x40 MLOAD PUSH2 0x1DF SWAP2 SWAP1 PUSH2 0x15A9 JUMP JUMPDEST PUSH1 0x40 MLOAD DUP1 SWAP2 SUB SWAP1 RETURN JUMPDEST CALLVALUE DUP1 ISZERO PUSH2 0x1F3 JUMPI PUSH0 PUSH0 REVERT JUMPDEST POP PUSH2 0x1FC PUSH2 0xF47 JUMP JUMPDEST PUSH1 0x40 MLOAD PUSH2 0x209 SWAP2 SWAP1 PUSH2 0x15A9 JUMP JUMPDEST PUSH1 0x40 MLOAD DUP1 SWAP2 SUB SWAP1 RETURN JUMPDEST CALLVALUE DUP1 ISZERO PUSH2 0x21D JUMPI PUSH0 PUSH0 REVERT JUMPDEST POP PUSH2 0x226 PUSH2 0xF6B JUMP JUMPDEST PUSH1 0x40 MLOAD PUSH2 0x233 SWAP2 SWAP1 PUSH2 0x1601 JUMP JUMPDEST PUSH1 0x40 MLOAD DUP1 SWAP2 SUB SWAP1 RETURN JUMPDEST CALLVALUE DUP1 ISZERO PUSH2 0x247 JUMPI PUSH0 PUSH0 REVERT JUMPDEST POP PUSH2 0x250 PUSH2 0xF8F JUMP JUMPDEST PUSH1 0x40 MLOAD PUSH2 0x25D SWAP2 SWAP1 PUSH2 0x173A JUMP JUMPDEST PUSH1 0x40 MLOAD DUP1 SWAP2 SUB SWAP1 RETURN JUMPDEST CALLVALUE DUP1 ISZERO PUSH2 0x271 JUMPI PUSH0 PUSH0 REVERT JUMPDEST POP PUSH2 0x27A PUSH2 0x1177 JUMP JUMPDEST PUSH1 0x40 MLOAD PUSH2 0x287 SWAP2 SWAP1 PUSH2 0x15A9 JUMP JUMPDEST PUSH1 0x40 MLOAD DUP1 SWAP2 SUB SWAP1 RETURN JUMPDEST CALLVALUE DUP1 ISZERO PUSH2 0x29B JUMPI PUSH0 PUSH0 REVERT JUMPDEST POP PUSH2 0x2A4 PUSH2 0x119E JUMP JUMPDEST PUSH1 0x40 MLOAD PUSH2 0x2B1 SWAP2 SWAP1 PUSH2 0x1787 JUMP JUMPDEST PUSH1 0x40 MLOAD DUP1 SWAP2 SUB SWAP1 RETURN JUMPDEST CALLVALUE DUP1 ISZERO PUSH2 0x2C5 JUMPI PUSH0 PUSH0 REVERT JUMPDEST POP PUSH2 0x2CE PUSH2 0x12A1 JUMP JUMPDEST STOP JUMPDEST PUSH32 0x0 DUP2 JUMP JUMPDEST PUSH1 0x1 SLOAD TIMESTAMP GT ISZERO PUSH2 0x339 JUMPI PUSH1 0x40 MLOAD PUSH32 0x8C379A000000000000000000000000000000000000000000000000000000000 DUP2 MSTORE PUSH1 0x4 ADD PUSH2 0x330 SWAP1 PUSH2 0x17FA JUMP JUMPDEST PUSH1 0x40 MLOAD DUP1 SWAP2 SUB SWAP1 REVERT JUMPDEST PUSH1 0x64 DUP1 PUSH1 0x4 SLOAD PUSH2 0x349 SWAP2 SWAP1 PUSH2 0x1845 JUMP JUMPDEST PUSH1 0x2 PUSH1 0x1 ADD SLOAD PUSH2 0x359 SWAP2 SWAP1 PUSH2 0x1878 JUMP JUMPDEST PUSH2 0x363 SWAP2 SWAP1 PUSH2 0x18E6 JUMP JUMPDEST CALLVALUE LT ISZERO PUSH2 0x3A5 JUMPI PUSH1 0x40 MLOAD PUSH32 0x8C379A000000000000000000000000000000000000000000000000000000000 DUP2 MSTORE PUSH1 0x4 ADD PUSH2 0x39C SWAP1 PUSH2 0x1986 JUMP JUMPDEST PUSH1 0x40 MLOAD DUP1 SWAP2 SUB SWAP1 REVERT JUMPDEST PUSH1 0x2 PUSH0 ADD PUSH0 SWAP1 SLOAD SWAP1 PUSH2 0x100 EXP SWAP1 DIV PUSH20 0xFFFFFFFFFFFFFFFFFFFFFFFFFFFFFFFFFFFFFFFF AND PUSH20 0xFFFFFFFFFFFFFFFFFFFFFFFFFFFFFFFFFFFFFFFF AND CALLER PUSH20 0xFFFFFFFFFFFFFFFFFFFFFFFFFFFFFFFFFFFFFFFF AND SUB PUSH2 0x436 JUMPI PUSH1 0x40 MLOAD PUSH32 0x8C379A000000000000000000000000000000000000000000000000000000000 DUP2 MSTORE PUSH1 0x4 ADD PUSH2 0x42D SWAP1 PUSH2 0x19EE JUMP JUMPDEST PUSH1 0x40 MLOAD DUP1 SWAP2 SUB SWAP1 REVERT JUMPDEST PUSH0 PUSH20 0xFFFFFFFFFFFFFFFFFFFFFFFFFFFFFFFFFFFFFFFF AND PUSH1 0x2 PUSH0 ADD PUSH0 SWAP1 SLOAD SWAP1 PUSH2 0x100 EXP SWAP1 DIV PUSH20 0xFFFFFFFFFFFFFFFFFFFFFFFFFFFFFFFFFFFFFFFF AND PUSH20 0xFFFFFFFFFFFFFFFFFFFFFFFFFFFFFFFFFFFFFFFF AND EQ PUSH2 0x51C JUMPI PUSH0 PUSH1 0x7 PUSH0 PUSH1 0x2 PUSH0 ADD PUSH0 SWAP1 SLOAD SWAP1 PUSH2 0x100 EXP SWAP1 DIV PUSH20 0xFFFFFFFFFFFFFFFFFFFFFFFFFFFFFFFFFFFFFFFF AND PUSH20 0xFFFFFFFFFFFFFFFFFFFFFFFFFFFFFFFFFFFFFFFF AND PUSH20 0xFFFFFFFFFFFFFFFFFFFFFFFFFFFFFFFFFFFFFFFF AND DUP2 MSTORE PUSH1 0x20 ADD SWAP1 DUP2 MSTORE PUSH1 0x20 ADD PUSH0 KECCAK256 SWAP1 POP DUP1 PUSH0 ADD PUSH1 0x1 ADD SLOAD DUP2 PUSH1 0x2 ADD PUSH0 DUP3 DUP3 SLOAD PUSH2 0x508 SWAP2 SWAP1 PUSH2 0x1845 JUMP JUMPDEST SWAP3 POP POP DUP2 SWAP1 SSTORE POP PUSH0 DUP2 PUSH0 ADD PUSH1 0x1 ADD DUP2 SWAP1 SSTORE POP POP JUMPDEST PUSH0 PUSH1 0x7 PUSH0 CALLER PUSH20 0xFFFFFFFFFFFFFFFFFFFFFFFFFFFFFFFFFFFFFFFF AND PUSH20 0xFFFFFFFFFFFFFFFFFFFFFFFFFFFFFFFFFFFFFFFF AND DUP2 MSTORE PUSH1 0x20 ADD SWAP1 DUP2 MSTORE PUSH1 0x20 ADD PUSH0 KECCAK256 SWAP1 POP PUSH0 PUSH20 0xFFFFFFFFFFFFFFFFFFFFFFFFFFFFFFFFFFFFFFFF AND DUP2 PUSH0 ADD PUSH0 ADD PUSH0 SWAP1 SLOAD SWAP1 PUSH2 0x100 EXP SWAP1 DIV PUSH20 0xFFFFFFFFFFFFFFFFFFFFFFFFFFFFFFFFFFFFFFFF AND PUSH20 0xFFFFFFFFFFFFFFFFFFFFFFFFFFFFFFFFFFFFFFFF AND SUB PUSH2 0x618 JUMPI PUSH1 0x8 CALLER SWAP1 DUP1 PUSH1 0x1 DUP2 SLOAD ADD DUP1 DUP3 SSTORE DUP1 SWAP2 POP POP PUSH1 0x1 SWAP1 SUB SWAP1 PUSH0 MSTORE PUSH1 0x20 PUSH0 KECCAK256 ADD PUSH0 SWAP1 SWAP2 SWAP1 SWAP2 SWAP1 SWAP2 PUSH2 0x100 EXP DUP2 SLOAD DUP2 PUSH20 0xFFFFFFFFFFFFFFFFFFFFFFFFFFFFFFFFFFFFFFFF MUL NOT AND SWAP1 DUP4 PUSH20 0xFFFFFFFFFFFFFFFFFFFFFFFFFFFFFFFFFFFFFFFF AND MUL OR SWAP1 SSTORE POP PUSH2 0x639 JUMP JUMPDEST DUP1 PUSH0 ADD PUSH1 0x1 ADD SLOAD DUP2 PUSH1 0x2 ADD PUSH0 DUP3 DUP3 SLOAD PUSH2 0x631 SWAP2 SWAP1 PUSH2 0x1845 JUMP JUMPDEST SWAP3 POP POP DUP2 SWAP1 SSTORE POP JUMPDEST PUSH1 0x40 MLOAD DUP1 PUSH1 0x40 ADD PUSH1 0x40 MSTORE DUP1 CALLER PUSH20 0xFFFFFFFFFFFFFFFFFFFFFFFFFFFFFFFFFFFFFFFF AND DUP2 MSTORE PUSH1 0x20 ADD CALLVALUE DUP2 MSTORE POP DUP2 PUSH0 ADD PUSH0 DUP3 ADD MLOAD DUP2 PUSH0 ADD PUSH0 PUSH2 0x100 EXP DUP2 SLOAD DUP2 PUSH20 0xFFFFFFFFFFFFFFFFFFFFFFFFFFFFFFFFFFFFFFFF MUL NOT AND SWAP1 DUP4 PUSH20 0xFFFFFFFFFFFFFFFFFFFFFFFFFFFFFFFFFFFFFFFF AND MUL OR SWAP1 SSTORE POP PUSH1 0x20 DUP3 ADD MLOAD DUP2 PUSH1 0x1 ADD SSTORE SWAP1 POP POP PUSH1 0x40 MLOAD DUP1 PUSH1 0x40 ADD PUSH1 0x40 MSTORE DUP1 CALLER PUSH20 0xFFFFFFFFFFFFFFFFFFFFFFFFFFFFFFFFFFFFFFFF AND DUP2 MSTORE PUSH1 0x20 ADD CALLVALUE DUP2 MSTORE POP PUSH1 0x2 PUSH0 DUP3 ADD MLOAD DUP2 PUSH0 ADD PUSH0 PUSH2 0x100 EXP DUP2 SLOAD DUP2 PUSH20 0xFFFFFFFFFFFFFFFFFFFFFFFFFFFFFFFFFFFFFFFF MUL NOT AND SWAP1 DUP4 PUSH20 0xFFFFFFFFFFFFFFFFFFFFFFFFFFFFFFFFFFFFFFFF AND MUL OR SWAP1 SSTORE POP PUSH1 0x20 DUP3 ADD MLOAD DUP2 PUSH1 0x1 ADD SSTORE SWAP1 POP POP CALLER PUSH20 0xFFFFFFFFFFFFFFFFFFFFFFFFFFFFFFFFFFFFFFFF AND PUSH32 0xDD0B6C6A77960E2066C96171B4D7AC9E8B4C184011F38544AFA36A5BB63EC59F CALLVALUE PUSH1 0x40 MLOAD PUSH2 0x77C SWAP2 SWAP1 PUSH2 0x15A9 JUMP JUMPDEST PUSH1 0x40 MLOAD DUP1 SWAP2 SUB SWAP1 LOG2 PUSH1 0x5 SLOAD PUSH1 0x1 SLOAD PUSH2 0x794 SWAP2 SWAP1 PUSH2 0x1A0C JUMP JUMPDEST TIMESTAMP GT ISZERO PUSH2 0x802 JUMPI PUSH1 0x5 SLOAD TIMESTAMP PUSH2 0x7A9 SWAP2 SWAP1 PUSH2 0x1845 JUMP JUMPDEST PUSH1 0x1 DUP2 SWAP1 SSTORE POP CALLER PUSH20 0xFFFFFFFFFFFFFFFFFFFFFFFFFFFFFFFFFFFFFFFF AND PUSH32 0xBF5210F11796C8CE8B1D67ADD316E5A734C26896ACCE48BA93993F580AF205FF PUSH1 0x1 SLOAD CALLVALUE PUSH1 0x40 MLOAD PUSH2 0x7F9 SWAP3 SWAP2 SWAP1 PUSH2 0x1A3F JUMP JUMPDEST PUSH1 0x40 MLOAD DUP1 SWAP2 SUB SWAP1 LOG2 JUMPDEST POP JUMP JUMPDEST PUSH1 0x5 SLOAD DUP2 JUMP JUMPDEST PUSH1 0x1 SLOAD DUP2 JUMP JUMPDEST PUSH32 0x0 PUSH20 0xFFFFFFFFFFFFFFFFFFFFFFFFFFFFFFFFFFFFFFFF AND CALLER PUSH20 0xFFFFFFFFFFFFFFFFFFFFFFFFFFFFFFFFFFFFFFFF AND EQ PUSH2 0x89F JUMPI PUSH1 0x40 MLOAD PUSH32 0x8C379A000000000000000000000000000000000000000000000000000000000 DUP2 MSTORE PUSH1 0x4 ADD PUSH2 0x896 SWAP1 PUSH2 0x1AD6 JUMP JUMPDEST PUSH1 0x40 MLOAD DUP1 SWAP2 SUB SWAP1 REVERT JUMPDEST PUSH1 0x1 SLOAD TIMESTAMP GT PUSH2 0x8E3 JUMPI PUSH1 0x40 MLOAD PUSH32 0x8C379A000000000000000000000000000000000000000000000000000000000 DUP2 MSTORE PUSH1 0x4 ADD PUSH2 0x8DA SWAP1 PUSH2 0x1B3E JUMP JUMPDEST PUSH1 0x40 MLOAD DUP1 SWAP2 SUB SWAP1 REVERT JUMPDEST PUSH1 0x9 PUSH0 SWAP1 SLOAD SWAP1 PUSH2 0x100 EXP SWAP1 DIV PUSH1 0xFF AND ISZERO PUSH2 0x932 JUMPI PUSH1 0x40 MLOAD PUSH32 0x8C379A000000000000000000000000000000000000000000000000000000000 DUP2 MSTORE PUSH1 0x4 ADD PUSH2 0x929 SWAP1 PUSH2 0x1BCC JUMP JUMPDEST PUSH1 0x40 MLOAD DUP1 SWAP2 SUB SWAP1 REVERT JUMPDEST PUSH0 PUSH1 0x8 DUP1 SLOAD SWAP1 POP SUB PUSH2 0x979 JUMPI PUSH1 0x40 MLOAD PUSH32 0x8C379A000000000000000000000000000000000000000000000000000000000 DUP2 MSTORE PUSH1 0x4 ADD PUSH2 0x970 SWAP1 PUSH2 0x1C34 JUMP JUMPDEST PUSH1 0x40 MLOAD DUP1 SWAP2 SUB SWAP1 REVERT JUMPDEST PUSH1 0x2 PUSH0 SLOAD SUB PUSH2 0x9BD JUMPI PUSH1 0x40 MLOAD PUSH32 0x8C379A000000000000000000000000000000000000000000000000000000000 DUP2 MSTORE PUSH1 0x4 ADD PUSH2 0x9B4 SWAP1 PUSH2 0x1C9C JUMP JUMPDEST PUSH1 0x40 MLOAD DUP1 SWAP2 SUB SWAP1 REVERT JUMPDEST PUSH1 0x2 PUSH0 DUP2 SWAP1 SSTORE POP PUSH0 PUSH1 0x8 DUP1 SLOAD SWAP1 POP SWAP1 POP PUSH0 JUMPDEST DUP2 DUP2 LT ISZERO PUSH2 0xC63 JUMPI PUSH0 PUSH1 0x8 DUP3 DUP2 SLOAD DUP2 LT PUSH2 0x9EC JUMPI PUSH2 0x9EB PUSH2 0x1CBA JUMP JUMPDEST JUMPDEST SWAP1 PUSH0 MSTORE PUSH1 0x20 PUSH0 KECCAK256 ADD PUSH0 SWAP1 SLOAD SWAP1 PUSH2 0x100 EXP SWAP1 DIV PUSH20 0xFFFFFFFFFFFFFFFFFFFFFFFFFFFFFFFFFFFFFFFF AND SWAP1 POP PUSH0 PUSH1 0x7 PUSH0 DUP4 PUSH20 0xFFFFFFFFFFFFFFFFFFFFFFFFFFFFFFFFFFFFFFFF AND PUSH20 0xFFFFFFFFFFFFFFFFFFFFFFFFFFFFFFFFFFFFFFFF AND DUP2 MSTORE PUSH1 0x20 ADD SWAP1 DUP2 MSTORE PUSH1 0x20 ADD PUSH0 KECCAK256 SWAP1 POP PUSH0 PUSH0 SWAP1 POP PUSH0 DUP3 PUSH1 0x2 ADD SLOAD GT ISZERO PUSH2 0xAA7 JUMPI PUSH1 0x64 PUSH1 0x6 SLOAD PUSH1 0x64 PUSH2 0xA77 SWAP2 SWAP1 PUSH2 0x1A0C JUMP JUMPDEST DUP4 PUSH1 0x2 ADD SLOAD PUSH2 0xA86 SWAP2 SWAP1 PUSH2 0x1878 JUMP JUMPDEST PUSH2 0xA90 SWAP2 SWAP1 PUSH2 0x18E6 JUMP JUMPDEST DUP2 PUSH2 0xA9B SWAP2 SWAP1 PUSH2 0x1845 JUMP JUMPDEST SWAP1 POP PUSH0 DUP3 PUSH1 0x2 ADD DUP2 SWAP1 SSTORE POP JUMPDEST PUSH1 0x2 PUSH0 ADD PUSH0 SWAP1 SLOAD SWAP1 PUSH2 0x100 EXP SWAP1 DIV PUSH20 0xFFFFFFFFFFFFFFFFFFFFFFFFFFFFFFFFFFFFFFFF AND PUSH20 0xFFFFFFFFFFFFFFFFFFFFFFFFFFFFFFFFFFFFFFFF AND DUP4 PUSH20 0xFFFFFFFFFFFFFFFFFFFFFFFFFFFFFFFFFFFFFFFF AND EQ ISZERO DUP1 ISZERO PUSH2 0xB0B JUMPI POP PUSH0 DUP3 PUSH0 ADD PUSH1 0x1 ADD SLOAD GT JUMPDEST ISZERO PUSH2 0xB55 JUMPI PUSH1 0x64 PUSH1 0x6 SLOAD PUSH1 0x64 PUSH2 0xB21 SWAP2 SWAP1 PUSH2 0x1A0C JUMP JUMPDEST DUP4 PUSH0 ADD PUSH1 0x1 ADD SLOAD PUSH2 0xB32 SWAP2 SWAP1 PUSH2 0x1878 JUMP JUMPDEST PUSH2 0xB3C SWAP2 SWAP1 PUSH2 0x18E6 JUMP JUMPDEST DUP2 PUSH2 0xB47 SWAP2 SWAP1 PUSH2 0x1845 JUMP JUMPDEST SWAP1 POP PUSH0 DUP3 PUSH0 ADD PUSH1 0x1 ADD DUP2 SWAP1 SSTORE POP JUMPDEST PUSH0 DUP2 GT ISZERO PUSH2 0xC55 JUMPI PUSH0 DUP4 PUSH20 0xFFFFFFFFFFFFFFFFFFFFFFFFFFFFFFFFFFFFFFFF AND DUP3 PUSH1 0x40 MLOAD PUSH2 0xB82 SWAP1 PUSH2 0x1D14 JUMP JUMPDEST PUSH0 PUSH1 0x40 MLOAD DUP1 DUP4 SUB DUP2 DUP6 DUP8 GAS CALL SWAP3 POP POP POP RETURNDATASIZE DUP1 PUSH0 DUP2 EQ PUSH2 0xBBC JUMPI PUSH1 0x40 MLOAD SWAP2 POP PUSH1 0x1F NOT PUSH1 0x3F RETURNDATASIZE ADD AND DUP3 ADD PUSH1 0x40 MSTORE RETURNDATASIZE DUP3 MSTORE RETURNDATASIZE PUSH0 PUSH1 0x20 DUP5 ADD RETURNDATACOPY PUSH2 0xBC1 JUMP JUMPDEST PUSH1 0x60 SWAP2 POP JUMPDEST POP POP SWAP1 POP DUP1 PUSH2 0xC05 JUMPI PUSH1 0x40 MLOAD PUSH32 0x8C379A000000000000000000000000000000000000000000000000000000000 DUP2 MSTORE PUSH1 0x4 ADD PUSH2 0xBFC SWAP1 PUSH2 0x1D72 JUMP JUMPDEST PUSH1 0x40 MLOAD DUP1 SWAP2 SUB SWAP1 REVERT JUMPDEST DUP4 PUSH20 0xFFFFFFFFFFFFFFFFFFFFFFFFFFFFFFFFFFFFFFFF AND PUSH32 0xBB28353E4598C3B9199101A66E0989549B659A59A54D2C27FBB183F1932C8E6D DUP4 PUSH1 0x40 MLOAD PUSH2 0xC4B SWAP2 SWAP1 PUSH2 0x15A9 JUMP JUMPDEST PUSH1 0x40 MLOAD DUP1 SWAP2 SUB SWAP1 LOG2 POP JUMPDEST DUP4 PUSH1 0x1 ADD SWAP4 POP POP POP POP PUSH2 0x9CF JUMP JUMPDEST POP PUSH1 0x1 PUSH1 0x9 PUSH0 PUSH2 0x100 EXP DUP2 SLOAD DUP2 PUSH1 0xFF MUL NOT AND SWAP1 DUP4 ISZERO ISZERO MUL OR SWAP1 SSTORE POP PUSH1 0x2 PUSH0 ADD PUSH0 SWAP1 SLOAD SWAP1 PUSH2 0x100 EXP SWAP1 DIV PUSH20 0xFFFFFFFFFFFFFFFFFFFFFFFFFFFFFFFFFFFFFFFF AND PUSH20 0xFFFFFFFFFFFFFFFFFFFFFFFFFFFFFFFFFFFFFFFF AND PUSH32 0x8B1AD6C69D3D79A05F5B1EC0DE825E9BF67C6C70B8C25BABD159976CF9990DFF PUSH1 0x2 PUSH1 0x1 ADD SLOAD PUSH1 0x40 MLOAD PUSH2 0xCEC SWAP2 SWAP1 PUSH2 0x15A9 JUMP JUMPDEST PUSH1 0x40 MLOAD DUP1 SWAP2 SUB SWAP1 LOG2 POP PUSH1 0x1 PUSH0 DUP2 SWAP1 SSTORE POP JUMP JUMPDEST PUSH1 0x4 SLOAD DUP2 JUMP JUMPDEST PUSH1 0x1 SLOAD TIMESTAMP GT PUSH2 0xD48 JUMPI PUSH1 0x40 MLOAD PUSH32 0x8C379A000000000000000000000000000000000000000000000000000000000 DUP2 MSTORE PUSH1 0x4 ADD PUSH2 0xD3F SWAP1 PUSH2 0x1B3E JUMP JUMPDEST PUSH1 0x40 MLOAD DUP1 SWAP2 SUB SWAP1 REVERT JUMPDEST PUSH32 0x0 PUSH20 0xFFFFFFFFFFFFFFFFFFFFFFFFFFFFFFFFFFFFFFFF AND CALLER PUSH20 0xFFFFFFFFFFFFFFFFFFFFFFFFFFFFFFFFFFFFFFFF AND EQ PUSH2 0xDD6 JUMPI PUSH1 0x40 MLOAD PUSH32 0x8C379A000000000000000000000000000000000000000000000000000000000 DUP2 MSTORE PUSH1 0x4 ADD PUSH2 0xDCD SWAP1 PUSH2 0x1AD6 JUMP JUMPDEST PUSH1 0x40 MLOAD DUP1 SWAP2 SUB SWAP1 REVERT JUMPDEST PUSH1 0x2 PUSH0 SLOAD SUB PUSH2 0xE1A JUMPI PUSH1 0x40 MLOAD PUSH32 0x8C379A000000000000000000000000000000000000000000000000000000000 DUP2 MSTORE PUSH1 0x4 ADD PUSH2 0xE11 SWAP1 PUSH2 0x1C9C JUMP JUMPDEST PUSH1 0x40 MLOAD DUP1 SWAP2 SUB SWAP1 REVERT JUMPDEST PUSH1 0x2 PUSH0 DUP2 SWAP1 SSTORE POP PUSH1 0x9 PUSH0 SWAP1 SLOAD SWAP1 PUSH2 0x100 EXP SWAP1 DIV PUSH1 0xFF AND PUSH2 0xE6F JUMPI PUSH1 0x40 MLOAD PUSH32 0x8C379A000000000000000000000000000000000000000000000000000000000 DUP2 MSTORE PUSH1 0x4 ADD PUSH2 0xE66 SWAP1 PUSH2 0x1DDA JUMP JUMPDEST PUSH1 0x40 MLOAD DUP1 SWAP2 SUB SWAP1 REVERT JUMPDEST PUSH0 PUSH32 0x0 PUSH20 0xFFFFFFFFFFFFFFFFFFFFFFFFFFFFFFFFFFFFFFFF AND SELFBALANCE PUSH1 0x40 MLOAD PUSH2 0xEB4 SWAP1 PUSH2 0x1D14 JUMP JUMPDEST PUSH0 PUSH1 0x40 MLOAD DUP1 DUP4 SUB DUP2 DUP6 DUP8 GAS CALL SWAP3 POP POP POP RETURNDATASIZE DUP1 PUSH0 DUP2 EQ PUSH2 0xEEE JUMPI PUSH1 0x40 MLOAD SWAP2 POP PUSH1 0x1F NOT PUSH1 0x3F RETURNDATASIZE ADD AND DUP3 ADD PUSH1 0x40 MSTORE RETURNDATASIZE DUP3 MSTORE RETURNDATASIZE PUSH0 PUSH1 0x20 DUP5 ADD RETURNDATACOPY PUSH2 0xEF3 JUMP JUMPDEST PUSH1 0x60 SWAP2 POP JUMPDEST POP POP SWAP1 POP DUP1 PUSH2 0xF37 JUMPI PUSH1 0x40 MLOAD PUSH32 0x8C379A000000000000000000000000000000000000000000000000000000000 DUP2 MSTORE PUSH1 0x4 ADD PUSH2 0xF2E SWAP1 PUSH2 0x1E42 JUMP JUMPDEST PUSH1 0x40 MLOAD DUP1 SWAP2 SUB SWAP1 REVERT JUMPDEST POP PUSH1 0x1 PUSH0 DUP2 SWAP1 SSTORE POP JUMP JUMPDEST PUSH1 0x6 SLOAD DUP2 JUMP JUMPDEST PUSH32 0x0 DUP2 JUMP JUMPDEST PUSH32 0x0 DUP2 JUMP JUMPDEST PUSH1 0x60 PUSH0 PUSH1 0x8 DUP1 SLOAD SWAP1 POP SUB PUSH2 0xFD8 JUMPI PUSH1 0x40 MLOAD PUSH32 0x8C379A000000000000000000000000000000000000000000000000000000000 DUP2 MSTORE PUSH1 0x4 ADD PUSH2 0xFCF SWAP1 PUSH2 0x1C34 JUMP JUMPDEST PUSH1 0x40 MLOAD DUP1 SWAP2 SUB SWAP1 REVERT JUMPDEST PUSH0 PUSH1 0x8 DUP1 SLOAD SWAP1 POP SWAP1 POP PUSH0 DUP2 PUSH8 0xFFFFFFFFFFFFFFFF DUP2 GT ISZERO PUSH2 0xFFC JUMPI PUSH2 0xFFB PUSH2 0x1E60 JUMP JUMPDEST JUMPDEST PUSH1 0x40 MLOAD SWAP1 DUP1 DUP3 MSTORE DUP1 PUSH1 0x20 MUL PUSH1 0x20 ADD DUP3 ADD PUSH1 0x40 MSTORE DUP1 ISZERO PUSH2 0x1035 JUMPI DUP2 PUSH1 0x20 ADD JUMPDEST PUSH2 0x1022 PUSH2 0x1544 JUMP JUMPDEST DUP2 MSTORE PUSH1 0x20 ADD SWAP1 PUSH1 0x1 SWAP1 SUB SWAP1 DUP2 PUSH2 0x101A JUMPI SWAP1 POP JUMPDEST POP SWAP1 POP PUSH0 PUSH0 SWAP1 POP JUMPDEST DUP3 DUP2 LT ISZERO PUSH2 0x116E JUMPI PUSH1 0x7 PUSH0 PUSH1 0x8 DUP4 DUP2 SLOAD DUP2 LT PUSH2 0x105C JUMPI PUSH2 0x105B PUSH2 0x1CBA JUMP JUMPDEST JUMPDEST SWAP1 PUSH0 MSTORE PUSH1 0x20 PUSH0 KECCAK256 ADD PUSH0 SWAP1 SLOAD SWAP1 PUSH2 0x100 EXP SWAP1 DIV PUSH20 0xFFFFFFFFFFFFFFFFFFFFFFFFFFFFFFFFFFFFFFFF AND PUSH20 0xFFFFFFFFFFFFFFFFFFFFFFFFFFFFFFFFFFFFFFFF AND PUSH20 0xFFFFFFFFFFFFFFFFFFFFFFFFFFFFFFFFFFFFFFFF AND DUP2 MSTORE PUSH1 0x20 ADD SWAP1 DUP2 MSTORE PUSH1 0x20 ADD PUSH0 KECCAK256 PUSH1 0x40 MLOAD DUP1 PUSH1 0x40 ADD PUSH1 0x40 MSTORE SWAP1 DUP2 PUSH0 DUP3 ADD PUSH1 0x40 MLOAD DUP1 PUSH1 0x40 ADD PUSH1 0x40 MSTORE SWAP1 DUP2 PUSH0 DUP3 ADD PUSH0 SWAP1 SLOAD SWAP1 PUSH2 0x100 EXP SWAP1 DIV PUSH20 0xFFFFFFFFFFFFFFFFFFFFFFFFFFFFFFFFFFFFFFFF AND PUSH20 0xFFFFFFFFFFFFFFFFFFFFFFFFFFFFFFFFFFFFFFFF AND PUSH20 0xFFFFFFFFFFFFFFFFFFFFFFFFFFFFFFFFFFFFFFFF AND DUP2 MSTORE PUSH1 0x20 ADD PUSH1 0x1 DUP3 ADD SLOAD DUP2 MSTORE POP POP DUP2 MSTORE PUSH1 0x20 ADD PUSH1 0x2 DUP3 ADD SLOAD DUP2 MSTORE POP POP DUP3 DUP3 DUP2 MLOAD DUP2 LT PUSH2 0x1156 JUMPI PUSH2 0x1155 PUSH2 0x1CBA JUMP JUMPDEST JUMPDEST PUSH1 0x20 MUL PUSH1 0x20 ADD ADD DUP2 SWAP1 MSTORE POP DUP1 DUP1 PUSH1 0x1 ADD SWAP2 POP POP PUSH2 0x103D JUMP JUMPDEST POP DUP1 SWAP3 POP POP POP SWAP1 JUMP JUMPDEST PUSH0 PUSH1 0x1 SLOAD TIMESTAMP GT ISZERO PUSH2 0x118A JUMPI PUSH0 SWAP1 POP PUSH2 0x119B JUMP JUMPDEST TIMESTAMP PUSH1 0x1 SLOAD PUSH2 0x1198 SWAP2 SWAP1 PUSH2 0x1A0C JUMP JUMPDEST SWAP1 POP JUMPDEST SWAP1 JUMP JUMPDEST PUSH2 0x11A6 PUSH2 0x1563 JUMP JUMPDEST PUSH0 PUSH1 0x8 DUP1 SLOAD SWAP1 POP SUB PUSH2 0x11ED JUMPI PUSH1 0x40 MLOAD PUSH32 0x8C379A000000000000000000000000000000000000000000000000000000000 DUP2 MSTORE PUSH1 0x4 ADD PUSH2 0x11E4 SWAP1 PUSH2 0x1C34 JUMP JUMPDEST PUSH1 0x40 MLOAD DUP1 SWAP2 SUB SWAP1 REVERT JUMPDEST PUSH1 0x1 SLOAD TIMESTAMP GT PUSH2 0x1231 JUMPI PUSH1 0x40 MLOAD PUSH32 0x8C379A000000000000000000000000000000000000000000000000000000000 DUP2 MSTORE PUSH1 0x4 ADD PUSH2 0x1228 SWAP1 PUSH2 0x1B3E JUMP JUMPDEST PUSH1 0x40 MLOAD DUP1 SWAP2 SUB SWAP1 REVERT JUMPDEST PUSH1 0x2 PUSH1 0x40 MLOAD DUP1 PUSH1 0x40 ADD PUSH1 0x40 MSTORE SWAP1 DUP2 PUSH0 DUP3 ADD PUSH0 SWAP1 SLOAD SWAP1 PUSH2 0x100 EXP SWAP1 DIV PUSH20 0xFFFFFFFFFFFFFFFFFFFFFFFFFFFFFFFFFFFFFFFF AND PUSH20 0xFFFFFFFFFFFFFFFFFFFFFFFFFFFFFFFFFFFFFFFF AND PUSH20 0xFFFFFFFFFFFFFFFFFFFFFFFFFFFFFFFFFFFFFFFF AND DUP2 MSTORE PUSH1 0x20 ADD PUSH1 0x1 DUP3 ADD SLOAD DUP2 MSTORE POP POP SWAP1 POP SWAP1 JUMP JUMPDEST PUSH1 0x1 SLOAD TIMESTAMP GT ISZERO PUSH2 0x12E6 JUMPI PUSH1 0x40 MLOAD PUSH32 0x8C379A000000000000000000000000000000000000000000000000000000000 DUP2 MSTORE PUSH1 0x4 ADD PUSH2 0x12DD SWAP1 PUSH2 0x17FA JUMP JUMPDEST PUSH1 0x40 MLOAD DUP1 SWAP2 SUB SWAP1 REVERT JUMPDEST PUSH0 PUSH1 0x8 DUP1 SLOAD SWAP1 POP SUB PUSH2 0x132D JUMPI PUSH1 0x40 MLOAD PUSH32 0x8C379A000000000000000000000000000000000000000000000000000000000 DUP2 MSTORE PUSH1 0x4 ADD PUSH2 0x1324 SWAP1 PUSH2 0x1C34 JUMP JUMPDEST PUSH1 0x40 MLOAD DUP1 SWAP2 SUB SWAP1 REVERT JUMPDEST PUSH1 0x2 PUSH0 SLOAD SUB PUSH2 0x1371 JUMPI PUSH1 0x40 MLOAD PUSH32 0x8C379A000000000000000000000000000000000000000000000000000000000 DUP2 MSTORE PUSH1 0x4 ADD PUSH2 0x1368 SWAP1 PUSH2 0x1C9C JUMP JUMPDEST PUSH1 0x40 MLOAD DUP1 SWAP2 SUB SWAP1 REVERT JUMPDEST PUSH1 0x2 PUSH0 DUP2 SWAP1 SSTORE POP PUSH0 PUSH1 0x7 PUSH0 CALLER PUSH20 0xFFFFFFFFFFFFFFFFFFFFFFFFFFFFFFFFFFFFFFFF AND PUSH20 0xFFFFFFFFFFFFFFFFFFFFFFFFFFFFFFFFFFFFFFFF AND DUP2 MSTORE PUSH1 0x20 ADD SWAP1 DUP2 MSTORE PUSH1 0x20 ADD PUSH0 KECCAK256 PUSH1 0x2 ADD SLOAD SWAP1 POP PUSH0 DUP2 GT PUSH2 0x13FE JUMPI PUSH1 0x40 MLOAD PUSH32 0x8C379A000000000000000000000000000000000000000000000000000000000 DUP2 MSTORE PUSH1 0x4 ADD PUSH2 0x13F5 SWAP1 PUSH2 0x1ED7 JUMP JUMPDEST PUSH1 0x40 MLOAD DUP1 SWAP2 SUB SWAP1 REVERT JUMPDEST PUSH0 PUSH1 0x7 PUSH0 CALLER PUSH20 0xFFFFFFFFFFFFFFFFFFFFFFFFFFFFFFFFFFFFFFFF AND PUSH20 0xFFFFFFFFFFFFFFFFFFFFFFFFFFFFFFFFFFFFFFFF AND DUP2 MSTORE PUSH1 0x20 ADD SWAP1 DUP2 MSTORE PUSH1 0x20 ADD PUSH0 KECCAK256 PUSH1 0x2 ADD DUP2 SWAP1 SSTORE POP PUSH0 CALLER PUSH20 0xFFFFFFFFFFFFFFFFFFFFFFFFFFFFFFFFFFFFFFFF AND DUP3 PUSH1 0x40 MLOAD PUSH2 0x1468 SWAP1 PUSH2 0x1D14 JUMP JUMPDEST PUSH0 PUSH1 0x40 MLOAD DUP1 DUP4 SUB DUP2 DUP6 DUP8 GAS CALL SWAP3 POP POP POP RETURNDATASIZE DUP1 PUSH0 DUP2 EQ PUSH2 0x14A2 JUMPI PUSH1 0x40 MLOAD SWAP2 POP PUSH1 0x1F NOT PUSH1 0x3F RETURNDATASIZE ADD AND DUP3 ADD PUSH1 0x40 MSTORE RETURNDATASIZE DUP3 MSTORE RETURNDATASIZE PUSH0 PUSH1 0x20 DUP5 ADD RETURNDATACOPY PUSH2 0x14A7 JUMP JUMPDEST PUSH1 0x60 SWAP2 POP JUMPDEST POP POP SWAP1 POP DUP1 PUSH2 0x14EB JUMPI PUSH1 0x40 MLOAD PUSH32 0x8C379A000000000000000000000000000000000000000000000000000000000 DUP2 MSTORE PUSH1 0x4 ADD PUSH2 0x14E2 SWAP1 PUSH2 0x1F3F JUMP JUMPDEST PUSH1 0x40 MLOAD DUP1 SWAP2 SUB SWAP1 REVERT JUMPDEST CALLER PUSH20 0xFFFFFFFFFFFFFFFFFFFFFFFFFFFFFFFFFFFFFFFF AND PUSH32 0xD84FCBAC5440AEDDA6D2B5F149AA3182C87252EEF5BAB6F061CFE022A3E166EF DUP4 PUSH1 0x40 MLOAD PUSH2 0x1531 SWAP2 SWAP1 PUSH2 0x15A9 JUMP JUMPDEST PUSH1 0x40 MLOAD DUP1 SWAP2 SUB SWAP1 LOG2 POP POP PUSH1 0x1 PUSH0 DUP2 SWAP1 SSTORE POP JUMP JUMPDEST PUSH1 0x40 MLOAD DUP1 PUSH1 0x40 ADD PUSH1 0x40 MSTORE DUP1 PUSH2 0x1557 PUSH2 0x1563 JUMP JUMPDEST DUP2 MSTORE PUSH1 0x20 ADD PUSH0 DUP2 MSTORE POP SWAP1 JUMP JUMPDEST PUSH1 0x40 MLOAD DUP1 PUSH1 0x40 ADD PUSH1 0x40 MSTORE DUP1 PUSH0 PUSH20 0xFFFFFFFFFFFFFFFFFFFFFFFFFFFFFFFFFFFFFFFF AND DUP2 MSTORE PUSH1 0x20 ADD PUSH0 DUP2 MSTORE POP SWAP1 JUMP JUMPDEST PUSH0 DUP2 SWAP1 POP SWAP2 SWAP1 POP JUMP JUMPDEST PUSH2 0x15A3 DUP2 PUSH2 0x1591 JUMP JUMPDEST DUP3 MSTORE POP POP JUMP JUMPDEST PUSH0 PUSH1 0x20 DUP3 ADD SWAP1 POP PUSH2 0x15BC PUSH0 DUP4 ADD DUP5 PUSH2 0x159A JUMP JUMPDEST SWAP3 SWAP2 POP POP JUMP JUMPDEST PUSH0 PUSH20 0xFFFFFFFFFFFFFFFFFFFFFFFFFFFFFFFFFFFFFFFF DUP3 AND SWAP1 POP SWAP2 SWAP1 POP JUMP JUMPDEST PUSH0 PUSH2 0x15EB DUP3 PUSH2 0x15C2 JUMP JUMPDEST SWAP1 POP SWAP2 SWAP1 POP JUMP JUMPDEST PUSH2 0x15FB DUP2 PUSH2 0x15E1 JUMP JUMPDEST DUP3 MSTORE POP POP JUMP JUMPDEST PUSH0 PUSH1 0x20 DUP3 ADD SWAP1 POP PUSH2 0x1614 PUSH0 DUP4 ADD DUP5 PUSH2 0x15F2 JUMP JUMPDEST SWAP3 SWAP2 POP POP JUMP JUMPDEST PUSH0 DUP2 MLOAD SWAP1 POP SWAP2 SWAP1 POP JUMP JUMPDEST PUSH0 DUP3 DUP3 MSTORE PUSH1 0x20 DUP3 ADD SWAP1 POP SWAP3 SWAP2 POP POP JUMP JUMPDEST PUSH0 DUP2 SWAP1 POP PUSH1 0x20 DUP3 ADD SWAP1 POP SWAP2 SWAP1 POP JUMP JUMPDEST PUSH2 0x164C DUP2 PUSH2 0x15E1 JUMP JUMPDEST DUP3 MSTORE POP POP JUMP JUMPDEST PUSH2 0x165B DUP2 PUSH2 0x1591 JUMP JUMPDEST DUP3 MSTORE POP POP JUMP JUMPDEST PUSH1 0x40 DUP3 ADD PUSH0 DUP3 ADD MLOAD PUSH2 0x1675 PUSH0 DUP6 ADD DUP3 PUSH2 0x1643 JUMP JUMPDEST POP PUSH1 0x20 DUP3 ADD MLOAD PUSH2 0x1688 PUSH1 0x20 DUP6 ADD DUP3 PUSH2 0x1652 JUMP JUMPDEST POP POP POP POP JUMP JUMPDEST PUSH1 0x60 DUP3 ADD PUSH0 DUP3 ADD MLOAD PUSH2 0x16A2 PUSH0 DUP6 ADD DUP3 PUSH2 0x1661 JUMP JUMPDEST POP PUSH1 0x20 DUP3 ADD MLOAD PUSH2 0x16B5 PUSH1 0x40 DUP6 ADD DUP3 PUSH2 0x1652 JUMP JUMPDEST POP POP POP POP JUMP JUMPDEST PUSH0 PUSH2 0x16C6 DUP4 DUP4 PUSH2 0x168E JUMP JUMPDEST PUSH1 0x60 DUP4 ADD SWAP1 POP SWAP3 SWAP2 POP POP JUMP JUMPDEST PUSH0 PUSH1 0x20 DUP3 ADD SWAP1 POP SWAP2 SWAP1 POP JUMP JUMPDEST PUSH0 PUSH2 0x16E8 DUP3 PUSH2 0x161A JUMP JUMPDEST PUSH2 0x16F2 DUP2 DUP6 PUSH2 0x1624 JUMP JUMPDEST SWAP4 POP PUSH2 0x16FD DUP4 PUSH2 0x1634 JUMP JUMPDEST DUP1 PUSH0 JUMPDEST DUP4 DUP2 LT ISZERO PUSH2 0x172D JUMPI DUP2 MLOAD PUSH2 0x1714 DUP9 DUP3 PUSH2 0x16BB JUMP JUMPDEST SWAP8 POP PUSH2 0x171F DUP4 PUSH2 0x16D2 JUMP JUMPDEST SWAP3 POP POP PUSH1 0x1 DUP2 ADD SWAP1 POP PUSH2 0x1700 JUMP JUMPDEST POP DUP6 SWAP4 POP POP POP POP SWAP3 SWAP2 POP POP JUMP JUMPDEST PUSH0 PUSH1 0x20 DUP3 ADD SWAP1 POP DUP2 DUP2 SUB PUSH0 DUP4 ADD MSTORE PUSH2 0x1752 DUP2 DUP5 PUSH2 0x16DE JUMP JUMPDEST SWAP1 POP SWAP3 SWAP2 POP POP JUMP JUMPDEST PUSH1 0x40 DUP3 ADD PUSH0 DUP3 ADD MLOAD PUSH2 0x176E PUSH0 DUP6 ADD DUP3 PUSH2 0x1643 JUMP JUMPDEST POP PUSH1 0x20 DUP3 ADD MLOAD PUSH2 0x1781 PUSH1 0x20 DUP6 ADD DUP3 PUSH2 0x1652 JUMP JUMPDEST POP POP POP POP JUMP JUMPDEST PUSH0 PUSH1 0x40 DUP3 ADD SWAP1 POP PUSH2 0x179A PUSH0 DUP4 ADD DUP5 PUSH2 0x175A JUMP JUMPDEST SWAP3 SWAP2 POP POP JUMP JUMPDEST PUSH0 DUP3 DUP3 MSTORE PUSH1 0x20 DUP3 ADD SWAP1 POP SWAP3 SWAP2 POP POP JUMP JUMPDEST PUSH32 0x41756374696F6E20686173206578706972656400000000000000000000000000 PUSH0 DUP3 ADD MSTORE POP JUMP JUMPDEST PUSH0 PUSH2 0x17E4 PUSH1 0x13 DUP4 PUSH2 0x17A0 JUMP JUMPDEST SWAP2 POP PUSH2 0x17EF DUP3 PUSH2 0x17B0 JUMP JUMPDEST PUSH1 0x20 DUP3 ADD SWAP1 POP SWAP2 SWAP1 POP JUMP JUMPDEST PUSH0 PUSH1 0x20 DUP3 ADD SWAP1 POP DUP2 DUP2 SUB PUSH0 DUP4 ADD MSTORE PUSH2 0x1811 DUP2 PUSH2 0x17D8 JUMP JUMPDEST SWAP1 POP SWAP2 SWAP1 POP JUMP JUMPDEST PUSH32 0x4E487B7100000000000000000000000000000000000000000000000000000000 PUSH0 MSTORE PUSH1 0x11 PUSH1 0x4 MSTORE PUSH1 0x24 PUSH0 REVERT JUMPDEST PUSH0 PUSH2 0x184F DUP3 PUSH2 0x1591 JUMP JUMPDEST SWAP2 POP PUSH2 0x185A DUP4 PUSH2 0x1591 JUMP JUMPDEST SWAP3 POP DUP3 DUP3 ADD SWAP1 POP DUP1 DUP3 GT ISZERO PUSH2 0x1872 JUMPI PUSH2 0x1871 PUSH2 0x1818 JUMP JUMPDEST JUMPDEST SWAP3 SWAP2 POP POP JUMP JUMPDEST PUSH0 PUSH2 0x1882 DUP3 PUSH2 0x1591 JUMP JUMPDEST SWAP2 POP PUSH2 0x188D DUP4 PUSH2 0x1591 JUMP JUMPDEST SWAP3 POP DUP3 DUP3 MUL PUSH2 0x189B DUP2 PUSH2 0x1591 JUMP JUMPDEST SWAP2 POP DUP3 DUP3 DIV DUP5 EQ DUP4 ISZERO OR PUSH2 0x18B2 JUMPI PUSH2 0x18B1 PUSH2 0x1818 JUMP JUMPDEST JUMPDEST POP SWAP3 SWAP2 POP POP JUMP JUMPDEST PUSH32 0x4E487B7100000000000000000000000000000000000000000000000000000000 PUSH0 MSTORE PUSH1 0x12 PUSH1 0x4 MSTORE PUSH1 0x24 PUSH0 REVERT JUMPDEST PUSH0 PUSH2 0x18F0 DUP3 PUSH2 0x1591 JUMP JUMPDEST SWAP2 POP PUSH2 0x18FB DUP4 PUSH2 0x1591 JUMP JUMPDEST SWAP3 POP DUP3 PUSH2 0x190B JUMPI PUSH2 0x190A PUSH2 0x18B9 JUMP JUMPDEST JUMPDEST DUP3 DUP3 DIV SWAP1 POP SWAP3 SWAP2 POP POP JUMP JUMPDEST PUSH32 0x426964206D757374206265206174206C65617374203525206772656174657220 PUSH0 DUP3 ADD MSTORE PUSH32 0x7468616E2063757272656E742068696768657374206269640000000000000000 PUSH1 0x20 DUP3 ADD MSTORE POP JUMP JUMPDEST PUSH0 PUSH2 0x1970 PUSH1 0x38 DUP4 PUSH2 0x17A0 JUMP JUMPDEST SWAP2 POP PUSH2 0x197B DUP3 PUSH2 0x1916 JUMP JUMPDEST PUSH1 0x40 DUP3 ADD SWAP1 POP SWAP2 SWAP1 POP JUMP JUMPDEST PUSH0 PUSH1 0x20 DUP3 ADD SWAP1 POP DUP2 DUP2 SUB PUSH0 DUP4 ADD MSTORE PUSH2 0x199D DUP2 PUSH2 0x1964 JUMP JUMPDEST SWAP1 POP SWAP2 SWAP1 POP JUMP JUMPDEST PUSH32 0x596F7520616C7265616479206861766520746865206869676865737420626964 PUSH0 DUP3 ADD MSTORE POP JUMP JUMPDEST PUSH0 PUSH2 0x19D8 PUSH1 0x20 DUP4 PUSH2 0x17A0 JUMP JUMPDEST SWAP2 POP PUSH2 0x19E3 DUP3 PUSH2 0x19A4 JUMP JUMPDEST PUSH1 0x20 DUP3 ADD SWAP1 POP SWAP2 SWAP1 POP JUMP JUMPDEST PUSH0 PUSH1 0x20 DUP3 ADD SWAP1 POP DUP2 DUP2 SUB PUSH0 DUP4 ADD MSTORE PUSH2 0x1A05 DUP2 PUSH2 0x19CC JUMP JUMPDEST SWAP1 POP SWAP2 SWAP1 POP JUMP JUMPDEST PUSH0 PUSH2 0x1A16 DUP3 PUSH2 0x1591 JUMP JUMPDEST SWAP2 POP PUSH2 0x1A21 DUP4 PUSH2 0x1591 JUMP JUMPDEST SWAP3 POP DUP3 DUP3 SUB SWAP1 POP DUP2 DUP2 GT ISZERO PUSH2 0x1A39 JUMPI PUSH2 0x1A38 PUSH2 0x1818 JUMP JUMPDEST JUMPDEST SWAP3 SWAP2 POP POP JUMP JUMPDEST PUSH0 PUSH1 0x40 DUP3 ADD SWAP1 POP PUSH2 0x1A52 PUSH0 DUP4 ADD DUP6 PUSH2 0x159A JUMP JUMPDEST PUSH2 0x1A5F PUSH1 0x20 DUP4 ADD DUP5 PUSH2 0x159A JUMP JUMPDEST SWAP4 SWAP3 POP POP POP JUMP JUMPDEST PUSH32 0x4F6E6C79206F776E65722063616E20706572666F726D20746869732061637469 PUSH0 DUP3 ADD MSTORE PUSH32 0x6F6E000000000000000000000000000000000000000000000000000000000000 PUSH1 0x20 DUP3 ADD MSTORE POP JUMP JUMPDEST PUSH0 PUSH2 0x1AC0 PUSH1 0x22 DUP4 PUSH2 0x17A0 JUMP JUMPDEST SWAP2 POP PUSH2 0x1ACB DUP3 PUSH2 0x1A66 JUMP JUMPDEST PUSH1 0x40 DUP3 ADD SWAP1 POP SWAP2 SWAP1 POP JUMP JUMPDEST PUSH0 PUSH1 0x20 DUP3 ADD SWAP1 POP DUP2 DUP2 SUB PUSH0 DUP4 ADD MSTORE PUSH2 0x1AED DUP2 PUSH2 0x1AB4 JUMP JUMPDEST SWAP1 POP SWAP2 SWAP1 POP JUMP JUMPDEST PUSH32 0x41756374696F6E206973206E6F742066696E6973686564000000000000000000 PUSH0 DUP3 ADD MSTORE POP JUMP JUMPDEST PUSH0 PUSH2 0x1B28 PUSH1 0x17 DUP4 PUSH2 0x17A0 JUMP JUMPDEST SWAP2 POP PUSH2 0x1B33 DUP3 PUSH2 0x1AF4 JUMP JUMPDEST PUSH1 0x20 DUP3 ADD SWAP1 POP SWAP2 SWAP1 POP JUMP JUMPDEST PUSH0 PUSH1 0x20 DUP3 ADD SWAP1 POP DUP2 DUP2 SUB PUSH0 DUP4 ADD MSTORE PUSH2 0x1B55 DUP2 PUSH2 0x1B1C JUMP JUMPDEST SWAP1 POP SWAP2 SWAP1 POP JUMP JUMPDEST PUSH32 0x42696464657273206861766520616C7265616479206265656E20726566756E64 PUSH0 DUP3 ADD MSTORE PUSH32 0x6564000000000000000000000000000000000000000000000000000000000000 PUSH1 0x20 DUP3 ADD MSTORE POP JUMP JUMPDEST PUSH0 PUSH2 0x1BB6 PUSH1 0x22 DUP4 PUSH2 0x17A0 JUMP JUMPDEST SWAP2 POP PUSH2 0x1BC1 DUP3 PUSH2 0x1B5C JUMP JUMPDEST PUSH1 0x40 DUP3 ADD SWAP1 POP SWAP2 SWAP1 POP JUMP JUMPDEST PUSH0 PUSH1 0x20 DUP3 ADD SWAP1 POP DUP2 DUP2 SUB PUSH0 DUP4 ADD MSTORE PUSH2 0x1BE3 DUP2 PUSH2 0x1BAA JUMP JUMPDEST SWAP1 POP SWAP2 SWAP1 POP JUMP JUMPDEST PUSH32 0x546865726520617265206E6F2062696473207965740000000000000000000000 PUSH0 DUP3 ADD MSTORE POP JUMP JUMPDEST PUSH0 PUSH2 0x1C1E PUSH1 0x15 DUP4 PUSH2 0x17A0 JUMP JUMPDEST SWAP2 POP PUSH2 0x1C29 DUP3 PUSH2 0x1BEA JUMP JUMPDEST PUSH1 0x20 DUP3 ADD SWAP1 POP SWAP2 SWAP1 POP JUMP JUMPDEST PUSH0 PUSH1 0x20 DUP3 ADD SWAP1 POP DUP2 DUP2 SUB PUSH0 DUP4 ADD MSTORE PUSH2 0x1C4B DUP2 PUSH2 0x1C12 JUMP JUMPDEST SWAP1 POP SWAP2 SWAP1 POP JUMP JUMPDEST PUSH32 0x5265656E7472616E637947756172643A207265656E7472616E742063616C6C00 PUSH0 DUP3 ADD MSTORE POP JUMP JUMPDEST PUSH0 PUSH2 0x1C86 PUSH1 0x1F DUP4 PUSH2 0x17A0 JUMP JUMPDEST SWAP2 POP PUSH2 0x1C91 DUP3 PUSH2 0x1C52 JUMP JUMPDEST PUSH1 0x20 DUP3 ADD SWAP1 POP SWAP2 SWAP1 POP JUMP JUMPDEST PUSH0 PUSH1 0x20 DUP3 ADD SWAP1 POP DUP2 DUP2 SUB PUSH0 DUP4 ADD MSTORE PUSH2 0x1CB3 DUP2 PUSH2 0x1C7A JUMP JUMPDEST SWAP1 POP SWAP2 SWAP1 POP JUMP JUMPDEST PUSH32 0x4E487B7100000000000000000000000000000000000000000000000000000000 PUSH0 MSTORE PUSH1 0x32 PUSH1 0x4 MSTORE PUSH1 0x24 PUSH0 REVERT JUMPDEST PUSH0 DUP2 SWAP1 POP SWAP3 SWAP2 POP POP JUMP JUMPDEST POP JUMP JUMPDEST PUSH0 PUSH2 0x1CFF PUSH0 DUP4 PUSH2 0x1CE7 JUMP JUMPDEST SWAP2 POP PUSH2 0x1D0A DUP3 PUSH2 0x1CF1 JUMP JUMPDEST PUSH0 DUP3 ADD SWAP1 POP SWAP2 SWAP1 POP JUMP JUMPDEST PUSH0 PUSH2 0x1D1E DUP3 PUSH2 0x1CF4 JUMP JUMPDEST SWAP2 POP DUP2 SWAP1 POP SWAP2 SWAP1 POP JUMP JUMPDEST PUSH32 0x726566756E64206661696C000000000000000000000000000000000000000000 PUSH0 DUP3 ADD MSTORE POP JUMP JUMPDEST PUSH0 PUSH2 0x1D5C PUSH1 0xB DUP4 PUSH2 0x17A0 JUMP JUMPDEST SWAP2 POP PUSH2 0x1D67 DUP3 PUSH2 0x1D28 JUMP JUMPDEST PUSH1 0x20 DUP3 ADD SWAP1 POP SWAP2 SWAP1 POP JUMP JUMPDEST PUSH0 PUSH1 0x20 DUP3 ADD SWAP1 POP DUP2 DUP2 SUB PUSH0 DUP4 ADD MSTORE PUSH2 0x1D89 DUP2 PUSH2 0x1D50 JUMP JUMPDEST SWAP1 POP SWAP2 SWAP1 POP JUMP JUMPDEST PUSH32 0x526566756E642066697273740000000000000000000000000000000000000000 PUSH0 DUP3 ADD MSTORE POP JUMP JUMPDEST PUSH0 PUSH2 0x1DC4 PUSH1 0xC DUP4 PUSH2 0x17A0 JUMP JUMPDEST SWAP2 POP PUSH2 0x1DCF DUP3 PUSH2 0x1D90 JUMP JUMPDEST PUSH1 0x20 DUP3 ADD SWAP1 POP SWAP2 SWAP1 POP JUMP JUMPDEST PUSH0 PUSH1 0x20 DUP3 ADD SWAP1 POP DUP2 DUP2 SUB PUSH0 DUP4 ADD MSTORE PUSH2 0x1DF1 DUP2 PUSH2 0x1DB8 JUMP JUMPDEST SWAP1 POP SWAP2 SWAP1 POP JUMP JUMPDEST PUSH32 0x5769746864726177206661696C00000000000000000000000000000000000000 PUSH0 DUP3 ADD MSTORE POP JUMP JUMPDEST PUSH0 PUSH2 0x1E2C PUSH1 0xD DUP4 PUSH2 0x17A0 JUMP JUMPDEST SWAP2 POP PUSH2 0x1E37 DUP3 PUSH2 0x1DF8 JUMP JUMPDEST PUSH1 0x20 DUP3 ADD SWAP1 POP SWAP2 SWAP1 POP JUMP JUMPDEST PUSH0 PUSH1 0x20 DUP3 ADD SWAP1 POP DUP2 DUP2 SUB PUSH0 DUP4 ADD MSTORE PUSH2 0x1E59 DUP2 PUSH2 0x1E20 JUMP JUMPDEST SWAP1 POP SWAP2 SWAP1 POP JUMP JUMPDEST PUSH32 0x4E487B7100000000000000000000000000000000000000000000000000000000 PUSH0 MSTORE PUSH1 0x41 PUSH1 0x4 MSTORE PUSH1 0x24 PUSH0 REVERT JUMPDEST PUSH32 0x4E6F2070656E64696E6720776974686472617720666F756E6400000000000000 PUSH0 DUP3 ADD MSTORE POP JUMP JUMPDEST PUSH0 PUSH2 0x1EC1 PUSH1 0x19 DUP4 PUSH2 0x17A0 JUMP JUMPDEST SWAP2 POP PUSH2 0x1ECC DUP3 PUSH2 0x1E8D JUMP JUMPDEST PUSH1 0x20 DUP3 ADD SWAP1 POP SWAP2 SWAP1 POP JUMP JUMPDEST PUSH0 PUSH1 0x20 DUP3 ADD SWAP1 POP DUP2 DUP2 SUB PUSH0 DUP4 ADD MSTORE PUSH2 0x1EEE DUP2 PUSH2 0x1EB5 JUMP JUMPDEST SWAP1 POP SWAP2 SWAP1 POP JUMP JUMPDEST PUSH32 0x526566756E64206661696C656400000000000000000000000000000000000000 PUSH0 DUP3 ADD MSTORE POP JUMP JUMPDEST PUSH0 PUSH2 0x1F29 PUSH1 0xD DUP4 PUSH2 0x17A0 JUMP JUMPDEST SWAP2 POP PUSH2 0x1F34 DUP3 PUSH2 0x1EF5 JUMP JUMPDEST PUSH1 0x20 DUP3 ADD SWAP1 POP SWAP2 SWAP1 POP JUMP JUMPDEST PUSH0 PUSH1 0x20 DUP3 ADD SWAP1 POP DUP2 DUP2 SUB PUSH0 DUP4 ADD MSTORE PUSH2 0x1F56 DUP2 PUSH2 0x1F1D JUMP JUMPDEST SWAP1 POP SWAP2 SWAP1 POP JUMP INVALID LOG2 PUSH5 0x6970667358 0x22 SLT KECCAK256 LOG2 0xC3 MUL 0xDD BALANCE 0x2C DUP5 0xA5 0xCA 0xE9 0xD6 LOG2 PUSH7 0xDCD15CE25648C7 0xCB CALLVALUE SWAP13 0xBF 0xFC 0xE 0x21 LOG1 PUSH19 0x63ECED64736F6C634300081E00330000000000 "
				},
				"gasEstimates": {
					"creation": {
						"codeDepositCost": "1616600",
						"executionCost": "infinite",
						"totalCost": "infinite"
					},
					"external": {
						"allowedIncrement()": "2492",
						"bid()": "infinite",
						"duration()": "infinite",
						"endTime()": "2448",
						"extension()": "2493",
						"gasFee()": "2448",
						"getBids()": "infinite",
						"getTimeLeft()": "infinite",
						"getWinnerBid()": "9273",
						"owner()": "infinite",
						"partialWithdraw()": "infinite",
						"refundAll()": "infinite",
						"startTime()": "infinite",
						"withdrawBalance()": "infinite"
					}
				},
				"methodIdentifiers": {
					"allowedIncrement()": "430efe6f",
					"bid()": "1998aeef",
					"duration()": "0fb5a6b4",
					"endTime()": "3197cbb6",
					"extension()": "2d5537b0",
					"gasFee()": "658612e9",
					"getBids()": "b81c78ec",
					"getTimeLeft()": "c7e284b8",
					"getWinnerBid()": "ceb98f6e",
					"owner()": "8da5cb5b",
					"partialWithdraw()": "f90ca117",
					"refundAll()": "38e771ab",
					"startTime()": "78e97925",
					"withdrawBalance()": "5fd8c710"
				}
			},
			"storageLayout": {
				"storage": [
					{
						"astId": 691,
						"contract": "Auction.sol:Auction",
						"label": "_status",
						"offset": 0,
						"slot": "0",
						"type": "t_uint256"
					},
					{
						"astId": 11,
						"contract": "Auction.sol:Auction",
						"label": "endTime",
						"offset": 0,
						"slot": "1",
						"type": "t_uint256"
					},
					{
						"astId": 31,
						"contract": "Auction.sol:Auction",
						"label": "winnerBid",
						"offset": 0,
						"slot": "2",
						"type": "t_struct(Bid)20_storage"
					},
					{
						"astId": 34,
						"contract": "Auction.sol:Auction",
						"label": "allowedIncrement",
						"offset": 0,
						"slot": "4",
						"type": "t_uint256"
					},
					{
						"astId": 37,
						"contract": "Auction.sol:Auction",
						"label": "extension",
						"offset": 0,
						"slot": "5",
						"type": "t_uint256"
					},
					{
						"astId": 40,
						"contract": "Auction.sol:Auction",
						"label": "gasFee",
						"offset": 0,
						"slot": "6",
						"type": "t_uint256"
					},
					{
						"astId": 46,
						"contract": "Auction.sol:Auction",
						"label": "bids",
						"offset": 0,
						"slot": "7",
						"type": "t_mapping(t_address,t_struct(BidRecord)27_storage)"
					},
					{
						"astId": 50,
						"contract": "Auction.sol:Auction",
						"label": "bidders",
						"offset": 0,
						"slot": "8",
						"type": "t_array(t_address)dyn_storage"
					},
					{
						"astId": 54,
						"contract": "Auction.sol:Auction",
						"label": "isRefunded",
						"offset": 0,
						"slot": "9",
						"type": "t_bool"
					}
				],
				"types": {
					"t_address": {
						"encoding": "inplace",
						"label": "address",
						"numberOfBytes": "20"
					},
					"t_array(t_address)dyn_storage": {
						"base": "t_address",
						"encoding": "dynamic_array",
						"label": "address[]",
						"numberOfBytes": "32"
					},
					"t_bool": {
						"encoding": "inplace",
						"label": "bool",
						"numberOfBytes": "1"
					},
					"t_mapping(t_address,t_struct(BidRecord)27_storage)": {
						"encoding": "mapping",
						"key": "t_address",
						"label": "mapping(address => struct Auction.BidRecord)",
						"numberOfBytes": "32",
						"value": "t_struct(BidRecord)27_storage"
					},
					"t_struct(Bid)20_storage": {
						"encoding": "inplace",
						"label": "struct Auction.Bid",
						"members": [
							{
								"astId": 17,
								"contract": "Auction.sol:Auction",
								"label": "bidder",
								"offset": 0,
								"slot": "0",
								"type": "t_address"
							},
							{
								"astId": 19,
								"contract": "Auction.sol:Auction",
								"label": "amount",
								"offset": 0,
								"slot": "1",
								"type": "t_uint256"
							}
						],
						"numberOfBytes": "64"
					},
					"t_struct(BidRecord)27_storage": {
						"encoding": "inplace",
						"label": "struct Auction.BidRecord",
						"members": [
							{
								"astId": 24,
								"contract": "Auction.sol:Auction",
								"label": "bid",
								"offset": 0,
								"slot": "0",
								"type": "t_struct(Bid)20_storage"
							},
							{
								"astId": 26,
								"contract": "Auction.sol:Auction",
								"label": "pendingWithdraw",
								"offset": 0,
								"slot": "2",
								"type": "t_uint256"
							}
						],
						"numberOfBytes": "96"
					},
					"t_uint256": {
						"encoding": "inplace",
						"label": "uint256",
						"numberOfBytes": "32"
					}
				}
			},
			"userdoc": {
				"events": {
					"AuctionExtended(uint256,address,uint256)": {
						"notice": "Emitted when the auction is extended due to a new bid."
					},
					"AuctionFinished(address,uint256)": {
						"notice": "Emitted when the auction ends via the owner's refund action."
					},
					"NewBid(address,uint256)": {
						"notice": "Emitted when a new valid bid is placed."
					},
					"PartialWithdraw(address,uint256)": {
						"notice": "Emitted when a bidder performs a partial withdrawal during the auction."
					},
					"Refund(address,uint256)": {
						"notice": "Emitted when a bidder receives a refund."
					}
				},
				"kind": "user",
				"methods": {
					"allowedIncrement()": {
						"notice": "Required percentage increment (e.g., 5%) for a bid to be accepted."
					},
					"bid()": {
						"notice": "Places a new bid if it complies with the rules."
					},
					"duration()": {
						"notice": "Total duration of the auction."
					},
					"endTime()": {
						"notice": "End time of the auction. Can be extended during the auction."
					},
					"extension()": {
						"notice": "Time extension applied if a bid is placed within the last 10 minutes."
					},
					"gasFee()": {
						"notice": "Fee percentage (e.g., 2%) deducted from bid refunds for gas compensation."
					},
					"getBids()": {
						"notice": "Returns all bids in structured format."
					},
					"getTimeLeft()": {
						"notice": "Returns the remaining time before the auction ends."
					},
					"getWinnerBid()": {
						"notice": "Returns the current highest bid and bidder."
					},
					"owner()": {
						"notice": "Owner of the contract."
					},
					"partialWithdraw()": {
						"notice": "Allows bidders to partially withdraw previous bids (not the latest one).         No gas fee is deducted. Can only be done during the auction."
					},
					"refundAll()": {
						"notice": "Allows the owner to refund all bidders at the end of the auction.         The winner receives only their pendingWithdraw amount - 2%.         Others receive their pendingWithdraw + (bid - 2% fee)."
					},
					"startTime()": {
						"notice": "Start time of the auction."
					}
				},
				"notice": "This contract allows users to participate in an auction.",
				"version": 1
			}
		}
	}
}