{
	"Auction.sol": {
		"Auction": {
			"abi": [
				{
					"inputs": [],
					"stateMutability": "nonpayable",
					"type": "constructor"
				},
				{
					"anonymous": false,
					"inputs": [
						{
							"indexed": true,
							"internalType": "address",
							"name": "bidder",
							"type": "address"
						},
						{
							"indexed": false,
							"internalType": "uint256",
							"name": "newEndTime",
							"type": "uint256"
						},
						{
							"indexed": false,
							"internalType": "uint256",
							"name": "bidAmount",
							"type": "uint256"
						}
					],
					"name": "AuctionExtended",
					"type": "event"
				},
				{
					"anonymous": false,
					"inputs": [
						{
							"indexed": true,
							"internalType": "address",
							"name": "winnerBidder",
							"type": "address"
						},
						{
							"indexed": false,
							"internalType": "uint256",
							"name": "winnerBid",
							"type": "uint256"
						}
					],
					"name": "AuctionFinnished",
					"type": "event"
				},
				{
					"anonymous": false,
					"inputs": [
						{
							"indexed": true,
							"internalType": "address",
							"name": "bidder",
							"type": "address"
						},
						{
							"indexed": false,
							"internalType": "uint256",
							"name": "value",
							"type": "uint256"
						}
					],
					"name": "NewBid",
					"type": "event"
				},
				{
					"anonymous": false,
					"inputs": [
						{
							"indexed": true,
							"internalType": "address",
							"name": "bidder",
							"type": "address"
						},
						{
							"indexed": false,
							"internalType": "uint256",
							"name": "claimedAmount",
							"type": "uint256"
						}
					],
					"name": "Refund",
					"type": "event"
				},
				{
					"inputs": [],
					"name": "bid",
					"outputs": [],
					"stateMutability": "payable",
					"type": "function"
				},
				{
					"inputs": [],
					"name": "claim",
					"outputs": [],
					"stateMutability": "nonpayable",
					"type": "function"
				},
				{
					"inputs": [],
					"name": "getAllBids",
					"outputs": [
						{
							"components": [
								{
									"internalType": "address",
									"name": "bidder",
									"type": "address"
								},
								{
									"internalType": "uint256",
									"name": "amount",
									"type": "uint256"
								}
							],
							"internalType": "struct Auction.Bid[]",
							"name": "",
							"type": "tuple[]"
						}
					],
					"stateMutability": "view",
					"type": "function"
				},
				{
					"inputs": [],
					"name": "getWinnerBid",
					"outputs": [
						{
							"components": [
								{
									"internalType": "address",
									"name": "bidder",
									"type": "address"
								},
								{
									"internalType": "uint256",
									"name": "amount",
									"type": "uint256"
								}
							],
							"internalType": "struct Auction.Bid",
							"name": "",
							"type": "tuple"
						}
					],
					"stateMutability": "view",
					"type": "function"
				}
			],
			"devdoc": {
				"author": "Fernando Malaspina",
				"details": "Las reglas de la subasta son las siguientes: - No se admiten pujas inferiores a un 5% mayores a la ultima puja. - El precio base de la subasta es 1 ether. - La duración estipulada es de 1 hora. - El plazo de la subasta se extiende en 10 minutos con cada nueva oferta válida.  Esta regla aplica siempre a partir de 10 minutos antes del plazo original de la subasta.  De esta manera los competidores tienen suficiente tiempo para presentar una nueva oferta si así lo desean.",
				"events": {
					"AuctionExtended(address,uint256,uint256)": {
						"params": {
							"bidAmount": "Valor de la puja",
							"bidder": "Dirección del ofertante",
							"newEndTime": "Nueva fecha de fin de subasta"
						}
					},
					"AuctionFinnished(address,uint256)": {
						"params": {
							"winnerBid": "Valor de la puja en wei",
							"winnerBidder": "Dirección del usuario que ganó la subasta"
						}
					},
					"NewBid(address,uint256)": {
						"params": {
							"bidder": "Dirección del usuario que hizo la puja",
							"value": "Valor de la puja en wei"
						}
					},
					"Refund(address,uint256)": {
						"params": {
							"bidder": "Dirección del ofertante",
							"claimedAmount": "Valor de la puja menos 2% de gas"
						}
					}
				},
				"kind": "dev",
				"methods": {
					"bid()": {
						"details": "Lanza error si no supera el 5% o si ya es el ofertante ganador"
					},
					"getAllBids()": {
						"returns": {
							"_0": "Una lista de structs con el address del postor y su puja"
						}
					},
					"getWinnerBid()": {
						"returns": {
							"_0": "Struct Bid con address y valor ofertado"
						}
					}
				},
				"title": "Subasta pública",
				"version": 1
			},
			"evm": {
				"assembly": "    /* \"Auction.sol\":680:5208  contract Auction {... */\n  mstore(0x40, 0x80)\n    /* \"Auction.sol\":1077:1288  constructor() {... */\n  callvalue\n  dup1\n  iszero\n  tag_1\n  jumpi\n  revert(0x00, 0x00)\ntag_1:\n  pop\n    /* \"Auction.sol\":1109:1119  msg.sender */\n  caller\n    /* \"Auction.sol\":1101:1106  owner */\n  0x00\n  0x00\n    /* \"Auction.sol\":1101:1119  owner = msg.sender */\n  0x0100\n  exp\n  dup2\n  sload\n  dup2\n  0xffffffffffffffffffffffffffffffffffffffff\n  mul\n  not\n  and\n  swap1\n  dup4\n  0xffffffffffffffffffffffffffffffffffffffff\n  and\n  mul\n  or\n  swap1\n  sstore\n  pop\n    /* \"Auction.sol\":1141:1156  block.timestamp */\n  timestamp\n    /* \"Auction.sol\":1129:1138  startDate */\n  0x01\n    /* \"Auction.sol\":1129:1156  startDate = block.timestamp */\n  dup2\n  swap1\n  sstore\n  pop\n    /* \"Auction.sol\":1177:1187  15 minutes */\n  0x0384\n    /* \"Auction.sol\":1166:1174  duration */\n  0x03\n    /* \"Auction.sol\":1166:1187  duration = 15 minutes */\n  dup2\n  swap1\n  sstore\n  pop\n    /* \"Auction.sol\":1219:1227  duration */\n  sload(0x03)\n    /* \"Auction.sol\":1207:1216  startDate */\n  sload(0x01)\n    /* \"Auction.sol\":1207:1227  startDate + duration */\n  tag_4\n  swap2\n  swap1\n  tag_5\n  jump\t// in\ntag_4:\n    /* \"Auction.sol\":1197:1204  endDate */\n  0x02\n    /* \"Auction.sol\":1197:1227  endDate = startDate + duration */\n  dup2\n  swap1\n  sstore\n  pop\n    /* \"Auction.sol\":1249:1256  1 ether */\n  0x0de0b6b3a7640000\n    /* \"Auction.sol\":1237:1246  winnerBid */\n  0x05\n    /* \"Auction.sol\":1237:1256  winnerBid = 1 ether */\n  dup2\n  swap1\n  sstore\n  pop\n    /* \"Auction.sol\":1278:1281  105 */\n  0x69\n    /* \"Auction.sol\":1266:1275  increment */\n  0x06\n    /* \"Auction.sol\":1266:1281  increment = 105 */\n  dup2\n  swap1\n  sstore\n  pop\n    /* \"Auction.sol\":680:5208  contract Auction {... */\n  jump(tag_6)\n    /* \"#utility.yul\":7:84   */\ntag_7:\n    /* \"#utility.yul\":44:51   */\n  0x00\n    /* \"#utility.yul\":73:78   */\n  dup2\n    /* \"#utility.yul\":62:78   */\n  swap1\n  pop\n    /* \"#utility.yul\":7:84   */\n  swap2\n  swap1\n  pop\n  jump\t// out\n    /* \"#utility.yul\":90:270   */\ntag_8:\n    /* \"#utility.yul\":138:215   */\n  0x4e487b7100000000000000000000000000000000000000000000000000000000\n    /* \"#utility.yul\":135:136   */\n  0x00\n    /* \"#utility.yul\":128:216   */\n  mstore\n    /* \"#utility.yul\":235:239   */\n  0x11\n    /* \"#utility.yul\":232:233   */\n  0x04\n    /* \"#utility.yul\":225:240   */\n  mstore\n    /* \"#utility.yul\":259:263   */\n  0x24\n    /* \"#utility.yul\":256:257   */\n  0x00\n    /* \"#utility.yul\":249:264   */\n  revert\n    /* \"#utility.yul\":276:467   */\ntag_5:\n    /* \"#utility.yul\":316:319   */\n  0x00\n    /* \"#utility.yul\":335:355   */\n  tag_13\n    /* \"#utility.yul\":353:354   */\n  dup3\n    /* \"#utility.yul\":335:355   */\n  tag_7\n  jump\t// in\ntag_13:\n    /* \"#utility.yul\":330:355   */\n  swap2\n  pop\n    /* \"#utility.yul\":369:389   */\n  tag_14\n    /* \"#utility.yul\":387:388   */\n  dup4\n    /* \"#utility.yul\":369:389   */\n  tag_7\n  jump\t// in\ntag_14:\n    /* \"#utility.yul\":364:389   */\n  swap3\n  pop\n    /* \"#utility.yul\":412:413   */\n  dup3\n    /* \"#utility.yul\":409:410   */\n  dup3\n    /* \"#utility.yul\":405:414   */\n  add\n    /* \"#utility.yul\":398:414   */\n  swap1\n  pop\n    /* \"#utility.yul\":433:436   */\n  dup1\n    /* \"#utility.yul\":430:431   */\n  dup3\n    /* \"#utility.yul\":427:437   */\n  gt\n    /* \"#utility.yul\":424:460   */\n  iszero\n  tag_15\n  jumpi\n    /* \"#utility.yul\":440:458   */\n  tag_16\n  tag_8\n  jump\t// in\ntag_16:\n    /* \"#utility.yul\":424:460   */\ntag_15:\n    /* \"#utility.yul\":276:467   */\n  swap3\n  swap2\n  pop\n  pop\n  jump\t// out\n    /* \"Auction.sol\":680:5208  contract Auction {... */\ntag_6:\n  dataSize(sub_0)\n  dup1\n  dataOffset(sub_0)\n  0x00\n  codecopy\n  0x00\n  return\nstop\n\nsub_0: assembly {\n        /* \"Auction.sol\":680:5208  contract Auction {... */\n      mstore(0x40, 0x80)\n      jumpi(tag_1, lt(calldatasize, 0x04))\n      shr(0xe0, calldataload(0x00))\n      dup1\n      0x1998aeef\n      eq\n      tag_2\n      jumpi\n      dup1\n      0x4e71d92d\n      eq\n      tag_3\n      jumpi\n      dup1\n      0x8d0f6da3\n      eq\n      tag_4\n      jumpi\n      dup1\n      0xceb98f6e\n      eq\n      tag_5\n      jumpi\n    tag_1:\n      revert(0x00, 0x00)\n        /* \"Auction.sol\":2997:3592  function bid() onlyStillActive() onlyGreaterBid() onlyOtherThanWinnerBidder external payable  {... */\n    tag_2:\n      tag_6\n      tag_7\n      jump\t// in\n    tag_6:\n      stop\n        /* \"Auction.sol\":4496:5204  function claim() external onlyFinished onlyOtherThanWinnerBidder {        ... */\n    tag_3:\n      callvalue\n      dup1\n      iszero\n      tag_8\n      jumpi\n      revert(0x00, 0x00)\n    tag_8:\n      pop\n      tag_9\n      tag_10\n      jump\t// in\n    tag_9:\n      stop\n        /* \"Auction.sol\":3756:4108  function getAllBids() external view returns (Bid[] memory) {... */\n    tag_4:\n      callvalue\n      dup1\n      iszero\n      tag_11\n      jumpi\n      revert(0x00, 0x00)\n    tag_11:\n      pop\n      tag_12\n      tag_13\n      jump\t// in\n    tag_12:\n      mload(0x40)\n      tag_14\n      swap2\n      swap1\n      tag_15\n      jump\t// in\n    tag_14:\n      mload(0x40)\n      dup1\n      swap2\n      sub\n      swap1\n      return\n        /* \"Auction.sol\":4232:4431  function getWinnerBid() external view returns (Bid memory) {... */\n    tag_5:\n      callvalue\n      dup1\n      iszero\n      tag_16\n      jumpi\n      revert(0x00, 0x00)\n    tag_16:\n      pop\n      tag_17\n      tag_18\n      jump\t// in\n    tag_17:\n      mload(0x40)\n      tag_19\n      swap2\n      swap1\n      tag_20\n      jump\t// in\n    tag_19:\n      mload(0x40)\n      dup1\n      swap2\n      sub\n      swap1\n      return\n        /* \"Auction.sol\":2997:3592  function bid() onlyStillActive() onlyGreaterBid() onlyOtherThanWinnerBidder external payable  {... */\n    tag_7:\n        /* \"Auction.sol\":2357:2364  endDate */\n      sload(0x02)\n        /* \"Auction.sol\":2338:2353  block.timestamp */\n      timestamp\n        /* \"Auction.sol\":2338:2364  block.timestamp <= endDate */\n      gt\n      iszero\n        /* \"Auction.sol\":2330:2386  require(block.timestamp <= endDate, \"Contrato expirado\") */\n      tag_22\n      jumpi\n      mload(0x40)\n      0x08c379a000000000000000000000000000000000000000000000000000000000\n      dup2\n      mstore\n      0x04\n      add\n      tag_23\n      swap1\n      tag_24\n      jump\t// in\n    tag_23:\n      mload(0x40)\n      dup1\n      swap2\n      sub\n      swap1\n      revert\n    tag_22:\n        /* \"Auction.sol\":2757:2760  100 */\n      0x64\n        /* \"Auction.sol\":2744:2753  increment */\n      sload(0x06)\n        /* \"Auction.sol\":2732:2741  winnerBid */\n      sload(0x05)\n        /* \"Auction.sol\":2732:2753  winnerBid * increment */\n      tag_26\n      swap2\n      swap1\n      tag_27\n      jump\t// in\n    tag_26:\n        /* \"Auction.sol\":2731:2760  (winnerBid * increment) / 100 */\n      tag_28\n      swap2\n      swap1\n      tag_29\n      jump\t// in\n    tag_28:\n        /* \"Auction.sol\":2719:2728  msg.value */\n      callvalue\n        /* \"Auction.sol\":2719:2760  msg.value > (winnerBid * increment) / 100 */\n      gt\n        /* \"Auction.sol\":2711:2817  require(msg.value > (winnerBid * increment) / 100, \"Puja con menos de 5% de incremento sobre la ganadora\") */\n      tag_30\n      jumpi\n      mload(0x40)\n      0x08c379a000000000000000000000000000000000000000000000000000000000\n      dup2\n      mstore\n      0x04\n      add\n      tag_31\n      swap1\n      tag_32\n      jump\t// in\n    tag_31:\n      mload(0x40)\n      dup1\n      swap2\n      sub\n      swap1\n      revert\n    tag_30:\n        /* \"Auction.sol\":2606:2618  winnerBidder */\n      0x04\n      0x00\n      swap1\n      sload\n      swap1\n      0x0100\n      exp\n      swap1\n      div\n      0xffffffffffffffffffffffffffffffffffffffff\n      and\n        /* \"Auction.sol\":2592:2618  msg.sender != winnerBidder */\n      0xffffffffffffffffffffffffffffffffffffffff\n      and\n        /* \"Auction.sol\":2592:2602  msg.sender */\n      caller\n        /* \"Auction.sol\":2592:2618  msg.sender != winnerBidder */\n      0xffffffffffffffffffffffffffffffffffffffff\n      and\n      sub\n        /* \"Auction.sol\":2584:2651  require(msg.sender != winnerBidder, \"Usted ya tiene la mejor puja\") */\n      tag_34\n      jumpi\n      mload(0x40)\n      0x08c379a000000000000000000000000000000000000000000000000000000000\n      dup2\n      mstore\n      0x04\n      add\n      tag_35\n      swap1\n      tag_36\n      jump\t// in\n    tag_35:\n      mload(0x40)\n      dup1\n      swap2\n      sub\n      swap1\n      revert\n    tag_34:\n        /* \"Auction.sol\":3113:3123  msg.sender */\n      caller\n        /* \"Auction.sol\":3106:3135  NewBid(msg.sender, msg.value) */\n      0xffffffffffffffffffffffffffffffffffffffff\n      and\n      0xdd0b6c6a77960e2066c96171b4d7ac9e8b4c184011f38544afa36a5bb63ec59f\n        /* \"Auction.sol\":3125:3134  msg.value */\n      callvalue\n        /* \"Auction.sol\":3106:3135  NewBid(msg.sender, msg.value) */\n      mload(0x40)\n      tag_38\n      swap2\n      swap1\n      tag_39\n      jump\t// in\n    tag_38:\n      mload(0x40)\n      dup1\n      swap2\n      sub\n      swap1\n      log2\n        /* \"Auction.sol\":3160:3170  msg.sender */\n      caller\n        /* \"Auction.sol\":3145:3157  winnerBidder */\n      0x04\n      0x00\n        /* \"Auction.sol\":3145:3170  winnerBidder = msg.sender */\n      0x0100\n      exp\n      dup2\n      sload\n      dup2\n      0xffffffffffffffffffffffffffffffffffffffff\n      mul\n      not\n      and\n      swap1\n      dup4\n      0xffffffffffffffffffffffffffffffffffffffff\n      and\n      mul\n      or\n      swap1\n      sstore\n      pop\n        /* \"Auction.sol\":3192:3201  msg.value */\n      callvalue\n        /* \"Auction.sol\":3180:3189  winnerBid */\n      0x05\n        /* \"Auction.sol\":3180:3201  winnerBid = msg.value */\n      dup2\n      swap1\n      sstore\n      pop\n        /* \"Auction.sol\":3235:3236  0 */\n      0x00\n        /* \"Auction.sol\":3215:3219  bids */\n      0x07\n        /* \"Auction.sol\":3215:3231  bids[msg.sender] */\n      0x00\n        /* \"Auction.sol\":3220:3230  msg.sender */\n      caller\n        /* \"Auction.sol\":3215:3231  bids[msg.sender] */\n      0xffffffffffffffffffffffffffffffffffffffff\n      and\n      0xffffffffffffffffffffffffffffffffffffffff\n      and\n      dup2\n      mstore\n      0x20\n      add\n      swap1\n      dup2\n      mstore\n      0x20\n      add\n      0x00\n      keccak256\n      sload\n        /* \"Auction.sol\":3215:3236  bids[msg.sender] == 0 */\n      sub\n        /* \"Auction.sol\":3211:3326  if (bids[msg.sender] == 0) {... */\n      tag_40\n      jumpi\n        /* \"Auction.sol\":3252:3259  bidders */\n      0x08\n        /* \"Auction.sol\":3265:3275  msg.sender */\n      caller\n        /* \"Auction.sol\":3252:3276  bidders.push(msg.sender) */\n      swap1\n      dup1\n      0x01\n      dup2\n      sload\n      add\n      dup1\n      dup3\n      sstore\n      dup1\n      swap2\n      pop\n      pop\n      0x01\n      swap1\n      sub\n      swap1\n      0x00\n      mstore\n      keccak256(0x00, 0x20)\n      add\n      0x00\n      swap1\n      swap2\n      swap1\n      swap2\n      swap1\n      swap2\n      0x0100\n      exp\n      dup2\n      sload\n      dup2\n      0xffffffffffffffffffffffffffffffffffffffff\n      mul\n      not\n      and\n      swap1\n      dup4\n      0xffffffffffffffffffffffffffffffffffffffff\n      and\n      mul\n      or\n      swap1\n      sstore\n      pop\n        /* \"Auction.sol\":3211:3326  if (bids[msg.sender] == 0) {... */\n    tag_40:\n        /* \"Auction.sol\":3354:3363  msg.value */\n      callvalue\n        /* \"Auction.sol\":3335:3339  bids */\n      0x07\n        /* \"Auction.sol\":3335:3351  bids[msg.sender] */\n      0x00\n        /* \"Auction.sol\":3340:3350  msg.sender */\n      caller\n        /* \"Auction.sol\":3335:3351  bids[msg.sender] */\n      0xffffffffffffffffffffffffffffffffffffffff\n      and\n      0xffffffffffffffffffffffffffffffffffffffff\n      and\n      dup2\n      mstore\n      0x20\n      add\n      swap1\n      dup2\n      mstore\n      0x20\n      add\n      0x00\n      keccak256\n        /* \"Auction.sol\":3335:3363  bids[msg.sender] = msg.value */\n      dup2\n      swap1\n      sstore\n      pop\n        /* \"Auction.sol\":3406:3416  10 minutes */\n      0x0258\n        /* \"Auction.sol\":3396:3403  endDate */\n      sload(0x02)\n        /* \"Auction.sol\":3396:3416  endDate - 10 minutes */\n      tag_42\n      swap2\n      swap1\n      tag_43\n      jump\t// in\n    tag_42:\n        /* \"Auction.sol\":3377:3392  block.timestamp */\n      timestamp\n        /* \"Auction.sol\":3377:3416  block.timestamp >= endDate - 10 minutes */\n      lt\n        /* \"Auction.sol\":3373:3585  if (block.timestamp >= endDate - 10 minutes) {... */\n      tag_44\n      jumpi\n        /* \"Auction.sol\":3432:3450  uint256 newEndTime */\n      0x00\n        /* \"Auction.sol\":3463:3473  10 minutes */\n      0x0258\n        /* \"Auction.sol\":3453:3460  endDate */\n      sload(0x02)\n        /* \"Auction.sol\":3453:3473  endDate + 10 minutes */\n      tag_45\n      swap2\n      swap1\n      tag_46\n      jump\t// in\n    tag_45:\n        /* \"Auction.sol\":3432:3473  uint256 newEndTime = endDate + 10 minutes */\n      swap1\n      pop\n        /* \"Auction.sol\":3497:3507  newEndTime */\n      dup1\n        /* \"Auction.sol\":3487:3494  endDate */\n      0x02\n        /* \"Auction.sol\":3487:3507  endDate = newEndTime */\n      dup2\n      swap1\n      sstore\n      pop\n        /* \"Auction.sol\":3542:3552  msg.sender */\n      caller\n        /* \"Auction.sol\":3526:3574  AuctionExtended(msg.sender,newEndTime,msg.value) */\n      0xffffffffffffffffffffffffffffffffffffffff\n      and\n      0x2241aa88c881d125cce08ef2a8f6bfd221ca46e27736a38f9353622a4303c705\n        /* \"Auction.sol\":3553:3563  newEndTime */\n      dup3\n        /* \"Auction.sol\":3564:3573  msg.value */\n      callvalue\n        /* \"Auction.sol\":3526:3574  AuctionExtended(msg.sender,newEndTime,msg.value) */\n      mload(0x40)\n      tag_47\n      swap3\n      swap2\n      swap1\n      tag_48\n      jump\t// in\n    tag_47:\n      mload(0x40)\n      dup1\n      swap2\n      sub\n      swap1\n      log2\n        /* \"Auction.sol\":3418:3585  {... */\n      pop\n        /* \"Auction.sol\":3373:3585  if (block.timestamp >= endDate - 10 minutes) {... */\n    tag_44:\n        /* \"Auction.sol\":2997:3592  function bid() onlyStillActive() onlyGreaterBid() onlyOtherThanWinnerBidder external payable  {... */\n      jump\t// out\n        /* \"Auction.sol\":4496:5204  function claim() external onlyFinished onlyOtherThanWinnerBidder {        ... */\n    tag_10:\n        /* \"Auction.sol\":2471:2478  endDate */\n      sload(0x02)\n        /* \"Auction.sol\":2453:2468  block.timestamp */\n      timestamp\n        /* \"Auction.sol\":2453:2478  block.timestamp > endDate */\n      gt\n        /* \"Auction.sol\":2445:2513  require(block.timestamp > endDate, \"El contrato aun no ha expirado\") */\n      tag_50\n      jumpi\n      mload(0x40)\n      0x08c379a000000000000000000000000000000000000000000000000000000000\n      dup2\n      mstore\n      0x04\n      add\n      tag_51\n      swap1\n      tag_52\n      jump\t// in\n    tag_51:\n      mload(0x40)\n      dup1\n      swap2\n      sub\n      swap1\n      revert\n    tag_50:\n        /* \"Auction.sol\":2606:2618  winnerBidder */\n      0x04\n      0x00\n      swap1\n      sload\n      swap1\n      0x0100\n      exp\n      swap1\n      div\n      0xffffffffffffffffffffffffffffffffffffffff\n      and\n        /* \"Auction.sol\":2592:2618  msg.sender != winnerBidder */\n      0xffffffffffffffffffffffffffffffffffffffff\n      and\n        /* \"Auction.sol\":2592:2602  msg.sender */\n      caller\n        /* \"Auction.sol\":2592:2618  msg.sender != winnerBidder */\n      0xffffffffffffffffffffffffffffffffffffffff\n      and\n      sub\n        /* \"Auction.sol\":2584:2651  require(msg.sender != winnerBidder, \"Usted ya tiene la mejor puja\") */\n      tag_54\n      jumpi\n      mload(0x40)\n      0x08c379a000000000000000000000000000000000000000000000000000000000\n      dup2\n      mstore\n      0x04\n      add\n      tag_55\n      swap1\n      tag_36\n      jump\t// in\n    tag_55:\n      mload(0x40)\n      dup1\n      swap2\n      sub\n      swap1\n      revert\n    tag_54:\n        /* \"Auction.sol\":4579:4596  uint256 bidAmount */\n      0x00\n        /* \"Auction.sol\":4599:4603  bids */\n      0x07\n        /* \"Auction.sol\":4599:4615  bids[msg.sender] */\n      0x00\n        /* \"Auction.sol\":4604:4614  msg.sender */\n      caller\n        /* \"Auction.sol\":4599:4615  bids[msg.sender] */\n      0xffffffffffffffffffffffffffffffffffffffff\n      and\n      0xffffffffffffffffffffffffffffffffffffffff\n      and\n      dup2\n      mstore\n      0x20\n      add\n      swap1\n      dup2\n      mstore\n      0x20\n      add\n      0x00\n      keccak256\n      sload\n        /* \"Auction.sol\":4579:4615  uint256 bidAmount = bids[msg.sender] */\n      swap1\n      pop\n        /* \"Auction.sol\":4645:4646  0 */\n      0x00\n        /* \"Auction.sol\":4633:4642  bidAmount */\n      dup2\n        /* \"Auction.sol\":4633:4646  bidAmount > 0 */\n      gt\n        /* \"Auction.sol\":4625:4674  require(bidAmount > 0, \"No hay oferta realizada\") */\n      tag_57\n      jumpi\n      mload(0x40)\n      0x08c379a000000000000000000000000000000000000000000000000000000000\n      dup2\n      mstore\n      0x04\n      add\n      tag_58\n      swap1\n      tag_59\n      jump\t// in\n    tag_58:\n      mload(0x40)\n      dup1\n      swap2\n      sub\n      swap1\n      revert\n    tag_57:\n        /* \"Auction.sol\":4684:4704  uint256 refundAmount */\n      0x00\n        /* \"Auction.sol\":4726:4729  100 */\n      0x64\n        /* \"Auction.sol\":4720:4722  98 */\n      0x62\n        /* \"Auction.sol\":4708:4717  bidAmount */\n      dup4\n        /* \"Auction.sol\":4708:4722  bidAmount * 98 */\n      tag_60\n      swap2\n      swap1\n      tag_27\n      jump\t// in\n    tag_60:\n        /* \"Auction.sol\":4707:4729  (bidAmount * 98) / 100 */\n      tag_61\n      swap2\n      swap1\n      tag_29\n      jump\t// in\n    tag_61:\n        /* \"Auction.sol\":4684:4729  uint256 refundAmount = (bidAmount * 98) / 100 */\n      swap1\n      pop\n        /* \"Auction.sol\":4746:4750  bids */\n      0x07\n        /* \"Auction.sol\":4746:4762  bids[msg.sender] */\n      0x00\n        /* \"Auction.sol\":4751:4761  msg.sender */\n      caller\n        /* \"Auction.sol\":4746:4762  bids[msg.sender] */\n      0xffffffffffffffffffffffffffffffffffffffff\n      and\n      0xffffffffffffffffffffffffffffffffffffffff\n      and\n      dup2\n      mstore\n      0x20\n      add\n      swap1\n      dup2\n      mstore\n      0x20\n      add\n      0x00\n      keccak256\n        /* \"Auction.sol\":4739:4762  delete bids[msg.sender] */\n      0x00\n      swap1\n      sstore\n        /* \"Auction.sol\":4777:4783  uint i */\n      0x00\n        /* \"Auction.sol\":4786:4787  0 */\n      0x00\n        /* \"Auction.sol\":4777:4787  uint i = 0 */\n      swap1\n      pop\n        /* \"Auction.sol\":4772:5034  for (uint i = 0; i < bidders.length; i++) {... */\n    tag_62:\n        /* \"Auction.sol\":4793:4800  bidders */\n      0x08\n        /* \"Auction.sol\":4793:4807  bidders.length */\n      dup1\n      sload\n      swap1\n      pop\n        /* \"Auction.sol\":4789:4790  i */\n      dup2\n        /* \"Auction.sol\":4789:4807  i < bidders.length */\n      lt\n        /* \"Auction.sol\":4772:5034  for (uint i = 0; i < bidders.length; i++) {... */\n      iszero\n      tag_63\n      jumpi\n        /* \"Auction.sol\":4846:4856  msg.sender */\n      caller\n        /* \"Auction.sol\":4832:4856  bidders[i] == msg.sender */\n      0xffffffffffffffffffffffffffffffffffffffff\n      and\n        /* \"Auction.sol\":4832:4839  bidders */\n      0x08\n        /* \"Auction.sol\":4840:4841  i */\n      dup3\n        /* \"Auction.sol\":4832:4842  bidders[i] */\n      dup2\n      sload\n      dup2\n      lt\n      tag_65\n      jumpi\n      tag_66\n      tag_67\n      jump\t// in\n    tag_66:\n    tag_65:\n      swap1\n      0x00\n      mstore\n      keccak256(0x00, 0x20)\n      add\n      0x00\n      swap1\n      sload\n      swap1\n      0x0100\n      exp\n      swap1\n      div\n      0xffffffffffffffffffffffffffffffffffffffff\n      and\n        /* \"Auction.sol\":4832:4856  bidders[i] == msg.sender */\n      0xffffffffffffffffffffffffffffffffffffffff\n      and\n      sub\n        /* \"Auction.sol\":4828:5024  if (bidders[i] == msg.sender) {... */\n      tag_69\n      jumpi\n        /* \"Auction.sol\":4889:4896  bidders */\n      0x08\n        /* \"Auction.sol\":4914:4915  1 */\n      0x01\n        /* \"Auction.sol\":4897:4904  bidders */\n      0x08\n        /* \"Auction.sol\":4897:4911  bidders.length */\n      dup1\n      sload\n      swap1\n      pop\n        /* \"Auction.sol\":4897:4915  bidders.length - 1 */\n      tag_70\n      swap2\n      swap1\n      tag_43\n      jump\t// in\n    tag_70:\n        /* \"Auction.sol\":4889:4916  bidders[bidders.length - 1] */\n      dup2\n      sload\n      dup2\n      lt\n      tag_71\n      jumpi\n      tag_72\n      tag_67\n      jump\t// in\n    tag_72:\n    tag_71:\n      swap1\n      0x00\n      mstore\n      keccak256(0x00, 0x20)\n      add\n      0x00\n      swap1\n      sload\n      swap1\n      0x0100\n      exp\n      swap1\n      div\n      0xffffffffffffffffffffffffffffffffffffffff\n      and\n        /* \"Auction.sol\":4876:4883  bidders */\n      0x08\n        /* \"Auction.sol\":4884:4885  i */\n      dup3\n        /* \"Auction.sol\":4876:4886  bidders[i] */\n      dup2\n      sload\n      dup2\n      lt\n      tag_74\n      jumpi\n      tag_75\n      tag_67\n      jump\t// in\n    tag_75:\n    tag_74:\n      swap1\n      0x00\n      mstore\n      keccak256(0x00, 0x20)\n      add\n      0x00\n        /* \"Auction.sol\":4876:4916  bidders[i] = bidders[bidders.length - 1] */\n      0x0100\n      exp\n      dup2\n      sload\n      dup2\n      0xffffffffffffffffffffffffffffffffffffffff\n      mul\n      not\n      and\n      swap1\n      dup4\n      0xffffffffffffffffffffffffffffffffffffffff\n      and\n      mul\n      or\n      swap1\n      sstore\n      pop\n        /* \"Auction.sol\":4958:4965  bidders */\n      0x08\n        /* \"Auction.sol\":4958:4971  bidders.pop() */\n      dup1\n      sload\n      dup1\n      tag_77\n      jumpi\n      tag_78\n      tag_79\n      jump\t// in\n    tag_78:\n    tag_77:\n      0x01\n      swap1\n      sub\n      dup2\n      dup2\n      swap1\n      0x00\n      mstore\n      keccak256(0x00, 0x20)\n      add\n      exp(0x0100, 0x00)\n      dup2\n      sload\n      swap1\n      0xffffffffffffffffffffffffffffffffffffffff\n      mul\n      not\n      and\n      swap1\n      sstore\n      swap1\n      sstore\n        /* \"Auction.sol\":5004:5009  break */\n      jump(tag_63)\n        /* \"Auction.sol\":4828:5024  if (bidders[i] == msg.sender) {... */\n    tag_69:\n        /* \"Auction.sol\":4809:4812  i++ */\n      dup1\n      dup1\n      0x01\n      add\n      swap2\n      pop\n      pop\n        /* \"Auction.sol\":4772:5034  for (uint i = 0; i < bidders.length; i++) {... */\n      jump(tag_62)\n    tag_63:\n      pop\n        /* \"Auction.sol\":5044:5053  bool sent */\n      0x00\n        /* \"Auction.sol\":5067:5077  msg.sender */\n      caller\n        /* \"Auction.sol\":5059:5083  payable(msg.sender).call */\n      0xffffffffffffffffffffffffffffffffffffffff\n      and\n        /* \"Auction.sol\":5091:5103  refundAmount */\n      dup3\n        /* \"Auction.sol\":5059:5108  payable(msg.sender).call{value: refundAmount}(\"\") */\n      mload(0x40)\n      tag_81\n      swap1\n      tag_82\n      jump\t// in\n    tag_81:\n      0x00\n      mload(0x40)\n      dup1\n      dup4\n      sub\n      dup2\n      dup6\n      dup8\n      gas\n      call\n      swap3\n      pop\n      pop\n      pop\n      returndatasize\n      dup1\n      0x00\n      dup2\n      eq\n      tag_85\n      jumpi\n      mload(0x40)\n      swap2\n      pop\n      and(add(returndatasize, 0x3f), not(0x1f))\n      dup3\n      add\n      0x40\n      mstore\n      returndatasize\n      dup3\n      mstore\n      returndatasize\n      0x00\n      0x20\n      dup5\n      add\n      returndatacopy\n      jump(tag_84)\n    tag_85:\n      0x60\n      swap2\n      pop\n    tag_84:\n      pop\n        /* \"Auction.sol\":5043:5108  (bool sent, ) = payable(msg.sender).call{value: refundAmount}(\"\") */\n      pop\n      swap1\n      pop\n        /* \"Auction.sol\":5126:5130  sent */\n      dup1\n        /* \"Auction.sol\":5118:5149  require(sent, \"Refund fallido\") */\n      tag_86\n      jumpi\n      mload(0x40)\n      0x08c379a000000000000000000000000000000000000000000000000000000000\n      dup2\n      mstore\n      0x04\n      add\n      tag_87\n      swap1\n      tag_88\n      jump\t// in\n    tag_87:\n      mload(0x40)\n      dup1\n      swap2\n      sub\n      swap1\n      revert\n    tag_86:\n        /* \"Auction.sol\":5171:5181  msg.sender */\n      caller\n        /* \"Auction.sol\":5164:5195  Refund(msg.sender,refundAmount) */\n      0xffffffffffffffffffffffffffffffffffffffff\n      and\n      0xbb28353e4598c3b9199101a66e0989549b659a59a54d2c27fbb183f1932c8e6d\n        /* \"Auction.sol\":5182:5194  refundAmount */\n      dup4\n        /* \"Auction.sol\":5164:5195  Refund(msg.sender,refundAmount) */\n      mload(0x40)\n      tag_89\n      swap2\n      swap1\n      tag_39\n      jump\t// in\n    tag_89:\n      mload(0x40)\n      dup1\n      swap2\n      sub\n      swap1\n      log2\n        /* \"Auction.sol\":4561:5204  {        ... */\n      pop\n      pop\n      pop\n        /* \"Auction.sol\":4496:5204  function claim() external onlyFinished onlyOtherThanWinnerBidder {        ... */\n      jump\t// out\n        /* \"Auction.sol\":3756:4108  function getAllBids() external view returns (Bid[] memory) {... */\n    tag_13:\n        /* \"Auction.sol\":3801:3813  Bid[] memory */\n      0x60\n        /* \"Auction.sol\":3825:3836  uint256 len */\n      0x00\n        /* \"Auction.sol\":3839:3846  bidders */\n      0x08\n        /* \"Auction.sol\":3839:3853  bidders.length */\n      dup1\n      sload\n      swap1\n      pop\n        /* \"Auction.sol\":3825:3853  uint256 len = bidders.length */\n      swap1\n      pop\n        /* \"Auction.sol\":3863:3879  Bid[] memory all */\n      0x00\n        /* \"Auction.sol\":3892:3895  len */\n      dup2\n        /* \"Auction.sol\":3882:3896  new Bid[](len) */\n      0xffffffffffffffff\n      dup2\n      gt\n      iszero\n      tag_91\n      jumpi\n      tag_92\n      tag_93\n      jump\t// in\n    tag_92:\n    tag_91:\n      mload(0x40)\n      swap1\n      dup1\n      dup3\n      mstore\n      dup1\n      0x20\n      mul\n      0x20\n      add\n      dup3\n      add\n      0x40\n      mstore\n      dup1\n      iszero\n      tag_94\n      jumpi\n      dup2\n      0x20\n      add\n    tag_95:\n      tag_96\n      tag_97\n      jump\t// in\n    tag_96:\n      dup2\n      mstore\n      0x20\n      add\n      swap1\n      0x01\n      swap1\n      sub\n      swap1\n      dup2\n      tag_95\n      jumpi\n      swap1\n      pop\n    tag_94:\n      pop\n        /* \"Auction.sol\":3863:3896  Bid[] memory all = new Bid[](len) */\n      swap1\n      pop\n        /* \"Auction.sol\":3912:3921  uint256 i */\n      0x00\n        /* \"Auction.sol\":3924:3925  0 */\n      0x00\n        /* \"Auction.sol\":3912:3925  uint256 i = 0 */\n      swap1\n      pop\n        /* \"Auction.sol\":3907:4072  for (uint256 i = 0; i < len; i++) {... */\n    tag_98:\n        /* \"Auction.sol\":3931:3934  len */\n      dup3\n        /* \"Auction.sol\":3927:3928  i */\n      dup2\n        /* \"Auction.sol\":3927:3934  i < len */\n      lt\n        /* \"Auction.sol\":3907:4072  for (uint256 i = 0; i < len; i++) {... */\n      iszero\n      tag_99\n      jumpi\n        /* \"Auction.sol\":3964:4061  Bid({... */\n      mload(0x40)\n      dup1\n      0x40\n      add\n      0x40\n      mstore\n      dup1\n        /* \"Auction.sol\":3994:4001  bidders */\n      0x08\n        /* \"Auction.sol\":4002:4003  i */\n      dup4\n        /* \"Auction.sol\":3994:4004  bidders[i] */\n      dup2\n      sload\n      dup2\n      lt\n      tag_101\n      jumpi\n      tag_102\n      tag_67\n      jump\t// in\n    tag_102:\n    tag_101:\n      swap1\n      0x00\n      mstore\n      keccak256(0x00, 0x20)\n      add\n      0x00\n      swap1\n      sload\n      swap1\n      0x0100\n      exp\n      swap1\n      div\n      0xffffffffffffffffffffffffffffffffffffffff\n      and\n        /* \"Auction.sol\":3964:4061  Bid({... */\n      0xffffffffffffffffffffffffffffffffffffffff\n      and\n      dup2\n      mstore\n      0x20\n      add\n        /* \"Auction.sol\":4030:4034  bids */\n      0x07\n        /* \"Auction.sol\":4030:4046  bids[bidders[i]] */\n      0x00\n        /* \"Auction.sol\":4035:4042  bidders */\n      0x08\n        /* \"Auction.sol\":4043:4044  i */\n      dup6\n        /* \"Auction.sol\":4035:4045  bidders[i] */\n      dup2\n      sload\n      dup2\n      lt\n      tag_104\n      jumpi\n      tag_105\n      tag_67\n      jump\t// in\n    tag_105:\n    tag_104:\n      swap1\n      0x00\n      mstore\n      keccak256(0x00, 0x20)\n      add\n      0x00\n      swap1\n      sload\n      swap1\n      0x0100\n      exp\n      swap1\n      div\n      0xffffffffffffffffffffffffffffffffffffffff\n      and\n        /* \"Auction.sol\":4030:4046  bids[bidders[i]] */\n      0xffffffffffffffffffffffffffffffffffffffff\n      and\n      0xffffffffffffffffffffffffffffffffffffffff\n      and\n      dup2\n      mstore\n      0x20\n      add\n      swap1\n      dup2\n      mstore\n      0x20\n      add\n      0x00\n      keccak256\n      sload\n        /* \"Auction.sol\":3964:4061  Bid({... */\n      dup2\n      mstore\n      pop\n        /* \"Auction.sol\":3955:3958  all */\n      dup3\n        /* \"Auction.sol\":3959:3960  i */\n      dup3\n        /* \"Auction.sol\":3955:3961  all[i] */\n      dup2\n      mload\n      dup2\n      lt\n      tag_107\n      jumpi\n      tag_108\n      tag_67\n      jump\t// in\n    tag_108:\n    tag_107:\n      0x20\n      mul\n      0x20\n      add\n      add\n        /* \"Auction.sol\":3955:4061  all[i] = Bid({... */\n      dup2\n      swap1\n      mstore\n      pop\n        /* \"Auction.sol\":3936:3939  i++ */\n      dup1\n      dup1\n      0x01\n      add\n      swap2\n      pop\n      pop\n        /* \"Auction.sol\":3907:4072  for (uint256 i = 0; i < len; i++) {... */\n      jump(tag_98)\n    tag_99:\n      pop\n        /* \"Auction.sol\":4089:4092  all */\n      dup1\n        /* \"Auction.sol\":4082:4092  return all */\n      swap3\n      pop\n      pop\n      pop\n        /* \"Auction.sol\":3756:4108  function getAllBids() external view returns (Bid[] memory) {... */\n      swap1\n      jump\t// out\n        /* \"Auction.sol\":4232:4431  function getWinnerBid() external view returns (Bid memory) {... */\n    tag_18:\n        /* \"Auction.sol\":4279:4289  Bid memory */\n      tag_109\n      tag_97\n      jump\t// in\n    tag_109:\n        /* \"Auction.sol\":4327:4334  endDate */\n      sload(0x02)\n        /* \"Auction.sol\":4309:4324  block.timestamp */\n      timestamp\n        /* \"Auction.sol\":4309:4334  block.timestamp > endDate */\n      gt\n        /* \"Auction.sol\":4301:4361  require(block.timestamp > endDate, \"Contrato no finalizado\") */\n      tag_111\n      jumpi\n      mload(0x40)\n      0x08c379a000000000000000000000000000000000000000000000000000000000\n      dup2\n      mstore\n      0x04\n      add\n      tag_112\n      swap1\n      tag_113\n      jump\t// in\n    tag_112:\n      mload(0x40)\n      dup1\n      swap2\n      sub\n      swap1\n      revert\n    tag_111:\n        /* \"Auction.sol\":4378:4424  Bid({bidder: winnerBidder, amount: winnerBid}) */\n      mload(0x40)\n      dup1\n      0x40\n      add\n      0x40\n      mstore\n      dup1\n        /* \"Auction.sol\":4391:4403  winnerBidder */\n      0x04\n      0x00\n      swap1\n      sload\n      swap1\n      0x0100\n      exp\n      swap1\n      div\n      0xffffffffffffffffffffffffffffffffffffffff\n      and\n        /* \"Auction.sol\":4378:4424  Bid({bidder: winnerBidder, amount: winnerBid}) */\n      0xffffffffffffffffffffffffffffffffffffffff\n      and\n      dup2\n      mstore\n      0x20\n      add\n        /* \"Auction.sol\":4413:4422  winnerBid */\n      sload(0x05)\n        /* \"Auction.sol\":4378:4424  Bid({bidder: winnerBidder, amount: winnerBid}) */\n      dup2\n      mstore\n      pop\n        /* \"Auction.sol\":4371:4424  return Bid({bidder: winnerBidder, amount: winnerBid}) */\n      swap1\n      pop\n        /* \"Auction.sol\":4232:4431  function getWinnerBid() external view returns (Bid memory) {... */\n      swap1\n      jump\t// out\n    tag_97:\n      mload(0x40)\n      dup1\n      0x40\n      add\n      0x40\n      mstore\n      dup1\n      and(0xffffffffffffffffffffffffffffffffffffffff, 0x00)\n      dup2\n      mstore\n      0x20\n      add\n      0x00\n      dup2\n      mstore\n      pop\n      swap1\n      jump\t// out\n        /* \"#utility.yul\":7:140   */\n    tag_114:\n        /* \"#utility.yul\":93:99   */\n      0x00\n        /* \"#utility.yul\":127:132   */\n      dup2\n        /* \"#utility.yul\":121:133   */\n      mload\n        /* \"#utility.yul\":111:133   */\n      swap1\n      pop\n        /* \"#utility.yul\":7:140   */\n      swap2\n      swap1\n      pop\n      jump\t// out\n        /* \"#utility.yul\":146:349   */\n    tag_115:\n        /* \"#utility.yul\":264:275   */\n      0x00\n        /* \"#utility.yul\":298:304   */\n      dup3\n        /* \"#utility.yul\":293:296   */\n      dup3\n        /* \"#utility.yul\":286:305   */\n      mstore\n        /* \"#utility.yul\":338:342   */\n      0x20\n        /* \"#utility.yul\":333:336   */\n      dup3\n        /* \"#utility.yul\":329:343   */\n      add\n        /* \"#utility.yul\":314:343   */\n      swap1\n      pop\n        /* \"#utility.yul\":146:349   */\n      swap3\n      swap2\n      pop\n      pop\n      jump\t// out\n        /* \"#utility.yul\":355:506   */\n    tag_116:\n        /* \"#utility.yul\":441:445   */\n      0x00\n        /* \"#utility.yul\":464:467   */\n      dup2\n        /* \"#utility.yul\":456:467   */\n      swap1\n      pop\n        /* \"#utility.yul\":494:498   */\n      0x20\n        /* \"#utility.yul\":489:492   */\n      dup3\n        /* \"#utility.yul\":485:499   */\n      add\n        /* \"#utility.yul\":477:499   */\n      swap1\n      pop\n        /* \"#utility.yul\":355:506   */\n      swap2\n      swap1\n      pop\n      jump\t// out\n        /* \"#utility.yul\":512:638   */\n    tag_117:\n        /* \"#utility.yul\":549:556   */\n      0x00\n        /* \"#utility.yul\":589:631   */\n      0xffffffffffffffffffffffffffffffffffffffff\n        /* \"#utility.yul\":582:587   */\n      dup3\n        /* \"#utility.yul\":578:632   */\n      and\n        /* \"#utility.yul\":567:632   */\n      swap1\n      pop\n        /* \"#utility.yul\":512:638   */\n      swap2\n      swap1\n      pop\n      jump\t// out\n        /* \"#utility.yul\":644:740   */\n    tag_118:\n        /* \"#utility.yul\":681:688   */\n      0x00\n        /* \"#utility.yul\":710:734   */\n      tag_154\n        /* \"#utility.yul\":728:733   */\n      dup3\n        /* \"#utility.yul\":710:734   */\n      tag_117\n      jump\t// in\n    tag_154:\n        /* \"#utility.yul\":699:734   */\n      swap1\n      pop\n        /* \"#utility.yul\":644:740   */\n      swap2\n      swap1\n      pop\n      jump\t// out\n        /* \"#utility.yul\":746:854   */\n    tag_119:\n        /* \"#utility.yul\":823:847   */\n      tag_156\n        /* \"#utility.yul\":841:846   */\n      dup2\n        /* \"#utility.yul\":823:847   */\n      tag_118\n      jump\t// in\n    tag_156:\n        /* \"#utility.yul\":818:821   */\n      dup3\n        /* \"#utility.yul\":811:848   */\n      mstore\n        /* \"#utility.yul\":746:854   */\n      pop\n      pop\n      jump\t// out\n        /* \"#utility.yul\":860:937   */\n    tag_120:\n        /* \"#utility.yul\":897:904   */\n      0x00\n        /* \"#utility.yul\":926:931   */\n      dup2\n        /* \"#utility.yul\":915:931   */\n      swap1\n      pop\n        /* \"#utility.yul\":860:937   */\n      swap2\n      swap1\n      pop\n      jump\t// out\n        /* \"#utility.yul\":943:1051   */\n    tag_121:\n        /* \"#utility.yul\":1020:1044   */\n      tag_159\n        /* \"#utility.yul\":1038:1043   */\n      dup2\n        /* \"#utility.yul\":1020:1044   */\n      tag_120\n      jump\t// in\n    tag_159:\n        /* \"#utility.yul\":1015:1018   */\n      dup3\n        /* \"#utility.yul\":1008:1045   */\n      mstore\n        /* \"#utility.yul\":943:1051   */\n      pop\n      pop\n      jump\t// out\n        /* \"#utility.yul\":1105:1594   */\n    tag_122:\n        /* \"#utility.yul\":1230:1234   */\n      0x40\n        /* \"#utility.yul\":1225:1228   */\n      dup3\n        /* \"#utility.yul\":1221:1235   */\n      add\n        /* \"#utility.yul\":1319:1323   */\n      0x00\n        /* \"#utility.yul\":1312:1317   */\n      dup3\n        /* \"#utility.yul\":1308:1324   */\n      add\n        /* \"#utility.yul\":1302:1325   */\n      mload\n        /* \"#utility.yul\":1338:1401   */\n      tag_161\n        /* \"#utility.yul\":1395:1399   */\n      0x00\n        /* \"#utility.yul\":1390:1393   */\n      dup6\n        /* \"#utility.yul\":1386:1400   */\n      add\n        /* \"#utility.yul\":1372:1384   */\n      dup3\n        /* \"#utility.yul\":1338:1401   */\n      tag_119\n      jump\t// in\n    tag_161:\n        /* \"#utility.yul\":1245:1411   */\n      pop\n        /* \"#utility.yul\":1495:1499   */\n      0x20\n        /* \"#utility.yul\":1488:1493   */\n      dup3\n        /* \"#utility.yul\":1484:1500   */\n      add\n        /* \"#utility.yul\":1478:1501   */\n      mload\n        /* \"#utility.yul\":1514:1577   */\n      tag_162\n        /* \"#utility.yul\":1571:1575   */\n      0x20\n        /* \"#utility.yul\":1566:1569   */\n      dup6\n        /* \"#utility.yul\":1562:1576   */\n      add\n        /* \"#utility.yul\":1548:1560   */\n      dup3\n        /* \"#utility.yul\":1514:1577   */\n      tag_121\n      jump\t// in\n    tag_162:\n        /* \"#utility.yul\":1421:1587   */\n      pop\n        /* \"#utility.yul\":1199:1594   */\n      pop\n        /* \"#utility.yul\":1105:1594   */\n      pop\n      pop\n      jump\t// out\n        /* \"#utility.yul\":1600:1855   */\n    tag_123:\n        /* \"#utility.yul\":1707:1717   */\n      0x00\n        /* \"#utility.yul\":1728:1812   */\n      tag_164\n        /* \"#utility.yul\":1808:1811   */\n      dup4\n        /* \"#utility.yul\":1800:1806   */\n      dup4\n        /* \"#utility.yul\":1728:1812   */\n      tag_122\n      jump\t// in\n    tag_164:\n        /* \"#utility.yul\":1844:1848   */\n      0x40\n        /* \"#utility.yul\":1839:1842   */\n      dup4\n        /* \"#utility.yul\":1835:1849   */\n      add\n        /* \"#utility.yul\":1821:1849   */\n      swap1\n      pop\n        /* \"#utility.yul\":1600:1855   */\n      swap3\n      swap2\n      pop\n      pop\n      jump\t// out\n        /* \"#utility.yul\":1861:1993   */\n    tag_124:\n        /* \"#utility.yul\":1950:1954   */\n      0x00\n        /* \"#utility.yul\":1982:1986   */\n      0x20\n        /* \"#utility.yul\":1977:1980   */\n      dup3\n        /* \"#utility.yul\":1973:1987   */\n      add\n        /* \"#utility.yul\":1965:1987   */\n      swap1\n      pop\n        /* \"#utility.yul\":1861:1993   */\n      swap2\n      swap1\n      pop\n      jump\t// out\n        /* \"#utility.yul\":2051:2935   */\n    tag_125:\n        /* \"#utility.yul\":2208:2211   */\n      0x00\n        /* \"#utility.yul\":2237:2310   */\n      tag_167\n        /* \"#utility.yul\":2304:2309   */\n      dup3\n        /* \"#utility.yul\":2237:2310   */\n      tag_114\n      jump\t// in\n    tag_167:\n        /* \"#utility.yul\":2326:2431   */\n      tag_168\n        /* \"#utility.yul\":2424:2430   */\n      dup2\n        /* \"#utility.yul\":2419:2422   */\n      dup6\n        /* \"#utility.yul\":2326:2431   */\n      tag_115\n      jump\t// in\n    tag_168:\n        /* \"#utility.yul\":2319:2431   */\n      swap4\n      pop\n        /* \"#utility.yul\":2455:2530   */\n      tag_169\n        /* \"#utility.yul\":2524:2529   */\n      dup4\n        /* \"#utility.yul\":2455:2530   */\n      tag_116\n      jump\t// in\n    tag_169:\n        /* \"#utility.yul\":2553:2560   */\n      dup1\n        /* \"#utility.yul\":2584:2585   */\n      0x00\n        /* \"#utility.yul\":2569:2910   */\n    tag_170:\n        /* \"#utility.yul\":2594:2600   */\n      dup4\n        /* \"#utility.yul\":2591:2592   */\n      dup2\n        /* \"#utility.yul\":2588:2601   */\n      lt\n        /* \"#utility.yul\":2569:2910   */\n      iszero\n      tag_172\n      jumpi\n        /* \"#utility.yul\":2670:2676   */\n      dup2\n        /* \"#utility.yul\":2664:2677   */\n      mload\n        /* \"#utility.yul\":2697:2798   */\n      tag_173\n        /* \"#utility.yul\":2794:2797   */\n      dup9\n        /* \"#utility.yul\":2779:2792   */\n      dup3\n        /* \"#utility.yul\":2697:2798   */\n      tag_123\n      jump\t// in\n    tag_173:\n        /* \"#utility.yul\":2690:2798   */\n      swap8\n      pop\n        /* \"#utility.yul\":2821:2900   */\n      tag_174\n        /* \"#utility.yul\":2893:2899   */\n      dup4\n        /* \"#utility.yul\":2821:2900   */\n      tag_124\n      jump\t// in\n    tag_174:\n        /* \"#utility.yul\":2811:2900   */\n      swap3\n      pop\n        /* \"#utility.yul\":2629:2910   */\n      pop\n        /* \"#utility.yul\":2616:2617   */\n      0x01\n        /* \"#utility.yul\":2613:2614   */\n      dup2\n        /* \"#utility.yul\":2609:2618   */\n      add\n        /* \"#utility.yul\":2604:2618   */\n      swap1\n      pop\n        /* \"#utility.yul\":2569:2910   */\n      jump(tag_170)\n    tag_172:\n        /* \"#utility.yul\":2573:2587   */\n      pop\n        /* \"#utility.yul\":2926:2929   */\n      dup6\n        /* \"#utility.yul\":2919:2929   */\n      swap4\n      pop\n        /* \"#utility.yul\":2213:2935   */\n      pop\n      pop\n      pop\n        /* \"#utility.yul\":2051:2935   */\n      swap3\n      swap2\n      pop\n      pop\n      jump\t// out\n        /* \"#utility.yul\":2941:3390   */\n    tag_15:\n        /* \"#utility.yul\":3122:3126   */\n      0x00\n        /* \"#utility.yul\":3160:3162   */\n      0x20\n        /* \"#utility.yul\":3149:3158   */\n      dup3\n        /* \"#utility.yul\":3145:3163   */\n      add\n        /* \"#utility.yul\":3137:3163   */\n      swap1\n      pop\n        /* \"#utility.yul\":3209:3218   */\n      dup2\n        /* \"#utility.yul\":3203:3207   */\n      dup2\n        /* \"#utility.yul\":3199:3219   */\n      sub\n        /* \"#utility.yul\":3195:3196   */\n      0x00\n        /* \"#utility.yul\":3184:3193   */\n      dup4\n        /* \"#utility.yul\":3180:3197   */\n      add\n        /* \"#utility.yul\":3173:3220   */\n      mstore\n        /* \"#utility.yul\":3237:3383   */\n      tag_176\n        /* \"#utility.yul\":3378:3382   */\n      dup2\n        /* \"#utility.yul\":3369:3375   */\n      dup5\n        /* \"#utility.yul\":3237:3383   */\n      tag_125\n      jump\t// in\n    tag_176:\n        /* \"#utility.yul\":3229:3383   */\n      swap1\n      pop\n        /* \"#utility.yul\":2941:3390   */\n      swap3\n      swap2\n      pop\n      pop\n      jump\t// out\n        /* \"#utility.yul\":3444:3943   */\n    tag_126:\n        /* \"#utility.yul\":3579:3583   */\n      0x40\n        /* \"#utility.yul\":3574:3577   */\n      dup3\n        /* \"#utility.yul\":3570:3584   */\n      add\n        /* \"#utility.yul\":3668:3672   */\n      0x00\n        /* \"#utility.yul\":3661:3666   */\n      dup3\n        /* \"#utility.yul\":3657:3673   */\n      add\n        /* \"#utility.yul\":3651:3674   */\n      mload\n        /* \"#utility.yul\":3687:3750   */\n      tag_178\n        /* \"#utility.yul\":3744:3748   */\n      0x00\n        /* \"#utility.yul\":3739:3742   */\n      dup6\n        /* \"#utility.yul\":3735:3749   */\n      add\n        /* \"#utility.yul\":3721:3733   */\n      dup3\n        /* \"#utility.yul\":3687:3750   */\n      tag_119\n      jump\t// in\n    tag_178:\n        /* \"#utility.yul\":3594:3760   */\n      pop\n        /* \"#utility.yul\":3844:3848   */\n      0x20\n        /* \"#utility.yul\":3837:3842   */\n      dup3\n        /* \"#utility.yul\":3833:3849   */\n      add\n        /* \"#utility.yul\":3827:3850   */\n      mload\n        /* \"#utility.yul\":3863:3926   */\n      tag_179\n        /* \"#utility.yul\":3920:3924   */\n      0x20\n        /* \"#utility.yul\":3915:3918   */\n      dup6\n        /* \"#utility.yul\":3911:3925   */\n      add\n        /* \"#utility.yul\":3897:3909   */\n      dup3\n        /* \"#utility.yul\":3863:3926   */\n      tag_121\n      jump\t// in\n    tag_179:\n        /* \"#utility.yul\":3770:3936   */\n      pop\n        /* \"#utility.yul\":3548:3943   */\n      pop\n        /* \"#utility.yul\":3444:3943   */\n      pop\n      pop\n      jump\t// out\n        /* \"#utility.yul\":3949:4247   */\n    tag_20:\n        /* \"#utility.yul\":4080:4084   */\n      0x00\n        /* \"#utility.yul\":4118:4120   */\n      0x40\n        /* \"#utility.yul\":4107:4116   */\n      dup3\n        /* \"#utility.yul\":4103:4121   */\n      add\n        /* \"#utility.yul\":4095:4121   */\n      swap1\n      pop\n        /* \"#utility.yul\":4131:4240   */\n      tag_181\n        /* \"#utility.yul\":4237:4238   */\n      0x00\n        /* \"#utility.yul\":4226:4235   */\n      dup4\n        /* \"#utility.yul\":4222:4239   */\n      add\n        /* \"#utility.yul\":4213:4219   */\n      dup5\n        /* \"#utility.yul\":4131:4240   */\n      tag_126\n      jump\t// in\n    tag_181:\n        /* \"#utility.yul\":3949:4247   */\n      swap3\n      swap2\n      pop\n      pop\n      jump\t// out\n        /* \"#utility.yul\":4253:4422   */\n    tag_127:\n        /* \"#utility.yul\":4337:4348   */\n      0x00\n        /* \"#utility.yul\":4371:4377   */\n      dup3\n        /* \"#utility.yul\":4366:4369   */\n      dup3\n        /* \"#utility.yul\":4359:4378   */\n      mstore\n        /* \"#utility.yul\":4411:4415   */\n      0x20\n        /* \"#utility.yul\":4406:4409   */\n      dup3\n        /* \"#utility.yul\":4402:4416   */\n      add\n        /* \"#utility.yul\":4387:4416   */\n      swap1\n      pop\n        /* \"#utility.yul\":4253:4422   */\n      swap3\n      swap2\n      pop\n      pop\n      jump\t// out\n        /* \"#utility.yul\":4428:4595   */\n    tag_128:\n        /* \"#utility.yul\":4568:4587   */\n      0x436f6e747261746f20657870697261646f000000000000000000000000000000\n        /* \"#utility.yul\":4564:4565   */\n      0x00\n        /* \"#utility.yul\":4556:4562   */\n      dup3\n        /* \"#utility.yul\":4552:4566   */\n      add\n        /* \"#utility.yul\":4545:4588   */\n      mstore\n        /* \"#utility.yul\":4428:4595   */\n      pop\n      jump\t// out\n        /* \"#utility.yul\":4601:4967   */\n    tag_129:\n        /* \"#utility.yul\":4743:4746   */\n      0x00\n        /* \"#utility.yul\":4764:4831   */\n      tag_185\n        /* \"#utility.yul\":4828:4830   */\n      0x11\n        /* \"#utility.yul\":4823:4826   */\n      dup4\n        /* \"#utility.yul\":4764:4831   */\n      tag_127\n      jump\t// in\n    tag_185:\n        /* \"#utility.yul\":4757:4831   */\n      swap2\n      pop\n        /* \"#utility.yul\":4840:4933   */\n      tag_186\n        /* \"#utility.yul\":4929:4932   */\n      dup3\n        /* \"#utility.yul\":4840:4933   */\n      tag_128\n      jump\t// in\n    tag_186:\n        /* \"#utility.yul\":4958:4960   */\n      0x20\n        /* \"#utility.yul\":4953:4956   */\n      dup3\n        /* \"#utility.yul\":4949:4961   */\n      add\n        /* \"#utility.yul\":4942:4961   */\n      swap1\n      pop\n        /* \"#utility.yul\":4601:4967   */\n      swap2\n      swap1\n      pop\n      jump\t// out\n        /* \"#utility.yul\":4973:5392   */\n    tag_24:\n        /* \"#utility.yul\":5139:5143   */\n      0x00\n        /* \"#utility.yul\":5177:5179   */\n      0x20\n        /* \"#utility.yul\":5166:5175   */\n      dup3\n        /* \"#utility.yul\":5162:5180   */\n      add\n        /* \"#utility.yul\":5154:5180   */\n      swap1\n      pop\n        /* \"#utility.yul\":5226:5235   */\n      dup2\n        /* \"#utility.yul\":5220:5224   */\n      dup2\n        /* \"#utility.yul\":5216:5236   */\n      sub\n        /* \"#utility.yul\":5212:5213   */\n      0x00\n        /* \"#utility.yul\":5201:5210   */\n      dup4\n        /* \"#utility.yul\":5197:5214   */\n      add\n        /* \"#utility.yul\":5190:5237   */\n      mstore\n        /* \"#utility.yul\":5254:5385   */\n      tag_188\n        /* \"#utility.yul\":5380:5384   */\n      dup2\n        /* \"#utility.yul\":5254:5385   */\n      tag_129\n      jump\t// in\n    tag_188:\n        /* \"#utility.yul\":5246:5385   */\n      swap1\n      pop\n        /* \"#utility.yul\":4973:5392   */\n      swap2\n      swap1\n      pop\n      jump\t// out\n        /* \"#utility.yul\":5398:5578   */\n    tag_130:\n        /* \"#utility.yul\":5446:5523   */\n      0x4e487b7100000000000000000000000000000000000000000000000000000000\n        /* \"#utility.yul\":5443:5444   */\n      0x00\n        /* \"#utility.yul\":5436:5524   */\n      mstore\n        /* \"#utility.yul\":5543:5547   */\n      0x11\n        /* \"#utility.yul\":5540:5541   */\n      0x04\n        /* \"#utility.yul\":5533:5548   */\n      mstore\n        /* \"#utility.yul\":5567:5571   */\n      0x24\n        /* \"#utility.yul\":5564:5565   */\n      0x00\n        /* \"#utility.yul\":5557:5572   */\n      revert\n        /* \"#utility.yul\":5584:5994   */\n    tag_27:\n        /* \"#utility.yul\":5624:5631   */\n      0x00\n        /* \"#utility.yul\":5647:5667   */\n      tag_191\n        /* \"#utility.yul\":5665:5666   */\n      dup3\n        /* \"#utility.yul\":5647:5667   */\n      tag_120\n      jump\t// in\n    tag_191:\n        /* \"#utility.yul\":5642:5667   */\n      swap2\n      pop\n        /* \"#utility.yul\":5681:5701   */\n      tag_192\n        /* \"#utility.yul\":5699:5700   */\n      dup4\n        /* \"#utility.yul\":5681:5701   */\n      tag_120\n      jump\t// in\n    tag_192:\n        /* \"#utility.yul\":5676:5701   */\n      swap3\n      pop\n        /* \"#utility.yul\":5736:5737   */\n      dup3\n        /* \"#utility.yul\":5733:5734   */\n      dup3\n        /* \"#utility.yul\":5729:5738   */\n      mul\n        /* \"#utility.yul\":5758:5788   */\n      tag_193\n        /* \"#utility.yul\":5776:5787   */\n      dup2\n        /* \"#utility.yul\":5758:5788   */\n      tag_120\n      jump\t// in\n    tag_193:\n        /* \"#utility.yul\":5747:5788   */\n      swap2\n      pop\n        /* \"#utility.yul\":5937:5938   */\n      dup3\n        /* \"#utility.yul\":5928:5935   */\n      dup3\n        /* \"#utility.yul\":5924:5939   */\n      div\n        /* \"#utility.yul\":5921:5922   */\n      dup5\n        /* \"#utility.yul\":5918:5940   */\n      eq\n        /* \"#utility.yul\":5898:5899   */\n      dup4\n        /* \"#utility.yul\":5891:5900   */\n      iszero\n        /* \"#utility.yul\":5871:5954   */\n      or\n        /* \"#utility.yul\":5848:5987   */\n      tag_194\n      jumpi\n        /* \"#utility.yul\":5967:5985   */\n      tag_195\n      tag_130\n      jump\t// in\n    tag_195:\n        /* \"#utility.yul\":5848:5987   */\n    tag_194:\n        /* \"#utility.yul\":5632:5994   */\n      pop\n        /* \"#utility.yul\":5584:5994   */\n      swap3\n      swap2\n      pop\n      pop\n      jump\t// out\n        /* \"#utility.yul\":6000:6180   */\n    tag_131:\n        /* \"#utility.yul\":6048:6125   */\n      0x4e487b7100000000000000000000000000000000000000000000000000000000\n        /* \"#utility.yul\":6045:6046   */\n      0x00\n        /* \"#utility.yul\":6038:6126   */\n      mstore\n        /* \"#utility.yul\":6145:6149   */\n      0x12\n        /* \"#utility.yul\":6142:6143   */\n      0x04\n        /* \"#utility.yul\":6135:6150   */\n      mstore\n        /* \"#utility.yul\":6169:6173   */\n      0x24\n        /* \"#utility.yul\":6166:6167   */\n      0x00\n        /* \"#utility.yul\":6159:6174   */\n      revert\n        /* \"#utility.yul\":6186:6371   */\n    tag_29:\n        /* \"#utility.yul\":6226:6227   */\n      0x00\n        /* \"#utility.yul\":6243:6263   */\n      tag_198\n        /* \"#utility.yul\":6261:6262   */\n      dup3\n        /* \"#utility.yul\":6243:6263   */\n      tag_120\n      jump\t// in\n    tag_198:\n        /* \"#utility.yul\":6238:6263   */\n      swap2\n      pop\n        /* \"#utility.yul\":6277:6297   */\n      tag_199\n        /* \"#utility.yul\":6295:6296   */\n      dup4\n        /* \"#utility.yul\":6277:6297   */\n      tag_120\n      jump\t// in\n    tag_199:\n        /* \"#utility.yul\":6272:6297   */\n      swap3\n      pop\n        /* \"#utility.yul\":6316:6317   */\n      dup3\n        /* \"#utility.yul\":6306:6341   */\n      tag_200\n      jumpi\n        /* \"#utility.yul\":6321:6339   */\n      tag_201\n      tag_131\n      jump\t// in\n    tag_201:\n        /* \"#utility.yul\":6306:6341   */\n    tag_200:\n        /* \"#utility.yul\":6363:6364   */\n      dup3\n        /* \"#utility.yul\":6360:6361   */\n      dup3\n        /* \"#utility.yul\":6356:6365   */\n      div\n        /* \"#utility.yul\":6351:6365   */\n      swap1\n      pop\n        /* \"#utility.yul\":6186:6371   */\n      swap3\n      swap2\n      pop\n      pop\n      jump\t// out\n        /* \"#utility.yul\":6377:6616   */\n    tag_132:\n        /* \"#utility.yul\":6517:6551   */\n      0x50756a6120636f6e206d656e6f7320646520352520646520696e6372656d656e\n        /* \"#utility.yul\":6513:6514   */\n      0x00\n        /* \"#utility.yul\":6505:6511   */\n      dup3\n        /* \"#utility.yul\":6501:6515   */\n      add\n        /* \"#utility.yul\":6494:6552   */\n      mstore\n        /* \"#utility.yul\":6586:6608   */\n      0x746f20736f627265206c612067616e61646f7261000000000000000000000000\n        /* \"#utility.yul\":6581:6583   */\n      0x20\n        /* \"#utility.yul\":6573:6579   */\n      dup3\n        /* \"#utility.yul\":6569:6584   */\n      add\n        /* \"#utility.yul\":6562:6609   */\n      mstore\n        /* \"#utility.yul\":6377:6616   */\n      pop\n      jump\t// out\n        /* \"#utility.yul\":6622:6988   */\n    tag_133:\n        /* \"#utility.yul\":6764:6767   */\n      0x00\n        /* \"#utility.yul\":6785:6852   */\n      tag_204\n        /* \"#utility.yul\":6849:6851   */\n      0x34\n        /* \"#utility.yul\":6844:6847   */\n      dup4\n        /* \"#utility.yul\":6785:6852   */\n      tag_127\n      jump\t// in\n    tag_204:\n        /* \"#utility.yul\":6778:6852   */\n      swap2\n      pop\n        /* \"#utility.yul\":6861:6954   */\n      tag_205\n        /* \"#utility.yul\":6950:6953   */\n      dup3\n        /* \"#utility.yul\":6861:6954   */\n      tag_132\n      jump\t// in\n    tag_205:\n        /* \"#utility.yul\":6979:6981   */\n      0x40\n        /* \"#utility.yul\":6974:6977   */\n      dup3\n        /* \"#utility.yul\":6970:6982   */\n      add\n        /* \"#utility.yul\":6963:6982   */\n      swap1\n      pop\n        /* \"#utility.yul\":6622:6988   */\n      swap2\n      swap1\n      pop\n      jump\t// out\n        /* \"#utility.yul\":6994:7413   */\n    tag_32:\n        /* \"#utility.yul\":7160:7164   */\n      0x00\n        /* \"#utility.yul\":7198:7200   */\n      0x20\n        /* \"#utility.yul\":7187:7196   */\n      dup3\n        /* \"#utility.yul\":7183:7201   */\n      add\n        /* \"#utility.yul\":7175:7201   */\n      swap1\n      pop\n        /* \"#utility.yul\":7247:7256   */\n      dup2\n        /* \"#utility.yul\":7241:7245   */\n      dup2\n        /* \"#utility.yul\":7237:7257   */\n      sub\n        /* \"#utility.yul\":7233:7234   */\n      0x00\n        /* \"#utility.yul\":7222:7231   */\n      dup4\n        /* \"#utility.yul\":7218:7235   */\n      add\n        /* \"#utility.yul\":7211:7258   */\n      mstore\n        /* \"#utility.yul\":7275:7406   */\n      tag_207\n        /* \"#utility.yul\":7401:7405   */\n      dup2\n        /* \"#utility.yul\":7275:7406   */\n      tag_133\n      jump\t// in\n    tag_207:\n        /* \"#utility.yul\":7267:7406   */\n      swap1\n      pop\n        /* \"#utility.yul\":6994:7413   */\n      swap2\n      swap1\n      pop\n      jump\t// out\n        /* \"#utility.yul\":7419:7597   */\n    tag_134:\n        /* \"#utility.yul\":7559:7589   */\n      0x5573746564207961207469656e65206c61206d656a6f722070756a6100000000\n        /* \"#utility.yul\":7555:7556   */\n      0x00\n        /* \"#utility.yul\":7547:7553   */\n      dup3\n        /* \"#utility.yul\":7543:7557   */\n      add\n        /* \"#utility.yul\":7536:7590   */\n      mstore\n        /* \"#utility.yul\":7419:7597   */\n      pop\n      jump\t// out\n        /* \"#utility.yul\":7603:7969   */\n    tag_135:\n        /* \"#utility.yul\":7745:7748   */\n      0x00\n        /* \"#utility.yul\":7766:7833   */\n      tag_210\n        /* \"#utility.yul\":7830:7832   */\n      0x1c\n        /* \"#utility.yul\":7825:7828   */\n      dup4\n        /* \"#utility.yul\":7766:7833   */\n      tag_127\n      jump\t// in\n    tag_210:\n        /* \"#utility.yul\":7759:7833   */\n      swap2\n      pop\n        /* \"#utility.yul\":7842:7935   */\n      tag_211\n        /* \"#utility.yul\":7931:7934   */\n      dup3\n        /* \"#utility.yul\":7842:7935   */\n      tag_134\n      jump\t// in\n    tag_211:\n        /* \"#utility.yul\":7960:7962   */\n      0x20\n        /* \"#utility.yul\":7955:7958   */\n      dup3\n        /* \"#utility.yul\":7951:7963   */\n      add\n        /* \"#utility.yul\":7944:7963   */\n      swap1\n      pop\n        /* \"#utility.yul\":7603:7969   */\n      swap2\n      swap1\n      pop\n      jump\t// out\n        /* \"#utility.yul\":7975:8394   */\n    tag_36:\n        /* \"#utility.yul\":8141:8145   */\n      0x00\n        /* \"#utility.yul\":8179:8181   */\n      0x20\n        /* \"#utility.yul\":8168:8177   */\n      dup3\n        /* \"#utility.yul\":8164:8182   */\n      add\n        /* \"#utility.yul\":8156:8182   */\n      swap1\n      pop\n        /* \"#utility.yul\":8228:8237   */\n      dup2\n        /* \"#utility.yul\":8222:8226   */\n      dup2\n        /* \"#utility.yul\":8218:8238   */\n      sub\n        /* \"#utility.yul\":8214:8215   */\n      0x00\n        /* \"#utility.yul\":8203:8212   */\n      dup4\n        /* \"#utility.yul\":8199:8216   */\n      add\n        /* \"#utility.yul\":8192:8239   */\n      mstore\n        /* \"#utility.yul\":8256:8387   */\n      tag_213\n        /* \"#utility.yul\":8382:8386   */\n      dup2\n        /* \"#utility.yul\":8256:8387   */\n      tag_135\n      jump\t// in\n    tag_213:\n        /* \"#utility.yul\":8248:8387   */\n      swap1\n      pop\n        /* \"#utility.yul\":7975:8394   */\n      swap2\n      swap1\n      pop\n      jump\t// out\n        /* \"#utility.yul\":8400:8518   */\n    tag_136:\n        /* \"#utility.yul\":8487:8511   */\n      tag_215\n        /* \"#utility.yul\":8505:8510   */\n      dup2\n        /* \"#utility.yul\":8487:8511   */\n      tag_120\n      jump\t// in\n    tag_215:\n        /* \"#utility.yul\":8482:8485   */\n      dup3\n        /* \"#utility.yul\":8475:8512   */\n      mstore\n        /* \"#utility.yul\":8400:8518   */\n      pop\n      pop\n      jump\t// out\n        /* \"#utility.yul\":8524:8746   */\n    tag_39:\n        /* \"#utility.yul\":8617:8621   */\n      0x00\n        /* \"#utility.yul\":8655:8657   */\n      0x20\n        /* \"#utility.yul\":8644:8653   */\n      dup3\n        /* \"#utility.yul\":8640:8658   */\n      add\n        /* \"#utility.yul\":8632:8658   */\n      swap1\n      pop\n        /* \"#utility.yul\":8668:8739   */\n      tag_217\n        /* \"#utility.yul\":8736:8737   */\n      0x00\n        /* \"#utility.yul\":8725:8734   */\n      dup4\n        /* \"#utility.yul\":8721:8738   */\n      add\n        /* \"#utility.yul\":8712:8718   */\n      dup5\n        /* \"#utility.yul\":8668:8739   */\n      tag_136\n      jump\t// in\n    tag_217:\n        /* \"#utility.yul\":8524:8746   */\n      swap3\n      swap2\n      pop\n      pop\n      jump\t// out\n        /* \"#utility.yul\":8752:8946   */\n    tag_43:\n        /* \"#utility.yul\":8792:8796   */\n      0x00\n        /* \"#utility.yul\":8812:8832   */\n      tag_219\n        /* \"#utility.yul\":8830:8831   */\n      dup3\n        /* \"#utility.yul\":8812:8832   */\n      tag_120\n      jump\t// in\n    tag_219:\n        /* \"#utility.yul\":8807:8832   */\n      swap2\n      pop\n        /* \"#utility.yul\":8846:8866   */\n      tag_220\n        /* \"#utility.yul\":8864:8865   */\n      dup4\n        /* \"#utility.yul\":8846:8866   */\n      tag_120\n      jump\t// in\n    tag_220:\n        /* \"#utility.yul\":8841:8866   */\n      swap3\n      pop\n        /* \"#utility.yul\":8890:8891   */\n      dup3\n        /* \"#utility.yul\":8887:8888   */\n      dup3\n        /* \"#utility.yul\":8883:8892   */\n      sub\n        /* \"#utility.yul\":8875:8892   */\n      swap1\n      pop\n        /* \"#utility.yul\":8914:8915   */\n      dup2\n        /* \"#utility.yul\":8908:8912   */\n      dup2\n        /* \"#utility.yul\":8905:8916   */\n      gt\n        /* \"#utility.yul\":8902:8939   */\n      iszero\n      tag_221\n      jumpi\n        /* \"#utility.yul\":8919:8937   */\n      tag_222\n      tag_130\n      jump\t// in\n    tag_222:\n        /* \"#utility.yul\":8902:8939   */\n    tag_221:\n        /* \"#utility.yul\":8752:8946   */\n      swap3\n      swap2\n      pop\n      pop\n      jump\t// out\n        /* \"#utility.yul\":8952:9143   */\n    tag_46:\n        /* \"#utility.yul\":8992:8995   */\n      0x00\n        /* \"#utility.yul\":9011:9031   */\n      tag_224\n        /* \"#utility.yul\":9029:9030   */\n      dup3\n        /* \"#utility.yul\":9011:9031   */\n      tag_120\n      jump\t// in\n    tag_224:\n        /* \"#utility.yul\":9006:9031   */\n      swap2\n      pop\n        /* \"#utility.yul\":9045:9065   */\n      tag_225\n        /* \"#utility.yul\":9063:9064   */\n      dup4\n        /* \"#utility.yul\":9045:9065   */\n      tag_120\n      jump\t// in\n    tag_225:\n        /* \"#utility.yul\":9040:9065   */\n      swap3\n      pop\n        /* \"#utility.yul\":9088:9089   */\n      dup3\n        /* \"#utility.yul\":9085:9086   */\n      dup3\n        /* \"#utility.yul\":9081:9090   */\n      add\n        /* \"#utility.yul\":9074:9090   */\n      swap1\n      pop\n        /* \"#utility.yul\":9109:9112   */\n      dup1\n        /* \"#utility.yul\":9106:9107   */\n      dup3\n        /* \"#utility.yul\":9103:9113   */\n      gt\n        /* \"#utility.yul\":9100:9136   */\n      iszero\n      tag_226\n      jumpi\n        /* \"#utility.yul\":9116:9134   */\n      tag_227\n      tag_130\n      jump\t// in\n    tag_227:\n        /* \"#utility.yul\":9100:9136   */\n    tag_226:\n        /* \"#utility.yul\":8952:9143   */\n      swap3\n      swap2\n      pop\n      pop\n      jump\t// out\n        /* \"#utility.yul\":9149:9481   */\n    tag_48:\n        /* \"#utility.yul\":9270:9274   */\n      0x00\n        /* \"#utility.yul\":9308:9310   */\n      0x40\n        /* \"#utility.yul\":9297:9306   */\n      dup3\n        /* \"#utility.yul\":9293:9311   */\n      add\n        /* \"#utility.yul\":9285:9311   */\n      swap1\n      pop\n        /* \"#utility.yul\":9321:9392   */\n      tag_229\n        /* \"#utility.yul\":9389:9390   */\n      0x00\n        /* \"#utility.yul\":9378:9387   */\n      dup4\n        /* \"#utility.yul\":9374:9391   */\n      add\n        /* \"#utility.yul\":9365:9371   */\n      dup6\n        /* \"#utility.yul\":9321:9392   */\n      tag_136\n      jump\t// in\n    tag_229:\n        /* \"#utility.yul\":9402:9474   */\n      tag_230\n        /* \"#utility.yul\":9470:9472   */\n      0x20\n        /* \"#utility.yul\":9459:9468   */\n      dup4\n        /* \"#utility.yul\":9455:9473   */\n      add\n        /* \"#utility.yul\":9446:9452   */\n      dup5\n        /* \"#utility.yul\":9402:9474   */\n      tag_136\n      jump\t// in\n    tag_230:\n        /* \"#utility.yul\":9149:9481   */\n      swap4\n      swap3\n      pop\n      pop\n      pop\n      jump\t// out\n        /* \"#utility.yul\":9487:9667   */\n    tag_137:\n        /* \"#utility.yul\":9627:9659   */\n      0x456c20636f6e747261746f2061756e206e6f20686120657870697261646f0000\n        /* \"#utility.yul\":9623:9624   */\n      0x00\n        /* \"#utility.yul\":9615:9621   */\n      dup3\n        /* \"#utility.yul\":9611:9625   */\n      add\n        /* \"#utility.yul\":9604:9660   */\n      mstore\n        /* \"#utility.yul\":9487:9667   */\n      pop\n      jump\t// out\n        /* \"#utility.yul\":9673:10039   */\n    tag_138:\n        /* \"#utility.yul\":9815:9818   */\n      0x00\n        /* \"#utility.yul\":9836:9903   */\n      tag_233\n        /* \"#utility.yul\":9900:9902   */\n      0x1e\n        /* \"#utility.yul\":9895:9898   */\n      dup4\n        /* \"#utility.yul\":9836:9903   */\n      tag_127\n      jump\t// in\n    tag_233:\n        /* \"#utility.yul\":9829:9903   */\n      swap2\n      pop\n        /* \"#utility.yul\":9912:10005   */\n      tag_234\n        /* \"#utility.yul\":10001:10004   */\n      dup3\n        /* \"#utility.yul\":9912:10005   */\n      tag_137\n      jump\t// in\n    tag_234:\n        /* \"#utility.yul\":10030:10032   */\n      0x20\n        /* \"#utility.yul\":10025:10028   */\n      dup3\n        /* \"#utility.yul\":10021:10033   */\n      add\n        /* \"#utility.yul\":10014:10033   */\n      swap1\n      pop\n        /* \"#utility.yul\":9673:10039   */\n      swap2\n      swap1\n      pop\n      jump\t// out\n        /* \"#utility.yul\":10045:10464   */\n    tag_52:\n        /* \"#utility.yul\":10211:10215   */\n      0x00\n        /* \"#utility.yul\":10249:10251   */\n      0x20\n        /* \"#utility.yul\":10238:10247   */\n      dup3\n        /* \"#utility.yul\":10234:10252   */\n      add\n        /* \"#utility.yul\":10226:10252   */\n      swap1\n      pop\n        /* \"#utility.yul\":10298:10307   */\n      dup2\n        /* \"#utility.yul\":10292:10296   */\n      dup2\n        /* \"#utility.yul\":10288:10308   */\n      sub\n        /* \"#utility.yul\":10284:10285   */\n      0x00\n        /* \"#utility.yul\":10273:10282   */\n      dup4\n        /* \"#utility.yul\":10269:10286   */\n      add\n        /* \"#utility.yul\":10262:10309   */\n      mstore\n        /* \"#utility.yul\":10326:10457   */\n      tag_236\n        /* \"#utility.yul\":10452:10456   */\n      dup2\n        /* \"#utility.yul\":10326:10457   */\n      tag_138\n      jump\t// in\n    tag_236:\n        /* \"#utility.yul\":10318:10457   */\n      swap1\n      pop\n        /* \"#utility.yul\":10045:10464   */\n      swap2\n      swap1\n      pop\n      jump\t// out\n        /* \"#utility.yul\":10470:10643   */\n    tag_139:\n        /* \"#utility.yul\":10610:10635   */\n      0x4e6f20686179206f6665727461207265616c697a616461000000000000000000\n        /* \"#utility.yul\":10606:10607   */\n      0x00\n        /* \"#utility.yul\":10598:10604   */\n      dup3\n        /* \"#utility.yul\":10594:10608   */\n      add\n        /* \"#utility.yul\":10587:10636   */\n      mstore\n        /* \"#utility.yul\":10470:10643   */\n      pop\n      jump\t// out\n        /* \"#utility.yul\":10649:11015   */\n    tag_140:\n        /* \"#utility.yul\":10791:10794   */\n      0x00\n        /* \"#utility.yul\":10812:10879   */\n      tag_239\n        /* \"#utility.yul\":10876:10878   */\n      0x17\n        /* \"#utility.yul\":10871:10874   */\n      dup4\n        /* \"#utility.yul\":10812:10879   */\n      tag_127\n      jump\t// in\n    tag_239:\n        /* \"#utility.yul\":10805:10879   */\n      swap2\n      pop\n        /* \"#utility.yul\":10888:10981   */\n      tag_240\n        /* \"#utility.yul\":10977:10980   */\n      dup3\n        /* \"#utility.yul\":10888:10981   */\n      tag_139\n      jump\t// in\n    tag_240:\n        /* \"#utility.yul\":11006:11008   */\n      0x20\n        /* \"#utility.yul\":11001:11004   */\n      dup3\n        /* \"#utility.yul\":10997:11009   */\n      add\n        /* \"#utility.yul\":10990:11009   */\n      swap1\n      pop\n        /* \"#utility.yul\":10649:11015   */\n      swap2\n      swap1\n      pop\n      jump\t// out\n        /* \"#utility.yul\":11021:11440   */\n    tag_59:\n        /* \"#utility.yul\":11187:11191   */\n      0x00\n        /* \"#utility.yul\":11225:11227   */\n      0x20\n        /* \"#utility.yul\":11214:11223   */\n      dup3\n        /* \"#utility.yul\":11210:11228   */\n      add\n        /* \"#utility.yul\":11202:11228   */\n      swap1\n      pop\n        /* \"#utility.yul\":11274:11283   */\n      dup2\n        /* \"#utility.yul\":11268:11272   */\n      dup2\n        /* \"#utility.yul\":11264:11284   */\n      sub\n        /* \"#utility.yul\":11260:11261   */\n      0x00\n        /* \"#utility.yul\":11249:11258   */\n      dup4\n        /* \"#utility.yul\":11245:11262   */\n      add\n        /* \"#utility.yul\":11238:11285   */\n      mstore\n        /* \"#utility.yul\":11302:11433   */\n      tag_242\n        /* \"#utility.yul\":11428:11432   */\n      dup2\n        /* \"#utility.yul\":11302:11433   */\n      tag_140\n      jump\t// in\n    tag_242:\n        /* \"#utility.yul\":11294:11433   */\n      swap1\n      pop\n        /* \"#utility.yul\":11021:11440   */\n      swap2\n      swap1\n      pop\n      jump\t// out\n        /* \"#utility.yul\":11446:11626   */\n    tag_67:\n        /* \"#utility.yul\":11494:11571   */\n      0x4e487b7100000000000000000000000000000000000000000000000000000000\n        /* \"#utility.yul\":11491:11492   */\n      0x00\n        /* \"#utility.yul\":11484:11572   */\n      mstore\n        /* \"#utility.yul\":11591:11595   */\n      0x32\n        /* \"#utility.yul\":11588:11589   */\n      0x04\n        /* \"#utility.yul\":11581:11596   */\n      mstore\n        /* \"#utility.yul\":11615:11619   */\n      0x24\n        /* \"#utility.yul\":11612:11613   */\n      0x00\n        /* \"#utility.yul\":11605:11620   */\n      revert\n        /* \"#utility.yul\":11632:11812   */\n    tag_79:\n        /* \"#utility.yul\":11680:11757   */\n      0x4e487b7100000000000000000000000000000000000000000000000000000000\n        /* \"#utility.yul\":11677:11678   */\n      0x00\n        /* \"#utility.yul\":11670:11758   */\n      mstore\n        /* \"#utility.yul\":11777:11781   */\n      0x31\n        /* \"#utility.yul\":11774:11775   */\n      0x04\n        /* \"#utility.yul\":11767:11782   */\n      mstore\n        /* \"#utility.yul\":11801:11805   */\n      0x24\n        /* \"#utility.yul\":11798:11799   */\n      0x00\n        /* \"#utility.yul\":11791:11806   */\n      revert\n        /* \"#utility.yul\":11818:11965   */\n    tag_141:\n        /* \"#utility.yul\":11919:11930   */\n      0x00\n        /* \"#utility.yul\":11956:11959   */\n      dup2\n        /* \"#utility.yul\":11941:11959   */\n      swap1\n      pop\n        /* \"#utility.yul\":11818:11965   */\n      swap3\n      swap2\n      pop\n      pop\n      jump\t// out\n        /* \"#utility.yul\":11971:12085   */\n    tag_142:\n      pop\n      jump\t// out\n        /* \"#utility.yul\":12091:12489   */\n    tag_143:\n        /* \"#utility.yul\":12250:12253   */\n      0x00\n        /* \"#utility.yul\":12271:12354   */\n      tag_248\n        /* \"#utility.yul\":12352:12353   */\n      0x00\n        /* \"#utility.yul\":12347:12350   */\n      dup4\n        /* \"#utility.yul\":12271:12354   */\n      tag_141\n      jump\t// in\n    tag_248:\n        /* \"#utility.yul\":12264:12354   */\n      swap2\n      pop\n        /* \"#utility.yul\":12363:12456   */\n      tag_249\n        /* \"#utility.yul\":12452:12455   */\n      dup3\n        /* \"#utility.yul\":12363:12456   */\n      tag_142\n      jump\t// in\n    tag_249:\n        /* \"#utility.yul\":12481:12482   */\n      0x00\n        /* \"#utility.yul\":12476:12479   */\n      dup3\n        /* \"#utility.yul\":12472:12483   */\n      add\n        /* \"#utility.yul\":12465:12483   */\n      swap1\n      pop\n        /* \"#utility.yul\":12091:12489   */\n      swap2\n      swap1\n      pop\n      jump\t// out\n        /* \"#utility.yul\":12495:12874   */\n    tag_82:\n        /* \"#utility.yul\":12679:12682   */\n      0x00\n        /* \"#utility.yul\":12701:12848   */\n      tag_251\n        /* \"#utility.yul\":12844:12847   */\n      dup3\n        /* \"#utility.yul\":12701:12848   */\n      tag_143\n      jump\t// in\n    tag_251:\n        /* \"#utility.yul\":12694:12848   */\n      swap2\n      pop\n        /* \"#utility.yul\":12865:12868   */\n      dup2\n        /* \"#utility.yul\":12858:12868   */\n      swap1\n      pop\n        /* \"#utility.yul\":12495:12874   */\n      swap2\n      swap1\n      pop\n      jump\t// out\n        /* \"#utility.yul\":12880:13044   */\n    tag_144:\n        /* \"#utility.yul\":13020:13036   */\n      0x526566756e642066616c6c69646f000000000000000000000000000000000000\n        /* \"#utility.yul\":13016:13017   */\n      0x00\n        /* \"#utility.yul\":13008:13014   */\n      dup3\n        /* \"#utility.yul\":13004:13018   */\n      add\n        /* \"#utility.yul\":12997:13037   */\n      mstore\n        /* \"#utility.yul\":12880:13044   */\n      pop\n      jump\t// out\n        /* \"#utility.yul\":13050:13416   */\n    tag_145:\n        /* \"#utility.yul\":13192:13195   */\n      0x00\n        /* \"#utility.yul\":13213:13280   */\n      tag_254\n        /* \"#utility.yul\":13277:13279   */\n      0x0e\n        /* \"#utility.yul\":13272:13275   */\n      dup4\n        /* \"#utility.yul\":13213:13280   */\n      tag_127\n      jump\t// in\n    tag_254:\n        /* \"#utility.yul\":13206:13280   */\n      swap2\n      pop\n        /* \"#utility.yul\":13289:13382   */\n      tag_255\n        /* \"#utility.yul\":13378:13381   */\n      dup3\n        /* \"#utility.yul\":13289:13382   */\n      tag_144\n      jump\t// in\n    tag_255:\n        /* \"#utility.yul\":13407:13409   */\n      0x20\n        /* \"#utility.yul\":13402:13405   */\n      dup3\n        /* \"#utility.yul\":13398:13410   */\n      add\n        /* \"#utility.yul\":13391:13410   */\n      swap1\n      pop\n        /* \"#utility.yul\":13050:13416   */\n      swap2\n      swap1\n      pop\n      jump\t// out\n        /* \"#utility.yul\":13422:13841   */\n    tag_88:\n        /* \"#utility.yul\":13588:13592   */\n      0x00\n        /* \"#utility.yul\":13626:13628   */\n      0x20\n        /* \"#utility.yul\":13615:13624   */\n      dup3\n        /* \"#utility.yul\":13611:13629   */\n      add\n        /* \"#utility.yul\":13603:13629   */\n      swap1\n      pop\n        /* \"#utility.yul\":13675:13684   */\n      dup2\n        /* \"#utility.yul\":13669:13673   */\n      dup2\n        /* \"#utility.yul\":13665:13685   */\n      sub\n        /* \"#utility.yul\":13661:13662   */\n      0x00\n        /* \"#utility.yul\":13650:13659   */\n      dup4\n        /* \"#utility.yul\":13646:13663   */\n      add\n        /* \"#utility.yul\":13639:13686   */\n      mstore\n        /* \"#utility.yul\":13703:13834   */\n      tag_257\n        /* \"#utility.yul\":13829:13833   */\n      dup2\n        /* \"#utility.yul\":13703:13834   */\n      tag_145\n      jump\t// in\n    tag_257:\n        /* \"#utility.yul\":13695:13834   */\n      swap1\n      pop\n        /* \"#utility.yul\":13422:13841   */\n      swap2\n      swap1\n      pop\n      jump\t// out\n        /* \"#utility.yul\":13847:14027   */\n    tag_93:\n        /* \"#utility.yul\":13895:13972   */\n      0x4e487b7100000000000000000000000000000000000000000000000000000000\n        /* \"#utility.yul\":13892:13893   */\n      0x00\n        /* \"#utility.yul\":13885:13973   */\n      mstore\n        /* \"#utility.yul\":13992:13996   */\n      0x41\n        /* \"#utility.yul\":13989:13990   */\n      0x04\n        /* \"#utility.yul\":13982:13997   */\n      mstore\n        /* \"#utility.yul\":14016:14020   */\n      0x24\n        /* \"#utility.yul\":14013:14014   */\n      0x00\n        /* \"#utility.yul\":14006:14021   */\n      revert\n        /* \"#utility.yul\":14033:14205   */\n    tag_146:\n        /* \"#utility.yul\":14173:14197   */\n      0x436f6e747261746f206e6f2066696e616c697a61646f00000000000000000000\n        /* \"#utility.yul\":14169:14170   */\n      0x00\n        /* \"#utility.yul\":14161:14167   */\n      dup3\n        /* \"#utility.yul\":14157:14171   */\n      add\n        /* \"#utility.yul\":14150:14198   */\n      mstore\n        /* \"#utility.yul\":14033:14205   */\n      pop\n      jump\t// out\n        /* \"#utility.yul\":14211:14577   */\n    tag_147:\n        /* \"#utility.yul\":14353:14356   */\n      0x00\n        /* \"#utility.yul\":14374:14441   */\n      tag_261\n        /* \"#utility.yul\":14438:14440   */\n      0x16\n        /* \"#utility.yul\":14433:14436   */\n      dup4\n        /* \"#utility.yul\":14374:14441   */\n      tag_127\n      jump\t// in\n    tag_261:\n        /* \"#utility.yul\":14367:14441   */\n      swap2\n      pop\n        /* \"#utility.yul\":14450:14543   */\n      tag_262\n        /* \"#utility.yul\":14539:14542   */\n      dup3\n        /* \"#utility.yul\":14450:14543   */\n      tag_146\n      jump\t// in\n    tag_262:\n        /* \"#utility.yul\":14568:14570   */\n      0x20\n        /* \"#utility.yul\":14563:14566   */\n      dup3\n        /* \"#utility.yul\":14559:14571   */\n      add\n        /* \"#utility.yul\":14552:14571   */\n      swap1\n      pop\n        /* \"#utility.yul\":14211:14577   */\n      swap2\n      swap1\n      pop\n      jump\t// out\n        /* \"#utility.yul\":14583:15002   */\n    tag_113:\n        /* \"#utility.yul\":14749:14753   */\n      0x00\n        /* \"#utility.yul\":14787:14789   */\n      0x20\n        /* \"#utility.yul\":14776:14785   */\n      dup3\n        /* \"#utility.yul\":14772:14790   */\n      add\n        /* \"#utility.yul\":14764:14790   */\n      swap1\n      pop\n        /* \"#utility.yul\":14836:14845   */\n      dup2\n        /* \"#utility.yul\":14830:14834   */\n      dup2\n        /* \"#utility.yul\":14826:14846   */\n      sub\n        /* \"#utility.yul\":14822:14823   */\n      0x00\n        /* \"#utility.yul\":14811:14820   */\n      dup4\n        /* \"#utility.yul\":14807:14824   */\n      add\n        /* \"#utility.yul\":14800:14847   */\n      mstore\n        /* \"#utility.yul\":14864:14995   */\n      tag_264\n        /* \"#utility.yul\":14990:14994   */\n      dup2\n        /* \"#utility.yul\":14864:14995   */\n      tag_147\n      jump\t// in\n    tag_264:\n        /* \"#utility.yul\":14856:14995   */\n      swap1\n      pop\n        /* \"#utility.yul\":14583:15002   */\n      swap2\n      swap1\n      pop\n      jump\t// out\n\n    auxdata: 0xa26469706673582212202ce39d3427737fedcac5aa172985401afcfba97805a0c07b10d7b93034e99c8064736f6c634300081e0033\n}\n",
				"bytecode": {
					"linkReferences": {},
					"object": "608060405234801561000f575f5ffd5b50335f5f6101000a81548173ffffffffffffffffffffffffffffffffffffffff021916908373ffffffffffffffffffffffffffffffffffffffff1602179055504260018190555061038460038190555060035460015461006f91906100c7565b600281905550670de0b6b3a764000060058190555060696006819055506100fa565b5f819050919050565b7f4e487b71000000000000000000000000000000000000000000000000000000005f52601160045260245ffd5b5f6100d182610091565b91506100dc83610091565b92508282019050808211156100f4576100f361009a565b5b92915050565b61117d806101075f395ff3fe60806040526004361061003e575f3560e01c80631998aeef146100425780634e71d92d1461004c5780638d0f6da314610062578063ceb98f6e1461008c575b5f5ffd5b61004a6100b6565b005b348015610057575f5ffd5b506100606103e7565b005b34801561006d575f5ffd5b50610076610811565b6040516100839190610b8b565b60405180910390f35b348015610097575f5ffd5b506100a0610992565b6040516100ad9190610bd8565b60405180910390f35b6002544211156100fb576040517f08c379a00000000000000000000000000000000000000000000000000000000081526004016100f290610c4b565b60405180910390fd5b606460065460055461010d9190610c96565b6101179190610d04565b3411610158576040517f08c379a000000000000000000000000000000000000000000000000000000000815260040161014f90610da4565b60405180910390fd5b60045f9054906101000a900473ffffffffffffffffffffffffffffffffffffffff1673ffffffffffffffffffffffffffffffffffffffff163373ffffffffffffffffffffffffffffffffffffffff16036101e7576040517f08c379a00000000000000000000000000000000000000000000000000000000081526004016101de90610e0c565b60405180910390fd5b3373ffffffffffffffffffffffffffffffffffffffff167fdd0b6c6a77960e2066c96171b4d7ac9e8b4c184011f38544afa36a5bb63ec59f3460405161022d9190610e39565b60405180910390a23360045f6101000a81548173ffffffffffffffffffffffffffffffffffffffff021916908373ffffffffffffffffffffffffffffffffffffffff160217905550346005819055505f60075f3373ffffffffffffffffffffffffffffffffffffffff1673ffffffffffffffffffffffffffffffffffffffff1681526020019081526020015f20540361032157600833908060018154018082558091505060019003905f5260205f20015f9091909190916101000a81548173ffffffffffffffffffffffffffffffffffffffff021916908373ffffffffffffffffffffffffffffffffffffffff1602179055505b3460075f3373ffffffffffffffffffffffffffffffffffffffff1673ffffffffffffffffffffffffffffffffffffffff1681526020019081526020015f20819055506102586002546103739190610e52565b42106103e5575f61025860025461038a9190610e85565b9050806002819055503373ffffffffffffffffffffffffffffffffffffffff167f2241aa88c881d125cce08ef2a8f6bfd221ca46e27736a38f9353622a4303c70582346040516103db929190610eb8565b60405180910390a2505b565b600254421161042b576040517f08c379a000000000000000000000000000000000000000000000000000000000815260040161042290610f29565b60405180910390fd5b60045f9054906101000a900473ffffffffffffffffffffffffffffffffffffffff1673ffffffffffffffffffffffffffffffffffffffff163373ffffffffffffffffffffffffffffffffffffffff16036104ba576040517f08c379a00000000000000000000000000000000000000000000000000000000081526004016104b190610e0c565b60405180910390fd5b5f60075f3373ffffffffffffffffffffffffffffffffffffffff1673ffffffffffffffffffffffffffffffffffffffff1681526020019081526020015f205490505f811161053d576040517f08c379a000000000000000000000000000000000000000000000000000000000815260040161053490610f91565b60405180910390fd5b5f606460628361054d9190610c96565b6105579190610d04565b905060075f3373ffffffffffffffffffffffffffffffffffffffff1673ffffffffffffffffffffffffffffffffffffffff1681526020019081526020015f205f90555f5f90505b600880549050811015610715573373ffffffffffffffffffffffffffffffffffffffff16600882815481106105d6576105d5610faf565b5b905f5260205f20015f9054906101000a900473ffffffffffffffffffffffffffffffffffffffff1673ffffffffffffffffffffffffffffffffffffffff1603610708576008600160088054905061062d9190610e52565b8154811061063e5761063d610faf565b5b905f5260205f20015f9054906101000a900473ffffffffffffffffffffffffffffffffffffffff166008828154811061067a57610679610faf565b5b905f5260205f20015f6101000a81548173ffffffffffffffffffffffffffffffffffffffff021916908373ffffffffffffffffffffffffffffffffffffffff16021790555060088054806106d1576106d0610fdc565b5b600190038181905f5260205f20015f6101000a81549073ffffffffffffffffffffffffffffffffffffffff02191690559055610715565b808060010191505061059e565b505f3373ffffffffffffffffffffffffffffffffffffffff168260405161073b90611036565b5f6040518083038185875af1925050503d805f8114610775576040519150601f19603f3d011682016040523d82523d5f602084013e61077a565b606091505b50509050806107be576040517f08c379a00000000000000000000000000000000000000000000000000000000081526004016107b590611094565b60405180910390fd5b3373ffffffffffffffffffffffffffffffffffffffff167fbb28353e4598c3b9199101a66e0989549b659a59a54d2c27fbb183f1932c8e6d836040516108049190610e39565b60405180910390a2505050565b60605f60088054905090505f8167ffffffffffffffff811115610837576108366110b2565b5b60405190808252806020026020018201604052801561087057816020015b61085d610a31565b8152602001906001900390816108555790505b5090505f5f90505b828110156109895760405180604001604052806008838154811061089f5761089e610faf565b5b905f5260205f20015f9054906101000a900473ffffffffffffffffffffffffffffffffffffffff1673ffffffffffffffffffffffffffffffffffffffff16815260200160075f600885815481106108f9576108f8610faf565b5b905f5260205f20015f9054906101000a900473ffffffffffffffffffffffffffffffffffffffff1673ffffffffffffffffffffffffffffffffffffffff1673ffffffffffffffffffffffffffffffffffffffff1681526020019081526020015f205481525082828151811061097157610970610faf565b5b60200260200101819052508080600101915050610878565b50809250505090565b61099a610a31565b60025442116109de576040517f08c379a00000000000000000000000000000000000000000000000000000000081526004016109d590611129565b60405180910390fd5b604051806040016040528060045f9054906101000a900473ffffffffffffffffffffffffffffffffffffffff1673ffffffffffffffffffffffffffffffffffffffff168152602001600554815250905090565b60405180604001604052805f73ffffffffffffffffffffffffffffffffffffffff1681526020015f81525090565b5f81519050919050565b5f82825260208201905092915050565b5f819050602082019050919050565b5f73ffffffffffffffffffffffffffffffffffffffff82169050919050565b5f610ab182610a88565b9050919050565b610ac181610aa7565b82525050565b5f819050919050565b610ad981610ac7565b82525050565b604082015f820151610af35f850182610ab8565b506020820151610b066020850182610ad0565b50505050565b5f610b178383610adf565b60408301905092915050565b5f602082019050919050565b5f610b3982610a5f565b610b438185610a69565b9350610b4e83610a79565b805f5b83811015610b7e578151610b658882610b0c565b9750610b7083610b23565b925050600181019050610b51565b5085935050505092915050565b5f6020820190508181035f830152610ba38184610b2f565b905092915050565b604082015f820151610bbf5f850182610ab8565b506020820151610bd26020850182610ad0565b50505050565b5f604082019050610beb5f830184610bab565b92915050565b5f82825260208201905092915050565b7f436f6e747261746f20657870697261646f0000000000000000000000000000005f82015250565b5f610c35601183610bf1565b9150610c4082610c01565b602082019050919050565b5f6020820190508181035f830152610c6281610c29565b9050919050565b7f4e487b71000000000000000000000000000000000000000000000000000000005f52601160045260245ffd5b5f610ca082610ac7565b9150610cab83610ac7565b9250828202610cb981610ac7565b91508282048414831517610cd057610ccf610c69565b5b5092915050565b7f4e487b71000000000000000000000000000000000000000000000000000000005f52601260045260245ffd5b5f610d0e82610ac7565b9150610d1983610ac7565b925082610d2957610d28610cd7565b5b828204905092915050565b7f50756a6120636f6e206d656e6f7320646520352520646520696e6372656d656e5f8201527f746f20736f627265206c612067616e61646f7261000000000000000000000000602082015250565b5f610d8e603483610bf1565b9150610d9982610d34565b604082019050919050565b5f6020820190508181035f830152610dbb81610d82565b9050919050565b7f5573746564207961207469656e65206c61206d656a6f722070756a61000000005f82015250565b5f610df6601c83610bf1565b9150610e0182610dc2565b602082019050919050565b5f6020820190508181035f830152610e2381610dea565b9050919050565b610e3381610ac7565b82525050565b5f602082019050610e4c5f830184610e2a565b92915050565b5f610e5c82610ac7565b9150610e6783610ac7565b9250828203905081811115610e7f57610e7e610c69565b5b92915050565b5f610e8f82610ac7565b9150610e9a83610ac7565b9250828201905080821115610eb257610eb1610c69565b5b92915050565b5f604082019050610ecb5f830185610e2a565b610ed86020830184610e2a565b9392505050565b7f456c20636f6e747261746f2061756e206e6f20686120657870697261646f00005f82015250565b5f610f13601e83610bf1565b9150610f1e82610edf565b602082019050919050565b5f6020820190508181035f830152610f4081610f07565b9050919050565b7f4e6f20686179206f6665727461207265616c697a6164610000000000000000005f82015250565b5f610f7b601783610bf1565b9150610f8682610f47565b602082019050919050565b5f6020820190508181035f830152610fa881610f6f565b9050919050565b7f4e487b71000000000000000000000000000000000000000000000000000000005f52603260045260245ffd5b7f4e487b71000000000000000000000000000000000000000000000000000000005f52603160045260245ffd5b5f81905092915050565b50565b5f6110215f83611009565b915061102c82611013565b5f82019050919050565b5f61104082611016565b9150819050919050565b7f526566756e642066616c6c69646f0000000000000000000000000000000000005f82015250565b5f61107e600e83610bf1565b91506110898261104a565b602082019050919050565b5f6020820190508181035f8301526110ab81611072565b9050919050565b7f4e487b71000000000000000000000000000000000000000000000000000000005f52604160045260245ffd5b7f436f6e747261746f206e6f2066696e616c697a61646f000000000000000000005f82015250565b5f611113601683610bf1565b915061111e826110df565b602082019050919050565b5f6020820190508181035f83015261114081611107565b905091905056fea26469706673582212202ce39d3427737fedcac5aa172985401afcfba97805a0c07b10d7b93034e99c8064736f6c634300081e0033",
					"opcodes": "PUSH1 0x80 PUSH1 0x40 MSTORE CALLVALUE DUP1 ISZERO PUSH2 0xF JUMPI PUSH0 PUSH0 REVERT JUMPDEST POP CALLER PUSH0 PUSH0 PUSH2 0x100 EXP DUP2 SLOAD DUP2 PUSH20 0xFFFFFFFFFFFFFFFFFFFFFFFFFFFFFFFFFFFFFFFF MUL NOT AND SWAP1 DUP4 PUSH20 0xFFFFFFFFFFFFFFFFFFFFFFFFFFFFFFFFFFFFFFFF AND MUL OR SWAP1 SSTORE POP TIMESTAMP PUSH1 0x1 DUP2 SWAP1 SSTORE POP PUSH2 0x384 PUSH1 0x3 DUP2 SWAP1 SSTORE POP PUSH1 0x3 SLOAD PUSH1 0x1 SLOAD PUSH2 0x6F SWAP2 SWAP1 PUSH2 0xC7 JUMP JUMPDEST PUSH1 0x2 DUP2 SWAP1 SSTORE POP PUSH8 0xDE0B6B3A7640000 PUSH1 0x5 DUP2 SWAP1 SSTORE POP PUSH1 0x69 PUSH1 0x6 DUP2 SWAP1 SSTORE POP PUSH2 0xFA JUMP JUMPDEST PUSH0 DUP2 SWAP1 POP SWAP2 SWAP1 POP JUMP JUMPDEST PUSH32 0x4E487B7100000000000000000000000000000000000000000000000000000000 PUSH0 MSTORE PUSH1 0x11 PUSH1 0x4 MSTORE PUSH1 0x24 PUSH0 REVERT JUMPDEST PUSH0 PUSH2 0xD1 DUP3 PUSH2 0x91 JUMP JUMPDEST SWAP2 POP PUSH2 0xDC DUP4 PUSH2 0x91 JUMP JUMPDEST SWAP3 POP DUP3 DUP3 ADD SWAP1 POP DUP1 DUP3 GT ISZERO PUSH2 0xF4 JUMPI PUSH2 0xF3 PUSH2 0x9A JUMP JUMPDEST JUMPDEST SWAP3 SWAP2 POP POP JUMP JUMPDEST PUSH2 0x117D DUP1 PUSH2 0x107 PUSH0 CODECOPY PUSH0 RETURN INVALID PUSH1 0x80 PUSH1 0x40 MSTORE PUSH1 0x4 CALLDATASIZE LT PUSH2 0x3E JUMPI PUSH0 CALLDATALOAD PUSH1 0xE0 SHR DUP1 PUSH4 0x1998AEEF EQ PUSH2 0x42 JUMPI DUP1 PUSH4 0x4E71D92D EQ PUSH2 0x4C JUMPI DUP1 PUSH4 0x8D0F6DA3 EQ PUSH2 0x62 JUMPI DUP1 PUSH4 0xCEB98F6E EQ PUSH2 0x8C JUMPI JUMPDEST PUSH0 PUSH0 REVERT JUMPDEST PUSH2 0x4A PUSH2 0xB6 JUMP JUMPDEST STOP JUMPDEST CALLVALUE DUP1 ISZERO PUSH2 0x57 JUMPI PUSH0 PUSH0 REVERT JUMPDEST POP PUSH2 0x60 PUSH2 0x3E7 JUMP JUMPDEST STOP JUMPDEST CALLVALUE DUP1 ISZERO PUSH2 0x6D JUMPI PUSH0 PUSH0 REVERT JUMPDEST POP PUSH2 0x76 PUSH2 0x811 JUMP JUMPDEST PUSH1 0x40 MLOAD PUSH2 0x83 SWAP2 SWAP1 PUSH2 0xB8B JUMP JUMPDEST PUSH1 0x40 MLOAD DUP1 SWAP2 SUB SWAP1 RETURN JUMPDEST CALLVALUE DUP1 ISZERO PUSH2 0x97 JUMPI PUSH0 PUSH0 REVERT JUMPDEST POP PUSH2 0xA0 PUSH2 0x992 JUMP JUMPDEST PUSH1 0x40 MLOAD PUSH2 0xAD SWAP2 SWAP1 PUSH2 0xBD8 JUMP JUMPDEST PUSH1 0x40 MLOAD DUP1 SWAP2 SUB SWAP1 RETURN JUMPDEST PUSH1 0x2 SLOAD TIMESTAMP GT ISZERO PUSH2 0xFB JUMPI PUSH1 0x40 MLOAD PUSH32 0x8C379A000000000000000000000000000000000000000000000000000000000 DUP2 MSTORE PUSH1 0x4 ADD PUSH2 0xF2 SWAP1 PUSH2 0xC4B JUMP JUMPDEST PUSH1 0x40 MLOAD DUP1 SWAP2 SUB SWAP1 REVERT JUMPDEST PUSH1 0x64 PUSH1 0x6 SLOAD PUSH1 0x5 SLOAD PUSH2 0x10D SWAP2 SWAP1 PUSH2 0xC96 JUMP JUMPDEST PUSH2 0x117 SWAP2 SWAP1 PUSH2 0xD04 JUMP JUMPDEST CALLVALUE GT PUSH2 0x158 JUMPI PUSH1 0x40 MLOAD PUSH32 0x8C379A000000000000000000000000000000000000000000000000000000000 DUP2 MSTORE PUSH1 0x4 ADD PUSH2 0x14F SWAP1 PUSH2 0xDA4 JUMP JUMPDEST PUSH1 0x40 MLOAD DUP1 SWAP2 SUB SWAP1 REVERT JUMPDEST PUSH1 0x4 PUSH0 SWAP1 SLOAD SWAP1 PUSH2 0x100 EXP SWAP1 DIV PUSH20 0xFFFFFFFFFFFFFFFFFFFFFFFFFFFFFFFFFFFFFFFF AND PUSH20 0xFFFFFFFFFFFFFFFFFFFFFFFFFFFFFFFFFFFFFFFF AND CALLER PUSH20 0xFFFFFFFFFFFFFFFFFFFFFFFFFFFFFFFFFFFFFFFF AND SUB PUSH2 0x1E7 JUMPI PUSH1 0x40 MLOAD PUSH32 0x8C379A000000000000000000000000000000000000000000000000000000000 DUP2 MSTORE PUSH1 0x4 ADD PUSH2 0x1DE SWAP1 PUSH2 0xE0C JUMP JUMPDEST PUSH1 0x40 MLOAD DUP1 SWAP2 SUB SWAP1 REVERT JUMPDEST CALLER PUSH20 0xFFFFFFFFFFFFFFFFFFFFFFFFFFFFFFFFFFFFFFFF AND PUSH32 0xDD0B6C6A77960E2066C96171B4D7AC9E8B4C184011F38544AFA36A5BB63EC59F CALLVALUE PUSH1 0x40 MLOAD PUSH2 0x22D SWAP2 SWAP1 PUSH2 0xE39 JUMP JUMPDEST PUSH1 0x40 MLOAD DUP1 SWAP2 SUB SWAP1 LOG2 CALLER PUSH1 0x4 PUSH0 PUSH2 0x100 EXP DUP2 SLOAD DUP2 PUSH20 0xFFFFFFFFFFFFFFFFFFFFFFFFFFFFFFFFFFFFFFFF MUL NOT AND SWAP1 DUP4 PUSH20 0xFFFFFFFFFFFFFFFFFFFFFFFFFFFFFFFFFFFFFFFF AND MUL OR SWAP1 SSTORE POP CALLVALUE PUSH1 0x5 DUP2 SWAP1 SSTORE POP PUSH0 PUSH1 0x7 PUSH0 CALLER PUSH20 0xFFFFFFFFFFFFFFFFFFFFFFFFFFFFFFFFFFFFFFFF AND PUSH20 0xFFFFFFFFFFFFFFFFFFFFFFFFFFFFFFFFFFFFFFFF AND DUP2 MSTORE PUSH1 0x20 ADD SWAP1 DUP2 MSTORE PUSH1 0x20 ADD PUSH0 KECCAK256 SLOAD SUB PUSH2 0x321 JUMPI PUSH1 0x8 CALLER SWAP1 DUP1 PUSH1 0x1 DUP2 SLOAD ADD DUP1 DUP3 SSTORE DUP1 SWAP2 POP POP PUSH1 0x1 SWAP1 SUB SWAP1 PUSH0 MSTORE PUSH1 0x20 PUSH0 KECCAK256 ADD PUSH0 SWAP1 SWAP2 SWAP1 SWAP2 SWAP1 SWAP2 PUSH2 0x100 EXP DUP2 SLOAD DUP2 PUSH20 0xFFFFFFFFFFFFFFFFFFFFFFFFFFFFFFFFFFFFFFFF MUL NOT AND SWAP1 DUP4 PUSH20 0xFFFFFFFFFFFFFFFFFFFFFFFFFFFFFFFFFFFFFFFF AND MUL OR SWAP1 SSTORE POP JUMPDEST CALLVALUE PUSH1 0x7 PUSH0 CALLER PUSH20 0xFFFFFFFFFFFFFFFFFFFFFFFFFFFFFFFFFFFFFFFF AND PUSH20 0xFFFFFFFFFFFFFFFFFFFFFFFFFFFFFFFFFFFFFFFF AND DUP2 MSTORE PUSH1 0x20 ADD SWAP1 DUP2 MSTORE PUSH1 0x20 ADD PUSH0 KECCAK256 DUP2 SWAP1 SSTORE POP PUSH2 0x258 PUSH1 0x2 SLOAD PUSH2 0x373 SWAP2 SWAP1 PUSH2 0xE52 JUMP JUMPDEST TIMESTAMP LT PUSH2 0x3E5 JUMPI PUSH0 PUSH2 0x258 PUSH1 0x2 SLOAD PUSH2 0x38A SWAP2 SWAP1 PUSH2 0xE85 JUMP JUMPDEST SWAP1 POP DUP1 PUSH1 0x2 DUP2 SWAP1 SSTORE POP CALLER PUSH20 0xFFFFFFFFFFFFFFFFFFFFFFFFFFFFFFFFFFFFFFFF AND PUSH32 0x2241AA88C881D125CCE08EF2A8F6BFD221CA46E27736A38F9353622A4303C705 DUP3 CALLVALUE PUSH1 0x40 MLOAD PUSH2 0x3DB SWAP3 SWAP2 SWAP1 PUSH2 0xEB8 JUMP JUMPDEST PUSH1 0x40 MLOAD DUP1 SWAP2 SUB SWAP1 LOG2 POP JUMPDEST JUMP JUMPDEST PUSH1 0x2 SLOAD TIMESTAMP GT PUSH2 0x42B JUMPI PUSH1 0x40 MLOAD PUSH32 0x8C379A000000000000000000000000000000000000000000000000000000000 DUP2 MSTORE PUSH1 0x4 ADD PUSH2 0x422 SWAP1 PUSH2 0xF29 JUMP JUMPDEST PUSH1 0x40 MLOAD DUP1 SWAP2 SUB SWAP1 REVERT JUMPDEST PUSH1 0x4 PUSH0 SWAP1 SLOAD SWAP1 PUSH2 0x100 EXP SWAP1 DIV PUSH20 0xFFFFFFFFFFFFFFFFFFFFFFFFFFFFFFFFFFFFFFFF AND PUSH20 0xFFFFFFFFFFFFFFFFFFFFFFFFFFFFFFFFFFFFFFFF AND CALLER PUSH20 0xFFFFFFFFFFFFFFFFFFFFFFFFFFFFFFFFFFFFFFFF AND SUB PUSH2 0x4BA JUMPI PUSH1 0x40 MLOAD PUSH32 0x8C379A000000000000000000000000000000000000000000000000000000000 DUP2 MSTORE PUSH1 0x4 ADD PUSH2 0x4B1 SWAP1 PUSH2 0xE0C JUMP JUMPDEST PUSH1 0x40 MLOAD DUP1 SWAP2 SUB SWAP1 REVERT JUMPDEST PUSH0 PUSH1 0x7 PUSH0 CALLER PUSH20 0xFFFFFFFFFFFFFFFFFFFFFFFFFFFFFFFFFFFFFFFF AND PUSH20 0xFFFFFFFFFFFFFFFFFFFFFFFFFFFFFFFFFFFFFFFF AND DUP2 MSTORE PUSH1 0x20 ADD SWAP1 DUP2 MSTORE PUSH1 0x20 ADD PUSH0 KECCAK256 SLOAD SWAP1 POP PUSH0 DUP2 GT PUSH2 0x53D JUMPI PUSH1 0x40 MLOAD PUSH32 0x8C379A000000000000000000000000000000000000000000000000000000000 DUP2 MSTORE PUSH1 0x4 ADD PUSH2 0x534 SWAP1 PUSH2 0xF91 JUMP JUMPDEST PUSH1 0x40 MLOAD DUP1 SWAP2 SUB SWAP1 REVERT JUMPDEST PUSH0 PUSH1 0x64 PUSH1 0x62 DUP4 PUSH2 0x54D SWAP2 SWAP1 PUSH2 0xC96 JUMP JUMPDEST PUSH2 0x557 SWAP2 SWAP1 PUSH2 0xD04 JUMP JUMPDEST SWAP1 POP PUSH1 0x7 PUSH0 CALLER PUSH20 0xFFFFFFFFFFFFFFFFFFFFFFFFFFFFFFFFFFFFFFFF AND PUSH20 0xFFFFFFFFFFFFFFFFFFFFFFFFFFFFFFFFFFFFFFFF AND DUP2 MSTORE PUSH1 0x20 ADD SWAP1 DUP2 MSTORE PUSH1 0x20 ADD PUSH0 KECCAK256 PUSH0 SWAP1 SSTORE PUSH0 PUSH0 SWAP1 POP JUMPDEST PUSH1 0x8 DUP1 SLOAD SWAP1 POP DUP2 LT ISZERO PUSH2 0x715 JUMPI CALLER PUSH20 0xFFFFFFFFFFFFFFFFFFFFFFFFFFFFFFFFFFFFFFFF AND PUSH1 0x8 DUP3 DUP2 SLOAD DUP2 LT PUSH2 0x5D6 JUMPI PUSH2 0x5D5 PUSH2 0xFAF JUMP JUMPDEST JUMPDEST SWAP1 PUSH0 MSTORE PUSH1 0x20 PUSH0 KECCAK256 ADD PUSH0 SWAP1 SLOAD SWAP1 PUSH2 0x100 EXP SWAP1 DIV PUSH20 0xFFFFFFFFFFFFFFFFFFFFFFFFFFFFFFFFFFFFFFFF AND PUSH20 0xFFFFFFFFFFFFFFFFFFFFFFFFFFFFFFFFFFFFFFFF AND SUB PUSH2 0x708 JUMPI PUSH1 0x8 PUSH1 0x1 PUSH1 0x8 DUP1 SLOAD SWAP1 POP PUSH2 0x62D SWAP2 SWAP1 PUSH2 0xE52 JUMP JUMPDEST DUP2 SLOAD DUP2 LT PUSH2 0x63E JUMPI PUSH2 0x63D PUSH2 0xFAF JUMP JUMPDEST JUMPDEST SWAP1 PUSH0 MSTORE PUSH1 0x20 PUSH0 KECCAK256 ADD PUSH0 SWAP1 SLOAD SWAP1 PUSH2 0x100 EXP SWAP1 DIV PUSH20 0xFFFFFFFFFFFFFFFFFFFFFFFFFFFFFFFFFFFFFFFF AND PUSH1 0x8 DUP3 DUP2 SLOAD DUP2 LT PUSH2 0x67A JUMPI PUSH2 0x679 PUSH2 0xFAF JUMP JUMPDEST JUMPDEST SWAP1 PUSH0 MSTORE PUSH1 0x20 PUSH0 KECCAK256 ADD PUSH0 PUSH2 0x100 EXP DUP2 SLOAD DUP2 PUSH20 0xFFFFFFFFFFFFFFFFFFFFFFFFFFFFFFFFFFFFFFFF MUL NOT AND SWAP1 DUP4 PUSH20 0xFFFFFFFFFFFFFFFFFFFFFFFFFFFFFFFFFFFFFFFF AND MUL OR SWAP1 SSTORE POP PUSH1 0x8 DUP1 SLOAD DUP1 PUSH2 0x6D1 JUMPI PUSH2 0x6D0 PUSH2 0xFDC JUMP JUMPDEST JUMPDEST PUSH1 0x1 SWAP1 SUB DUP2 DUP2 SWAP1 PUSH0 MSTORE PUSH1 0x20 PUSH0 KECCAK256 ADD PUSH0 PUSH2 0x100 EXP DUP2 SLOAD SWAP1 PUSH20 0xFFFFFFFFFFFFFFFFFFFFFFFFFFFFFFFFFFFFFFFF MUL NOT AND SWAP1 SSTORE SWAP1 SSTORE PUSH2 0x715 JUMP JUMPDEST DUP1 DUP1 PUSH1 0x1 ADD SWAP2 POP POP PUSH2 0x59E JUMP JUMPDEST POP PUSH0 CALLER PUSH20 0xFFFFFFFFFFFFFFFFFFFFFFFFFFFFFFFFFFFFFFFF AND DUP3 PUSH1 0x40 MLOAD PUSH2 0x73B SWAP1 PUSH2 0x1036 JUMP JUMPDEST PUSH0 PUSH1 0x40 MLOAD DUP1 DUP4 SUB DUP2 DUP6 DUP8 GAS CALL SWAP3 POP POP POP RETURNDATASIZE DUP1 PUSH0 DUP2 EQ PUSH2 0x775 JUMPI PUSH1 0x40 MLOAD SWAP2 POP PUSH1 0x1F NOT PUSH1 0x3F RETURNDATASIZE ADD AND DUP3 ADD PUSH1 0x40 MSTORE RETURNDATASIZE DUP3 MSTORE RETURNDATASIZE PUSH0 PUSH1 0x20 DUP5 ADD RETURNDATACOPY PUSH2 0x77A JUMP JUMPDEST PUSH1 0x60 SWAP2 POP JUMPDEST POP POP SWAP1 POP DUP1 PUSH2 0x7BE JUMPI PUSH1 0x40 MLOAD PUSH32 0x8C379A000000000000000000000000000000000000000000000000000000000 DUP2 MSTORE PUSH1 0x4 ADD PUSH2 0x7B5 SWAP1 PUSH2 0x1094 JUMP JUMPDEST PUSH1 0x40 MLOAD DUP1 SWAP2 SUB SWAP1 REVERT JUMPDEST CALLER PUSH20 0xFFFFFFFFFFFFFFFFFFFFFFFFFFFFFFFFFFFFFFFF AND PUSH32 0xBB28353E4598C3B9199101A66E0989549B659A59A54D2C27FBB183F1932C8E6D DUP4 PUSH1 0x40 MLOAD PUSH2 0x804 SWAP2 SWAP1 PUSH2 0xE39 JUMP JUMPDEST PUSH1 0x40 MLOAD DUP1 SWAP2 SUB SWAP1 LOG2 POP POP POP JUMP JUMPDEST PUSH1 0x60 PUSH0 PUSH1 0x8 DUP1 SLOAD SWAP1 POP SWAP1 POP PUSH0 DUP2 PUSH8 0xFFFFFFFFFFFFFFFF DUP2 GT ISZERO PUSH2 0x837 JUMPI PUSH2 0x836 PUSH2 0x10B2 JUMP JUMPDEST JUMPDEST PUSH1 0x40 MLOAD SWAP1 DUP1 DUP3 MSTORE DUP1 PUSH1 0x20 MUL PUSH1 0x20 ADD DUP3 ADD PUSH1 0x40 MSTORE DUP1 ISZERO PUSH2 0x870 JUMPI DUP2 PUSH1 0x20 ADD JUMPDEST PUSH2 0x85D PUSH2 0xA31 JUMP JUMPDEST DUP2 MSTORE PUSH1 0x20 ADD SWAP1 PUSH1 0x1 SWAP1 SUB SWAP1 DUP2 PUSH2 0x855 JUMPI SWAP1 POP JUMPDEST POP SWAP1 POP PUSH0 PUSH0 SWAP1 POP JUMPDEST DUP3 DUP2 LT ISZERO PUSH2 0x989 JUMPI PUSH1 0x40 MLOAD DUP1 PUSH1 0x40 ADD PUSH1 0x40 MSTORE DUP1 PUSH1 0x8 DUP4 DUP2 SLOAD DUP2 LT PUSH2 0x89F JUMPI PUSH2 0x89E PUSH2 0xFAF JUMP JUMPDEST JUMPDEST SWAP1 PUSH0 MSTORE PUSH1 0x20 PUSH0 KECCAK256 ADD PUSH0 SWAP1 SLOAD SWAP1 PUSH2 0x100 EXP SWAP1 DIV PUSH20 0xFFFFFFFFFFFFFFFFFFFFFFFFFFFFFFFFFFFFFFFF AND PUSH20 0xFFFFFFFFFFFFFFFFFFFFFFFFFFFFFFFFFFFFFFFF AND DUP2 MSTORE PUSH1 0x20 ADD PUSH1 0x7 PUSH0 PUSH1 0x8 DUP6 DUP2 SLOAD DUP2 LT PUSH2 0x8F9 JUMPI PUSH2 0x8F8 PUSH2 0xFAF JUMP JUMPDEST JUMPDEST SWAP1 PUSH0 MSTORE PUSH1 0x20 PUSH0 KECCAK256 ADD PUSH0 SWAP1 SLOAD SWAP1 PUSH2 0x100 EXP SWAP1 DIV PUSH20 0xFFFFFFFFFFFFFFFFFFFFFFFFFFFFFFFFFFFFFFFF AND PUSH20 0xFFFFFFFFFFFFFFFFFFFFFFFFFFFFFFFFFFFFFFFF AND PUSH20 0xFFFFFFFFFFFFFFFFFFFFFFFFFFFFFFFFFFFFFFFF AND DUP2 MSTORE PUSH1 0x20 ADD SWAP1 DUP2 MSTORE PUSH1 0x20 ADD PUSH0 KECCAK256 SLOAD DUP2 MSTORE POP DUP3 DUP3 DUP2 MLOAD DUP2 LT PUSH2 0x971 JUMPI PUSH2 0x970 PUSH2 0xFAF JUMP JUMPDEST JUMPDEST PUSH1 0x20 MUL PUSH1 0x20 ADD ADD DUP2 SWAP1 MSTORE POP DUP1 DUP1 PUSH1 0x1 ADD SWAP2 POP POP PUSH2 0x878 JUMP JUMPDEST POP DUP1 SWAP3 POP POP POP SWAP1 JUMP JUMPDEST PUSH2 0x99A PUSH2 0xA31 JUMP JUMPDEST PUSH1 0x2 SLOAD TIMESTAMP GT PUSH2 0x9DE JUMPI PUSH1 0x40 MLOAD PUSH32 0x8C379A000000000000000000000000000000000000000000000000000000000 DUP2 MSTORE PUSH1 0x4 ADD PUSH2 0x9D5 SWAP1 PUSH2 0x1129 JUMP JUMPDEST PUSH1 0x40 MLOAD DUP1 SWAP2 SUB SWAP1 REVERT JUMPDEST PUSH1 0x40 MLOAD DUP1 PUSH1 0x40 ADD PUSH1 0x40 MSTORE DUP1 PUSH1 0x4 PUSH0 SWAP1 SLOAD SWAP1 PUSH2 0x100 EXP SWAP1 DIV PUSH20 0xFFFFFFFFFFFFFFFFFFFFFFFFFFFFFFFFFFFFFFFF AND PUSH20 0xFFFFFFFFFFFFFFFFFFFFFFFFFFFFFFFFFFFFFFFF AND DUP2 MSTORE PUSH1 0x20 ADD PUSH1 0x5 SLOAD DUP2 MSTORE POP SWAP1 POP SWAP1 JUMP JUMPDEST PUSH1 0x40 MLOAD DUP1 PUSH1 0x40 ADD PUSH1 0x40 MSTORE DUP1 PUSH0 PUSH20 0xFFFFFFFFFFFFFFFFFFFFFFFFFFFFFFFFFFFFFFFF AND DUP2 MSTORE PUSH1 0x20 ADD PUSH0 DUP2 MSTORE POP SWAP1 JUMP JUMPDEST PUSH0 DUP2 MLOAD SWAP1 POP SWAP2 SWAP1 POP JUMP JUMPDEST PUSH0 DUP3 DUP3 MSTORE PUSH1 0x20 DUP3 ADD SWAP1 POP SWAP3 SWAP2 POP POP JUMP JUMPDEST PUSH0 DUP2 SWAP1 POP PUSH1 0x20 DUP3 ADD SWAP1 POP SWAP2 SWAP1 POP JUMP JUMPDEST PUSH0 PUSH20 0xFFFFFFFFFFFFFFFFFFFFFFFFFFFFFFFFFFFFFFFF DUP3 AND SWAP1 POP SWAP2 SWAP1 POP JUMP JUMPDEST PUSH0 PUSH2 0xAB1 DUP3 PUSH2 0xA88 JUMP JUMPDEST SWAP1 POP SWAP2 SWAP1 POP JUMP JUMPDEST PUSH2 0xAC1 DUP2 PUSH2 0xAA7 JUMP JUMPDEST DUP3 MSTORE POP POP JUMP JUMPDEST PUSH0 DUP2 SWAP1 POP SWAP2 SWAP1 POP JUMP JUMPDEST PUSH2 0xAD9 DUP2 PUSH2 0xAC7 JUMP JUMPDEST DUP3 MSTORE POP POP JUMP JUMPDEST PUSH1 0x40 DUP3 ADD PUSH0 DUP3 ADD MLOAD PUSH2 0xAF3 PUSH0 DUP6 ADD DUP3 PUSH2 0xAB8 JUMP JUMPDEST POP PUSH1 0x20 DUP3 ADD MLOAD PUSH2 0xB06 PUSH1 0x20 DUP6 ADD DUP3 PUSH2 0xAD0 JUMP JUMPDEST POP POP POP POP JUMP JUMPDEST PUSH0 PUSH2 0xB17 DUP4 DUP4 PUSH2 0xADF JUMP JUMPDEST PUSH1 0x40 DUP4 ADD SWAP1 POP SWAP3 SWAP2 POP POP JUMP JUMPDEST PUSH0 PUSH1 0x20 DUP3 ADD SWAP1 POP SWAP2 SWAP1 POP JUMP JUMPDEST PUSH0 PUSH2 0xB39 DUP3 PUSH2 0xA5F JUMP JUMPDEST PUSH2 0xB43 DUP2 DUP6 PUSH2 0xA69 JUMP JUMPDEST SWAP4 POP PUSH2 0xB4E DUP4 PUSH2 0xA79 JUMP JUMPDEST DUP1 PUSH0 JUMPDEST DUP4 DUP2 LT ISZERO PUSH2 0xB7E JUMPI DUP2 MLOAD PUSH2 0xB65 DUP9 DUP3 PUSH2 0xB0C JUMP JUMPDEST SWAP8 POP PUSH2 0xB70 DUP4 PUSH2 0xB23 JUMP JUMPDEST SWAP3 POP POP PUSH1 0x1 DUP2 ADD SWAP1 POP PUSH2 0xB51 JUMP JUMPDEST POP DUP6 SWAP4 POP POP POP POP SWAP3 SWAP2 POP POP JUMP JUMPDEST PUSH0 PUSH1 0x20 DUP3 ADD SWAP1 POP DUP2 DUP2 SUB PUSH0 DUP4 ADD MSTORE PUSH2 0xBA3 DUP2 DUP5 PUSH2 0xB2F JUMP JUMPDEST SWAP1 POP SWAP3 SWAP2 POP POP JUMP JUMPDEST PUSH1 0x40 DUP3 ADD PUSH0 DUP3 ADD MLOAD PUSH2 0xBBF PUSH0 DUP6 ADD DUP3 PUSH2 0xAB8 JUMP JUMPDEST POP PUSH1 0x20 DUP3 ADD MLOAD PUSH2 0xBD2 PUSH1 0x20 DUP6 ADD DUP3 PUSH2 0xAD0 JUMP JUMPDEST POP POP POP POP JUMP JUMPDEST PUSH0 PUSH1 0x40 DUP3 ADD SWAP1 POP PUSH2 0xBEB PUSH0 DUP4 ADD DUP5 PUSH2 0xBAB JUMP JUMPDEST SWAP3 SWAP2 POP POP JUMP JUMPDEST PUSH0 DUP3 DUP3 MSTORE PUSH1 0x20 DUP3 ADD SWAP1 POP SWAP3 SWAP2 POP POP JUMP JUMPDEST PUSH32 0x436F6E747261746F20657870697261646F000000000000000000000000000000 PUSH0 DUP3 ADD MSTORE POP JUMP JUMPDEST PUSH0 PUSH2 0xC35 PUSH1 0x11 DUP4 PUSH2 0xBF1 JUMP JUMPDEST SWAP2 POP PUSH2 0xC40 DUP3 PUSH2 0xC01 JUMP JUMPDEST PUSH1 0x20 DUP3 ADD SWAP1 POP SWAP2 SWAP1 POP JUMP JUMPDEST PUSH0 PUSH1 0x20 DUP3 ADD SWAP1 POP DUP2 DUP2 SUB PUSH0 DUP4 ADD MSTORE PUSH2 0xC62 DUP2 PUSH2 0xC29 JUMP JUMPDEST SWAP1 POP SWAP2 SWAP1 POP JUMP JUMPDEST PUSH32 0x4E487B7100000000000000000000000000000000000000000000000000000000 PUSH0 MSTORE PUSH1 0x11 PUSH1 0x4 MSTORE PUSH1 0x24 PUSH0 REVERT JUMPDEST PUSH0 PUSH2 0xCA0 DUP3 PUSH2 0xAC7 JUMP JUMPDEST SWAP2 POP PUSH2 0xCAB DUP4 PUSH2 0xAC7 JUMP JUMPDEST SWAP3 POP DUP3 DUP3 MUL PUSH2 0xCB9 DUP2 PUSH2 0xAC7 JUMP JUMPDEST SWAP2 POP DUP3 DUP3 DIV DUP5 EQ DUP4 ISZERO OR PUSH2 0xCD0 JUMPI PUSH2 0xCCF PUSH2 0xC69 JUMP JUMPDEST JUMPDEST POP SWAP3 SWAP2 POP POP JUMP JUMPDEST PUSH32 0x4E487B7100000000000000000000000000000000000000000000000000000000 PUSH0 MSTORE PUSH1 0x12 PUSH1 0x4 MSTORE PUSH1 0x24 PUSH0 REVERT JUMPDEST PUSH0 PUSH2 0xD0E DUP3 PUSH2 0xAC7 JUMP JUMPDEST SWAP2 POP PUSH2 0xD19 DUP4 PUSH2 0xAC7 JUMP JUMPDEST SWAP3 POP DUP3 PUSH2 0xD29 JUMPI PUSH2 0xD28 PUSH2 0xCD7 JUMP JUMPDEST JUMPDEST DUP3 DUP3 DIV SWAP1 POP SWAP3 SWAP2 POP POP JUMP JUMPDEST PUSH32 0x50756A6120636F6E206D656E6F7320646520352520646520696E6372656D656E PUSH0 DUP3 ADD MSTORE PUSH32 0x746F20736F627265206C612067616E61646F7261000000000000000000000000 PUSH1 0x20 DUP3 ADD MSTORE POP JUMP JUMPDEST PUSH0 PUSH2 0xD8E PUSH1 0x34 DUP4 PUSH2 0xBF1 JUMP JUMPDEST SWAP2 POP PUSH2 0xD99 DUP3 PUSH2 0xD34 JUMP JUMPDEST PUSH1 0x40 DUP3 ADD SWAP1 POP SWAP2 SWAP1 POP JUMP JUMPDEST PUSH0 PUSH1 0x20 DUP3 ADD SWAP1 POP DUP2 DUP2 SUB PUSH0 DUP4 ADD MSTORE PUSH2 0xDBB DUP2 PUSH2 0xD82 JUMP JUMPDEST SWAP1 POP SWAP2 SWAP1 POP JUMP JUMPDEST PUSH32 0x5573746564207961207469656E65206C61206D656A6F722070756A6100000000 PUSH0 DUP3 ADD MSTORE POP JUMP JUMPDEST PUSH0 PUSH2 0xDF6 PUSH1 0x1C DUP4 PUSH2 0xBF1 JUMP JUMPDEST SWAP2 POP PUSH2 0xE01 DUP3 PUSH2 0xDC2 JUMP JUMPDEST PUSH1 0x20 DUP3 ADD SWAP1 POP SWAP2 SWAP1 POP JUMP JUMPDEST PUSH0 PUSH1 0x20 DUP3 ADD SWAP1 POP DUP2 DUP2 SUB PUSH0 DUP4 ADD MSTORE PUSH2 0xE23 DUP2 PUSH2 0xDEA JUMP JUMPDEST SWAP1 POP SWAP2 SWAP1 POP JUMP JUMPDEST PUSH2 0xE33 DUP2 PUSH2 0xAC7 JUMP JUMPDEST DUP3 MSTORE POP POP JUMP JUMPDEST PUSH0 PUSH1 0x20 DUP3 ADD SWAP1 POP PUSH2 0xE4C PUSH0 DUP4 ADD DUP5 PUSH2 0xE2A JUMP JUMPDEST SWAP3 SWAP2 POP POP JUMP JUMPDEST PUSH0 PUSH2 0xE5C DUP3 PUSH2 0xAC7 JUMP JUMPDEST SWAP2 POP PUSH2 0xE67 DUP4 PUSH2 0xAC7 JUMP JUMPDEST SWAP3 POP DUP3 DUP3 SUB SWAP1 POP DUP2 DUP2 GT ISZERO PUSH2 0xE7F JUMPI PUSH2 0xE7E PUSH2 0xC69 JUMP JUMPDEST JUMPDEST SWAP3 SWAP2 POP POP JUMP JUMPDEST PUSH0 PUSH2 0xE8F DUP3 PUSH2 0xAC7 JUMP JUMPDEST SWAP2 POP PUSH2 0xE9A DUP4 PUSH2 0xAC7 JUMP JUMPDEST SWAP3 POP DUP3 DUP3 ADD SWAP1 POP DUP1 DUP3 GT ISZERO PUSH2 0xEB2 JUMPI PUSH2 0xEB1 PUSH2 0xC69 JUMP JUMPDEST JUMPDEST SWAP3 SWAP2 POP POP JUMP JUMPDEST PUSH0 PUSH1 0x40 DUP3 ADD SWAP1 POP PUSH2 0xECB PUSH0 DUP4 ADD DUP6 PUSH2 0xE2A JUMP JUMPDEST PUSH2 0xED8 PUSH1 0x20 DUP4 ADD DUP5 PUSH2 0xE2A JUMP JUMPDEST SWAP4 SWAP3 POP POP POP JUMP JUMPDEST PUSH32 0x456C20636F6E747261746F2061756E206E6F20686120657870697261646F0000 PUSH0 DUP3 ADD MSTORE POP JUMP JUMPDEST PUSH0 PUSH2 0xF13 PUSH1 0x1E DUP4 PUSH2 0xBF1 JUMP JUMPDEST SWAP2 POP PUSH2 0xF1E DUP3 PUSH2 0xEDF JUMP JUMPDEST PUSH1 0x20 DUP3 ADD SWAP1 POP SWAP2 SWAP1 POP JUMP JUMPDEST PUSH0 PUSH1 0x20 DUP3 ADD SWAP1 POP DUP2 DUP2 SUB PUSH0 DUP4 ADD MSTORE PUSH2 0xF40 DUP2 PUSH2 0xF07 JUMP JUMPDEST SWAP1 POP SWAP2 SWAP1 POP JUMP JUMPDEST PUSH32 0x4E6F20686179206F6665727461207265616C697A616461000000000000000000 PUSH0 DUP3 ADD MSTORE POP JUMP JUMPDEST PUSH0 PUSH2 0xF7B PUSH1 0x17 DUP4 PUSH2 0xBF1 JUMP JUMPDEST SWAP2 POP PUSH2 0xF86 DUP3 PUSH2 0xF47 JUMP JUMPDEST PUSH1 0x20 DUP3 ADD SWAP1 POP SWAP2 SWAP1 POP JUMP JUMPDEST PUSH0 PUSH1 0x20 DUP3 ADD SWAP1 POP DUP2 DUP2 SUB PUSH0 DUP4 ADD MSTORE PUSH2 0xFA8 DUP2 PUSH2 0xF6F JUMP JUMPDEST SWAP1 POP SWAP2 SWAP1 POP JUMP JUMPDEST PUSH32 0x4E487B7100000000000000000000000000000000000000000000000000000000 PUSH0 MSTORE PUSH1 0x32 PUSH1 0x4 MSTORE PUSH1 0x24 PUSH0 REVERT JUMPDEST PUSH32 0x4E487B7100000000000000000000000000000000000000000000000000000000 PUSH0 MSTORE PUSH1 0x31 PUSH1 0x4 MSTORE PUSH1 0x24 PUSH0 REVERT JUMPDEST PUSH0 DUP2 SWAP1 POP SWAP3 SWAP2 POP POP JUMP JUMPDEST POP JUMP JUMPDEST PUSH0 PUSH2 0x1021 PUSH0 DUP4 PUSH2 0x1009 JUMP JUMPDEST SWAP2 POP PUSH2 0x102C DUP3 PUSH2 0x1013 JUMP JUMPDEST PUSH0 DUP3 ADD SWAP1 POP SWAP2 SWAP1 POP JUMP JUMPDEST PUSH0 PUSH2 0x1040 DUP3 PUSH2 0x1016 JUMP JUMPDEST SWAP2 POP DUP2 SWAP1 POP SWAP2 SWAP1 POP JUMP JUMPDEST PUSH32 0x526566756E642066616C6C69646F000000000000000000000000000000000000 PUSH0 DUP3 ADD MSTORE POP JUMP JUMPDEST PUSH0 PUSH2 0x107E PUSH1 0xE DUP4 PUSH2 0xBF1 JUMP JUMPDEST SWAP2 POP PUSH2 0x1089 DUP3 PUSH2 0x104A JUMP JUMPDEST PUSH1 0x20 DUP3 ADD SWAP1 POP SWAP2 SWAP1 POP JUMP JUMPDEST PUSH0 PUSH1 0x20 DUP3 ADD SWAP1 POP DUP2 DUP2 SUB PUSH0 DUP4 ADD MSTORE PUSH2 0x10AB DUP2 PUSH2 0x1072 JUMP JUMPDEST SWAP1 POP SWAP2 SWAP1 POP JUMP JUMPDEST PUSH32 0x4E487B7100000000000000000000000000000000000000000000000000000000 PUSH0 MSTORE PUSH1 0x41 PUSH1 0x4 MSTORE PUSH1 0x24 PUSH0 REVERT JUMPDEST PUSH32 0x436F6E747261746F206E6F2066696E616C697A61646F00000000000000000000 PUSH0 DUP3 ADD MSTORE POP JUMP JUMPDEST PUSH0 PUSH2 0x1113 PUSH1 0x16 DUP4 PUSH2 0xBF1 JUMP JUMPDEST SWAP2 POP PUSH2 0x111E DUP3 PUSH2 0x10DF JUMP JUMPDEST PUSH1 0x20 DUP3 ADD SWAP1 POP SWAP2 SWAP1 POP JUMP JUMPDEST PUSH0 PUSH1 0x20 DUP3 ADD SWAP1 POP DUP2 DUP2 SUB PUSH0 DUP4 ADD MSTORE PUSH2 0x1140 DUP2 PUSH2 0x1107 JUMP JUMPDEST SWAP1 POP SWAP2 SWAP1 POP JUMP INVALID LOG2 PUSH5 0x6970667358 0x22 SLT KECCAK256 0x2C CALLF 0x9D34 0x27 PUSH20 0x7FEDCAC5AA172985401AFCFBA97805A0C07B10D7 0xB9 ADDRESS CALLVALUE 0xE9 SWAP13 DUP1 PUSH5 0x736F6C6343 STOP ADDMOD 0x1E STOP CALLER "
				},
				"gasEstimates": {
					"creation": {
						"codeDepositCost": "895400",
						"executionCost": "infinite",
						"totalCost": "infinite"
					},
					"external": {
						"bid()": "infinite",
						"claim()": "infinite",
						"getAllBids()": "infinite",
						"getWinnerBid()": "7096"
					}
				},
				"methodIdentifiers": {
					"bid()": "1998aeef",
					"claim()": "4e71d92d",
					"getAllBids()": "8d0f6da3",
					"getWinnerBid()": "ceb98f6e"
				}
			},
			"storageLayout": {
				"storage": [
					{
						"astId": 4,
						"contract": "Auction.sol:Auction",
						"label": "owner",
						"offset": 0,
						"slot": "0",
						"type": "t_address"
					},
					{
						"astId": 6,
						"contract": "Auction.sol:Auction",
						"label": "startDate",
						"offset": 0,
						"slot": "1",
						"type": "t_uint256"
					},
					{
						"astId": 8,
						"contract": "Auction.sol:Auction",
						"label": "endDate",
						"offset": 0,
						"slot": "2",
						"type": "t_uint256"
					},
					{
						"astId": 10,
						"contract": "Auction.sol:Auction",
						"label": "duration",
						"offset": 0,
						"slot": "3",
						"type": "t_uint256"
					},
					{
						"astId": 12,
						"contract": "Auction.sol:Auction",
						"label": "winnerBidder",
						"offset": 0,
						"slot": "4",
						"type": "t_address"
					},
					{
						"astId": 14,
						"contract": "Auction.sol:Auction",
						"label": "winnerBid",
						"offset": 0,
						"slot": "5",
						"type": "t_uint256"
					},
					{
						"astId": 16,
						"contract": "Auction.sol:Auction",
						"label": "increment",
						"offset": 0,
						"slot": "6",
						"type": "t_uint256"
					},
					{
						"astId": 25,
						"contract": "Auction.sol:Auction",
						"label": "bids",
						"offset": 0,
						"slot": "7",
						"type": "t_mapping(t_address,t_uint256)"
					},
					{
						"astId": 28,
						"contract": "Auction.sol:Auction",
						"label": "bidders",
						"offset": 0,
						"slot": "8",
						"type": "t_array(t_address)dyn_storage"
					}
				],
				"types": {
					"t_address": {
						"encoding": "inplace",
						"label": "address",
						"numberOfBytes": "20"
					},
					"t_array(t_address)dyn_storage": {
						"base": "t_address",
						"encoding": "dynamic_array",
						"label": "address[]",
						"numberOfBytes": "32"
					},
					"t_mapping(t_address,t_uint256)": {
						"encoding": "mapping",
						"key": "t_address",
						"label": "mapping(address => uint256)",
						"numberOfBytes": "32",
						"value": "t_uint256"
					},
					"t_uint256": {
						"encoding": "inplace",
						"label": "uint256",
						"numberOfBytes": "32"
					}
				}
			},
			"userdoc": {
				"events": {
					"AuctionExtended(address,uint256,uint256)": {
						"notice": "Finalización de la subasta extendida."
					},
					"AuctionFinnished(address,uint256)": {
						"notice": "Se emite cuando la subasta ha finalizado."
					},
					"NewBid(address,uint256)": {
						"notice": "Se emite cuando se realiza una nueva puja válida."
					},
					"Refund(address,uint256)": {
						"notice": "Reclamo de fondos"
					}
				},
				"kind": "user",
				"methods": {
					"bid()": {
						"notice": "Permite hacer una nueva puja si cumple las reglas de la subasta"
					},
					"claim()": {
						"notice": "Reclama el dinero ofertado menos 2% de gas"
					},
					"getAllBids()": {
						"notice": "Devuelve todas las pujas realizadas en formato estructurado"
					},
					"getWinnerBid()": {
						"notice": "Devuelve el ganador de la subasta y su puja"
					}
				},
				"notice": "Este contrato permite ofertar en subastas.",
				"version": 1
			}
		}
	}
}