{
	"Auction.sol": {
		"Auction": {
			"abi": [
				{
					"inputs": [],
					"stateMutability": "nonpayable",
					"type": "constructor"
				},
				{
					"anonymous": false,
					"inputs": [
						{
							"indexed": true,
							"internalType": "address",
							"name": "bidder",
							"type": "address"
						},
						{
							"indexed": false,
							"internalType": "uint256",
							"name": "newEndTime",
							"type": "uint256"
						},
						{
							"indexed": false,
							"internalType": "uint256",
							"name": "bidAmount",
							"type": "uint256"
						}
					],
					"name": "AuctionExtended",
					"type": "event"
				},
				{
					"anonymous": false,
					"inputs": [
						{
							"indexed": true,
							"internalType": "address",
							"name": "winnerBidder",
							"type": "address"
						},
						{
							"indexed": false,
							"internalType": "uint256",
							"name": "winnerBid",
							"type": "uint256"
						}
					],
					"name": "AuctionFinished",
					"type": "event"
				},
				{
					"anonymous": false,
					"inputs": [
						{
							"indexed": true,
							"internalType": "address",
							"name": "bidder",
							"type": "address"
						},
						{
							"indexed": false,
							"internalType": "uint256",
							"name": "value",
							"type": "uint256"
						}
					],
					"name": "NewBid",
					"type": "event"
				},
				{
					"anonymous": false,
					"inputs": [
						{
							"indexed": true,
							"internalType": "address",
							"name": "bidder",
							"type": "address"
						},
						{
							"indexed": false,
							"internalType": "uint256",
							"name": "refundAmount",
							"type": "uint256"
						}
					],
					"name": "PartialRefund",
					"type": "event"
				},
				{
					"anonymous": false,
					"inputs": [
						{
							"indexed": true,
							"internalType": "address",
							"name": "bidder",
							"type": "address"
						},
						{
							"indexed": false,
							"internalType": "uint256",
							"name": "claimedAmount",
							"type": "uint256"
						}
					],
					"name": "Refund",
					"type": "event"
				},
				{
					"inputs": [],
					"name": "bid",
					"outputs": [],
					"stateMutability": "payable",
					"type": "function"
				},
				{
					"inputs": [],
					"name": "claim",
					"outputs": [],
					"stateMutability": "nonpayable",
					"type": "function"
				},
				{
					"inputs": [],
					"name": "duration",
					"outputs": [
						{
							"internalType": "uint256",
							"name": "",
							"type": "uint256"
						}
					],
					"stateMutability": "view",
					"type": "function"
				},
				{
					"inputs": [],
					"name": "endDate",
					"outputs": [
						{
							"internalType": "uint256",
							"name": "",
							"type": "uint256"
						}
					],
					"stateMutability": "view",
					"type": "function"
				},
				{
					"inputs": [],
					"name": "extension",
					"outputs": [
						{
							"internalType": "uint256",
							"name": "",
							"type": "uint256"
						}
					],
					"stateMutability": "view",
					"type": "function"
				},
				{
					"inputs": [],
					"name": "finalize",
					"outputs": [],
					"stateMutability": "nonpayable",
					"type": "function"
				},
				{
					"inputs": [],
					"name": "finalized",
					"outputs": [
						{
							"internalType": "bool",
							"name": "",
							"type": "bool"
						}
					],
					"stateMutability": "view",
					"type": "function"
				},
				{
					"inputs": [],
					"name": "gasFee",
					"outputs": [
						{
							"internalType": "uint256",
							"name": "",
							"type": "uint256"
						}
					],
					"stateMutability": "view",
					"type": "function"
				},
				{
					"inputs": [],
					"name": "getAllBids",
					"outputs": [
						{
							"components": [
								{
									"internalType": "address",
									"name": "bidder",
									"type": "address"
								},
								{
									"internalType": "uint256",
									"name": "amount",
									"type": "uint256"
								}
							],
							"internalType": "struct Auction.Bid[]",
							"name": "",
							"type": "tuple[]"
						}
					],
					"stateMutability": "view",
					"type": "function"
				},
				{
					"inputs": [],
					"name": "getTimeLeft",
					"outputs": [
						{
							"internalType": "uint256",
							"name": "",
							"type": "uint256"
						}
					],
					"stateMutability": "view",
					"type": "function"
				},
				{
					"inputs": [],
					"name": "getWinnerBid",
					"outputs": [
						{
							"components": [
								{
									"internalType": "address",
									"name": "bidder",
									"type": "address"
								},
								{
									"internalType": "uint256",
									"name": "amount",
									"type": "uint256"
								}
							],
							"internalType": "struct Auction.Bid",
							"name": "",
							"type": "tuple"
						}
					],
					"stateMutability": "view",
					"type": "function"
				},
				{
					"inputs": [],
					"name": "increment",
					"outputs": [
						{
							"internalType": "uint256",
							"name": "",
							"type": "uint256"
						}
					],
					"stateMutability": "view",
					"type": "function"
				},
				{
					"inputs": [],
					"name": "owner",
					"outputs": [
						{
							"internalType": "address",
							"name": "",
							"type": "address"
						}
					],
					"stateMutability": "view",
					"type": "function"
				},
				{
					"inputs": [],
					"name": "startDate",
					"outputs": [
						{
							"internalType": "uint256",
							"name": "",
							"type": "uint256"
						}
					],
					"stateMutability": "view",
					"type": "function"
				},
				{
					"inputs": [],
					"name": "withdrawRemaining",
					"outputs": [],
					"stateMutability": "nonpayable",
					"type": "function"
				}
			],
			"devdoc": {
				"author": "Fernando Malaspina",
				"details": "Las reglas de la subasta son las siguientes: - No se admiten pujas inferiores a un 5% mayores a la ultima puja. - El precio base de la subasta es 1 ether. - La duración estipulada es de 1 hora. - El plazo de la subasta se extiende en 10 minutos con cada nueva oferta válida.  Esta regla aplica siempre a partir de 10 minutos antes del plazo original de la subasta.  De esta manera los competidores tienen suficiente tiempo para presentar una nueva oferta si así lo desean.",
				"events": {
					"AuctionExtended(address,uint256,uint256)": {
						"params": {
							"bidAmount": "Valor de la puja",
							"bidder": "Dirección del ofertante",
							"newEndTime": "Nueva fecha de fin de subasta"
						}
					},
					"AuctionFinished(address,uint256)": {
						"params": {
							"winnerBid": "Valor de la puja en wei",
							"winnerBidder": "Dirección del usuario que ganó la subasta"
						}
					},
					"NewBid(address,uint256)": {
						"params": {
							"bidder": "Dirección del usuario que hizo la puja",
							"value": "Valor de la puja en wei"
						}
					},
					"PartialRefund(address,uint256)": {
						"params": {
							"bidder": "Dirección del ofertante",
							"refundAmount": "Valor por sobre la puja menos 2% de gas"
						}
					},
					"Refund(address,uint256)": {
						"params": {
							"bidder": "Dirección del ofertante",
							"claimedAmount": "Valor de la puja menos 2% de gas"
						}
					}
				},
				"kind": "dev",
				"methods": {
					"bid()": {
						"details": "Lanza error si no supera el 5% o si ya es el ofertante ganador"
					},
					"finalize()": {
						"details": "Deberia tener modifier onlyOwner, pero se deja sin para que los profes puedan probar la finalizacion"
					},
					"getAllBids()": {
						"returns": {
							"_0": "Bid[] Una lista de structs con el address del postor y su puja"
						}
					},
					"getTimeLeft()": {
						"returns": {
							"_0": "uint256 timeLeft"
						}
					},
					"getWinnerBid()": {
						"returns": {
							"_0": "Struct Bid con address y valor ofertado"
						}
					}
				},
				"title": "Subasta pública",
				"version": 1
			},
			"evm": {
				"assembly": "    /* \"Auction.sol\":680:7378  contract Auction {... */\n  mstore(0x40, 0x0140)\n    /* \"Auction.sol\":1228:1519  constructor() {... */\n  callvalue\n  dup1\n  iszero\n  tag_1\n  jumpi\n  revert(0x00, 0x00)\ntag_1:\n  pop\n    /* \"Auction.sol\":1260:1270  msg.sender */\n  caller\n    /* \"Auction.sol\":1252:1270  owner = msg.sender */\n  0xffffffffffffffffffffffffffffffffffffffff\n  and\n  0x80\n  dup2\n  0xffffffffffffffffffffffffffffffffffffffff\n  and\n  dup2\n  mstore\n  pop\n  pop\n    /* \"Auction.sol\":1292:1307  block.timestamp */\n  timestamp\n    /* \"Auction.sol\":1280:1307  startDate = block.timestamp */\n  0xa0\n  dup2\n  dup2\n  mstore\n  pop\n  pop\n    /* \"Auction.sol\":1328:1338  15 minutes */\n  0x0384\n    /* \"Auction.sol\":1317:1338  duration = 15 minutes */\n  0xc0\n  dup2\n  dup2\n  mstore\n  pop\n  pop\n    /* \"Auction.sol\":1370:1378  duration */\n  mload(0xc0)\n    /* \"Auction.sol\":1358:1367  startDate */\n  mload(0xa0)\n    /* \"Auction.sol\":1358:1378  startDate + duration */\n  tag_4\n  swap2\n  swap1\n  tag_5\n  jump\t// in\ntag_4:\n    /* \"Auction.sol\":1348:1355  endDate */\n  0x00\n    /* \"Auction.sol\":1348:1378  endDate = startDate + duration */\n  dup2\n  swap1\n  sstore\n  pop\n    /* \"Auction.sol\":1400:1410  0.95 ether */\n  0x0d2f13f7789f0000\n    /* \"Auction.sol\":1388:1397  winnerBid */\n  0x02\n    /* \"Auction.sol\":1388:1410  winnerBid = 0.95 ether */\n  dup2\n  swap1\n  sstore\n  pop\n    /* \"Auction.sol\":1432:1433  5 */\n  0x05\n    /* \"Auction.sol\":1420:1433  increment = 5 */\n  0xe0\n  dup2\n  dup2\n  mstore\n  pop\n  pop\n    /* \"Auction.sol\":1455:1460  false */\n  0x00\n    /* \"Auction.sol\":1443:1452  finalized */\n  0x04\n  0x00\n    /* \"Auction.sol\":1443:1460  finalized = false */\n  0x0100\n  exp\n  dup2\n  sload\n  dup2\n  0xff\n  mul\n  not\n  and\n  swap1\n  dup4\n  iszero\n  iszero\n  mul\n  or\n  swap1\n  sstore\n  pop\n    /* \"Auction.sol\":1482:1492  10 minutes */\n  0x0258\n    /* \"Auction.sol\":1470:1492  extension = 10 minutes */\n  0x0100\n  dup2\n  dup2\n  mstore\n  pop\n  pop\n    /* \"Auction.sol\":1511:1512  2 */\n  0x02\n    /* \"Auction.sol\":1502:1512  gasFee = 2 */\n  0x0120\n  dup2\n  dup2\n  mstore\n  pop\n  pop\n    /* \"Auction.sol\":680:7378  contract Auction {... */\n  jump(tag_6)\n    /* \"#utility.yul\":7:84   */\ntag_7:\n    /* \"#utility.yul\":44:51   */\n  0x00\n    /* \"#utility.yul\":73:78   */\n  dup2\n    /* \"#utility.yul\":62:78   */\n  swap1\n  pop\n    /* \"#utility.yul\":7:84   */\n  swap2\n  swap1\n  pop\n  jump\t// out\n    /* \"#utility.yul\":90:270   */\ntag_8:\n    /* \"#utility.yul\":138:215   */\n  0x4e487b7100000000000000000000000000000000000000000000000000000000\n    /* \"#utility.yul\":135:136   */\n  0x00\n    /* \"#utility.yul\":128:216   */\n  mstore\n    /* \"#utility.yul\":235:239   */\n  0x11\n    /* \"#utility.yul\":232:233   */\n  0x04\n    /* \"#utility.yul\":225:240   */\n  mstore\n    /* \"#utility.yul\":259:263   */\n  0x24\n    /* \"#utility.yul\":256:257   */\n  0x00\n    /* \"#utility.yul\":249:264   */\n  revert\n    /* \"#utility.yul\":276:467   */\ntag_5:\n    /* \"#utility.yul\":316:319   */\n  0x00\n    /* \"#utility.yul\":335:355   */\n  tag_13\n    /* \"#utility.yul\":353:354   */\n  dup3\n    /* \"#utility.yul\":335:355   */\n  tag_7\n  jump\t// in\ntag_13:\n    /* \"#utility.yul\":330:355   */\n  swap2\n  pop\n    /* \"#utility.yul\":369:389   */\n  tag_14\n    /* \"#utility.yul\":387:388   */\n  dup4\n    /* \"#utility.yul\":369:389   */\n  tag_7\n  jump\t// in\ntag_14:\n    /* \"#utility.yul\":364:389   */\n  swap3\n  pop\n    /* \"#utility.yul\":412:413   */\n  dup3\n    /* \"#utility.yul\":409:410   */\n  dup3\n    /* \"#utility.yul\":405:414   */\n  add\n    /* \"#utility.yul\":398:414   */\n  swap1\n  pop\n    /* \"#utility.yul\":433:436   */\n  dup1\n    /* \"#utility.yul\":430:431   */\n  dup3\n    /* \"#utility.yul\":427:437   */\n  gt\n    /* \"#utility.yul\":424:460   */\n  iszero\n  tag_15\n  jumpi\n    /* \"#utility.yul\":440:458   */\n  tag_16\n  tag_8\n  jump\t// in\ntag_16:\n    /* \"#utility.yul\":424:460   */\ntag_15:\n    /* \"#utility.yul\":276:467   */\n  swap3\n  swap2\n  pop\n  pop\n  jump\t// out\n    /* \"Auction.sol\":680:7378  contract Auction {... */\ntag_6:\n  mload(0x80)\n  mload(0xa0)\n  mload(0xc0)\n  mload(0xe0)\n  mload(0x0100)\n  mload(0x0120)\n  codecopy(0x00, dataOffset(sub_0), dataSize(sub_0))\n  0x00\n  assignImmutable(\"0x731dc163f73d31d8c68f9917ce4ff967753939f70432973c04fd2c2a48148607\")\n  0x00\n  assignImmutable(\"0x8fef2229291b68be841adf029e58b87f39ba144b2d3b0af1760243d0a9bc6a1c\")\n  0x00\n  assignImmutable(\"0x277ab82e5a4641341820a4a2933a62c1de997e42e92548657ae21b3728d580fe\")\n  0x00\n  assignImmutable(\"0x1a192fabce13988b84994d4296e6cdc418d55e2f1d7f942188d4040b94fc57ac\")\n  0x00\n  assignImmutable(\"0xe455bf8ea6e7463a1046a0b52804526e119b4bf5136279614e0b1e8e296a4e2d\")\n  0x00\n  assignImmutable(\"0x13600b294191fc92924bb3ce4b969c1e7e2bab8f4c93c3fc6d0a51733df3c060\")\n  return(0x00, dataSize(sub_0))\nstop\n\nsub_0: assembly {\n        /* \"Auction.sol\":680:7378  contract Auction {... */\n      mstore(0x40, 0x80)\n      jumpi(tag_1, lt(calldatasize, 0x04))\n      shr(0xe0, calldataload(0x00))\n      dup1\n      0x8d0f6da3\n      gt\n      tag_17\n      jumpi\n      dup1\n      0xc7e284b8\n      gt\n      tag_18\n      jumpi\n      dup1\n      0xc7e284b8\n      eq\n      tag_13\n      jumpi\n      dup1\n      0xceb98f6e\n      eq\n      tag_14\n      jumpi\n      dup1\n      0xd09de08a\n      eq\n      tag_15\n      jumpi\n      dup1\n      0xee38db95\n      eq\n      tag_16\n      jumpi\n      jump(tag_1)\n    tag_18:\n      dup1\n      0x8d0f6da3\n      eq\n      tag_9\n      jumpi\n      dup1\n      0x8da5cb5b\n      eq\n      tag_10\n      jumpi\n      dup1\n      0xb3f05b97\n      eq\n      tag_11\n      jumpi\n      dup1\n      0xc24a0f8b\n      eq\n      tag_12\n      jumpi\n      jump(tag_1)\n    tag_17:\n      dup1\n      0x2d5537b0\n      gt\n      tag_19\n      jumpi\n      dup1\n      0x2d5537b0\n      eq\n      tag_5\n      jumpi\n      dup1\n      0x4bb278f3\n      eq\n      tag_6\n      jumpi\n      dup1\n      0x4e71d92d\n      eq\n      tag_7\n      jumpi\n      dup1\n      0x658612e9\n      eq\n      tag_8\n      jumpi\n      jump(tag_1)\n    tag_19:\n      dup1\n      0x0b97bc86\n      eq\n      tag_2\n      jumpi\n      dup1\n      0x0fb5a6b4\n      eq\n      tag_3\n      jumpi\n      dup1\n      0x1998aeef\n      eq\n      tag_4\n      jumpi\n    tag_1:\n      revert(0x00, 0x00)\n        /* \"Auction.sol\":739:773  uint256 public immutable startDate */\n    tag_2:\n      callvalue\n      dup1\n      iszero\n      tag_20\n      jumpi\n      revert(0x00, 0x00)\n    tag_20:\n      pop\n      tag_21\n      tag_22\n      jump\t// in\n    tag_21:\n      mload(0x40)\n      tag_23\n      swap2\n      swap1\n      tag_24\n      jump\t// in\n    tag_23:\n      mload(0x40)\n      dup1\n      swap2\n      sub\n      swap1\n      return\n        /* \"Auction.sol\":807:840  uint256 public immutable duration */\n    tag_3:\n      callvalue\n      dup1\n      iszero\n      tag_25\n      jumpi\n      revert(0x00, 0x00)\n    tag_25:\n      pop\n      tag_26\n      tag_27\n      jump\t// in\n    tag_26:\n      mload(0x40)\n      tag_28\n      swap2\n      swap1\n      tag_24\n      jump\t// in\n    tag_28:\n      mload(0x40)\n      dup1\n      swap2\n      sub\n      swap1\n      return\n        /* \"Auction.sol\":3966:4861  function bid() nonReentrant onlyStillActive onlyGreaterBid onlyOtherThanWinnerBidder external payable  {... */\n    tag_4:\n      tag_29\n      tag_30\n      jump\t// in\n    tag_29:\n      stop\n        /* \"Auction.sol\":951:985  uint256 public immutable extension */\n    tag_5:\n      callvalue\n      dup1\n      iszero\n      tag_31\n      jumpi\n      revert(0x00, 0x00)\n    tag_31:\n      pop\n      tag_32\n      tag_33\n      jump\t// in\n    tag_32:\n      mload(0x40)\n      tag_34\n      swap2\n      swap1\n      tag_24\n      jump\t// in\n    tag_34:\n      mload(0x40)\n      dup1\n      swap2\n      sub\n      swap1\n      return\n        /* \"Auction.sol\":6085:6269  function finalize() external onlyOwner onlyFinished onlyNotFinalized nonReentrant {... */\n    tag_6:\n      callvalue\n      dup1\n      iszero\n      tag_35\n      jumpi\n      revert(0x00, 0x00)\n    tag_35:\n      pop\n      tag_36\n      tag_37\n      jump\t// in\n    tag_36:\n      stop\n        /* \"Auction.sol\":6334:7067  function claim() external nonReentrant onlyFinished onlyOtherThanWinnerBidder {        ... */\n    tag_7:\n      callvalue\n      dup1\n      iszero\n      tag_38\n      jumpi\n      revert(0x00, 0x00)\n    tag_38:\n      pop\n      tag_39\n      tag_40\n      jump\t// in\n    tag_39:\n      stop\n        /* \"Auction.sol\":991:1022  uint256 public immutable gasFee */\n    tag_8:\n      callvalue\n      dup1\n      iszero\n      tag_41\n      jumpi\n      revert(0x00, 0x00)\n    tag_41:\n      pop\n      tag_42\n      tag_43\n      jump\t// in\n    tag_42:\n      mload(0x40)\n      tag_44\n      swap2\n      swap1\n      tag_24\n      jump\t// in\n    tag_44:\n      mload(0x40)\n      dup1\n      swap2\n      sub\n      swap1\n      return\n        /* \"Auction.sol\":5031:5383  function getAllBids() external view returns (Bid[] memory) {... */\n    tag_9:\n      callvalue\n      dup1\n      iszero\n      tag_45\n      jumpi\n      revert(0x00, 0x00)\n    tag_45:\n      pop\n      tag_46\n      tag_47\n      jump\t// in\n    tag_46:\n      mload(0x40)\n      tag_48\n      swap2\n      swap1\n      tag_49\n      jump\t// in\n    tag_48:\n      mload(0x40)\n      dup1\n      swap2\n      sub\n      swap1\n      return\n        /* \"Auction.sol\":703:733  address public immutable owner */\n    tag_10:\n      callvalue\n      dup1\n      iszero\n      tag_50\n      jumpi\n      revert(0x00, 0x00)\n    tag_50:\n      pop\n      tag_51\n      tag_52\n      jump\t// in\n    tag_51:\n      mload(0x40)\n      tag_53\n      swap2\n      swap1\n      tag_54\n      jump\t// in\n    tag_53:\n      mload(0x40)\n      dup1\n      swap2\n      sub\n      swap1\n      return\n        /* \"Auction.sol\":1145:1166  bool public finalized */\n    tag_11:\n      callvalue\n      dup1\n      iszero\n      tag_55\n      jumpi\n      revert(0x00, 0x00)\n    tag_55:\n      pop\n      tag_56\n      tag_57\n      jump\t// in\n    tag_56:\n      mload(0x40)\n      tag_58\n      swap2\n      swap1\n      tag_59\n      jump\t// in\n    tag_58:\n      mload(0x40)\n      dup1\n      swap2\n      sub\n      swap1\n      return\n        /* \"Auction.sol\":779:801  uint256 public endDate */\n    tag_12:\n      callvalue\n      dup1\n      iszero\n      tag_60\n      jumpi\n      revert(0x00, 0x00)\n    tag_60:\n      pop\n      tag_61\n      tag_62\n      jump\t// in\n    tag_61:\n      mload(0x40)\n      tag_63\n      swap2\n      swap1\n      tag_24\n      jump\t// in\n    tag_63:\n      mload(0x40)\n      dup1\n      swap2\n      sub\n      swap1\n      return\n        /* \"Auction.sol\":5485:5682  function getTimeLeft() external view returns (uint256) {... */\n    tag_13:\n      callvalue\n      dup1\n      iszero\n      tag_64\n      jumpi\n      revert(0x00, 0x00)\n    tag_64:\n      pop\n      tag_65\n      tag_66\n      jump\t// in\n    tag_65:\n      mload(0x40)\n      tag_67\n      swap2\n      swap1\n      tag_24\n      jump\t// in\n    tag_67:\n      mload(0x40)\n      dup1\n      swap2\n      sub\n      swap1\n      return\n        /* \"Auction.sol\":5828:5965  function getWinnerBid() external view returns (Bid memory) {... */\n    tag_14:\n      callvalue\n      dup1\n      iszero\n      tag_68\n      jumpi\n      revert(0x00, 0x00)\n    tag_68:\n      pop\n      tag_69\n      tag_70\n      jump\t// in\n    tag_69:\n      mload(0x40)\n      tag_71\n      swap2\n      swap1\n      tag_72\n      jump\t// in\n    tag_71:\n      mload(0x40)\n      dup1\n      swap2\n      sub\n      swap1\n      return\n        /* \"Auction.sol\":911:945  uint256 public immutable increment */\n    tag_15:\n      callvalue\n      dup1\n      iszero\n      tag_73\n      jumpi\n      revert(0x00, 0x00)\n    tag_73:\n      pop\n      tag_74\n      tag_75\n      jump\t// in\n    tag_74:\n      mload(0x40)\n      tag_76\n      swap2\n      swap1\n      tag_24\n      jump\t// in\n    tag_76:\n      mload(0x40)\n      dup1\n      swap2\n      sub\n      swap1\n      return\n        /* \"Auction.sol\":7073:7376  function withdrawRemaining() external onlyOwner onlyFinalized {... */\n    tag_16:\n      callvalue\n      dup1\n      iszero\n      tag_77\n      jumpi\n      revert(0x00, 0x00)\n    tag_77:\n      pop\n      tag_78\n      tag_79\n      jump\t// in\n    tag_78:\n      stop\n        /* \"Auction.sol\":739:773  uint256 public immutable startDate */\n    tag_22:\n      immutable(\"0xe455bf8ea6e7463a1046a0b52804526e119b4bf5136279614e0b1e8e296a4e2d\")\n      dup2\n      jump\t// out\n        /* \"Auction.sol\":807:840  uint256 public immutable duration */\n    tag_27:\n      immutable(\"0x1a192fabce13988b84994d4296e6cdc418d55e2f1d7f942188d4040b94fc57ac\")\n      dup2\n      jump\t// out\n        /* \"Auction.sol\":3966:4861  function bid() nonReentrant onlyStillActive onlyGreaterBid onlyOtherThanWinnerBidder external payable  {... */\n    tag_30:\n        /* \"Auction.sol\":3035:3041  locked */\n      0x06\n      0x00\n      swap1\n      sload\n      swap1\n      0x0100\n      exp\n      swap1\n      div\n      0xff\n      and\n        /* \"Auction.sol\":3034:3041  !locked */\n      iszero\n        /* \"Auction.sol\":3026:3053  require(!locked, \"reentr.\") */\n      tag_81\n      jumpi\n      mload(0x40)\n      0x08c379a000000000000000000000000000000000000000000000000000000000\n      dup2\n      mstore\n      0x04\n      add\n      tag_82\n      swap1\n      tag_83\n      jump\t// in\n    tag_82:\n      mload(0x40)\n      dup1\n      swap2\n      sub\n      swap1\n      revert\n    tag_81:\n        /* \"Auction.sol\":3073:3077  true */\n      0x01\n        /* \"Auction.sol\":3064:3070  locked */\n      0x06\n      0x00\n        /* \"Auction.sol\":3064:3077  locked = true */\n      0x0100\n      exp\n      dup2\n      sload\n      dup2\n      0xff\n      mul\n      not\n      and\n      swap1\n      dup4\n      iszero\n      iszero\n      mul\n      or\n      swap1\n      sstore\n      pop\n        /* \"Auction.sol\":3191:3198  endDate */\n      sload(0x00)\n        /* \"Auction.sol\":3173:3188  block.timestamp */\n      timestamp\n        /* \"Auction.sol\":3173:3198  block.timestamp < endDate */\n      lt\n        /* \"Auction.sol\":3165:3220  require(block.timestamp < endDate, \"Contrato expirado\") */\n      tag_85\n      jumpi\n      mload(0x40)\n      0x08c379a000000000000000000000000000000000000000000000000000000000\n      dup2\n      mstore\n      0x04\n      add\n      tag_86\n      swap1\n      tag_87\n      jump\t// in\n    tag_86:\n      mload(0x40)\n      dup1\n      swap2\n      sub\n      swap1\n      revert\n    tag_85:\n        /* \"Auction.sol\":3726:3729  100 */\n      0x64\n        /* \"Auction.sol\":3718:3721  100 */\n      dup1\n        /* \"Auction.sol\":3708:3717  increment */\n      immutable(\"0x277ab82e5a4641341820a4a2933a62c1de997e42e92548657ae21b3728d580fe\")\n        /* \"Auction.sol\":3708:3721  increment+100 */\n      tag_89\n      swap2\n      swap1\n      tag_90\n      jump\t// in\n    tag_89:\n        /* \"Auction.sol\":3695:3704  winnerBid */\n      sload(0x02)\n        /* \"Auction.sol\":3695:3722  winnerBid * (increment+100) */\n      tag_91\n      swap2\n      swap1\n      tag_92\n      jump\t// in\n    tag_91:\n        /* \"Auction.sol\":3694:3729  (winnerBid * (increment+100)) / 100 */\n      tag_93\n      swap2\n      swap1\n      tag_94\n      jump\t// in\n    tag_93:\n        /* \"Auction.sol\":3682:3691  msg.value */\n      callvalue\n        /* \"Auction.sol\":3682:3729  msg.value > (winnerBid * (increment+100)) / 100 */\n      gt\n        /* \"Auction.sol\":3674:3786  require(msg.value > (winnerBid * (increment+100)) / 100, \"Puja con menos de 5% de incremento sobre la ganadora\") */\n      tag_95\n      jumpi\n      mload(0x40)\n      0x08c379a000000000000000000000000000000000000000000000000000000000\n      dup2\n      mstore\n      0x04\n      add\n      tag_96\n      swap1\n      tag_97\n      jump\t// in\n    tag_96:\n      mload(0x40)\n      dup1\n      swap2\n      sub\n      swap1\n      revert\n    tag_95:\n        /* \"Auction.sol\":3569:3581  winnerBidder */\n      0x01\n      0x00\n      swap1\n      sload\n      swap1\n      0x0100\n      exp\n      swap1\n      div\n      0xffffffffffffffffffffffffffffffffffffffff\n      and\n        /* \"Auction.sol\":3555:3581  msg.sender != winnerBidder */\n      0xffffffffffffffffffffffffffffffffffffffff\n      and\n        /* \"Auction.sol\":3555:3565  msg.sender */\n      caller\n        /* \"Auction.sol\":3555:3581  msg.sender != winnerBidder */\n      0xffffffffffffffffffffffffffffffffffffffff\n      and\n      sub\n        /* \"Auction.sol\":3547:3614  require(msg.sender != winnerBidder, \"Usted ya tiene la mejor puja\") */\n      tag_99\n      jumpi\n      mload(0x40)\n      0x08c379a000000000000000000000000000000000000000000000000000000000\n      dup2\n      mstore\n      0x04\n      add\n      tag_100\n      swap1\n      tag_101\n      jump\t// in\n    tag_100:\n      mload(0x40)\n      dup1\n      swap2\n      sub\n      swap1\n      revert\n    tag_99:\n        /* \"Auction.sol\":4091:4101  msg.sender */\n      caller\n        /* \"Auction.sol\":4084:4113  NewBid(msg.sender, msg.value) */\n      0xffffffffffffffffffffffffffffffffffffffff\n      and\n      0xdd0b6c6a77960e2066c96171b4d7ac9e8b4c184011f38544afa36a5bb63ec59f\n        /* \"Auction.sol\":4103:4112  msg.value */\n      callvalue\n        /* \"Auction.sol\":4084:4113  NewBid(msg.sender, msg.value) */\n      mload(0x40)\n      tag_103\n      swap2\n      swap1\n      tag_24\n      jump\t// in\n    tag_103:\n      mload(0x40)\n      dup1\n      swap2\n      sub\n      swap1\n      log2\n        /* \"Auction.sol\":4138:4148  msg.sender */\n      caller\n        /* \"Auction.sol\":4123:4135  winnerBidder */\n      0x01\n      0x00\n        /* \"Auction.sol\":4123:4148  winnerBidder = msg.sender */\n      0x0100\n      exp\n      dup2\n      sload\n      dup2\n      0xffffffffffffffffffffffffffffffffffffffff\n      mul\n      not\n      and\n      swap1\n      dup4\n      0xffffffffffffffffffffffffffffffffffffffff\n      and\n      mul\n      or\n      swap1\n      sstore\n      pop\n        /* \"Auction.sol\":4170:4179  msg.value */\n      callvalue\n        /* \"Auction.sol\":4158:4167  winnerBid */\n      0x02\n        /* \"Auction.sol\":4158:4179  winnerBid = msg.value */\n      dup2\n      swap1\n      sstore\n      pop\n        /* \"Auction.sol\":4213:4214  0 */\n      0x00\n        /* \"Auction.sol\":4193:4197  bids */\n      0x03\n        /* \"Auction.sol\":4193:4209  bids[msg.sender] */\n      0x00\n        /* \"Auction.sol\":4198:4208  msg.sender */\n      caller\n        /* \"Auction.sol\":4193:4209  bids[msg.sender] */\n      0xffffffffffffffffffffffffffffffffffffffff\n      and\n      0xffffffffffffffffffffffffffffffffffffffff\n      and\n      dup2\n      mstore\n      0x20\n      add\n      swap1\n      dup2\n      mstore\n      0x20\n      add\n      0x00\n      keccak256\n      sload\n        /* \"Auction.sol\":4193:4214  bids[msg.sender] == 0 */\n      sub\n        /* \"Auction.sol\":4189:4304  if (bids[msg.sender] == 0) {... */\n      tag_104\n      jumpi\n        /* \"Auction.sol\":4230:4237  bidders */\n      0x05\n        /* \"Auction.sol\":4243:4253  msg.sender */\n      caller\n        /* \"Auction.sol\":4230:4254  bidders.push(msg.sender) */\n      swap1\n      dup1\n      0x01\n      dup2\n      sload\n      add\n      dup1\n      dup3\n      sstore\n      dup1\n      swap2\n      pop\n      pop\n      0x01\n      swap1\n      sub\n      swap1\n      0x00\n      mstore\n      keccak256(0x00, 0x20)\n      add\n      0x00\n      swap1\n      swap2\n      swap1\n      swap2\n      swap1\n      swap2\n      0x0100\n      exp\n      dup2\n      sload\n      dup2\n      0xffffffffffffffffffffffffffffffffffffffff\n      mul\n      not\n      and\n      swap1\n      dup4\n      0xffffffffffffffffffffffffffffffffffffffff\n      and\n      mul\n      or\n      swap1\n      sstore\n      pop\n        /* \"Auction.sol\":4189:4304  if (bids[msg.sender] == 0) {... */\n    tag_104:\n        /* \"Auction.sol\":4313:4335  uint256 previousAmount */\n      0x00\n        /* \"Auction.sol\":4338:4342  bids */\n      0x03\n        /* \"Auction.sol\":4338:4354  bids[msg.sender] */\n      0x00\n        /* \"Auction.sol\":4343:4353  msg.sender */\n      caller\n        /* \"Auction.sol\":4338:4354  bids[msg.sender] */\n      0xffffffffffffffffffffffffffffffffffffffff\n      and\n      0xffffffffffffffffffffffffffffffffffffffff\n      and\n      dup2\n      mstore\n      0x20\n      add\n      swap1\n      dup2\n      mstore\n      0x20\n      add\n      0x00\n      keccak256\n      sload\n        /* \"Auction.sol\":4313:4354  uint256 previousAmount = bids[msg.sender] */\n      swap1\n      pop\n        /* \"Auction.sol\":4364:4384  uint256 refundAmount */\n      0x00\n        /* \"Auction.sol\":4423:4426  100 */\n      0x64\n        /* \"Auction.sol\":4412:4418  gasFee */\n      immutable(\"0x731dc163f73d31d8c68f9917ce4ff967753939f70432973c04fd2c2a48148607\")\n        /* \"Auction.sol\":4406:4409  100 */\n      0x64\n        /* \"Auction.sol\":4406:4418  100 - gasFee */\n      tag_106\n      swap2\n      swap1\n      tag_107\n      jump\t// in\n    tag_106:\n        /* \"Auction.sol\":4388:4402  previousAmount */\n      dup4\n        /* \"Auction.sol\":4388:4419  previousAmount * (100 - gasFee) */\n      tag_108\n      swap2\n      swap1\n      tag_92\n      jump\t// in\n    tag_108:\n        /* \"Auction.sol\":4387:4426  (previousAmount * (100 - gasFee)) / 100 */\n      tag_109\n      swap2\n      swap1\n      tag_94\n      jump\t// in\n    tag_109:\n        /* \"Auction.sol\":4364:4426  uint256 refundAmount = (previousAmount * (100 - gasFee)) / 100 */\n      swap1\n      pop\n        /* \"Auction.sol\":4455:4464  msg.value */\n      callvalue\n        /* \"Auction.sol\":4436:4440  bids */\n      0x03\n        /* \"Auction.sol\":4436:4452  bids[msg.sender] */\n      0x00\n        /* \"Auction.sol\":4441:4451  msg.sender */\n      caller\n        /* \"Auction.sol\":4436:4452  bids[msg.sender] */\n      0xffffffffffffffffffffffffffffffffffffffff\n      and\n      0xffffffffffffffffffffffffffffffffffffffff\n      and\n      dup2\n      mstore\n      0x20\n      add\n      swap1\n      dup2\n      mstore\n      0x20\n      add\n      0x00\n      keccak256\n        /* \"Auction.sol\":4436:4464  bids[msg.sender] = msg.value */\n      dup2\n      swap1\n      sstore\n      pop\n        /* \"Auction.sol\":4507:4516  extension */\n      immutable(\"0x8fef2229291b68be841adf029e58b87f39ba144b2d3b0af1760243d0a9bc6a1c\")\n        /* \"Auction.sol\":4497:4504  endDate */\n      sload(0x00)\n        /* \"Auction.sol\":4497:4516  endDate - extension */\n      tag_110\n      swap2\n      swap1\n      tag_107\n      jump\t// in\n    tag_110:\n        /* \"Auction.sol\":4478:4493  block.timestamp */\n      timestamp\n        /* \"Auction.sol\":4478:4516  block.timestamp >= endDate - extension */\n      lt\n        /* \"Auction.sol\":4474:4684  if (block.timestamp >= endDate - extension) {... */\n      tag_111\n      jumpi\n        /* \"Auction.sol\":4532:4550  uint256 newEndTime */\n      0x00\n        /* \"Auction.sol\":4563:4572  extension */\n      immutable(\"0x8fef2229291b68be841adf029e58b87f39ba144b2d3b0af1760243d0a9bc6a1c\")\n        /* \"Auction.sol\":4553:4560  endDate */\n      sload(0x00)\n        /* \"Auction.sol\":4553:4572  endDate + extension */\n      tag_112\n      swap2\n      swap1\n      tag_90\n      jump\t// in\n    tag_112:\n        /* \"Auction.sol\":4532:4572  uint256 newEndTime = endDate + extension */\n      swap1\n      pop\n        /* \"Auction.sol\":4596:4606  newEndTime */\n      dup1\n        /* \"Auction.sol\":4586:4593  endDate */\n      0x00\n        /* \"Auction.sol\":4586:4606  endDate = newEndTime */\n      dup2\n      swap1\n      sstore\n      pop\n        /* \"Auction.sol\":4641:4651  msg.sender */\n      caller\n        /* \"Auction.sol\":4625:4673  AuctionExtended(msg.sender,newEndTime,msg.value) */\n      0xffffffffffffffffffffffffffffffffffffffff\n      and\n      0x2241aa88c881d125cce08ef2a8f6bfd221ca46e27736a38f9353622a4303c705\n        /* \"Auction.sol\":4652:4662  newEndTime */\n      dup3\n        /* \"Auction.sol\":4663:4672  msg.value */\n      callvalue\n        /* \"Auction.sol\":4625:4673  AuctionExtended(msg.sender,newEndTime,msg.value) */\n      mload(0x40)\n      tag_113\n      swap3\n      swap2\n      swap1\n      tag_114\n      jump\t// in\n    tag_113:\n      mload(0x40)\n      dup1\n      swap2\n      sub\n      swap1\n      log2\n        /* \"Auction.sol\":4518:4684  {... */\n      pop\n        /* \"Auction.sol\":4474:4684  if (block.timestamp >= endDate - extension) {... */\n    tag_111:\n        /* \"Auction.sol\":4694:4703  bool sent */\n      0x00\n        /* \"Auction.sol\":4717:4727  msg.sender */\n      caller\n        /* \"Auction.sol\":4709:4733  payable(msg.sender).call */\n      0xffffffffffffffffffffffffffffffffffffffff\n      and\n        /* \"Auction.sol\":4741:4753  refundAmount */\n      dup3\n        /* \"Auction.sol\":4709:4758  payable(msg.sender).call{value: refundAmount}(\"\") */\n      mload(0x40)\n      tag_115\n      swap1\n      tag_116\n      jump\t// in\n    tag_115:\n      0x00\n      mload(0x40)\n      dup1\n      dup4\n      sub\n      dup2\n      dup6\n      dup8\n      gas\n      call\n      swap3\n      pop\n      pop\n      pop\n      returndatasize\n      dup1\n      0x00\n      dup2\n      eq\n      tag_119\n      jumpi\n      mload(0x40)\n      swap2\n      pop\n      and(add(returndatasize, 0x3f), not(0x1f))\n      dup3\n      add\n      0x40\n      mstore\n      returndatasize\n      dup3\n      mstore\n      returndatasize\n      0x00\n      0x20\n      dup5\n      add\n      returndatacopy\n      jump(tag_118)\n    tag_119:\n      0x60\n      swap2\n      pop\n    tag_118:\n      pop\n        /* \"Auction.sol\":4693:4758  (bool sent, ) = payable(msg.sender).call{value: refundAmount}(\"\") */\n      pop\n      swap1\n      pop\n        /* \"Auction.sol\":4776:4780  sent */\n      dup1\n        /* \"Auction.sol\":4768:4799  require(sent, \"Refund fallido\") */\n      tag_120\n      jumpi\n      mload(0x40)\n      0x08c379a000000000000000000000000000000000000000000000000000000000\n      dup2\n      mstore\n      0x04\n      add\n      tag_121\n      swap1\n      tag_122\n      jump\t// in\n    tag_121:\n      mload(0x40)\n      dup1\n      swap2\n      sub\n      swap1\n      revert\n    tag_120:\n        /* \"Auction.sol\":4828:4838  msg.sender */\n      caller\n        /* \"Auction.sol\":4814:4853  PartialRefund(msg.sender, refundAmount) */\n      0xffffffffffffffffffffffffffffffffffffffff\n      and\n      0xdce68997783ae47468b6fb0dd39cca315f9082d51d9ab3df8747c70512aa8ff2\n        /* \"Auction.sol\":4840:4852  refundAmount */\n      dup4\n        /* \"Auction.sol\":4814:4853  PartialRefund(msg.sender, refundAmount) */\n      mload(0x40)\n      tag_123\n      swap2\n      swap1\n      tag_24\n      jump\t// in\n    tag_123:\n      mload(0x40)\n      dup1\n      swap2\n      sub\n      swap1\n      log2\n        /* \"Auction.sol\":4069:4861  {... */\n      pop\n      pop\n      pop\n        /* \"Auction.sol\":3109:3114  false */\n      0x00\n        /* \"Auction.sol\":3100:3106  locked */\n      0x06\n      0x00\n        /* \"Auction.sol\":3100:3114  locked = false */\n      0x0100\n      exp\n      dup2\n      sload\n      dup2\n      0xff\n      mul\n      not\n      and\n      swap1\n      dup4\n      iszero\n      iszero\n      mul\n      or\n      swap1\n      sstore\n      pop\n        /* \"Auction.sol\":3966:4861  function bid() nonReentrant onlyStillActive onlyGreaterBid onlyOtherThanWinnerBidder external payable  {... */\n      jump\t// out\n        /* \"Auction.sol\":951:985  uint256 public immutable extension */\n    tag_33:\n      immutable(\"0x8fef2229291b68be841adf029e58b87f39ba144b2d3b0af1760243d0a9bc6a1c\")\n      dup2\n      jump\t// out\n        /* \"Auction.sol\":6085:6269  function finalize() external onlyOwner onlyFinished onlyNotFinalized nonReentrant {... */\n    tag_37:\n        /* \"Auction.sol\":3297:3302  owner */\n      immutable(\"0x13600b294191fc92924bb3ce4b969c1e7e2bab8f4c93c3fc6d0a51733df3c060\")\n        /* \"Auction.sol\":3283:3302  msg.sender == owner */\n      0xffffffffffffffffffffffffffffffffffffffff\n      and\n        /* \"Auction.sol\":3283:3293  msg.sender */\n      caller\n        /* \"Auction.sol\":3283:3302  msg.sender == owner */\n      0xffffffffffffffffffffffffffffffffffffffff\n      and\n      eq\n        /* \"Auction.sol\":3275:3348  require(msg.sender == owner, \"Solo el owner puede finalizar la subasta.\") */\n      tag_125\n      jumpi\n      mload(0x40)\n      0x08c379a000000000000000000000000000000000000000000000000000000000\n      dup2\n      mstore\n      0x04\n      add\n      tag_126\n      swap1\n      tag_127\n      jump\t// in\n    tag_126:\n      mload(0x40)\n      dup1\n      swap2\n      sub\n      swap1\n      revert\n    tag_125:\n        /* \"Auction.sol\":3434:3441  endDate */\n      sload(0x00)\n        /* \"Auction.sol\":3415:3430  block.timestamp */\n      timestamp\n        /* \"Auction.sol\":3415:3441  block.timestamp >= endDate */\n      lt\n      iszero\n        /* \"Auction.sol\":3407:3476  require(block.timestamp >= endDate, \"El contrato aun no ha expirado\") */\n      tag_129\n      jumpi\n      mload(0x40)\n      0x08c379a000000000000000000000000000000000000000000000000000000000\n      dup2\n      mstore\n      0x04\n      add\n      tag_130\n      swap1\n      tag_131\n      jump\t// in\n    tag_130:\n      mload(0x40)\n      dup1\n      swap2\n      sub\n      swap1\n      revert\n    tag_129:\n        /* \"Auction.sol\":2839:2848  finalized */\n      0x04\n      0x00\n      swap1\n      sload\n      swap1\n      0x0100\n      exp\n      swap1\n      div\n      0xff\n      and\n        /* \"Auction.sol\":2838:2848  !finalized */\n      iszero\n        /* \"Auction.sol\":2830:2871  require(!finalized, \"Already finalized\" ) */\n      tag_133\n      jumpi\n      mload(0x40)\n      0x08c379a000000000000000000000000000000000000000000000000000000000\n      dup2\n      mstore\n      0x04\n      add\n      tag_134\n      swap1\n      tag_135\n      jump\t// in\n    tag_134:\n      mload(0x40)\n      dup1\n      swap2\n      sub\n      swap1\n      revert\n    tag_133:\n        /* \"Auction.sol\":3035:3041  locked */\n      0x06\n      0x00\n      swap1\n      sload\n      swap1\n      0x0100\n      exp\n      swap1\n      div\n      0xff\n      and\n        /* \"Auction.sol\":3034:3041  !locked */\n      iszero\n        /* \"Auction.sol\":3026:3053  require(!locked, \"reentr.\") */\n      tag_137\n      jumpi\n      mload(0x40)\n      0x08c379a000000000000000000000000000000000000000000000000000000000\n      dup2\n      mstore\n      0x04\n      add\n      tag_138\n      swap1\n      tag_83\n      jump\t// in\n    tag_138:\n      mload(0x40)\n      dup1\n      swap2\n      sub\n      swap1\n      revert\n    tag_137:\n        /* \"Auction.sol\":3073:3077  true */\n      0x01\n        /* \"Auction.sol\":3064:3070  locked */\n      0x06\n      0x00\n        /* \"Auction.sol\":3064:3077  locked = true */\n      0x0100\n      exp\n      dup2\n      sload\n      dup2\n      0xff\n      mul\n      not\n      and\n      swap1\n      dup4\n      iszero\n      iszero\n      mul\n      or\n      swap1\n      sstore\n      pop\n        /* \"Auction.sol\":6189:6193  true */\n      0x01\n        /* \"Auction.sol\":6177:6186  finalized */\n      0x04\n      0x00\n        /* \"Auction.sol\":6177:6193  finalized = true */\n      0x0100\n      exp\n      dup2\n      sload\n      dup2\n      0xff\n      mul\n      not\n      and\n      swap1\n      dup4\n      iszero\n      iszero\n      mul\n      or\n      swap1\n      sstore\n      pop\n        /* \"Auction.sol\":6224:6236  winnerBidder */\n      0x01\n      0x00\n      swap1\n      sload\n      swap1\n      0x0100\n      exp\n      swap1\n      div\n      0xffffffffffffffffffffffffffffffffffffffff\n      and\n        /* \"Auction.sol\":6208:6248  AuctionFinished(winnerBidder, winnerBid) */\n      0xffffffffffffffffffffffffffffffffffffffff\n      and\n      0x8b1ad6c69d3d79a05f5b1ec0de825e9bf67c6c70b8c25babd159976cf9990dff\n        /* \"Auction.sol\":6238:6247  winnerBid */\n      sload(0x02)\n        /* \"Auction.sol\":6208:6248  AuctionFinished(winnerBidder, winnerBid) */\n      mload(0x40)\n      tag_140\n      swap2\n      swap1\n      tag_24\n      jump\t// in\n    tag_140:\n      mload(0x40)\n      dup1\n      swap2\n      sub\n      swap1\n      log2\n        /* \"Auction.sol\":3109:3114  false */\n      0x00\n        /* \"Auction.sol\":3100:3106  locked */\n      0x06\n      0x00\n        /* \"Auction.sol\":3100:3114  locked = false */\n      0x0100\n      exp\n      dup2\n      sload\n      dup2\n      0xff\n      mul\n      not\n      and\n      swap1\n      dup4\n      iszero\n      iszero\n      mul\n      or\n      swap1\n      sstore\n      pop\n        /* \"Auction.sol\":6085:6269  function finalize() external onlyOwner onlyFinished onlyNotFinalized nonReentrant {... */\n      jump\t// out\n        /* \"Auction.sol\":6334:7067  function claim() external nonReentrant onlyFinished onlyOtherThanWinnerBidder {        ... */\n    tag_40:\n        /* \"Auction.sol\":3035:3041  locked */\n      0x06\n      0x00\n      swap1\n      sload\n      swap1\n      0x0100\n      exp\n      swap1\n      div\n      0xff\n      and\n        /* \"Auction.sol\":3034:3041  !locked */\n      iszero\n        /* \"Auction.sol\":3026:3053  require(!locked, \"reentr.\") */\n      tag_142\n      jumpi\n      mload(0x40)\n      0x08c379a000000000000000000000000000000000000000000000000000000000\n      dup2\n      mstore\n      0x04\n      add\n      tag_143\n      swap1\n      tag_83\n      jump\t// in\n    tag_143:\n      mload(0x40)\n      dup1\n      swap2\n      sub\n      swap1\n      revert\n    tag_142:\n        /* \"Auction.sol\":3073:3077  true */\n      0x01\n        /* \"Auction.sol\":3064:3070  locked */\n      0x06\n      0x00\n        /* \"Auction.sol\":3064:3077  locked = true */\n      0x0100\n      exp\n      dup2\n      sload\n      dup2\n      0xff\n      mul\n      not\n      and\n      swap1\n      dup4\n      iszero\n      iszero\n      mul\n      or\n      swap1\n      sstore\n      pop\n        /* \"Auction.sol\":3434:3441  endDate */\n      sload(0x00)\n        /* \"Auction.sol\":3415:3430  block.timestamp */\n      timestamp\n        /* \"Auction.sol\":3415:3441  block.timestamp >= endDate */\n      lt\n      iszero\n        /* \"Auction.sol\":3407:3476  require(block.timestamp >= endDate, \"El contrato aun no ha expirado\") */\n      tag_145\n      jumpi\n      mload(0x40)\n      0x08c379a000000000000000000000000000000000000000000000000000000000\n      dup2\n      mstore\n      0x04\n      add\n      tag_146\n      swap1\n      tag_131\n      jump\t// in\n    tag_146:\n      mload(0x40)\n      dup1\n      swap2\n      sub\n      swap1\n      revert\n    tag_145:\n        /* \"Auction.sol\":3569:3581  winnerBidder */\n      0x01\n      0x00\n      swap1\n      sload\n      swap1\n      0x0100\n      exp\n      swap1\n      div\n      0xffffffffffffffffffffffffffffffffffffffff\n      and\n        /* \"Auction.sol\":3555:3581  msg.sender != winnerBidder */\n      0xffffffffffffffffffffffffffffffffffffffff\n      and\n        /* \"Auction.sol\":3555:3565  msg.sender */\n      caller\n        /* \"Auction.sol\":3555:3581  msg.sender != winnerBidder */\n      0xffffffffffffffffffffffffffffffffffffffff\n      and\n      sub\n        /* \"Auction.sol\":3547:3614  require(msg.sender != winnerBidder, \"Usted ya tiene la mejor puja\") */\n      tag_148\n      jumpi\n      mload(0x40)\n      0x08c379a000000000000000000000000000000000000000000000000000000000\n      dup2\n      mstore\n      0x04\n      add\n      tag_149\n      swap1\n      tag_101\n      jump\t// in\n    tag_149:\n      mload(0x40)\n      dup1\n      swap2\n      sub\n      swap1\n      revert\n    tag_148:\n        /* \"Auction.sol\":6430:6447  uint256 bidAmount */\n      0x00\n        /* \"Auction.sol\":6450:6454  bids */\n      0x03\n        /* \"Auction.sol\":6450:6466  bids[msg.sender] */\n      0x00\n        /* \"Auction.sol\":6455:6465  msg.sender */\n      caller\n        /* \"Auction.sol\":6450:6466  bids[msg.sender] */\n      0xffffffffffffffffffffffffffffffffffffffff\n      and\n      0xffffffffffffffffffffffffffffffffffffffff\n      and\n      dup2\n      mstore\n      0x20\n      add\n      swap1\n      dup2\n      mstore\n      0x20\n      add\n      0x00\n      keccak256\n      sload\n        /* \"Auction.sol\":6430:6466  uint256 bidAmount = bids[msg.sender] */\n      swap1\n      pop\n        /* \"Auction.sol\":6496:6497  0 */\n      0x00\n        /* \"Auction.sol\":6484:6493  bidAmount */\n      dup2\n        /* \"Auction.sol\":6484:6497  bidAmount > 0 */\n      gt\n        /* \"Auction.sol\":6476:6525  require(bidAmount > 0, \"No hay oferta realizada\") */\n      tag_151\n      jumpi\n      mload(0x40)\n      0x08c379a000000000000000000000000000000000000000000000000000000000\n      dup2\n      mstore\n      0x04\n      add\n      tag_152\n      swap1\n      tag_153\n      jump\t// in\n    tag_152:\n      mload(0x40)\n      dup1\n      swap2\n      sub\n      swap1\n      revert\n    tag_151:\n        /* \"Auction.sol\":6535:6555  uint256 refundAmount */\n      0x00\n        /* \"Auction.sol\":6589:6592  100 */\n      0x64\n        /* \"Auction.sol\":6578:6584  gasFee */\n      immutable(\"0x731dc163f73d31d8c68f9917ce4ff967753939f70432973c04fd2c2a48148607\")\n        /* \"Auction.sol\":6572:6575  100 */\n      0x64\n        /* \"Auction.sol\":6572:6584  100 - gasFee */\n      tag_154\n      swap2\n      swap1\n      tag_107\n      jump\t// in\n    tag_154:\n        /* \"Auction.sol\":6559:6568  bidAmount */\n      dup4\n        /* \"Auction.sol\":6559:6585  bidAmount * (100 - gasFee) */\n      tag_155\n      swap2\n      swap1\n      tag_92\n      jump\t// in\n    tag_155:\n        /* \"Auction.sol\":6558:6592  (bidAmount * (100 - gasFee)) / 100 */\n      tag_156\n      swap2\n      swap1\n      tag_94\n      jump\t// in\n    tag_156:\n        /* \"Auction.sol\":6535:6592  uint256 refundAmount = (bidAmount * (100 - gasFee)) / 100 */\n      swap1\n      pop\n        /* \"Auction.sol\":6609:6613  bids */\n      0x03\n        /* \"Auction.sol\":6609:6625  bids[msg.sender] */\n      0x00\n        /* \"Auction.sol\":6614:6624  msg.sender */\n      caller\n        /* \"Auction.sol\":6609:6625  bids[msg.sender] */\n      0xffffffffffffffffffffffffffffffffffffffff\n      and\n      0xffffffffffffffffffffffffffffffffffffffff\n      and\n      dup2\n      mstore\n      0x20\n      add\n      swap1\n      dup2\n      mstore\n      0x20\n      add\n      0x00\n      keccak256\n        /* \"Auction.sol\":6602:6625  delete bids[msg.sender] */\n      0x00\n      swap1\n      sstore\n        /* \"Auction.sol\":6640:6646  uint i */\n      0x00\n        /* \"Auction.sol\":6649:6650  0 */\n      0x00\n        /* \"Auction.sol\":6640:6650  uint i = 0 */\n      swap1\n      pop\n        /* \"Auction.sol\":6635:6897  for (uint i = 0; i < bidders.length; i++) {... */\n    tag_157:\n        /* \"Auction.sol\":6656:6663  bidders */\n      0x05\n        /* \"Auction.sol\":6656:6670  bidders.length */\n      dup1\n      sload\n      swap1\n      pop\n        /* \"Auction.sol\":6652:6653  i */\n      dup2\n        /* \"Auction.sol\":6652:6670  i < bidders.length */\n      lt\n        /* \"Auction.sol\":6635:6897  for (uint i = 0; i < bidders.length; i++) {... */\n      iszero\n      tag_158\n      jumpi\n        /* \"Auction.sol\":6709:6719  msg.sender */\n      caller\n        /* \"Auction.sol\":6695:6719  bidders[i] == msg.sender */\n      0xffffffffffffffffffffffffffffffffffffffff\n      and\n        /* \"Auction.sol\":6695:6702  bidders */\n      0x05\n        /* \"Auction.sol\":6703:6704  i */\n      dup3\n        /* \"Auction.sol\":6695:6705  bidders[i] */\n      dup2\n      sload\n      dup2\n      lt\n      tag_160\n      jumpi\n      tag_161\n      tag_162\n      jump\t// in\n    tag_161:\n    tag_160:\n      swap1\n      0x00\n      mstore\n      keccak256(0x00, 0x20)\n      add\n      0x00\n      swap1\n      sload\n      swap1\n      0x0100\n      exp\n      swap1\n      div\n      0xffffffffffffffffffffffffffffffffffffffff\n      and\n        /* \"Auction.sol\":6695:6719  bidders[i] == msg.sender */\n      0xffffffffffffffffffffffffffffffffffffffff\n      and\n      sub\n        /* \"Auction.sol\":6691:6887  if (bidders[i] == msg.sender) {... */\n      tag_164\n      jumpi\n        /* \"Auction.sol\":6752:6759  bidders */\n      0x05\n        /* \"Auction.sol\":6777:6778  1 */\n      0x01\n        /* \"Auction.sol\":6760:6767  bidders */\n      0x05\n        /* \"Auction.sol\":6760:6774  bidders.length */\n      dup1\n      sload\n      swap1\n      pop\n        /* \"Auction.sol\":6760:6778  bidders.length - 1 */\n      tag_165\n      swap2\n      swap1\n      tag_107\n      jump\t// in\n    tag_165:\n        /* \"Auction.sol\":6752:6779  bidders[bidders.length - 1] */\n      dup2\n      sload\n      dup2\n      lt\n      tag_166\n      jumpi\n      tag_167\n      tag_162\n      jump\t// in\n    tag_167:\n    tag_166:\n      swap1\n      0x00\n      mstore\n      keccak256(0x00, 0x20)\n      add\n      0x00\n      swap1\n      sload\n      swap1\n      0x0100\n      exp\n      swap1\n      div\n      0xffffffffffffffffffffffffffffffffffffffff\n      and\n        /* \"Auction.sol\":6739:6746  bidders */\n      0x05\n        /* \"Auction.sol\":6747:6748  i */\n      dup3\n        /* \"Auction.sol\":6739:6749  bidders[i] */\n      dup2\n      sload\n      dup2\n      lt\n      tag_169\n      jumpi\n      tag_170\n      tag_162\n      jump\t// in\n    tag_170:\n    tag_169:\n      swap1\n      0x00\n      mstore\n      keccak256(0x00, 0x20)\n      add\n      0x00\n        /* \"Auction.sol\":6739:6779  bidders[i] = bidders[bidders.length - 1] */\n      0x0100\n      exp\n      dup2\n      sload\n      dup2\n      0xffffffffffffffffffffffffffffffffffffffff\n      mul\n      not\n      and\n      swap1\n      dup4\n      0xffffffffffffffffffffffffffffffffffffffff\n      and\n      mul\n      or\n      swap1\n      sstore\n      pop\n        /* \"Auction.sol\":6821:6828  bidders */\n      0x05\n        /* \"Auction.sol\":6821:6834  bidders.pop() */\n      dup1\n      sload\n      dup1\n      tag_172\n      jumpi\n      tag_173\n      tag_174\n      jump\t// in\n    tag_173:\n    tag_172:\n      0x01\n      swap1\n      sub\n      dup2\n      dup2\n      swap1\n      0x00\n      mstore\n      keccak256(0x00, 0x20)\n      add\n      exp(0x0100, 0x00)\n      dup2\n      sload\n      swap1\n      0xffffffffffffffffffffffffffffffffffffffff\n      mul\n      not\n      and\n      swap1\n      sstore\n      swap1\n      sstore\n        /* \"Auction.sol\":6867:6872  break */\n      jump(tag_158)\n        /* \"Auction.sol\":6691:6887  if (bidders[i] == msg.sender) {... */\n    tag_164:\n        /* \"Auction.sol\":6672:6675  i++ */\n      dup1\n      dup1\n      0x01\n      add\n      swap2\n      pop\n      pop\n        /* \"Auction.sol\":6635:6897  for (uint i = 0; i < bidders.length; i++) {... */\n      jump(tag_157)\n    tag_158:\n      pop\n        /* \"Auction.sol\":6907:6916  bool sent */\n      0x00\n        /* \"Auction.sol\":6930:6940  msg.sender */\n      caller\n        /* \"Auction.sol\":6922:6946  payable(msg.sender).call */\n      0xffffffffffffffffffffffffffffffffffffffff\n      and\n        /* \"Auction.sol\":6954:6966  refundAmount */\n      dup3\n        /* \"Auction.sol\":6922:6971  payable(msg.sender).call{value: refundAmount}(\"\") */\n      mload(0x40)\n      tag_176\n      swap1\n      tag_116\n      jump\t// in\n    tag_176:\n      0x00\n      mload(0x40)\n      dup1\n      dup4\n      sub\n      dup2\n      dup6\n      dup8\n      gas\n      call\n      swap3\n      pop\n      pop\n      pop\n      returndatasize\n      dup1\n      0x00\n      dup2\n      eq\n      tag_179\n      jumpi\n      mload(0x40)\n      swap2\n      pop\n      and(add(returndatasize, 0x3f), not(0x1f))\n      dup3\n      add\n      0x40\n      mstore\n      returndatasize\n      dup3\n      mstore\n      returndatasize\n      0x00\n      0x20\n      dup5\n      add\n      returndatacopy\n      jump(tag_178)\n    tag_179:\n      0x60\n      swap2\n      pop\n    tag_178:\n      pop\n        /* \"Auction.sol\":6906:6971  (bool sent, ) = payable(msg.sender).call{value: refundAmount}(\"\") */\n      pop\n      swap1\n      pop\n        /* \"Auction.sol\":6989:6993  sent */\n      dup1\n        /* \"Auction.sol\":6981:7012  require(sent, \"Refund fallido\") */\n      tag_180\n      jumpi\n      mload(0x40)\n      0x08c379a000000000000000000000000000000000000000000000000000000000\n      dup2\n      mstore\n      0x04\n      add\n      tag_181\n      swap1\n      tag_122\n      jump\t// in\n    tag_181:\n      mload(0x40)\n      dup1\n      swap2\n      sub\n      swap1\n      revert\n    tag_180:\n        /* \"Auction.sol\":7034:7044  msg.sender */\n      caller\n        /* \"Auction.sol\":7027:7058  Refund(msg.sender,refundAmount) */\n      0xffffffffffffffffffffffffffffffffffffffff\n      and\n      0xbb28353e4598c3b9199101a66e0989549b659a59a54d2c27fbb183f1932c8e6d\n        /* \"Auction.sol\":7045:7057  refundAmount */\n      dup4\n        /* \"Auction.sol\":7027:7058  Refund(msg.sender,refundAmount) */\n      mload(0x40)\n      tag_182\n      swap2\n      swap1\n      tag_24\n      jump\t// in\n    tag_182:\n      mload(0x40)\n      dup1\n      swap2\n      sub\n      swap1\n      log2\n        /* \"Auction.sol\":6412:7067  {        ... */\n      pop\n      pop\n      pop\n        /* \"Auction.sol\":3109:3114  false */\n      0x00\n        /* \"Auction.sol\":3100:3106  locked */\n      0x06\n      0x00\n        /* \"Auction.sol\":3100:3114  locked = false */\n      0x0100\n      exp\n      dup2\n      sload\n      dup2\n      0xff\n      mul\n      not\n      and\n      swap1\n      dup4\n      iszero\n      iszero\n      mul\n      or\n      swap1\n      sstore\n      pop\n        /* \"Auction.sol\":6334:7067  function claim() external nonReentrant onlyFinished onlyOtherThanWinnerBidder {        ... */\n      jump\t// out\n        /* \"Auction.sol\":991:1022  uint256 public immutable gasFee */\n    tag_43:\n      immutable(\"0x731dc163f73d31d8c68f9917ce4ff967753939f70432973c04fd2c2a48148607\")\n      dup2\n      jump\t// out\n        /* \"Auction.sol\":5031:5383  function getAllBids() external view returns (Bid[] memory) {... */\n    tag_47:\n        /* \"Auction.sol\":5076:5088  Bid[] memory */\n      0x60\n        /* \"Auction.sol\":5100:5111  uint256 len */\n      0x00\n        /* \"Auction.sol\":5114:5121  bidders */\n      0x05\n        /* \"Auction.sol\":5114:5128  bidders.length */\n      dup1\n      sload\n      swap1\n      pop\n        /* \"Auction.sol\":5100:5128  uint256 len = bidders.length */\n      swap1\n      pop\n        /* \"Auction.sol\":5138:5154  Bid[] memory all */\n      0x00\n        /* \"Auction.sol\":5167:5170  len */\n      dup2\n        /* \"Auction.sol\":5157:5171  new Bid[](len) */\n      0xffffffffffffffff\n      dup2\n      gt\n      iszero\n      tag_184\n      jumpi\n      tag_185\n      tag_186\n      jump\t// in\n    tag_185:\n    tag_184:\n      mload(0x40)\n      swap1\n      dup1\n      dup3\n      mstore\n      dup1\n      0x20\n      mul\n      0x20\n      add\n      dup3\n      add\n      0x40\n      mstore\n      dup1\n      iszero\n      tag_187\n      jumpi\n      dup2\n      0x20\n      add\n    tag_188:\n      tag_189\n      tag_190\n      jump\t// in\n    tag_189:\n      dup2\n      mstore\n      0x20\n      add\n      swap1\n      0x01\n      swap1\n      sub\n      swap1\n      dup2\n      tag_188\n      jumpi\n      swap1\n      pop\n    tag_187:\n      pop\n        /* \"Auction.sol\":5138:5171  Bid[] memory all = new Bid[](len) */\n      swap1\n      pop\n        /* \"Auction.sol\":5187:5196  uint256 i */\n      0x00\n        /* \"Auction.sol\":5199:5200  0 */\n      0x00\n        /* \"Auction.sol\":5187:5200  uint256 i = 0 */\n      swap1\n      pop\n        /* \"Auction.sol\":5182:5347  for (uint256 i = 0; i < len; i++) {... */\n    tag_191:\n        /* \"Auction.sol\":5206:5209  len */\n      dup3\n        /* \"Auction.sol\":5202:5203  i */\n      dup2\n        /* \"Auction.sol\":5202:5209  i < len */\n      lt\n        /* \"Auction.sol\":5182:5347  for (uint256 i = 0; i < len; i++) {... */\n      iszero\n      tag_192\n      jumpi\n        /* \"Auction.sol\":5239:5336  Bid({... */\n      mload(0x40)\n      dup1\n      0x40\n      add\n      0x40\n      mstore\n      dup1\n        /* \"Auction.sol\":5269:5276  bidders */\n      0x05\n        /* \"Auction.sol\":5277:5278  i */\n      dup4\n        /* \"Auction.sol\":5269:5279  bidders[i] */\n      dup2\n      sload\n      dup2\n      lt\n      tag_194\n      jumpi\n      tag_195\n      tag_162\n      jump\t// in\n    tag_195:\n    tag_194:\n      swap1\n      0x00\n      mstore\n      keccak256(0x00, 0x20)\n      add\n      0x00\n      swap1\n      sload\n      swap1\n      0x0100\n      exp\n      swap1\n      div\n      0xffffffffffffffffffffffffffffffffffffffff\n      and\n        /* \"Auction.sol\":5239:5336  Bid({... */\n      0xffffffffffffffffffffffffffffffffffffffff\n      and\n      dup2\n      mstore\n      0x20\n      add\n        /* \"Auction.sol\":5305:5309  bids */\n      0x03\n        /* \"Auction.sol\":5305:5321  bids[bidders[i]] */\n      0x00\n        /* \"Auction.sol\":5310:5317  bidders */\n      0x05\n        /* \"Auction.sol\":5318:5319  i */\n      dup6\n        /* \"Auction.sol\":5310:5320  bidders[i] */\n      dup2\n      sload\n      dup2\n      lt\n      tag_197\n      jumpi\n      tag_198\n      tag_162\n      jump\t// in\n    tag_198:\n    tag_197:\n      swap1\n      0x00\n      mstore\n      keccak256(0x00, 0x20)\n      add\n      0x00\n      swap1\n      sload\n      swap1\n      0x0100\n      exp\n      swap1\n      div\n      0xffffffffffffffffffffffffffffffffffffffff\n      and\n        /* \"Auction.sol\":5305:5321  bids[bidders[i]] */\n      0xffffffffffffffffffffffffffffffffffffffff\n      and\n      0xffffffffffffffffffffffffffffffffffffffff\n      and\n      dup2\n      mstore\n      0x20\n      add\n      swap1\n      dup2\n      mstore\n      0x20\n      add\n      0x00\n      keccak256\n      sload\n        /* \"Auction.sol\":5239:5336  Bid({... */\n      dup2\n      mstore\n      pop\n        /* \"Auction.sol\":5230:5233  all */\n      dup3\n        /* \"Auction.sol\":5234:5235  i */\n      dup3\n        /* \"Auction.sol\":5230:5236  all[i] */\n      dup2\n      mload\n      dup2\n      lt\n      tag_200\n      jumpi\n      tag_201\n      tag_162\n      jump\t// in\n    tag_201:\n    tag_200:\n      0x20\n      mul\n      0x20\n      add\n      add\n        /* \"Auction.sol\":5230:5336  all[i] = Bid({... */\n      dup2\n      swap1\n      mstore\n      pop\n        /* \"Auction.sol\":5211:5214  i++ */\n      dup1\n      dup1\n      0x01\n      add\n      swap2\n      pop\n      pop\n        /* \"Auction.sol\":5182:5347  for (uint256 i = 0; i < len; i++) {... */\n      jump(tag_191)\n    tag_192:\n      pop\n        /* \"Auction.sol\":5364:5367  all */\n      dup1\n        /* \"Auction.sol\":5357:5367  return all */\n      swap3\n      pop\n      pop\n      pop\n        /* \"Auction.sol\":5031:5383  function getAllBids() external view returns (Bid[] memory) {... */\n      swap1\n      jump\t// out\n        /* \"Auction.sol\":703:733  address public immutable owner */\n    tag_52:\n      immutable(\"0x13600b294191fc92924bb3ce4b969c1e7e2bab8f4c93c3fc6d0a51733df3c060\")\n      dup2\n      jump\t// out\n        /* \"Auction.sol\":1145:1166  bool public finalized */\n    tag_57:\n      0x04\n      0x00\n      swap1\n      sload\n      swap1\n      0x0100\n      exp\n      swap1\n      div\n      0xff\n      and\n      dup2\n      jump\t// out\n        /* \"Auction.sol\":779:801  uint256 public endDate */\n    tag_62:\n      sload(0x00)\n      dup2\n      jump\t// out\n        /* \"Auction.sol\":5485:5682  function getTimeLeft() external view returns (uint256) {... */\n    tag_66:\n        /* \"Auction.sol\":5531:5538  uint256 */\n      0x00\n        /* \"Auction.sol\":5582:5589  endDate */\n      sload(0x00)\n        /* \"Auction.sol\":5563:5578  block.timestamp */\n      timestamp\n        /* \"Auction.sol\":5563:5589  block.timestamp >= endDate */\n      lt\n        /* \"Auction.sol\":5559:5624  if (block.timestamp >= endDate) {... */\n      tag_203\n      jumpi\n        /* \"Auction.sol\":5612:5613  0 */\n      0x00\n        /* \"Auction.sol\":5605:5613  return 0 */\n      swap1\n      pop\n      jump(tag_202)\n        /* \"Auction.sol\":5559:5624  if (block.timestamp >= endDate) {... */\n    tag_203:\n        /* \"Auction.sol\":5651:5666  block.timestamp */\n      timestamp\n        /* \"Auction.sol\":5641:5648  endDate */\n      sload(0x00)\n        /* \"Auction.sol\":5641:5666  endDate - block.timestamp */\n      tag_204\n      swap2\n      swap1\n      tag_107\n      jump\t// in\n    tag_204:\n        /* \"Auction.sol\":5633:5666  return  endDate - block.timestamp */\n      swap1\n      pop\n        /* \"Auction.sol\":5485:5682  function getTimeLeft() external view returns (uint256) {... */\n    tag_202:\n      swap1\n      jump\t// out\n        /* \"Auction.sol\":5828:5965  function getWinnerBid() external view returns (Bid memory) {... */\n    tag_70:\n        /* \"Auction.sol\":5875:5885  Bid memory */\n      tag_205\n      tag_190\n      jump\t// in\n    tag_205:\n        /* \"Auction.sol\":5904:5950  Bid({bidder: winnerBidder, amount: winnerBid}) */\n      mload(0x40)\n      dup1\n      0x40\n      add\n      0x40\n      mstore\n      dup1\n        /* \"Auction.sol\":5917:5929  winnerBidder */\n      0x01\n      0x00\n      swap1\n      sload\n      swap1\n      0x0100\n      exp\n      swap1\n      div\n      0xffffffffffffffffffffffffffffffffffffffff\n      and\n        /* \"Auction.sol\":5904:5950  Bid({bidder: winnerBidder, amount: winnerBid}) */\n      0xffffffffffffffffffffffffffffffffffffffff\n      and\n      dup2\n      mstore\n      0x20\n      add\n        /* \"Auction.sol\":5939:5948  winnerBid */\n      sload(0x02)\n        /* \"Auction.sol\":5904:5950  Bid({bidder: winnerBidder, amount: winnerBid}) */\n      dup2\n      mstore\n      pop\n        /* \"Auction.sol\":5897:5950  return Bid({bidder: winnerBidder, amount: winnerBid}) */\n      swap1\n      pop\n        /* \"Auction.sol\":5828:5965  function getWinnerBid() external view returns (Bid memory) {... */\n      swap1\n      jump\t// out\n        /* \"Auction.sol\":911:945  uint256 public immutable increment */\n    tag_75:\n      immutable(\"0x277ab82e5a4641341820a4a2933a62c1de997e42e92548657ae21b3728d580fe\")\n      dup2\n      jump\t// out\n        /* \"Auction.sol\":7073:7376  function withdrawRemaining() external onlyOwner onlyFinalized {... */\n    tag_79:\n        /* \"Auction.sol\":3297:3302  owner */\n      immutable(\"0x13600b294191fc92924bb3ce4b969c1e7e2bab8f4c93c3fc6d0a51733df3c060\")\n        /* \"Auction.sol\":3283:3302  msg.sender == owner */\n      0xffffffffffffffffffffffffffffffffffffffff\n      and\n        /* \"Auction.sol\":3283:3293  msg.sender */\n      caller\n        /* \"Auction.sol\":3283:3302  msg.sender == owner */\n      0xffffffffffffffffffffffffffffffffffffffff\n      and\n      eq\n        /* \"Auction.sol\":3275:3348  require(msg.sender == owner, \"Solo el owner puede finalizar la subasta.\") */\n      tag_208\n      jumpi\n      mload(0x40)\n      0x08c379a000000000000000000000000000000000000000000000000000000000\n      dup2\n      mstore\n      0x04\n      add\n      tag_209\n      swap1\n      tag_127\n      jump\t// in\n    tag_209:\n      mload(0x40)\n      dup1\n      swap2\n      sub\n      swap1\n      revert\n    tag_208:\n        /* \"Auction.sol\":2936:2945  finalized */\n      0x04\n      0x00\n      swap1\n      sload\n      swap1\n      0x0100\n      exp\n      swap1\n      div\n      0xff\n      and\n        /* \"Auction.sol\":2928:2969  require(finalized, \"Not finalized yet.\" ) */\n      tag_211\n      jumpi\n      mload(0x40)\n      0x08c379a000000000000000000000000000000000000000000000000000000000\n      dup2\n      mstore\n      0x04\n      add\n      tag_212\n      swap1\n      tag_213\n      jump\t// in\n    tag_212:\n      mload(0x40)\n      dup1\n      swap2\n      sub\n      swap1\n      revert\n    tag_211:\n        /* \"Auction.sol\":7145:7160  uint256 balance */\n      0x00\n        /* \"Auction.sol\":7163:7184  address(this).balance */\n      selfbalance\n        /* \"Auction.sol\":7145:7184  uint256 balance = address(this).balance */\n      swap1\n      pop\n        /* \"Auction.sol\":7212:7213  0 */\n      0x00\n        /* \"Auction.sol\":7202:7209  balance */\n      dup2\n        /* \"Auction.sol\":7202:7213  balance > 0 */\n      gt\n        /* \"Auction.sol\":7194:7255  require(balance > 0, \"No hay fondos remanentes para retirar\") */\n      tag_215\n      jumpi\n      mload(0x40)\n      0x08c379a000000000000000000000000000000000000000000000000000000000\n      dup2\n      mstore\n      0x04\n      add\n      tag_216\n      swap1\n      tag_217\n      jump\t// in\n    tag_216:\n      mload(0x40)\n      dup1\n      swap2\n      sub\n      swap1\n      revert\n    tag_215:\n        /* \"Auction.sol\":7267:7276  bool sent */\n      0x00\n        /* \"Auction.sol\":7290:7295  owner */\n      immutable(\"0x13600b294191fc92924bb3ce4b969c1e7e2bab8f4c93c3fc6d0a51733df3c060\")\n        /* \"Auction.sol\":7282:7301  payable(owner).call */\n      0xffffffffffffffffffffffffffffffffffffffff\n      and\n        /* \"Auction.sol\":7309:7316  balance */\n      dup3\n        /* \"Auction.sol\":7282:7321  payable(owner).call{value: balance}(\"\") */\n      mload(0x40)\n      tag_218\n      swap1\n      tag_116\n      jump\t// in\n    tag_218:\n      0x00\n      mload(0x40)\n      dup1\n      dup4\n      sub\n      dup2\n      dup6\n      dup8\n      gas\n      call\n      swap3\n      pop\n      pop\n      pop\n      returndatasize\n      dup1\n      0x00\n      dup2\n      eq\n      tag_221\n      jumpi\n      mload(0x40)\n      swap2\n      pop\n      and(add(returndatasize, 0x3f), not(0x1f))\n      dup3\n      add\n      0x40\n      mstore\n      returndatasize\n      dup3\n      mstore\n      returndatasize\n      0x00\n      0x20\n      dup5\n      add\n      returndatacopy\n      jump(tag_220)\n    tag_221:\n      0x60\n      swap2\n      pop\n    tag_220:\n      pop\n        /* \"Auction.sol\":7266:7321  (bool sent, ) = payable(owner).call{value: balance}(\"\") */\n      pop\n      swap1\n      pop\n        /* \"Auction.sol\":7339:7343  sent */\n      dup1\n        /* \"Auction.sol\":7331:7369  require(sent, \"Transferencia fallida\") */\n      tag_222\n      jumpi\n      mload(0x40)\n      0x08c379a000000000000000000000000000000000000000000000000000000000\n      dup2\n      mstore\n      0x04\n      add\n      tag_223\n      swap1\n      tag_224\n      jump\t// in\n    tag_223:\n      mload(0x40)\n      dup1\n      swap2\n      sub\n      swap1\n      revert\n    tag_222:\n        /* \"Auction.sol\":7135:7376  {... */\n      pop\n      pop\n        /* \"Auction.sol\":7073:7376  function withdrawRemaining() external onlyOwner onlyFinalized {... */\n      jump\t// out\n    tag_190:\n      mload(0x40)\n      dup1\n      0x40\n      add\n      0x40\n      mstore\n      dup1\n      and(0xffffffffffffffffffffffffffffffffffffffff, 0x00)\n      dup2\n      mstore\n      0x20\n      add\n      0x00\n      dup2\n      mstore\n      pop\n      swap1\n      jump\t// out\n        /* \"#utility.yul\":7:84   */\n    tag_225:\n        /* \"#utility.yul\":44:51   */\n      0x00\n        /* \"#utility.yul\":73:78   */\n      dup2\n        /* \"#utility.yul\":62:78   */\n      swap1\n      pop\n        /* \"#utility.yul\":7:84   */\n      swap2\n      swap1\n      pop\n      jump\t// out\n        /* \"#utility.yul\":90:208   */\n    tag_226:\n        /* \"#utility.yul\":177:201   */\n      tag_275\n        /* \"#utility.yul\":195:200   */\n      dup2\n        /* \"#utility.yul\":177:201   */\n      tag_225\n      jump\t// in\n    tag_275:\n        /* \"#utility.yul\":172:175   */\n      dup3\n        /* \"#utility.yul\":165:202   */\n      mstore\n        /* \"#utility.yul\":90:208   */\n      pop\n      pop\n      jump\t// out\n        /* \"#utility.yul\":214:436   */\n    tag_24:\n        /* \"#utility.yul\":307:311   */\n      0x00\n        /* \"#utility.yul\":345:347   */\n      0x20\n        /* \"#utility.yul\":334:343   */\n      dup3\n        /* \"#utility.yul\":330:348   */\n      add\n        /* \"#utility.yul\":322:348   */\n      swap1\n      pop\n        /* \"#utility.yul\":358:429   */\n      tag_277\n        /* \"#utility.yul\":426:427   */\n      0x00\n        /* \"#utility.yul\":415:424   */\n      dup4\n        /* \"#utility.yul\":411:428   */\n      add\n        /* \"#utility.yul\":402:408   */\n      dup5\n        /* \"#utility.yul\":358:429   */\n      tag_226\n      jump\t// in\n    tag_277:\n        /* \"#utility.yul\":214:436   */\n      swap3\n      swap2\n      pop\n      pop\n      jump\t// out\n        /* \"#utility.yul\":442:575   */\n    tag_227:\n        /* \"#utility.yul\":528:534   */\n      0x00\n        /* \"#utility.yul\":562:567   */\n      dup2\n        /* \"#utility.yul\":556:568   */\n      mload\n        /* \"#utility.yul\":546:568   */\n      swap1\n      pop\n        /* \"#utility.yul\":442:575   */\n      swap2\n      swap1\n      pop\n      jump\t// out\n        /* \"#utility.yul\":581:784   */\n    tag_228:\n        /* \"#utility.yul\":699:710   */\n      0x00\n        /* \"#utility.yul\":733:739   */\n      dup3\n        /* \"#utility.yul\":728:731   */\n      dup3\n        /* \"#utility.yul\":721:740   */\n      mstore\n        /* \"#utility.yul\":773:777   */\n      0x20\n        /* \"#utility.yul\":768:771   */\n      dup3\n        /* \"#utility.yul\":764:778   */\n      add\n        /* \"#utility.yul\":749:778   */\n      swap1\n      pop\n        /* \"#utility.yul\":581:784   */\n      swap3\n      swap2\n      pop\n      pop\n      jump\t// out\n        /* \"#utility.yul\":790:941   */\n    tag_229:\n        /* \"#utility.yul\":876:880   */\n      0x00\n        /* \"#utility.yul\":899:902   */\n      dup2\n        /* \"#utility.yul\":891:902   */\n      swap1\n      pop\n        /* \"#utility.yul\":929:933   */\n      0x20\n        /* \"#utility.yul\":924:927   */\n      dup3\n        /* \"#utility.yul\":920:934   */\n      add\n        /* \"#utility.yul\":912:934   */\n      swap1\n      pop\n        /* \"#utility.yul\":790:941   */\n      swap2\n      swap1\n      pop\n      jump\t// out\n        /* \"#utility.yul\":947:1073   */\n    tag_230:\n        /* \"#utility.yul\":984:991   */\n      0x00\n        /* \"#utility.yul\":1024:1066   */\n      0xffffffffffffffffffffffffffffffffffffffff\n        /* \"#utility.yul\":1017:1022   */\n      dup3\n        /* \"#utility.yul\":1013:1067   */\n      and\n        /* \"#utility.yul\":1002:1067   */\n      swap1\n      pop\n        /* \"#utility.yul\":947:1073   */\n      swap2\n      swap1\n      pop\n      jump\t// out\n        /* \"#utility.yul\":1079:1175   */\n    tag_231:\n        /* \"#utility.yul\":1116:1123   */\n      0x00\n        /* \"#utility.yul\":1145:1169   */\n      tag_283\n        /* \"#utility.yul\":1163:1168   */\n      dup3\n        /* \"#utility.yul\":1145:1169   */\n      tag_230\n      jump\t// in\n    tag_283:\n        /* \"#utility.yul\":1134:1169   */\n      swap1\n      pop\n        /* \"#utility.yul\":1079:1175   */\n      swap2\n      swap1\n      pop\n      jump\t// out\n        /* \"#utility.yul\":1181:1289   */\n    tag_232:\n        /* \"#utility.yul\":1258:1282   */\n      tag_285\n        /* \"#utility.yul\":1276:1281   */\n      dup2\n        /* \"#utility.yul\":1258:1282   */\n      tag_231\n      jump\t// in\n    tag_285:\n        /* \"#utility.yul\":1253:1256   */\n      dup3\n        /* \"#utility.yul\":1246:1283   */\n      mstore\n        /* \"#utility.yul\":1181:1289   */\n      pop\n      pop\n      jump\t// out\n        /* \"#utility.yul\":1295:1403   */\n    tag_233:\n        /* \"#utility.yul\":1372:1396   */\n      tag_287\n        /* \"#utility.yul\":1390:1395   */\n      dup2\n        /* \"#utility.yul\":1372:1396   */\n      tag_225\n      jump\t// in\n    tag_287:\n        /* \"#utility.yul\":1367:1370   */\n      dup3\n        /* \"#utility.yul\":1360:1397   */\n      mstore\n        /* \"#utility.yul\":1295:1403   */\n      pop\n      pop\n      jump\t// out\n        /* \"#utility.yul\":1457:1946   */\n    tag_234:\n        /* \"#utility.yul\":1582:1586   */\n      0x40\n        /* \"#utility.yul\":1577:1580   */\n      dup3\n        /* \"#utility.yul\":1573:1587   */\n      add\n        /* \"#utility.yul\":1671:1675   */\n      0x00\n        /* \"#utility.yul\":1664:1669   */\n      dup3\n        /* \"#utility.yul\":1660:1676   */\n      add\n        /* \"#utility.yul\":1654:1677   */\n      mload\n        /* \"#utility.yul\":1690:1753   */\n      tag_289\n        /* \"#utility.yul\":1747:1751   */\n      0x00\n        /* \"#utility.yul\":1742:1745   */\n      dup6\n        /* \"#utility.yul\":1738:1752   */\n      add\n        /* \"#utility.yul\":1724:1736   */\n      dup3\n        /* \"#utility.yul\":1690:1753   */\n      tag_232\n      jump\t// in\n    tag_289:\n        /* \"#utility.yul\":1597:1763   */\n      pop\n        /* \"#utility.yul\":1847:1851   */\n      0x20\n        /* \"#utility.yul\":1840:1845   */\n      dup3\n        /* \"#utility.yul\":1836:1852   */\n      add\n        /* \"#utility.yul\":1830:1853   */\n      mload\n        /* \"#utility.yul\":1866:1929   */\n      tag_290\n        /* \"#utility.yul\":1923:1927   */\n      0x20\n        /* \"#utility.yul\":1918:1921   */\n      dup6\n        /* \"#utility.yul\":1914:1928   */\n      add\n        /* \"#utility.yul\":1900:1912   */\n      dup3\n        /* \"#utility.yul\":1866:1929   */\n      tag_233\n      jump\t// in\n    tag_290:\n        /* \"#utility.yul\":1773:1939   */\n      pop\n        /* \"#utility.yul\":1551:1946   */\n      pop\n        /* \"#utility.yul\":1457:1946   */\n      pop\n      pop\n      jump\t// out\n        /* \"#utility.yul\":1952:2207   */\n    tag_235:\n        /* \"#utility.yul\":2059:2069   */\n      0x00\n        /* \"#utility.yul\":2080:2164   */\n      tag_292\n        /* \"#utility.yul\":2160:2163   */\n      dup4\n        /* \"#utility.yul\":2152:2158   */\n      dup4\n        /* \"#utility.yul\":2080:2164   */\n      tag_234\n      jump\t// in\n    tag_292:\n        /* \"#utility.yul\":2196:2200   */\n      0x40\n        /* \"#utility.yul\":2191:2194   */\n      dup4\n        /* \"#utility.yul\":2187:2201   */\n      add\n        /* \"#utility.yul\":2173:2201   */\n      swap1\n      pop\n        /* \"#utility.yul\":1952:2207   */\n      swap3\n      swap2\n      pop\n      pop\n      jump\t// out\n        /* \"#utility.yul\":2213:2345   */\n    tag_236:\n        /* \"#utility.yul\":2302:2306   */\n      0x00\n        /* \"#utility.yul\":2334:2338   */\n      0x20\n        /* \"#utility.yul\":2329:2332   */\n      dup3\n        /* \"#utility.yul\":2325:2339   */\n      add\n        /* \"#utility.yul\":2317:2339   */\n      swap1\n      pop\n        /* \"#utility.yul\":2213:2345   */\n      swap2\n      swap1\n      pop\n      jump\t// out\n        /* \"#utility.yul\":2403:3287   */\n    tag_237:\n        /* \"#utility.yul\":2560:2563   */\n      0x00\n        /* \"#utility.yul\":2589:2662   */\n      tag_295\n        /* \"#utility.yul\":2656:2661   */\n      dup3\n        /* \"#utility.yul\":2589:2662   */\n      tag_227\n      jump\t// in\n    tag_295:\n        /* \"#utility.yul\":2678:2783   */\n      tag_296\n        /* \"#utility.yul\":2776:2782   */\n      dup2\n        /* \"#utility.yul\":2771:2774   */\n      dup6\n        /* \"#utility.yul\":2678:2783   */\n      tag_228\n      jump\t// in\n    tag_296:\n        /* \"#utility.yul\":2671:2783   */\n      swap4\n      pop\n        /* \"#utility.yul\":2807:2882   */\n      tag_297\n        /* \"#utility.yul\":2876:2881   */\n      dup4\n        /* \"#utility.yul\":2807:2882   */\n      tag_229\n      jump\t// in\n    tag_297:\n        /* \"#utility.yul\":2905:2912   */\n      dup1\n        /* \"#utility.yul\":2936:2937   */\n      0x00\n        /* \"#utility.yul\":2921:3262   */\n    tag_298:\n        /* \"#utility.yul\":2946:2952   */\n      dup4\n        /* \"#utility.yul\":2943:2944   */\n      dup2\n        /* \"#utility.yul\":2940:2953   */\n      lt\n        /* \"#utility.yul\":2921:3262   */\n      iszero\n      tag_300\n      jumpi\n        /* \"#utility.yul\":3022:3028   */\n      dup2\n        /* \"#utility.yul\":3016:3029   */\n      mload\n        /* \"#utility.yul\":3049:3150   */\n      tag_301\n        /* \"#utility.yul\":3146:3149   */\n      dup9\n        /* \"#utility.yul\":3131:3144   */\n      dup3\n        /* \"#utility.yul\":3049:3150   */\n      tag_235\n      jump\t// in\n    tag_301:\n        /* \"#utility.yul\":3042:3150   */\n      swap8\n      pop\n        /* \"#utility.yul\":3173:3252   */\n      tag_302\n        /* \"#utility.yul\":3245:3251   */\n      dup4\n        /* \"#utility.yul\":3173:3252   */\n      tag_236\n      jump\t// in\n    tag_302:\n        /* \"#utility.yul\":3163:3252   */\n      swap3\n      pop\n        /* \"#utility.yul\":2981:3262   */\n      pop\n        /* \"#utility.yul\":2968:2969   */\n      0x01\n        /* \"#utility.yul\":2965:2966   */\n      dup2\n        /* \"#utility.yul\":2961:2970   */\n      add\n        /* \"#utility.yul\":2956:2970   */\n      swap1\n      pop\n        /* \"#utility.yul\":2921:3262   */\n      jump(tag_298)\n    tag_300:\n        /* \"#utility.yul\":2925:2939   */\n      pop\n        /* \"#utility.yul\":3278:3281   */\n      dup6\n        /* \"#utility.yul\":3271:3281   */\n      swap4\n      pop\n        /* \"#utility.yul\":2565:3287   */\n      pop\n      pop\n      pop\n        /* \"#utility.yul\":2403:3287   */\n      swap3\n      swap2\n      pop\n      pop\n      jump\t// out\n        /* \"#utility.yul\":3293:3742   */\n    tag_49:\n        /* \"#utility.yul\":3474:3478   */\n      0x00\n        /* \"#utility.yul\":3512:3514   */\n      0x20\n        /* \"#utility.yul\":3501:3510   */\n      dup3\n        /* \"#utility.yul\":3497:3515   */\n      add\n        /* \"#utility.yul\":3489:3515   */\n      swap1\n      pop\n        /* \"#utility.yul\":3561:3570   */\n      dup2\n        /* \"#utility.yul\":3555:3559   */\n      dup2\n        /* \"#utility.yul\":3551:3571   */\n      sub\n        /* \"#utility.yul\":3547:3548   */\n      0x00\n        /* \"#utility.yul\":3536:3545   */\n      dup4\n        /* \"#utility.yul\":3532:3549   */\n      add\n        /* \"#utility.yul\":3525:3572   */\n      mstore\n        /* \"#utility.yul\":3589:3735   */\n      tag_304\n        /* \"#utility.yul\":3730:3734   */\n      dup2\n        /* \"#utility.yul\":3721:3727   */\n      dup5\n        /* \"#utility.yul\":3589:3735   */\n      tag_237\n      jump\t// in\n    tag_304:\n        /* \"#utility.yul\":3581:3735   */\n      swap1\n      pop\n        /* \"#utility.yul\":3293:3742   */\n      swap3\n      swap2\n      pop\n      pop\n      jump\t// out\n        /* \"#utility.yul\":3748:3866   */\n    tag_238:\n        /* \"#utility.yul\":3835:3859   */\n      tag_306\n        /* \"#utility.yul\":3853:3858   */\n      dup2\n        /* \"#utility.yul\":3835:3859   */\n      tag_231\n      jump\t// in\n    tag_306:\n        /* \"#utility.yul\":3830:3833   */\n      dup3\n        /* \"#utility.yul\":3823:3860   */\n      mstore\n        /* \"#utility.yul\":3748:3866   */\n      pop\n      pop\n      jump\t// out\n        /* \"#utility.yul\":3872:4094   */\n    tag_54:\n        /* \"#utility.yul\":3965:3969   */\n      0x00\n        /* \"#utility.yul\":4003:4005   */\n      0x20\n        /* \"#utility.yul\":3992:4001   */\n      dup3\n        /* \"#utility.yul\":3988:4006   */\n      add\n        /* \"#utility.yul\":3980:4006   */\n      swap1\n      pop\n        /* \"#utility.yul\":4016:4087   */\n      tag_308\n        /* \"#utility.yul\":4084:4085   */\n      0x00\n        /* \"#utility.yul\":4073:4082   */\n      dup4\n        /* \"#utility.yul\":4069:4086   */\n      add\n        /* \"#utility.yul\":4060:4066   */\n      dup5\n        /* \"#utility.yul\":4016:4087   */\n      tag_238\n      jump\t// in\n    tag_308:\n        /* \"#utility.yul\":3872:4094   */\n      swap3\n      swap2\n      pop\n      pop\n      jump\t// out\n        /* \"#utility.yul\":4100:4190   */\n    tag_239:\n        /* \"#utility.yul\":4134:4141   */\n      0x00\n        /* \"#utility.yul\":4177:4182   */\n      dup2\n        /* \"#utility.yul\":4170:4183   */\n      iszero\n        /* \"#utility.yul\":4163:4184   */\n      iszero\n        /* \"#utility.yul\":4152:4184   */\n      swap1\n      pop\n        /* \"#utility.yul\":4100:4190   */\n      swap2\n      swap1\n      pop\n      jump\t// out\n        /* \"#utility.yul\":4196:4305   */\n    tag_240:\n        /* \"#utility.yul\":4277:4298   */\n      tag_311\n        /* \"#utility.yul\":4292:4297   */\n      dup2\n        /* \"#utility.yul\":4277:4298   */\n      tag_239\n      jump\t// in\n    tag_311:\n        /* \"#utility.yul\":4272:4275   */\n      dup3\n        /* \"#utility.yul\":4265:4299   */\n      mstore\n        /* \"#utility.yul\":4196:4305   */\n      pop\n      pop\n      jump\t// out\n        /* \"#utility.yul\":4311:4521   */\n    tag_59:\n        /* \"#utility.yul\":4398:4402   */\n      0x00\n        /* \"#utility.yul\":4436:4438   */\n      0x20\n        /* \"#utility.yul\":4425:4434   */\n      dup3\n        /* \"#utility.yul\":4421:4439   */\n      add\n        /* \"#utility.yul\":4413:4439   */\n      swap1\n      pop\n        /* \"#utility.yul\":4449:4514   */\n      tag_313\n        /* \"#utility.yul\":4511:4512   */\n      0x00\n        /* \"#utility.yul\":4500:4509   */\n      dup4\n        /* \"#utility.yul\":4496:4513   */\n      add\n        /* \"#utility.yul\":4487:4493   */\n      dup5\n        /* \"#utility.yul\":4449:4514   */\n      tag_240\n      jump\t// in\n    tag_313:\n        /* \"#utility.yul\":4311:4521   */\n      swap3\n      swap2\n      pop\n      pop\n      jump\t// out\n        /* \"#utility.yul\":4575:5074   */\n    tag_241:\n        /* \"#utility.yul\":4710:4714   */\n      0x40\n        /* \"#utility.yul\":4705:4708   */\n      dup3\n        /* \"#utility.yul\":4701:4715   */\n      add\n        /* \"#utility.yul\":4799:4803   */\n      0x00\n        /* \"#utility.yul\":4792:4797   */\n      dup3\n        /* \"#utility.yul\":4788:4804   */\n      add\n        /* \"#utility.yul\":4782:4805   */\n      mload\n        /* \"#utility.yul\":4818:4881   */\n      tag_315\n        /* \"#utility.yul\":4875:4879   */\n      0x00\n        /* \"#utility.yul\":4870:4873   */\n      dup6\n        /* \"#utility.yul\":4866:4880   */\n      add\n        /* \"#utility.yul\":4852:4864   */\n      dup3\n        /* \"#utility.yul\":4818:4881   */\n      tag_232\n      jump\t// in\n    tag_315:\n        /* \"#utility.yul\":4725:4891   */\n      pop\n        /* \"#utility.yul\":4975:4979   */\n      0x20\n        /* \"#utility.yul\":4968:4973   */\n      dup3\n        /* \"#utility.yul\":4964:4980   */\n      add\n        /* \"#utility.yul\":4958:4981   */\n      mload\n        /* \"#utility.yul\":4994:5057   */\n      tag_316\n        /* \"#utility.yul\":5051:5055   */\n      0x20\n        /* \"#utility.yul\":5046:5049   */\n      dup6\n        /* \"#utility.yul\":5042:5056   */\n      add\n        /* \"#utility.yul\":5028:5040   */\n      dup3\n        /* \"#utility.yul\":4994:5057   */\n      tag_233\n      jump\t// in\n    tag_316:\n        /* \"#utility.yul\":4901:5067   */\n      pop\n        /* \"#utility.yul\":4679:5074   */\n      pop\n        /* \"#utility.yul\":4575:5074   */\n      pop\n      pop\n      jump\t// out\n        /* \"#utility.yul\":5080:5378   */\n    tag_72:\n        /* \"#utility.yul\":5211:5215   */\n      0x00\n        /* \"#utility.yul\":5249:5251   */\n      0x40\n        /* \"#utility.yul\":5238:5247   */\n      dup3\n        /* \"#utility.yul\":5234:5252   */\n      add\n        /* \"#utility.yul\":5226:5252   */\n      swap1\n      pop\n        /* \"#utility.yul\":5262:5371   */\n      tag_318\n        /* \"#utility.yul\":5368:5369   */\n      0x00\n        /* \"#utility.yul\":5357:5366   */\n      dup4\n        /* \"#utility.yul\":5353:5370   */\n      add\n        /* \"#utility.yul\":5344:5350   */\n      dup5\n        /* \"#utility.yul\":5262:5371   */\n      tag_241\n      jump\t// in\n    tag_318:\n        /* \"#utility.yul\":5080:5378   */\n      swap3\n      swap2\n      pop\n      pop\n      jump\t// out\n        /* \"#utility.yul\":5384:5553   */\n    tag_242:\n        /* \"#utility.yul\":5468:5479   */\n      0x00\n        /* \"#utility.yul\":5502:5508   */\n      dup3\n        /* \"#utility.yul\":5497:5500   */\n      dup3\n        /* \"#utility.yul\":5490:5509   */\n      mstore\n        /* \"#utility.yul\":5542:5546   */\n      0x20\n        /* \"#utility.yul\":5537:5540   */\n      dup3\n        /* \"#utility.yul\":5533:5547   */\n      add\n        /* \"#utility.yul\":5518:5547   */\n      swap1\n      pop\n        /* \"#utility.yul\":5384:5553   */\n      swap3\n      swap2\n      pop\n      pop\n      jump\t// out\n        /* \"#utility.yul\":5559:5716   */\n    tag_243:\n        /* \"#utility.yul\":5699:5708   */\n      0x7265656e74722e00000000000000000000000000000000000000000000000000\n        /* \"#utility.yul\":5695:5696   */\n      0x00\n        /* \"#utility.yul\":5687:5693   */\n      dup3\n        /* \"#utility.yul\":5683:5697   */\n      add\n        /* \"#utility.yul\":5676:5709   */\n      mstore\n        /* \"#utility.yul\":5559:5716   */\n      pop\n      jump\t// out\n        /* \"#utility.yul\":5722:6087   */\n    tag_244:\n        /* \"#utility.yul\":5864:5867   */\n      0x00\n        /* \"#utility.yul\":5885:5951   */\n      tag_322\n        /* \"#utility.yul\":5949:5950   */\n      0x07\n        /* \"#utility.yul\":5944:5947   */\n      dup4\n        /* \"#utility.yul\":5885:5951   */\n      tag_242\n      jump\t// in\n    tag_322:\n        /* \"#utility.yul\":5878:5951   */\n      swap2\n      pop\n        /* \"#utility.yul\":5960:6053   */\n      tag_323\n        /* \"#utility.yul\":6049:6052   */\n      dup3\n        /* \"#utility.yul\":5960:6053   */\n      tag_243\n      jump\t// in\n    tag_323:\n        /* \"#utility.yul\":6078:6080   */\n      0x20\n        /* \"#utility.yul\":6073:6076   */\n      dup3\n        /* \"#utility.yul\":6069:6081   */\n      add\n        /* \"#utility.yul\":6062:6081   */\n      swap1\n      pop\n        /* \"#utility.yul\":5722:6087   */\n      swap2\n      swap1\n      pop\n      jump\t// out\n        /* \"#utility.yul\":6093:6512   */\n    tag_83:\n        /* \"#utility.yul\":6259:6263   */\n      0x00\n        /* \"#utility.yul\":6297:6299   */\n      0x20\n        /* \"#utility.yul\":6286:6295   */\n      dup3\n        /* \"#utility.yul\":6282:6300   */\n      add\n        /* \"#utility.yul\":6274:6300   */\n      swap1\n      pop\n        /* \"#utility.yul\":6346:6355   */\n      dup2\n        /* \"#utility.yul\":6340:6344   */\n      dup2\n        /* \"#utility.yul\":6336:6356   */\n      sub\n        /* \"#utility.yul\":6332:6333   */\n      0x00\n        /* \"#utility.yul\":6321:6330   */\n      dup4\n        /* \"#utility.yul\":6317:6334   */\n      add\n        /* \"#utility.yul\":6310:6357   */\n      mstore\n        /* \"#utility.yul\":6374:6505   */\n      tag_325\n        /* \"#utility.yul\":6500:6504   */\n      dup2\n        /* \"#utility.yul\":6374:6505   */\n      tag_244\n      jump\t// in\n    tag_325:\n        /* \"#utility.yul\":6366:6505   */\n      swap1\n      pop\n        /* \"#utility.yul\":6093:6512   */\n      swap2\n      swap1\n      pop\n      jump\t// out\n        /* \"#utility.yul\":6518:6685   */\n    tag_245:\n        /* \"#utility.yul\":6658:6677   */\n      0x436f6e747261746f20657870697261646f000000000000000000000000000000\n        /* \"#utility.yul\":6654:6655   */\n      0x00\n        /* \"#utility.yul\":6646:6652   */\n      dup3\n        /* \"#utility.yul\":6642:6656   */\n      add\n        /* \"#utility.yul\":6635:6678   */\n      mstore\n        /* \"#utility.yul\":6518:6685   */\n      pop\n      jump\t// out\n        /* \"#utility.yul\":6691:7057   */\n    tag_246:\n        /* \"#utility.yul\":6833:6836   */\n      0x00\n        /* \"#utility.yul\":6854:6921   */\n      tag_328\n        /* \"#utility.yul\":6918:6920   */\n      0x11\n        /* \"#utility.yul\":6913:6916   */\n      dup4\n        /* \"#utility.yul\":6854:6921   */\n      tag_242\n      jump\t// in\n    tag_328:\n        /* \"#utility.yul\":6847:6921   */\n      swap2\n      pop\n        /* \"#utility.yul\":6930:7023   */\n      tag_329\n        /* \"#utility.yul\":7019:7022   */\n      dup3\n        /* \"#utility.yul\":6930:7023   */\n      tag_245\n      jump\t// in\n    tag_329:\n        /* \"#utility.yul\":7048:7050   */\n      0x20\n        /* \"#utility.yul\":7043:7046   */\n      dup3\n        /* \"#utility.yul\":7039:7051   */\n      add\n        /* \"#utility.yul\":7032:7051   */\n      swap1\n      pop\n        /* \"#utility.yul\":6691:7057   */\n      swap2\n      swap1\n      pop\n      jump\t// out\n        /* \"#utility.yul\":7063:7482   */\n    tag_87:\n        /* \"#utility.yul\":7229:7233   */\n      0x00\n        /* \"#utility.yul\":7267:7269   */\n      0x20\n        /* \"#utility.yul\":7256:7265   */\n      dup3\n        /* \"#utility.yul\":7252:7270   */\n      add\n        /* \"#utility.yul\":7244:7270   */\n      swap1\n      pop\n        /* \"#utility.yul\":7316:7325   */\n      dup2\n        /* \"#utility.yul\":7310:7314   */\n      dup2\n        /* \"#utility.yul\":7306:7326   */\n      sub\n        /* \"#utility.yul\":7302:7303   */\n      0x00\n        /* \"#utility.yul\":7291:7300   */\n      dup4\n        /* \"#utility.yul\":7287:7304   */\n      add\n        /* \"#utility.yul\":7280:7327   */\n      mstore\n        /* \"#utility.yul\":7344:7475   */\n      tag_331\n        /* \"#utility.yul\":7470:7474   */\n      dup2\n        /* \"#utility.yul\":7344:7475   */\n      tag_246\n      jump\t// in\n    tag_331:\n        /* \"#utility.yul\":7336:7475   */\n      swap1\n      pop\n        /* \"#utility.yul\":7063:7482   */\n      swap2\n      swap1\n      pop\n      jump\t// out\n        /* \"#utility.yul\":7488:7668   */\n    tag_247:\n        /* \"#utility.yul\":7536:7613   */\n      0x4e487b7100000000000000000000000000000000000000000000000000000000\n        /* \"#utility.yul\":7533:7534   */\n      0x00\n        /* \"#utility.yul\":7526:7614   */\n      mstore\n        /* \"#utility.yul\":7633:7637   */\n      0x11\n        /* \"#utility.yul\":7630:7631   */\n      0x04\n        /* \"#utility.yul\":7623:7638   */\n      mstore\n        /* \"#utility.yul\":7657:7661   */\n      0x24\n        /* \"#utility.yul\":7654:7655   */\n      0x00\n        /* \"#utility.yul\":7647:7662   */\n      revert\n        /* \"#utility.yul\":7674:7865   */\n    tag_90:\n        /* \"#utility.yul\":7714:7717   */\n      0x00\n        /* \"#utility.yul\":7733:7753   */\n      tag_334\n        /* \"#utility.yul\":7751:7752   */\n      dup3\n        /* \"#utility.yul\":7733:7753   */\n      tag_225\n      jump\t// in\n    tag_334:\n        /* \"#utility.yul\":7728:7753   */\n      swap2\n      pop\n        /* \"#utility.yul\":7767:7787   */\n      tag_335\n        /* \"#utility.yul\":7785:7786   */\n      dup4\n        /* \"#utility.yul\":7767:7787   */\n      tag_225\n      jump\t// in\n    tag_335:\n        /* \"#utility.yul\":7762:7787   */\n      swap3\n      pop\n        /* \"#utility.yul\":7810:7811   */\n      dup3\n        /* \"#utility.yul\":7807:7808   */\n      dup3\n        /* \"#utility.yul\":7803:7812   */\n      add\n        /* \"#utility.yul\":7796:7812   */\n      swap1\n      pop\n        /* \"#utility.yul\":7831:7834   */\n      dup1\n        /* \"#utility.yul\":7828:7829   */\n      dup3\n        /* \"#utility.yul\":7825:7835   */\n      gt\n        /* \"#utility.yul\":7822:7858   */\n      iszero\n      tag_336\n      jumpi\n        /* \"#utility.yul\":7838:7856   */\n      tag_337\n      tag_247\n      jump\t// in\n    tag_337:\n        /* \"#utility.yul\":7822:7858   */\n    tag_336:\n        /* \"#utility.yul\":7674:7865   */\n      swap3\n      swap2\n      pop\n      pop\n      jump\t// out\n        /* \"#utility.yul\":7871:8281   */\n    tag_92:\n        /* \"#utility.yul\":7911:7918   */\n      0x00\n        /* \"#utility.yul\":7934:7954   */\n      tag_339\n        /* \"#utility.yul\":7952:7953   */\n      dup3\n        /* \"#utility.yul\":7934:7954   */\n      tag_225\n      jump\t// in\n    tag_339:\n        /* \"#utility.yul\":7929:7954   */\n      swap2\n      pop\n        /* \"#utility.yul\":7968:7988   */\n      tag_340\n        /* \"#utility.yul\":7986:7987   */\n      dup4\n        /* \"#utility.yul\":7968:7988   */\n      tag_225\n      jump\t// in\n    tag_340:\n        /* \"#utility.yul\":7963:7988   */\n      swap3\n      pop\n        /* \"#utility.yul\":8023:8024   */\n      dup3\n        /* \"#utility.yul\":8020:8021   */\n      dup3\n        /* \"#utility.yul\":8016:8025   */\n      mul\n        /* \"#utility.yul\":8045:8075   */\n      tag_341\n        /* \"#utility.yul\":8063:8074   */\n      dup2\n        /* \"#utility.yul\":8045:8075   */\n      tag_225\n      jump\t// in\n    tag_341:\n        /* \"#utility.yul\":8034:8075   */\n      swap2\n      pop\n        /* \"#utility.yul\":8224:8225   */\n      dup3\n        /* \"#utility.yul\":8215:8222   */\n      dup3\n        /* \"#utility.yul\":8211:8226   */\n      div\n        /* \"#utility.yul\":8208:8209   */\n      dup5\n        /* \"#utility.yul\":8205:8227   */\n      eq\n        /* \"#utility.yul\":8185:8186   */\n      dup4\n        /* \"#utility.yul\":8178:8187   */\n      iszero\n        /* \"#utility.yul\":8158:8241   */\n      or\n        /* \"#utility.yul\":8135:8274   */\n      tag_342\n      jumpi\n        /* \"#utility.yul\":8254:8272   */\n      tag_343\n      tag_247\n      jump\t// in\n    tag_343:\n        /* \"#utility.yul\":8135:8274   */\n    tag_342:\n        /* \"#utility.yul\":7919:8281   */\n      pop\n        /* \"#utility.yul\":7871:8281   */\n      swap3\n      swap2\n      pop\n      pop\n      jump\t// out\n        /* \"#utility.yul\":8287:8467   */\n    tag_248:\n        /* \"#utility.yul\":8335:8412   */\n      0x4e487b7100000000000000000000000000000000000000000000000000000000\n        /* \"#utility.yul\":8332:8333   */\n      0x00\n        /* \"#utility.yul\":8325:8413   */\n      mstore\n        /* \"#utility.yul\":8432:8436   */\n      0x12\n        /* \"#utility.yul\":8429:8430   */\n      0x04\n        /* \"#utility.yul\":8422:8437   */\n      mstore\n        /* \"#utility.yul\":8456:8460   */\n      0x24\n        /* \"#utility.yul\":8453:8454   */\n      0x00\n        /* \"#utility.yul\":8446:8461   */\n      revert\n        /* \"#utility.yul\":8473:8658   */\n    tag_94:\n        /* \"#utility.yul\":8513:8514   */\n      0x00\n        /* \"#utility.yul\":8530:8550   */\n      tag_346\n        /* \"#utility.yul\":8548:8549   */\n      dup3\n        /* \"#utility.yul\":8530:8550   */\n      tag_225\n      jump\t// in\n    tag_346:\n        /* \"#utility.yul\":8525:8550   */\n      swap2\n      pop\n        /* \"#utility.yul\":8564:8584   */\n      tag_347\n        /* \"#utility.yul\":8582:8583   */\n      dup4\n        /* \"#utility.yul\":8564:8584   */\n      tag_225\n      jump\t// in\n    tag_347:\n        /* \"#utility.yul\":8559:8584   */\n      swap3\n      pop\n        /* \"#utility.yul\":8603:8604   */\n      dup3\n        /* \"#utility.yul\":8593:8628   */\n      tag_348\n      jumpi\n        /* \"#utility.yul\":8608:8626   */\n      tag_349\n      tag_248\n      jump\t// in\n    tag_349:\n        /* \"#utility.yul\":8593:8628   */\n    tag_348:\n        /* \"#utility.yul\":8650:8651   */\n      dup3\n        /* \"#utility.yul\":8647:8648   */\n      dup3\n        /* \"#utility.yul\":8643:8652   */\n      div\n        /* \"#utility.yul\":8638:8652   */\n      swap1\n      pop\n        /* \"#utility.yul\":8473:8658   */\n      swap3\n      swap2\n      pop\n      pop\n      jump\t// out\n        /* \"#utility.yul\":8664:8903   */\n    tag_249:\n        /* \"#utility.yul\":8804:8838   */\n      0x50756a6120636f6e206d656e6f7320646520352520646520696e6372656d656e\n        /* \"#utility.yul\":8800:8801   */\n      0x00\n        /* \"#utility.yul\":8792:8798   */\n      dup3\n        /* \"#utility.yul\":8788:8802   */\n      add\n        /* \"#utility.yul\":8781:8839   */\n      mstore\n        /* \"#utility.yul\":8873:8895   */\n      0x746f20736f627265206c612067616e61646f7261000000000000000000000000\n        /* \"#utility.yul\":8868:8870   */\n      0x20\n        /* \"#utility.yul\":8860:8866   */\n      dup3\n        /* \"#utility.yul\":8856:8871   */\n      add\n        /* \"#utility.yul\":8849:8896   */\n      mstore\n        /* \"#utility.yul\":8664:8903   */\n      pop\n      jump\t// out\n        /* \"#utility.yul\":8909:9275   */\n    tag_250:\n        /* \"#utility.yul\":9051:9054   */\n      0x00\n        /* \"#utility.yul\":9072:9139   */\n      tag_352\n        /* \"#utility.yul\":9136:9138   */\n      0x34\n        /* \"#utility.yul\":9131:9134   */\n      dup4\n        /* \"#utility.yul\":9072:9139   */\n      tag_242\n      jump\t// in\n    tag_352:\n        /* \"#utility.yul\":9065:9139   */\n      swap2\n      pop\n        /* \"#utility.yul\":9148:9241   */\n      tag_353\n        /* \"#utility.yul\":9237:9240   */\n      dup3\n        /* \"#utility.yul\":9148:9241   */\n      tag_249\n      jump\t// in\n    tag_353:\n        /* \"#utility.yul\":9266:9268   */\n      0x40\n        /* \"#utility.yul\":9261:9264   */\n      dup3\n        /* \"#utility.yul\":9257:9269   */\n      add\n        /* \"#utility.yul\":9250:9269   */\n      swap1\n      pop\n        /* \"#utility.yul\":8909:9275   */\n      swap2\n      swap1\n      pop\n      jump\t// out\n        /* \"#utility.yul\":9281:9700   */\n    tag_97:\n        /* \"#utility.yul\":9447:9451   */\n      0x00\n        /* \"#utility.yul\":9485:9487   */\n      0x20\n        /* \"#utility.yul\":9474:9483   */\n      dup3\n        /* \"#utility.yul\":9470:9488   */\n      add\n        /* \"#utility.yul\":9462:9488   */\n      swap1\n      pop\n        /* \"#utility.yul\":9534:9543   */\n      dup2\n        /* \"#utility.yul\":9528:9532   */\n      dup2\n        /* \"#utility.yul\":9524:9544   */\n      sub\n        /* \"#utility.yul\":9520:9521   */\n      0x00\n        /* \"#utility.yul\":9509:9518   */\n      dup4\n        /* \"#utility.yul\":9505:9522   */\n      add\n        /* \"#utility.yul\":9498:9545   */\n      mstore\n        /* \"#utility.yul\":9562:9693   */\n      tag_355\n        /* \"#utility.yul\":9688:9692   */\n      dup2\n        /* \"#utility.yul\":9562:9693   */\n      tag_250\n      jump\t// in\n    tag_355:\n        /* \"#utility.yul\":9554:9693   */\n      swap1\n      pop\n        /* \"#utility.yul\":9281:9700   */\n      swap2\n      swap1\n      pop\n      jump\t// out\n        /* \"#utility.yul\":9706:9884   */\n    tag_251:\n        /* \"#utility.yul\":9846:9876   */\n      0x5573746564207961207469656e65206c61206d656a6f722070756a6100000000\n        /* \"#utility.yul\":9842:9843   */\n      0x00\n        /* \"#utility.yul\":9834:9840   */\n      dup3\n        /* \"#utility.yul\":9830:9844   */\n      add\n        /* \"#utility.yul\":9823:9877   */\n      mstore\n        /* \"#utility.yul\":9706:9884   */\n      pop\n      jump\t// out\n        /* \"#utility.yul\":9890:10256   */\n    tag_252:\n        /* \"#utility.yul\":10032:10035   */\n      0x00\n        /* \"#utility.yul\":10053:10120   */\n      tag_358\n        /* \"#utility.yul\":10117:10119   */\n      0x1c\n        /* \"#utility.yul\":10112:10115   */\n      dup4\n        /* \"#utility.yul\":10053:10120   */\n      tag_242\n      jump\t// in\n    tag_358:\n        /* \"#utility.yul\":10046:10120   */\n      swap2\n      pop\n        /* \"#utility.yul\":10129:10222   */\n      tag_359\n        /* \"#utility.yul\":10218:10221   */\n      dup3\n        /* \"#utility.yul\":10129:10222   */\n      tag_251\n      jump\t// in\n    tag_359:\n        /* \"#utility.yul\":10247:10249   */\n      0x20\n        /* \"#utility.yul\":10242:10245   */\n      dup3\n        /* \"#utility.yul\":10238:10250   */\n      add\n        /* \"#utility.yul\":10231:10250   */\n      swap1\n      pop\n        /* \"#utility.yul\":9890:10256   */\n      swap2\n      swap1\n      pop\n      jump\t// out\n        /* \"#utility.yul\":10262:10681   */\n    tag_101:\n        /* \"#utility.yul\":10428:10432   */\n      0x00\n        /* \"#utility.yul\":10466:10468   */\n      0x20\n        /* \"#utility.yul\":10455:10464   */\n      dup3\n        /* \"#utility.yul\":10451:10469   */\n      add\n        /* \"#utility.yul\":10443:10469   */\n      swap1\n      pop\n        /* \"#utility.yul\":10515:10524   */\n      dup2\n        /* \"#utility.yul\":10509:10513   */\n      dup2\n        /* \"#utility.yul\":10505:10525   */\n      sub\n        /* \"#utility.yul\":10501:10502   */\n      0x00\n        /* \"#utility.yul\":10490:10499   */\n      dup4\n        /* \"#utility.yul\":10486:10503   */\n      add\n        /* \"#utility.yul\":10479:10526   */\n      mstore\n        /* \"#utility.yul\":10543:10674   */\n      tag_361\n        /* \"#utility.yul\":10669:10673   */\n      dup2\n        /* \"#utility.yul\":10543:10674   */\n      tag_252\n      jump\t// in\n    tag_361:\n        /* \"#utility.yul\":10535:10674   */\n      swap1\n      pop\n        /* \"#utility.yul\":10262:10681   */\n      swap2\n      swap1\n      pop\n      jump\t// out\n        /* \"#utility.yul\":10687:10881   */\n    tag_107:\n        /* \"#utility.yul\":10727:10731   */\n      0x00\n        /* \"#utility.yul\":10747:10767   */\n      tag_363\n        /* \"#utility.yul\":10765:10766   */\n      dup3\n        /* \"#utility.yul\":10747:10767   */\n      tag_225\n      jump\t// in\n    tag_363:\n        /* \"#utility.yul\":10742:10767   */\n      swap2\n      pop\n        /* \"#utility.yul\":10781:10801   */\n      tag_364\n        /* \"#utility.yul\":10799:10800   */\n      dup4\n        /* \"#utility.yul\":10781:10801   */\n      tag_225\n      jump\t// in\n    tag_364:\n        /* \"#utility.yul\":10776:10801   */\n      swap3\n      pop\n        /* \"#utility.yul\":10825:10826   */\n      dup3\n        /* \"#utility.yul\":10822:10823   */\n      dup3\n        /* \"#utility.yul\":10818:10827   */\n      sub\n        /* \"#utility.yul\":10810:10827   */\n      swap1\n      pop\n        /* \"#utility.yul\":10849:10850   */\n      dup2\n        /* \"#utility.yul\":10843:10847   */\n      dup2\n        /* \"#utility.yul\":10840:10851   */\n      gt\n        /* \"#utility.yul\":10837:10874   */\n      iszero\n      tag_365\n      jumpi\n        /* \"#utility.yul\":10854:10872   */\n      tag_366\n      tag_247\n      jump\t// in\n    tag_366:\n        /* \"#utility.yul\":10837:10874   */\n    tag_365:\n        /* \"#utility.yul\":10687:10881   */\n      swap3\n      swap2\n      pop\n      pop\n      jump\t// out\n        /* \"#utility.yul\":10887:11219   */\n    tag_114:\n        /* \"#utility.yul\":11008:11012   */\n      0x00\n        /* \"#utility.yul\":11046:11048   */\n      0x40\n        /* \"#utility.yul\":11035:11044   */\n      dup3\n        /* \"#utility.yul\":11031:11049   */\n      add\n        /* \"#utility.yul\":11023:11049   */\n      swap1\n      pop\n        /* \"#utility.yul\":11059:11130   */\n      tag_368\n        /* \"#utility.yul\":11127:11128   */\n      0x00\n        /* \"#utility.yul\":11116:11125   */\n      dup4\n        /* \"#utility.yul\":11112:11129   */\n      add\n        /* \"#utility.yul\":11103:11109   */\n      dup6\n        /* \"#utility.yul\":11059:11130   */\n      tag_226\n      jump\t// in\n    tag_368:\n        /* \"#utility.yul\":11140:11212   */\n      tag_369\n        /* \"#utility.yul\":11208:11210   */\n      0x20\n        /* \"#utility.yul\":11197:11206   */\n      dup4\n        /* \"#utility.yul\":11193:11211   */\n      add\n        /* \"#utility.yul\":11184:11190   */\n      dup5\n        /* \"#utility.yul\":11140:11212   */\n      tag_226\n      jump\t// in\n    tag_369:\n        /* \"#utility.yul\":10887:11219   */\n      swap4\n      swap3\n      pop\n      pop\n      pop\n      jump\t// out\n        /* \"#utility.yul\":11225:11372   */\n    tag_253:\n        /* \"#utility.yul\":11326:11337   */\n      0x00\n        /* \"#utility.yul\":11363:11366   */\n      dup2\n        /* \"#utility.yul\":11348:11366   */\n      swap1\n      pop\n        /* \"#utility.yul\":11225:11372   */\n      swap3\n      swap2\n      pop\n      pop\n      jump\t// out\n        /* \"#utility.yul\":11378:11492   */\n    tag_254:\n      pop\n      jump\t// out\n        /* \"#utility.yul\":11498:11896   */\n    tag_255:\n        /* \"#utility.yul\":11657:11660   */\n      0x00\n        /* \"#utility.yul\":11678:11761   */\n      tag_373\n        /* \"#utility.yul\":11759:11760   */\n      0x00\n        /* \"#utility.yul\":11754:11757   */\n      dup4\n        /* \"#utility.yul\":11678:11761   */\n      tag_253\n      jump\t// in\n    tag_373:\n        /* \"#utility.yul\":11671:11761   */\n      swap2\n      pop\n        /* \"#utility.yul\":11770:11863   */\n      tag_374\n        /* \"#utility.yul\":11859:11862   */\n      dup3\n        /* \"#utility.yul\":11770:11863   */\n      tag_254\n      jump\t// in\n    tag_374:\n        /* \"#utility.yul\":11888:11889   */\n      0x00\n        /* \"#utility.yul\":11883:11886   */\n      dup3\n        /* \"#utility.yul\":11879:11890   */\n      add\n        /* \"#utility.yul\":11872:11890   */\n      swap1\n      pop\n        /* \"#utility.yul\":11498:11896   */\n      swap2\n      swap1\n      pop\n      jump\t// out\n        /* \"#utility.yul\":11902:12281   */\n    tag_116:\n        /* \"#utility.yul\":12086:12089   */\n      0x00\n        /* \"#utility.yul\":12108:12255   */\n      tag_376\n        /* \"#utility.yul\":12251:12254   */\n      dup3\n        /* \"#utility.yul\":12108:12255   */\n      tag_255\n      jump\t// in\n    tag_376:\n        /* \"#utility.yul\":12101:12255   */\n      swap2\n      pop\n        /* \"#utility.yul\":12272:12275   */\n      dup2\n        /* \"#utility.yul\":12265:12275   */\n      swap1\n      pop\n        /* \"#utility.yul\":11902:12281   */\n      swap2\n      swap1\n      pop\n      jump\t// out\n        /* \"#utility.yul\":12287:12451   */\n    tag_256:\n        /* \"#utility.yul\":12427:12443   */\n      0x526566756e642066616c6c69646f000000000000000000000000000000000000\n        /* \"#utility.yul\":12423:12424   */\n      0x00\n        /* \"#utility.yul\":12415:12421   */\n      dup3\n        /* \"#utility.yul\":12411:12425   */\n      add\n        /* \"#utility.yul\":12404:12444   */\n      mstore\n        /* \"#utility.yul\":12287:12451   */\n      pop\n      jump\t// out\n        /* \"#utility.yul\":12457:12823   */\n    tag_257:\n        /* \"#utility.yul\":12599:12602   */\n      0x00\n        /* \"#utility.yul\":12620:12687   */\n      tag_379\n        /* \"#utility.yul\":12684:12686   */\n      0x0e\n        /* \"#utility.yul\":12679:12682   */\n      dup4\n        /* \"#utility.yul\":12620:12687   */\n      tag_242\n      jump\t// in\n    tag_379:\n        /* \"#utility.yul\":12613:12687   */\n      swap2\n      pop\n        /* \"#utility.yul\":12696:12789   */\n      tag_380\n        /* \"#utility.yul\":12785:12788   */\n      dup3\n        /* \"#utility.yul\":12696:12789   */\n      tag_256\n      jump\t// in\n    tag_380:\n        /* \"#utility.yul\":12814:12816   */\n      0x20\n        /* \"#utility.yul\":12809:12812   */\n      dup3\n        /* \"#utility.yul\":12805:12817   */\n      add\n        /* \"#utility.yul\":12798:12817   */\n      swap1\n      pop\n        /* \"#utility.yul\":12457:12823   */\n      swap2\n      swap1\n      pop\n      jump\t// out\n        /* \"#utility.yul\":12829:13248   */\n    tag_122:\n        /* \"#utility.yul\":12995:12999   */\n      0x00\n        /* \"#utility.yul\":13033:13035   */\n      0x20\n        /* \"#utility.yul\":13022:13031   */\n      dup3\n        /* \"#utility.yul\":13018:13036   */\n      add\n        /* \"#utility.yul\":13010:13036   */\n      swap1\n      pop\n        /* \"#utility.yul\":13082:13091   */\n      dup2\n        /* \"#utility.yul\":13076:13080   */\n      dup2\n        /* \"#utility.yul\":13072:13092   */\n      sub\n        /* \"#utility.yul\":13068:13069   */\n      0x00\n        /* \"#utility.yul\":13057:13066   */\n      dup4\n        /* \"#utility.yul\":13053:13070   */\n      add\n        /* \"#utility.yul\":13046:13093   */\n      mstore\n        /* \"#utility.yul\":13110:13241   */\n      tag_382\n        /* \"#utility.yul\":13236:13240   */\n      dup2\n        /* \"#utility.yul\":13110:13241   */\n      tag_257\n      jump\t// in\n    tag_382:\n        /* \"#utility.yul\":13102:13241   */\n      swap1\n      pop\n        /* \"#utility.yul\":12829:13248   */\n      swap2\n      swap1\n      pop\n      jump\t// out\n        /* \"#utility.yul\":13254:13482   */\n    tag_258:\n        /* \"#utility.yul\":13394:13428   */\n      0x536f6c6f20656c206f776e65722070756564652066696e616c697a6172206c61\n        /* \"#utility.yul\":13390:13391   */\n      0x00\n        /* \"#utility.yul\":13382:13388   */\n      dup3\n        /* \"#utility.yul\":13378:13392   */\n      add\n        /* \"#utility.yul\":13371:13429   */\n      mstore\n        /* \"#utility.yul\":13463:13474   */\n      0x20737562617374612e0000000000000000000000000000000000000000000000\n        /* \"#utility.yul\":13458:13460   */\n      0x20\n        /* \"#utility.yul\":13450:13456   */\n      dup3\n        /* \"#utility.yul\":13446:13461   */\n      add\n        /* \"#utility.yul\":13439:13475   */\n      mstore\n        /* \"#utility.yul\":13254:13482   */\n      pop\n      jump\t// out\n        /* \"#utility.yul\":13488:13854   */\n    tag_259:\n        /* \"#utility.yul\":13630:13633   */\n      0x00\n        /* \"#utility.yul\":13651:13718   */\n      tag_385\n        /* \"#utility.yul\":13715:13717   */\n      0x29\n        /* \"#utility.yul\":13710:13713   */\n      dup4\n        /* \"#utility.yul\":13651:13718   */\n      tag_242\n      jump\t// in\n    tag_385:\n        /* \"#utility.yul\":13644:13718   */\n      swap2\n      pop\n        /* \"#utility.yul\":13727:13820   */\n      tag_386\n        /* \"#utility.yul\":13816:13819   */\n      dup3\n        /* \"#utility.yul\":13727:13820   */\n      tag_258\n      jump\t// in\n    tag_386:\n        /* \"#utility.yul\":13845:13847   */\n      0x40\n        /* \"#utility.yul\":13840:13843   */\n      dup3\n        /* \"#utility.yul\":13836:13848   */\n      add\n        /* \"#utility.yul\":13829:13848   */\n      swap1\n      pop\n        /* \"#utility.yul\":13488:13854   */\n      swap2\n      swap1\n      pop\n      jump\t// out\n        /* \"#utility.yul\":13860:14279   */\n    tag_127:\n        /* \"#utility.yul\":14026:14030   */\n      0x00\n        /* \"#utility.yul\":14064:14066   */\n      0x20\n        /* \"#utility.yul\":14053:14062   */\n      dup3\n        /* \"#utility.yul\":14049:14067   */\n      add\n        /* \"#utility.yul\":14041:14067   */\n      swap1\n      pop\n        /* \"#utility.yul\":14113:14122   */\n      dup2\n        /* \"#utility.yul\":14107:14111   */\n      dup2\n        /* \"#utility.yul\":14103:14123   */\n      sub\n        /* \"#utility.yul\":14099:14100   */\n      0x00\n        /* \"#utility.yul\":14088:14097   */\n      dup4\n        /* \"#utility.yul\":14084:14101   */\n      add\n        /* \"#utility.yul\":14077:14124   */\n      mstore\n        /* \"#utility.yul\":14141:14272   */\n      tag_388\n        /* \"#utility.yul\":14267:14271   */\n      dup2\n        /* \"#utility.yul\":14141:14272   */\n      tag_259\n      jump\t// in\n    tag_388:\n        /* \"#utility.yul\":14133:14272   */\n      swap1\n      pop\n        /* \"#utility.yul\":13860:14279   */\n      swap2\n      swap1\n      pop\n      jump\t// out\n        /* \"#utility.yul\":14285:14465   */\n    tag_260:\n        /* \"#utility.yul\":14425:14457   */\n      0x456c20636f6e747261746f2061756e206e6f20686120657870697261646f0000\n        /* \"#utility.yul\":14421:14422   */\n      0x00\n        /* \"#utility.yul\":14413:14419   */\n      dup3\n        /* \"#utility.yul\":14409:14423   */\n      add\n        /* \"#utility.yul\":14402:14458   */\n      mstore\n        /* \"#utility.yul\":14285:14465   */\n      pop\n      jump\t// out\n        /* \"#utility.yul\":14471:14837   */\n    tag_261:\n        /* \"#utility.yul\":14613:14616   */\n      0x00\n        /* \"#utility.yul\":14634:14701   */\n      tag_391\n        /* \"#utility.yul\":14698:14700   */\n      0x1e\n        /* \"#utility.yul\":14693:14696   */\n      dup4\n        /* \"#utility.yul\":14634:14701   */\n      tag_242\n      jump\t// in\n    tag_391:\n        /* \"#utility.yul\":14627:14701   */\n      swap2\n      pop\n        /* \"#utility.yul\":14710:14803   */\n      tag_392\n        /* \"#utility.yul\":14799:14802   */\n      dup3\n        /* \"#utility.yul\":14710:14803   */\n      tag_260\n      jump\t// in\n    tag_392:\n        /* \"#utility.yul\":14828:14830   */\n      0x20\n        /* \"#utility.yul\":14823:14826   */\n      dup3\n        /* \"#utility.yul\":14819:14831   */\n      add\n        /* \"#utility.yul\":14812:14831   */\n      swap1\n      pop\n        /* \"#utility.yul\":14471:14837   */\n      swap2\n      swap1\n      pop\n      jump\t// out\n        /* \"#utility.yul\":14843:15262   */\n    tag_131:\n        /* \"#utility.yul\":15009:15013   */\n      0x00\n        /* \"#utility.yul\":15047:15049   */\n      0x20\n        /* \"#utility.yul\":15036:15045   */\n      dup3\n        /* \"#utility.yul\":15032:15050   */\n      add\n        /* \"#utility.yul\":15024:15050   */\n      swap1\n      pop\n        /* \"#utility.yul\":15096:15105   */\n      dup2\n        /* \"#utility.yul\":15090:15094   */\n      dup2\n        /* \"#utility.yul\":15086:15106   */\n      sub\n        /* \"#utility.yul\":15082:15083   */\n      0x00\n        /* \"#utility.yul\":15071:15080   */\n      dup4\n        /* \"#utility.yul\":15067:15084   */\n      add\n        /* \"#utility.yul\":15060:15107   */\n      mstore\n        /* \"#utility.yul\":15124:15255   */\n      tag_394\n        /* \"#utility.yul\":15250:15254   */\n      dup2\n        /* \"#utility.yul\":15124:15255   */\n      tag_261\n      jump\t// in\n    tag_394:\n        /* \"#utility.yul\":15116:15255   */\n      swap1\n      pop\n        /* \"#utility.yul\":14843:15262   */\n      swap2\n      swap1\n      pop\n      jump\t// out\n        /* \"#utility.yul\":15268:15435   */\n    tag_262:\n        /* \"#utility.yul\":15408:15427   */\n      0x416c72656164792066696e616c697a6564000000000000000000000000000000\n        /* \"#utility.yul\":15404:15405   */\n      0x00\n        /* \"#utility.yul\":15396:15402   */\n      dup3\n        /* \"#utility.yul\":15392:15406   */\n      add\n        /* \"#utility.yul\":15385:15428   */\n      mstore\n        /* \"#utility.yul\":15268:15435   */\n      pop\n      jump\t// out\n        /* \"#utility.yul\":15441:15807   */\n    tag_263:\n        /* \"#utility.yul\":15583:15586   */\n      0x00\n        /* \"#utility.yul\":15604:15671   */\n      tag_397\n        /* \"#utility.yul\":15668:15670   */\n      0x11\n        /* \"#utility.yul\":15663:15666   */\n      dup4\n        /* \"#utility.yul\":15604:15671   */\n      tag_242\n      jump\t// in\n    tag_397:\n        /* \"#utility.yul\":15597:15671   */\n      swap2\n      pop\n        /* \"#utility.yul\":15680:15773   */\n      tag_398\n        /* \"#utility.yul\":15769:15772   */\n      dup3\n        /* \"#utility.yul\":15680:15773   */\n      tag_262\n      jump\t// in\n    tag_398:\n        /* \"#utility.yul\":15798:15800   */\n      0x20\n        /* \"#utility.yul\":15793:15796   */\n      dup3\n        /* \"#utility.yul\":15789:15801   */\n      add\n        /* \"#utility.yul\":15782:15801   */\n      swap1\n      pop\n        /* \"#utility.yul\":15441:15807   */\n      swap2\n      swap1\n      pop\n      jump\t// out\n        /* \"#utility.yul\":15813:16232   */\n    tag_135:\n        /* \"#utility.yul\":15979:15983   */\n      0x00\n        /* \"#utility.yul\":16017:16019   */\n      0x20\n        /* \"#utility.yul\":16006:16015   */\n      dup3\n        /* \"#utility.yul\":16002:16020   */\n      add\n        /* \"#utility.yul\":15994:16020   */\n      swap1\n      pop\n        /* \"#utility.yul\":16066:16075   */\n      dup2\n        /* \"#utility.yul\":16060:16064   */\n      dup2\n        /* \"#utility.yul\":16056:16076   */\n      sub\n        /* \"#utility.yul\":16052:16053   */\n      0x00\n        /* \"#utility.yul\":16041:16050   */\n      dup4\n        /* \"#utility.yul\":16037:16054   */\n      add\n        /* \"#utility.yul\":16030:16077   */\n      mstore\n        /* \"#utility.yul\":16094:16225   */\n      tag_400\n        /* \"#utility.yul\":16220:16224   */\n      dup2\n        /* \"#utility.yul\":16094:16225   */\n      tag_263\n      jump\t// in\n    tag_400:\n        /* \"#utility.yul\":16086:16225   */\n      swap1\n      pop\n        /* \"#utility.yul\":15813:16232   */\n      swap2\n      swap1\n      pop\n      jump\t// out\n        /* \"#utility.yul\":16238:16411   */\n    tag_264:\n        /* \"#utility.yul\":16378:16403   */\n      0x4e6f20686179206f6665727461207265616c697a616461000000000000000000\n        /* \"#utility.yul\":16374:16375   */\n      0x00\n        /* \"#utility.yul\":16366:16372   */\n      dup3\n        /* \"#utility.yul\":16362:16376   */\n      add\n        /* \"#utility.yul\":16355:16404   */\n      mstore\n        /* \"#utility.yul\":16238:16411   */\n      pop\n      jump\t// out\n        /* \"#utility.yul\":16417:16783   */\n    tag_265:\n        /* \"#utility.yul\":16559:16562   */\n      0x00\n        /* \"#utility.yul\":16580:16647   */\n      tag_403\n        /* \"#utility.yul\":16644:16646   */\n      0x17\n        /* \"#utility.yul\":16639:16642   */\n      dup4\n        /* \"#utility.yul\":16580:16647   */\n      tag_242\n      jump\t// in\n    tag_403:\n        /* \"#utility.yul\":16573:16647   */\n      swap2\n      pop\n        /* \"#utility.yul\":16656:16749   */\n      tag_404\n        /* \"#utility.yul\":16745:16748   */\n      dup3\n        /* \"#utility.yul\":16656:16749   */\n      tag_264\n      jump\t// in\n    tag_404:\n        /* \"#utility.yul\":16774:16776   */\n      0x20\n        /* \"#utility.yul\":16769:16772   */\n      dup3\n        /* \"#utility.yul\":16765:16777   */\n      add\n        /* \"#utility.yul\":16758:16777   */\n      swap1\n      pop\n        /* \"#utility.yul\":16417:16783   */\n      swap2\n      swap1\n      pop\n      jump\t// out\n        /* \"#utility.yul\":16789:17208   */\n    tag_153:\n        /* \"#utility.yul\":16955:16959   */\n      0x00\n        /* \"#utility.yul\":16993:16995   */\n      0x20\n        /* \"#utility.yul\":16982:16991   */\n      dup3\n        /* \"#utility.yul\":16978:16996   */\n      add\n        /* \"#utility.yul\":16970:16996   */\n      swap1\n      pop\n        /* \"#utility.yul\":17042:17051   */\n      dup2\n        /* \"#utility.yul\":17036:17040   */\n      dup2\n        /* \"#utility.yul\":17032:17052   */\n      sub\n        /* \"#utility.yul\":17028:17029   */\n      0x00\n        /* \"#utility.yul\":17017:17026   */\n      dup4\n        /* \"#utility.yul\":17013:17030   */\n      add\n        /* \"#utility.yul\":17006:17053   */\n      mstore\n        /* \"#utility.yul\":17070:17201   */\n      tag_406\n        /* \"#utility.yul\":17196:17200   */\n      dup2\n        /* \"#utility.yul\":17070:17201   */\n      tag_265\n      jump\t// in\n    tag_406:\n        /* \"#utility.yul\":17062:17201   */\n      swap1\n      pop\n        /* \"#utility.yul\":16789:17208   */\n      swap2\n      swap1\n      pop\n      jump\t// out\n        /* \"#utility.yul\":17214:17394   */\n    tag_162:\n        /* \"#utility.yul\":17262:17339   */\n      0x4e487b7100000000000000000000000000000000000000000000000000000000\n        /* \"#utility.yul\":17259:17260   */\n      0x00\n        /* \"#utility.yul\":17252:17340   */\n      mstore\n        /* \"#utility.yul\":17359:17363   */\n      0x32\n        /* \"#utility.yul\":17356:17357   */\n      0x04\n        /* \"#utility.yul\":17349:17364   */\n      mstore\n        /* \"#utility.yul\":17383:17387   */\n      0x24\n        /* \"#utility.yul\":17380:17381   */\n      0x00\n        /* \"#utility.yul\":17373:17388   */\n      revert\n        /* \"#utility.yul\":17400:17580   */\n    tag_174:\n        /* \"#utility.yul\":17448:17525   */\n      0x4e487b7100000000000000000000000000000000000000000000000000000000\n        /* \"#utility.yul\":17445:17446   */\n      0x00\n        /* \"#utility.yul\":17438:17526   */\n      mstore\n        /* \"#utility.yul\":17545:17549   */\n      0x31\n        /* \"#utility.yul\":17542:17543   */\n      0x04\n        /* \"#utility.yul\":17535:17550   */\n      mstore\n        /* \"#utility.yul\":17569:17573   */\n      0x24\n        /* \"#utility.yul\":17566:17567   */\n      0x00\n        /* \"#utility.yul\":17559:17574   */\n      revert\n        /* \"#utility.yul\":17586:17766   */\n    tag_186:\n        /* \"#utility.yul\":17634:17711   */\n      0x4e487b7100000000000000000000000000000000000000000000000000000000\n        /* \"#utility.yul\":17631:17632   */\n      0x00\n        /* \"#utility.yul\":17624:17712   */\n      mstore\n        /* \"#utility.yul\":17731:17735   */\n      0x41\n        /* \"#utility.yul\":17728:17729   */\n      0x04\n        /* \"#utility.yul\":17721:17736   */\n      mstore\n        /* \"#utility.yul\":17755:17759   */\n      0x24\n        /* \"#utility.yul\":17752:17753   */\n      0x00\n        /* \"#utility.yul\":17745:17760   */\n      revert\n        /* \"#utility.yul\":17772:17940   */\n    tag_266:\n        /* \"#utility.yul\":17912:17932   */\n      0x4e6f742066696e616c697a6564207965742e0000000000000000000000000000\n        /* \"#utility.yul\":17908:17909   */\n      0x00\n        /* \"#utility.yul\":17900:17906   */\n      dup3\n        /* \"#utility.yul\":17896:17910   */\n      add\n        /* \"#utility.yul\":17889:17933   */\n      mstore\n        /* \"#utility.yul\":17772:17940   */\n      pop\n      jump\t// out\n        /* \"#utility.yul\":17946:18312   */\n    tag_267:\n        /* \"#utility.yul\":18088:18091   */\n      0x00\n        /* \"#utility.yul\":18109:18176   */\n      tag_412\n        /* \"#utility.yul\":18173:18175   */\n      0x12\n        /* \"#utility.yul\":18168:18171   */\n      dup4\n        /* \"#utility.yul\":18109:18176   */\n      tag_242\n      jump\t// in\n    tag_412:\n        /* \"#utility.yul\":18102:18176   */\n      swap2\n      pop\n        /* \"#utility.yul\":18185:18278   */\n      tag_413\n        /* \"#utility.yul\":18274:18277   */\n      dup3\n        /* \"#utility.yul\":18185:18278   */\n      tag_266\n      jump\t// in\n    tag_413:\n        /* \"#utility.yul\":18303:18305   */\n      0x20\n        /* \"#utility.yul\":18298:18301   */\n      dup3\n        /* \"#utility.yul\":18294:18306   */\n      add\n        /* \"#utility.yul\":18287:18306   */\n      swap1\n      pop\n        /* \"#utility.yul\":17946:18312   */\n      swap2\n      swap1\n      pop\n      jump\t// out\n        /* \"#utility.yul\":18318:18737   */\n    tag_213:\n        /* \"#utility.yul\":18484:18488   */\n      0x00\n        /* \"#utility.yul\":18522:18524   */\n      0x20\n        /* \"#utility.yul\":18511:18520   */\n      dup3\n        /* \"#utility.yul\":18507:18525   */\n      add\n        /* \"#utility.yul\":18499:18525   */\n      swap1\n      pop\n        /* \"#utility.yul\":18571:18580   */\n      dup2\n        /* \"#utility.yul\":18565:18569   */\n      dup2\n        /* \"#utility.yul\":18561:18581   */\n      sub\n        /* \"#utility.yul\":18557:18558   */\n      0x00\n        /* \"#utility.yul\":18546:18555   */\n      dup4\n        /* \"#utility.yul\":18542:18559   */\n      add\n        /* \"#utility.yul\":18535:18582   */\n      mstore\n        /* \"#utility.yul\":18599:18730   */\n      tag_415\n        /* \"#utility.yul\":18725:18729   */\n      dup2\n        /* \"#utility.yul\":18599:18730   */\n      tag_267\n      jump\t// in\n    tag_415:\n        /* \"#utility.yul\":18591:18730   */\n      swap1\n      pop\n        /* \"#utility.yul\":18318:18737   */\n      swap2\n      swap1\n      pop\n      jump\t// out\n        /* \"#utility.yul\":18743:18967   */\n    tag_268:\n        /* \"#utility.yul\":18883:18917   */\n      0x4e6f2068617920666f6e646f732072656d616e656e7465732070617261207265\n        /* \"#utility.yul\":18879:18880   */\n      0x00\n        /* \"#utility.yul\":18871:18877   */\n      dup3\n        /* \"#utility.yul\":18867:18881   */\n      add\n        /* \"#utility.yul\":18860:18918   */\n      mstore\n        /* \"#utility.yul\":18952:18959   */\n      0x7469726172000000000000000000000000000000000000000000000000000000\n        /* \"#utility.yul\":18947:18949   */\n      0x20\n        /* \"#utility.yul\":18939:18945   */\n      dup3\n        /* \"#utility.yul\":18935:18950   */\n      add\n        /* \"#utility.yul\":18928:18960   */\n      mstore\n        /* \"#utility.yul\":18743:18967   */\n      pop\n      jump\t// out\n        /* \"#utility.yul\":18973:19339   */\n    tag_269:\n        /* \"#utility.yul\":19115:19118   */\n      0x00\n        /* \"#utility.yul\":19136:19203   */\n      tag_418\n        /* \"#utility.yul\":19200:19202   */\n      0x25\n        /* \"#utility.yul\":19195:19198   */\n      dup4\n        /* \"#utility.yul\":19136:19203   */\n      tag_242\n      jump\t// in\n    tag_418:\n        /* \"#utility.yul\":19129:19203   */\n      swap2\n      pop\n        /* \"#utility.yul\":19212:19305   */\n      tag_419\n        /* \"#utility.yul\":19301:19304   */\n      dup3\n        /* \"#utility.yul\":19212:19305   */\n      tag_268\n      jump\t// in\n    tag_419:\n        /* \"#utility.yul\":19330:19332   */\n      0x40\n        /* \"#utility.yul\":19325:19328   */\n      dup3\n        /* \"#utility.yul\":19321:19333   */\n      add\n        /* \"#utility.yul\":19314:19333   */\n      swap1\n      pop\n        /* \"#utility.yul\":18973:19339   */\n      swap2\n      swap1\n      pop\n      jump\t// out\n        /* \"#utility.yul\":19345:19764   */\n    tag_217:\n        /* \"#utility.yul\":19511:19515   */\n      0x00\n        /* \"#utility.yul\":19549:19551   */\n      0x20\n        /* \"#utility.yul\":19538:19547   */\n      dup3\n        /* \"#utility.yul\":19534:19552   */\n      add\n        /* \"#utility.yul\":19526:19552   */\n      swap1\n      pop\n        /* \"#utility.yul\":19598:19607   */\n      dup2\n        /* \"#utility.yul\":19592:19596   */\n      dup2\n        /* \"#utility.yul\":19588:19608   */\n      sub\n        /* \"#utility.yul\":19584:19585   */\n      0x00\n        /* \"#utility.yul\":19573:19582   */\n      dup4\n        /* \"#utility.yul\":19569:19586   */\n      add\n        /* \"#utility.yul\":19562:19609   */\n      mstore\n        /* \"#utility.yul\":19626:19757   */\n      tag_421\n        /* \"#utility.yul\":19752:19756   */\n      dup2\n        /* \"#utility.yul\":19626:19757   */\n      tag_269\n      jump\t// in\n    tag_421:\n        /* \"#utility.yul\":19618:19757   */\n      swap1\n      pop\n        /* \"#utility.yul\":19345:19764   */\n      swap2\n      swap1\n      pop\n      jump\t// out\n        /* \"#utility.yul\":19770:19941   */\n    tag_270:\n        /* \"#utility.yul\":19910:19933   */\n      0x5472616e73666572656e6369612066616c6c6964610000000000000000000000\n        /* \"#utility.yul\":19906:19907   */\n      0x00\n        /* \"#utility.yul\":19898:19904   */\n      dup3\n        /* \"#utility.yul\":19894:19908   */\n      add\n        /* \"#utility.yul\":19887:19934   */\n      mstore\n        /* \"#utility.yul\":19770:19941   */\n      pop\n      jump\t// out\n        /* \"#utility.yul\":19947:20313   */\n    tag_271:\n        /* \"#utility.yul\":20089:20092   */\n      0x00\n        /* \"#utility.yul\":20110:20177   */\n      tag_424\n        /* \"#utility.yul\":20174:20176   */\n      0x15\n        /* \"#utility.yul\":20169:20172   */\n      dup4\n        /* \"#utility.yul\":20110:20177   */\n      tag_242\n      jump\t// in\n    tag_424:\n        /* \"#utility.yul\":20103:20177   */\n      swap2\n      pop\n        /* \"#utility.yul\":20186:20279   */\n      tag_425\n        /* \"#utility.yul\":20275:20278   */\n      dup3\n        /* \"#utility.yul\":20186:20279   */\n      tag_270\n      jump\t// in\n    tag_425:\n        /* \"#utility.yul\":20304:20306   */\n      0x20\n        /* \"#utility.yul\":20299:20302   */\n      dup3\n        /* \"#utility.yul\":20295:20307   */\n      add\n        /* \"#utility.yul\":20288:20307   */\n      swap1\n      pop\n        /* \"#utility.yul\":19947:20313   */\n      swap2\n      swap1\n      pop\n      jump\t// out\n        /* \"#utility.yul\":20319:20738   */\n    tag_224:\n        /* \"#utility.yul\":20485:20489   */\n      0x00\n        /* \"#utility.yul\":20523:20525   */\n      0x20\n        /* \"#utility.yul\":20512:20521   */\n      dup3\n        /* \"#utility.yul\":20508:20526   */\n      add\n        /* \"#utility.yul\":20500:20526   */\n      swap1\n      pop\n        /* \"#utility.yul\":20572:20581   */\n      dup2\n        /* \"#utility.yul\":20566:20570   */\n      dup2\n        /* \"#utility.yul\":20562:20582   */\n      sub\n        /* \"#utility.yul\":20558:20559   */\n      0x00\n        /* \"#utility.yul\":20547:20556   */\n      dup4\n        /* \"#utility.yul\":20543:20560   */\n      add\n        /* \"#utility.yul\":20536:20583   */\n      mstore\n        /* \"#utility.yul\":20600:20731   */\n      tag_427\n        /* \"#utility.yul\":20726:20730   */\n      dup2\n        /* \"#utility.yul\":20600:20731   */\n      tag_271\n      jump\t// in\n    tag_427:\n        /* \"#utility.yul\":20592:20731   */\n      swap1\n      pop\n        /* \"#utility.yul\":20319:20738   */\n      swap2\n      swap1\n      pop\n      jump\t// out\n\n    auxdata: 0xa26469706673582212203320b8d0b4bc5afc2b29976e4d363e50a01b0a95958db0dd96961a510a0e08a664736f6c634300081e0033\n}\n",
				"bytecode": {
					"linkReferences": {},
					"object": "610140604052348015610010575f5ffd5b503373ffffffffffffffffffffffffffffffffffffffff1660808173ffffffffffffffffffffffffffffffffffffffff16815250504260a0818152505061038460c0818152505060c05160a05161006791906100ed565b5f81905550670d2f13f7789f0000600281905550600560e081815250505f60045f6101000a81548160ff021916908315150217905550610258610100818152505060026101208181525050610120565b5f819050919050565b7f4e487b71000000000000000000000000000000000000000000000000000000005f52601160045260245ffd5b5f6100f7826100b7565b9150610102836100b7565b925082820190508082111561011a576101196100c0565b5b92915050565b60805160a05160c05160e0516101005161012051611e7861019f5f395f818161068e01528181610cf9015261100e01525f81816107140152818161074801526108e301525f81816103fe015261126d01525f61032b01525f61030701525f8181610907015281816111b30152818161129101526113b40152611e785ff3fe6080604052600436106100e7575f3560e01c80638d0f6da311610089578063c7e284b811610058578063c7e284b814610271578063ceb98f6e1461029b578063d09de08a146102c5578063ee38db95146102ef576100e7565b80638d0f6da3146101c95780638da5cb5b146101f3578063b3f05b971461021d578063c24a0f8b14610247576100e7565b80632d5537b0116100c55780632d5537b0146101495780634bb278f3146101735780634e71d92d14610189578063658612e91461019f576100e7565b80630b97bc86146100eb5780630fb5a6b4146101155780631998aeef1461013f575b5f5ffd5b3480156100f6575f5ffd5b506100ff610305565b60405161010c91906114c3565b60405180910390f35b348015610120575f5ffd5b50610129610329565b60405161013691906114c3565b60405180910390f35b61014761034d565b005b348015610154575f5ffd5b5061015d6108e1565b60405161016a91906114c3565b60405180910390f35b34801561017e575f5ffd5b50610187610905565b005b348015610194575f5ffd5b5061019d610b35565b005b3480156101aa575f5ffd5b506101b361100c565b6040516101c091906114c3565b60405180910390f35b3480156101d4575f5ffd5b506101dd611030565b6040516101ea91906115ff565b60405180910390f35b3480156101fe575f5ffd5b506102076111b1565b604051610214919061162e565b60405180910390f35b348015610228575f5ffd5b506102316111d5565b60405161023e9190611661565b60405180910390f35b348015610252575f5ffd5b5061025b6111e7565b60405161026891906114c3565b60405180910390f35b34801561027c575f5ffd5b506102856111ec565b60405161029291906114c3565b60405180910390f35b3480156102a6575f5ffd5b506102af611210565b6040516102bc91906116a7565b60405180910390f35b3480156102d0575f5ffd5b506102d961126b565b6040516102e691906114c3565b60405180910390f35b3480156102fa575f5ffd5b5061030361128f565b005b7f000000000000000000000000000000000000000000000000000000000000000081565b7f000000000000000000000000000000000000000000000000000000000000000081565b60065f9054906101000a900460ff161561039c576040517f08c379a00000000000000000000000000000000000000000000000000000000081526004016103939061171a565b60405180910390fd5b600160065f6101000a81548160ff0219169083151502179055505f5442106103f9576040517f08c379a00000000000000000000000000000000000000000000000000000000081526004016103f090611782565b60405180910390fd5b6064807f000000000000000000000000000000000000000000000000000000000000000061042791906117cd565b6002546104349190611800565b61043e919061186e565b341161047f576040517f08c379a00000000000000000000000000000000000000000000000000000000081526004016104769061190e565b60405180910390fd5b60015f9054906101000a900473ffffffffffffffffffffffffffffffffffffffff1673ffffffffffffffffffffffffffffffffffffffff163373ffffffffffffffffffffffffffffffffffffffff160361050e576040517f08c379a000000000000000000000000000000000000000000000000000000000815260040161050590611976565b60405180910390fd5b3373ffffffffffffffffffffffffffffffffffffffff167fdd0b6c6a77960e2066c96171b4d7ac9e8b4c184011f38544afa36a5bb63ec59f3460405161055491906114c3565b60405180910390a23360015f6101000a81548173ffffffffffffffffffffffffffffffffffffffff021916908373ffffffffffffffffffffffffffffffffffffffff160217905550346002819055505f60035f3373ffffffffffffffffffffffffffffffffffffffff1673ffffffffffffffffffffffffffffffffffffffff1681526020019081526020015f20540361064857600533908060018154018082558091505060019003905f5260205f20015f9091909190916101000a81548173ffffffffffffffffffffffffffffffffffffffff021916908373ffffffffffffffffffffffffffffffffffffffff1602179055505b5f60035f3373ffffffffffffffffffffffffffffffffffffffff1673ffffffffffffffffffffffffffffffffffffffff1681526020019081526020015f205490505f60647f000000000000000000000000000000000000000000000000000000000000000060646106b99190611994565b836106c49190611800565b6106ce919061186e565b90503460035f3373ffffffffffffffffffffffffffffffffffffffff1673ffffffffffffffffffffffffffffffffffffffff1681526020019081526020015f20819055507f00000000000000000000000000000000000000000000000000000000000000005f5461073f9190611994565b42106107cd575f7f00000000000000000000000000000000000000000000000000000000000000005f5461077391906117cd565b9050805f819055503373ffffffffffffffffffffffffffffffffffffffff167f2241aa88c881d125cce08ef2a8f6bfd221ca46e27736a38f9353622a4303c70582346040516107c39291906119c7565b60405180910390a2505b5f3373ffffffffffffffffffffffffffffffffffffffff16826040516107f290611a1b565b5f6040518083038185875af1925050503d805f811461082c576040519150601f19603f3d011682016040523d82523d5f602084013e610831565b606091505b5050905080610875576040517f08c379a000000000000000000000000000000000000000000000000000000000815260040161086c90611a79565b60405180910390fd5b3373ffffffffffffffffffffffffffffffffffffffff167fdce68997783ae47468b6fb0dd39cca315f9082d51d9ab3df8747c70512aa8ff2836040516108bb91906114c3565b60405180910390a25050505f60065f6101000a81548160ff021916908315150217905550565b7f000000000000000000000000000000000000000000000000000000000000000081565b7f000000000000000000000000000000000000000000000000000000000000000073ffffffffffffffffffffffffffffffffffffffff163373ffffffffffffffffffffffffffffffffffffffff1614610993576040517f08c379a000000000000000000000000000000000000000000000000000000000815260040161098a90611b07565b60405180910390fd5b5f544210156109d7576040517f08c379a00000000000000000000000000000000000000000000000000000000081526004016109ce90611b6f565b60405180910390fd5b60045f9054906101000a900460ff1615610a26576040517f08c379a0000000000000000000000000000000000000000000000000000000008152600401610a1d90611bd7565b60405180910390fd5b60065f9054906101000a900460ff1615610a75576040517f08c379a0000000000000000000000000000000000000000000000000000000008152600401610a6c9061171a565b60405180910390fd5b600160065f6101000a81548160ff021916908315150217905550600160045f6101000a81548160ff02191690831515021790555060015f9054906101000a900473ffffffffffffffffffffffffffffffffffffffff1673ffffffffffffffffffffffffffffffffffffffff167f8b1ad6c69d3d79a05f5b1ec0de825e9bf67c6c70b8c25babd159976cf9990dff600254604051610b1291906114c3565b60405180910390a25f60065f6101000a81548160ff021916908315150217905550565b60065f9054906101000a900460ff1615610b84576040517f08c379a0000000000000000000000000000000000000000000000000000000008152600401610b7b9061171a565b60405180910390fd5b600160065f6101000a81548160ff0219169083151502179055505f54421015610be2576040517f08c379a0000000000000000000000000000000000000000000000000000000008152600401610bd990611b6f565b60405180910390fd5b60015f9054906101000a900473ffffffffffffffffffffffffffffffffffffffff1673ffffffffffffffffffffffffffffffffffffffff163373ffffffffffffffffffffffffffffffffffffffff1603610c71576040517f08c379a0000000000000000000000000000000000000000000000000000000008152600401610c6890611976565b60405180910390fd5b5f60035f3373ffffffffffffffffffffffffffffffffffffffff1673ffffffffffffffffffffffffffffffffffffffff1681526020019081526020015f205490505f8111610cf4576040517f08c379a0000000000000000000000000000000000000000000000000000000008152600401610ceb90611c3f565b60405180910390fd5b5f60647f00000000000000000000000000000000000000000000000000000000000000006064610d249190611994565b83610d2f9190611800565b610d39919061186e565b905060035f3373ffffffffffffffffffffffffffffffffffffffff1673ffffffffffffffffffffffffffffffffffffffff1681526020019081526020015f205f90555f5f90505b600580549050811015610ef7573373ffffffffffffffffffffffffffffffffffffffff1660058281548110610db857610db7611c5d565b5b905f5260205f20015f9054906101000a900473ffffffffffffffffffffffffffffffffffffffff1673ffffffffffffffffffffffffffffffffffffffff1603610eea5760056001600580549050610e0f9190611994565b81548110610e2057610e1f611c5d565b5b905f5260205f20015f9054906101000a900473ffffffffffffffffffffffffffffffffffffffff1660058281548110610e5c57610e5b611c5d565b5b905f5260205f20015f6101000a81548173ffffffffffffffffffffffffffffffffffffffff021916908373ffffffffffffffffffffffffffffffffffffffff1602179055506005805480610eb357610eb2611c8a565b5b600190038181905f5260205f20015f6101000a81549073ffffffffffffffffffffffffffffffffffffffff02191690559055610ef7565b8080600101915050610d80565b505f3373ffffffffffffffffffffffffffffffffffffffff1682604051610f1d90611a1b565b5f6040518083038185875af1925050503d805f8114610f57576040519150601f19603f3d011682016040523d82523d5f602084013e610f5c565b606091505b5050905080610fa0576040517f08c379a0000000000000000000000000000000000000000000000000000000008152600401610f9790611a79565b60405180910390fd5b3373ffffffffffffffffffffffffffffffffffffffff167fbb28353e4598c3b9199101a66e0989549b659a59a54d2c27fbb183f1932c8e6d83604051610fe691906114c3565b60405180910390a25050505f60065f6101000a81548160ff021916908315150217905550565b7f000000000000000000000000000000000000000000000000000000000000000081565b60605f60058054905090505f8167ffffffffffffffff81111561105657611055611cb7565b5b60405190808252806020026020018201604052801561108f57816020015b61107c61147d565b8152602001906001900390816110745790505b5090505f5f90505b828110156111a8576040518060400160405280600583815481106110be576110bd611c5d565b5b905f5260205f20015f9054906101000a900473ffffffffffffffffffffffffffffffffffffffff1673ffffffffffffffffffffffffffffffffffffffff16815260200160035f6005858154811061111857611117611c5d565b5b905f5260205f20015f9054906101000a900473ffffffffffffffffffffffffffffffffffffffff1673ffffffffffffffffffffffffffffffffffffffff1673ffffffffffffffffffffffffffffffffffffffff1681526020019081526020015f20548152508282815181106111905761118f611c5d565b5b60200260200101819052508080600101915050611097565b50809250505090565b7f000000000000000000000000000000000000000000000000000000000000000081565b60045f9054906101000a900460ff1681565b5f5481565b5f5f5442106111fd575f905061120d565b425f5461120a9190611994565b90505b90565b61121861147d565b604051806040016040528060015f9054906101000a900473ffffffffffffffffffffffffffffffffffffffff1673ffffffffffffffffffffffffffffffffffffffff168152602001600254815250905090565b7f000000000000000000000000000000000000000000000000000000000000000081565b7f000000000000000000000000000000000000000000000000000000000000000073ffffffffffffffffffffffffffffffffffffffff163373ffffffffffffffffffffffffffffffffffffffff161461131d576040517f08c379a000000000000000000000000000000000000000000000000000000000815260040161131490611b07565b60405180910390fd5b60045f9054906101000a900460ff1661136b576040517f08c379a000000000000000000000000000000000000000000000000000000000815260040161136290611d2e565b60405180910390fd5b5f4790505f81116113b1576040517f08c379a00000000000000000000000000000000000000000000000000000000081526004016113a890611dbc565b60405180910390fd5b5f7f000000000000000000000000000000000000000000000000000000000000000073ffffffffffffffffffffffffffffffffffffffff16826040516113f690611a1b565b5f6040518083038185875af1925050503d805f8114611430576040519150601f19603f3d011682016040523d82523d5f602084013e611435565b606091505b5050905080611479576040517f08c379a000000000000000000000000000000000000000000000000000000000815260040161147090611e24565b60405180910390fd5b5050565b60405180604001604052805f73ffffffffffffffffffffffffffffffffffffffff1681526020015f81525090565b5f819050919050565b6114bd816114ab565b82525050565b5f6020820190506114d65f8301846114b4565b92915050565b5f81519050919050565b5f82825260208201905092915050565b5f819050602082019050919050565b5f73ffffffffffffffffffffffffffffffffffffffff82169050919050565b5f61152e82611505565b9050919050565b61153e81611524565b82525050565b61154d816114ab565b82525050565b604082015f8201516115675f850182611535565b50602082015161157a6020850182611544565b50505050565b5f61158b8383611553565b60408301905092915050565b5f602082019050919050565b5f6115ad826114dc565b6115b781856114e6565b93506115c2836114f6565b805f5b838110156115f25781516115d98882611580565b97506115e483611597565b9250506001810190506115c5565b5085935050505092915050565b5f6020820190508181035f83015261161781846115a3565b905092915050565b61162881611524565b82525050565b5f6020820190506116415f83018461161f565b92915050565b5f8115159050919050565b61165b81611647565b82525050565b5f6020820190506116745f830184611652565b92915050565b604082015f82015161168e5f850182611535565b5060208201516116a16020850182611544565b50505050565b5f6040820190506116ba5f83018461167a565b92915050565b5f82825260208201905092915050565b7f7265656e74722e000000000000000000000000000000000000000000000000005f82015250565b5f6117046007836116c0565b915061170f826116d0565b602082019050919050565b5f6020820190508181035f830152611731816116f8565b9050919050565b7f436f6e747261746f20657870697261646f0000000000000000000000000000005f82015250565b5f61176c6011836116c0565b915061177782611738565b602082019050919050565b5f6020820190508181035f83015261179981611760565b9050919050565b7f4e487b71000000000000000000000000000000000000000000000000000000005f52601160045260245ffd5b5f6117d7826114ab565b91506117e2836114ab565b92508282019050808211156117fa576117f96117a0565b5b92915050565b5f61180a826114ab565b9150611815836114ab565b9250828202611823816114ab565b9150828204841483151761183a576118396117a0565b5b5092915050565b7f4e487b71000000000000000000000000000000000000000000000000000000005f52601260045260245ffd5b5f611878826114ab565b9150611883836114ab565b92508261189357611892611841565b5b828204905092915050565b7f50756a6120636f6e206d656e6f7320646520352520646520696e6372656d656e5f8201527f746f20736f627265206c612067616e61646f7261000000000000000000000000602082015250565b5f6118f86034836116c0565b91506119038261189e565b604082019050919050565b5f6020820190508181035f830152611925816118ec565b9050919050565b7f5573746564207961207469656e65206c61206d656a6f722070756a61000000005f82015250565b5f611960601c836116c0565b915061196b8261192c565b602082019050919050565b5f6020820190508181035f83015261198d81611954565b9050919050565b5f61199e826114ab565b91506119a9836114ab565b92508282039050818111156119c1576119c06117a0565b5b92915050565b5f6040820190506119da5f8301856114b4565b6119e760208301846114b4565b9392505050565b5f81905092915050565b50565b5f611a065f836119ee565b9150611a11826119f8565b5f82019050919050565b5f611a25826119fb565b9150819050919050565b7f526566756e642066616c6c69646f0000000000000000000000000000000000005f82015250565b5f611a63600e836116c0565b9150611a6e82611a2f565b602082019050919050565b5f6020820190508181035f830152611a9081611a57565b9050919050565b7f536f6c6f20656c206f776e65722070756564652066696e616c697a6172206c615f8201527f20737562617374612e0000000000000000000000000000000000000000000000602082015250565b5f611af16029836116c0565b9150611afc82611a97565b604082019050919050565b5f6020820190508181035f830152611b1e81611ae5565b9050919050565b7f456c20636f6e747261746f2061756e206e6f20686120657870697261646f00005f82015250565b5f611b59601e836116c0565b9150611b6482611b25565b602082019050919050565b5f6020820190508181035f830152611b8681611b4d565b9050919050565b7f416c72656164792066696e616c697a65640000000000000000000000000000005f82015250565b5f611bc16011836116c0565b9150611bcc82611b8d565b602082019050919050565b5f6020820190508181035f830152611bee81611bb5565b9050919050565b7f4e6f20686179206f6665727461207265616c697a6164610000000000000000005f82015250565b5f611c296017836116c0565b9150611c3482611bf5565b602082019050919050565b5f6020820190508181035f830152611c5681611c1d565b9050919050565b7f4e487b71000000000000000000000000000000000000000000000000000000005f52603260045260245ffd5b7f4e487b71000000000000000000000000000000000000000000000000000000005f52603160045260245ffd5b7f4e487b71000000000000000000000000000000000000000000000000000000005f52604160045260245ffd5b7f4e6f742066696e616c697a6564207965742e00000000000000000000000000005f82015250565b5f611d186012836116c0565b9150611d2382611ce4565b602082019050919050565b5f6020820190508181035f830152611d4581611d0c565b9050919050565b7f4e6f2068617920666f6e646f732072656d616e656e74657320706172612072655f8201527f7469726172000000000000000000000000000000000000000000000000000000602082015250565b5f611da66025836116c0565b9150611db182611d4c565b604082019050919050565b5f6020820190508181035f830152611dd381611d9a565b9050919050565b7f5472616e73666572656e6369612066616c6c69646100000000000000000000005f82015250565b5f611e0e6015836116c0565b9150611e1982611dda565b602082019050919050565b5f6020820190508181035f830152611e3b81611e02565b905091905056fea26469706673582212203320b8d0b4bc5afc2b29976e4d363e50a01b0a95958db0dd96961a510a0e08a664736f6c634300081e0033",
					"opcodes": "PUSH2 0x140 PUSH1 0x40 MSTORE CALLVALUE DUP1 ISZERO PUSH2 0x10 JUMPI PUSH0 PUSH0 REVERT JUMPDEST POP CALLER PUSH20 0xFFFFFFFFFFFFFFFFFFFFFFFFFFFFFFFFFFFFFFFF AND PUSH1 0x80 DUP2 PUSH20 0xFFFFFFFFFFFFFFFFFFFFFFFFFFFFFFFFFFFFFFFF AND DUP2 MSTORE POP POP TIMESTAMP PUSH1 0xA0 DUP2 DUP2 MSTORE POP POP PUSH2 0x384 PUSH1 0xC0 DUP2 DUP2 MSTORE POP POP PUSH1 0xC0 MLOAD PUSH1 0xA0 MLOAD PUSH2 0x67 SWAP2 SWAP1 PUSH2 0xED JUMP JUMPDEST PUSH0 DUP2 SWAP1 SSTORE POP PUSH8 0xD2F13F7789F0000 PUSH1 0x2 DUP2 SWAP1 SSTORE POP PUSH1 0x5 PUSH1 0xE0 DUP2 DUP2 MSTORE POP POP PUSH0 PUSH1 0x4 PUSH0 PUSH2 0x100 EXP DUP2 SLOAD DUP2 PUSH1 0xFF MUL NOT AND SWAP1 DUP4 ISZERO ISZERO MUL OR SWAP1 SSTORE POP PUSH2 0x258 PUSH2 0x100 DUP2 DUP2 MSTORE POP POP PUSH1 0x2 PUSH2 0x120 DUP2 DUP2 MSTORE POP POP PUSH2 0x120 JUMP JUMPDEST PUSH0 DUP2 SWAP1 POP SWAP2 SWAP1 POP JUMP JUMPDEST PUSH32 0x4E487B7100000000000000000000000000000000000000000000000000000000 PUSH0 MSTORE PUSH1 0x11 PUSH1 0x4 MSTORE PUSH1 0x24 PUSH0 REVERT JUMPDEST PUSH0 PUSH2 0xF7 DUP3 PUSH2 0xB7 JUMP JUMPDEST SWAP2 POP PUSH2 0x102 DUP4 PUSH2 0xB7 JUMP JUMPDEST SWAP3 POP DUP3 DUP3 ADD SWAP1 POP DUP1 DUP3 GT ISZERO PUSH2 0x11A JUMPI PUSH2 0x119 PUSH2 0xC0 JUMP JUMPDEST JUMPDEST SWAP3 SWAP2 POP POP JUMP JUMPDEST PUSH1 0x80 MLOAD PUSH1 0xA0 MLOAD PUSH1 0xC0 MLOAD PUSH1 0xE0 MLOAD PUSH2 0x100 MLOAD PUSH2 0x120 MLOAD PUSH2 0x1E78 PUSH2 0x19F PUSH0 CODECOPY PUSH0 DUP2 DUP2 PUSH2 0x68E ADD MSTORE DUP2 DUP2 PUSH2 0xCF9 ADD MSTORE PUSH2 0x100E ADD MSTORE PUSH0 DUP2 DUP2 PUSH2 0x714 ADD MSTORE DUP2 DUP2 PUSH2 0x748 ADD MSTORE PUSH2 0x8E3 ADD MSTORE PUSH0 DUP2 DUP2 PUSH2 0x3FE ADD MSTORE PUSH2 0x126D ADD MSTORE PUSH0 PUSH2 0x32B ADD MSTORE PUSH0 PUSH2 0x307 ADD MSTORE PUSH0 DUP2 DUP2 PUSH2 0x907 ADD MSTORE DUP2 DUP2 PUSH2 0x11B3 ADD MSTORE DUP2 DUP2 PUSH2 0x1291 ADD MSTORE PUSH2 0x13B4 ADD MSTORE PUSH2 0x1E78 PUSH0 RETURN INVALID PUSH1 0x80 PUSH1 0x40 MSTORE PUSH1 0x4 CALLDATASIZE LT PUSH2 0xE7 JUMPI PUSH0 CALLDATALOAD PUSH1 0xE0 SHR DUP1 PUSH4 0x8D0F6DA3 GT PUSH2 0x89 JUMPI DUP1 PUSH4 0xC7E284B8 GT PUSH2 0x58 JUMPI DUP1 PUSH4 0xC7E284B8 EQ PUSH2 0x271 JUMPI DUP1 PUSH4 0xCEB98F6E EQ PUSH2 0x29B JUMPI DUP1 PUSH4 0xD09DE08A EQ PUSH2 0x2C5 JUMPI DUP1 PUSH4 0xEE38DB95 EQ PUSH2 0x2EF JUMPI PUSH2 0xE7 JUMP JUMPDEST DUP1 PUSH4 0x8D0F6DA3 EQ PUSH2 0x1C9 JUMPI DUP1 PUSH4 0x8DA5CB5B EQ PUSH2 0x1F3 JUMPI DUP1 PUSH4 0xB3F05B97 EQ PUSH2 0x21D JUMPI DUP1 PUSH4 0xC24A0F8B EQ PUSH2 0x247 JUMPI PUSH2 0xE7 JUMP JUMPDEST DUP1 PUSH4 0x2D5537B0 GT PUSH2 0xC5 JUMPI DUP1 PUSH4 0x2D5537B0 EQ PUSH2 0x149 JUMPI DUP1 PUSH4 0x4BB278F3 EQ PUSH2 0x173 JUMPI DUP1 PUSH4 0x4E71D92D EQ PUSH2 0x189 JUMPI DUP1 PUSH4 0x658612E9 EQ PUSH2 0x19F JUMPI PUSH2 0xE7 JUMP JUMPDEST DUP1 PUSH4 0xB97BC86 EQ PUSH2 0xEB JUMPI DUP1 PUSH4 0xFB5A6B4 EQ PUSH2 0x115 JUMPI DUP1 PUSH4 0x1998AEEF EQ PUSH2 0x13F JUMPI JUMPDEST PUSH0 PUSH0 REVERT JUMPDEST CALLVALUE DUP1 ISZERO PUSH2 0xF6 JUMPI PUSH0 PUSH0 REVERT JUMPDEST POP PUSH2 0xFF PUSH2 0x305 JUMP JUMPDEST PUSH1 0x40 MLOAD PUSH2 0x10C SWAP2 SWAP1 PUSH2 0x14C3 JUMP JUMPDEST PUSH1 0x40 MLOAD DUP1 SWAP2 SUB SWAP1 RETURN JUMPDEST CALLVALUE DUP1 ISZERO PUSH2 0x120 JUMPI PUSH0 PUSH0 REVERT JUMPDEST POP PUSH2 0x129 PUSH2 0x329 JUMP JUMPDEST PUSH1 0x40 MLOAD PUSH2 0x136 SWAP2 SWAP1 PUSH2 0x14C3 JUMP JUMPDEST PUSH1 0x40 MLOAD DUP1 SWAP2 SUB SWAP1 RETURN JUMPDEST PUSH2 0x147 PUSH2 0x34D JUMP JUMPDEST STOP JUMPDEST CALLVALUE DUP1 ISZERO PUSH2 0x154 JUMPI PUSH0 PUSH0 REVERT JUMPDEST POP PUSH2 0x15D PUSH2 0x8E1 JUMP JUMPDEST PUSH1 0x40 MLOAD PUSH2 0x16A SWAP2 SWAP1 PUSH2 0x14C3 JUMP JUMPDEST PUSH1 0x40 MLOAD DUP1 SWAP2 SUB SWAP1 RETURN JUMPDEST CALLVALUE DUP1 ISZERO PUSH2 0x17E JUMPI PUSH0 PUSH0 REVERT JUMPDEST POP PUSH2 0x187 PUSH2 0x905 JUMP JUMPDEST STOP JUMPDEST CALLVALUE DUP1 ISZERO PUSH2 0x194 JUMPI PUSH0 PUSH0 REVERT JUMPDEST POP PUSH2 0x19D PUSH2 0xB35 JUMP JUMPDEST STOP JUMPDEST CALLVALUE DUP1 ISZERO PUSH2 0x1AA JUMPI PUSH0 PUSH0 REVERT JUMPDEST POP PUSH2 0x1B3 PUSH2 0x100C JUMP JUMPDEST PUSH1 0x40 MLOAD PUSH2 0x1C0 SWAP2 SWAP1 PUSH2 0x14C3 JUMP JUMPDEST PUSH1 0x40 MLOAD DUP1 SWAP2 SUB SWAP1 RETURN JUMPDEST CALLVALUE DUP1 ISZERO PUSH2 0x1D4 JUMPI PUSH0 PUSH0 REVERT JUMPDEST POP PUSH2 0x1DD PUSH2 0x1030 JUMP JUMPDEST PUSH1 0x40 MLOAD PUSH2 0x1EA SWAP2 SWAP1 PUSH2 0x15FF JUMP JUMPDEST PUSH1 0x40 MLOAD DUP1 SWAP2 SUB SWAP1 RETURN JUMPDEST CALLVALUE DUP1 ISZERO PUSH2 0x1FE JUMPI PUSH0 PUSH0 REVERT JUMPDEST POP PUSH2 0x207 PUSH2 0x11B1 JUMP JUMPDEST PUSH1 0x40 MLOAD PUSH2 0x214 SWAP2 SWAP1 PUSH2 0x162E JUMP JUMPDEST PUSH1 0x40 MLOAD DUP1 SWAP2 SUB SWAP1 RETURN JUMPDEST CALLVALUE DUP1 ISZERO PUSH2 0x228 JUMPI PUSH0 PUSH0 REVERT JUMPDEST POP PUSH2 0x231 PUSH2 0x11D5 JUMP JUMPDEST PUSH1 0x40 MLOAD PUSH2 0x23E SWAP2 SWAP1 PUSH2 0x1661 JUMP JUMPDEST PUSH1 0x40 MLOAD DUP1 SWAP2 SUB SWAP1 RETURN JUMPDEST CALLVALUE DUP1 ISZERO PUSH2 0x252 JUMPI PUSH0 PUSH0 REVERT JUMPDEST POP PUSH2 0x25B PUSH2 0x11E7 JUMP JUMPDEST PUSH1 0x40 MLOAD PUSH2 0x268 SWAP2 SWAP1 PUSH2 0x14C3 JUMP JUMPDEST PUSH1 0x40 MLOAD DUP1 SWAP2 SUB SWAP1 RETURN JUMPDEST CALLVALUE DUP1 ISZERO PUSH2 0x27C JUMPI PUSH0 PUSH0 REVERT JUMPDEST POP PUSH2 0x285 PUSH2 0x11EC JUMP JUMPDEST PUSH1 0x40 MLOAD PUSH2 0x292 SWAP2 SWAP1 PUSH2 0x14C3 JUMP JUMPDEST PUSH1 0x40 MLOAD DUP1 SWAP2 SUB SWAP1 RETURN JUMPDEST CALLVALUE DUP1 ISZERO PUSH2 0x2A6 JUMPI PUSH0 PUSH0 REVERT JUMPDEST POP PUSH2 0x2AF PUSH2 0x1210 JUMP JUMPDEST PUSH1 0x40 MLOAD PUSH2 0x2BC SWAP2 SWAP1 PUSH2 0x16A7 JUMP JUMPDEST PUSH1 0x40 MLOAD DUP1 SWAP2 SUB SWAP1 RETURN JUMPDEST CALLVALUE DUP1 ISZERO PUSH2 0x2D0 JUMPI PUSH0 PUSH0 REVERT JUMPDEST POP PUSH2 0x2D9 PUSH2 0x126B JUMP JUMPDEST PUSH1 0x40 MLOAD PUSH2 0x2E6 SWAP2 SWAP1 PUSH2 0x14C3 JUMP JUMPDEST PUSH1 0x40 MLOAD DUP1 SWAP2 SUB SWAP1 RETURN JUMPDEST CALLVALUE DUP1 ISZERO PUSH2 0x2FA JUMPI PUSH0 PUSH0 REVERT JUMPDEST POP PUSH2 0x303 PUSH2 0x128F JUMP JUMPDEST STOP JUMPDEST PUSH32 0x0 DUP2 JUMP JUMPDEST PUSH32 0x0 DUP2 JUMP JUMPDEST PUSH1 0x6 PUSH0 SWAP1 SLOAD SWAP1 PUSH2 0x100 EXP SWAP1 DIV PUSH1 0xFF AND ISZERO PUSH2 0x39C JUMPI PUSH1 0x40 MLOAD PUSH32 0x8C379A000000000000000000000000000000000000000000000000000000000 DUP2 MSTORE PUSH1 0x4 ADD PUSH2 0x393 SWAP1 PUSH2 0x171A JUMP JUMPDEST PUSH1 0x40 MLOAD DUP1 SWAP2 SUB SWAP1 REVERT JUMPDEST PUSH1 0x1 PUSH1 0x6 PUSH0 PUSH2 0x100 EXP DUP2 SLOAD DUP2 PUSH1 0xFF MUL NOT AND SWAP1 DUP4 ISZERO ISZERO MUL OR SWAP1 SSTORE POP PUSH0 SLOAD TIMESTAMP LT PUSH2 0x3F9 JUMPI PUSH1 0x40 MLOAD PUSH32 0x8C379A000000000000000000000000000000000000000000000000000000000 DUP2 MSTORE PUSH1 0x4 ADD PUSH2 0x3F0 SWAP1 PUSH2 0x1782 JUMP JUMPDEST PUSH1 0x40 MLOAD DUP1 SWAP2 SUB SWAP1 REVERT JUMPDEST PUSH1 0x64 DUP1 PUSH32 0x0 PUSH2 0x427 SWAP2 SWAP1 PUSH2 0x17CD JUMP JUMPDEST PUSH1 0x2 SLOAD PUSH2 0x434 SWAP2 SWAP1 PUSH2 0x1800 JUMP JUMPDEST PUSH2 0x43E SWAP2 SWAP1 PUSH2 0x186E JUMP JUMPDEST CALLVALUE GT PUSH2 0x47F JUMPI PUSH1 0x40 MLOAD PUSH32 0x8C379A000000000000000000000000000000000000000000000000000000000 DUP2 MSTORE PUSH1 0x4 ADD PUSH2 0x476 SWAP1 PUSH2 0x190E JUMP JUMPDEST PUSH1 0x40 MLOAD DUP1 SWAP2 SUB SWAP1 REVERT JUMPDEST PUSH1 0x1 PUSH0 SWAP1 SLOAD SWAP1 PUSH2 0x100 EXP SWAP1 DIV PUSH20 0xFFFFFFFFFFFFFFFFFFFFFFFFFFFFFFFFFFFFFFFF AND PUSH20 0xFFFFFFFFFFFFFFFFFFFFFFFFFFFFFFFFFFFFFFFF AND CALLER PUSH20 0xFFFFFFFFFFFFFFFFFFFFFFFFFFFFFFFFFFFFFFFF AND SUB PUSH2 0x50E JUMPI PUSH1 0x40 MLOAD PUSH32 0x8C379A000000000000000000000000000000000000000000000000000000000 DUP2 MSTORE PUSH1 0x4 ADD PUSH2 0x505 SWAP1 PUSH2 0x1976 JUMP JUMPDEST PUSH1 0x40 MLOAD DUP1 SWAP2 SUB SWAP1 REVERT JUMPDEST CALLER PUSH20 0xFFFFFFFFFFFFFFFFFFFFFFFFFFFFFFFFFFFFFFFF AND PUSH32 0xDD0B6C6A77960E2066C96171B4D7AC9E8B4C184011F38544AFA36A5BB63EC59F CALLVALUE PUSH1 0x40 MLOAD PUSH2 0x554 SWAP2 SWAP1 PUSH2 0x14C3 JUMP JUMPDEST PUSH1 0x40 MLOAD DUP1 SWAP2 SUB SWAP1 LOG2 CALLER PUSH1 0x1 PUSH0 PUSH2 0x100 EXP DUP2 SLOAD DUP2 PUSH20 0xFFFFFFFFFFFFFFFFFFFFFFFFFFFFFFFFFFFFFFFF MUL NOT AND SWAP1 DUP4 PUSH20 0xFFFFFFFFFFFFFFFFFFFFFFFFFFFFFFFFFFFFFFFF AND MUL OR SWAP1 SSTORE POP CALLVALUE PUSH1 0x2 DUP2 SWAP1 SSTORE POP PUSH0 PUSH1 0x3 PUSH0 CALLER PUSH20 0xFFFFFFFFFFFFFFFFFFFFFFFFFFFFFFFFFFFFFFFF AND PUSH20 0xFFFFFFFFFFFFFFFFFFFFFFFFFFFFFFFFFFFFFFFF AND DUP2 MSTORE PUSH1 0x20 ADD SWAP1 DUP2 MSTORE PUSH1 0x20 ADD PUSH0 KECCAK256 SLOAD SUB PUSH2 0x648 JUMPI PUSH1 0x5 CALLER SWAP1 DUP1 PUSH1 0x1 DUP2 SLOAD ADD DUP1 DUP3 SSTORE DUP1 SWAP2 POP POP PUSH1 0x1 SWAP1 SUB SWAP1 PUSH0 MSTORE PUSH1 0x20 PUSH0 KECCAK256 ADD PUSH0 SWAP1 SWAP2 SWAP1 SWAP2 SWAP1 SWAP2 PUSH2 0x100 EXP DUP2 SLOAD DUP2 PUSH20 0xFFFFFFFFFFFFFFFFFFFFFFFFFFFFFFFFFFFFFFFF MUL NOT AND SWAP1 DUP4 PUSH20 0xFFFFFFFFFFFFFFFFFFFFFFFFFFFFFFFFFFFFFFFF AND MUL OR SWAP1 SSTORE POP JUMPDEST PUSH0 PUSH1 0x3 PUSH0 CALLER PUSH20 0xFFFFFFFFFFFFFFFFFFFFFFFFFFFFFFFFFFFFFFFF AND PUSH20 0xFFFFFFFFFFFFFFFFFFFFFFFFFFFFFFFFFFFFFFFF AND DUP2 MSTORE PUSH1 0x20 ADD SWAP1 DUP2 MSTORE PUSH1 0x20 ADD PUSH0 KECCAK256 SLOAD SWAP1 POP PUSH0 PUSH1 0x64 PUSH32 0x0 PUSH1 0x64 PUSH2 0x6B9 SWAP2 SWAP1 PUSH2 0x1994 JUMP JUMPDEST DUP4 PUSH2 0x6C4 SWAP2 SWAP1 PUSH2 0x1800 JUMP JUMPDEST PUSH2 0x6CE SWAP2 SWAP1 PUSH2 0x186E JUMP JUMPDEST SWAP1 POP CALLVALUE PUSH1 0x3 PUSH0 CALLER PUSH20 0xFFFFFFFFFFFFFFFFFFFFFFFFFFFFFFFFFFFFFFFF AND PUSH20 0xFFFFFFFFFFFFFFFFFFFFFFFFFFFFFFFFFFFFFFFF AND DUP2 MSTORE PUSH1 0x20 ADD SWAP1 DUP2 MSTORE PUSH1 0x20 ADD PUSH0 KECCAK256 DUP2 SWAP1 SSTORE POP PUSH32 0x0 PUSH0 SLOAD PUSH2 0x73F SWAP2 SWAP1 PUSH2 0x1994 JUMP JUMPDEST TIMESTAMP LT PUSH2 0x7CD JUMPI PUSH0 PUSH32 0x0 PUSH0 SLOAD PUSH2 0x773 SWAP2 SWAP1 PUSH2 0x17CD JUMP JUMPDEST SWAP1 POP DUP1 PUSH0 DUP2 SWAP1 SSTORE POP CALLER PUSH20 0xFFFFFFFFFFFFFFFFFFFFFFFFFFFFFFFFFFFFFFFF AND PUSH32 0x2241AA88C881D125CCE08EF2A8F6BFD221CA46E27736A38F9353622A4303C705 DUP3 CALLVALUE PUSH1 0x40 MLOAD PUSH2 0x7C3 SWAP3 SWAP2 SWAP1 PUSH2 0x19C7 JUMP JUMPDEST PUSH1 0x40 MLOAD DUP1 SWAP2 SUB SWAP1 LOG2 POP JUMPDEST PUSH0 CALLER PUSH20 0xFFFFFFFFFFFFFFFFFFFFFFFFFFFFFFFFFFFFFFFF AND DUP3 PUSH1 0x40 MLOAD PUSH2 0x7F2 SWAP1 PUSH2 0x1A1B JUMP JUMPDEST PUSH0 PUSH1 0x40 MLOAD DUP1 DUP4 SUB DUP2 DUP6 DUP8 GAS CALL SWAP3 POP POP POP RETURNDATASIZE DUP1 PUSH0 DUP2 EQ PUSH2 0x82C JUMPI PUSH1 0x40 MLOAD SWAP2 POP PUSH1 0x1F NOT PUSH1 0x3F RETURNDATASIZE ADD AND DUP3 ADD PUSH1 0x40 MSTORE RETURNDATASIZE DUP3 MSTORE RETURNDATASIZE PUSH0 PUSH1 0x20 DUP5 ADD RETURNDATACOPY PUSH2 0x831 JUMP JUMPDEST PUSH1 0x60 SWAP2 POP JUMPDEST POP POP SWAP1 POP DUP1 PUSH2 0x875 JUMPI PUSH1 0x40 MLOAD PUSH32 0x8C379A000000000000000000000000000000000000000000000000000000000 DUP2 MSTORE PUSH1 0x4 ADD PUSH2 0x86C SWAP1 PUSH2 0x1A79 JUMP JUMPDEST PUSH1 0x40 MLOAD DUP1 SWAP2 SUB SWAP1 REVERT JUMPDEST CALLER PUSH20 0xFFFFFFFFFFFFFFFFFFFFFFFFFFFFFFFFFFFFFFFF AND PUSH32 0xDCE68997783AE47468B6FB0DD39CCA315F9082D51D9AB3DF8747C70512AA8FF2 DUP4 PUSH1 0x40 MLOAD PUSH2 0x8BB SWAP2 SWAP1 PUSH2 0x14C3 JUMP JUMPDEST PUSH1 0x40 MLOAD DUP1 SWAP2 SUB SWAP1 LOG2 POP POP POP PUSH0 PUSH1 0x6 PUSH0 PUSH2 0x100 EXP DUP2 SLOAD DUP2 PUSH1 0xFF MUL NOT AND SWAP1 DUP4 ISZERO ISZERO MUL OR SWAP1 SSTORE POP JUMP JUMPDEST PUSH32 0x0 DUP2 JUMP JUMPDEST PUSH32 0x0 PUSH20 0xFFFFFFFFFFFFFFFFFFFFFFFFFFFFFFFFFFFFFFFF AND CALLER PUSH20 0xFFFFFFFFFFFFFFFFFFFFFFFFFFFFFFFFFFFFFFFF AND EQ PUSH2 0x993 JUMPI PUSH1 0x40 MLOAD PUSH32 0x8C379A000000000000000000000000000000000000000000000000000000000 DUP2 MSTORE PUSH1 0x4 ADD PUSH2 0x98A SWAP1 PUSH2 0x1B07 JUMP JUMPDEST PUSH1 0x40 MLOAD DUP1 SWAP2 SUB SWAP1 REVERT JUMPDEST PUSH0 SLOAD TIMESTAMP LT ISZERO PUSH2 0x9D7 JUMPI PUSH1 0x40 MLOAD PUSH32 0x8C379A000000000000000000000000000000000000000000000000000000000 DUP2 MSTORE PUSH1 0x4 ADD PUSH2 0x9CE SWAP1 PUSH2 0x1B6F JUMP JUMPDEST PUSH1 0x40 MLOAD DUP1 SWAP2 SUB SWAP1 REVERT JUMPDEST PUSH1 0x4 PUSH0 SWAP1 SLOAD SWAP1 PUSH2 0x100 EXP SWAP1 DIV PUSH1 0xFF AND ISZERO PUSH2 0xA26 JUMPI PUSH1 0x40 MLOAD PUSH32 0x8C379A000000000000000000000000000000000000000000000000000000000 DUP2 MSTORE PUSH1 0x4 ADD PUSH2 0xA1D SWAP1 PUSH2 0x1BD7 JUMP JUMPDEST PUSH1 0x40 MLOAD DUP1 SWAP2 SUB SWAP1 REVERT JUMPDEST PUSH1 0x6 PUSH0 SWAP1 SLOAD SWAP1 PUSH2 0x100 EXP SWAP1 DIV PUSH1 0xFF AND ISZERO PUSH2 0xA75 JUMPI PUSH1 0x40 MLOAD PUSH32 0x8C379A000000000000000000000000000000000000000000000000000000000 DUP2 MSTORE PUSH1 0x4 ADD PUSH2 0xA6C SWAP1 PUSH2 0x171A JUMP JUMPDEST PUSH1 0x40 MLOAD DUP1 SWAP2 SUB SWAP1 REVERT JUMPDEST PUSH1 0x1 PUSH1 0x6 PUSH0 PUSH2 0x100 EXP DUP2 SLOAD DUP2 PUSH1 0xFF MUL NOT AND SWAP1 DUP4 ISZERO ISZERO MUL OR SWAP1 SSTORE POP PUSH1 0x1 PUSH1 0x4 PUSH0 PUSH2 0x100 EXP DUP2 SLOAD DUP2 PUSH1 0xFF MUL NOT AND SWAP1 DUP4 ISZERO ISZERO MUL OR SWAP1 SSTORE POP PUSH1 0x1 PUSH0 SWAP1 SLOAD SWAP1 PUSH2 0x100 EXP SWAP1 DIV PUSH20 0xFFFFFFFFFFFFFFFFFFFFFFFFFFFFFFFFFFFFFFFF AND PUSH20 0xFFFFFFFFFFFFFFFFFFFFFFFFFFFFFFFFFFFFFFFF AND PUSH32 0x8B1AD6C69D3D79A05F5B1EC0DE825E9BF67C6C70B8C25BABD159976CF9990DFF PUSH1 0x2 SLOAD PUSH1 0x40 MLOAD PUSH2 0xB12 SWAP2 SWAP1 PUSH2 0x14C3 JUMP JUMPDEST PUSH1 0x40 MLOAD DUP1 SWAP2 SUB SWAP1 LOG2 PUSH0 PUSH1 0x6 PUSH0 PUSH2 0x100 EXP DUP2 SLOAD DUP2 PUSH1 0xFF MUL NOT AND SWAP1 DUP4 ISZERO ISZERO MUL OR SWAP1 SSTORE POP JUMP JUMPDEST PUSH1 0x6 PUSH0 SWAP1 SLOAD SWAP1 PUSH2 0x100 EXP SWAP1 DIV PUSH1 0xFF AND ISZERO PUSH2 0xB84 JUMPI PUSH1 0x40 MLOAD PUSH32 0x8C379A000000000000000000000000000000000000000000000000000000000 DUP2 MSTORE PUSH1 0x4 ADD PUSH2 0xB7B SWAP1 PUSH2 0x171A JUMP JUMPDEST PUSH1 0x40 MLOAD DUP1 SWAP2 SUB SWAP1 REVERT JUMPDEST PUSH1 0x1 PUSH1 0x6 PUSH0 PUSH2 0x100 EXP DUP2 SLOAD DUP2 PUSH1 0xFF MUL NOT AND SWAP1 DUP4 ISZERO ISZERO MUL OR SWAP1 SSTORE POP PUSH0 SLOAD TIMESTAMP LT ISZERO PUSH2 0xBE2 JUMPI PUSH1 0x40 MLOAD PUSH32 0x8C379A000000000000000000000000000000000000000000000000000000000 DUP2 MSTORE PUSH1 0x4 ADD PUSH2 0xBD9 SWAP1 PUSH2 0x1B6F JUMP JUMPDEST PUSH1 0x40 MLOAD DUP1 SWAP2 SUB SWAP1 REVERT JUMPDEST PUSH1 0x1 PUSH0 SWAP1 SLOAD SWAP1 PUSH2 0x100 EXP SWAP1 DIV PUSH20 0xFFFFFFFFFFFFFFFFFFFFFFFFFFFFFFFFFFFFFFFF AND PUSH20 0xFFFFFFFFFFFFFFFFFFFFFFFFFFFFFFFFFFFFFFFF AND CALLER PUSH20 0xFFFFFFFFFFFFFFFFFFFFFFFFFFFFFFFFFFFFFFFF AND SUB PUSH2 0xC71 JUMPI PUSH1 0x40 MLOAD PUSH32 0x8C379A000000000000000000000000000000000000000000000000000000000 DUP2 MSTORE PUSH1 0x4 ADD PUSH2 0xC68 SWAP1 PUSH2 0x1976 JUMP JUMPDEST PUSH1 0x40 MLOAD DUP1 SWAP2 SUB SWAP1 REVERT JUMPDEST PUSH0 PUSH1 0x3 PUSH0 CALLER PUSH20 0xFFFFFFFFFFFFFFFFFFFFFFFFFFFFFFFFFFFFFFFF AND PUSH20 0xFFFFFFFFFFFFFFFFFFFFFFFFFFFFFFFFFFFFFFFF AND DUP2 MSTORE PUSH1 0x20 ADD SWAP1 DUP2 MSTORE PUSH1 0x20 ADD PUSH0 KECCAK256 SLOAD SWAP1 POP PUSH0 DUP2 GT PUSH2 0xCF4 JUMPI PUSH1 0x40 MLOAD PUSH32 0x8C379A000000000000000000000000000000000000000000000000000000000 DUP2 MSTORE PUSH1 0x4 ADD PUSH2 0xCEB SWAP1 PUSH2 0x1C3F JUMP JUMPDEST PUSH1 0x40 MLOAD DUP1 SWAP2 SUB SWAP1 REVERT JUMPDEST PUSH0 PUSH1 0x64 PUSH32 0x0 PUSH1 0x64 PUSH2 0xD24 SWAP2 SWAP1 PUSH2 0x1994 JUMP JUMPDEST DUP4 PUSH2 0xD2F SWAP2 SWAP1 PUSH2 0x1800 JUMP JUMPDEST PUSH2 0xD39 SWAP2 SWAP1 PUSH2 0x186E JUMP JUMPDEST SWAP1 POP PUSH1 0x3 PUSH0 CALLER PUSH20 0xFFFFFFFFFFFFFFFFFFFFFFFFFFFFFFFFFFFFFFFF AND PUSH20 0xFFFFFFFFFFFFFFFFFFFFFFFFFFFFFFFFFFFFFFFF AND DUP2 MSTORE PUSH1 0x20 ADD SWAP1 DUP2 MSTORE PUSH1 0x20 ADD PUSH0 KECCAK256 PUSH0 SWAP1 SSTORE PUSH0 PUSH0 SWAP1 POP JUMPDEST PUSH1 0x5 DUP1 SLOAD SWAP1 POP DUP2 LT ISZERO PUSH2 0xEF7 JUMPI CALLER PUSH20 0xFFFFFFFFFFFFFFFFFFFFFFFFFFFFFFFFFFFFFFFF AND PUSH1 0x5 DUP3 DUP2 SLOAD DUP2 LT PUSH2 0xDB8 JUMPI PUSH2 0xDB7 PUSH2 0x1C5D JUMP JUMPDEST JUMPDEST SWAP1 PUSH0 MSTORE PUSH1 0x20 PUSH0 KECCAK256 ADD PUSH0 SWAP1 SLOAD SWAP1 PUSH2 0x100 EXP SWAP1 DIV PUSH20 0xFFFFFFFFFFFFFFFFFFFFFFFFFFFFFFFFFFFFFFFF AND PUSH20 0xFFFFFFFFFFFFFFFFFFFFFFFFFFFFFFFFFFFFFFFF AND SUB PUSH2 0xEEA JUMPI PUSH1 0x5 PUSH1 0x1 PUSH1 0x5 DUP1 SLOAD SWAP1 POP PUSH2 0xE0F SWAP2 SWAP1 PUSH2 0x1994 JUMP JUMPDEST DUP2 SLOAD DUP2 LT PUSH2 0xE20 JUMPI PUSH2 0xE1F PUSH2 0x1C5D JUMP JUMPDEST JUMPDEST SWAP1 PUSH0 MSTORE PUSH1 0x20 PUSH0 KECCAK256 ADD PUSH0 SWAP1 SLOAD SWAP1 PUSH2 0x100 EXP SWAP1 DIV PUSH20 0xFFFFFFFFFFFFFFFFFFFFFFFFFFFFFFFFFFFFFFFF AND PUSH1 0x5 DUP3 DUP2 SLOAD DUP2 LT PUSH2 0xE5C JUMPI PUSH2 0xE5B PUSH2 0x1C5D JUMP JUMPDEST JUMPDEST SWAP1 PUSH0 MSTORE PUSH1 0x20 PUSH0 KECCAK256 ADD PUSH0 PUSH2 0x100 EXP DUP2 SLOAD DUP2 PUSH20 0xFFFFFFFFFFFFFFFFFFFFFFFFFFFFFFFFFFFFFFFF MUL NOT AND SWAP1 DUP4 PUSH20 0xFFFFFFFFFFFFFFFFFFFFFFFFFFFFFFFFFFFFFFFF AND MUL OR SWAP1 SSTORE POP PUSH1 0x5 DUP1 SLOAD DUP1 PUSH2 0xEB3 JUMPI PUSH2 0xEB2 PUSH2 0x1C8A JUMP JUMPDEST JUMPDEST PUSH1 0x1 SWAP1 SUB DUP2 DUP2 SWAP1 PUSH0 MSTORE PUSH1 0x20 PUSH0 KECCAK256 ADD PUSH0 PUSH2 0x100 EXP DUP2 SLOAD SWAP1 PUSH20 0xFFFFFFFFFFFFFFFFFFFFFFFFFFFFFFFFFFFFFFFF MUL NOT AND SWAP1 SSTORE SWAP1 SSTORE PUSH2 0xEF7 JUMP JUMPDEST DUP1 DUP1 PUSH1 0x1 ADD SWAP2 POP POP PUSH2 0xD80 JUMP JUMPDEST POP PUSH0 CALLER PUSH20 0xFFFFFFFFFFFFFFFFFFFFFFFFFFFFFFFFFFFFFFFF AND DUP3 PUSH1 0x40 MLOAD PUSH2 0xF1D SWAP1 PUSH2 0x1A1B JUMP JUMPDEST PUSH0 PUSH1 0x40 MLOAD DUP1 DUP4 SUB DUP2 DUP6 DUP8 GAS CALL SWAP3 POP POP POP RETURNDATASIZE DUP1 PUSH0 DUP2 EQ PUSH2 0xF57 JUMPI PUSH1 0x40 MLOAD SWAP2 POP PUSH1 0x1F NOT PUSH1 0x3F RETURNDATASIZE ADD AND DUP3 ADD PUSH1 0x40 MSTORE RETURNDATASIZE DUP3 MSTORE RETURNDATASIZE PUSH0 PUSH1 0x20 DUP5 ADD RETURNDATACOPY PUSH2 0xF5C JUMP JUMPDEST PUSH1 0x60 SWAP2 POP JUMPDEST POP POP SWAP1 POP DUP1 PUSH2 0xFA0 JUMPI PUSH1 0x40 MLOAD PUSH32 0x8C379A000000000000000000000000000000000000000000000000000000000 DUP2 MSTORE PUSH1 0x4 ADD PUSH2 0xF97 SWAP1 PUSH2 0x1A79 JUMP JUMPDEST PUSH1 0x40 MLOAD DUP1 SWAP2 SUB SWAP1 REVERT JUMPDEST CALLER PUSH20 0xFFFFFFFFFFFFFFFFFFFFFFFFFFFFFFFFFFFFFFFF AND PUSH32 0xBB28353E4598C3B9199101A66E0989549B659A59A54D2C27FBB183F1932C8E6D DUP4 PUSH1 0x40 MLOAD PUSH2 0xFE6 SWAP2 SWAP1 PUSH2 0x14C3 JUMP JUMPDEST PUSH1 0x40 MLOAD DUP1 SWAP2 SUB SWAP1 LOG2 POP POP POP PUSH0 PUSH1 0x6 PUSH0 PUSH2 0x100 EXP DUP2 SLOAD DUP2 PUSH1 0xFF MUL NOT AND SWAP1 DUP4 ISZERO ISZERO MUL OR SWAP1 SSTORE POP JUMP JUMPDEST PUSH32 0x0 DUP2 JUMP JUMPDEST PUSH1 0x60 PUSH0 PUSH1 0x5 DUP1 SLOAD SWAP1 POP SWAP1 POP PUSH0 DUP2 PUSH8 0xFFFFFFFFFFFFFFFF DUP2 GT ISZERO PUSH2 0x1056 JUMPI PUSH2 0x1055 PUSH2 0x1CB7 JUMP JUMPDEST JUMPDEST PUSH1 0x40 MLOAD SWAP1 DUP1 DUP3 MSTORE DUP1 PUSH1 0x20 MUL PUSH1 0x20 ADD DUP3 ADD PUSH1 0x40 MSTORE DUP1 ISZERO PUSH2 0x108F JUMPI DUP2 PUSH1 0x20 ADD JUMPDEST PUSH2 0x107C PUSH2 0x147D JUMP JUMPDEST DUP2 MSTORE PUSH1 0x20 ADD SWAP1 PUSH1 0x1 SWAP1 SUB SWAP1 DUP2 PUSH2 0x1074 JUMPI SWAP1 POP JUMPDEST POP SWAP1 POP PUSH0 PUSH0 SWAP1 POP JUMPDEST DUP3 DUP2 LT ISZERO PUSH2 0x11A8 JUMPI PUSH1 0x40 MLOAD DUP1 PUSH1 0x40 ADD PUSH1 0x40 MSTORE DUP1 PUSH1 0x5 DUP4 DUP2 SLOAD DUP2 LT PUSH2 0x10BE JUMPI PUSH2 0x10BD PUSH2 0x1C5D JUMP JUMPDEST JUMPDEST SWAP1 PUSH0 MSTORE PUSH1 0x20 PUSH0 KECCAK256 ADD PUSH0 SWAP1 SLOAD SWAP1 PUSH2 0x100 EXP SWAP1 DIV PUSH20 0xFFFFFFFFFFFFFFFFFFFFFFFFFFFFFFFFFFFFFFFF AND PUSH20 0xFFFFFFFFFFFFFFFFFFFFFFFFFFFFFFFFFFFFFFFF AND DUP2 MSTORE PUSH1 0x20 ADD PUSH1 0x3 PUSH0 PUSH1 0x5 DUP6 DUP2 SLOAD DUP2 LT PUSH2 0x1118 JUMPI PUSH2 0x1117 PUSH2 0x1C5D JUMP JUMPDEST JUMPDEST SWAP1 PUSH0 MSTORE PUSH1 0x20 PUSH0 KECCAK256 ADD PUSH0 SWAP1 SLOAD SWAP1 PUSH2 0x100 EXP SWAP1 DIV PUSH20 0xFFFFFFFFFFFFFFFFFFFFFFFFFFFFFFFFFFFFFFFF AND PUSH20 0xFFFFFFFFFFFFFFFFFFFFFFFFFFFFFFFFFFFFFFFF AND PUSH20 0xFFFFFFFFFFFFFFFFFFFFFFFFFFFFFFFFFFFFFFFF AND DUP2 MSTORE PUSH1 0x20 ADD SWAP1 DUP2 MSTORE PUSH1 0x20 ADD PUSH0 KECCAK256 SLOAD DUP2 MSTORE POP DUP3 DUP3 DUP2 MLOAD DUP2 LT PUSH2 0x1190 JUMPI PUSH2 0x118F PUSH2 0x1C5D JUMP JUMPDEST JUMPDEST PUSH1 0x20 MUL PUSH1 0x20 ADD ADD DUP2 SWAP1 MSTORE POP DUP1 DUP1 PUSH1 0x1 ADD SWAP2 POP POP PUSH2 0x1097 JUMP JUMPDEST POP DUP1 SWAP3 POP POP POP SWAP1 JUMP JUMPDEST PUSH32 0x0 DUP2 JUMP JUMPDEST PUSH1 0x4 PUSH0 SWAP1 SLOAD SWAP1 PUSH2 0x100 EXP SWAP1 DIV PUSH1 0xFF AND DUP2 JUMP JUMPDEST PUSH0 SLOAD DUP2 JUMP JUMPDEST PUSH0 PUSH0 SLOAD TIMESTAMP LT PUSH2 0x11FD JUMPI PUSH0 SWAP1 POP PUSH2 0x120D JUMP JUMPDEST TIMESTAMP PUSH0 SLOAD PUSH2 0x120A SWAP2 SWAP1 PUSH2 0x1994 JUMP JUMPDEST SWAP1 POP JUMPDEST SWAP1 JUMP JUMPDEST PUSH2 0x1218 PUSH2 0x147D JUMP JUMPDEST PUSH1 0x40 MLOAD DUP1 PUSH1 0x40 ADD PUSH1 0x40 MSTORE DUP1 PUSH1 0x1 PUSH0 SWAP1 SLOAD SWAP1 PUSH2 0x100 EXP SWAP1 DIV PUSH20 0xFFFFFFFFFFFFFFFFFFFFFFFFFFFFFFFFFFFFFFFF AND PUSH20 0xFFFFFFFFFFFFFFFFFFFFFFFFFFFFFFFFFFFFFFFF AND DUP2 MSTORE PUSH1 0x20 ADD PUSH1 0x2 SLOAD DUP2 MSTORE POP SWAP1 POP SWAP1 JUMP JUMPDEST PUSH32 0x0 DUP2 JUMP JUMPDEST PUSH32 0x0 PUSH20 0xFFFFFFFFFFFFFFFFFFFFFFFFFFFFFFFFFFFFFFFF AND CALLER PUSH20 0xFFFFFFFFFFFFFFFFFFFFFFFFFFFFFFFFFFFFFFFF AND EQ PUSH2 0x131D JUMPI PUSH1 0x40 MLOAD PUSH32 0x8C379A000000000000000000000000000000000000000000000000000000000 DUP2 MSTORE PUSH1 0x4 ADD PUSH2 0x1314 SWAP1 PUSH2 0x1B07 JUMP JUMPDEST PUSH1 0x40 MLOAD DUP1 SWAP2 SUB SWAP1 REVERT JUMPDEST PUSH1 0x4 PUSH0 SWAP1 SLOAD SWAP1 PUSH2 0x100 EXP SWAP1 DIV PUSH1 0xFF AND PUSH2 0x136B JUMPI PUSH1 0x40 MLOAD PUSH32 0x8C379A000000000000000000000000000000000000000000000000000000000 DUP2 MSTORE PUSH1 0x4 ADD PUSH2 0x1362 SWAP1 PUSH2 0x1D2E JUMP JUMPDEST PUSH1 0x40 MLOAD DUP1 SWAP2 SUB SWAP1 REVERT JUMPDEST PUSH0 SELFBALANCE SWAP1 POP PUSH0 DUP2 GT PUSH2 0x13B1 JUMPI PUSH1 0x40 MLOAD PUSH32 0x8C379A000000000000000000000000000000000000000000000000000000000 DUP2 MSTORE PUSH1 0x4 ADD PUSH2 0x13A8 SWAP1 PUSH2 0x1DBC JUMP JUMPDEST PUSH1 0x40 MLOAD DUP1 SWAP2 SUB SWAP1 REVERT JUMPDEST PUSH0 PUSH32 0x0 PUSH20 0xFFFFFFFFFFFFFFFFFFFFFFFFFFFFFFFFFFFFFFFF AND DUP3 PUSH1 0x40 MLOAD PUSH2 0x13F6 SWAP1 PUSH2 0x1A1B JUMP JUMPDEST PUSH0 PUSH1 0x40 MLOAD DUP1 DUP4 SUB DUP2 DUP6 DUP8 GAS CALL SWAP3 POP POP POP RETURNDATASIZE DUP1 PUSH0 DUP2 EQ PUSH2 0x1430 JUMPI PUSH1 0x40 MLOAD SWAP2 POP PUSH1 0x1F NOT PUSH1 0x3F RETURNDATASIZE ADD AND DUP3 ADD PUSH1 0x40 MSTORE RETURNDATASIZE DUP3 MSTORE RETURNDATASIZE PUSH0 PUSH1 0x20 DUP5 ADD RETURNDATACOPY PUSH2 0x1435 JUMP JUMPDEST PUSH1 0x60 SWAP2 POP JUMPDEST POP POP SWAP1 POP DUP1 PUSH2 0x1479 JUMPI PUSH1 0x40 MLOAD PUSH32 0x8C379A000000000000000000000000000000000000000000000000000000000 DUP2 MSTORE PUSH1 0x4 ADD PUSH2 0x1470 SWAP1 PUSH2 0x1E24 JUMP JUMPDEST PUSH1 0x40 MLOAD DUP1 SWAP2 SUB SWAP1 REVERT JUMPDEST POP POP JUMP JUMPDEST PUSH1 0x40 MLOAD DUP1 PUSH1 0x40 ADD PUSH1 0x40 MSTORE DUP1 PUSH0 PUSH20 0xFFFFFFFFFFFFFFFFFFFFFFFFFFFFFFFFFFFFFFFF AND DUP2 MSTORE PUSH1 0x20 ADD PUSH0 DUP2 MSTORE POP SWAP1 JUMP JUMPDEST PUSH0 DUP2 SWAP1 POP SWAP2 SWAP1 POP JUMP JUMPDEST PUSH2 0x14BD DUP2 PUSH2 0x14AB JUMP JUMPDEST DUP3 MSTORE POP POP JUMP JUMPDEST PUSH0 PUSH1 0x20 DUP3 ADD SWAP1 POP PUSH2 0x14D6 PUSH0 DUP4 ADD DUP5 PUSH2 0x14B4 JUMP JUMPDEST SWAP3 SWAP2 POP POP JUMP JUMPDEST PUSH0 DUP2 MLOAD SWAP1 POP SWAP2 SWAP1 POP JUMP JUMPDEST PUSH0 DUP3 DUP3 MSTORE PUSH1 0x20 DUP3 ADD SWAP1 POP SWAP3 SWAP2 POP POP JUMP JUMPDEST PUSH0 DUP2 SWAP1 POP PUSH1 0x20 DUP3 ADD SWAP1 POP SWAP2 SWAP1 POP JUMP JUMPDEST PUSH0 PUSH20 0xFFFFFFFFFFFFFFFFFFFFFFFFFFFFFFFFFFFFFFFF DUP3 AND SWAP1 POP SWAP2 SWAP1 POP JUMP JUMPDEST PUSH0 PUSH2 0x152E DUP3 PUSH2 0x1505 JUMP JUMPDEST SWAP1 POP SWAP2 SWAP1 POP JUMP JUMPDEST PUSH2 0x153E DUP2 PUSH2 0x1524 JUMP JUMPDEST DUP3 MSTORE POP POP JUMP JUMPDEST PUSH2 0x154D DUP2 PUSH2 0x14AB JUMP JUMPDEST DUP3 MSTORE POP POP JUMP JUMPDEST PUSH1 0x40 DUP3 ADD PUSH0 DUP3 ADD MLOAD PUSH2 0x1567 PUSH0 DUP6 ADD DUP3 PUSH2 0x1535 JUMP JUMPDEST POP PUSH1 0x20 DUP3 ADD MLOAD PUSH2 0x157A PUSH1 0x20 DUP6 ADD DUP3 PUSH2 0x1544 JUMP JUMPDEST POP POP POP POP JUMP JUMPDEST PUSH0 PUSH2 0x158B DUP4 DUP4 PUSH2 0x1553 JUMP JUMPDEST PUSH1 0x40 DUP4 ADD SWAP1 POP SWAP3 SWAP2 POP POP JUMP JUMPDEST PUSH0 PUSH1 0x20 DUP3 ADD SWAP1 POP SWAP2 SWAP1 POP JUMP JUMPDEST PUSH0 PUSH2 0x15AD DUP3 PUSH2 0x14DC JUMP JUMPDEST PUSH2 0x15B7 DUP2 DUP6 PUSH2 0x14E6 JUMP JUMPDEST SWAP4 POP PUSH2 0x15C2 DUP4 PUSH2 0x14F6 JUMP JUMPDEST DUP1 PUSH0 JUMPDEST DUP4 DUP2 LT ISZERO PUSH2 0x15F2 JUMPI DUP2 MLOAD PUSH2 0x15D9 DUP9 DUP3 PUSH2 0x1580 JUMP JUMPDEST SWAP8 POP PUSH2 0x15E4 DUP4 PUSH2 0x1597 JUMP JUMPDEST SWAP3 POP POP PUSH1 0x1 DUP2 ADD SWAP1 POP PUSH2 0x15C5 JUMP JUMPDEST POP DUP6 SWAP4 POP POP POP POP SWAP3 SWAP2 POP POP JUMP JUMPDEST PUSH0 PUSH1 0x20 DUP3 ADD SWAP1 POP DUP2 DUP2 SUB PUSH0 DUP4 ADD MSTORE PUSH2 0x1617 DUP2 DUP5 PUSH2 0x15A3 JUMP JUMPDEST SWAP1 POP SWAP3 SWAP2 POP POP JUMP JUMPDEST PUSH2 0x1628 DUP2 PUSH2 0x1524 JUMP JUMPDEST DUP3 MSTORE POP POP JUMP JUMPDEST PUSH0 PUSH1 0x20 DUP3 ADD SWAP1 POP PUSH2 0x1641 PUSH0 DUP4 ADD DUP5 PUSH2 0x161F JUMP JUMPDEST SWAP3 SWAP2 POP POP JUMP JUMPDEST PUSH0 DUP2 ISZERO ISZERO SWAP1 POP SWAP2 SWAP1 POP JUMP JUMPDEST PUSH2 0x165B DUP2 PUSH2 0x1647 JUMP JUMPDEST DUP3 MSTORE POP POP JUMP JUMPDEST PUSH0 PUSH1 0x20 DUP3 ADD SWAP1 POP PUSH2 0x1674 PUSH0 DUP4 ADD DUP5 PUSH2 0x1652 JUMP JUMPDEST SWAP3 SWAP2 POP POP JUMP JUMPDEST PUSH1 0x40 DUP3 ADD PUSH0 DUP3 ADD MLOAD PUSH2 0x168E PUSH0 DUP6 ADD DUP3 PUSH2 0x1535 JUMP JUMPDEST POP PUSH1 0x20 DUP3 ADD MLOAD PUSH2 0x16A1 PUSH1 0x20 DUP6 ADD DUP3 PUSH2 0x1544 JUMP JUMPDEST POP POP POP POP JUMP JUMPDEST PUSH0 PUSH1 0x40 DUP3 ADD SWAP1 POP PUSH2 0x16BA PUSH0 DUP4 ADD DUP5 PUSH2 0x167A JUMP JUMPDEST SWAP3 SWAP2 POP POP JUMP JUMPDEST PUSH0 DUP3 DUP3 MSTORE PUSH1 0x20 DUP3 ADD SWAP1 POP SWAP3 SWAP2 POP POP JUMP JUMPDEST PUSH32 0x7265656E74722E00000000000000000000000000000000000000000000000000 PUSH0 DUP3 ADD MSTORE POP JUMP JUMPDEST PUSH0 PUSH2 0x1704 PUSH1 0x7 DUP4 PUSH2 0x16C0 JUMP JUMPDEST SWAP2 POP PUSH2 0x170F DUP3 PUSH2 0x16D0 JUMP JUMPDEST PUSH1 0x20 DUP3 ADD SWAP1 POP SWAP2 SWAP1 POP JUMP JUMPDEST PUSH0 PUSH1 0x20 DUP3 ADD SWAP1 POP DUP2 DUP2 SUB PUSH0 DUP4 ADD MSTORE PUSH2 0x1731 DUP2 PUSH2 0x16F8 JUMP JUMPDEST SWAP1 POP SWAP2 SWAP1 POP JUMP JUMPDEST PUSH32 0x436F6E747261746F20657870697261646F000000000000000000000000000000 PUSH0 DUP3 ADD MSTORE POP JUMP JUMPDEST PUSH0 PUSH2 0x176C PUSH1 0x11 DUP4 PUSH2 0x16C0 JUMP JUMPDEST SWAP2 POP PUSH2 0x1777 DUP3 PUSH2 0x1738 JUMP JUMPDEST PUSH1 0x20 DUP3 ADD SWAP1 POP SWAP2 SWAP1 POP JUMP JUMPDEST PUSH0 PUSH1 0x20 DUP3 ADD SWAP1 POP DUP2 DUP2 SUB PUSH0 DUP4 ADD MSTORE PUSH2 0x1799 DUP2 PUSH2 0x1760 JUMP JUMPDEST SWAP1 POP SWAP2 SWAP1 POP JUMP JUMPDEST PUSH32 0x4E487B7100000000000000000000000000000000000000000000000000000000 PUSH0 MSTORE PUSH1 0x11 PUSH1 0x4 MSTORE PUSH1 0x24 PUSH0 REVERT JUMPDEST PUSH0 PUSH2 0x17D7 DUP3 PUSH2 0x14AB JUMP JUMPDEST SWAP2 POP PUSH2 0x17E2 DUP4 PUSH2 0x14AB JUMP JUMPDEST SWAP3 POP DUP3 DUP3 ADD SWAP1 POP DUP1 DUP3 GT ISZERO PUSH2 0x17FA JUMPI PUSH2 0x17F9 PUSH2 0x17A0 JUMP JUMPDEST JUMPDEST SWAP3 SWAP2 POP POP JUMP JUMPDEST PUSH0 PUSH2 0x180A DUP3 PUSH2 0x14AB JUMP JUMPDEST SWAP2 POP PUSH2 0x1815 DUP4 PUSH2 0x14AB JUMP JUMPDEST SWAP3 POP DUP3 DUP3 MUL PUSH2 0x1823 DUP2 PUSH2 0x14AB JUMP JUMPDEST SWAP2 POP DUP3 DUP3 DIV DUP5 EQ DUP4 ISZERO OR PUSH2 0x183A JUMPI PUSH2 0x1839 PUSH2 0x17A0 JUMP JUMPDEST JUMPDEST POP SWAP3 SWAP2 POP POP JUMP JUMPDEST PUSH32 0x4E487B7100000000000000000000000000000000000000000000000000000000 PUSH0 MSTORE PUSH1 0x12 PUSH1 0x4 MSTORE PUSH1 0x24 PUSH0 REVERT JUMPDEST PUSH0 PUSH2 0x1878 DUP3 PUSH2 0x14AB JUMP JUMPDEST SWAP2 POP PUSH2 0x1883 DUP4 PUSH2 0x14AB JUMP JUMPDEST SWAP3 POP DUP3 PUSH2 0x1893 JUMPI PUSH2 0x1892 PUSH2 0x1841 JUMP JUMPDEST JUMPDEST DUP3 DUP3 DIV SWAP1 POP SWAP3 SWAP2 POP POP JUMP JUMPDEST PUSH32 0x50756A6120636F6E206D656E6F7320646520352520646520696E6372656D656E PUSH0 DUP3 ADD MSTORE PUSH32 0x746F20736F627265206C612067616E61646F7261000000000000000000000000 PUSH1 0x20 DUP3 ADD MSTORE POP JUMP JUMPDEST PUSH0 PUSH2 0x18F8 PUSH1 0x34 DUP4 PUSH2 0x16C0 JUMP JUMPDEST SWAP2 POP PUSH2 0x1903 DUP3 PUSH2 0x189E JUMP JUMPDEST PUSH1 0x40 DUP3 ADD SWAP1 POP SWAP2 SWAP1 POP JUMP JUMPDEST PUSH0 PUSH1 0x20 DUP3 ADD SWAP1 POP DUP2 DUP2 SUB PUSH0 DUP4 ADD MSTORE PUSH2 0x1925 DUP2 PUSH2 0x18EC JUMP JUMPDEST SWAP1 POP SWAP2 SWAP1 POP JUMP JUMPDEST PUSH32 0x5573746564207961207469656E65206C61206D656A6F722070756A6100000000 PUSH0 DUP3 ADD MSTORE POP JUMP JUMPDEST PUSH0 PUSH2 0x1960 PUSH1 0x1C DUP4 PUSH2 0x16C0 JUMP JUMPDEST SWAP2 POP PUSH2 0x196B DUP3 PUSH2 0x192C JUMP JUMPDEST PUSH1 0x20 DUP3 ADD SWAP1 POP SWAP2 SWAP1 POP JUMP JUMPDEST PUSH0 PUSH1 0x20 DUP3 ADD SWAP1 POP DUP2 DUP2 SUB PUSH0 DUP4 ADD MSTORE PUSH2 0x198D DUP2 PUSH2 0x1954 JUMP JUMPDEST SWAP1 POP SWAP2 SWAP1 POP JUMP JUMPDEST PUSH0 PUSH2 0x199E DUP3 PUSH2 0x14AB JUMP JUMPDEST SWAP2 POP PUSH2 0x19A9 DUP4 PUSH2 0x14AB JUMP JUMPDEST SWAP3 POP DUP3 DUP3 SUB SWAP1 POP DUP2 DUP2 GT ISZERO PUSH2 0x19C1 JUMPI PUSH2 0x19C0 PUSH2 0x17A0 JUMP JUMPDEST JUMPDEST SWAP3 SWAP2 POP POP JUMP JUMPDEST PUSH0 PUSH1 0x40 DUP3 ADD SWAP1 POP PUSH2 0x19DA PUSH0 DUP4 ADD DUP6 PUSH2 0x14B4 JUMP JUMPDEST PUSH2 0x19E7 PUSH1 0x20 DUP4 ADD DUP5 PUSH2 0x14B4 JUMP JUMPDEST SWAP4 SWAP3 POP POP POP JUMP JUMPDEST PUSH0 DUP2 SWAP1 POP SWAP3 SWAP2 POP POP JUMP JUMPDEST POP JUMP JUMPDEST PUSH0 PUSH2 0x1A06 PUSH0 DUP4 PUSH2 0x19EE JUMP JUMPDEST SWAP2 POP PUSH2 0x1A11 DUP3 PUSH2 0x19F8 JUMP JUMPDEST PUSH0 DUP3 ADD SWAP1 POP SWAP2 SWAP1 POP JUMP JUMPDEST PUSH0 PUSH2 0x1A25 DUP3 PUSH2 0x19FB JUMP JUMPDEST SWAP2 POP DUP2 SWAP1 POP SWAP2 SWAP1 POP JUMP JUMPDEST PUSH32 0x526566756E642066616C6C69646F000000000000000000000000000000000000 PUSH0 DUP3 ADD MSTORE POP JUMP JUMPDEST PUSH0 PUSH2 0x1A63 PUSH1 0xE DUP4 PUSH2 0x16C0 JUMP JUMPDEST SWAP2 POP PUSH2 0x1A6E DUP3 PUSH2 0x1A2F JUMP JUMPDEST PUSH1 0x20 DUP3 ADD SWAP1 POP SWAP2 SWAP1 POP JUMP JUMPDEST PUSH0 PUSH1 0x20 DUP3 ADD SWAP1 POP DUP2 DUP2 SUB PUSH0 DUP4 ADD MSTORE PUSH2 0x1A90 DUP2 PUSH2 0x1A57 JUMP JUMPDEST SWAP1 POP SWAP2 SWAP1 POP JUMP JUMPDEST PUSH32 0x536F6C6F20656C206F776E65722070756564652066696E616C697A6172206C61 PUSH0 DUP3 ADD MSTORE PUSH32 0x20737562617374612E0000000000000000000000000000000000000000000000 PUSH1 0x20 DUP3 ADD MSTORE POP JUMP JUMPDEST PUSH0 PUSH2 0x1AF1 PUSH1 0x29 DUP4 PUSH2 0x16C0 JUMP JUMPDEST SWAP2 POP PUSH2 0x1AFC DUP3 PUSH2 0x1A97 JUMP JUMPDEST PUSH1 0x40 DUP3 ADD SWAP1 POP SWAP2 SWAP1 POP JUMP JUMPDEST PUSH0 PUSH1 0x20 DUP3 ADD SWAP1 POP DUP2 DUP2 SUB PUSH0 DUP4 ADD MSTORE PUSH2 0x1B1E DUP2 PUSH2 0x1AE5 JUMP JUMPDEST SWAP1 POP SWAP2 SWAP1 POP JUMP JUMPDEST PUSH32 0x456C20636F6E747261746F2061756E206E6F20686120657870697261646F0000 PUSH0 DUP3 ADD MSTORE POP JUMP JUMPDEST PUSH0 PUSH2 0x1B59 PUSH1 0x1E DUP4 PUSH2 0x16C0 JUMP JUMPDEST SWAP2 POP PUSH2 0x1B64 DUP3 PUSH2 0x1B25 JUMP JUMPDEST PUSH1 0x20 DUP3 ADD SWAP1 POP SWAP2 SWAP1 POP JUMP JUMPDEST PUSH0 PUSH1 0x20 DUP3 ADD SWAP1 POP DUP2 DUP2 SUB PUSH0 DUP4 ADD MSTORE PUSH2 0x1B86 DUP2 PUSH2 0x1B4D JUMP JUMPDEST SWAP1 POP SWAP2 SWAP1 POP JUMP JUMPDEST PUSH32 0x416C72656164792066696E616C697A6564000000000000000000000000000000 PUSH0 DUP3 ADD MSTORE POP JUMP JUMPDEST PUSH0 PUSH2 0x1BC1 PUSH1 0x11 DUP4 PUSH2 0x16C0 JUMP JUMPDEST SWAP2 POP PUSH2 0x1BCC DUP3 PUSH2 0x1B8D JUMP JUMPDEST PUSH1 0x20 DUP3 ADD SWAP1 POP SWAP2 SWAP1 POP JUMP JUMPDEST PUSH0 PUSH1 0x20 DUP3 ADD SWAP1 POP DUP2 DUP2 SUB PUSH0 DUP4 ADD MSTORE PUSH2 0x1BEE DUP2 PUSH2 0x1BB5 JUMP JUMPDEST SWAP1 POP SWAP2 SWAP1 POP JUMP JUMPDEST PUSH32 0x4E6F20686179206F6665727461207265616C697A616461000000000000000000 PUSH0 DUP3 ADD MSTORE POP JUMP JUMPDEST PUSH0 PUSH2 0x1C29 PUSH1 0x17 DUP4 PUSH2 0x16C0 JUMP JUMPDEST SWAP2 POP PUSH2 0x1C34 DUP3 PUSH2 0x1BF5 JUMP JUMPDEST PUSH1 0x20 DUP3 ADD SWAP1 POP SWAP2 SWAP1 POP JUMP JUMPDEST PUSH0 PUSH1 0x20 DUP3 ADD SWAP1 POP DUP2 DUP2 SUB PUSH0 DUP4 ADD MSTORE PUSH2 0x1C56 DUP2 PUSH2 0x1C1D JUMP JUMPDEST SWAP1 POP SWAP2 SWAP1 POP JUMP JUMPDEST PUSH32 0x4E487B7100000000000000000000000000000000000000000000000000000000 PUSH0 MSTORE PUSH1 0x32 PUSH1 0x4 MSTORE PUSH1 0x24 PUSH0 REVERT JUMPDEST PUSH32 0x4E487B7100000000000000000000000000000000000000000000000000000000 PUSH0 MSTORE PUSH1 0x31 PUSH1 0x4 MSTORE PUSH1 0x24 PUSH0 REVERT JUMPDEST PUSH32 0x4E487B7100000000000000000000000000000000000000000000000000000000 PUSH0 MSTORE PUSH1 0x41 PUSH1 0x4 MSTORE PUSH1 0x24 PUSH0 REVERT JUMPDEST PUSH32 0x4E6F742066696E616C697A6564207965742E0000000000000000000000000000 PUSH0 DUP3 ADD MSTORE POP JUMP JUMPDEST PUSH0 PUSH2 0x1D18 PUSH1 0x12 DUP4 PUSH2 0x16C0 JUMP JUMPDEST SWAP2 POP PUSH2 0x1D23 DUP3 PUSH2 0x1CE4 JUMP JUMPDEST PUSH1 0x20 DUP3 ADD SWAP1 POP SWAP2 SWAP1 POP JUMP JUMPDEST PUSH0 PUSH1 0x20 DUP3 ADD SWAP1 POP DUP2 DUP2 SUB PUSH0 DUP4 ADD MSTORE PUSH2 0x1D45 DUP2 PUSH2 0x1D0C JUMP JUMPDEST SWAP1 POP SWAP2 SWAP1 POP JUMP JUMPDEST PUSH32 0x4E6F2068617920666F6E646F732072656D616E656E7465732070617261207265 PUSH0 DUP3 ADD MSTORE PUSH32 0x7469726172000000000000000000000000000000000000000000000000000000 PUSH1 0x20 DUP3 ADD MSTORE POP JUMP JUMPDEST PUSH0 PUSH2 0x1DA6 PUSH1 0x25 DUP4 PUSH2 0x16C0 JUMP JUMPDEST SWAP2 POP PUSH2 0x1DB1 DUP3 PUSH2 0x1D4C JUMP JUMPDEST PUSH1 0x40 DUP3 ADD SWAP1 POP SWAP2 SWAP1 POP JUMP JUMPDEST PUSH0 PUSH1 0x20 DUP3 ADD SWAP1 POP DUP2 DUP2 SUB PUSH0 DUP4 ADD MSTORE PUSH2 0x1DD3 DUP2 PUSH2 0x1D9A JUMP JUMPDEST SWAP1 POP SWAP2 SWAP1 POP JUMP JUMPDEST PUSH32 0x5472616E73666572656E6369612066616C6C6964610000000000000000000000 PUSH0 DUP3 ADD MSTORE POP JUMP JUMPDEST PUSH0 PUSH2 0x1E0E PUSH1 0x15 DUP4 PUSH2 0x16C0 JUMP JUMPDEST SWAP2 POP PUSH2 0x1E19 DUP3 PUSH2 0x1DDA JUMP JUMPDEST PUSH1 0x20 DUP3 ADD SWAP1 POP SWAP2 SWAP1 POP JUMP JUMPDEST PUSH0 PUSH1 0x20 DUP3 ADD SWAP1 POP DUP2 DUP2 SUB PUSH0 DUP4 ADD MSTORE PUSH2 0x1E3B DUP2 PUSH2 0x1E02 JUMP JUMPDEST SWAP1 POP SWAP2 SWAP1 POP JUMP INVALID LOG2 PUSH5 0x6970667358 0x22 SLT KECCAK256 CALLER KECCAK256 0xB8 0xD0 0xB4 0xBC GAS 0xFC 0x2B 0x29 SWAP8 PUSH15 0x4D363E50A01B0A95958DB0DD96961A MLOAD EXP 0xE ADDMOD 0xA6 PUSH5 0x736F6C6343 STOP ADDMOD 0x1E STOP CALLER "
				},
				"gasEstimates": {
					"creation": {
						"codeDepositCost": "1560000",
						"executionCost": "infinite",
						"totalCost": "infinite"
					},
					"external": {
						"bid()": "infinite",
						"claim()": "infinite",
						"duration()": "infinite",
						"endDate()": "2513",
						"extension()": "infinite",
						"finalize()": "infinite",
						"finalized()": "2533",
						"gasFee()": "infinite",
						"getAllBids()": "infinite",
						"getTimeLeft()": "infinite",
						"getWinnerBid()": "4974",
						"increment()": "infinite",
						"owner()": "infinite",
						"startDate()": "infinite",
						"withdrawRemaining()": "infinite"
					}
				},
				"methodIdentifiers": {
					"bid()": "1998aeef",
					"claim()": "4e71d92d",
					"duration()": "0fb5a6b4",
					"endDate()": "c24a0f8b",
					"extension()": "2d5537b0",
					"finalize()": "4bb278f3",
					"finalized()": "b3f05b97",
					"gasFee()": "658612e9",
					"getAllBids()": "8d0f6da3",
					"getTimeLeft()": "c7e284b8",
					"getWinnerBid()": "ceb98f6e",
					"increment()": "d09de08a",
					"owner()": "8da5cb5b",
					"startDate()": "0b97bc86",
					"withdrawRemaining()": "ee38db95"
				}
			},
			"storageLayout": {
				"storage": [
					{
						"astId": 8,
						"contract": "Auction.sol:Auction",
						"label": "endDate",
						"offset": 0,
						"slot": "0",
						"type": "t_uint256"
					},
					{
						"astId": 12,
						"contract": "Auction.sol:Auction",
						"label": "winnerBidder",
						"offset": 0,
						"slot": "1",
						"type": "t_address"
					},
					{
						"astId": 14,
						"contract": "Auction.sol:Auction",
						"label": "winnerBid",
						"offset": 0,
						"slot": "2",
						"type": "t_uint256"
					},
					{
						"astId": 29,
						"contract": "Auction.sol:Auction",
						"label": "bids",
						"offset": 0,
						"slot": "3",
						"type": "t_mapping(t_address,t_uint256)"
					},
					{
						"astId": 31,
						"contract": "Auction.sol:Auction",
						"label": "finalized",
						"offset": 0,
						"slot": "4",
						"type": "t_bool"
					},
					{
						"astId": 34,
						"contract": "Auction.sol:Auction",
						"label": "bidders",
						"offset": 0,
						"slot": "5",
						"type": "t_array(t_address)dyn_storage"
					},
					{
						"astId": 36,
						"contract": "Auction.sol:Auction",
						"label": "locked",
						"offset": 0,
						"slot": "6",
						"type": "t_bool"
					}
				],
				"types": {
					"t_address": {
						"encoding": "inplace",
						"label": "address",
						"numberOfBytes": "20"
					},
					"t_array(t_address)dyn_storage": {
						"base": "t_address",
						"encoding": "dynamic_array",
						"label": "address[]",
						"numberOfBytes": "32"
					},
					"t_bool": {
						"encoding": "inplace",
						"label": "bool",
						"numberOfBytes": "1"
					},
					"t_mapping(t_address,t_uint256)": {
						"encoding": "mapping",
						"key": "t_address",
						"label": "mapping(address => uint256)",
						"numberOfBytes": "32",
						"value": "t_uint256"
					},
					"t_uint256": {
						"encoding": "inplace",
						"label": "uint256",
						"numberOfBytes": "32"
					}
				}
			},
			"userdoc": {
				"events": {
					"AuctionExtended(address,uint256,uint256)": {
						"notice": "Finalización de la subasta extendida."
					},
					"AuctionFinished(address,uint256)": {
						"notice": "Se emite cuando la subasta ha finalizado."
					},
					"NewBid(address,uint256)": {
						"notice": "Se emite cuando se realiza una nueva puja válida."
					},
					"PartialRefund(address,uint256)": {
						"notice": "Reclamos parcial automático (mejora a la propuesta en la consigna)"
					},
					"Refund(address,uint256)": {
						"notice": "Reclamo de fondos"
					}
				},
				"kind": "user",
				"methods": {
					"bid()": {
						"notice": "Permite hacer una nueva puja si cumple las reglas de la subasta"
					},
					"claim()": {
						"notice": "Reclama el dinero ofertado menos 2% de gas"
					},
					"getAllBids()": {
						"notice": "Devuelve todas las pujas realizadas en formato estructurado"
					},
					"getTimeLeft()": {
						"notice": "Devuelve el tiempo hasta finalizar la subasta"
					},
					"getWinnerBid()": {
						"notice": "Devuelve la oferta ganador de la subasta y su puja hasta el momento"
					}
				},
				"notice": "Este contrato permite ofertar en subastas.",
				"version": 1
			}
		}
	}
}